:100000000C94F9000C9421010C9421010C94970498
:100010000C9472040C944D040C9421010C94210155
:100020000C9421010C9421010C9421010C942101C8
:100030000C9421010C9421010C9421010C942101B8
:100040000C94DF0A0C9421010C941B040C94F5030E
:100050000C9421010C9421010C9421010C94210198
:100060000C94D0050C9421012B2D2D2D2D2D2D2DF3
:100070002D2D2D2D2D2D2D2D2D2D2D2D2D2D2D2DB0
:100080002D2D2D2D2D2D2D2D2D2D2D2D2B007C208D
:100090002020205465616D45736361706520484878
:1000A000265320454E47494E454552494E4720204C
:1000B00020207C002B2D2D2D2D2D2D2D2D2D2D2D6A
:1000C0002D2D2D2D2D2D2D2D2D2D2D2D2D2D2D2D60
:1000D0002D2D2D2D2D2D2D2D2B0020646576696362
:1000E000652873292E00466F756E642000202D3E12
:1000F00020536572766F2D4932432D426F617264D1
:1001000000202D3E2052656C617900202D3E204458
:100110006973706C617900202D3E20496E70757492
:100120002D4932432D626F61726400202D3E204CB8
:1001300043442D4932432D426F61726400202D3EAD
:10014000204C43440029002028307800466F756E0B
:100150006420616464726573733A20005363616E56
:100160006E696E672E2E2E00493243207363616ED6
:100170006E65723A0052657374617274696E6720BD
:10018000696E00200030003078002E002020002012
:1001900000300000000000240027002A00000000BA
:1001A00000250028002B0000000000230026002965
:1001B0000004040404040404040202020202020310
:1001C000030303030301020408102040800102041A
:1001D000081020010204081020000000080002019D
:1001E0000000030407000000000000000000AD1044
:1001F000A11011241FBECFEFD8E0DEBFCDBF26E097
:10020000AEE0B4E001C01D92A53DB207E1F714E0F5
:10021000A0E0B1E0EEE8F7E202C005900D92AE304A
:10022000B107D9F710E0C8EFD0E004C02197FE0174
:100230000E94AA11C73FD107C9F70E94290B0C944D
:10024000BA130C940000CF92DF92EF92FF920F93BB
:100250001F93CF93DF936C017A018B01C0E0D0E054
:10026000CE15DF0581F0D8016D918D01D601ED919C
:10027000FC910190F081E02DC6010995892B11F0C8
:100280002196EECF7E01C701DF91CF911F910F9193
:10029000FF90EF90DF90CF900895FC01538D448D37
:1002A000252F30E0842F90E0821B930B541710F021
:1002B000CF96089501970895FC01918D828D98172E
:1002C00061F0828DDF01A80FB11D5D968C91928D3A
:1002D0009F5F9F73928F90E008958FEF9FEF089537
:1002E000FC01918D828D981731F0828DE80FF11D00
:1002F000858D90E008958FEF9FEF0895FC01918D1B
:10030000228D892F90E0805C9F4F821B91098F7313
:100310009927089586E395E00E947E0121E0892BCC
:1003200009F420E0822F0895FC01848DDF01A80FDD
:10033000B11DA35ABF4F2C91848D90E001968F730D
:100340009927848FA689B7892C93A089B1898C912C
:10035000837080648C93938D848D981306C002887B
:10036000F389E02D80818F7D80830895EF92FF9245
:100370000F931F93CF93DF93EC0181E0888F9B8DC8
:100380008C8D981305C0E889F989808185FD26C088
:10039000F62E0B8D10E00F5F1F4F0F731127E02E0D
:1003A0008C8DE8120CC00FB607FCFACFE889F989EA
:1003B000808185FFF5CFCE010E949401F1CF8B8D16
:1003C000FE01E80FF11DE35AFF4FF0829FB7F8944A
:1003D0000B8FEA89FB89808180620AC09FB7F894FD
:1003E000EE89FF896083E889F98980818370806460
:1003F00080839FBF81E090E0DF91CF911F910F91AB
:10040000FF90EF900895CF93DF93EC01888D8823C0
:10041000C9F0EA89FB89808185FD05C0A889B98971
:100420008C9186FD0FC00FB607FCF5CF808185FF4C
:10043000F2CFA889B9898C9185FFEDCFCE010E94BA
:100440009401E7CFDF91CF91089580E090E0892B70
:1004500029F00E948A0181110C940000089590E017
:10046000FC01EE0FFF1FE555FE4FA591B4912C91B5
:10047000FC01EE57FB4F30812083880F991FFC0150
:10048000E85CFE4F0190F081E02D8081089585EDBC
:100490008093BC008091BC0084FDFCCF1092350598
:1004A000089540912F04262F30E0240F311D213272
:1004B0003105DCF4209135052430C9F4FC0180E0DD
:1004C00090E0861758F430912F042191DC01A15F50
:1004D000BB4FA30FB11D2C930196F3CF80912F0436
:1004E000680F60932F0480E0089581E0089582E012
:1004F0000895089508950895E0918A0480918904EB
:10050000E81730F4F0E0E151FB4F808190E008956E
:100510008FEF9FEF089590918A0480918904981736
:1005200050F4E92FF0E0E151FB4F208130E09F5F74
:1005300090938A0402C02FEF3FEFC9010895809184
:10054000890490E020918A04821B91090895CF923A
:10055000DF92EF92FF920F931F93CF93DF937C0173
:10056000CB018A012091CB04222389F0EB016B019E
:10057000C40ED51ECC15DD0569F06991D701ED914A
:10058000FC910190F081E02DC7010995F3CF642F14
:100590000E945102C801DF91CF911F910F91FF90EE
:1005A000EF90DF90CF900895CF93DF931F92CDB758
:1005B000DEB769832091CB042223D1F02091EE0491
:1005C000203240F021E030E0FC013383228380E0E0
:1005D00090E015C08091CC04E82FF0E0E353FB4F8E
:1005E000998190838F5F8093CC048093EE0405C043
:1005F00061E0CE0101960E94510281E090E00F90EF
:10060000DF91CF910895089580E090E008950E94D1
:1006100097130F931F93CF93DF93EC0188819981F8
:10062000009729F02A813B812617370788F48B0130
:100630006F5F7F4F0E94D112009761F0998388838A
:100640001B830A832C813D81232B11F4FC01108232
:1006500081E001C080E0DF91CF911F910F9108955B
:10066000CF92DF92EF92FF921F93CF93DF93FC0123
:100670002689222339F01EBC00000DB407FEFDCFF1
:100680001EB526C0EC0161E081810E94C708E12C03
:10069000F12C10E0CC24C394D12C8B810E949E08B5
:1006A000892B39F0C6010E2C01C0880F0A94EAF795
:1006B000182B60E089810E94C70861E089810E944F
:1006C000C708FFEFEF1AFF0A88E0E816F10429F7E0
:1006D000812FDF91CF911F91FF90EF90DF90CF900E
:1006E0000895FC01808191810C944812EF92FF9251
:1006F0000F931F93CF93DF93EC01198218821B8213
:100700001A821D821C828617970741F1FB01008126
:1007100011810115110511F1E480F580B7010E94E6
:1007200009032881398181110DC02115310519F086
:10073000C9010E944812198218821D821C821B82E4
:100740001A820CC0FD82EC82B801C901DF91CF9101
:100750001F910F91FF90EF900C94A513DF91CF9113
:100760001F910F91FF90EF900895EF92FF920F93DA
:100770001F93CF93DF93EC01198218821B821A8298
:100780001D821C826115710549F18B01FB010190ED
:100790000020E9F731977F01E61AF70AB7010E94B6
:1007A00009032881398181110DC02115310519F006
:1007B000C9010E944812198218821D821C821B8264
:1007C0001A820CC0FD82EC82B801C901DF91CF9181
:1007D0001F910F91FF90EF900C94A513DF91CF9193
:1007E0001F910F91FF90EF9008951F920F920FB6F7
:1007F0000F9211242F933F934F935F936F937F93A7
:100800008F939F93AF93BF93EF93FF9386E395E00E
:100810000E949401FF91EF91BF91AF919F918F91B1
:100820007F916F915F914F913F912F910F900FBEEC
:100830000F901F9018951F920F920FB60F921124D0
:100840002F938F939F93EF93FF93E0914605F09141
:1008500047058081E0914C05F0914D0582FD12C065
:10086000908180914F058F5F8F7320915005821783
:1008700051F0E0914F05F0E0EA5CFA4F958F8093DC
:100880004F0501C08081FF91EF919F918F912F9132
:100890000F900FBE0F901F9018951F920F920FB6DA
:1008A0000F9211242F933F934F935F936F937F93F6
:1008B0008F939F93AF93BF93EF93FF9382E00E9438
:1008C0002F02FF91EF91BF91AF919F918F917F91F7
:1008D0006F915F914F913F912F910F900FBE0F90AD
:1008E0001F9018951F920F920FB60F9211242F93FD
:1008F0003F934F935F936F937F938F939F93AF93A8
:10090000BF93EF93FF9381E00E942F02FF91EF913D
:10091000BF91AF919F918F917F916F915F914F9117
:100920003F912F910F900FBE0F901F9018951F921F
:100930000F920FB60F9211242F933F934F935F9313
:100940006F937F938F939F93AF93BF93EF93FF9397
:1009500080E00E942F02FF91EF91BF91AF919F9194
:100960008F917F916F915F914F913F912F910F9058
:100970000FBE0F901F901895EF92FF920F931F9349
:10098000CF93DF93FC012689222339F06EBD00004E
:100990000DB407FEFDCF8EB527C0062FEC0161E038
:1009A00081810E94C708E12CF12C10E060E0898170
:1009B0000E94C708C8010E2C02C0959587950A941D
:1009C000E2F780FF02C061E001C060E08A810E941E
:1009D000C70861E089810E94C708FFEFEF1AFF0A8C
:1009E00088E0E816F10411F7DF91CF911F910F9184
:1009F000FF90EF900895682F83ED95E00C94D4025A
:100A000008958CBD9DBD0895CF92DF92EF92FF9225
:100A10000F931F93CF93DF937C016B01C42FFC01D5
:100A20008589042F10E08823A1F18689882321F08D
:100A300081E790E00E94010560E0F70180810E945B
:100A4000C70862E070E080E090E00E94890963E0FE
:100A5000C7010E94BC04E6010C0D1D1DC017D10783
:100A600059F061E070E080E090E00E948909C701E0
:100A70000E9430038993F2CF61E0F7018081DF911A
:100A8000CF911F910F91FF90EF90DF90CF900C943A
:100A9000C70862E070E080E090E00E94890962E0AF
:100AA0006C0F613208F060E284E20E94A5071092A8
:100AB0008A048093890483ED95E00E948B02E6010D
:100AC0000C0D1D1DC017D10761F061E070E080E0E2
:100AD00090E00E94890983ED95E00E948B02899342
:100AE000F1CFDF91CF911F910F91FF90EF90DF90A9
:100AF000CF900895CF92DF92EF92FF920F931F93C2
:100B0000CF93DF93EC016B01E12CF12C8D898823CD
:100B100009F18E89882321F081E790E00E94010588
:100B200060E088810E94C70862E070E080E090E0A9
:100B30000E94890962E0CE010E94BC04CE010E949D
:100B40003003082F61E088810E94C70811E001305E
:100B500039F41CC08C810E949E0811E08823B1F0FA
:100B600010E0C114D10459F08AE0E80EF11CCE1453
:100B7000DF0428F48CED93E00E943D0707C06AE093
:100B800070E080E090E00E948909C0CF812FDF9162
:100B9000CF911F910F91FF90EF90DF90CF9008952C
:100BA0001F920F920FB60F9211242F933F934F93E2
:100BB0005F936F937F938F939F93AF93BF93EF93C5
:100BC000FF938091B900887F803609F49CC068F556
:100BD000883209F45BC090F4803109F454C038F4D1
:100BE000882309F4F6C0883009F44DC0F6C0883176
:100BF00009F44CC0803209F45DC0EFC0803409F4C0
:100C000068C048F4803309F455C0883309F0E5C062
:100C100080933305D8C0803509F44FC0883509F476
:100C20005DC0883409F0D9C0D6C0883909F4C7C07E
:100C3000A8F4883709F467C038F4883609F463C02B
:100C4000803709F460C0C9C0883809F4B8C0803959
:100C500009F45FC0803809F0C0C05BC0803B09F474
:100C600086C038F4803A09F466C0883A09F47FC037
:100C7000B4C0803C09F4A7C0883C09F4A4C0883BF8
:100C800009F48AC0AAC08091300510C09091320545
:100C900080913105981770F5E091320581E08E0F53
:100CA00080933205F0E0E15FFA4F80818093BB00D2
:100CB00085EC86C0809333058EC0E091320581E0DB
:100CC0008E0F809332058091BB00F0E0E15FFA4F18
:100CD000808390913205809131056EC0E09132059C
:100CE00081E08E0F809332058091BB00F0E0E15FE0
:100CF000FA4F80838091340581116DC081E080932B
:100D00002F0584EA61C083E0809335051092510479
:100D1000CFCF80915104803208F051C0E09151044E
:100D200081E08E0F809351048091BB00F0E0EF5C76
:100D3000FB4F8083BDCF85EC8093BC0010923505BE
:100D400080915104803230F4E0915104F0E0EF5C86
:100D5000FB4F10826091510470E0E0918504F091A6
:100D6000860481E394E009951092510436C084E032
:100D7000809335051092300410922F04E09187047F
:100D8000F0918804099580912F04811105C081E0BC
:100D900080932F0410920F04E091300481E08E0FB5
:100DA00080933004F0E0E15FFB4F80818093BB00D3
:100DB0009091300480912F04981708F479CF85E83A
:100DC0008093BC000AC085EC8093BC00109235056E
:100DD00004C0109233050E944702FF91EF91BF912A
:100DE000AF919F918F917F916F915F914F913F91C3
:100DF0002F910F900FBE0F901F901895833081F0A8
:100E000028F4813099F08230A1F008958730A9F05C
:100E10008830B9F08430D1F4809180008F7D03C098
:100E2000809180008F7780938000089584B58F77BC
:100E300002C084B58F7D84BD08958091B0008F7706
:100E400003C08091B0008F7D8093B000089500971B
:100E500069F0FC0101900020E9F73197AF01481BD0
:100E6000590BBC0186E395E00C94230180E090E0EF
:100E700008958AE094E00C942707CF93DF930E94B3
:100E80002707EC010E9439078C0F9D1FDF91CF913E
:100E900008950F931F93CF93DF938C01C0E0D0E0B0
:100EA000F801EC0FFD1F6491662341F086E395E0A5
:100EB0000E94B601892B11F02196F2CFCE01DF916D
:100EC000CF911F910F9108958F929F92AF92BF92F1
:100ED0000F931F93CF93DF93CDB7DEB7A1970FB6D4
:100EE000F894DEBF0FBECDBF19A2423008F44AE02D
:100EF0008E010F5D1F4F842E912CA12CB12CA501CA
:100F000094010E948811E62FB901CA01015011090C
:100F1000EA3014F4E05D01C0E95CD801EC93232BC6
:100F2000242B252B61F7C8010E942707A1960FB635
:100F3000F894DEBF0FBECDBFDF91CF911F910F910F
:100F4000BF90AF909F908F9008959091350591112B
:100F5000FCCF91E090933505909334052FEF2093CB
:100F6000330510923205260F2093310590933005FA
:100F700090913005880F892B8093300580912F0543
:100F8000813061F410922F05809130058093BB0071
:100F90008091BC0083FDF8CF85EC01C085EE809385
:100FA000BC00809135058130E1F3809132058617D0
:100FB00010F460913205AFE0B5E0EFEEF4E080E0D0
:100FC000861721F09D9191938F5FFACF0895282F76
:100FD0003091EE04313208F04AC08091350581111C
:100FE000FCCF9091ED0442E0409335052093340509
:100FF0002FEF209333051092320530933105EDEC3D
:10100000F4E0AFE0B5E020E0321721F041914D93DC
:101010002F5FFACF1092300520913005990F922B57
:101020009093300590912F05913061F410922F0527
:10103000909130059093BB009091BC0093FDF8CF48
:1010400095EC01C095EE9093BC00909135059230DF
:10105000E1F3909133059F3F79F080913305803221
:1010600041F080913305803331F084E005C081E0A8
:1010700003C082E001C083E01092CC041092EE0421
:101080001092CB040895CF92DF92EF92FF92CF930C
:10109000DF936B017C016DE286E395E00E94B6016F
:1010A000EC0166277727CB016C197D098E099F0912
:1010B0004AE00E9464078C0F9D1FDF91CF91FF9043
:1010C000EF90DF90CF9008950C942707EFEDF5E0B7
:1010D000918162818081238131E03093CB04209320
:1010E000ED041092CC041092EE0460956923682BF5
:1010F00083ED95E00E94D40281E00C94E707CF9342
:10110000DF93FC01448155816081718186E395E024
:101110000E942301EC010E9439078C0F9D1FDF9173
:10112000CF910895CF93DF930E944907EC010E946D
:1011300039078C0F9D1FDF91CF910895CF93DF93D7
:10114000282F30E0F901E752FE4F8491F901EB536B
:10115000FE4FD491F901EF54FE4FC491CC2391F08E
:1011600081110E94FE06EC2FF0E0EE0FFF1FE95503
:10117000FE4FA591B491EC91ED2381E090E021F434
:1011800080E002C080E090E0DF91CF9108951F934E
:10119000CF93DF93282F30E0F901E752FE4F84917F
:1011A000F901EB53FE4FD491F901EF54FE4FC49176
:1011B000CC23C1F0162F81110E94FE06EC2FF0E027
:1011C000EE0FFF1FE356FE4FA591B4919FB7F89421
:1011D000111104C08C91D095D82302C0EC91DE2B64
:1011E000DC939FBFDF91CF911F91089510928A04E5
:1011F000109289041092CC041092EE0410923505DE
:1012000081E08093340510922F0561E082E10E9415
:10121000C70861E083E10E94C708E9EBF0E0808144
:101220008E7F808380818D7F808388E48093B80067
:1012300085E48093BC0089E792E0909388048093D2
:1012400087048AE792E0909386048093850408954A
:10125000CF93DF9390E0FC01EB53FE4F2491FC0110
:10126000EF54FE4F8491882361F190E0880F991F1D
:10127000FC01ED56FE4FC591D491FC01E356FE4FA3
:10128000A591B491611109C09FB7F8948881209508
:1012900082238883EC912E230BC0623061F49FB7C8
:1012A000F8948881322F309583238883EC912E2BFC
:1012B0002C939FBF06C08FB7F894E8812E2B28830C
:1012C0008FBFDF91CF910895CF93DF93EC01862FED
:1012D00068839DE099839BE09A839CE09B831C82BA
:1012E0001D8291E09D8B1E8A61E00E94280961E0C9
:1012F00088810E94C70861E089810E94280961E015
:101300008A810E94280960E08B81DF91CF910C9443
:1013100028098F929F92AF92BF92CF92DF92EF9265
:10132000FF926B017C010E94BA0A4B015C01C1145F
:10133000D104E104F104F1F00E94BA0ADC01CB010E
:1013400088199909AA09BB09883E9340A105B105EE
:1013500070F321E0C21AD108E108F10888EE880E86
:1013600083E0981EA11CB11CC114D104E104F10456
:1013700019F7DDCFFF90EF90DF90CF90BF90AF9047
:101380009F908F9008958F929F92AF92BF92CF922D
:10139000DF92EF92FF920F931F93CF93DF9300D0D2
:1013A00000D000D0CDB7DEB78C016A01FC01858981
:1013B000EE24E394E60E882309F45FC0868988232F
:1013C00021F081E790E00E94010560E0F801808152
:1013D0000E94C70862E070E080E090E00E94890906
:1013E00061E0C8010E94BC0460E0C8010E94BC0426
:1013F00060E0C8010E94BC046FEFC8010E94BC04F9
:101400006E2DC8010E94BC046E2D6195C8010E941A
:10141000BC0464EDC8010E94BC04A12C93EDB92E5C
:10142000F12CF1E0EF1AF1088A2D90E08E159F055E
:1014300074F49C0125573B4F4901F9016081C801B3
:101440000E94BC04F4018081B80EA394EDCF6B2DF3
:101450006095C8010E94BC0460E0C8010E94BC0401
:1014600061E0F80180810E94C708F801868988231D
:1014700009F449C00E94000546C062E070E080E0C7
:1014800090E00E94890981E08093CB0484E28093FC
:10149000ED041092CC041092EE0480E00E94FB0454
:1014A00080E00E94FB048FEF0E94FB048E2D0E94BF
:1014B000FB048E2D81950E94FB0484ED0E94FB04A9
:1014C000812C83ED982EF12CF1E0EF1AF108882D94
:1014D00090E08E159F056CF49C0125573B4F5901F8
:1014E000F90180810E94FB04F5018081980E8394AC
:1014F000EECF892D80950E94FB0480E00E94FB04C2
:1015000081E00E94E707B601C8010E947A05F82E23
:10151000811102C0F12C1AC046E0BE016F5F7F4FFF
:10152000C8010E94040546E050E06CE071E0CE0185
:1015300001960E94AC13892B69F7F80185898823ED
:1015400029F0B601C8010E947A05F82E8F2D269643
:101550000FB6F894DEBF0FBECDBFDF91CF911F91C4
:101560000F91FF90EF90DF90CF90BF90AF909F9042
:101570008F9008953FB7F8948091CD069091CE0654
:10158000A091CF06B091D00626B5A89B05C02F3FED
:1015900019F00196A11DB11D3FBFBA2FA92F982F99
:1015A0008827820F911DA11DB11DBC01CD0142E014
:1015B000660F771F881F991F4A95D1F708951F92CC
:1015C0000F920FB60F9211242F933F938F939F93F7
:1015D000AF93BF938091C9069091CA06A091CB06A4
:1015E000B091CC063091C80623E0230F2D3720F4AC
:1015F0000196A11DB11D05C026E8230F0296A11D6D
:10160000B11D2093C8068093C9069093CA06A09383
:10161000CB06B093CC068091CD069091CE06A091DA
:10162000CF06B091D0060196A11DB11D8093CD06C5
:101630009093CE06A093CF06B093D006BF91AF9102
:101640009F918F913F912F910F900FBE0F901F9000
:101650001895CF93DF93CDB7DEB7A3970FB6F89465
:10166000DEBF0FBECDBF789484B5826084BD84B5E3
:10167000816084BD85B5826085BD85B5816085BD8D
:1016800080916E00816080936E0010928100809145
:1016900081008260809381008091810081608093CD
:1016A0008100809180008160809380008091B100F2
:1016B00084608093B1008091B00081608093B0001D
:1016C00080917A00846080937A0080917A008260B1
:1016D00080937A0080917A00816080937A00809173
:1016E0007A00806880937A001092C1000E94F60808
:1016F000E0914605F091470582E08083E091420544
:10170000F09143051082E0914405F091450580E198
:10171000808310924E05E0914A05F0914B0586E0DA
:101720008083E0914805F091490580818061808344
:10173000E0914805F0914905808188608083E091BF
:101740004805F0914905808180688083E0914805D3
:10175000F091490580818F7D808362EC76E0CE0137
:1017600001960E94760384EB90E00E9492088EE836
:1017700090E00E94920888E690E00E9492080E9401
:101780003907CE0101960E947F080E94390768EC54
:1017900070E080E090E00E948909CE0101960E94ED
:1017A000710366E671E0CE0101960E94B503CE0199
:1017B00001960E947F08CE0101960E94710362EC9F
:1017C00076E0CE0101960E947603CE0101960E943A
:1017D0007F08CE0101960E9471036CEB76E0CE018A
:1017E00001960E947603CE0101960E947F08CE01E9
:1017F00001960E94710366EB76E0CE0101960E948D
:101800007603CE0101960E947F08CE0101960E94C8
:1018100071030E94390784E791E00E943D0788E642
:1018200091E00E9492088CE591E00E94920848E0C5
:10183000C42ED12CE12CF12C00E0BB24B3941C2D40
:10184000B092CB04C092ED041092CC041092EE043E
:1018500081E00E94E70781113EC08CE491E00E9484
:1018600049074AE0C701B6010E94640787E491E096
:101870000E94490740E1C701B6010E94640785E460
:1018800091E00E944907173219F48DE391E018C0E6
:10189000183319F48BE291E013C0193319F487E17E
:1018A00091E00EC01C3319F48BE091E009C01F33A6
:1018B00019F481E091E004C0163121F48DEE90E03E
:1018C0000E9449070E9439070F5F61E070E080E0E5
:1018D00090E00E9489092FEFC21AD20AE20AF20AA6
:1018E00048E7C416D104E104F10409F0A8CF86EE5C
:1018F00090E00E944907602F70E080E090E04AE0AD
:101900000E9464078AED90E00E9492088EE791E0C1
:101910000E943D070E94390787E991E00E943D0738
:101920000E94390780EA91E00E943D070EEF15E022
:10193000412C512C320182E0382E9BEBE92E91E0B4
:10194000F92E2FECC22E21E0D22E34E1232E8BEA89
:1019500091E00E9464084AE0C301B2010E9464075A
:101960000E943907D80155968C915597882309F420
:101970005AC056968C91882309F435C0BFB6F894A6
:1019800080910E04811125C0F7018491F601949194
:10199000E82FF0E0EE0FFF1FED56FE4FA591B4913A
:1019A0008C91982321F461E08AE00E94C70861E0ED
:1019B0008AE00E9428098CB580618CBD8CB580645A
:1019C0008CBD61E08DE00E94280961E08BE00E94FF
:1019D000280980910E048F5F80930E04BFBE81E7BB
:1019E00090E00E94010560E0D8018C910E94C70838
:1019F00068EE73E080E090E00E94890930928B04E9
:101A000048EE53E061E0C8010E94C30961E0F801BB
:101A100080810E94C708D80156968C91882309F1CD
:101A20000E9400051EC00E94F60861E0F801858151
:101A30000E94C70860E0D80115968C910E94C708E3
:101A400060E971E080E090E00E94890961E0F801BE
:101A500085810E94C7086AE070E080E090E00E9403
:101A60008909F2E3F0938B0425E020938C044FEF77
:101A700040938D0481E080938E048AE080938F04EC
:101A800048EE53E065E0C8010E94C30930928B0420
:101A900048EE53E061E0C8010E94C3098823B9F110
:101AA0004CE06BE874E0C8010E94040546E050E099
:101AB00060E071E08BE894E00E94AC13892B39F56B
:101AC000D80155968C91811103C0E7E0F0E002C087
:101AD000E6E0F0E0E557FB4F8080912CA12CB12C83
:101AE000BA2CA92C982C88248181882ABA2CA92C5C
:101AF000982C88248281882ABA2CA92C982C882496
:101B00008381882A81149104A104B10441F581E7FD
:101B100093E00E94640885E791E00E9492086AEFD2
:101B200070E080E090E00E94890983E0882E912C8B
:101B3000A12CB12C4AE0C501B4010E9464070E94A7
:101B4000390764E670E080E090E00E948909B1E026
:101B50008B1A9108A108B10869F70C94000081EC78
:101B600091E00E9464086B2D77278827992740E130
:101B70000E9464070E94390780ED91E00E9464088A
:101B80006A2D70E080E090E04AE00E9464076EE217
:101B900086E395E00E94B601692D70E080E090E058
:101BA0004AE00E9464070E94390720928B0481E07A
:101BB00080938C0420928D0480938E0448EE53E031
:101BC00064E0C8010E94C309882331F048E06BE853
:101BD00074E0C8010E94040564E670E080E090E0D3
:101BE0000E948909EFEF4E1A5E0A6E0A7E0A095EAC
:101BF0001F4FF4E04F1651046104710409F0A7CEA1
:101C00008FED91E00E943D070E94390789EE91E037
:101C10000E943D0785EF91E00E943D078FE380938E
:101C2000E2050E94F6088091E0058093E30561E0FB
:101C30008091E2050E94A50710928A04809389048E
:101C4000811101C0FFCF83ED95E00E948B0280934C
:101C5000E00564E670E080E090E00E948909E12CF4
:101C6000F12CCC24C394D12C8091E10586010E2C5B
:101C700001C0000F0A94EAF7802B8093E105809160
:101C8000DF05902F909589238093DF050E946608D9
:101C90008091DF05082B0093DF050E94660864E64B
:101CA00070E080E090E00E9489092FEFE21AF20ACA
:101CB00043E0E416F104C1F664EF71E080E090E0E7
:101CC0000E94890928E2E22E21E0F22E08E111E0CB
:101CD000CC24C394D12CD7019D907D01F801A19013
:101CE000B1908F0195013327992049F03091DF059C
:101CF000C60101C0880F2A95EAF7832B0BC090918B
:101D0000DF05A60102C0440F551F2A95E2F7842F74
:101D1000809589238093DF050E94660888E092E021
:101D20000E9464088EE092E00E946408B501BB0C3A
:101D3000880B990B97FF03C00E94430803C04AE039
:101D40000E94640786E192E00E946408692D70E0B9
:101D500080E090E04AE00E9464070E94390764E155
:101D600070E080E090E00E94890951E00E31150793
:101D700009F0B1CF0E94390780E292E00E943D074E
:101D80008FE392E00E943D070E9439078AE492E0C7
:101D90000E943D070E94390785E592E00E943D07B9
:101DA0000E9439071E0181E1280E311CFF24F394A3
:101DB000D101E7E01D92EA95E9F790E3892E91E0E1
:101DC000992E0EEF15E0198E1A8E1B8E1C8E83E84D
:101DD00092E00E9464084AE0698D7A8D8B8D9C8D1B
:101DE0000E9464070E943907FAE4F0938B04F09292
:101DF0008C0410928D0440E050E063E0C8010E9422
:101E0000C3098D8F882339F1D80155968C91882389
:101E100091F044E16BE874E0C8010E9404058091F0
:101E200092048130C1F4E0909704A8E9B4E03F8EB9
:101E30002E8EF10108C060E070E0C8010E947A05B2
:101E40008111E7CF08C08E2F82198E1508F0B9C016
:101E50008D918193F8CF89E893E00E943D078091AE
:101E6000DF058E7FA1C0B0E4B0938B04F0928C04A8
:101E7000E0E3E0938D04F0928E0448EE53E064E0DA
:101E8000C8010E94C309E82E882309F451C14AE120
:101E90006BE874E0C8010E940405809192048111EE
:101EA00047C180E1E3E9F4E0DE01119601900D9273
:101EB0008A95E1F7AE014F5F5F4F6A015A01412CED
:101EC000512C3201D501ED915D01E88FE03120F414
:101ED00081E991E00E944907F88D6F2F70E080E062
:101EE00090E040E10E9464072FE042165104610433
:101EF000710421F08FE891E00E9449074FEF441AE6
:101F0000540A640A740A50E14516510461047104CC
:101F1000C9F68CE891E00E944907D6016D916D01E8
:101F2000603208F0FDC08AE891E00E9449072C1455
:101F30003D0499F70E943907F4012081022E000C1C
:101F4000330B898190E02817390709F0EEC02A8108
:101F500030E08181082E000C990B2817390709F011
:101F6000E4C08DE493E00E943D07EE2009F4E4C054
:101F7000898D9A8DAB8DBC8D0196A11DB11D898F68
:101F80009A8FAB8FBC8F095E1F4F92E0890E911C18
:101F9000898D9A8DAB8DBC8D0497A105B10509F093
:101FA00016CF8091DF0581608093DF050E9466086F
:101FB00064EF71E080E090E00E9489090E942502B0
:101FC000F7CE84EA93E00E943D07AE2CB12CC12CE1
:101FD000D12C412C512C3201D601C5010197A10908
:101FE000B10988A399A3AAA3BBA34A145B046C04F8
:101FF0007D0488F587E891E00E944907EE8DFF8D0A
:102000002191FF8FEE8F288F203120F485E891E019
:102010000E944907488D642F70E080E090E040E125
:102020000E94640751E0A516B104C104D10469F00F
:1020300088A199A1AAA1BBA1481659066A067B06E8
:1020400021F083E891E00E9449079FEF491A590A5D
:10205000690A790ACACF0E943907A4E0EA1619F082
:1020600082EA92E067C086E0E6E0F1E0D8011E96E1
:1020700001900D928A95E1F784E0F101D80116965E
:1020800001900D928A95E1F7F801E586F0E4F0936E
:102090008B04F0928C0420E620938D04F0928E0441
:1020A00086E0F8013E96AFE8B4E001900D928A9583
:1020B000E1F7D80116968C911697809395041796A0
:1020C0008C9117978093960418968C91189780930B
:1020D000970419968C918093980448EE53E06EE033
:1020E000C8010E94C309882359F04CE06BE874E0F2
:1020F000C8010E940405EE24E394809192048111AA
:10210000E12C8EEC92E00E943D0764E670E080E0F6
:1021100090E00E948909E110A6CE85E093E00AC014
:1021200086E395E00E94B60102CF8EE393E002C001
:102130008CEB93E00E943D079D8D992309F431CFEC
:102140008ECE86EB96E00E9471038CEB96E00E94A7
:10215000710382EC96E00C947103E6E3F5E01382E0
:10216000128288EE93E0A0E0B0E084839583A6839A
:10217000B78322E431E03183208325EC30E03587DA
:10218000248724EC30E03787268720EC30E0318B41
:10219000208B21EC30E0338B228B22EC30E0358B2E
:1021A000248B26EC30E0378B268B118E128E138E0B
:1021B000148EE3EDF5E01382128284839583A68367
:1021C000B78384E591E09183808365EE73E082ECD0
:1021D00096E00E94B50363EF73E08CEB96E00E94FB
:1021E000B5036EEF73E086EB96E00E94B50368E0FE
:1021F0008FE996E00E94640967E088E896E00E9413
:10220000640964E081E796E00E94640962E08AE57F
:1022100096E00E94640987E1EFE9F6E0AEEFB5E0F1
:1022200001900D928A95E1F787E1E8E8F6E0A5E1F3
:10223000B6E001900D928A95E1F787E1E1E7F6E0DB
:10224000ACE2B6E001900D928A95E1F787E1EAE50C
:10225000F6E0A3E4B6E001900D928A95E1F7EFED88
:10226000F5E0108211821282138214821582168286
:102270001782108611861286138614861586168696
:10228000108A1786128A118A148A138A168A158A66
:10229000108E178A128E118E148E138E168E158E36
:1022A00008952F923F924F925F926F927F928F92FA
:1022B0009F92AF92BF92CF92DF92EF92FF920F93D5
:1022C0001F93CF93DF93CDB7DEB7CA1BDB0B0FB6DF
:1022D000F894DEBF0FBECDBF09942A88398848889C
:1022E0005F846E847D848C849B84AA84B984C88432
:1022F000DF80EE80FD800C811B81AA81B981CE0F29
:10230000D11D0FB6F894DEBF0FBECDBFED0108950D
:10231000A1E21A2EAA1BBB1BFD010DC0AA1FBB1FE9
:10232000EE1FFF1FA217B307E407F50720F0A21B5B
:10233000B30BE40BF50B661F771F881F991F1A94C8
:1023400069F760957095809590959B01AC01BD01F2
:10235000CF010895EE0FFF1F0590F491E02D099431
:102360000F931F93CF93DF938230910510F482E097
:1023700090E0E091D306F091D40620E030E0A0E0B8
:10238000B0E0309719F140815181028113814817E3
:102390005907C8F08417950769F4109731F0129621
:1023A0000C93129713961C9327C00093D306109397
:1023B000D40622C02115310519F04217530718F42D
:1023C0009A01BD01EF01DF01F801DBCF21153105D5
:1023D000F9F0281B390B2430310580F48A819B8168
:1023E0006115710521F0FB019383828304C09093F2
:1023F000D4068093D306FE01329644C0FE01E20F5C
:10240000F31F8193919322503109398328833AC075
:102410002091D1063091D206232B41F42091140152
:10242000309115013093D2062093D10620911201EC
:10243000309113012115310541F42DB73EB740917C
:10244000160150911701241B350BE091D106F09134
:10245000D206E217F307A0F42E1B3F0B281739070B
:1024600078F0AC014E5F5F4F2417350748F04E0FF0
:102470005F1F5093D2064093D1068193919302C07F
:10248000E0E0F0E0CF01DF91CF911F910F9108952F
:10249000CF93DF93009709F481C0FC013297138238
:1024A0001282A091D306B091D406109781F42081B6
:1024B0003181820F931F2091D1063091D2062817C7
:1024C000390751F5F093D206E093D10667C0ED01CC
:1024D00020E030E0CE17DF0740F44A815B819E01A7
:1024E00041155105F1F0EA01F5CFD383C283408154
:1024F0005181840F951FC817D90759F48881998194
:10250000840F951F0296918380838A819B81938398
:1025100082832115310529F4F093D406E093D30684
:102520003DC0E901FB83EA8349915991C40FD51F4E
:10253000EC17FD0761F480819181840F951F02964D
:10254000E90199838883828193819B838A83E0E078
:10255000F0E012968D919C911397009719F0FD0170
:10256000DC01F7CF8D919C9111979D012E5F3F4F1C
:10257000820F931F2091D1063091D2062817390778
:1025800069F4309729F41092D4061092D30602C051
:1025900013821282B093D206A093D106DF91CF911D
:1025A0000895A0E0B0E0E7EDF2E10C945511EC01E4
:1025B000009721F4CB010E94B011B4C0FC01E60FDA
:1025C000F71F9C0122503109E217F30708F4A8C055
:1025D000D9010D911C91119706171707B0F005301E
:1025E000110508F49BC0C80104978617970708F4E3
:1025F00095C002501109061B170B019311936D939F
:102600007C93CF010E94481289C05B01A01AB10AD5
:102610004C01800E911EA091D306B091D406612C7E
:10262000712CE12CF12C109709F446C08D919C91EE
:102630001197A815B905B1F56C0142E0C40ED11C83
:10264000CA14DB0478F14C018A189B08640142E04B
:10265000C40ED11C1296BC9012971396AC91B5E0A3
:10266000CB16D10440F0B282A38391828082D9013B
:102670006D937C9309C00E5F1F4F800F911FF9016E
:1026800091838083EB2DFA2FE114F10431F0D7010F
:102690001396FC93EE93129741C0F093D406E09307
:1026A000D3063CC06816790608F43C017D011296F9
:1026B0000D90BC91A02DB7CF8091D1069091D206FC
:1026C00088169906E1F466167706C8F4809112011F
:1026D00090911301009741F48DB79EB74091160178
:1026E00050911701841B950BE817F907C8F4F09374
:1026F000D206E093D106F901718360830FC0CB014C
:102700000E94B0117C01009759F0A801BE010E94FF
:102710009C13CE010E944812C70104C0CE0102C022
:1027200080E090E0CDB7DEB7EEE00C94711181E06F
:1027300090E0F8940C94BA13FB01DC0102C0019004
:102740000D9241505040D8F70895FB01DC010190F3
:102750000D920020E1F70895FB01DC01415050404B
:1027600030F08D910190801919F40020B9F7881B81
:10277000990B089510E0C8EFD0E004C0FE010E945C
:0E278000AA112196C93FD107C9F7F894FFCFDF
:10278E0000FF06FAD503FFFFFFFFFFFF0000FF006B
:10279E00FF000000D506200000000100020003002B
:1027AE0004000500060007000001010101010101FE
:1027BE0041485344474641426B006C006D00000097
:1027CE000000B60123014D0103027E015C01700180
:1027DE0000000000D402A70204037B029F028B02BA
:1027EE007C0208070402216865616465725F626598
:1027FE0067696E004932433A202E2E2E20007375E3
:10280E00636365737366756C6C79207363616E6E4A
:10281E00656420493243004932433A204F4B210030
:10282E00524649443A202E2E2E2000696E69746954
:10283E00616C697A696E67207265616465723A20AF
:10284E0000466F756E64206368697020504E3500C7
:10285E004669726D77617265207665722E20005220
:10286E004649443A204F4B210052656C61793A201B
:10287E002E2E2E2000696E697469616C697A696EFC
:10288E00672072656C61790020202020200052653F
:10289E006C6179205B005D2073657420746F20007D
:1028AE007375636365737366756C6C7920696E6995
:1028BE007469616C697A65642072656C6179005225
:1028CE00656C61793A204F4B2100217365747570E8
:1028DE005F656E64003D3D3D3D3D3D3D3D3D3D3DB5
:1028EE003D3D3D3D3D3D3D3D53544152543D3D3DAD
:1028FE003D3D3D3D3D3D3D3D3D3D3D3D3D3D3D3DFA
:10290E003D3D00436865636B696E67207072657349
:10291E00656E636520666F72207265616465723ADA
:10292E00200043617264206973206E6F74204D69BC
:10293E006661726520636C61737369632C206469D0
:10294E007363617264696E672063617264005472AE
:10295E0079696E6720746F2061757468656E74692D
:10296E006361746520626C6F636B203420776974C9
:10297E00682064656661756C74204B4559412076FC
:10298E00616C75650041757468656E746963617418
:10299E00696F6E206661696C65642C206361726478
:1029AE00206D617920616C726561647920626520A9
:1029BE0061757468656E74696361746564005772DD
:1029CE006F6E672070617373776F72640021457646
:1029DE00656E7420636F72726563742063617264D6
:1029EE0020686173206265656E20706C616365643A
:1029FE00004469646E27742066696E6420504E35FB
:102A0E00337820626F617264004E6F20707265734E
:102A1E00656E6365206F6E207468652072656164F3
:102A2E0065722100436172642070726573656E7405
:102A3E00206F6E207265616465722100526561645B
:102A4E00696E67206661696C65642C2064697363C6
:102A5E00617264696E6720636172640054494D450A
:102A6E004F55542100504E353332204578616D70EC
:102A7E006C650032322E30312E32303230007665B7
:0E2A8E007273696F6E20302E31000D0A000049
:00000001FF
