:100000000C94380A0C94600A0C94600A0C944A0C04
:100010000C94250C0C94000C0C94600A0C94600A4F
:100020000C94600A0C94600A0C94600A0C94600AA8
:100030000C94600A0C94600A0C94600A0C94600A98
:100040000C945C170C94600A0C941A130C94F41220
:100050000C94600A0C94600A0C94600A0C94600A78
:100060000C946F0C0C94600AAED580A83FD300406E
:100070008D142002A1C8DA12817FD9F1DB40A4A639
:10008000AF202020202020202020454E47494E45EB
:100090004552494E470014400A0B206002020306F5
:1000A0000608070103030406020301050505060609
:1000B0000506050505060203050506040A070605EB
:1000C00006050507060204050409070705070605D6
:1000D00005070509060506030303040502050504D3
:1000E00005050405050203040209050505050305C8
:1000F00003050408050505030304050600000000C8
:10010000601E2000080608000000C8784EC8784E1F
:10011000200000200000800C1222C3040060202078
:1001200000000C92522CD02824C220000000002095
:100130002000C0201C32CAC4200020202000002043
:100140000800E01C0260800000827C80600014389F
:100150000E14000000002020E038202000000000E5
:10016000000000008060202020000000002080604F
:100170001806012000000000F00C02C23C00202004
:1001800000000004E21E00202020202000804422E5
:10019000120C20202020200080001412F20C0020DD
:1001A00020200000605048E45E000000200080181D
:1001B0001612E202002020200000E01814926200D3
:1001C0002020000002C2320A062000000000E01CCD
:1001D00012F20C0020200000001824A2621C202033
:1001E000200000000008200000000880600020506F
:1001F0005050880000000000505050505000000047
:100200000000808850505020000000000000621262
:10021000120C20000000E0180424524A7A4A221CE2
:100220000020404040404000000000C0704C427C34
:10023000C020000000000020E01E121212EC20205E
:1002400020202000F00C0202820020202000E01E6E
:100250000202C23C202020200000E01E12121220C8
:1002600020202020E01E1212122000000000F00CBE
:10027000020212D23400202020200000E01E1010C4
:10028000F01E200000002000E01E20000000E01E04
:1002900020200000E01E30C8042000000020E01EE6
:1002A000000020202020E01E0678806018E61E2036
:1002B0000000002000002000E01E0C30C0E01E20E6
:1002C000000000002000F00C020202C23C002020CE
:1002D00020200000E03E22221C2000000000F00C44
:1002E000020202C23C00202020202040E01E1232E8
:1002F000D20C200000002000800C1222C20020201E
:10030000200002E21E02020020000000E01E0000A9
:1003100000E01E00202020200000FE8060100C2045
:10032000000000003EC060180EF040300C002000BD
:1003300000002000000000804678880420000000B3
:10034000200006D82018040020000000804222125D
:100350000A06202020202000C03E02E0800007F88E
:10036000000000E000C23E80E000100C021C000013
:1003700000000000000000808080808001020000FA
:10038000E01008C8380020202000C03E08887020F7
:1003900020200000E010088800202000E01008C89D
:1003A0003E0020202000E0302828100020202000DF
:1003B0000088780C80600000E01008C83880A0A099
:1003C0006000C03E08C8302000002000C03A200075
:1003D00000C03A806000C03EE01020000020C03E17
:1003E0002000C0381008C83008C8302000000020A5
:1003F00000002000C03808C8302000002000E010B5
:100400000888700020200000C038088870E0202094
:100410000000E01008C838002020E000C0380820A4
:100420000000001028C8082020200000C83C080058
:100430002020C03800C0380020202000F880403044
:1004400020000000F8806010F8804030200000009C
:1004500020000000008870E010200000002000F85C
:1004600000C030804020000000884828182020204C
:10047000202020E01E00E08000F00EE0000000C21E
:100480003E208060000010080810100000000000EE
:10049000FE025A0A02FE2020202020205343415011
:1004A0004500450045414D200014610A0B206002C3
:1004B00002030605080801030305050203020505FA
:1004C0000605050605050505050202050505050ADB
:1004D00006060507050507070203060409070705C1
:1004E0000806050607060A060605030503050602B3
:1004F00005050405050306050202050208050505B4
:1005000005030403050508050504030104050600A9
:10051000000000BEBE20200E000E00000048E85E75
:10052000E85E480020002000009C3E33F2E40020FA
:100530006020000C128C6018C620C0000020000053
:10054000002000C0EC3E327ECCE0000020202020C5
:100550000020200E00F0FC060060C006FCF0C06029
:1005600000120C3F0C1200000000002020F8202098
:1005700000000000008080E060202020000000805B
:100580008020200080700C03C020000000FCFE02D0
:10059000FEFC00202020000804FEFE000020202099
:1005A00020202084C2623E1C2020202020841212A1
:1005B000FEEC0020202000605846FEFE40000000B7
:1005C0002020001E1E12F2E22020202000FCFE123D
:1005D000F2E2002020200002C2FA3E0600202000A5
:1005E00000ECFE12FEEC00202020001C3E22FEFC4F
:1005F0002020202000989820209898E060205050DB
:10060000888800000000005050505050000000004A
:10061000008888505020000000000002B2B21E0C7A
:100620000020200000F00864928A4AF29A84780040
:10063000204040404040000000E0F84E4EF8E020EE
:100640002000002020FEFE1212FEEC2020202020A0
:1006500000FCFE0202840020202000FEFE02028632
:10066000FC7820202020200000FEFE121212202004
:10067000202020FEFE1212122020000000FCFE02AC
:100680000222E2E400202020202000FEFE101010B4
:10069000FEFE20200000002020FEFE202000FEFEA6
:1006A000202000FEFE30FCCE02202000002020FE94
:1006B000FE000020202020FEFE1C70C0701CFEFEEC
:1006C000202000002000002020FEFE0C30C0FEFE96
:1006D00020200000002020FCFE020202FEFC002080
:1006E0002020202000FEFE223E1C2020000000FCD6
:1006F000FE020202FEFC000020202020204040FEDE
:10070000FE1232FECC2020000020209C3E32F2E47B
:1007100000202020000202FEFE0202000020200035
:1007200000FEFE000000FEFE002020202020000E23
:100730007EE0E07E0E000020200000063EF8C03E75
:100740003EC0F83E06000020200000202000008669
:10075000CE7878CE86202000002020061EF8F81ED5
:100760000600002020000082E27A1E0620202020C1
:1007700020FEFE02E0E080030C70800000000020FC
:10078000C002FEFE80E0E0100C020C100000000031
:100790000000000000000080808080808001020056
:1007A00000C8E828F8F00020202020FEFE08F8F01D
:1007B0002020202000F0F8080800202020F0F80871
:1007C000FEFE0020202020F0F828383000202020D5
:1007D00020FCFE0A202000B0F848783808C0E0A0CD
:1007E000E06000FEFE08F8F02020002020FBFB2047
:1007F00020FBFBE060FEFE60F8982020002020FE39
:10080000FE2020F8F808F8F008F8F020200020205A
:10081000002020F8F808F8F02020002020F0F80848
:10082000F8F00020202000F8F808F8F0E0E02020A0
:1008300000F0F808F8F8002020E0E0F8F8082020A0
:10084000003078E8C820202000FCFC08002020F8B8
:10085000F800F8F8002020202038F880F838002030
:1008600020200038F8C03838C0F8380020200000B8
:1008700020200098F860F898202000202038F88088
:10088000F83800C0E0200088E8781820202020FCFC
:10089000DE0260E080FEE002DEFC2080E06000100E
:1008A000081810080000000000FE026A3A02FE204C
:1008B00020202020202020202020540022080D0E5F
:1008C0002060040205060708090203030508020464
:1008D00002040704070707070707070702020707BD
:1008E00007080E0908080807070908020708070B88
:1008F0000809070909070808090D0708080404047E
:100900000608030707060707050707020306020A8A
:100910000707070705060507070B06070505010575
:1009200007080000000000000000FEFE18181E1E50
:10093000001E1E000000000090F89E90F89E1C0013
:10094000001C0000183C26FF66CC88040C183C18DC
:100950000C041C221CC0308E408000001804000CC7
:10096000100C80CC7E72F2DE0C80000C1C1010107B
:100970001C0C1C101E1E0000F0FC061C7CC006FC9B
:10098000F0C07C1C14140E14140000000000606001
:1009900060FCFC6060600000000C0C0000000000C7
:1009A0005838C0C0C0C0000000000000181800C0C7
:1009B000380618040000F8FC0E060EFCF8040C1CA7
:1009C000181C0C04180CFEFE00001C1C181C86C60B
:1009D000663E1C181C1C18181818888C062626FE43
:1009E000DC040C1C18180C04C0E0B88CFEFE80045B
:1009F0000404041C1C04707E3E3636F6C60C1C181B
:100A000018180C04F8FC6E6666EECC040C18181866
:100A10001C0C060606E6761E0600001C1C000000E4
:100A20009CFE666666FE9C0C1C1818181C0C3C7E0E
:100A3000666666FCF80C1C18181C0C0418181818AC
:100A4000181858386060F0F098980C000000000406
:100A5000040CD8D8D8D8D8D8D8000000000000009E
:100A60000C9898F0F060600C040400000000080C82
:100A700006C6E6763C180000001818000000E030BA
:100A800008C4F63A1A1AF2FA7E0408F00C30604CE8
:100A90009C98988C9C9C90484C2000C0F8BE86BEC8
:100AA000F8C000181C04040404041C18FEFE66664A
:100AB0006666FEDC1C1C181818181C0CF8FC0E06C8
:100AC000060E9C08040C1C18181C0C04FEFE0606DE
:100AD000060EFCF81C1C1818181C0C04FEFE66669A
:100AE0006666661C1C1818181818FEFE6666666690
:100AF000061C1C0000000000F8FC0E0606C6CEDC3A
:100B0000C8040C1C181818180C04FEFE6060606005
:100B1000FEFE1C1C000000001C1CFEFE1C1C808035
:100B2000000000FEFE0C1C1818181C0CFEFE6030A5
:100B300078EC86021C1C000000041C18FEFE00005D
:100B40000000001C1C1818181818FEFE0E7CE0008F
:100B5000E07C0EFEFE1C1C00000C1C0C00001C1C8B
:100B6000FEFE1C78E080FEFE1C1C0000040C1C1C19
:100B7000F8FC0E0606060EFCF8040C1C1818181CCF
:100B80000C04FEFE6666667E3C1C1C000000000035
:100B9000F8FC0E0686060EFCF8040C1C18181C0C3B
:100BA0001C24FEFE6666E6E6BE1C001C1C0000005F
:100BB0000C1C18103C7E666666EECC0C1C181818CF
:100BC0001C0C060606FEFE0606060000001C1C00A5
:100BD0000000FEFE00000000FEFE040C1C18181CA5
:100BE0000C04021EFCE000E0FC1E020000001C1CC5
:100BF0001C00000006FEF800F0FE0EFEF000F8FEFD
:100C00000600001C1C1C0000001C1C1C0000060E22
:100C1000F8F0F80E06181C0400041C18060E38F034
:100C2000F0380E060000001C1C000000060686E6D8
:100C3000761E0E06181C1C1818181818FEFE06063C
:100C4000FCFCC0C00638C000000004180606FEFE0A
:100C5000C0C0FCFC20380E0E382000000000000050
:100C60000000000000000000808080808080808084
:100C70000206040000001098D858F8F0000C1C1868
:100C8000180C1C10FEFE301838F0E01C1C0C181C50
:100C90000C04E0F018183830040C18181C0CE0F0A4
:100CA000381830FEFE040C1C180C1C1CE0F0D8D8C0
:100CB000D8F0E0040C181818180818FCFE1A1A00CE
:100CC0001C1C0000E0F0381830F8F864ECDCD8CCDC
:100CD000FC7CFEFE301818F8F01C1C0000001C1CE8
:100CE000FAFA1C1C00FAFAC0FC7CFEFEE0F0980840
:100CF0001C1C00041C18FEFE1C1CF8F81018F8F050
:100D00001818F8F01C1C00001C1C00001C1CF8F833
:100D1000301818F8F01C1C0000001C1CE0F03818FB
:100D200038F0E0040C1C181C0C04F8F8301838F0EB
:100D3000E0FCFC0C181C0C04E0F0381830F8F80447
:100D40000C1C180CFCFCF8F83018181C1C000000D7
:100D500070F8D8D8D890081818181C0C18FCFE1871
:100D600018000C1C1818F8F8000000F8F80C1C18F3
:100D7000180C1C1C38F8C000C0F83800001C1C1CE3
:100D8000000018F8E000F038F000E0F81800001C4F
:100D90001C0C000C1C1C00001838E0E03818181C53
:100DA00004041C1818F8E000E0F8180084FCF83C73
:100DB00004001898D878381C1C18181880FC7E0677
:100DC00006007CFCC0C0FEFC06067EFC80C0C0FCA9
:100DD0007C00603030706060300000000000000077
:100DE000FE020202020202FE1C1010101010101C63
:100DF0002B2D2D2D2D2D2D2D2D2D2D2D2D2D2D2D25
:100E00002D2D2D2D2D2D2D2D2D2D2D2D2D2D2D2D12
:100E10002D2D2D2D2B007C202020205465616D452B
:100E20007363617065204848265320454E47494EFC
:100E3000454552494E47202020207C002B2D2D2D4A
:100E40002D2D2D2D2D2D2D2D2D2D2D2D2D2D2D2DD2
:100E50002D2D2D2D2D2D2D2D2D2D2D2D2D2D2D2DC2
:100E60002B00206465766963652873292E00206451
:100E700065766963652873292E00466F756E642058
:100E800000466F756E642000202D3E2052656C6117
:100E90007900202D3E20446973706C617900202D0B
:100EA0003E20427574746F6E73002900290020285B
:100EB0003078002028307800466F756E64206164B9
:100EC00064726573733A2000493243205363616E44
:100ED0002E2E2E005363616E6E696E672E2E2E00CD
:100EE000493243207363616E6E65723A00000005FB
:100EF000072061000000000000005F000000070004
:100F00000700147F147F14242A7F2A1223130864F5
:100F10006236495522500005030000001C224100A2
:100F20000041221C00082A1C2A0808083E08080064
:100F30005030000008080808080060600000201019
:100F40000804023E5149453E00427F400042615143
:100F500049462141454B311814127F10274545451C
:100F6000393C4A4949300171090503364949493636
:100F7000064949291E00363600000056360000009A
:100F800008142241141414141441221408000201FC
:100F9000510906324979413E7E1111117E7F49493E
:100FA00049363E414141227F4141221C7F49494906
:100FB000417F090901013E414151327F0808087F04
:100FC00000417F41002040413F017F081422417FC2
:100FD000404040407F0204027F7F0408107F3E4172
:100FE00041413E7F090909063E4151215E7F0919B1
:100FF0002946464949493101017F01013F404040AE
:101000003F1F2040201F7F2018207F631408146397
:101010000304780403615149454300007F414102C4
:101020000408102041417F000004020102044040F6
:10103000404040000102040020545454787F48444A
:1010400044383844444420384444487F3854545445
:1010500018087E090102081454543C7F08040478DF
:1010600000447D40002040443D00007F10284400A3
:10107000417F40007C041804787C080404783844DC
:101080004444387C14141408081414187C7C080494
:1010900004084854545420043F4440203C4040201D
:1010A0007C1C2040201C3C4030403C4428102844FC
:1010B0000C5050503C4464544C44000836410000ED
:1010C000007F0000004136080008082A1C08081CA0
:1010D0002A080800060909066800198040006F6B9D
:1010E0002E004B657970616420006F6B2E0045788F
:1010F00070616E64657220002000202000202000B6
:1011000020204D61676E65743A2000202020202049
:1011100020272E5F5F5F5F5F2E272020200020208A
:101120002020205C20202F2020205C20202F002049
:101130002020207C202020205F5F5F202020207C3A
:101140002000202020207C20202020202020202063
:1011500020207C200020202020202F20206F2020F5
:10116000206F20205C20002020202020202E2720FF
:1011700020202020272E202020002020202020207A
:1011800020205F5F5F5F5F2020202020004E65757C
:10119000737461727420696E002020202020202743
:1011A0002E5F5F5F5F5F2E27202020002020202001
:1011B000205C2020272D2D2D2720202F20002020CF
:1011C00020207C20205C20202020202F20207C003C
:1011D000202020207C2020202020202020202020B3
:1011E0007C200020202020202F20206F2020206F16
:1011F00020205C20002020202020202E27202020BE
:101200002020272E202020002020202020202020E9
:101210005F5F5F5F5F202020202000000005072027
:1012200060000000000000005F00000007000700F1
:10123000147F147F14242A7F2A1223130864623631
:10124000495620500008070300001C2241000041BD
:10125000221C002A1C7F1C2A08083E0808008070F7
:10126000300008080808080000606000201008042A
:10127000023E5149453E00427F400072494949467D
:101280002141494D331814127F1027454545393CFB
:101290004A494931412111090736494949364649E8
:1012A00049291E000014000000403400000008140A
:1012B0002241141414141400412214080201590983
:1012C000063E415D594E7C1211127C7F49494936D8
:1012D0003E414141227F4141413E7F494949417F51
:1012E000090909013E414151737F0808087F004107
:1012F0007F41002040413F017F081422417F404050
:1013000040407F021C027F7F0408107F3E41414124
:101310003E7F090909063E4151215E7F0919294690
:10132000264949493203017F01033F4040403F1FA6
:101330002040201F3F4038403F63140814630304DB
:101340007804036159494D43007F4141410204083B
:101350001020004141417F0402010204404040400E
:1013600040000307080020545478407F2844443844
:101370003844444428384444287F3854545418008E
:10138000087E090218A4A49C787F0804047800440D
:101390007D40002040403D007F1028440000417FF8
:1013A00040007C047804787C080404783844444481
:1013B00038FC1824241818242418FC7C0804040879
:1013C000485454542404043F44243C4040207C1C92
:1013D0002040201C3C4030403C44281028444C9085
:1013E00090907C4464544C440008364100000077DF
:1013F0000000004136080002010204023C262326B8
:101400003C00030C0F30333C3FC0C3CCCFF0F3FCA7
:10141000FF00000000240027002A00000000002335
:10142000002600290000000000250028002B0004F1
:10143000040404040404040202020202020303037B
:101440000303030102040810204080010204081075
:101450002001020408102000000008000201000022
:10146000030407000000000000000000E01CCE1C88
:1014700011241FBECFEFD8E0DEBFCDBF25E0A4E131
:10148000B3E001C01D92A83AB207E1F713E0A0E073
:10149000B1E0E0E5F0E402C005900D92A431B1079F
:1014A000D9F71AE0C7E3DAE004C02197FE010E94F1
:1014B000191EC633D107C9F70E94A6170C941B202A
:1014C0000C9400008091050490E020910604821B9A
:1014D0009109089590E0FC01EE0FFF1FE15EFB4EC5
:1014E000A591B4912C91FC01EB54FC4F30812083E9
:1014F000880F991FFC01E45FFE4F0190F081E02D01
:101500008081089585ED8093BC008091BC0084FDAE
:10151000FCCF10920204089540916203262F30E020
:10152000240F311D21323105DCF4209102042430D6
:10153000C9F4FC0180E090E0861758F43091620312
:101540002191DC01AE5BBC4FA30FB11D2C93019622
:10155000F3CF80916203680F6093620380E0089587
:1015600081E0089582E00895089508950895E09136
:10157000060480910504E81730F4F0E0E854FC4FCD
:10158000808190E008958FEF9FEF08959091060479
:1015900080910504981750F4E92FF0E0E854FC4FCF
:1015A000208130E09F5F9093060402C02FEF3FEF51
:1015B000C9010895CF92DF92EF92FF920F931F938C
:1015C000CF93DF937C01CB018A0120911503222365
:1015D00089F0EB016B01C40ED51ECC15DD0569F059
:1015E0006991D701ED91FC910190F081E02DC70147
:1015F0000995F3CF642F0E948C0AC801DF91CF9127
:101600001F910F91FF90EF90DF90CF900895CF93AF
:10161000DF931F92CDB7DEB7698320911503222394
:10162000D1F020910304203240F021E030E0FC01B1
:101630003383228380E090E015C080910404E82F7A
:10164000F0E0EE5DFC4F998190838F5F80930404FE
:101650008093030405C061E0CE0101960E948C0ACC
:1016600081E090E00F90DF91CF910895089580E0A0
:1016700090E00895CF93C82F80912405909125057F
:101680008130910561F00297C9F56FE772E087E05C
:1016900094E00E9453128C2FCF910C94B41564E700
:1016A00072E087E094E00E9453128C2F0E94B415E0
:1016B00062EE74E087E094E00E94B51281E08093CE
:1016C0001803809300010E94F5166093190370932C
:1016D0001A0380931B0390931C03E091F604E331FB
:1016E00069F081E08E0F8093F604F0E0EE51FB4F3D
:1016F000C083E82FF0E0EE51FB4F1082CF910895A8
:10170000CF93DF93EC019C818E81981758F4E88188
:10171000F9810084F185E02D42E0CE0109958C81AC
:101720008F5F8C83DF91CF910895DC01ED91FC9167
:101730000084F185E02D40E00994FC012781269585
:1017400026952695621720F46583606B0C94950BA3
:101750000895CF92DF92EF92FF920F931F93CF9352
:10176000DF93EC01162FC42ED22E8F81869586959D
:101770008695081710F00FEF080FFD2C8E810F15BE
:10178000A8F0181720F4612FCE010E94AC136F2D22
:10179000CE010E949D0BE12ECE1430F060E0CE0110
:1017A0000E94800BE394F8CFF394E8CF181720F44D
:1017B000612FCE010E94AC136D2DCE01DF91CF9130
:1017C0001F910F91FF90EF90DF90CF900C949D0BA5
:1017D000CF93DF93EC0189818C8361E08B810E9440
:1017E000E3151092060480930504811101C0FFCF18
:1017F00089EF94E00E94C60A8983DF91CF91089512
:101800001F920F920FB60F9211242F933F934F9375
:101810005F936F937F938F939F93AF93BF93EF9358
:10182000FF9382E00E946A0AFF91EF91BF91AF910E
:101830009F918F917F916F915F914F913F912F91E8
:101840000F900FBE0F901F9018951F920F920FB61A
:101850000F9211242F933F934F935F936F937F9336
:101860008F939F93AF93BF93EF93FF9381E00E9479
:101870006A0AFF91EF91BF91AF919F918F917F91F4
:101880006F915F914F913F912F910F900FBE0F90ED
:101890001F9018951F920F920FB60F9211242F933D
:1018A0003F934F935F936F937F938F939F93AF93E8
:1018B000BF93EF93FF9380E00E946A0AFF91EF913C
:1018C000BF91AF919F918F917F916F915F914F9158
:1018D0003F912F910F900FBE0F901F9018951F9260
:1018E0000F920FB60F9211242F933F934F935F9354
:1018F0006F937F938F939F93AF93BF93EF93FF93D8
:101900008091B900887F803609F49CC068F58832E0
:1019100009F45BC090F4803109F454C038F4882392
:1019200009F4F6C0883009F44DC0F6C0883109F4D6
:101930004CC0803209F45DC0EFC0803409F468C047
:1019400048F4803309F455C0883309F0E5C080932A
:10195000FB03D8C0803509F44FC0883509F45DC059
:10196000883409F0D9C0D6C0883909F4C7C0A8F4B2
:10197000883709F467C038F4883609F463C08037C3
:1019800009F460C0C9C0883809F4B8C0803909F4C6
:101990005FC0803809F0C0C05BC0803B09F486C0DE
:1019A00038F4803A09F466C0883A09F47FC0B4C0BC
:1019B000803C09F4A7C0883C09F4A4C0883B09F422
:1019C0008AC0AAC08091F80310C09091FA03809158
:1019D000F903981770F5E091FA0381E08E0F809378
:1019E000FA03F0E0E852FC4F80818093BB0085EC65
:1019F00086C08093FB038EC0E091FA0381E08E0FD6
:101A00008093FA038091BB00F0E0E852FC4F8083A2
:101A10009091FA038091F9036EC0E091FA0381E09E
:101A20008E0F8093FA038091BB00F0E0E852FC4FE8
:101A300080838091010481116DC081E08093000456
:101A400084EA61C083E08093020410928403CFCFC4
:101A500080918403803208F051C0E091840381E0DA
:101A60008E0F809384038091BB00F0E0EC59FC4F13
:101A70008083BDCF85EC8093BC00109202048091DE
:101A80008403803230F4E0918403F0E0EC59FC4FA1
:101A900010826091840370E0E091FC03F091FD03FB
:101AA00084E693E009951092840336C084E0809325
:101AB00002041092630310926203E091FE03F0911E
:101AC000FF03099580916203811105C081E0809335
:101AD000620310924203E091630381E08E0F8093D2
:101AE0006303F0E0EE5BFC4F80818093BB0090913C
:101AF000630380916203981708F479CF85E8809397
:101B0000BC000AC085EC8093BC001092020404C0A3
:101B10001092FB030E94820AFF91EF91BF91AF9157
:101B20009F918F917F916F915F914F913F912F91F5
:101B30000F900FBE0F901F90189530910304313213
:101B400008F04BC0809102048111FCCF90911403E6
:101B500022E02093020421E0209301042FEF209340
:101B6000FB031092FA033093F903E2E2F3E0A8EDED
:101B7000B3E020E0321721F041914D932F5FFACF6F
:101B80001092F8032091F803990F922B9093F80389
:101B900090910004913061F4109200049091F80348
:101BA0009093BB009091BC0093FDF8CF95EC01C0E1
:101BB00095EE9093BC00909102049230E1F39091E5
:101BC000FB039F3F79F08091FB03803241F08091CD
:101BD000FB03803331F084E005C081E003C082E084
:101BE00001C083E0109204041092030410921503C4
:101BF0000895FC01918162818081238131E03093DD
:101C000015032093140310920404109203046095AA
:101C10006923682B89EF94E00E94070B89EF94E019
:101C20000C949D0D0F931F93CF93DF93EC01062F20
:101C3000142F8E85813120F4882339F0411105C09D
:101C400089EF94E00E949D0D1E868E85811113C040
:101C50008D8591E0909315038093140310920404F2
:101C600010920304112311F060E401C060E089EFD9
:101C700094E00E94070B602F89EF94E00E94070B0D
:101C8000123021F48E858F5F8E8705C089EF94E036
:101C90000E949D0D1E86DF91CF911F910F91089597
:101CA0001092180381E080930001E2EEF4E0148AC0
:101CB000108266E872E087E094E00C94B512CF924F
:101CC000DF92EF92FF920F931F93CF93DF930E94C7
:101CD000F51600911E0310911F03209120033091EF
:101CE0002103DC01CB01801B910BA20BB30B8938C4
:101CF0009341A105B10528F080911803882309F4C8
:101D000084C180910001882309F483C10E94F516E3
:101D100060931E0370931F0380932003909321030D
:101D20001092000180911803882309F43FC00E949B
:101D3000C5158BE192E190938C0580938B0580E82B
:101D400095E00E94B1128CEB98E090938C05809303
:101D50008B0580E895E00E94B1126DEF70E180E89C
:101D600095E00E942F126AEF70E180E895E00E94F2
:101D70002F12C2EED4E08E01F80101900020E9F7A5
:101D8000CF01825E94409E01225E344028173907BD
:101D900008F03FC1699180E895E00E94C41368EFA4
:101DA00070E180E895E00E942F12E6CF8091160343
:101DB000882309F4B7C08BE192E190938C0580935E
:101DC0008B050E94C51568E072E180E895E00E94ED
:101DD000E21265EF71E180E895E00E94E21263EEA5
:101DE00071E180E895E00E94E21260ED71E180E827
:101DF00095E00E94E2126EEB71E180E895E00E94AE
:101E0000E2126CEA71E180E895E00E94E21269E971
:101E100071E180E895E00E942F1268EE73E080E0A7
:101E200090E00E94BB1681E080930001109216039F
:101E30006FE972E087E094E00E94B51263EC72E013
:101E400087E094E00E94B512C12CD12CC1E0D0E013
:101E50008091C5047E010C2C01C0EE0C0A94EAF7B7
:101E60008E298093C5048091C3049E2D909589236B
:101E70008093C30483EC94E00E94F90D8091C30425
:101E8000E82AE092C30483EC94E00E94F90D8FEFFE
:101E9000C81AD80A28E0C216D104D1F663ED72E060
:101EA00087E094E00E94B5126DE871E187E094E06C
:101EB0000E94E2120E94C51568ED72E080E895E08C
:101EC0000E94B5126AEF70E080E090E00E94BB16BD
:101ED00083E0C82ED12CE12CF12C2AE0B701A60119
:101EE00087E094E00E94681287E094E00E94B112BB
:101EF0002AE0B701A60180E895E00E94681280E818
:101F000095E00E94B11268EE73E080E090E00E94DC
:101F1000BB1681E0C81AD108E108F108F1F60C946B
:101F2000000077C080911703882309F444C064EF50
:101F300071E080E090E00E94BB168BE192E190930B
:101F40008C0580938B050E94C5156AE771E180E8D6
:101F500095E00E94E21267E671E180E895E00E9458
:101F6000E21265E571E180E895E00E94E21262E428
:101F700071E180E895E00E94E2126FE271E180E891
:101F800095E00E94E2126EE171E180E895E00E9426
:101F9000E2126BE071E180E895E00E942F1268EE9A
:101FA00073E080E090E00E94BB1681E08093000126
:101FB000109217032EC00E94C5158BE192E19093F9
:101FC0008C0580938B0580E895E00E94B1128CEB24
:101FD00098E090938C0580938B0580E895E00E94B3
:101FE000B11260E071E180E895E00E942F126AE78B
:101FF00075E080E895E0DF91CF911F910F91FF9000
:10200000EF90DF90CF900C94C71281E08093000195
:1020100078CEDF91CF911F910F91FF90EF90DF90DD
:10202000CF9008950895CF92DF92EF92FF920F9391
:102030001F93CF93DF936C017A018B01C0E0D0E056
:10204000CE15DF0581F0D8016D918D01D601ED919E
:10205000FC910190F081E02DC6010995892B11F0CA
:102060002196EECF7E01C701DF91CF911F910F9195
:10207000FF90EF90DF90CF900895FC01538D448D39
:10208000252F30E0842F90E0821B930B541710F023
:10209000CF96089501970895FC01918D828D981730
:1020A00061F0828DDF01A80FB11D5D968C91928D3C
:1020B0009F5F9F73928F90E008958FEF9FEF089539
:1020C000FC01918D828D981731F0828DE80FF11D02
:1020D000858D90E008958FEF9FEF0895FC01918D1D
:1020E000228D892F90E0805C9F4F821B91098F7316
:1020F0009927089587E094E00E946E1021E0892BD3
:1021000009F420E0822F0895FC01848DDF01A80FDF
:10211000B11DA35ABF4F2C91848D90E001968F730F
:102120009927848FA689B7892C93A089B1898C912E
:10213000837080648C93938D848D981306C002887D
:10214000F389E02D80818F7D80830895EF92FF9247
:102150000F931F93CF93DF93EC0181E0888F9B8DCA
:102160008C8D981305C0E889F989808185FD26C08A
:10217000F62E0B8D10E00F5F1F4F0F731127E02E0F
:102180008C8DE8120CC00FB607FCFACFE889F989EC
:10219000808185FFF5CFCE010E948410F1CF8B8D19
:1021A000FE01E80FF11DE35AFF4FF0829FB7F8944C
:1021B0000B8FEA89FB89808180620AC09FB7F894FF
:1021C000EE89FF896083E889F98980818370806462
:1021D00080839FBF81E090E0DF91CF911F910F91AD
:1021E000FF90EF900895CF93DF93EC01888D8823C3
:1021F000C9F0EA89FB89808185FD05C0A889B98974
:102200008C9186FD0FC00FB607FCF5CF808185FF4E
:10221000F2CFA889B9898C9185FFEDCFCE010E94BC
:102220008410E7CFDF91CF91089580E090E0892B73
:1022300029F00E947A1081110C9400000895CF9328
:10224000DF9370E0FB01ED5BFB4E2491FB01E15D50
:10225000FB4E8491882361F190E0880F991FFC0167
:10226000EF5EFB4EC591D491FC01EB5DFB4EA59159
:10227000B491411109C09FB7F894888120958223B9
:102280008883EC912E230BC0423061F49FB7F89401
:102290008881322F309583238883EC912E2B2C93C9
:1022A0009FBF06C08FB7F894E8812E2B28838FBF7D
:1022B000DF91CF9108950E940620CF92DF92EF9296
:1022C000FF920F931F93CF93DF9321E030E07901CA
:1022D00002C0EE0CFF1C6A95E2F76C0120E7C20E0B
:1022E000D11CD6014C9150E0FC01E159FF4F6081B7
:1022F00070E0EC01CD58DF4F888199810E9425164E
:1023000088819981DC01ED91FC910284F385E02DB7
:1023100009958C01F6018081823070F08881998165
:10232000DC01ED91FC910284F385E02D099520E01C
:1023300030E0382F022B132B0E211F2181E090E07B
:102340000E151F0511F080E090E0DF91CF911F91F5
:102350000F91FF90EF90DF90CF900895CF93DF9390
:1023600070E0FB01E95AFB4E8491FB01ED5BFB4EF3
:10237000D491FB01E15DFB4EC491CC2391F081111E
:102380000E943116EC2FF0E0EE0FFF1FE55EFB4ED2
:10239000A591B491EC91ED2381E090E021F480E0EF
:1023A00002C080E090E0DF91CF910895862F642FE6
:1023B0000C945A16EF92FF920F931F93CF93DF93D3
:1023C000EC017B018A0188819981009729F02A819B
:1023D0003B8124173507F8F4B8016F5F7F4F0E94E7
:1023E000401F009759F0998388831B830A832C81AF
:1023F0003D81232B81F4FC0110820DC088819981DD
:10240000009711F00E94B71E198218821D821C824B
:102410001B821A8207C01D830C83B70188819981B2
:102420000E941420CE01DF91CF911F910F91FF9058
:10243000EF900895FC01118210821382128215829E
:1024400014826115710551F0FB0101900020E9F73C
:102450003197AF01461B570B0C94DA110895EF9298
:10246000FF920F931F93CF93DF938C017B01C0E00A
:10247000D0E0F701EC0FFD1F6491662361F0D801F5
:10248000ED91FC910190F081E02DC8010995892B17
:1024900011F02196EECFCE01DF91CF911F910F91D8
:1024A000FF90EF9008956115710579F0FB0101909F
:1024B0000020E9F73197AF01461B570BDC01ED9186
:1024C000FC910280F381E02D099480E090E0089572
:1024D0008F929F92AF92BF92EF92FF920F931F93B2
:1024E000CF93DF93CDB7DEB7A1970FB6F894DEBFD9
:1024F0000FBECDBF7C01FA01CB0119A2223008F436
:102500002AE08E010F5D1F4F822E912CA12CB12C41
:10251000BF01A50194010E94F71DF901CA010150F4
:1025200011096A3014F4605D01C0695CD8016C93D4
:10253000232B242B252B61F7B801C7010E945312CE
:10254000A1960FB6F894DEBF0FBECDBFDF91CF913D
:102550001F910F91FF90EF90BF90AF909F908F9041
:10256000089564EE72E00C9453120F931F93CF936F
:10257000DF93EC010E9453128C01CE010E94B11234
:10258000800F911FDF91CF911F910F9108950F93AD
:102590001F93CF93DF93EC01FB0144815581608150
:1025A0007181E881F9810280F381E02D09958C0128
:1025B000CE010E94B112800F911FDF91CF911F9128
:1025C0000F9108950F931F93CF93DF93EC010E9417
:1025D0002F128C01CE010E94B112800F911FDF914A
:1025E000CF911F910F9108951F920F920FB60F92E6
:1025F00011242F933F934F935F936F937F938F9308
:102600009F93AF93BF93EF93FF9387E094E00E9473
:102610008410FF91EF91BF91AF919F918F917F9126
:102620006F915F914F913F912F910F900FBE0F903F
:102630001F9018951F920F920FB60F9211242F938F
:102640008F939F93EF93FF93E0911704F0911804F9
:102650008081E0911D04F0911E0482FD12C09081E2
:10266000809120048F5F8F7320912104821751F095
:10267000E0912004F0E0E95FFB4F958F8093200408
:1026800001C08081FF91EF919F918F912F910F90C9
:102690000FBE0F901F901895EF92FF920F931F930C
:1026A000CF93DF93EC017B01FC01E159FF4F808167
:1026B00091E09093150380931403109204041092F8
:1026C00003048E010D581F4FD8018D919C91DC01A0
:1026D000ED91FC910190F081E02D0995FE01E0590A
:1026E000FF4F8081823058F0F80180819181DC01B8
:1026F000ED91FC910190F081E02D6F2D0995F8018D
:10270000808191810E949D0DCF58DF4FE882F98230
:10271000DF91CF911F910F91FF90EF90089521E0ED
:1027200030E002C0220F331F6A95E2F7FC01EF5838
:10273000FF4F442329F040815181242B352B06C0C3
:102740002095309540815181242335233183208386
:10275000608171810C944C130F931F93CF938C0164
:10276000FC0164838085C62FC80F6C2F6F70C80171
:102770000E94950B6C2F62956F706061C801CF91BC
:102780001F910F910C94950B2F923F924F925F9255
:102790006F927F928F929F92AF92BF92CF92DF9271
:1027A000EF92FF920F931F93CF93DF93CDB7DEB7D6
:1027B00029970FB6F894DEBF0FBECDBFDC011B9684
:1027C0000D911C911C970115110509F46AC1998797
:1027D0008887F801B49131964491319644903196AE
:1027E000A491EA2EF12CF7E0EF0EF11C93E0F594A2
:1027F000E7949A95E1F7EC82F8013496749131965A
:10280000E491671758F0862F90E02E2F30E0F90101
:10281000E70FF11D8E179F070CF476C06D3069F439
:10282000A885B98516968C91882309F437C160E094
:10283000888599850E94AC1331C16A3009F031C195
:10284000E885F9858185D5808E9DD00C11248781FE
:10285000869586958695D81630F08285882319F05E
:1028600082E08287D12CA885B98516968C9116971F
:10287000882321F060E0CD010E94AC136D2D888586
:1028800099850E949D0BE885F9858285823008F440
:1028900005C125810384F485E02D309751F03396EE
:1028A000E491A885B98519960C91E09F002D11241B
:1028B00001C000E010E0095F1F4F83E01595079508
:1028C0008A95E1F78FEF820F080FE885F985468139
:1028D00041506481CF010E94A90BA885B985199642
:1028E0008C9119976D2D8E9D600D1124660F660FCA
:1028F000660F17968C91861708F460E060648885EF
:1029000099850E94950BCAC050E05B2BC8010696C2
:10291000671BE885F985F185F9834230510588F414
:10292000452B09F019824E9C90014F9C300D1124CB
:10293000629F8001639F100D1124080F191F312C15
:1029400024C0EA2FE77021F048E0342E3E1A01C07F
:10295000312CA82FFC0140E050E07E2F7A1B761727
:1029600028F47491470F511D3196F7CFFC01E60F03
:10297000F11D4490E49E8001E59E100DF49E100D23
:102980001124020F131F080F191FA885B98514966B
:10299000BC91BA83E885F985F581FD83842D90E0AB
:1029A0009F838E83812C912CC12CD12CCB829C8136
:1029B000C91608F06EC0212C3601BFEF6B1A7B0AD6
:1029C000E885F9858185281608F05BC0FB81F11147
:1029D00002C02220A9F0A885B9851596BC9015974C
:1029E000B39416968C91BA81B81728F46B2F88850A
:1029F00099850E94AC136B2D888599850E949D0B4B
:102A0000A12CB12CA41410F0B12C2FC0F401EA0DAC
:102A1000FB1DE00FF11F5490332061F0E614F70422
:102A200049F4E52DF0E0032C02C0F595E7950A94F2
:102A3000E2F75E2EE885F9858185823069F4E52D1F
:102A40002110E295EF70F0E0EF5FFB4E5490652DA2
:102A5000888599850E94800B652D888599850E94BF
:102A6000800BFFEFAF1ABF0ACDCF79817B1539F00C
:102A700060E0888599850E94800BB394F6CF2394FB
:102A80009FCF8FEFC81AD80AAE81BF818A0E9B1ED6
:102A90008DCF6D81888599850E949D0B81E090E0A6
:102AA00002C080E090E029960FB6F894DEBF0FBE1A
:102AB000CDBFDF91CF911F910F91FF90EF90DF90ED
:102AC000CF90BF90AF909F908F907F906F905F90CE
:102AD0004F903F902F90089596E0899FD001112448
:102AE000AB5FBA4F90967C936E935F9791E091960F
:102AF0009C93919790917105E0917205F091730507
:102B0000992339F0309751F0811108C08091210547
:102B100004C0309719F05C968C91099408953FB7E2
:102B2000F8948091A0059091A105A091A205B09183
:102B3000A30526B5A89B05C02F3F19F00196A11D3E
:102B4000B11D3FBFBA2FA92F982F8827820F911D43
:102B5000A11DB11DBC01CD0142E0660F771F881F8A
:102B6000991F4A95D1F70895CF93DF93682F87E097
:102B700094E00E94A610EC0187E094E00E94B1125C
:102B80008C0F9D1FDF91CF9108950F9300918705C2
:102B9000069506950695015040918605415020E026
:102BA00060E080E895E00E94A90B81E090918A05A1
:102BB000911101C080E080938A0560E480E895E08F
:102BC0000F910C94950B909102049111FCCF91E020
:102BD00090930204909301042FEF2093FB03109233
:102BE000FA03260F2093F9039093F8039091F803CA
:102BF000880F892B8093F80380910004813061F461
:102C0000109200048091F8038093BB008091BC0077
:102C100083FDF8CF85EC01C085EE8093BC008091E8
:102C200002048130E1F38091FA03861710F4609179
:102C3000FA03A8EDB3E0E8EBF3E080E0861721F0BB
:102C40009D9191938F5FFACF0895862F413208F0BE
:102C500040E2642F0E94E31510920604809305045D
:102C60000895833081F028F4813099F08230A1F00A
:102C700008958730A9F08830B9F08430D1F480917C
:102C800080008F7D03C0809180008F7780938000CB
:102C9000089584B58F7702C084B58F7D84BD089573
:102CA0008091B0008F7703C08091B0008F7D8093BA
:102CB000B00008951F93CF93DF93282F30E0F901E0
:102CC000E95AFB4E8491F901ED5BFB4ED491F90179
:102CD000E15DFB4EC491CC23C1F0162F81110E94FF
:102CE0003116EC2FF0E0EE0FFF1FEB5DFB4EA591D0
:102CF000B4919FB7F894111104C08C91D095D8234A
:102D000002C0EC91DE2BDC939FBFDF91CF911F912E
:102D10000895109206041092050410920404109273
:102D200003041092020481E08093010410920004D5
:102D300061E082E10E945A1661E083E10E945A1626
:102D4000E9EBF0E080818E7F808380818D7F8083BE
:102D500088E48093B80085E48093BC0084EB9AE01B
:102D60009093FF038093FE0385EB9AE09093FD031D
:102D70008093FC0308958F929F92AF92BF92CF925F
:102D8000DF92EF92FF926B017C010E948F154B0145
:102D90005C01C114D104E104F104F1F00E948F152B
:102DA000DC01CB0188199909AA09BB09883E934027
:102DB000A105B10570F321E0C21AD108E108F108BC
:102DC00088EE880E83E0981EA11CB11CC114D104AA
:102DD000E104F10419F7DDCFFF90EF90DF90CF9081
:102DE000BF90AF909F908F9008952FB7F894609107
:102DF0009C0570919D0580919E0590919F052FBF28
:102E000008950F931F93CF93DF93C82FD62F86E09B
:102E1000C89FF0011124EB5FFA4F11A2878D90A19A
:102E200081309105D9F040F082309105A9F10397E6
:102E3000F1F560E070E034C06623C9F161E070E054
:102E40008C2F0E946C150E94F51660935D0570939F
:102E50005E0580935F059093600529C00E94F5167A
:102E600000915D0510915E0520915F053091600530
:102E7000AB01BC01401B510B620B730B80916F05C2
:102E800090917005A0E0B0E084179507A607B707FA
:102E900018F462E070E004C0D11109C063E070E092
:102EA0008C2FDF91CF911F910F910C946C15DF91B6
:102EB000CF911F910F9108951F920F920FB60F920D
:102EC00011242F933F938F939F93AF93BF93809140
:102ED0009C0590919D05A0919E05B0919F05309114
:102EE0009B0523E0230F2D3720F40196A11DB11D72
:102EF00005C026E8230F0296A11DB11D20939B0556
:102F000080939C0590939D05A0939E05B0939F058B
:102F10008091A0059091A105A091A205B091A30573
:102F20000196A11DB11D8093A0059093A105A093CA
:102F3000A205B093A305BF91AF919F918F913F914F
:102F40002F910F900FBE0F901F901895CF93DF9386
:102F5000CDB7DEB728970FB6F894DEBF0FBECDBF52
:102F6000789484B5826084BD84B5816084BD85B564
:102F7000826085BD85B5816085BD80916E00816070
:102F800080936E0010928100809181008260809316
:102F90008100809181008160809381008091800018
:102FA0008160809380008091B10084608093B10043
:102FB0008091B00081608093B00080917A0084603D
:102FC00080937A0080917A00826080937A00809169
:102FD0007A00816080937A0080917A008068809383
:102FE0007A001092C100E0911704F091180482E079
:102FF0008083E0911304F09114041082E091150491
:10300000F091160480E1808310921F04E0911B046C
:10301000F0911C0486E08083E0911904F0911A0479
:10302000808180618083E0911904F0911A0480818D
:1030300088608083E0911904F0911A04808180688F
:103040008083E0911904F0911A0480818F7D808340
:103050000E94891610928E058CE380938D05109244
:10306000840510928505E8EDF0E185919491E82EB4
:10307000EAEDF0E1F490EBEDF0E1E491E093860508
:10308000ECEDF0E1E491E0938705EDEDF0E1E49102
:10309000E09388058C01802F8E198F1548F4F80174
:1030A000649180E895E00E94950B0F5F1F4FF3CF6E
:1030B00010928A050E94C5158CE08093B80080911B
:1030C0008705803429F40E94C51581E080938A0524
:1030D0008DEE9EE090938C0580938B051A82198269
:1030E0001C821B821E821D8260919505709196053F
:1030F0006115710541F04091990550919A05CE01F5
:1031000001960E94DA116CE37EE087E094E00E9471
:10311000E21266E17EE087E094E00E94E21260EF56
:103120007DE087E094E00E94E21287E094E00E9454
:10313000B112BE016F5F7F4F87E094E00E94C7121B
:1031400087E094E00E94B1120E94C51580E895E0E6
:103150000E94B11280E895E00E94B112FCEBEF2EC4
:10316000F8E0FF2EF0928C05E0928B0565EB78E09D
:1031700080E895E00E942F1209EA14E010938C0574
:1031800000938B0564EA74E080E895E00E942F12BA
:10319000F0928C05E0928B0562EA74E080E895E09D
:1031A0000E942F1210938C0500938B056CE974E03C
:1031B00080E895E00E94E21286E990E090938C0509
:1031C00080938B0561E870E080E895E00E94E21250
:1031D00060ED77E080E090E00E94BB160E94C5158C
:1031E00089819A810E94B71E60EE7EE087E094E0BC
:1031F0000E94E21264ED7EE087E094E00E94E21219
:103200008DEE9EE090938C0580938B0568EC7EE0BC
:1032100080E895E00E94E212A8E0CA2ED12CE12CB1
:10322000F12C10E0BB24B3940C2DB0921503C09286
:103230001403109204041092030489EF94E00E9496
:103240009D0D811166C068EB7EE087E094E00E94EE
:103250002F122AE0B701A60187E094E00E946812CD
:1032600063EB7EE087E094E00E942F126EEA7EE03E
:1032700080E895E00E942F1220E1B701A60187E0C7
:1032800094E00E94681220E1B701A60180E895E071
:103290000E9468126CEA7EE087E094E00E942F12A0
:1032A0006AEA7EE080E895E00E942F12093349F433
:1032B0006EE97EE087E094E00E942F1262E571E003
:1032C00015C00C3349F462E97EE087E094E00E9487
:1032D0002F126EE571E00AC00F3361F468E87EE0FA
:1032E00087E094E00E942F126AE671E080E895E0A2
:1032F0000E94531287E094E00E94B11280E895E0AA
:103300000E94B1121F5F61E070E080E090E00E94D7
:10331000BB16FFEFCF1ADF0AEF0AFF0A28E7C21633
:10332000D104E104F10409F07FCF61E87EE087E099
:1033300094E00E942F126AE77EE080E895E00E9408
:103340002F12C12ED12CE12CF12C2AE0B701A601BD
:1033500087E094E00E9468122AE0B701A60180E8A5
:1033600095E00E9468126EE67EE087E094E00E949D
:10337000E21262E67EE080E895E00E94E21287E0D9
:1033800094E00E94B11280E895E00E94B11260EDD5
:1033900077E080E090E00E94BB1689E38093A70469
:1033A0000E94891684EA94E00E94E80B00E010E095
:1033B000CC24C394D12C9091A6047601002E01C098
:1033C000EE0C0A94EAF78E2D809598239093A6042C
:1033D0009091A40489238093A40484EA94E00E9439
:1033E000F90D8091A404E82AE092A40484EA94E010
:1033F0000E94F90D0F5F1F4F08301105E1F664E6DA
:1034000070E080E090E00E94BB1662EE70E180E820
:1034100095E00E942F128AE39BE0909373058093BE
:1034200072058EE491E090936605809365056FEFD9
:103430007FEF85E095E00E944C134091750550E0C8
:103440006091740570E080917805909179050E94F3
:1034500025168091780590917905DC01ED91FC911C
:103460000284F385E02D0995909377058093760586
:10347000809175058230C0F0809178059091790532
:10348000DC01ED91FC910284F385E02D099520E0AB
:1034900030E0382F8091760590917705282B392BD5
:1034A000309377052093760588E893E19093700533
:1034B00080936F0582E390E090936E0580936D0595
:1034C0006EED70E180E895E00E94E2126EEE70E130
:1034D00080E895E00E942F1264E771E087E094E0B5
:1034E0000E94B5128FE38093C6040E94891683EC74
:1034F00094E00E94E80B6AE871E087E094E00E94A3
:10350000B512E12CF12CCC24C394D12C8091C504AC
:1035100086010E2C01C0000F0A94EAF7802B8093DD
:10352000C5048091C304902F909589238093C30490
:1035300083EC94E00E94F90D8091C304082B009362
:10354000C30483EC94E00E94F90DBFEFEB1AFB0A71
:10355000E8E0EE16F104D1F66DE971E087E094E061
:103560000E94B51260ED77E080E090E00E94BB160B
:103570008091C304877F8093C30483EC94E00E940E
:10358000F90D63EB71E087E094E00E94B5126AEEFA
:1035900070E180E895E00E94E21260ED77E080E063
:1035A00090E00E94BB166EEC71E087E094E00E9410
:1035B000B512FF24F394412C512C3201439451E471
:1035C000852E55E0952E66E0262EF09271050E941C
:1035D000F516009161051091620520916305309107
:1035E0006405AB01BC01401B510B620B730B809156
:1035F0006D0590916E05A0E0B0E084179507A607D1
:10360000B70718F010927105C6C0E12C80916C05C7
:10361000E81608F056C0CE2CD12CE0916905F09147
:103620006A05EC0DFD1D40E0608185E095E00E949B
:103630008F13D301C2010E2C04C0880F991FAA1F3B
:10364000BB1F0A94D2F798878F835C01A094B09433
:10365000312C80916B05381628F5032D10E0E09190
:103660006705F0916805E00FF11F608185E095E046
:103670000E945D110C5F1F4F000F111FF801EB5FDF
:10368000FA4F892B39F4808191812F813885822BE3
:10369000932B04C0808191818A219B219183808317
:1036A0003394D7CF8091690590916A05FC01EC0DA8
:1036B000FD1D41E0608185E095E00E948F13E39459
:1036C000A5CF05E015E0F801878D90A1892B31F495
:1036D000148E8FEF9FEF968F858F11A236968E16E0
:1036E0009F0691F7E12C80916B05E81670F5B12CDF
:1036F000CE2CD12CC601880F991FDC01A35FBA4FD5
:103700006D0120916C05B216F0F4F60140815181F3
:103710000B2C02C0569547950A94E2F7642F61700E
:10372000E29E900111242B0D311DE5E0F5E080E0D3
:10373000A58DB68D2A173B0709F4FFC08F5F36961B
:103740008A30B1F7DEC0E394CECFE12CD801919658
:103750008C91882311F0EE24E3940A5F1F4F8016AA
:103760009106A1F70E94F5166093610570936205BA
:103770008093630590936405EE2009F443CF809114
:103780002605882309F43ECF8091240590912505D4
:10379000019709F037CF0E94F51600911903109197
:1037A0001A0320911B0330911C03DC01CB01801B09
:1037B000910BA20BB30B89389341A105B10520F001
:1037C000809118038111C3C0E2EEF4E00190002063
:1037D000E9F7EA5EF44009F08FC080911D03811182
:1037E0008BC069EE71E087E094E00E94B512F09220
:1037F00000010E945F0E64EF71E080E090E00E94A3
:10380000BB168091F7049091F804FC01319120914E
:10381000E204A3EEB4E04496311103C021115EC06E
:1038200008C032135BC031912D91E817F907A1F759
:1038300055C0F092160310921803F0920001F09216
:103840001D036EEF71E087E094E00E94B512809155
:10385000C30488608093C30483EC94E00E94F90D54
:103860006EE172E0CE0101960E941A1280917A05F3
:1038700090917B050097C9F069817A816115710586
:1038800091F040917C0550917D052D813E8142173C
:10389000530748F00E9414208D819E8190937F05EC
:1038A00080937E0516C00E94B71E89819A819093ED
:1038B0007B0580937A058B819C8190937D05809315
:1038C0007C058D819E8190937F0580937E051A8271
:1038D000198289819A810E94B71E0CC0F092170349
:1038E00010921803F092000162E272E087E094E027
:1038F0000E94B5120E94500E0E945F0E0E94151188
:1039000064CE40FF1CC0E5E0F5E080E090E0448D2F
:10391000411117C0E0916505F0916605E20FF31FB4
:103920004081289EF001299EF00D1124EB5FFA4F93
:10393000448F368F258F10A2178E0E940117B394E3
:10394000E0CE019636968A30910509F7F8CF64E308
:1039500072E087E094E00E94B5120E94C51563E60C
:1039600072E080E895E00E94B5120E94500E2CCFC4
:10397000FC01108211821282138214821582168237
:10398000DC0117960F961D92A817B907E1F77F96ED
:103990001D921D92EA17FB07D9F7089580917A05C9
:1039A00090917B050E94B71E80918F0590919005A4
:1039B0000E94B71E80919505909196050C94B71EB4
:1039C00010920A041092090488EE93E0A0E0B0E09F
:1039D00080930B0490930C04A0930D04B0930E04F9
:1039E00026E131E0309308042093070425EC30E011
:1039F000309314042093130424EC30E03093160425
:103A00002093150420EC30E0309318042093170421
:103A100021EC30E030931A042093190422EC30E0BA
:103A200030931C0420931B0426EC30E030931E04DA
:103A300020931D041092200410922104109222045D
:103A4000109223041092FC041092FB048093FD0456
:103A50009093FE04A093FF04B093000588E291E0E8
:103A60009093FA048093F90467EE72E085E995E09B
:103A70000E941A126EEF72E08FE895E00E941A120F
:103A8000109283051092820581E08093890510923F
:103A90008C0510928B058AE391E0909381058093C9
:103AA000800569E073E08AE795E00E941A1210929F
:103AB000070510920B0510920A0510920C05E5E01F
:103AC000F5E081E495E0148E10A2178E11A23696CF
:103AD0008E179F07C1F785E091E09093680580936A
:103AE000670581E091E090936A058093690581E024
:103AF00080936B0594E090936C052EE431E0309355
:103B00006605209365052AE030E030936E0520932A
:103B10006D0524EF31E03093700520936F0510920E
:103B20007305109272051092610510926205109251
:103B30006305109264051092710528E431E030931A
:103B400006052093050599E3909374058093750508
:103B500089EF94E090937905809378058CE093E069
:103B60009093F8048093F7041092F6041092E20404
:103B700083EC94E00E94B81C84EA94E00C94B81C96
:103B80002F923F924F925F926F927F928F929F926D
:103B9000AF92BF92CF92DF92EF92FF920F931F935B
:103BA000CF93DF93CDB7DEB7CA1BDB0B0FB6F8940C
:103BB000DEBF0FBECDBF09942A88398848885F844C
:103BC0006E847D848C849B84AA84B984C884DF80BD
:103BD000EE80FD800C811B81AA81B981CE0FD11DA1
:103BE0000FB6F894DEBF0FBECDBFED010895A1E280
:103BF0001A2EAA1BBB1BFD010DC0AA1FBB1FEE1F67
:103C0000FF1FA217B307E407F50720F0A21BB30BB1
:103C1000E40BF50B661F771F881F991F1A9469F72D
:103C200060957095809590959B01AC01BD01CF0189
:103C30000895EE0FFF1F0590F491E02D09940F9366
:103C40001F93CF93DF938230910510F482E090E0D0
:103C5000E091A605F091A70520E030E0A0E0B0E0FB
:103C6000309719F14081518102811381481759071A
:103C7000C8F08417950769F4109731F012960C93E9
:103C8000129713961C9327C00093A6051093A705BF
:103C900022C02115310519F04217530718F49A0173
:103CA000BD01EF01DF01F801DBCF21153105F9F08E
:103CB000281B390B2430310580F48A819B816115E2
:103CC000710521F0FB019383828304C09093A705C3
:103CD0008093A605FE01329644C0FE01E20FF31F59
:103CE0008193919322503109398328833AC02091DE
:103CF000A4053091A505232B41F4209108013091B2
:103D000009013093A5052093A40520910601309167
:103D100007012115310541F42DB73EB740910A0145
:103D200050910B01241B350BE091A405F091A505E2
:103D3000E217F307A0F42E1B3F0B2817390778F082
:103D4000AC014E5F5F4F2417350748F04E0F5F1FE1
:103D50005093A5054093A4058193919302C0E0E0A0
:103D6000F0E0CF01DF91CF911F910F910895CF9394
:103D7000DF93009709F481C0FC013297138212820D
:103D8000A091A605B091A705109781F420813181FB
:103D9000820F931F2091A4053091A505281739079C
:103DA00051F5F093A505E093A40567C0ED0120E06F
:103DB00030E0CE17DF0740F44A815B819E01411558
:103DC0005105F1F0EA01F5CFD383C28340815181DF
:103DD000840F951FC817D90759F488819981840FDA
:103DE000951F0296918380838A819B81938382832E
:103DF0002115310529F4F093A705E093A6053DC0F0
:103E0000E901FB83EA8349915991C40FD51FEC174F
:103E1000FD0761F480819181840F951F0296E9016D
:103E200099838883828193819B838A83E0E0F0E099
:103E300012968D919C911397009719F0FD01DC016A
:103E4000F7CF8D919C9111979D012E5F3F4F820F6F
:103E5000931F2091A4053091A5052817390769F40F
:103E6000309729F41092A7051092A60502C013827C
:103E70001282B093A505A093A405DF91CF91089578
:103E8000A0E0B0E0E6E4FFE10C94C41DEC01009773
:103E900021F4CB010E941F1EB4C0FC01E60FF71FE6
:103EA0009C0122503109E217F30708F4A8C0D90198
:103EB0000D911C91119706171707B0F005301105E9
:103EC00008F49BC0C80104978617970708F495C0AB
:103ED00002501109061B170B019311936D937C93EC
:103EE000CF010E94B71E89C05B01A01AB10A4C0124
:103EF000800E911EA091A605B091A705612C712C92
:103F0000E12CF12C109709F446C08D919C911197EA
:103F1000A815B905B1F56C0142E0C40ED11CCA1454
:103F2000DB0478F14C018A189B08640142E0C40E5E
:103F3000D11C1296BC9012971396AC91B5E0CB169B
:103F4000D10440F0B282A38391828082D9016D9323
:103F50007C9309C00E5F1F4F800F911FF901918361
:103F60008083EB2DFA2FE114F10431F0D701139681
:103F7000FC93EE93129741C0F093A705E093A6053A
:103F80003CC06816790608F43C017D0112960D903C
:103F9000BC91A02DB7CF8091A4059091A50588165E
:103FA0009906E1F466167706C8F4809106019091AF
:103FB0000701009741F48DB79EB740910A015091D7
:103FC0000B01841B950BE817F907C8F4F093A505BE
:103FD000E093A405F901718360830FC0CB010E94B7
:103FE0001F1E7C01009759F0A801BE010E940B2002
:103FF000CE010E94B71EC70104C0CE0102C080E0FE
:1040000090E0CDB7DEB7EEE00C94E01D81E090E0EB
:10401000F8940C941B20FB01DC0102C001900D926E
:1040200041505040D8F70895FB01DC0101900D92FA
:104030000020E1F708951AE0C7E3DAE004C0FE01CA
:104040000E94191E2196C833D107C9F7F894FFCFF3
:104050000100010203040000A80520006B006C00B1
:104060006D0000000000A61013103D10F3106E103C
:104070004C10601000000000070BDA0A370BB60A7C
:10408000620AC60AB70A00000000C4131310370BF7
:104090001210120E00000000360B8F135D114F55E9
:1040A0004C52202D3E20427574746F6E7300202D8B
:1040B0003E20446973706C617900202D3E2052656A
:1040C0006C617900457870616E6465722062656725
:1040D000696E3A20737461727400457870616E6421
:1040E000657220626567696E3A206F6B0050696E79
:1040F000732061756620484947482067657A6F6775
:10410000656E004D61676E65742050696E20617543
:1041100066204C4F572067657A6F67656E003D3D9E
:104120003D3D3D3D3D3D3D3D53455455503D3D3D5F
:104130003D3D3D3D3D3D3D3D0055656265727072C2
:10414000756566652050617373776F727400214BDB
:104150006F7272656B7465732050617373776F72E1
:10416000743A204D61676E657420617573004F4627
:10417000460046616C7363686573205061737377A2
:104180006F72740045696E676162657A6569742053
:10419000756562657273636872697474656E202DEB
:1041A0002050617373776F727420726573657474D5
:1041B000656E005265736574746520506173737722
:1041C0006F72740021507265737365643A20004801
:1041D0004F4C443A20002150617373776F72742002
:1041E0007A75727565636B67657365747A7400526E
:1041F00065737461727420436F64652065696E67CE
:1042000065676562656E2C20737461727465206EDB
:10421000657500457870616E64657220506F7274C8
:10422000733A0048494748004E657573746172746B
:1042300020696E000D0A00504645494C52414554D4
:1042400053454C2076322E30206265746100214245
:10425000724172726F77733A004F4E004F554F4C58
:0442600052524F0067
:00000001FF
