:100000000C943C0A0C94640A0C94640A0C94D0106E
:100010000C94AB100C9486100C94640A0C94640A33
:100020000C94640A0C94640A0C94640A0C94640A98
:100030000C94640A0C94640A0C94640A0C94640A88
:100040000C941B170C94640A0C942A0E0C94040E46
:100050000C94640A0C94640A0C94640A0C94640A68
:100060000C94F5100C94640A4E6575737461727487
:1000700020696E0000030C0F30333C3FC0C3CCCF6F
:10008000F0F3FCFF00000000230026002900AED59D
:1000900080A83FD300408D142002A1C8DA12817FCE
:1000A000D9F1DB40A4A6AF20202020202020202052
:1000B000454E47494E454552494E470014400A0BAC
:1000C0002060020203060608070103030406020378
:1000D00001050505060605060505050602030505D5
:1000E00006040A07060506050507060204050409B5
:1000F00007070507060505070509060506030303A7
:1001000004050205050405050405050203040209AA
:100110000505050503050305040805050503030496
:10012000050600000000601E200008060800000010
:10013000C8784EC8784E200000200000800C1222A3
:10014000C3040060202000000C92522CD02824C24E
:100150002000000000202000C0201C32CAC4200063
:100160002020200000200800E01C026080000082A7
:100170007C80600014380E14000000002020E0385D
:1001800020200000000000000000806020202000EF
:100190000000002080601806012000000000F00C24
:1001A00002C23C00202000000004E21E00202020AB
:1001B000202000804422120C2020202020008000DB
:1001C0001412F20C002020200000605048E45E0071
:1001D0000000200080181612E202002020200000FB
:1001E000E018149262002020000002C2320A0620A9
:1001F00000000000E01C12F20C002020000000189B
:1002000024A2621C20202000000000082000000022
:1002100008806000205050508800000000005050BE
:1002200050505000000000008088505050200000C6
:10023000000000006212120C20000000E0180424EC
:10024000524A7A4A221C00204040404040000000B0
:1002500000C0704C427CC020000000000020E01E66
:10026000121212EC202020202000F00C020282004A
:1002700020202000E01E0202C23C2020202000009E
:10028000E01E1212122020202020E01E1212122046
:1002900000000000F00C020212D2340020202020C6
:1002A0000000E01E1010F01E200000002000E01EE4
:1002B00020000000E01E20200000E01E30C80420C6
:1002C00000000020E01E000020202020E01E067814
:1002D000806018E61E200000002000002000E01EC4
:1002E0000C30C0E01E20000000002000F00C0202D4
:1002F00002C23C00202020200000E03E22221C20E0
:1003000000000000F00C020202C23C00202020206D
:100310002040E01E1232D20C200000002000800C91
:100320001222C2002020200002E21E020200200051
:100330000000E01E000000E01E0020202020000041
:10034000FE8060100C20000000003EC060180EF01F
:1003500040300C00200000002000000000804678A3
:10036000880420000000200006D820180400200087
:100370000000804222120A06202020202000C03ED9
:1003800002E0800007F8000000E000C23E80E000CC
:10039000100C021C000000000000000000808080A3
:1003A000808001020000E01008C8380020202000F2
:1003B000C03E0888702020200000E010088800203F
:1003C0002000E01008C83E0020202000E03028284F
:1003D0001000202020000088780C80600000E010D1
:1003E00008C83880A0A06000C03E08C830200000C7
:1003F0002000C03A200000C03A806000C03EE010FB
:1004000020000020C03E2000C0381008C83008C8B6
:1004100030200000002000002000C03808C8302034
:1004200000002000E0100888700020200000C03884
:10043000088870E020200000E01008C83800202064
:10044000E000C03808200000001028C80820202044
:100450000000C83C08002020C03800C03800202020
:100460002000F880403020000000F8806010F88004
:1004700040302000000020000000008870E01020C4
:100480000000002000F800C03080402000000088FC
:10049000482818202020202020E01E00E08000F0C6
:1004A0000EE0000000C23E2080600000100808102E
:1004B000100000000000FE025A0A02FE2020202048
:1004C0002020534341504500450045414D20001434
:1004D000610A0B20600202030605080801030305F8
:1004E00005020302050506050506050505050502C5
:1004F00002050505050A06060507050507070203A7
:100500000604090707050806050607060A06060584
:100510000305030506020505040505030605020299
:10052000050208050505050304030505080505047E
:10053000030104050600000000BEBE20200E000ED0
:1005400000000048E85EE85E480020002000009CB3
:100550003E33F2E400206020000C128C6018C620AC
:10056000C00000200000002000C0EC3E327ECCE045
:100570000000202020200020200E00F0FC0600605B
:10058000C006FCF0C06000120C3F0C12000000001E
:10059000002020F8202000000000008080E0602083
:1005A0002020000000808020200080700C03C020EC
:1005B000000000FCFE02FEFC00202020000804FEDB
:1005C000FE000020202020202084C2623E1C20202B
:1005D000202020841212FEEC0020202000605846CB
:1005E000FEFE400000002020001E1E12F2E220202D
:1005F000202000FCFE12F2E2002020200002C2FABD
:100600003E060020200000ECFE12FEEC0020202020
:10061000001C3E22FEFC20202020009898202098DC
:1006200098E0602050508888000000000050505032
:10063000505000000000008888505020000000004A
:100640000002B2B21E0C0020200000F00864928A62
:100650004AF29A847800204040404040000000E088
:10066000F84E4EF8E0202000002020FEFE1212FE80
:10067000EC202020202000FCFE020284002020200C
:1006800000FEFE020286FC7820202020200000FED2
:10069000FE1212122020202020FEFE121212202014
:1006A000000000FCFE020222E2E4002020202020C4
:1006B00000FEFE101010FEFE20200000002020FE94
:1006C000FE202000FEFE202000FEFE30FCCE022098
:1006D0002000002020FEFE000020202020FEFE1C26
:1006E00070C0701CFEFE202000002000002020FEB4
:1006F000FE0C30C0FEFE20200000002020FCFE0288
:100700000202FEFC00202020202000FEFE223E1CD3
:100710002020000000FCFE020202FEFC000020205F
:100720002020204040FEFE1232FECC20200000207F
:10073000209C3E32F2E400202020000202FEFE0255
:1007400002000020200000FEFE000000FEFE00204F
:1007500020202020000E7EE0E07E0E000020200001
:1007600000063EF8C03E3EC0F83E060000202000D5
:10077000002020000086CE7878CE86202000002041
:1007800020061EF8F81E0600002020000082E27AF3
:100790001E062020202020FEFE02E0E080030C70D8
:1007A000800000000020C002FEFE80E0E0100C028D
:1007B0000C1000000000000000000000008080809D
:1007C00080808001020000C8E828F8F00020202086
:1007D00020FEFE08F8F02020202000F0F808080095
:1007E000202020F0F808FEFE0020202020F0F8282D
:1007F00038300020202020FCFE0A202000B0F848DD
:10080000783808C0E0A0E06000FEFE08F8F0202084
:10081000002020FBFB2020FBFBE060FEFE60F89840
:100820002020002020FEFE2020F8F808F8F008F82C
:10083000F02020002020002020F8F808F8F02020E8
:10084000002020F0F808F8F00020202000F8F80838
:10085000F8F0E0E0202000F0F808F8F8002020E0B0
:10086000E0F8F8082020003078E8C820202000FCBC
:10087000FC08002020F8F800F8F80020202020389C
:10088000F880F838002020200038F8C03838C0F848
:1008900038002020000020200098F860F8982020E0
:1008A00000202038F880F83800C0E0200088E87880
:1008B0001820202020FCDE0260E080FEE002DEFC4A
:1008C0002080E0600010081810080000000000FE02
:1008D000026A3A02FE202020202020202020202012
:1008E00054002B2D2D2D2D2D2D2D2D2D2D2D2D2D40
:1008F0002D2D2D2D2D2D2D2D2D2D2D2D2D2D2D2D28
:100900002D2D2D2D2D2D2B007C2020202054656198
:100910006D457363617065204848265320454E47F6
:10092000494E454552494E47202020207C002B2D22
:100930002D2D2D2D2D2D2D2D2D2D2D2D2D2D2D2DE7
:100940002D2D2D2D2D2D2D2D2D2D2D2D2D2D2D2DD7
:100950002D2D2B00206465766963652873292E0090
:10096000206465766963652873292E00466F756E6D
:10097000642000466F756E642000202D3E20526575
:100980006C617900202D3E20446973706C617900A0
:10099000202D3E204B6579706164002900290020DC
:1009A000283078002028307800466F756E6420610A
:1009B0006464726573733A20004932432053636163
:1009C0006E2E2E2E005363616E6E696E672E2E2E74
:1009D00000493243207363616E6E65723A00000015
:1009E00005072061000000000000005F0000000714
:1009F000000700147F147F14242A7F2A122313086F
:100A0000646236495522500005030000001C224153
:100A1000000041221C00082A1C2A0808083E080879
:100A2000005030000008080808080060600000203E
:100A3000100804023E5149453E00427F4000426199
:100A40005149462141454B311814127F1027454525
:100A500045393C4A4949300171090503364949493C
:100A600036064949291E0036360000005636000079
:100A70000008142241141414141441221408000212
:100A800001510906324979413E7E1111117E7F499B
:100A90004949363E414141227F4141221C7F49491B
:100AA00049417F090901013E414151327F0808084F
:100AB0007F00417F41002040413F017F08142241D7
:100AC0007F404040407F0204027F7F0408107F3E49
:100AD0004141413E7F090909063E4151215E7F099E
:100AE000192946464949493101017F01013F4040EA
:100AF000403F1F2040201F7F2018207F63140814D0
:100B0000630304780403615149454300007F414178
:100B1000020408102041417F000004020102044049
:100B200040404040000102040020545454787F4863
:100B30004444383844444420384444487F3854546A
:100B40005418087E090102081454543C7F08040418
:100B50007800447D40002040443D00007F10284440
:100B600000417F40007C041804787C080404783835
:100B7000444444387C14141408081414187C7C0869
:100B80000404084854545420043F4440203C40404E
:100B9000207C1C2040201C3C4030403C4428102835
:100BA000440C5050503C4464544C440008364100BE
:100BB00000007F0000004136080008082A1C0808D1
:100BC0001C2A080800060909068E00198040006FDB
:100BD0006B2E004B657970616420006F6B2E0045B1
:100BE0007870616E64657220002000202000202053
:100BF000002020446F6F72203A200020204C69674B
:100C000068743A200022080D0E20600402050607D1
:100C10000809020303050802040204070407070782
:100C200007070707070202070707080E0908080851
:100C300007070908020708070B0809070909070839
:100C400008090D0708080404040608030707060737
:100C500007050707020306020A0707070705060537
:100C600007070B060705050105070800000000003F
:100C7000000000FEFE18181E1E001E1E00000000D0
:100C80000090F89E90F89E1C00001C0000183C2666
:100C9000FF66CC88040C183C180C041C221CC030C5
:100CA0008E408000001804000C100C80CC7E72F284
:100CB000DE0C80000C1C1010101C0C1C101E1E00E2
:100CC00000F0FC061C7CC006FCF0C07C1C14140E5A
:100CD00014140000000000606060FCFC60606000B4
:100CE00000000C0C00000000005838C0C0C0C0005C
:100CF0000000000000181800C0380618040000F8B2
:100D0000FC0E060EFCF8040C1C181C0C04180CFE3F
:100D1000FE00001C1C181C86C6663E1C181C1C18F5
:100D2000181818888C062626FEDC040C1C18180CD3
:100D300004C0E0B88CFEFE80040404041C1C047093
:100D40007E3E3636F6C60C1C1818180C04F8FC6EDD
:100D50006666EECC040C1818181C0C060606E6761F
:100D60001E0600001C1C0000009CFE666666FE9CC1
:100D70000C1C1818181C0C3C7E666666FCF80C1CD3
:100D800018181C0C0418181818181858386060F037
:100D9000F098980C0000000004040CD8D8D8D8D8DB
:100DA000D8D8000000000000000C9898F0F06060B7
:100DB0000C040400000000080C06C6E6763C18008F
:100DC00000001818000000E03008C4F63A1A1AF2C1
:100DD000FA7E0408F00C30604C9C98988C9C9C9097
:100DE000484C2000C0F8BE86BEF8C000181C0404A1
:100DF0000404041C18FEFE66666666FEDC1C1C18F5
:100E00001818181C0CF8FC0E06060E9C08040C1C86
:100E100018181C0C04FEFE0606060EFCF81C1C1816
:100E200018181C0C04FEFE66666666661C1C181804
:100E3000181818FEFE66666666061C1C0000000098
:100E400000F8FC0E0606C6CEDCC8040C1C181818E8
:100E5000180C04FEFE60606060FEFE1C1C000000BA
:100E6000001C1CFEFE1C1C8080000000FEFE0C1CF2
:100E70001818181C0CFEFE603078EC86021C1C0052
:100E80000000041C18FEFE00000000001C1C1818C6
:100E9000181818FEFE0E7CE000E07C0EFEFE1C1C06
:100EA00000000C1C0C00001C1CFEFE1C78E080FEE8
:100EB000FE1C1C0000040C1C1CF8FC0E0606060E92
:100EC000FCF8040C1C1818181C0C04FEFE66666660
:100ED0007E3C1C1C0000000000F8FC0E0686060E7E
:100EE000FCF8040C1C18181C0C1C24FEFE6666E69C
:100EF000E6BE1C001C1C0000000C1C18103C7E668A
:100F00006666EECC0C1C1818181C0C060606FEFEB5
:100F10000606060000001C1C000000FEFE0000008B
:100F200000FEFE040C1C18181C0C04021EFCE00041
:100F3000E0FC1E020000001C1C1C00000006FEF865
:100F400000F0FE0EFEF000F8FE0600001C1C1C0067
:100F500000001C1C1C0000060EF8F0F80E06181C01
:100F60000400041C18060E38F0F0380E06000000CD
:100F70001C1C000000060686E6761E0E06181C1CC9
:100F80001818181818FEFE0606FCFCC0C00638C06B
:100F900000000004180606FEFEC0C0FCFC20380E4F
:100FA0000E382000000000000000000000000000DB
:100FB0000080808080808080800206040000001015
:100FC00098D858F8F0000C1C18180C1C10FEFE30B5
:100FD0001838F0E01C1C0C181C0C04E0F018183831
:100FE00030040C18181C0CE0F0381830FEFE040C0D
:100FF0001C180C1C1CE0F0D8D8D8F0E0040C181811
:1010000018180818FCFE1A1A001C1C0000E0F03822
:101010001830F8F864ECDCD8CCFC7CFEFE301818F4
:10102000F8F01C1C0000001C1CFAFA1C1C00FAFA48
:10103000C0FC7CFEFEE0F098081C1C00041C18FE9E
:10104000FE1C1CF8F81018F8F01818F8F01C1C001A
:10105000001C1C00001C1CF8F8301818F8F01C1CB0
:101060000000001C1CE0F0381838F0E0040C1C18DC
:101070001C0C04F8F8301838F0E0FCFC0C181C0CC0
:1010800004E0F0381830F8F8040C1C180CFCFCF8DC
:10109000F83018181C1C00000070F8D8D8D8900838
:1010A0001818181C0C18FCFE1818000C1C1818F83E
:1010B000F8000000F8F80C1C18180C1C1C38F8C0BC
:1010C00000C0F83800001C1C1C000018F8E000F0FC
:1010D00038F000E0F81800001C1C0C000C1C1C0070
:1010E000001838E0E03818181C04041C1818F8E040
:1010F00000E0F8180084FCF83C04001898D8783810
:101100001C1C18181880FC7E0606007CFCC0C0FE63
:10111000FC06067EFC80C0C0FC7C00603030706045
:10112000603000000000000000FE02020202020225
:10113000FE1C1010101010101C2020202020202732
:101140002E5F5F5F5F5F2E27202020002020202061
:10115000205C20202F2020205C20202F0020202019
:10116000207C202020205F5F5F202020207C20002A
:10117000202020207C202020202020202020202013
:101180007C200020202020202F20206F2020206F76
:1011900020205C20002020202020202E272020201E
:1011A0002020272E2020200020202020202020204A
:1011B0005F5F5F5F5F202020202000202020202014
:1011C00020272E5F5F5F5F5F2E27202020002020DA
:1011D0002020205C2020272D2D2D2720202F2000AF
:1011E000202020207C20205C20202020202F202058
:1011F0007C00202020207C20202020202020202057
:1012000020207C200020202020202F20206F202044
:10121000206F20205C20002020202020202E27204E
:1012200020202020272E20202000202020202020C9
:1012300020205F5F5F5F5F202020202000000005EE
:10124000072060000000000000005F0000000700B1
:101250000700147F147F14242A7F2A1223130864A2
:101260006236495620500008070300001C22410046
:101270000041221C002A1C7F1C2A08083E08080086
:101280008070300008080808080000606000201026
:101290000804023E5149453E00427F4000724949E0
:1012A00049462141494D331814127F1027454545C1
:1012B000393C4A49493141211109073649494936E2
:1012C000464949291E000014000000403400000077
:1012D00008142241141414141400412214080201A9
:1012E0005909063E415D594E7C1211127C7F4949D5
:1012F00049363E414141227F4141413E7F49494972
:10130000417F090909013E414151737F0808087F67
:1013100000417F41002040413F017F081422417F6E
:10132000404040407F021C027F7F0408107F3E4106
:1013300041413E7F090909063E4151215E7F09195D
:101340002946264949493203017F01033F40404075
:101350003F1F2040201F3F4038403F631408146364
:1013600003047804036159494D43007F4141410220
:1013700004081020004141417F0402010204404062
:10138000404040000307080020545478407F284420
:1013900044383844444428384444287F385454540A
:1013A0001800087E090218A4A49C787F0804047819
:1013B00000447D40002040403D007F102844000054
:1013C000417F40007C047804787C08040478384429
:1013D000444438FC1824241818242418FC7C0804DD
:1013E0000408485454542404043F44243C404020FE
:1013F0007C1C2040201C3C4030403C4428102844A9
:101400004C9090907C4464544C4400083641000059
:1014100000770000004136080002010204023C2669
:1014200023263C00000000240027002A00000000C2
:1014300000250028002B0004040404040404040212
:101440000202020202030303030303010204081061
:10145000204080010204081020010204081020002E
:101460000000080002010000030407000000000063
:1014700000000000EB1D651711241FBECFEFD8E060
:10148000DEBFCDBF26E0A2ECB3E001C01D92AA36BC
:10149000B207E1F713E0A0E0B1E0E8E0F3E402C056
:1014A00005900D92A23CB107D9F71AE0CBE3DAE040
:1014B00004C02197FE010E94751FCA33D107C9F7E6
:1014C0000E9475170C9477210C9400000895CF9218
:1014D000DF92EF92FF920F931F93CF93DF936C01F4
:1014E0007A018B01C0E0D0E0CE15DF0581F0D80194
:1014F0006D918D01D601ED91FC910190F081E02D6F
:10150000C6010995892B11F02196EECF7E01C70106
:10151000DF91CF911F910F91FF90EF90DF90CF90CF
:101520000895FC01538D448D252F30E0842F90E0E9
:10153000821B930B541710F0CF96089501970895CE
:10154000FC01918D828D981761F0828DDF01A80FCB
:10155000B11D5D968C91928D9F5F9F73928F90E0ED
:1015600008958FEF9FEF0895FC01918D828D98175C
:1015700031F0828DE80FF11D858D90E008958FEF99
:101580009FEF0895FC01918D228D892F90E0805C62
:101590009F4F821B91098F73992708958CEB94E0DC
:1015A0000E94C20A21E0892B09F420E0822F0895CD
:1015B000FC01848DDF01A80FB11DA35ABF4F2C91F0
:1015C000848D90E001968F739927848FA689B789BF
:1015D0002C93A089B1898C91837080648C93938DB6
:1015E000848D981306C00288F389E02D80818F7D59
:1015F00080830895EF92FF920F931F93CF93DF9311
:10160000EC0181E0888F9B8D8C8D981305C0E88953
:10161000F989808185FD26C0F62E0B8D10E00F5FC5
:101620001F4F0F731127E02E8C8DE8120CC00FB6E0
:1016300007FCFACFE889F989808185FFF5CFCE01D3
:101640000E94D80AF1CF8B8DFE01E80FF11DE35AFD
:10165000FF4FF0829FB7F8940B8FEA89FB89808156
:1016600080620AC09FB7F894EE89FF896083E88999
:10167000F98980818370806480839FBF81E090E0DE
:10168000DF91CF911F910F91FF90EF900895CF932D
:10169000DF93EC01888D8823C9F0EA89FB8980817A
:1016A00085FD05C0A889B9898C9186FD0FC00FB64C
:1016B00007FCF5CF808185FFF2CFA889B9898C918D
:1016C00085FFEDCFCE010E94D80AE7CFDF91CF9101
:1016D000089580E090E0892B29F00E94CE0A8111C4
:1016E0000C9400000895CF93DF93EC019C818E81D0
:1016F000981758F4E881F9810084F185E02D42E0E3
:10170000CE0109958C818F5F8C83DF91CF910895F5
:1017100090E0FC01EE0FFF1FE857FF4FA591B49139
:101720002C91FC01E95AFB4F30812083880F991FCF
:10173000FC01E45DFE4F0190F081E02D8081089571
:1017400085ED8093BC008091BC0084FDFCCF10929D
:10175000B704089540910404262F30E0240F311D72
:1017600021323105DCF42091B7042430C9F4FC01A6
:1017700080E090E0861758F4309104042191DC0158
:10178000AC51BC4FA30FB11D2C930196F3CF8091A8
:101790000404680F6093040480E0089581E00895D4
:1017A00082E00895089508950895E091BB04809122
:1017B000BA04E81730F4F0E0E559FB4F808190E07F
:1017C00008958FEF9FEF08959091BB048091BA0424
:1017D000981750F4E92FF0E0E559FB4F208130E0F5
:1017E0009F5F9093BB0402C02FEF3FEFC9010895A4
:1017F0008091BA0490E02091BB04821B9109089566
:10180000CF92DF92EF92FF920F931F93CF93DF93CC
:101810007C01CB018A012091B004222389F0EB01E5
:101820006B01C40ED51ECC15DD0569F06991D70199
:10183000ED91FC910190F081E02DC7010995F3CF66
:10184000642F0E94AA0BC801DF91CF911F910F91C5
:10185000FF90EF90DF90CF900895CF93DF931F928A
:10186000CDB7DEB769832091B0042223D1F0209157
:10187000B804203240F021E030E0FC0133832283C1
:1018800080E090E015C08091B904E82FF0E0EC53BF
:10189000FC4F998190838F5F8093B9048093B80443
:1018A00005C061E0CE0101960E94AA0B81E090E0A4
:1018B0000F90DF91CF910895089580E090E0089512
:1018C0000E9462216115710579F0FB0101900020F1
:1018D000E9F73197AF01461B570BDC01ED91FC9105
:1018E0000280F381E02D099480E090E00895CF928A
:1018F000DF92EF92FF920F931F93CF93DF9321E03C
:1019000030E0790102C0EE0CFF1C6A95E2F76C0131
:1019100020E7C20ED11CD6014C9150E0FC01E159E8
:10192000FF4F608170E0EC01CD58DF4F88819981D5
:101930000E945E1588819981DC01ED91FC91028401
:10194000F385E02D09958C01F6018081823070F0DD
:1019500088819981DC01ED91FC910284F385E02D71
:10196000099520E030E0382F022B132B0E211F2188
:1019700081E090E00E151F0511F080E090E0DF910E
:10198000CF911F910F91FF90EF90DF90CF9008952E
:10199000CF93DF9370E0FB01E15AFB4E8491FB0192
:1019A000E55BFB4ED491FB01E95CFB4EC491CC237B
:1019B00091F081110E94B415EC2FF0E0EE0FFF1FA3
:1019C000EC57FF4FA591B491EC91ED2381E090E0AD
:1019D00021F480E002C080E090E0DF91CF91089593
:1019E000862F642F0C94DD15862F642F0C943E16E1
:1019F000EF92FF920F931F93CF93DF93EC017B0144
:101A00008A0188819981009729F02A813B812417D6
:101A10003507F8F4B8016F5F7F4F0E949C20009754
:101A200059F0998388831B830A832C813D81232B62
:101A300081F4FC0110820DC088819981009711F01A
:101A40000E941320198218821D821C821B821A8216
:101A500007C01D830C83B701888199810E94702182
:101A6000CE01DF91CF911F910F91FF90EF900895DC
:101A7000FC01808191810C941320FC011182108261
:101A800013821282158214826115710551F0FB01D7
:101A900001900020E9F73197AF01461B570B0C94DA
:101AA000F80C08958F929F92AF92BF92EF92FF929F
:101AB0000F931F93CF93DF93CDB7DEB7A1970FB6E8
:101AC000F894DEBF0FBECDBF7C01FA01CB0119A295
:101AD000223008F42AE08E010F5D1F4F822E912CD8
:101AE000A12CB12CBF01A50194010E94531FF90143
:101AF000CA01015011096A3014F4605D01C0695CCB
:101B0000D8016C93232B242B252B61F7B801C70137
:101B10000E94620CA1960FB6F894DEBF0FBECDBF37
:101B2000DF91CF911F910F91FF90EF90BF90AF90F9
:101B30009F908F9008956AE771E00C94620C0F9368
:101B40001F93CF93DF93EC010E94620C8C01CE01B6
:101B50000E949B0D800F911FDF91CF911F910F91DC
:101B600008950F931F93CF93DF93EC01FB01448102
:101B7000558160817181E881F9810280F381E02DD6
:101B800009958C01CE010E949B0D800F911FDF9162
:101B9000CF911F910F9108950C94620CEF92FF92D8
:101BA0000F931F93CF93DF938C017B01C0E0D0E0B4
:101BB000F701EC0FFD1F6491662361F0D801ED91F0
:101BC000FC910190F081E02DC8010995892B11F05D
:101BD0002196EECFCE01DF91CF911F910F91FF9013
:101BE000EF9008950F931F93CF93DF93EC010E9422
:101BF000CE0D8C01CE010E949B0D800F911FDF91B5
:101C0000CF911F910F9108951F920F920FB60F92CF
:101C100011242F933F934F935F936F937F938F93F1
:101C20009F93AF93BF93EF93FF938CEB94E00E944D
:101C3000D80AFF91EF91BF91AF919F918F917F91C2
:101C40006F915F914F913F912F910F900FBE0F9029
:101C50001F9018951F920F920FB60F9211242F9379
:101C60008F939F93EF93FF93E091CC04F091CD0479
:101C70008081E091D204F091D30482FD12C0908162
:101C80008091D5048F5F8F732091D604821751F015
:101C9000E091D504F0E0E454FB4F958F8093D50498
:101CA00001C08081FF91EF919F918F912F910F90B3
:101CB0000FBE0F901F901895FC0125893689D90118
:101CC0004D9191912C5E3F4F411104C081E09923C9
:101CD00049F007C0491305C04D919191A217B30770
:101CE00099F780E00895DC01ED91FC910084F18585
:101CF000E02D40E009940F931F93CF938C01FC01DA
:101D000064838085C62FC80F6C2F6F70C8010E9436
:101D1000730E6C2F62956F706061C801CF911F9137
:101D20000F910C94730EFC0127812695269526951C
:101D3000621720F46583606B0C94730E0895CF9244
:101D4000DF92EF92FF920F931F93CF93DF93EC01FB
:101D5000162FC42ED22E8F818695869586950817CC
:101D600010F00FEF080FFD2C8E810F15A8F018173B
:101D700020F4612FCE010E947B0E6F2DCE010E94B8
:101D8000930EE12ECE1430F060E0CE010E94730B72
:101D9000E394F8CFF394E8CF181720F4612FCE0125
:101DA0000E947B0E6D2DCE01DF91CF911F910F917F
:101DB000FF90EF90DF90CF900C94930E2F923F9274
:101DC0004F925F926F927F928F929F92AF92BF924B
:101DD000CF92DF92EF92FF920F931F93CF93DF93F7
:101DE000CDB7DEB729970FB6F894DEBF0FBECDBFD3
:101DF000DC011B960D911C911C970115110509F42E
:101E00006AC199878887F801B491319644913196D7
:101E100044903196A491EA2EF12CF7E0EF0EF11CDC
:101E200093E0F594E7949A95E1F7EC82F801349603
:101E300074913196E491671758F0862F90E02E2F19
:101E400030E0F901E70FF11D8E179F070CF476C003
:101E50006D3069F4A885B98516968C91882309F4AC
:101E600037C160E0888599850E947B0E31C16A3058
:101E700009F031C1E885F9858185D5808E9DD00C2A
:101E800011248781869586958695D81630F08285AF
:101E9000882319F082E08287D12CA885B98516960F
:101EA0008C911697882321F060E0CD010E947B0E73
:101EB0006D2D888599850E94930EE885F985828528
:101EC000823008F405C125810384F485E02D309724
:101ED00051F03396E491A885B98519960C91E09F4D
:101EE000002D112401C000E010E0095F1F4F83E0C6
:101EF000159507958A95E1F78FEF820F080FE88512
:101F0000F985468141506481CF010E949F0EA885CA
:101F1000B98519968C9119976D2D8E9D600D1124A0
:101F2000660F660F660F17968C91861708F460E0AF
:101F30006064888599850E94730ECAC050E05B2B4F
:101F4000C8010696671BE885F985F185F98342305B
:101F5000510588F4452B09F019824E9C90014F9C45
:101F6000300D1124629F8001639F100D1124080F12
:101F7000191F312C24C0EA2FE77021F048E0342EDD
:101F80003E1A01C0312CA82FFC0140E050E07E2F0A
:101F90007A1B761728F47491470F511D3196F7CFAD
:101FA000FC01E60FF11D4490E49E8001E59E100DBA
:101FB000F49E100D1124020F131F080F191FA8857E
:101FC000B9851496BC91BA83E885F985F581FD83BE
:101FD000842D90E09F838E83812C912CC12CD12C59
:101FE000CB829C81C91608F06EC0212C3601BFEF50
:101FF0006B1A7B0AE885F9858185281608F05BC095
:10200000FB81F11102C02220A9F0A885B98515969F
:10201000BC901597B39416968C91BA81B81728F492
:102020006B2F888599850E947B0E6B2D88859985FD
:102030000E94930EA12CB12CA41410F0B12C2FC02F
:10204000F401EA0DFB1DE00FF11F5490332061F005
:10205000E614F70449F4E52DF0E0032C02C0F595F1
:10206000E7950A94E2F75E2EE885F985818582304E
:1020700069F4E52D2110E295EF70F0E0EC58FF4F88
:102080005490652D888599850E94730B652D8885F0
:1020900099850E94730BFFEFAF1ABF0ACDCF7981EC
:1020A0007B1539F060E0888599850E94730BB394A5
:1020B000F6CF23949FCF8FEFC81AD80AAE81BF8185
:1020C0008A0E9B1E8DCF6D81888599850E94930E07
:1020D00081E090E002C080E090E029960FB6F8948D
:1020E000DEBF0FBECDBFDF91CF911F910F91FF904B
:1020F000EF90DF90CF90BF90AF909F908F907F90A8
:102100006F905F904F903F902F9008951F920F9285
:102110000FB60F9211242F933F934F935F936F93BA
:102120007F938F939F93AF93BF93EF93FF9382E03F
:102130000E94880BFF91EF91BF91AF919F918F917A
:102140007F916F915F914F913F912F910F900FBEB3
:102150000F901F9018951F920F920FB60F92112497
:102160002F933F934F935F936F937F938F939F939F
:10217000AF93BF93EF93FF9381E00E94880BFF9191
:10218000EF91BF91AF919F918F917F916F915F91EF
:102190004F913F912F910F900FBE0F901F90189568
:1021A0001F920F920FB60F9211242F933F934F93CC
:1021B0005F936F937F938F939F93AF93BF93EF93AF
:1021C000FF9380E00E94880BFF91EF91BF91AF9148
:1021D0009F918F917F916F915F914F913F912F913F
:1021E0000F900FBE0F901F9018951F920F920FB671
:1021F0000F9211242F933F934F935F936F937F938D
:102200008F939F93AF93BF93EF93FF938091B90008
:10221000887F803609F49CC068F5883209F45BC079
:1022200090F4803109F454C038F4882309F4F6C0DE
:10223000883009F44DC0F6C0883109F44CC08032B2
:1022400009F45DC0EFC0803409F468C048F48033FD
:1022500009F455C0883309F0E5C08093AE04D8C0B6
:10226000803509F44FC0883509F45DC0883409F021
:10227000D9C0D6C0883909F4C7C0A8F4883709F492
:1022800067C038F4883609F463C0803709F460C049
:10229000C9C0883809F4B8C0803909F45FC08038F3
:1022A00009F0C0C05BC0803B09F486C038F4803AB6
:1022B00009F466C0883A09F47FC0B4C0803C09F4D0
:1022C000A7C0883C09F4A4C0883B09F48AC0AAC00E
:1022D0008091AB0410C09091AD048091AC0498172C
:1022E00070F5E091AD0481E08E0F8093AD04F0E0D5
:1022F000E557FB4F80818093BB0085EC86C08093BF
:10230000AE048EC0E091AD0481E08E0F8093AD04E9
:102310008091BB00F0E0E557FB4F80839091AD04C6
:102320008091AC046EC0E091AD0481E08E0F80938B
:10233000AD048091BB00F0E0E557FB4F80838091B6
:10234000B60481116DC081E08093B50484EA61C058
:1023500083E08093B70410922604CFCF80912604A7
:10236000803208F051C0E091260481E08E0F809306
:1023700026048091BB00F0E0EA5FFB4F8083BDCF75
:1023800085EC8093BC001092B704809126048032C3
:1023900030F4E0912604F0E0EA5FFB4F1082609198
:1023A000260470E0E091B104F091B20486E094E07C
:1023B00009951092260436C084E08093B7041092E9
:1023C000050410920404E091B304F091B40409955B
:1023D00080910404811105C081E08093040410926F
:1023E000E403E091050481E08E0F80930504F0E0A2
:1023F000EC51FC4F80818093BB009091050480914B
:102400000404981708F479CF85E88093BC000AC0CB
:1024100085EC8093BC001092B70404C01092AE0407
:102420000E94A00BFF91EF91BF91AF919F918F916F
:102430007F916F915F914F913F912F910F900FBEC0
:102440000F901F9018953091B804313208F04BC0AE
:102450008091B7048111FCCF9091AF0422E02093CA
:10246000B70421E02093B6042FEF2093AE0410921E
:10247000AD043093AC04E4ECF3E0ABE8B4E020E06E
:10248000321721F041914D932F5FFACF1092AB0498
:102490002091AB04990F922B9093AB049091B504CB
:1024A000913061F41092B5049091AB049093BB000D
:1024B0009091BC0093FDF8CF95EC01C095EE909300
:1024C000BC009091B7049230E1F39091AE049F3F2D
:1024D00079F08091AE04803241F08091AE04803377
:1024E00031F084E005C081E003C082E001C083E0F8
:1024F0001092B9041092B8041092B0040895EF92AB
:10250000FF920F931F93CF93DF93EC017B01FC01AC
:10251000E159FF4F808191E09093B0048093AF0424
:102520001092B9041092B8048E010D581F4FD801B3
:102530008D919C91DC01ED91FC910190F081E02D59
:102540000995FE01E059FF4F8081823058F0F80173
:1025500080819181DC01ED91FC910190F081E02D71
:102560006F2D0995F801808191810E942312CF5827
:10257000DF4FE882F982DF91CF911F910F91FF9099
:10258000EF90089521E030E002C0220F331F6A95DA
:10259000E2F7FC01EF58FF4F442329F040815181BD
:1025A000242B352B06C02095309540815181242362
:1025B000352331832083608171810C947F120F93C6
:1025C0001F93CF93DF93EC01062F142F8E8581315B
:1025D00020F4882339F0411105C08DEB95E00E946D
:1025E00023121E868E85811113C08D8591E09093F4
:1025F000B0048093AF041092B9041092B804112370
:1026000011F060E401C060E08DEB95E00E942D0CBC
:10261000602F8DEB95E00E942D0C123021F48E85F9
:102620008F5F8E8705C08DEB95E00E9423121E867A
:10263000DF91CF911F910F9108950F931F93CF9327
:10264000DF93EC018B0161E08EE00E94DD158CEBE5
:1026500094E00E949B0D6DE771E08CEB94E00E948A
:10266000CC0DE9E5F6E044815581608171818CEB08
:1026700094E00E94670A6FE771E08CEB94E00E949F
:10268000CC0D4091C2035091C30360E070E02AE09A
:102690008CEB94E00E94520D60E871E08CEB94E0CA
:1026A0000E94CC0DB8018CEB94E00E94CC0D60E848
:1026B00071E08CEB94E00E94CC0DBE018CEB94E0B9
:1026C0000E94CC0D64E871E08CEB94E00E949F0DB9
:1026D0008091C2039091C30301969093C3038093AA
:1026E000C20362E370E080E090E00E947A1660E04E
:1026F0008EE0DF91CF911F910F910C94DD15109218
:102700005A0481E080930001E6EAF5E0148A108221
:10271000EFE8F5E0148A1082E8E7F5E0148A108209
:1027200065E171E08DE891E00C941D13CF92DF928A
:10273000EF92FF9268E670E08CEB94E00E94F20D5D
:102740000E94B0146FE971E08AE496E00E949F0D48
:102750006AEF70E080E090E00E947A1683E0C82E75
:10276000D12CE12CF12C2AE0B701A6018CEB94E0EE
:102770000E94520D8CEB94E00E949B0D2AE0B70161
:10278000A6018AE496E00E94520D8AE496E00E9437
:102790009B0D68EE73E080E090E00E947A1681E085
:1027A000C81AD108E108F108F1F60C940000FF9076
:1027B000EF90DF90CF900895CF93C82F8091E805D8
:1027C0009091E9058130910521F0029709F46AC0E2
:1027D0007DC06BEA71E08CEB94E00E94CC0D6C2F15
:1027E0008CEB94E00E94FA0A65EB71E08CEB94E0CC
:1027F0000E94CC0D6FE875E08CEB94E00E94CC0D4C
:102800008C2F0E946A1581E080935A048093000106
:10281000C33229F0CA3261F466ED71E002C060ECA7
:1028200071E08CEB94E00E949F0DCF910C947F138C
:10283000E091BA05E33169F081E08E0F8093BA052B
:10284000F0E0EA55FA4FC083E82FF0E0EA55FA4F7E
:102850001082E091A305E33169F081E08E0F80934F
:10286000A305F0E0E157FA4FC083E82FF0E0E1570D
:10287000FA4F1082E0918C05E33169F081E08E0F10
:1028800080938C05F0E0E858FA4FC083E82FF0E021
:10289000E858FA4F10826BE071E08FE895E0CF9135
:1028A0000C941D136CEE71E08CEB94E00E94CC0D47
:1028B0008C2F0E946A15CA3249F461E071E083EFFF
:1028C00091E00E941D13CF910C949613CF9108951F
:1028D00096E0899FD0011124A753BA4F90967C931C
:1028E0006E935F9791E091969C93919790913506A6
:1028F000E0913606F0913706992339F0309751F080
:10290000811108C08091E50504C0309719F05C96EC
:102910008C91099408953FB7F89480916704909141
:102920006804A0916904B0916A0426B5A89B05C00B
:102930002F3F19F00196A11DB11D3FBFBA2FA92F3E
:10294000982F8827820F911DA11DB11DBC01CD01BB
:1029500042E0660F771F881F991F4A95D1F70895A7
:102960000F930091510606950695069501504091EA
:102970005006415020E060E08AE496E00E949F0EFD
:1029800081E090915406911101C080E0809354063B
:1029900060E48AE496E00F910C94730ECF92DF927C
:1029A000EF92FF92CF93DF936C01990FEE08FF082F
:1029B000F7FE1BC06DE28CEB94E00E94FA0AEC017A
:1029C00044275527BA014C195D096E097F092AE091
:1029D0008CEB94E00E94520D8C0F9D1FDF91CF91E4
:1029E000FF90EF90DF90CF9008952AE0B701A60105
:1029F0008CEB94E0DF91CF91FF90EF90DF90CF9040
:102A00000C94520DE9E5F5E091816281808123818A
:102A100031E03093B0042093AF041092B9041092C7
:102A2000B80460956923682B8DEB95E00E942D0C0E
:102A30008DEB95E00C9423129091B7049111FCCF8B
:102A400091E09093B7049093B6042FEF2093AE04D7
:102A50001092AD04260F2093AC049093AB04909198
:102A6000AB04880F892B8093AB048091B50481302F
:102A700061F41092B5048091AB048093BB00809107
:102A8000BC0083FDF8CF85EC01C085EE8093BC00CF
:102A90008091B7048130E1F38091AD04861710F482
:102AA0006091AD04ABE8B4E0EBE6F4E080E08617BB
:102AB00021F09D9191938F5FFACF0895862F413237
:102AC00008F040E2642F0E941C151092BB04809312
:102AD000BA040895CF93DF93682F8CEB94E00E94A3
:102AE000FA0AEC018CEB94E00E949B0D8C0F9D1F69
:102AF000DF91CF9108950F931F93CF93DF938C01B4
:102B0000EB01FC01808191810097B1F068817981AE
:102B10006115710579F0428153812C813D81421705
:102B2000530740F00E9470218C819D81F8019583AC
:102B3000848313C00E94132088819981F8019183B6
:102B400080838A819B81938382838C819D819583FD
:102B50008483198218821B821A821D821C82DF9153
:102B6000CF911F910F910895833081F028F4813027
:102B700099F08230A1F008958730A9F08830B9F03B
:102B80008430D1F4809180008F7D03C080918000DB
:102B90008F7780938000089584B58F7702C084B5C5
:102BA0008F7D84BD08958091B0008F7703C08091A0
:102BB000B0008F7D8093B00008951F93CF93DF9373
:102BC000282F30E0F901E15AFB4E8491F901E55BD1
:102BD000FB4ED491F901E95CFB4EC491CC23C1F0CA
:102BE000162F81110E94B415EC2FF0E0EE0FFF1F9D
:102BF000E35DFB4EA591B4919FB7F894111104C009
:102C00008C91D095D82302C0EC91DE2BDC939FBF32
:102C1000DF91CF911F9108951092BB041092BA04D6
:102C20001092B9041092B8041092B70481E0809316
:102C3000B6041092B50461E082E10E94DD1561E006
:102C400083E10E94DD15E9EBF0E080818E7F8083D7
:102C500080818D7F808388E48093B80085E48093B1
:102C6000BC0082ED9BE09093B4048093B30483EDA9
:102C70009BE09093B2048093B1040895CF93DF93C7
:102C800090E0FC01E55BFB4E2491FC01E95CFB4E0E
:102C90008491882361F190E0880F991FFC01ED5D1C
:102CA000FB4EC591D491FC01E35DFB4EA591B4911F
:102CB000611109C09FB7F894888120958223888389
:102CC000EC912E230BC0623061F49FB7F894888199
:102CD000322F309583238883EC912E2B2C939FBF2A
:102CE00006C08FB7F894E8812E2B28838FBFDF9121
:102CF000CF9108958F929F92AF92BF92CF92DF9221
:102D0000EF92FF926B017C010E948B144B015C01DE
:102D1000C114D104E104F104F1F00E948B14DC0130
:102D2000CB0188199909AA09BB09883E9340A105DE
:102D3000B10570F321E0C21AD108E108F10888EE6C
:102D4000880E83E0981EA11CB11CC114D104E104BB
:102D5000F10419F7DDCFFF90EF90DF90CF90BF9097
:102D6000AF909F908F9008952FB7F894609163046F
:102D70007091640480916504909166042FBF08955A
:102D80000F931F93CF93DF93C82FD62F86E0C89F52
:102D9000F0011124E753FA4F11A2878D90A18130E1
:102DA0009105D9F040F082309105A9F10397F1F532
:102DB00060E070E034C06623C9F161E070E08C2F00
:102DC0000E9468140E94B416609321067093220634
:102DD000809323069093240629C00E94B416009184
:102DE0002106109122062091230630912406AB0182
:102DF000BC01401B510B620B730B80913306909109
:102E00003406A0E0B0E084179507A607B70718F4CA
:102E100062E070E004C0D11109C063E070E08C2F63
:102E2000DF91CF911F910F910C946814DF91CF9196
:102E30001F910F9108951F920F920FB60F921124B8
:102E40002F933F938F939F93AF93BF93809163048E
:102E500090916404A0916504B09166043091650678
:102E600023E0230F2D3720F40196A11DB11D05C0CD
:102E700026E8230F0296A11DB11D209365068093BD
:102E8000630490936404A0936504B09366048091F6
:102E9000670490916804A0916904B0916A04019656
:102EA000A11DB11D8093670490936804A0936904E9
:102EB000B0936A04BF91AF919F918F913F912F91F1
:102EC0000F900FBE0F901F9018958EE396E00E9412
:102ED000380D84E496E00E94380D89E596E00E9462
:102EE000380D8FE596E00C94380DCF93DF93CDB776
:102EF000DEB728970FB6F894DEBF0FBECDBF78942B
:102F000084B5826084BD84B5816084BD85B58260EE
:102F100085BD85B5816085BD80916E00816080939F
:102F20006E00109281008091810082608093810008
:102F30008091810081608093810080918000816018
:102F4000809380008091B10084608093B100809173
:102F5000B00081608093B00080917A00846080939B
:102F60007A0080917A00826080937A0080917A0062
:102F7000816080937A0080917A00806880937A00E3
:102F80001092C100E091CC04F091CD0482E08083E6
:102F9000E091C804F091C9041082E091CA04F09154
:102FA000CB0480E180831092D404E091D004F091AE
:102FB000D10486E08083E091CE04F091CF0480813B
:102FC00080618083E091CE04F091CF04808188609D
:102FD0008083E091CE04F091CF048081806880836B
:102FE000E091CE04F091CF0480818F7D808360E0FA
:102FF00070E0CB010E947A1661E08EE00E943E16DE
:1030000061E08EE00E94DD156BE771E08CEB94E0EF
:103010000E949F0D61E071E089E092E00E941D1323
:1030200060E08EE00E94DD150E940C16109258069A
:103030008CE38093570610924E0610924F06E9ECEF
:10304000FBE085919491E82EEBECFBE0F490ECEC46
:10305000FBE0E491E0935006EDECFBE0E491E093BB
:103060005106EEECFBE0E491E09352068C01802FD8
:103070008E198F1548F4F80164918AE496E00E9455
:10308000730E0F5F1F4FF3CF109254060E94B014BF
:103090008CE08093B80080915106803429F40E941E
:1030A000B01481E0809354068EED99E0909356061B
:1030B000809355061A8219821C821B821E821D82F1
:1030C00060915F06709160066115710541F0409155
:1030D000630650916406CE0101960E94F80C6EE2E0
:1030E00079E08CEB94E00E94F20D68E079E08CEBE3
:1030F00094E00E94F20D62EE78E08CEB94E00E9486
:10310000F20D8CEB94E00E949B0DBE016F5F7F4F30
:103110008CEB94E00E94B10D8CEB94E00E949B0D2F
:103120000E94B0148AE496E00E949B0D8AE496E027
:103130000E949B0DE5E0EE2EECE0FE2EF09256068E
:10314000E09255066BED78E08AE496E00E94CE0DA1
:103150000FEC14E010935606009355066AEC74E0E9
:103160008AE496E00E94CE0DF0925606E092550653
:1031700068EC74E08AE496E00E94CE0D1093560647
:103180000093550662EC74E08AE496E00E94F20D2A
:103190008CEB90E0909356068093550667EA70E0BA
:1031A0008AE496E00E94F20D60ED77E080E090E026
:1031B0000E947A160E94B014CE0101960E94380D2A
:1031C00061ED79E08CEB94E00E94F20D65EC79E022
:1031D0008CEB94E00E94F20D8EED99E090935606F0
:1031E0008093550669EB79E08AE496E00E94F20D3F
:1031F000F8E0CF2ED12CE12CF12C10E0BB24B394BD
:103200000C2DB092B004C092AF041092B904109289
:10321000B8048DEB95E00E942312811166C069EA23
:1032200079E08CEB94E00E94CE0D2AE0B701A60174
:103230008CEB94E00E94520D64EA79E08CEB94E010
:103240000E94CE0D6FE979E08AE496E00E94CE0DEF
:1032500020E1B701A6018CEB94E00E94520D20E121
:10326000B701A6018AE496E00E94520D6DE979E06B
:103270008CEB94E00E94CE0D6BE979E08AE496E055
:103280000E94CE0D083349F460E979E08CEB94E0BC
:103290000E94CE0D65E172E015C00C3349F464E87C
:1032A00079E08CEB94E00E94CE0D60E272E00AC0FF
:1032B0000F3361F46AE779E08CEB94E00E94CE0D65
:1032C0006CE272E08AE496E00E94CC0D8CEB94E014
:1032D0000E949B0D8AE496E00E949B0D1F5F61E0B7
:1032E00070E080E090E00E947A16FFEFCF1ADF0ACC
:1032F000EF0AFF0A28E7C216D104E104F10409F03D
:103300007FCF63E779E08CEB94E00E94CE0D6CE612
:1033100079E08AE496E00E94CE0DC12ED12CE12CFA
:10332000F12C2AE0B701A6018CEB94E00E94520D2B
:103330002AE0B701A6018AE496E00E94520D60E6F9
:1033400079E08CEB94E00E94F20D64E579E08AE488
:1033500096E00E94F20D8CEB94E00E949B0D8AE4B3
:1033600096E00E949B0D60ED77E080E090E00E9487
:103370007A1666E372E08CEB94E00E949F0D63ED99
:103380007BE08AE496E00E94CE0D8CED93E1909371
:103390003706809336068EE691E090932A06809356
:1033A00029066FEF7FEF89EC95E00E947F12409134
:1033B000390650E06091380670E080913C069091AB
:1033C0003D060E945E1580913C0690913D06DC0111
:1033D000ED91FC910284F385E02D099590933B06D5
:1033E00080933A06809139068230C0F080913C0685
:1033F00090913D06DC01ED91FC910284F385E02D76
:10340000099520E030E0382F80913A0690913B06F4
:10341000282B392B30933B0620933A0688E893E11A
:10342000909334068093330684E190E090933206C3
:10343000809331066FEC7BE08AE496E00E94F20D07
:1034400061E472E08CEB94E00E949F0D8CEB94E0C1
:103450000E949B0D6FED7BE08AE496E00E94CE0D0A
:103460008FE380935C050E940C1680915A0580932F
:103470005D0561E080915C050E941C151092BB0403
:103480008093BA04811101C0FFCF8DEB95E00E94BB
:10349000E40B80935A0500E010E0EE24E394F12C55
:1034A00020915B05C701002E01C0880F0A94EAF73E
:1034B000922F982B90935B059091590580958923C5
:1034C000809359050E9402150F5F1F4F08301105A8
:1034D00039F7809159058F77809359050E9402151D
:1034E00064E170E080E090E00E947A1680915905D6
:1034F0008E7F809359050E9402156CE472E08CEB7C
:1035000094E00E94CC0D62E572E08CEB94E00E94A6
:10351000CC0D80E090E00E94CE146EE572E08CEB62
:1035200094E00E94CC0D80E090E00E94CE1465E60D
:1035300072E08CEB94E00E949F0D64E170E080E00B
:1035400090E00E947A16809159058D7F80935905ED
:103550000E9402156CE472E08CEB94E00E94CC0DAA
:103560006EE672E08CEB94E00E94CC0D81E090E07E
:103570000E94CE146EE572E08CEB94E00E94CC0DBC
:1035800080E090E00E94CE1465E672E08CEB94E05F
:103590000E949F0D6BED7BE08AE496E00E94F20DA5
:1035A0006AE772E08CEB94E00E949F0D8CEB94E054
:1035B0000E949B0D65E872E08CEB94E00E949F0DE9
:1035C0008CEB94E00E949B0D60ED77E080E090E052
:1035D0000E947A1661E071E083EB92E00E941D1375
:1035E000412C512C320143945DE3E52E52E1F52E3E
:1035F00065E0862E6CE0962E81E0809335060E9471
:10360000B4160091250610912606209127063091C8
:103610002806AB01BC01401B510B620B730B809160
:10362000310690913206A0E0B0E084179507A60716
:10363000B70718F010923506C8C0312C80913006BB
:10364000381608F056C0C32CD12CE0912D06F0910D
:103650002E06EC0DFD1D40E0608189EC95E00E9496
:10366000C212D301C201032C04C0880F991FAA1FE4
:10367000BB1F0A94D2F798878F835C01A094B09403
:10368000212C80912F06281628F5022D10E0E091BC
:103690002B06F0912C06E00FF11F608189EC95E07C
:1036A0000E94770C0C5F1F4F000F111FF801E753AA
:1036B000FA4F892B39F4808191812F813885822BB3
:1036C000932B04C0808191818A219B2191838083E7
:1036D0002394D7CF80912D0690912E06FC01EC0DFE
:1036E000FD1D41E0608189EC95E00E94C212339497
:1036F000A5CF09EC15E0F801878D90A1892B31F455
:10370000148E8FEF9FEF968F858F11A23696A5E0CE
:10371000B6E0AE17BF0781F7D12C80912F06D816DF
:1037200070F5C12CAD2CB12CC501880F991FFC017F
:10373000EF52FA4F5F0120913006C216F0F4D50126
:103740004D915C910C2C02C0569547950A94E2F776
:10375000642F6170D29E900111242C0D311DE9EC73
:10376000F5E080E0A58DB68D2A173B0709F41FC24E
:103770008F5F36968A30B1F7FDC1D394CECFD12C6E
:10378000F80181A1882311F0DD24D3940A5F1F4F33
:10379000F6E005301F07A1F70E94B41660932506D6
:1037A000709326068093270690932806DD2009F45F
:1037B00041CF8091EA05882309F43CCF8091E80548
:1037C0009091E905019709F035CFE6EAF5E001901F
:1037D0000020E9F780915B04EB5AF54049F49091A1
:1037E0005C04911105C0811103C062EC72E010C04D
:1037F000EFE8F5E001900020E9F7E759F54091F492
:1038000090915C04992371F081110CC06EEE72E00E
:103810008CEB94E00E949F0D81E0809300018093E7
:103820005B0481C0882309F47EC086EA95E00E948B
:103830005C0E882321F181E080935E0410925A048B
:103840008093000180935C0410925B0465E171E059
:103850008AE193E00E941D13809159058160809355
:1038600059050E94021568E273E0CE0101960E949C
:103870003D0DBE016F5F7F4F84E496E027C08FE867
:1038800095E00E945C0E882341F181E080935E0404
:1038900010925A048093000110925B0465E171E07C
:1038A0008BE293E00E941D13809159058260809302
:1038B00059050E94021562E473E0CE0101960E9450
:1038C0003D0DBE016F5F7F4F8EE396E00E947B153A
:1038D000CE0101960E94380D24C088E795E00E9431
:1038E0005C0E882379F061E071E087E493E00E9448
:1038F0001D1361E071E083EF91E00E941D130E94AF
:10390000961311C081E080935D0410925A04809355
:10391000000110925B0465E171E08BE593E00E9489
:103920001D130E947F130E94B41600915F04109132
:1039300060042091610430916204DC01CB01801BA2
:10394000910BA20BB30B89389341A105B10528F067
:1039500080915A04882309F434C18091000188239E
:1039600009F405C10E94B41660935F04709360046B
:1039700080936104909362041092000180915A0434
:103980008823E9F10E94B014F0925606E0925506A1
:103990008AE496E00E949B0D90925606809255060E
:1039A0008AE496E00E949B0D6EEE7BE08AE496E04E
:1039B0000E94CE0D6BEE7BE08AE496E00E94CE0D75
:1039C00006EA15E0E6EAF5E001900020E9F7CF010C
:1039D000865A95409801265A35402817390708F02D
:1039E000C6C0D8016D918D018AE496E00E94DE0E7A
:1039F00069EE7BE08AE496E00E94CE0DE3CF8091F1
:103A00005E04882309F442C064EF71E080E090E036
:103A10000E947A16F0925606E09255060E94B01463
:103A20006AE272E18AE496E00E94F20D67E172E1D7
:103A30008AE496E00E94F20D65E072E18AE496E085
:103A40000E94F20D62EF71E18AE496E00E94F20DAD
:103A500060EE71E18AE496E00E94F20D6EEC71E195
:103A60008AE496E00E94F20D6BEB71E18AE496E045
:103A70000E94CE0D68EE73E080E090E00E947A161E
:103A800081E08093000110925E0471C080915D041A
:103A9000882309F442C064EF71E080E090E00E9466
:103AA0007A16F0925606E09255060E94B01468EA23
:103AB00071E18AE496E00E94F20D65E971E18AE421
:103AC00096E00E94F20D63E871E18AE496E00E94BC
:103AD000F20D60E771E18AE496E00E94F20D6DE577
:103AE00071E18AE496E00E94F20D6CE471E18AE4EF
:103AF00096E00E94F20D69E371E18AE496E00E948B
:103B0000CE0D68EE73E080E090E00E947A1681E0CE
:103B10008093000110925D042AC00E94B014F092BC
:103B20005606E09255068AE496E00E949B0D90921C
:103B30005606809255068AE496E00E949B0D6BEF34
:103B40007BE08AE496E00E94CE0D64E476E08AE4AD
:103B500096E00E94B10D61EF7BE08AE496E00E945E
:103B6000CE0D6EE376E08AE496E00E94B10D0E94ED
:103B7000690B42CD40FF1DC0E9ECF5E080E090E02C
:103B8000448D411118C0E0912906F0912A06E20FF8
:103B9000F31F4081B6E0B89FF001B99FF00D1124EA
:103BA000E753FA4F448F368F258F10A2178E0E944D
:103BB000C016C394C0CD019636968A30910501F7A0
:103BC000F8CF61E071E08AE693E00E941D1381E086
:103BD00080930001C2CE1092BF041092BE0488EE02
:103BE00093E0A0E0B0E08093C0049093C104A09360
:103BF000C204B093C30426E331E03093BD042093A4
:103C0000BC0425EC30E03093C9042093C80424ECB4
:103C100030E03093CB042093CA0420EC30E03093A2
:103C2000CD042093CC0421EC30E03093CF042093DA
:103C3000CE0422EC30E03093D1042093D00426EC63
:103C400030E03093D3042093D2041092D504109224
:103C5000D6041092D7041092D8041092C005109286
:103C6000BF058093C1059093C205A093C305B0938F
:103C7000C40588E491E09093BE058093BD0562E79A
:103C800073E08FE596E00E943D0D68E973E089E5F9
:103C900096E00E943D0D10924D0610924C0681E078
:103CA0008093530610925606109255068AE591E0CD
:103CB00090934B0680934A0661EA73E084E496E0B1
:103CC0000E943D0D65EA73E08EE396E00E943D0D93
:103CD0001092CB051092CF051092CE051092D00510
:103CE000E9ECF5E0148E10A2178E11A2369686E04C
:103CF000E530F807B9F782E291E090932C068093C3
:103D00002B068FE191E090932E0680932D0684E0A0
:103D100080932F0683E0809330068EE691E09093A7
:103D20002A06809329068AE090E0909332068093D9
:103D3000310684EF91E0909334068093330610921D
:103D4000370610923606109225061092260610921B
:103D50002706109228061092350688E691E0909387
:103D6000CA058093C90588E38093380681E0809373
:103D700039068DEB95E090933D0680933C068CEAE6
:103D800093E09093BC058093BB051092BA05109206
:103D9000A60581EB93E09093A5058093A40510926E
:103DA000A30510928F0589EB93E090938E05809385
:103DB0008D0510928C05109278051092590510927D
:103DC0005A0510925B0510925C0510925D051092E9
:103DD0005E0510925F0510926005109261051092C9
:103DE00062051092630510926405109265051092A9
:103DF0006605109267051092690510926805109289
:103E00006B0510926A0510926D0510926C05109268
:103E10006F0510926E051092710510927005109248
:103E20007305109272051092750510927405109228
:103E300077051092760508952F923F924F925F92E8
:103E40006F927F928F929F92AF92BF92CF92DF92AA
:103E5000EF92FF920F931F93CF93DF93CDB7DEB70F
:103E6000CA1BDB0B0FB6F894DEBF0FBECDBF0994A3
:103E70002A88398848885F846E847D848C849B84FA
:103E8000AA84B984C884DF80EE80FD800C811B8108
:103E9000AA81B981CE0FD11D0FB6F894DEBF0FBE37
:103EA000CDBFED010895A1E21A2EAA1BBB1BFD0197
:103EB0000DC0AA1FBB1FEE1FFF1FA217B307E40709
:103EC000F50720F0A21BB30BE40BF50B661F771F61
:103ED000881F991F1A9469F7609570958095909541
:103EE0009B01AC01BD01CF010895EE0FFF1F0590AE
:103EF000F491E02D09940F931F93CF93DF938230B9
:103F0000910510F482E090E0E0916806F091690676
:103F100020E030E0A0E0B0E0309719F1408151811D
:103F20000281138148175907C8F08417950769F46F
:103F3000109731F012960C93129713961C9327C08A
:103F4000009368061093690622C02115310519F007
:103F50004217530718F49A01BD01EF01DF01F80180
:103F6000DBCF21153105F9F0281B390B2430310541
:103F700080F48A819B816115710521F0FB01938397
:103F8000828304C09093690680936806FE0132968E
:103F900044C0FE01E20FF31F819391932250310937
:103FA000398328833AC02091660630916706232B17
:103FB00041F4209128013091290130936706209324
:103FC000660620912601309127012115310541F423
:103FD0002DB73EB740912A0150912B01241B350B80
:103FE000E0916606F0916706E217F307A0F42E1B36
:103FF0003F0B2817390778F0AC014E5F5F4F24174D
:10400000350748F04E0F5F1F5093670640936606D2
:104010008193919302C0E0E0F0E0CF01DF91CF9176
:104020001F910F910895CF93DF93009709F481C0FA
:10403000FC01329713821282A0916806B091690642
:10404000109781F420813181820F931F20916606A1
:10405000309167062817390751F5F0936706E0930A
:10406000660667C0ED0120E030E0CE17DF0740F4C0
:104070004A815B819E0141155105F1F0EA01F5CFBE
:10408000D383C28340815181840F951FC817D907FC
:1040900059F488819981840F951F029691838083BA
:1040A0008A819B81938382832115310529F4F093C2
:1040B0006906E09368063DC0E901FB83EA83499104
:1040C0005991C40FD51FEC17FD0761F480819181D0
:1040D000840F951F0296E9019983888382819381D9
:1040E0009B838A83E0E0F0E012968D919C91139778
:1040F000009719F0FD01DC01F7CF8D919C9111978C
:104100009D012E5F3F4F820F931F209166063091D5
:1041100067062817390769F4309729F41092690661
:104120001092680602C013821282B0936706A093B1
:104130006606DF91CF910895A0E0B0E0E2EAF0E2F8
:104140000C94201FEC01009721F4CB010E947B1FEF
:10415000B4C0FC01E60FF71F9C0122503109E217A1
:10416000F30708F4A8C0D9010D911C911197061707
:104170001707B0F00530110508F49BC0C80104977B
:104180008617970708F495C002501109061B170BF4
:10419000019311936D937C93CF010E94132089C0EA
:1041A0005B01A01AB10A4C01800E911EA091680615
:1041B000B0916906612C712CE12CF12C109709F457
:1041C00046C08D919C911197A815B905B1F56C0168
:1041D00042E0C40ED11CCA14DB0478F14C018A18E9
:1041E0009B08640142E0C40ED11C1296BC90129749
:1041F0001396AC91B5E0CB16D10440F0B282A38304
:1042000091828082D9016D937C9309C00E5F1F4F0C
:10421000800F911FF90191838083EB2DFA2FE11418
:10422000F10431F0D7011396FC93EE93129741C03D
:10423000F0936906E09368063CC06816790608F4B6
:104240003C017D0112960D90BC91A02DB7CF8091BD
:1042500066069091670688169906E1F46616770659
:10426000C8F48091260190912701009741F48DB701
:104270009EB740912A0150912B01841B950BE817A2
:10428000F907C8F4F0936706E0936606F9017183B5
:1042900060830FC0CB010E947B1F7C01009759F007
:1042A000A801BE010E946721CE010E941320C70110
:1042B00004C0CE0102C080E090E0CDB7DEB7EEE0F2
:1042C0000C943C1F81E090E0F8940C947721FB0162
:1042D000DC0102C001900D9241505040D8F7089582
:1042E000FB01DC0101900D920020E1F708951AE036
:1042F000CBE3DAE004C0FE010E94751F2196CC33A7
:08430000D107C9F7F894FFCFC3
:104308000173797374656D000000007570646174E1
:104318006500000000726573756C7400000000028F
:1043280000040106050300006A0620006B006C000B
:104338006D0000000000FA0A670A910A470BC20ADA
:10434800A00AB40A000000002D0C000C5D0CD40B70
:10435800F80BE40BD50B00000000DE0E670A5D0CBD
:10436800660ADF12000000005C0CC212770C3132C2
:10437800333435363738392A30230D0A0021003ACC
:10438800202C2000202C20446F6E652E0070617355
:1043980073776F7264207265736574746564004E18
:1043A8006575737461727420696E005072657373F9
:1043B80065643A2000202D3E20436F64653A200052
:1043C8002320676564727565636B74202D20636CA8
:1043D8006561726564002A20676564727565636B40
:1043E80074202D20636C656172656400484F4C44ED
:1043F8003A20005245535441525420636F6465205B
:10440800696E7365727465640053657475702042D3
:104418006567696E00202D3E204B657970616400E8
:10442800202D3E20446973706C617900202D3E2058
:1044380052656C6179004F4C45443A2020206F6BDF
:10444800004B65797061643A206F6B002020202052
:1044580020004C696368742050696E205B005D2001
:1044680061756620002067657A6F67656E00547510
:104478006572202050696E205B0052656C61793A44
:1044880020206F6B003D3D3D3D3D3D3D3D3D3D3D6B
:104498003D3D3D3D3D3D3D3D53544152543D3D3DE7
:1044A8003D3D3D3D3D3D3D3D3D3D3D3D3D3D3D3D34
:1044B8003D3D00536574757020436F6D706C657475
:1044C800650034205A65696368656E2065696E67A2
:1044D80065626562656E202D207565626572707211
:1044E800756566652050617373776F727400372045
:1044F8005A65696368656E2065696E67656265629D
:10450800656E202D207565626572707275656665C9
:104518002050617373776F727400436F72726563B2
:1045280074204C69676874204F4E00436F7272653F
:104538006374204578697420446F6F72204F7065EA
:104548006E004F50454E00524553455420636F64EA
:104558006520696E7365727465640057726F6E6763
:104568002070617373776F72640072656672657329
:1045780068004B4F4D504153532D20554E44205405
:104588005545522D4B45595041442D5241455453A0
:10459800454C2076312E350042724B657970616446
:1045A800004F4646004C4F434B45440031373038A6
:1045B8000038313938343233003230313632303124
:0245C8003600BB
:00000001FF
