:100000000C94380A0C94600A0C94600A0C94040C4A
:100010000C94DF0B0C94BA0B0C94600A0C94600ADD
:100020000C94600A0C94600A0C94600A0C94600AA8
:100030000C94600A0C94600A0C94600A0C94600A98
:100040000C94C2170C94600A0C9444130C941E1365
:100050000C94600A0C94600A0C94600A0C94600A78
:100060000C94290C0C94600AAED580A83FD30040B4
:100070008D142002A1C8DA12817FD9F1DB40A4A639
:10008000AF202020202020202020454E47494E45EB
:100090004552494E470014400A0B206002020306F5
:1000A0000608070103030406020301050505060609
:1000B0000506050505060203050506040A070605EB
:1000C00006050507060204050409070705070605D6
:1000D00005070509060506030303040502050504D3
:1000E00005050405050203040209050505050305C8
:1000F00003050408050505030304050600000000C8
:10010000601E2000080608000000C8784EC8784E1F
:10011000200000200000800C1222C3040060202078
:1001200000000C92522CD02824C220000000002095
:100130002000C0201C32CAC4200020202000002043
:100140000800E01C0260800000827C80600014389F
:100150000E14000000002020E038202000000000E5
:10016000000000008060202020000000002080604F
:100170001806012000000000F00C02C23C00202004
:1001800000000004E21E00202020202000804422E5
:10019000120C20202020200080001412F20C0020DD
:1001A00020200000605048E45E000000200080181D
:1001B0001612E202002020200000E01814926200D3
:1001C0002020000002C2320A062000000000E01CCD
:1001D00012F20C0020200000001824A2621C202033
:1001E000200000000008200000000880600020506F
:1001F0005050880000000000505050505000000047
:100200000000808850505020000000000000621262
:10021000120C20000000E0180424524A7A4A221CE2
:100220000020404040404000000000C0704C427C34
:10023000C020000000000020E01E121212EC20205E
:1002400020202000F00C0202820020202000E01E6E
:100250000202C23C202020200000E01E12121220C8
:1002600020202020E01E1212122000000000F00CBE
:10027000020212D23400202020200000E01E1010C4
:10028000F01E200000002000E01E20000000E01E04
:1002900020200000E01E30C8042000000020E01EE6
:1002A000000020202020E01E0678806018E61E2036
:1002B0000000002000002000E01E0C30C0E01E20E6
:1002C000000000002000F00C020202C23C002020CE
:1002D00020200000E03E22221C2000000000F00C44
:1002E000020202C23C00202020202040E01E1232E8
:1002F000D20C200000002000800C1222C20020201E
:10030000200002E21E02020020000000E01E0000A9
:1003100000E01E00202020200000FE8060100C2045
:10032000000000003EC060180EF040300C002000BD
:1003300000002000000000804678880420000000B3
:10034000200006D82018040020000000804222125D
:100350000A06202020202000C03E02E0800007F88E
:10036000000000E000C23E80E000100C021C000013
:1003700000000000000000808080808001020000FA
:10038000E01008C8380020202000C03E08887020F7
:1003900020200000E010088800202000E01008C89D
:1003A0003E0020202000E0302828100020202000DF
:1003B0000088780C80600000E01008C83880A0A099
:1003C0006000C03E08C8302000002000C03A200075
:1003D00000C03A806000C03EE01020000020C03E17
:1003E0002000C0381008C83008C8302000000020A5
:1003F00000002000C03808C8302000002000E010B5
:100400000888700020200000C038088870E0202094
:100410000000E01008C838002020E000C0380820A4
:100420000000001028C8082020200000C83C080058
:100430002020C03800C0380020202000F880403044
:1004400020000000F8806010F8804030200000009C
:1004500020000000008870E010200000002000F85C
:1004600000C030804020000000884828182020204C
:10047000202020E01E00E08000F00EE0000000C21E
:100480003E208060000010080810100000000000EE
:10049000FE025A0A02FE2020202020205343415011
:1004A0004500450045414D200014610A0B206002C3
:1004B00002030605080801030305050203020505FA
:1004C0000605050605050505050202050505050ADB
:1004D00006060507050507070203060409070705C1
:1004E0000806050607060A060605030503050602B3
:1004F00005050405050306050202050208050505B4
:1005000005030403050508050504030104050600A9
:10051000000000BEBE20200E000E00000048E85E75
:10052000E85E480020002000009C3E33F2E40020FA
:100530006020000C128C6018C620C0000020000053
:10054000002000C0EC3E327ECCE0000020202020C5
:100550000020200E00F0FC060060C006FCF0C06029
:1005600000120C3F0C1200000000002020F8202098
:1005700000000000008080E060202020000000805B
:100580008020200080700C03C020000000FCFE02D0
:10059000FEFC00202020000804FEFE000020202099
:1005A00020202084C2623E1C2020202020841212A1
:1005B000FEEC0020202000605846FEFE40000000B7
:1005C0002020001E1E12F2E22020202000FCFE123D
:1005D000F2E2002020200002C2FA3E0600202000A5
:1005E00000ECFE12FEEC00202020001C3E22FEFC4F
:1005F0002020202000989820209898E060205050DB
:10060000888800000000005050505050000000004A
:10061000008888505020000000000002B2B21E0C7A
:100620000020200000F00864928A4AF29A84780040
:10063000204040404040000000E0F84E4EF8E020EE
:100640002000002020FEFE1212FEEC2020202020A0
:1006500000FCFE0202840020202000FEFE02028632
:10066000FC7820202020200000FEFE121212202004
:10067000202020FEFE1212122020000000FCFE02AC
:100680000222E2E400202020202000FEFE101010B4
:10069000FEFE20200000002020FEFE202000FEFEA6
:1006A000202000FEFE30FCCE02202000002020FE94
:1006B000FE000020202020FEFE1C70C0701CFEFEEC
:1006C000202000002000002020FEFE0C30C0FEFE96
:1006D00020200000002020FCFE020202FEFC002080
:1006E0002020202000FEFE223E1C2020000000FCD6
:1006F000FE020202FEFC000020202020204040FEDE
:10070000FE1232FECC2020000020209C3E32F2E47B
:1007100000202020000202FEFE0202000020200035
:1007200000FEFE000000FEFE002020202020000E23
:100730007EE0E07E0E000020200000063EF8C03E75
:100740003EC0F83E06000020200000202000008669
:10075000CE7878CE86202000002020061EF8F81ED5
:100760000600002020000082E27A1E0620202020C1
:1007700020FEFE02E0E080030C70800000000020FC
:10078000C002FEFE80E0E0100C020C100000000031
:100790000000000000000080808080808001020056
:1007A00000C8E828F8F00020202020FEFE08F8F01D
:1007B0002020202000F0F8080800202020F0F80871
:1007C000FEFE0020202020F0F828383000202020D5
:1007D00020FCFE0A202000B0F848783808C0E0A0CD
:1007E000E06000FEFE08F8F02020002020FBFB2047
:1007F00020FBFBE060FEFE60F8982020002020FE39
:10080000FE2020F8F808F8F008F8F020200020205A
:10081000002020F8F808F8F02020002020F0F80848
:10082000F8F00020202000F8F808F8F0E0E02020A0
:1008300000F0F808F8F8002020E0E0F8F8082020A0
:10084000003078E8C820202000FCFC08002020F8B8
:10085000F800F8F8002020202038F880F838002030
:1008600020200038F8C03838C0F8380020200000B8
:1008700020200098F860F898202000202038F88088
:10088000F83800C0E0200088E8781820202020FCFC
:10089000DE0260E080FEE002DEFC2080E06000100E
:1008A000081810080000000000FE026A3A02FE204C
:1008B00020202020202020202020540022080D0E5F
:1008C0002060040205060708090203030508020464
:1008D00002040704070707070707070702020707BD
:1008E00007080E0908080807070908020708070B88
:1008F0000809070909070808090D0708080404047E
:100900000608030707060707050707020306020A8A
:100910000707070705060507070B06070505010575
:1009200007080000000000000000FEFE18181E1E50
:10093000001E1E000000000090F89E90F89E1C0013
:10094000001C0000183C26FF66CC88040C183C18DC
:100950000C041C221CC0308E408000001804000CC7
:10096000100C80CC7E72F2DE0C80000C1C1010107B
:100970001C0C1C101E1E0000F0FC061C7CC006FC9B
:10098000F0C07C1C14140E14140000000000606001
:1009900060FCFC6060600000000C0C0000000000C7
:1009A0005838C0C0C0C0000000000000181800C0C7
:1009B000380618040000F8FC0E060EFCF8040C1CA7
:1009C000181C0C04180CFEFE00001C1C181C86C60B
:1009D000663E1C181C1C18181818888C062626FE43
:1009E000DC040C1C18180C04C0E0B88CFEFE80045B
:1009F0000404041C1C04707E3E3636F6C60C1C181B
:100A000018180C04F8FC6E6666EECC040C18181866
:100A10001C0C060606E6761E0600001C1C000000E4
:100A20009CFE666666FE9C0C1C1818181C0C3C7E0E
:100A3000666666FCF80C1C18181C0C0418181818AC
:100A4000181858386060F0F098980C000000000406
:100A5000040CD8D8D8D8D8D8D8000000000000009E
:100A60000C9898F0F060600C040400000000080C82
:100A700006C6E6763C180000001818000000E030BA
:100A800008C4F63A1A1AF2FA7E0408F00C30604CE8
:100A90009C98988C9C9C90484C2000C0F8BE86BEC8
:100AA000F8C000181C04040404041C18FEFE66664A
:100AB0006666FEDC1C1C181818181C0CF8FC0E06C8
:100AC000060E9C08040C1C18181C0C04FEFE0606DE
:100AD000060EFCF81C1C1818181C0C04FEFE66669A
:100AE0006666661C1C1818181818FEFE6666666690
:100AF000061C1C0000000000F8FC0E0606C6CEDC3A
:100B0000C8040C1C181818180C04FEFE6060606005
:100B1000FEFE1C1C000000001C1CFEFE1C1C808035
:100B2000000000FEFE0C1C1818181C0CFEFE6030A5
:100B300078EC86021C1C000000041C18FEFE00005D
:100B40000000001C1C1818181818FEFE0E7CE0008F
:100B5000E07C0EFEFE1C1C00000C1C0C00001C1C8B
:100B6000FEFE1C78E080FEFE1C1C0000040C1C1C19
:100B7000F8FC0E0606060EFCF8040C1C1818181CCF
:100B80000C04FEFE6666667E3C1C1C000000000035
:100B9000F8FC0E0686060EFCF8040C1C18181C0C3B
:100BA0001C24FEFE6666E6E6BE1C001C1C0000005F
:100BB0000C1C18103C7E666666EECC0C1C181818CF
:100BC0001C0C060606FEFE0606060000001C1C00A5
:100BD0000000FEFE00000000FEFE040C1C18181CA5
:100BE0000C04021EFCE000E0FC1E020000001C1CC5
:100BF0001C00000006FEF800F0FE0EFEF000F8FEFD
:100C00000600001C1C1C0000001C1C1C0000060E22
:100C1000F8F0F80E06181C0400041C18060E38F034
:100C2000F0380E060000001C1C000000060686E6D8
:100C3000761E0E06181C1C1818181818FEFE06063C
:100C4000FCFCC0C00638C000000004180606FEFE0A
:100C5000C0C0FCFC20380E0E382000000000000050
:100C60000000000000000000808080808080808084
:100C70000206040000001098D858F8F0000C1C1868
:100C8000180C1C10FEFE301838F0E01C1C0C181C50
:100C90000C04E0F018183830040C18181C0CE0F0A4
:100CA000381830FEFE040C1C180C1C1CE0F0D8D8C0
:100CB000D8F0E0040C181818180818FCFE1A1A00CE
:100CC0001C1C0000E0F0381830F8F864ECDCD8CCDC
:100CD000FC7CFEFE301818F8F01C1C0000001C1CE8
:100CE000FAFA1C1C00FAFAC0FC7CFEFEE0F0980840
:100CF0001C1C00041C18FEFE1C1CF8F81018F8F050
:100D00001818F8F01C1C00001C1C00001C1CF8F833
:100D1000301818F8F01C1C0000001C1CE0F03818FB
:100D200038F0E0040C1C181C0C04F8F8301838F0EB
:100D3000E0FCFC0C181C0C04E0F0381830F8F80447
:100D40000C1C180CFCFCF8F83018181C1C000000D7
:100D500070F8D8D8D890081818181C0C18FCFE1871
:100D600018000C1C1818F8F8000000F8F80C1C18F3
:100D7000180C1C1C38F8C000C0F83800001C1C1CE3
:100D8000000018F8E000F038F000E0F81800001C4F
:100D90001C0C000C1C1C00001838E0E03818181C53
:100DA00004041C1818F8E000E0F8180084FCF83C73
:100DB00004001898D878381C1C18181880FC7E0677
:100DC00006007CFCC0C0FEFC06067EFC80C0C0FCA9
:100DD0007C00603030706060300000000000000077
:100DE000FE020202020202FE1C1010101010101C63
:100DF0002B2D2D2D2D2D2D2D2D2D2D2D2D2D2D2D25
:100E00002D2D2D2D2D2D2D2D2D2D2D2D2D2D2D2D12
:100E10002D2D2D2D2B007C202020205465616D452B
:100E20007363617065204848265320454E47494EFC
:100E3000454552494E47202020207C002B2D2D2D4A
:100E40002D2D2D2D2D2D2D2D2D2D2D2D2D2D2D2DD2
:100E50002D2D2D2D2D2D2D2D2D2D2D2D2D2D2D2DC2
:100E60002B00206465766963652873292E00206451
:100E700065766963652873292E00466F756E642058
:100E800000466F756E642000202D3E2052656C6117
:100E90007900202D3E20446973706C617900202D0B
:100EA0003E20427574746F6E73002900290020285B
:100EB0003078002028307800466F756E64206164B9
:100EC00064726573733A2000493243205363616E44
:100ED0002E2E2E005363616E6E696E672E2E2E00CD
:100EE000493243207363616E6E65723A00000005FB
:100EF000072061000000000000005F000000070004
:100F00000700147F147F14242A7F2A1223130864F5
:100F10006236495522500005030000001C224100A2
:100F20000041221C00082A1C2A0808083E08080064
:100F30005030000008080808080060600000201019
:100F40000804023E5149453E00427F400042615143
:100F500049462141454B311814127F10274545451C
:100F6000393C4A4949300171090503364949493636
:100F7000064949291E00363600000056360000009A
:100F800008142241141414141441221408000201FC
:100F9000510906324979413E7E1111117E7F49493E
:100FA00049363E414141227F4141221C7F49494906
:100FB000417F090901013E414151327F0808087F04
:100FC00000417F41002040413F017F081422417FC2
:100FD000404040407F0204027F7F0408107F3E4172
:100FE00041413E7F090909063E4151215E7F0919B1
:100FF0002946464949493101017F01013F404040AE
:101000003F1F2040201F7F2018207F631408146397
:101010000304780403615149454300007F414102C4
:101020000408102041417F000004020102044040F6
:10103000404040000102040020545454787F48444A
:1010400044383844444420384444487F3854545445
:1010500018087E090102081454543C7F08040478DF
:1010600000447D40002040443D00007F10284400A3
:10107000417F40007C041804787C080404783844DC
:101080004444387C14141408081414187C7C080494
:1010900004084854545420043F4440203C4040201D
:1010A0007C1C2040201C3C4030403C4428102844FC
:1010B0000C5050503C4464544C44000836410000ED
:1010C000007F0000004136080008082A1C08081CA0
:1010D0002A080800060909066800198040006F6B9D
:1010E0002E004B657970616420006F6B2E0045788F
:1010F00070616E64657220002000202000202000B6
:1011000020204D61676E65743A2000202020202049
:1011100020272E5F5F5F5F5F2E272020200020208A
:101120002020205C20202F2020205C20202F002049
:101130002020207C202020205F5F5F202020207C3A
:101140002000202020207C20202020202020202063
:1011500020207C200020202020202F20206F2020F5
:10116000206F20205C20002020202020202E2720FF
:1011700020202020272E202020002020202020207A
:1011800020205F5F5F5F5F2020202020004E65757C
:10119000737461727420696E002020202020202743
:1011A0002E5F5F5F5F5F2E27202020002020202001
:1011B000205C2020272D2D2D2720202F20002020CF
:1011C00020207C20205C20202020202F20207C003C
:1011D000202020207C2020202020202020202020B3
:1011E0007C200020202020202F20206F2020206F16
:1011F00020205C20002020202020202E27202020BE
:101200002020272E202020002020202020202020E9
:101210005F5F5F5F5F202020202000000005072027
:1012200060000000000000005F00000007000700F1
:10123000147F147F14242A7F2A1223130864623631
:10124000495620500008070300001C2241000041BD
:10125000221C002A1C7F1C2A08083E0808008070F7
:10126000300008080808080000606000201008042A
:10127000023E5149453E00427F400072494949467D
:101280002141494D331814127F1027454545393CFB
:101290004A494931412111090736494949364649E8
:1012A00049291E000014000000403400000008140A
:1012B0002241141414141400412214080201590983
:1012C000063E415D594E7C1211127C7F49494936D8
:1012D0003E414141227F4141413E7F494949417F51
:1012E000090909013E414151737F0808087F004107
:1012F0007F41002040413F017F081422417F404050
:1013000040407F021C027F7F0408107F3E41414124
:101310003E7F090909063E4151215E7F0919294690
:10132000264949493203017F01033F4040403F1FA6
:101330002040201F3F4038403F63140814630304DB
:101340007804036159494D43007F4141410204083B
:101350001020004141417F0402010204404040400E
:1013600040000307080020545478407F2844443844
:101370003844444428384444287F3854545418008E
:10138000087E090218A4A49C787F0804047800440D
:101390007D40002040403D007F1028440000417FF8
:1013A00040007C047804787C080404783844444481
:1013B00038FC1824241818242418FC7C0804040879
:1013C000485454542404043F44243C4040207C1C92
:1013D0002040201C3C4030403C44281028444C9085
:1013E00090907C4464544C440008364100000077DF
:1013F0000000004136080002010204023C262326B8
:101400003C00030C0F30333C3FC0C3CCCFF0F3FCA7
:10141000FF00000000230026002900000000002437
:101420000027002A0000000000250028002B0004EF
:10143000040404040404040202020202020303037B
:101440000303030102040810204080010204081075
:101450002001020408102000000008000201000022
:10146000030407000000000000000000631D511D80
:1014700011241FBECFEFD8E0DEBFCDBF25E0A6EE22
:10148000B2E001C01D92AC37B207E1F712E0A0E074
:10149000B1E0E6E5F1E402C005900D92A63EB10789
:1014A000D9F71AE0C7E3DAE004C02197FE010E94F1
:1014B0009C1EC633D107C9F70E940C180C949E20BD
:1014C0000C9400008091D90390E02091DA03821BF4
:1014D0009109089590E0FC01EE0FFF1FEB5EFB4EBB
:1014E000A591B4912C91FC01E757FC4F30812083EA
:1014F000880F991FFC01E65DFE4F0190F081E02D01
:101500008081089585ED8093BC008091BC0084FDAE
:10151000FCCF1092D603089540913603262F30E079
:10152000240F311D21323105DCF42091D603243003
:10153000C9F4FC0180E090E0861758F4309136033E
:101540002191DC01AA5EBC4FA30FB11D2C93019623
:10155000F3CF80913603680F6093360380E00895DF
:1015600081E0089582E00895089508950895E09136
:10157000DA038091D903E81730F4F0E0E457FC4F28
:10158000808190E008958FEF9FEF08959091DA03A6
:101590008091D903981750F4E92FF0E0E457FC4FFD
:1015A000208130E09F5F9093DA0302C02FEF3FEF7E
:1015B000C9010895CF92DF92EF92FF920F931F938C
:1015C000CF93DF937C01CB018A012091E702222394
:1015D00089F0EB016B01C40ED51ECC15DD0569F059
:1015E0006991D701ED91FC910190F081E02DC70147
:1015F0000995F3CF642F0E948C0AC801DF91CF9127
:101600001F910F91FF90EF90DF90CF900895CF93AF
:10161000DF931F92CDB7DEB769832091E7022223C3
:10162000D1F02091D703203240F021E030E0FC01DE
:101630003383228380E090E015C08091D803E82FA7
:10164000F0E0EA50FD4F998190838F5F8093D8033B
:101650008093D70305C061E0CE0101960E948C0AF9
:1016600081E090E00F90DF91CF910895089580E0A0
:1016700090E00895CF93DF93EC019C818E819817C1
:1016800058F4E881F9810084F185E02D42E0CE0133
:1016900009958C818F5F8C83DF91CF910895DC0158
:1016A000ED91FC910084F185E02D40E00994FC016E
:1016B0002781269526952695621720F46583606B11
:1016C0000C944F0B0895CF92DF92EF92FF920F93FD
:1016D0001F93CF93DF93EC01162FC42ED22E8F8150
:1016E000869586958695081710F00FEF080FFD2C4C
:1016F0008E810F15A8F0181720F4612FCE010E94DB
:10170000D6136F2DCE010E94570BE12ECE1430F070
:1017100060E0CE010E943A0BE394F8CFF394E8CF57
:10172000181720F4612FCE010E94D6136D2DCE0123
:10173000DF91CF911F910F91FF90EF90DF90CF90AD
:101740000C94570BCF93DF93EC0189818C8361E07C
:101750008B810E94FC151092DA038093D9038111CA
:1017600001C0FFCF8DEC94E00E94C60A8983DF910F
:10177000CF9108951F920F920FB60F9211242F93BD
:101780003F934F935F936F937F938F939F93AF9309
:10179000BF93EF93FF9382E00E946A0AFF91EF915B
:1017A000BF91AF919F918F917F916F915F914F9179
:1017B0003F912F910F900FBE0F901F9018951F9281
:1017C0000F920FB60F9211242F933F934F935F9375
:1017D0006F937F938F939F93AF93BF93EF93FF93F9
:1017E00081E00E946A0AFF91EF91BF91AF919F91B2
:1017F0008F917F916F915F914F913F912F910F90BA
:101800000FBE0F901F9018951F920F920FB60F9258
:1018100011242F933F934F935F936F937F938F93F5
:101820009F93AF93BF93EF93FF9380E00E946A0A68
:10183000FF91EF91BF91AF919F918F917F916F91A8
:101840005F914F913F912F910F900FBE0F901F907E
:1018500018951F920F920FB60F9211242F933F935A
:101860004F935F936F937F938F939F93AF93BF93A8
:10187000EF93FF938091B900887F803609F49CC074
:1018800068F5883209F45BC090F4803109F454C0E3
:1018900038F4882309F4F6C0883009F44DC0F6C046
:1018A000883109F44CC0803209F45DC0EFC0803447
:1018B00009F468C048F4803309F455C0883309F04E
:1018C000E5C08093CF03D8C0803509F44FC0883578
:1018D00009F45DC0883409F0D9C0D6C0883909F44C
:1018E000C7C0A8F4883709F467C038F4883609F40B
:1018F00063C0803709F460C0C9C0883809F4B8C033
:10190000803909F45FC0803809F0C0C05BC0803BFB
:1019100009F486C038F4803A09F466C0883A09F4BC
:101920007FC0B4C0803C09F4A7C0883C09F4A4C0BF
:10193000883B09F48AC0AAC08091CC0310C0909162
:10194000CE038091CD03981770F5E091CE0381E02E
:101950008E0F8093CE03F0E0E455FC4F808180939E
:10196000BB0085EC86C08093CF038EC0E091CE0390
:1019700081E08E0F8093CE038091BB00F0E0E455B0
:10198000FC4F80839091CE038091CD036EC0E09197
:10199000CE0381E08E0F8093CE038091BB00F0E0F8
:1019A000E455FC4F80838091D50381116DC081E0A7
:1019B0008093D40384EA61C083E08093D6031092BD
:1019C0005803CFCF80915803803208F051C0E09186
:1019D000580381E08E0F809358038091BB00F0E0A4
:1019E000E85CFC4F8083BDCF85EC8093BC001092F7
:1019F000D60380915803803230F4E0915803F0E030
:101A0000E85CFC4F10826091580370E0E091D003D5
:101A1000F091D10388E393E009951092580336C002
:101A200084E08093D6031092370310923603E0913E
:101A3000D203F091D303099580913603811105C03B
:101A400081E08093360310921603E091370381E022
:101A50008E0F80933703F0E0EA5EFC4F8081809325
:101A6000BB009091370380913603981708F479CF23
:101A700085E88093BC000AC085EC8093BC0010927E
:101A8000D60304C01092CF030E94820AFF91EF9107
:101A9000BF91AF919F918F917F916F915F914F9186
:101AA0003F912F910F900FBE0F901F90189530917E
:101AB000D703313208F04BC08091D6038111FCCF9F
:101AC0009091E60222E02093D60321E02093D503F3
:101AD0002FEF2093CF031092CE033093CD03E6EF88
:101AE000F2E0ACEAB3E020E0321721F041914D93EF
:101AF0002F5FFACF1092CC032091CC03990F922B39
:101B00009093CC039091D403913061F41092D4035C
:101B10009091CC039093BB009091BC0093FDF8CFC3
:101B200095EC01C095EE9093BC009091D603923055
:101B3000E1F39091CF039F3F79F08091CF03803202
:101B400041F08091CF03803331F084E005C081E023
:101B500003C082E001C083E01092D8031092D70343
:101B60001092E7020895FC019181628180812381B6
:101B700031E03093E7022093E6021092D8031092EE
:101B8000D70360956923682B8DEC94E00E94070BC6
:101B90008DEC94E00C94570D0F931F93CF93DF932C
:101BA000EC01062F142F8E85813120F4882339F023
:101BB000411105C08DEC94E00E94570D1E868E8564
:101BC000811113C08D8591E09093E7028093E60226
:101BD0001092D8031092D703112311F060E401C0D2
:101BE00060E08DEC94E00E94070B602F8DEC94E098
:101BF0000E94070B123021F48E858F5F8E8705C0FF
:101C00008DEC94E00E94570D1E86DF91CF911F91BD
:101C10000F9108950F931F93CF93DF93EC018B01E6
:101C200061E08EE00E9484168BED93E00E94B51275
:101C30006FE472E08BED93E00E94E612E3E6F5E0DC
:101C400044815581608171818BED93E00E94731016
:101C500061E572E08BED93E00E94E6124091F402A0
:101C60005091F50260E070E02AE08BED93E00E9475
:101C70006C1262E572E08BED93E00E94E612B8010F
:101C80008BED93E00E94E61262E572E08BED93E04B
:101C90000E94E612BE018BED93E00E94E61266E51B
:101CA00072E08BED93E00E94B9128091F402909162
:101CB000F50201969093F5028093F40262E370E0DE
:101CC00080E090E00E94211760E08EE0DF91CF91EC
:101CD0001F910F910C948416CF93C82F8091F80414
:101CE0009091F9048130910561F00297D1F569E690
:101CF00072E08BED93E00E94E6128C2FCF910C9452
:101D00004A166FE572E08BED93E00E94E6128C2F8D
:101D10000E944A1681E08093EA02809300010E94AB
:101D20005B176093EB027093EC028093ED0290934B
:101D3000EE02E091CA04E33169F081E08E0F8093F6
:101D4000CA04F0E0EA54FB4FC083E82FF0E0EA5405
:101D5000FB4F10826BE071E086EB94E0CF910C9426
:101D60000A0ECF910895CF92DF92EF92FF920F93D8
:101D70001F93CF93DF930E945B170091F0021091A5
:101D8000F1022091F2023091F302DC01CB01801BC1
:101D9000910BA20BB30B89389341A105B10528F033
:101DA0008091EA02882309F48AC180910001882386
:101DB00009F48FC10E945B176093F0027093F102E7
:101DC0008093F2029093F302109200018091EA0254
:101DD000882309F43FC00E94DE158BE192E19093C5
:101DE000600580935F0584E595E00E94B5128CEB59
:101DF00098E09093600580935F0584E595E00E94EC
:101E0000B5126DEF70E184E595E00E94E8126AEF8B
:101E100070E184E595E00E94E812C6EBD4E08E0103
:101E2000F80101900020E9F7CF01865B94409E0104
:101E3000265B34402817390708F04BC1699184E5C7
:101E400095E00E94EE1368EF70E184E595E00E9452
:101E5000E812E6CF8091E802882309F4BDC08BE147
:101E600092E19093600580935F050E94DE1568E023
:101E700072E184E595E00E940C1365EF71E184E561
:101E800095E00E940C1363EE71E184E595E00E94F9
:101E90000C1360ED71E184E595E00E940C136EEB8C
:101EA00071E184E595E00E940C136CEA71E184E530
:101EB00095E00E940C1369E971E184E595E00E94C8
:101EC000E81268EE73E080E090E00E94211781E064
:101ED000809300011092E80261E071E080E792E0F7
:101EE0000E940A0E61E071E086E892E00E940A0E0C
:101EF0006EE872E08BED93E00E94B912C12CD12CF8
:101F0000C1E0D0E0809199047E010C2C01C0EE0C60
:101F10000A94EAF78E2980939904809197049E2D64
:101F2000909589238093970487E994E00E94B30DEC
:101F300080919704E82AE092970487E994E00E9450
:101F4000B30D8FEFC81AD80A28E0C216D104D1F613
:101F50006EE972E08BED93E00E94B9126DE871E1D9
:101F60008BED93E00E940C130E94DE1563EA72E091
:101F700084E595E00E94B9126AEF70E080E090E09D
:101F80000E94211783E0C82ED12CE12CF12C2AE0ED
:101F9000B701A6018BED93E00E946C128BED93E0EC
:101FA0000E94B5122AE0B701A60184E595E00E94DF
:101FB0006C1284E595E00E94B51268EE73E080E053
:101FC00090E00E94211781E0C81AD108E108F108C9
:101FD000F1F60C9400007DC08091E902882309F499
:101FE00044C064EF71E080E090E00E9421178BE133
:101FF00092E19093600580935F050E94DE156AE789
:1020000071E184E595E00E940C1367E671E184E5D7
:1020100095E00E940C1365E571E184E595E00E946E
:102020000C1362E471E184E595E00E940C136FE209
:1020300071E184E595E00E940C136EE171E184E5A5
:1020400095E00E940C136BE071E184E595E00E943D
:10205000E81268EE73E080E090E00E94211781E0D2
:10206000809300011092E90234C00E94DE158BE1DA
:1020700092E19093600580935F0584E595E00E946E
:10208000B5128CEB98E09093600580935F0584E532
:1020900095E00E94B51260E071E184E595E00E9450
:1020A000E8126EE475E084E595E0DF91CF911F9131
:1020B0000F91FF90EF90DF90CF900C94CB1261E0E6
:1020C00071E08FEA92E00E940A0E81E080930001A5
:1020D0006CCEDF91CF911F910F91FF90EF90DF9029
:1020E000CF9008950895CF92DF92EF92FF920F93D1
:1020F0001F93CF93DF936C017A018B01C0E0D0E096
:10210000CE15DF0581F0D8016D918D01D601ED91DD
:10211000FC910190F081E02DC6010995892B11F009
:102120002196EECF7E01C701DF91CF911F910F91D4
:10213000FF90EF90DF90CF900895FC01538D448D78
:10214000252F30E0842F90E0821B930B541710F062
:10215000CF96089501970895FC01918D828D98176F
:1021600061F0828DDF01A80FB11D5D968C91928D7B
:102170009F5F9F73928F90E008958FEF9FEF089578
:10218000FC01918D828D981731F0828DE80FF11D41
:10219000858D90E008958FEF9FEF0895FC01918D5C
:1021A000228D892F90E0805C9F4F821B91098F7355
:1021B000992708958BED93E00E94CE1021E0892BA2
:1021C00009F420E0822F0895FC01848DDF01A80F1F
:1021D000B11DA35ABF4F2C91848D90E001968F734F
:1021E0009927848FA689B7892C93A089B1898C916E
:1021F000837080648C93938D848D981306C00288BD
:10220000F389E02D80818F7D80830895EF92FF9286
:102210000F931F93CF93DF93EC0181E0888F9B8D09
:102220008C8D981305C0E889F989808185FD26C0C9
:10223000F62E0B8D10E00F5F1F4F0F731127E02E4E
:102240008C8DE8120CC00FB607FCFACFE889F9892B
:10225000808185FFF5CFCE010E94E410F1CF8B8DF8
:10226000FE01E80FF11DE35AFF4FF0829FB7F8948B
:102270000B8FEA89FB89808180620AC09FB7F8943E
:10228000EE89FF896083E889F989808183708064A1
:1022900080839FBF81E090E0DF91CF911F910F91EC
:1022A000FF90EF900895CF93DF93EC01888D882302
:1022B000C9F0EA89FB89808185FD05C0A889B989B3
:1022C0008C9186FD0FC00FB607FCF5CF808185FF8E
:1022D000F2CFA889B9898C9185FFEDCFCE010E94FC
:1022E000E410E7CFDF91CF91089580E090E0892B53
:1022F00029F00E94DA1081110C94000008950E94C8
:1023000089206115710579F0FB0101900020E9F742
:102310003197AF01461B570BDC01ED91FC91028018
:10232000F381E02D099480E090E00895CF92DF9250
:10233000EF92FF920F931F93CF93DF9321E030E052
:10234000790102C0EE0CFF1C6A95E2F76C0120E7F0
:10235000C20ED11CD6014C9150E0FC01E159FF4F57
:10236000608170E0EC01CD58DF4F888199810E9437
:102370003E1688819981DC01ED91FC910284F38500
:10238000E02D09958C01F6018081823070F0888102
:102390009981DC01ED91FC910284F385E02D099592
:1023A00020E030E0382F022B132B0E211F2181E07B
:1023B00090E00E151F0511F080E090E0DF91CF91C5
:1023C0001F910F91FF90EF90DF90CF900895CF93E2
:1023D000DF9370E0FB01E95AFB4E8491FB01ED5B5A
:1023E000FB4ED491FB01E15DFB4EC491CC2391F0F7
:1023F00081110E945B16EC2FF0E0EE0FFF1FEF5EE5
:10240000FB4EA591B491EC91ED2381E090E021F495
:1024100080E002C080E090E0DF91CF910895862FA8
:10242000642F0C948416862F642F0C94E516EF927B
:10243000FF920F931F93CF93DF93EC017B018A01EF
:1024400088819981009729F02A813B8124173507DB
:10245000F8F4B8016F5F7F4F0E94C31F009759F0D7
:10246000998388831B830A832C813D81232B81F4EC
:10247000FC0110820DC088819981009711F00E94A3
:102480003A1F198218821D821C821B821A8207C081
:102490001D830C83B701888199810E949720CE010A
:1024A000DF91CF911F910F91FF90EF900895FC0164
:1024B00011821082138212821582148261157105B5
:1024C00051F0FB0101900020E9F73197AF01461B65
:1024D000570B0C94171208958F929F92AF92BF9250
:1024E000EF92FF920F931F93CF93DF93CDB7DEB799
:1024F000A1970FB6F894DEBF0FBECDBF7C01FA01E5
:10250000CB0119A2223008F42AE08E010F5D1F4F83
:10251000822E912CA12CB12CBF01A50194010E9407
:102520007A1EF901CA01015011096A3014F4605D84
:1025300001C0695CD8016C93232B242B252B61F7F8
:10254000B801C7010E948111A1960FB6F894DEBFB1
:102550000FBECDBFDF91CF911F910F91FF90EF90F4
:10256000BF90AF909F908F90089567EB72E00C94AE
:1025700081110F931F93CF93DF93EC010E94811180
:102580008C01CE010E94B512800F911FDF91CF9177
:102590001F910F9108950F931F93CF93DF93EC0139
:1025A000FB014481558160817181E881F98102805C
:1025B000F381E02D09958C01CE010E94B512800FA8
:1025C000911FDF91CF911F910F9108950C9481116C
:1025D000EF92FF920F931F93CF93DF938C017B01B8
:1025E000C0E0D0E0F701EC0FFD1F6491662361F0BD
:1025F000D801ED91FC910190F081E02DC801099581
:10260000892B11F02196EECFCE01DF91CF911F9152
:102610000F91FF90EF9008950F931F93CF93DF9347
:10262000EC010E94E8128C01CE010E94B512800FCD
:10263000911FDF91CF911F910F9108951F920F92DB
:102640000FB60F9211242F933F934F935F936F9385
:102650007F938F939F93AF93BF93EF93FF938BEDF4
:1026600093E00E94E410FF91EF91BF91AF919F9191
:102670008F917F916F915F914F913F912F910F902B
:102680000FBE0F901F9018951F920F920FB60F92CA
:1026900011242F938F939F93EF93FF93E091EB037C
:1026A000F091EC038081E091F103F091F20382FD5F
:1026B00012C090818091F4038F5F8F732091F50396
:1026C000821751F0E091F403F0E0E552FC4F958F52
:1026D0008093F40301C08081FF91EF919F918F91CE
:1026E0002F910F900FBE0F901F901895EF92FF92B1
:1026F0000F931F93CF93DF93EC017B01FC01E15912
:10270000FF4F808191E09093E7028093E602109260
:10271000D8031092D7038E010D581F4FD8018D9109
:102720009C91DC01ED91FC910190F081E02D0995E7
:10273000FE01E059FF4F8081823058F0F80180811E
:102740009181DC01ED91FC910190F081E02D6F2DE4
:102750000995F801808191810E94570DCF58DF4F74
:10276000E882F982DF91CF911F910F91FF90EF9056
:10277000089521E030E002C0220F331F6A95E2F78E
:10278000FC01EF58FF4F442329F040815181242B55
:10279000352B06C020953095408151812423352367
:1027A00031832083608171810C9476130F931F9382
:1027B000CF938C01FC0164838085C62FC80F6C2FDA
:1027C0006F70C8010E944F0B6C2F62956F70606133
:1027D000C801CF911F910F910C944F0B2F923F92F4
:1027E0004F925F926F927F928F929F92AF92BF9221
:1027F000CF92DF92EF92FF920F931F93CF93DF93CD
:10280000CDB7DEB729970FB6F894DEBF0FBECDBFA8
:10281000DC011B960D911C911C970115110509F403
:102820006AC199878887F801B491319644913196AD
:1028300044903196A491EA2EF12CF7E0EF0EF11CB2
:1028400093E0F594E7949A95E1F7EC82F8013496D9
:1028500074913196E491671758F0862F90E02E2FEF
:1028600030E0F901E70FF11D8E179F070CF476C0D9
:102870006D3069F4A885B98516968C91882309F482
:1028800037C160E0888599850E94D61331C16A30CE
:1028900009F031C1E885F9858185D5808E9DD00C00
:1028A00011248781869586958695D81630F0828585
:1028B000882319F082E08287D12CA885B9851696E5
:1028C0008C911697882321F060E0CD010E94D613E9
:1028D0006D2D888599850E94570BE885F98582853D
:1028E000823008F405C125810384F485E02D3097FA
:1028F00051F03396E491A885B98519960C91E09F23
:10290000002D112401C000E010E0095F1F4F83E09B
:10291000159507958A95E1F78FEF820F080FE885E7
:10292000F985468141506481CF010E94630BA885DF
:10293000B98519968C9119976D2D8E9D600D112476
:10294000660F660F660F17968C91861708F460E085
:102950006064888599850E944F0BCAC050E05B2B4C
:10296000C8010696671BE885F985F185F983423031
:10297000510588F4452B09F019824E9C90014F9C1B
:10298000300D1124629F8001639F100D1124080FE8
:10299000191F312C24C0EA2FE77021F048E0342EB3
:1029A0003E1A01C0312CA82FFC0140E050E07E2FE0
:1029B0007A1B761728F47491470F511D3196F7CF83
:1029C000FC01E60FF11D4490E49E8001E59E100D90
:1029D000F49E100D1124020F131F080F191FA88554
:1029E000B9851496BC91BA83E885F985F581FD8394
:1029F000842D90E09F838E83812C912CC12CD12C2F
:102A0000CB829C81C91608F06EC0212C3601BFEF25
:102A10006B1A7B0AE885F9858185281608F05BC06A
:102A2000FB81F11102C02220A9F0A885B985159675
:102A3000BC901597B39416968C91BA81B81728F468
:102A40006B2F888599850E94D6136B2D8885998573
:102A50000E94570BA12CB12CA41410F0B12C2FC044
:102A6000F401EA0DFB1DE00FF11F5490332061F0DB
:102A7000E614F70449F4E52DF0E0032C02C0F595C7
:102A8000E7950A94E2F75E2EE885F9858185823024
:102A900069F4E52D2110E295EF70F0E0EF5FFB4E59
:102AA0005490652D888599850E943A0B652D8885FF
:102AB00099850E943A0BFFEFAF1ABF0ACDCF7981FB
:102AC0007B1539F060E0888599850E943A0BB394B4
:102AD000F6CF23949FCF8FEFC81AD80AAE81BF815B
:102AE0008A0E9B1E8DCF6D81888599850E94570B1C
:102AF00081E090E002C080E090E029960FB6F89463
:102B0000DEBF0FBECDBFDF91CF911F910F91FF9020
:102B1000EF90DF90CF90BF90AF909F908F907F907D
:102B20006F905F904F903F902F90089596E0899F0F
:102B3000D0011124A752BB4F90967C936E935F9760
:102B400091E091969C93919790914505E09146056F
:102B5000F0914705992339F0309751F0811108C061
:102B60008091F50404C0309719F05C968C9109941B
:102B700008953FB7F8948091740590917505A091E0
:102B80007605B091770526B5A89B05C02F3F19F0B3
:102B90000196A11DB11D3FBFBA2FA92F982F8827DD
:102BA000820F911DA11DB11DBC01CD0142E0660F38
:102BB000771F881F991F4A95D1F708950F930091A9
:102BC0005B05069506950695015040915A054150C2
:102BD00020E060E084E595E00E94630B81E0909145
:102BE0005E05911101C080E080935E0560E484E59C
:102BF00095E00F910C944F0B9091D6039111FCCF5F
:102C000091E09093D6039093D5032FEF2093CF03B9
:102C10001092CE03260F2093CD039093CC03909176
:102C2000CC03880F892B8093CC038091D40381300F
:102C300061F41092D4038091CC038093BB00809107
:102C4000BC0083FDF8CF85EC01C085EE8093BC000D
:102C50008091D6038130E1F38091CE03861710F482
:102C60006091CE03ACEAB3E0ECE8F3E080E08617D5
:102C700021F09D9191938F5FFACF0895862F413275
:102C800008F040E2642F0E94FC151092DA03809352
:102C9000D9030895CF93DF93682F8BED93E00E94C3
:102CA0000611EC018BED93E00E94B5128C0F9D1F75
:102CB000DF91CF910895833081F028F4813099F02D
:102CC0008230A1F008958730A9F08830B9F08430BF
:102CD000D1F4809180008F7D03C0809180008F7738
:102CE00080938000089584B58F7702C084B58F7D6E
:102CF00084BD08958091B0008F7703C08091B000AB
:102D00008F7D8093B00008951F93CF93DF93282F7A
:102D100030E0F901E95AFB4E8491F901ED5BFB4E7D
:102D2000D491F901E15DFB4EC491CC23C1F0162F83
:102D300081110E945B16EC2FF0E0EE0FFF1FEB5DA0
:102D4000FB4EA591B4919FB7F894111104C08C91DA
:102D5000D095D82302C0EC91DE2BDC939FBFDF918E
:102D6000CF911F9108951092DA031092D903109217
:102D7000D8031092D7031092D60381E08093D50335
:102D80001092D40361E082E10E94841661E083E145
:102D90000E948416E9EBF0E080818E7F8083808141
:102DA0008D7F808388E48093B80085E48093BC00A5
:102DB00084EB9AE09093D3038093D20385EB9AE05F
:102DC0009093D1038093D0030895CF93DF9390E045
:102DD000FC01ED5BFB4E2491FC01E15DFB4E849117
:102DE000882361F190E0880F991FFC01E55EFB4E9E
:102DF000C591D491FC01EB5DFB4EA591B49161119D
:102E000009C09FB7F8948881209582238883EC912C
:102E10002E230BC0623061F49FB7F8948881322F63
:102E2000309583238883EC912E2B2C939FBF06C073
:102E30008FB7F894E8812E2B28838FBFDF91CF9135
:102E400008958F929F92AF92BF92CF92DF92EF92AE
:102E5000FF926B017C010E94B9154B015C01C1140A
:102E6000D104E104F104F1F00E94B915DC01CB01B9
:102E700088199909AA09BB09883E9340A105B105A3
:102E800070F321E0C21AD108E108F10888EE880E3B
:102E900083E0981EA11CB11CC114D104E104F1040B
:102EA00019F7DDCFFF90EF90DF90CF90BF90AF90FC
:102EB0009F908F9008952FB7F8946091700570914E
:102EC000710580917205909173052FBF08950F933E
:102ED0001F93CF93DF93C82FD62F86E0C89FF001B2
:102EE0001124E752FB4F11A2878D90A181309105EB
:102EF000D9F040F082309105A9F10397F1F560E037
:102F000070E034C06623C9F161E070E08C2F0E944C
:102F100096150E945B17609331057093320580937C
:102F200033059093340529C00E945B170091310549
:102F3000109132052091330530913405AB01BC016D
:102F4000401B510B620B730B80914305909144051C
:102F5000A0E0B0E084179507A607B70718F462E071
:102F600070E004C0D11109C063E070E08C2FDF91E4
:102F7000CF911F910F910C949615DF91CF911F91D6
:102F80000F9108951F920F920FB60F9211242F9355
:102F90003F938F939F93AF93BF93809170059091D0
:102FA0007105A0917205B091730530916F0523E012
:102FB000230F2D3720F40196A11DB11D05C026E871
:102FC000230F0296A11DB11D20936F0580937005FC
:102FD00090937105A0937205B09373058091740569
:102FE00090917505A0917605B09177050196A11D88
:102FF000B11D8093740590937505A0937605B093E9
:103000007705BF91AF919F918F913F912F910F9035
:103010000FBE0F901F901895CF93DF9300D000D074
:1030200000D0CDB7DEB7789484B5826084BD84B516
:10303000816084BD85B5826085BD85B5816085BDB3
:1030400080916E00816080936E001092810080916B
:1030500081008260809381008091810081608093F3
:103060008100809180008160809380008091B10018
:1030700084608093B1008091B00081608093B00043
:1030800080917A00846080937A0080917A008260D7
:1030900080937A0080917A00816080937A00809199
:1030A0007A00806880937A001092C100E091EB036F
:1030B000F091EC0382E08083E091E703F091E80374
:1030C0001082E091E903F091EA0380E1808310929D
:1030D000F303E091EF03F091F00386E08083E09149
:1030E000ED03F091EE03808180618083E091ED0338
:1030F000F091EE03808188608083E091ED03F09190
:10310000EE03808180688083E091ED03F091EE030F
:1031100080818F7D808368EE73E080E090E00E9484
:10312000211761E08EE00E94E51661E08EE00E94CA
:10313000841668EB72E08BED93E00E94B91261E0B7
:1031400071E080E791E00E940A0E60E08EE00E944C
:1031500084160E94B316109262058CE38093610579
:103160001092580510925905E8EDF0E1859194917F
:10317000E82EEAEDF0E1F490EBEDF0E1E491E0937C
:103180005A05ECEDF0E1E491E0935B05EDEDF0E143
:10319000E491E0935C058C01802F8E198F1548F423
:1031A000F801649184E595E00E944F0B0F5F1F4F7B
:1031B000F3CF10925E050E94DE158CE08093B8007C
:1031C00080915B05803429F40E94DE1581E08093B4
:1031D0005E058DEE9EE09093600580935F051A82F8
:1031E00019821C821B821E821D826091690570916A
:1031F0006A056115710541F040916D0550916E05AC
:10320000CE0101960E9417126CE37EE08BED93E0F5
:103210000E940C1366E17EE08BED93E00E940C139C
:1032200060EF7DE08BED93E00E940C138BED93E05B
:103230000E94B512BE016F5F7F4F8BED93E00E943D
:10324000CB128BED93E00E94B5120E94DE1584E54F
:1032500095E00E94B51284E595E00E94B512ECEB72
:10326000EE2EE8E0FE2EF0926005E0925F0565EB41
:1032700078E084E595E00E94E81209EA14E01093F2
:10328000600500935F0564EA74E084E595E00E94C0
:10329000E812F0926005E0925F0562EA74E084E56E
:1032A00095E00E94E8121093600500935F056CE9B9
:1032B00074E084E595E00E940C1386E990E0909319
:1032C000600580935F0561E870E084E595E00E9409
:1032D0000C1360ED77E080E090E00E9421170E94DF
:1032E000DE1589819A810E943A1F60EE7EE08BEDA7
:1032F00093E00E940C1364ED7EE08BED93E00E945E
:103300000C138DEE9EE09093600580935F0568EC52
:103310007EE084E595E00E940C13F8E0CF2ED12CDE
:10332000E12CF12C10E0BB24B3940C2DB092E702F9
:10333000C092E6021092D8031092D7038DEC94E06D
:103340000E94570D811166C068EB7EE08BED93E023
:103350000E94E8122AE0B701A6018BED93E00E94DB
:103360006C1263EB7EE08BED93E00E94E8126EEA54
:103370007EE084E595E00E94E81220E1B701A60115
:103380008BED93E00E946C1220E1B701A60184E569
:1033900095E00E946C126CEA7EE08BED93E00E9457
:1033A000E8126AEA7EE084E595E00E94E8120933BB
:1033B00049F46EE97EE08BED93E00E94E8126CE741
:1033C00071E015C00C3349F462E97EE08BED93E0C7
:1033D0000E94E81268E871E00AC00F3361F468E8FF
:1033E0007EE08BED93E00E94E81264E971E084E5F1
:1033F00095E00E94E6128BED93E00E94B51284E501
:1034000095E00E94B5121F5F61E070E080E090E0FF
:103410000E942117FFEFCF1ADF0AEF0AFF0A28E701
:10342000C216D104E104F10409F07FCF61E87EE027
:103430008BED93E00E94E8126AE77EE084E595E078
:103440000E94E812C12ED12CE12CF12C2AE0B70108
:10345000A6018BED93E00E946C122AE0B701A60151
:1034600084E595E00E946C126EE67EE08BED93E0C1
:103470000E940C1362E67EE084E595E00E940C1346
:103480008BED93E00E94B51284E595E00E94B512A1
:1034900060ED77E080E090E00E94211789E380935F
:1034A0007B040E94B31688E794E00E94A20B00E020
:1034B00010E0CC24C394D12C90917A047601002E94
:1034C00001C0EE0C0A94EAF78E2D80959823909314
:1034D0007A049091780489238093780488E794E0B3
:1034E0000E94B30D80917804E82AE092780488E77E
:1034F00094E00E94B30D0F5F1F4F08301105E1F6F5
:1035000064E670E080E090E00E94211762EE70E1D6
:1035100084E595E00E94E8128CE69EE090934705D2
:10352000809346058CE691E090933A0580933905A7
:103530006FEF7FEF89ED94E00E947613409149058B
:1035400050E06091480570E080914C0590914D05E8
:103550000E943E1680914C0590914D05DC01ED9145
:10356000FC910284F385E02D099590934B0580939F
:103570004A05809149058230C0F080914C059091B8
:103580004D05DC01ED91FC910284F385E02D099558
:1035900020E030E0382F80914A0590914B05282B90
:1035A000392B30934B0520934A0588E893E190939B
:1035B00044058093430582E390E090934205809315
:1035C00041056EED70E184E595E00E940C136EEE0E
:1035D00070E184E595E00E94E8126EE971E08BED00
:1035E00093E00E94B9128FE380939A040E94B3166D
:1035F00087E994E00E94A20B64EB71E08BED93E00D
:103600000E94B912E12CF12CCC24C394D12C8091CE
:10361000990486010E2C01C0000F0A94EAF7802B52
:103620008093990480919704902F9095892380939B
:10363000970487E994E00E94B30D80919704082BCA
:103640000093970487E994E00E94B30DBFEFEB1A53
:10365000FB0AE8E0EE16F104D1F667EC71E08BEDC1
:1036600093E00E94B91260ED77E080E090E00E9464
:10367000211780919704877F8093970487E994E0CE
:103680000E94B30D6DED71E08BED93E00E94B912D5
:103690006AEE70E184E595E00E940C1360ED77E03E
:1036A00080E090E00E94211761E071E088EF91E0F6
:1036B0000E940A0EFF24F394412C512C32014394B2
:1036C00056E0252EF09245050E945B1700913505C6
:1036D000109136052091370530913805AB01BC01BA
:1036E000401B510B620B730B809141059091420579
:1036F000A0E0B0E084179507A607B70718F010926E
:103700004505C6C0E12C80914005E81608F053C07D
:10371000CE2CD12CE0913D05F0913E05EC0DFD1D28
:1037200040E0608189ED94E00E94B913D301C201A9
:103730000E2C04C0880F991FAA1FBB1F0A94D2F732
:103740004C015C01A094B094312C80913F05381657
:1037500018F5032D10E0E0913B05F0913C05E00FDA
:10376000F11F608189ED94E00E9496110C5F1F4F5C
:10377000000F111FF801E752FB4F892B29F48081BC
:1037800091818829992904C0808191818A219B2176
:10379000918380833394D9CF80913D0590913E05EC
:1037A000FC01EC0DFD1D41E0608189ED94E00E947B
:1037B000B913E394A8CF09ED14E0F801878D90A127
:1037C000892B31F4148E2FEF3FEF368F258F11A206
:1037D000369685E195E08E179F0781F7E12C809161
:1037E0003F05E81670F5B12CCE2CD12CC601880F00
:1037F000991FDC01AF51BB4F6D0120914005B216FE
:10380000F0F4F601408151810B2C02C0569547958A
:103810000A94E2F7642F6170E29E900111242B0D4F
:10382000311DE9EDF4E080E0A58DB68D2A173B0748
:1038300009F400C18F5F36968A30B1F7DFC0E39498
:10384000CECFE12CD80191968C91882311F0EE24F3
:10385000E3940A5F1F4FB5E005311B0799F70E94FB
:103860005B17609335057093360580933705909309
:103870003805EE2009F443CF8091FA04882309F437
:103880003ECF8091F8049091F904019709F037CF69
:103890000E945B170091EB021091EC022091ED0267
:1038A0003091EE02DC01CB01801B910BA20BB30B1C
:1038B00089389341A105B10520F08091EA02811178
:1038C000C3C0E6EBF4E001900020E9F7EE5BF440C2
:1038D00009F08FC08091EF0281118BC0F09200013E
:1038E0000E94B30E64EF71E080E090E00E94211727
:1038F0008091CB049091CC04FC0131912091B604CD
:10390000A7EBB4E04496311103C021115EC008C09A
:1039100032135BC031912D91E817F907A1F755C01B
:10392000F092E8021092EA02F0920001F092EF02A7
:1039300065E171E087E092E00E940A0E80919704B1
:1039400088608093970487E994E00E94B30D68E152
:1039500072E0CE0101960E94571280914E0590911F
:103960004F050097C9F069817A816115710591F061
:1039700040915005509151052D813E8142175307CA
:1039800048F00E9497208D819E81909353058093EB
:10399000520516C00E943A1F89819A8190934F0563
:1039A00080934E058B819C819093510580935005A7
:1039B0008D819E8190935305809352051A821982BE
:1039C00089819A810E943A1F0CC0F092E9021092FC
:1039D000EA02F092000165E171E08CE192E00E9460
:1039E0000A0E1092EA02F09200011092CA0410929C
:1039F000B6040E94B30E0E94751164CE40FF1CC035
:103A0000E9EDF4E080E090E0448D411117C0E091D1
:103A10003905F0913A05E20FF31F4081289EF0012D
:103A2000299EF00D1124E752FB4F448F368F258FCE
:103A300010A2178E0E946717B394DFCE01963696B8
:103A40008A30910509F7F8CF65E171E08BE292E0E9
:103A50000E940A0E0E94DE156EE372E084E595E096
:103A60000E94B9121092EA02F09200011092CA0468
:103A70001092B60426CFFC011082118212821382AA
:103A8000148215821682DC0117960F961D92A817D4
:103A9000B907E1F77F961D921D92EA17FB07D9F748
:103AA000089580914E0590914F050E943A1F809194
:103AB0006305909164050E943A1F80916905909179
:103AC0006A050C943A1F1092DE031092DD0388EE13
:103AD00093E0A0E0B0E08093DF039093E003A09335
:103AE000E103B093E20324E331E03093DC0320935D
:103AF000DB0325EC30E03093E8032093E70324EC6C
:103B000030E03093EA032093E90320EC30E0309377
:103B1000EC032093EB0321EC30E03093EE03209391
:103B2000ED0322EC30E03093F0032093EF0326EC1A
:103B300030E03093F2032093F1031092F4031092DB
:103B4000F5031092F6031092F7031092D00410922E
:103B5000CF048093D1049093D204A093D304B09364
:103B6000D40486E491E09093CE048093CD046AEB74
:103B700072E089E695E00E94571261ED72E083E6FB
:103B800095E00E945712109257051092560581E059
:103B900080935D051092600510925F0588E591E0C5
:103BA00090935505809354056AED72E08EE495E09C
:103BB0000E9457121092DB041092DF041092DE0470
:103BC0001092E004E9EDF4E085E195E0148E10A296
:103BD000178E11A236968E179F07C1F783E291E0E8
:103BE00090933C0580933B058FE191E090933E05D7
:103BF00080933D0581E080933F0594E090934005DC
:103C00002CE631E030933A05209339052AE030E084
:103C1000309342052093410524EF31E03093440571
:103C200020934305109247051092460510923505E2
:103C300010923605109237051092380510924505FE
:103C400026E631E03093DA042093D90499E3909387
:103C50004805809349058DEC94E090934D05809341
:103C60004C058DED92E09093CC048093CB041092A0
:103C7000CA041092B60487E994E00E943B1D88E7CD
:103C800094E00C943B1D2F923F924F925F926F9263
:103C90007F928F929F92AF92BF92CF92DF92EF92DC
:103CA000FF920F931F93CF93DF93CDB7DEB7CA1B5D
:103CB000DB0B0FB6F894DEBF0FBECDBF09942A8888
:103CC000398848885F846E847D848C849B84AA8430
:103CD000B984C884DF80EE80FD800C811B81AA81BD
:103CE000B981CE0FD11D0FB6F894DEBF0FBECDBF88
:103CF000ED010895A1E21A2EAA1BBB1BFD010DC008
:103D0000AA1FBB1FEE1FFF1FA217B307E407F5078B
:103D100020F0A21BB30BE40BF50B661F771F881F67
:103D2000991F1A9469F760957095809590959B01FD
:103D3000AC01BD01CF010895EE0FFF1F0590F49176
:103D4000E02D09940F931F93CF93DF938230910559
:103D500010F482E090E0E0917A05F0917B0520E09C
:103D600030E0A0E0B0E0309719F14081518102814C
:103D7000138148175907C8F08417950769F41097FD
:103D800031F012960C93129713961C9327C0009350
:103D90007A0510937B0522C02115310519F04217D1
:103DA000530718F49A01BD01EF01DF01F801DBCFE1
:103DB00021153105F9F0281B390B2430310580F429
:103DC0008A819B816115710521F0FB0193838283B8
:103DD00004C090937B0580937A05FE01329644C01F
:103DE000FE01E20FF31F8193919322503109398331
:103DF00028833AC02091780530917905232B41F42E
:103E00002091260130912701309379052093780580
:103E100020912401309125012115310541F42DB760
:103E20003EB74091280150912901241B350BE091A8
:103E30007805F0917905E217F307A0F42E1B3F0BEC
:103E40002817390778F0AC014E5F5F4F241735070C
:103E500048F04E0F5F1F509379054093780581938A
:103E6000919302C0E0E0F0E0CF01DF91CF911F918C
:103E70000F910895CF93DF93009709F481C0FC015F
:103E8000329713821282A0917A05B0917B05109728
:103E900081F420813181820F931F20917805309128
:103EA00079052817390751F5F0937905E0937805DE
:103EB00067C0ED0120E030E0CE17DF0740F44A8113
:103EC0005B819E0141155105F1F0EA01F5CFD383E5
:103ED000C28340815181840F951FC817D90759F4B7
:103EE00088819981840F951F0296918380838A81AE
:103EF0009B81938382832115310529F4F0937B05FF
:103F0000E0937A053DC0E901FB83EA834991599129
:103F1000C40FD51FEC17FD0761F480819181840FD8
:103F2000951F0296E90199838883828193819B83FF
:103F30008A83E0E0F0E012968D919C9113970097B0
:103F400019F0FD01DC01F7CF8D919C9111979D0136
:103F50002E5F3F4F820F931F209178053091790596
:103F60002817390769F4309729F410927B051092CD
:103F70007A0502C013821282B0937905A093780566
:103F8000DF91CF910895A0E0B0E0E9ECFFE10C945F
:103F9000471EEC01009721F4CB010E94A21EB4C081
:103FA000FC01E60FF71F9C0122503109E217F307CD
:103FB00008F4A8C0D9010D911C9111970617170795
:103FC000B0F00530110508F49BC0C80104978617AE
:103FD000970708F495C002501109061B170B0193AF
:103FE00011936D937C93CF010E943A1F89C05B01AE
:103FF000A01AB10A4C01800E911EA0917A05B091D1
:104000007B05612C712CE12CF12C109709F446C032
:104010008D919C911197A815B905B1F56C0142E0FD
:10402000C40ED11CCA14DB0478F14C018A189B0819
:10403000640142E0C40ED11C1296BC9012971396F4
:10404000AC91B5E0CB16D10440F0B282A38391824B
:104050008082D9016D937C9309C00E5F1F4F800F42
:10406000911FF90191838083EB2DFA2FE114F10464
:1040700031F0D7011396FC93EE93129741C0F09361
:104080007B05E0937A053CC06816790608F43C018C
:104090007D0112960D90BC91A02DB7CF809178052F
:1040A0009091790588169906E1F466167706C8F4AA
:1040B0008091240190912501009741F48DB79EB71E
:1040C0004091280150912901841B950BE817F907AD
:1040D000C8F4F0937905E0937805F9017183608362
:1040E0000FC0CB010E94A21E7C01009759F0A801CD
:1040F000BE010E948E20CE010E943A1FC70104C05B
:10410000CE0102C080E090E0CDB7DEB7EEE00C94C7
:10411000631E81E090E0F8940C949E20FB01DC018A
:1041200002C001900D9241505040D8F70895FB0114
:10413000DC0101900D920020E1F708951AE0C7E339
:10414000DAE004C0FE010E949C1E2196C833D1070C
:06415000C9F7F894FFCF4F
:104156000173797374656D00000000757064617495
:104166006500000000726573756C74000000000045
:104176000102030400007C0520006B006C006D004A
:1041860000000000061173109D105311CE10AC10E4
:10419600C01000000000070BDA0A370BB60A620AE5
:1041A600C60AB70A00000000EE137310370B721030
:1041B600CC0D00000000360BB91396114F554C522A
:1041C600536574757020426567696E00202D3E2028
:1041D600427574746F6E7300202D3E2044697370AF
:1041E6006C617900202D3E2052656C61790045781E
:1041F60070616E64657220626567696E3A207374D9
:1042060061727400457870616E64657220626567DC
:10421600696E3A206F6B0050696E73206175662077
:10422600484947482067657A6F67656E004D616744
:104236006E65742050696E20617566204C4F57205C
:1042460067657A6F67656E00536574757020436F96
:104256006D706C65746500436F727265637420508F
:104266006173736F777264004F46460057726F6EC4
:104276006720506173736F7772640054696D656F60
:10428600757420526573657420636F6465005265AA
:1042960073657474652050617373776F727400214F
:1042A600003A202C2000202C20446F6E652E0050F2
:1042B6007265737365643A2000484F4C443A200097
:1042C6005265737461727420436F646520696E73FE
:1042D60065727465640052455354415254004578E2
:1042E60070616E64657220506F7274733A0048494B
:1042F6004748004E6575737461727420696E00726A
:10430600656672657368000D0A00504645494C5251
:1043160041455453454C2076322E302062657461F7
:104326000042724172726F7773004F4E004F554FC5
:064336004C52524F000042
:00000001FF
