:100000000C94B2090C94DA090C94DA090C94641675
:100010000C943F160C941A160C94DA090C94DA0915
:100020000C94DA090C94DA090C94DA090C94DA09C4
:100030000C94DA090C94DA090C94DA090C94DA09B4
:100040000C9478150C94DA090C94E8150C94C215EC
:100050000C94DA090C94DA090C94DA090C94DA0994
:100060000C9489160C94DA09AEB08180A1A6A83F41
:10007000AD8B32C8D300D580D91FDA12DB40AF2058
:10008000002020002020000000000023002600297E
:100090000000030C0F30333C3FC0C3CCCFF0F3FC67
:1000A000FF5363616E6E696E672E2E2E00493243D8
:1000B000207363616E6E65723A002020202020203C
:1000C000202020454E47494E454552494E47001491
:1000D000400A0B206002020306060807010303041E
:1000E00006020301050505060605060505050602C7
:1000F00003050506040A07060506050507060204AA
:10010000050409070705070605050705090605068D
:1001100003030304050205050405050405050203A0
:100120000402090505050503050305040805050581
:10013000030304050600000000601E2000080608F6
:10014000000000C8784EC8784E20000020000080D3
:100150000C1222C3040060202000000C92522CD00C
:100160002824C22000000000202000C0201C32CA29
:10017000C420002020200000200800E01C02608035
:100180000000827C80600014380E14000000002003
:1001900020E03820200000000000000000806020E7
:1001A00020200000000020806018060120000000D0
:1001B00000F00C02C23C00202000000004E21E00FF
:1001C000202020202000804422120C2020202020EB
:1001D0000080001412F20C00202020000060504823
:1001E000E45E000000200080181612E202002020C9
:1001F000200000E018149262002020000002C232A9
:100200000A062000000000E01C12F20C0020200072
:1002100000001824A2621C202020000000000820FA
:10022000000000088060002050505088000000004E
:100230000050505050500000000000808850505036
:10024000200000000000006212120C20000000E0FC
:10025000180424524A7A4A221C0020404040404060
:1002600000000000C0704C427CC020000000000074
:1002700020E01E121212EC202020202000F00C02A0
:1002800002820020202000E01E0202C23C2020202A
:10029000200000E01E1212122020202020E01E125A
:1002A00012122000000000F00C020212D2340020D2
:1002B0002020200000E01E1010F01E200000002072
:1002C00000E01E20000000E01E20200000E01E30A4
:1002D000C8042000000020E01E000020202020E0B4
:1002E0001E0678806018E61E200000002000002016
:1002F00000E01E0C30C0E01E20000000002000F0D6
:100300000C020202C23C00202020200000E03E221D
:10031000221C2000000000F00C020202C23C00205F
:100320002020202040E01E1232D20C2000000020AD
:1003300000800C1222C2002020200002E21E0202D5
:100340000020000000E01E000000E01E0020202031
:10035000200000FE8060100C20000000003EC06005
:10036000180EF040300C00200000002000000000BB
:10037000804678880420000000200006D820180459
:100380000020000000804222120A062020202020A7
:1003900000C03E02E0800007F8000000E000C23E1E
:1003A00080E000100C021C000000000000000000B3
:1003B000808080808001020000E01008C8380020A2
:1003C000202000C03E0888702020200000E0100897
:1003D0008800202000E01008C83E0020202000E017
:1003E0003028281000202020000088780C80600031
:1003F00000E01008C83880A0A06000C03E08C830E7
:100400002000002000C03A200000C03A806000C0F8
:100410003EE01020000020C03E2000C0381008C878
:100420003008C830200000002000002000C038083C
:10043000C8302000002000E0100888700020200054
:1004400000C038088870E020200000E01008C8389C
:10045000002020E000C03808200000001028C80854
:100460002020200000C83C08002020C03800C038F0
:100470000020202000F880403020000000F880603C
:1004800010F880403020000000200000000088703C
:10049000E010200000002000F800C0308040200064
:1004A000000088482818202020202020E01E00E09E
:1004B0008000F00EE0000000C23E208060000010CE
:1004C000080810100000000000FE025A0A02FE2078
:1004D0002020202020534341504500450045414DF8
:1004E000200014610A0B20600202030605080801BF
:1004F00003030505020302050506050506050505B6
:1005000005050202050505050A0606050705050796
:100510000702030604090707050806050607060A79
:100520000606050305030506020505040505030681
:100530000502020502080505050503040305050873
:10054000050504030104050600000000BEBE2020CE
:100550000E000E00000048E85EE85E480020002023
:1005600000009C3E33F2E400206020000C128C60FE
:1005700018C620C00000200000002000C0EC3E3261
:100580007ECCE00000202020200020200E00F0FC87
:10059000060060C006FCF0C06000120C3F0C1200A8
:1005A000000000002020F8202000000000008080D3
:1005B000E060202020000000808020200080700C5F
:1005C00003C020000000FCFE02FEFC0020202000F2
:1005D0000804FEFE000020202020202084C2623E6D
:1005E0001C2020202020841212FEEC00202020005D
:1005F000605846FEFE400000002020001E1E12F241
:10060000E22020202000FCFE12F2E2002020200048
:1006100002C2FA3E060020200000ECFE12FEEC00B2
:10062000202020001C3E22FEFC2020202000989844
:1006300020209898E060205050888800000000003A
:10064000505050505000000000008888505020004A
:100650000000000002B2B21E0C0020200000F008D2
:1006600064928A4AF29A84780020404040404000D8
:100670000000E0F84E4EF8E0202000002020FEFEB2
:100680001212FEEC202020202000FCFE020284003A
:1006900020202000FEFE020286FC78202020202060
:1006A0000000FEFE1212122020202020FEFE121258
:1006B000122020000000FCFE020222E2E4002020C2
:1006C00020202000FEFE101010FEFE202000000062
:1006D0002020FEFE202000FEFE202000FEFE30FC3A
:1006E000CE02202000002020FEFE0000202020203E
:1006F000FEFE1C70C0701CFEFE20200000200000CA
:100700002020FEFE0C30C0FEFE2020000000202035
:10071000FCFE020202FEFC00202020202000FEFE43
:10072000223E1C2020000000FCFE020202FEFC0013
:100730000020202020204040FEFE1232FECC20204F
:10074000000020209C3E32F2E40020202000020223
:10075000FEFE0202000020200000FEFE000000FE5F
:10076000FE002020202020000E7EE0E07E0E000013
:1007700020200000063EF8C03E3EC0F83E060000C5
:10078000202000002020000086CE7878CE86202011
:1007900000002020061EF8F81E06000020200000A1
:1007A00082E27A1E062020202020FEFE02E0E08069
:1007B000030C70800000000020C002FEFE80E0E01C
:1007C000100C020C100000000000000000000000EF
:1007D00080808080808001020000C8E828F8F00056
:1007E00020202020FEFE08F8F02020202000F0F835
:1007F000080800202020F0F808FEFE00202020201D
:10080000F0F82838300020202020FCFE0A202000AC
:10081000B0F848783808C0E0A0E06000FEFE08F8B4
:10082000F02020002020FBFB2020FBFBE060FEFEF0
:1008300060F8982020002020FEFE2020F8F808F81C
:10084000F008F8F02020002020002020F8F808F818
:10085000F02020002020F0F808F8F00020202000F0
:10086000F8F808F8F0E0E0202000F0F808F8F800C8
:100870002020E0E0F8F8082020003078E8C82020A8
:100880002000FCFC08002020F8F800F8F8002020E8
:10089000202038F880F838002020200038F8C038B0
:1008A00038C0F838002020000020200098F860F8B8
:1008B00098202000202038F880F83800C0E0200080
:1008C00088E8781820202020FCDE0260E080FEE02E
:1008D00002DEFC2080E06000100818100800000014
:1008E0000000FE026A3A02FE202020202020202064
:1008F00020202054000000050720610000000000B7
:1009000000005F00000007000700147F147F14241C
:100910002A7F2A12231308646236495522500005A3
:10092000030000001C2241000041221C00082A1C78
:100930002A0808083E080800503000000808080887
:1009400008006060000020100804023E5149453E46
:1009500000427F400042615149462141454B3118D8
:1009600014127F1027454545393C4A4949300171E9
:100970000905033649494936064949291E003636D4
:10098000000000563600000008142241141414140C
:100990001441221408000201510906324979413EEE
:1009A0007E1111117E7F494949363E414141227FE6
:1009B0004141221C7F494949417F090901013E41CA
:1009C0004151327F0808087F00417F4100204041AB
:1009D0003F017F081422417F404040407F020402D3
:1009E0007F7F0408107F3E4141413E7F090909068F
:1009F0003E4151215E7F0919294646494949310145
:100A0000017F01013F4040403F1F2040201F7F20C9
:100A100018207F63140814630304780403615149A8
:100A2000454300007F4141020408102041417F00FE
:100A30000004020102044040404040000102040062
:100A400020545454787F484444383844444420382F
:100A50004444487F3854545418087E09010208144D
:100A600054543C7F0804047800447D4000204044F6
:100A70003D00007F10284400417F40007C041804A2
:100A8000787C0804047838444444387C14141408EE
:100A9000081414187C7C0804040848545454200496
:100AA0003F4440203C4040207C1C2040201C3C40D7
:100AB00030403C44281028440C5050503C4464546E
:100AC0004C44000836410000007F00000041360819
:100AD0000008082A1C08081C2A080800060909063C
:100AE000680017804002202020202020272E5F5FF2
:100AF0005F5F5F2E272020200020202020205C2008
:100B000020272D2D2D2720202F2000202020207C65
:100B100020205C20202020202F20207C002020204E
:100B2000207C20202020202020202020207C20002D
:100B300020202020202F20206F2020206F20205CCC
:100B400020002020202020202E27202020202027A9
:100B50002E2020200020202020202020205F5F5FEA
:100B60005F5F202020202000202020202020272E12
:100B70005F5F5F5F5F2E2720202000202020202045
:100B80005C20202F2020205C20202F0020202020EF
:100B90007C202020205F5F5F202020207C20002000
:100BA0002020207C20202020202020202020207C8D
:100BB000200020202020202F20206F2020206F20A8
:100BC000205C20002020202020202E2720202020F4
:100BD00020272E2020200020202020202020205FE1
:100BE0005F5F5F5F20202020200020204D61676E26
:100BF00065743A200022080D0E20600402050607E5
:100C00000809020303050802040204070407070792
:100C100007070707070202070707080E0908080861
:100C200007070908020708070B0809070909070849
:100C300008090D0708080404040608030707060747
:100C400007050707020306020A0707070705060547
:100C500007070B060705050105070800000000004F
:100C6000000000FEFE18181E1E001E1E00000000E0
:100C70000090F89E90F89E1C00001C0000183C2676
:100C8000FF66CC88040C183C180C041C221CC030D5
:100C90008E408000001804000C100C80CC7E72F294
:100CA000DE0C80000C1C1010101C0C1C101E1E00F2
:100CB00000F0FC061C7CC006FCF0C07C1C14140E6A
:100CC00014140000000000606060FCFC60606000C4
:100CD00000000C0C00000000005838C0C0C0C0006C
:100CE0000000000000181800C0380618040000F8C2
:100CF000FC0E060EFCF8040C1C181C0C04180CFE50
:100D0000FE00001C1C181C86C6663E1C181C1C1805
:100D1000181818888C062626FEDC040C1C18180CE3
:100D200004C0E0B88CFEFE80040404041C1C0470A3
:100D30007E3E3636F6C60C1C1818180C04F8FC6EED
:100D40006666EECC040C1818181C0C060606E6762F
:100D50001E0600001C1C0000009CFE666666FE9CD1
:100D60000C1C1818181C0C3C7E666666FCF80C1CE3
:100D700018181C0C0418181818181858386060F047
:100D8000F098980C0000000004040CD8D8D8D8D8EB
:100D9000D8D8000000000000000C9898F0F06060C7
:100DA0000C040400000000080C06C6E6763C18009F
:100DB00000001818000000E03008C4F63A1A1AF2D1
:100DC000FA7E0408F00C30604C9C98988C9C9C90A7
:100DD000484C2000C0F8BE86BEF8C000181C0404B1
:100DE0000404041C18FEFE66666666FEDC1C1C1805
:100DF0001818181C0CF8FC0E06060E9C08040C1C97
:100E000018181C0C04FEFE0606060EFCF81C1C1826
:100E100018181C0C04FEFE66666666661C1C181814
:100E2000181818FEFE66666666061C1C00000000A8
:100E300000F8FC0E0606C6CEDCC8040C1C181818F8
:100E4000180C04FEFE60606060FEFE1C1C000000CA
:100E5000001C1CFEFE1C1C8080000000FEFE0C1C02
:100E60001818181C0CFEFE603078EC86021C1C0062
:100E70000000041C18FEFE00000000001C1C1818D6
:100E8000181818FEFE0E7CE000E07C0EFEFE1C1C16
:100E900000000C1C0C00001C1CFEFE1C78E080FEF8
:100EA000FE1C1C0000040C1C1CF8FC0E0606060EA2
:100EB000FCF8040C1C1818181C0C04FEFE66666670
:100EC0007E3C1C1C0000000000F8FC0E0686060E8E
:100ED000FCF8040C1C18181C0C1C24FEFE6666E6AC
:100EE000E6BE1C001C1C0000000C1C18103C7E669A
:100EF0006666EECC0C1C1818181C0C060606FEFEC6
:100F00000606060000001C1C000000FEFE0000009B
:100F100000FEFE040C1C18181C0C04021EFCE00051
:100F2000E0FC1E020000001C1C1C00000006FEF875
:100F300000F0FE0EFEF000F8FE0600001C1C1C0077
:100F400000001C1C1C0000060EF8F0F80E06181C11
:100F50000400041C18060E38F0F0380E06000000DD
:100F60001C1C000000060686E6761E0E06181C1CD9
:100F70001818181818FEFE0606FCFCC0C00638C07B
:100F800000000004180606FEFEC0C0FCFC20380E5F
:100F90000E382000000000000000000000000000EB
:100FA0000080808080808080800206040000001025
:100FB00098D858F8F0000C1C18180C1C10FEFE30C5
:100FC0001838F0E01C1C0C181C0C04E0F018183841
:100FD00030040C18181C0CE0F0381830FEFE040C1D
:100FE0001C180C1C1CE0F0D8D8D8F0E0040C181821
:100FF00018180818FCFE1A1A001C1C0000E0F03833
:101000001830F8F864ECDCD8CCFC7CFEFE30181804
:10101000F8F01C1C0000001C1CFAFA1C1C00FAFA58
:10102000C0FC7CFEFEE0F098081C1C00041C18FEAE
:10103000FE1C1CF8F81018F8F01818F8F01C1C002A
:10104000001C1C00001C1CF8F8301818F8F01C1CC0
:101050000000001C1CE0F0381838F0E0040C1C18EC
:101060001C0C04F8F8301838F0E0FCFC0C181C0CD0
:1010700004E0F0381830F8F8040C1C180CFCFCF8EC
:10108000F83018181C1C00000070F8D8D8D8900848
:101090001818181C0C18FCFE1818000C1C1818F84E
:1010A000F8000000F8F80C1C18180C1C1C38F8C0CC
:1010B00000C0F83800001C1C1C000018F8E000F00C
:1010C00038F000E0F81800001C1C0C000C1C1C0080
:1010D000001838E0E03818181C04041C1818F8E050
:1010E00000E0F8180084FCF83C04001898D8783820
:1010F0001C1C18181880FC7E0606007CFCC0C0FE74
:10110000FC06067EFC80C0C0FC7C00603030706055
:10111000603000000000000000FE02020202020235
:10112000FE1C1010101010101C000005072060009D
:101130000000000000005F00000007000700147FAF
:10114000147F14242A7F2A12231308646236495616
:1011500020500008070300001C2241000041221C0F
:10116000002A1C7F1C2A08083E08080080703000F6
:101170000808080808000060600020100804023E0B
:101180005149453E00427F4000724949494621414C
:10119000494D331814127F1027454545393C4A49BB
:1011A00049314121110907364949493646494929FA
:1011B0001E0000140000004034000000081422410A
:1011C0001414141414004122140802015909063E93
:1011D000415D594E7C1211127C7F494949363E418E
:1011E0004141227F4141413E7F494949417F0909AF
:1011F00009013E414151737F0808087F00417F414A
:10120000002040413F017F081422417F4040404080
:101210007F021C027F7F0408107F3E4141413E7FD8
:10122000090909063E4151215E7F091929462649CF
:1012300049493203017F01033F4040403F1F2040A6
:10124000201F3F4038403F631408146303047804B0
:10125000036159494D43007F414141020408102078
:10126000004141417F0402010204404040404000EF
:101270000307080020545478407F284444383844F9
:10128000444428384444287F385454541800087E75
:10129000090218A4A49C787F0804047800447D40C7
:1012A000002040403D007F1028440000417F400066
:1012B0007C047804787C080404783844444438FC7E
:1012C0001824241818242418FC7C08040408485402
:1012D00054542404043F44243C4040207C1C2040BF
:1012E000201C3C4030403C44281028444C909090B6
:1012F0007C4464544C4400083641000000770000F0
:10130000004136080002010204023C2623263C006C
:10131000000000240027002A00000000002500280B
:10132000002B000404040404040404020202020268
:101330000203030303030301020408102040800199
:101340000204081020010204081020000000080018
:10135000020100000304070000000000000000007C
:10136000A817B81E11241FBECFEFD8E0DEBFCDBF37
:1013700025E0A4E9B2E001C01D92A434B207E1F770
:1013800012E0A0E0B1E0ECE5F2E402C005900D92BD
:10139000A439B107D9F719E0C1EBD9E004C021970E
:1013A000FE010E94291FC03BD107C9F70E94A41863
:1013B0000C9421210C9400000895089596E0899FD3
:1013C000D0011124A856BB4F90967C936E935F97E3
:1013D00091E091969C939197E0910505F091060517
:1013E00090910405992339F0309751F0811108C08C
:1013F0008091B4040994309719F05C968C91FACFDF
:101400000895833081F028F4813099F08230A9F07A
:1014100008958730A9F08830C9F08430B1F4809104
:1014200080008F7D03C0809180008F778093800043
:10143000089584B58F7784BD089584B58F7DFBCFE3
:101440008091B0008F778093B00008958091B000B4
:101450008F7DF9CF1F93CF93DF93282F30E0F901D1
:10146000E55BFC4E8491F901E95CFC4ED491F901F5
:10147000ED5DFC4EC491CC23A9F0162F81110E9482
:10148000010AEC2FF0E0EE0FFF1FE75EFC4EA59186
:10149000B4918FB7F894EC91111108C0D095DE2368
:1014A000DC938FBFDF91CF911F910895DE2BF8CF92
:1014B000CF93DF9390E0FC01E95CFC4E24918D5DBD
:1014C0009C4EFC0184918823C9F090E0880F991FFD
:1014D000FC01E15FFC4EA591B491FC01E75EFC4E7E
:1014E000C591D49161110DC09FB7F8948C9120954E
:1014F00082238C938881282328839FBFDF91CF91FB
:101500000895623051F49FB7F8943C91822F8095F2
:1015100083238C93E8812E2BEFCF8FB7F894EC9137
:101520002E2B2C938FBFEACF3FB7F89480913E03C8
:1015300090913F03A0914003B091410326B5A89B31
:1015400005C02F3F19F00196A11DB11D3FBFBA2F55
:10155000A92F982F8827BC01CD01620F711D811D15
:10156000911D42E0660F771F881F991F4A95D1F79A
:1015700008958F929F92AF92BF92CF92DF92EF9297
:10158000FF924B015C010E94940A6B017C010E9456
:10159000940A6C197D098E099F09683E7340810584
:1015A0009105A8F321E0821A9108A108B10888EEFC
:1015B000C80E83E0D81EE11CF11C81149104A10423
:1015C000B10429F7FF90EF90DF90CF90BF90AF90DC
:1015D0009F908F9008952FB7F89460913A0370917F
:1015E0003B0380913C0390913D032FBF08950F93DF
:1015F0001F93CF93DF93C82FD62F86E0C89FF001AB
:101600001124E856FB4F11A2878D90A181309105DE
:10161000F1F058F082309105F1F1039709F440C0E0
:10162000DF91CF911F910F9108956623C9F361E077
:1016300070E08C2F0E94DE090E94EB0A6093F00498
:101640007093F1048093F2049093F304E9CF0E9425
:10165000EB0A0091F0041091F1042091F204309112
:10166000F304AB01BC01401B510B620B730B809167
:10167000020590910305B0E0A0E084179507A60746
:10168000B70748F462E070E08C2FDF91CF911F9193
:101690000F910C94DE0963E070E0D111C1CFF4CF5B
:1016A00070E060E0F1CF08950895DB0114964D914C
:1016B0005C9115976D917C91DC01ED91FC9102801C
:1016C000F381E02D0994EF92FF920F931F93CF9334
:1016D000DF938C017B01D0E0C0E0F701EC0FFD1F30
:1016E0006491662361F0D801ED91FC910190F08145
:1016F000E02DC8010995892B11F02196EECFCE017E
:10170000DF91CF911F910F91FF90EF900895AF92CD
:10171000BF92CF92DF92EF92FF920F931F93CF93DE
:10172000DF936C017B018B01040F151FEB015E0140
:10173000AE18BF08C017D10759F06991D601ED91D5
:10174000FC910190F081E02DC6010995892B79F774
:10175000C501DF91CF911F910F91FF90EF90DF9026
:10176000CF90BF90AF900895FC01538D448D252FED
:1017700030E0842F90E0821B930B541710F0CF962B
:10178000089501970895FC01918D828D981761F05D
:10179000A28DAE0FBF2FB11D5D968C91928D9F5F74
:1017A0009F73928F90E008958FEF9FEF0895FC0153
:1017B000918D828D981731F0828DE80FF11D858D06
:1017C00090E008958FEF9FEF0895FC01918D228D99
:1017D000892F90E0805C9F4F821B91098F7399271E
:1017E000089586E993E00E94E50B21E0892B09F436
:1017F00020E0822F089580E090E0892B29F00E945C
:10180000F10B81110C9400000895FC01A48DA80F28
:10181000B92FB11DA35ABF4F2C91848D90E0019632
:101820008F739927848FA689B7892C93A089B18952
:101830008C91837080648C93938D848D981306C0F3
:101840000288F389E02D80818F7D80830895EF9257
:10185000FF920F931F93CF93DF93EC0181E0888F6A
:101860009B8D8C8D98131AC0E889F989808185FF3A
:1018700015C09FB7F894EE89FF896083E889F989DC
:1018800080818370806480839FBF81E090E0DF91DE
:10189000CF911F910F91FF90EF900895F62E0B8D31
:1018A00010E00F5F1F4F0F731127E02E8C8D8E11EC
:1018B0000CC00FB607FCFACFE889F989808185FF53
:1018C000F5CFCE010E94050CF1CFEB8DEC0FFD2F73
:1018D000F11DE35AFF4FF0829FB7F8940B8FEA890E
:1018E000FB8980818062CFCFCF93DF93EC01888D1D
:1018F0008823B9F0AA89BB89E889F9898C9185FD8B
:1019000003C0808186FD0DC00FB607FCF7CF8C9118
:1019100085FFF2CF808185FFEDCFCE010E94050CBF
:10192000E9CFDF91CF910895CF93DF93EC019C81B4
:101930008E81981758F4E881F9810084F185E02DB3
:1019400042E0CE0109958C818F5F8C83DF91CF912E
:101950000895DC01ED91FC910084F185E02D40E0DB
:1019600009940F931F93CF938C01FC016483C0856E
:10197000C60F6C2F6F700E94A90C6C2F62956F7050
:101980006061C801CF911F910F910C94A90CFC01CB
:101990002781269526952695621720F46583606B2E
:1019A0000C94A90C08951F93CF93DF93EC01142F8F
:1019B0008E81681718F4CE010E94B10C612FCE0100
:1019C000DF91CF911F910C94C70CCF92DF92EF92D1
:1019D000FF920F931F93CF93DF93EC01162FC42E2A
:1019E000D22E8F81869586958695081710F00FEF79
:1019F000080FFD2C0F15B0F08E81181720F4612F01
:101A0000CE010E94B10C6F2DCE010E94C70CE12EB9
:101A1000CE1430F060E0CE010E94940CE394F8CF35
:101A2000F394E8CF4D2D612FCE01DF91CF911F911F
:101A30000F91FF90EF90DF90CF900C94D30C0F9309
:101A400000911A05069506950695015040911905D5
:101A5000415020E060E083E195E00E94E50C81E0E8
:101A600090911D05911101C080E080931D0560E4F7
:101A700083E195E00F910C94A90C2F923F924F9225
:101A80005F926F927F928F929F92AF92BF92CF920E
:101A9000DF92EF92FF920F931F93CF93DF9300D0CB
:101AA00000D01F92CDB7DEB7DC011B960D911C91C3
:101AB0000115110509F468C19D838C83F8014491D7
:101AC000319654913196649031962491E22EF12C06
:101AD000F7E0EF0EF11C73E0F594E7947A95E1F7E7
:101AE000E982F801349634913196E491631748F015
:101AF0008E2F90E0FC01E30FF11D6E171F060CF412
:101B000087C06D3031F5AC81BD8116968C91811105
:101B10001AC081E090E00F900F900F900F900F90FF
:101B2000DF91CF911F910F91FF90EF90DF90CF90B9
:101B3000BF90AF909F908F907F906F905F904F90ED
:101B40003F902F90089560E08C819D810E94B10CA0
:101B5000E0CF6A3009F018C1EC81FD818185D58024
:101B60008E9DD00C11248781869586958695D816F2
:101B700030F08285882319F082E08287D12C4D2DA8
:101B800060E08C819D810E94D30CAC81BD811A964E
:101B90008C911A97823008F4BCCF15962C9115972A
:101BA0001B96ED91FC911C9700E0309739F033962D
:101BB000E49119960C91E09F002D112410E0095F2B
:101BC0001F4F33E0159507953A95E1F78FEF820F98
:101BD000080FEC81FD81468141506481CF010E9454
:101BE000E50CAC81BD8119968C9119976D2D8E9D58
:101BF000600D1124660F660F660F17968C9186177D
:101C000008F460E060648C819D810E94A90C81CF02
:101C10004527542745270A5F1F4F631BEC81FD8131
:101C200021844230510508F06DC0452B09F0212C6C
:101C30006E9CC0016F9C900D1124689FF001699FFC
:101C4000F00D11240E0F1F1F512CAC81BD81149675
:101C5000BC91BA83EC81FD81F581FB83862C912CAC
:101C6000AA24A394B12C312C8981381608F086C09F
:101C7000412CAC81BD8119968C91481608F077C033
:101C8000311002C0442041F0EC81FD8145814F5F5D
:101C90006A81CF010E94D30CD12CC12CC61408F04C
:101CA0005AC0F801EC0DFD1D7490552061F0EA1446
:101CB000FB0449F4E72DF0E0052C02C0F595E7950B
:101CC0000A94E2F77E2EAC81BD8119968C91823008
:101CD00081F4442009F43BC072948FE07822E72D10
:101CE000F0E0EF56FF4F7490672D8C819D810E942C
:101CF000940C672D8C819D810E94940CEFEFCE1A7D
:101D0000DE0ACCCF277038E0532E521A211101C0C1
:101D1000512C50E040E030E020E0F801461740F45C
:101D2000E40FF51FE4912E0F311D4F5F5F4FF5CF8C
:101D3000E60FF11D6490E29EF001E39EF00DF29E2D
:101D4000F00D11248E0F9F1F080F191F7ECFB72D86
:101D5000BF707B2EC4CFD12C2D1439F060E08C8164
:101D60009D810E94940CD394F7CF439482CF3394F7
:101D7000080D191DFFEFAF1ABF0A76CF6B818C815A
:101D80009D810E94C70CC5CE90E080E0C4CE8091BA
:101D9000940390919503891B990B0895CF93DF933A
:101DA000FC01108211821282138214821582168223
:101DB000EC012796DC011F961992AC17BD07E1F7DD
:101DC0007F961D921D92EA17FB07D9F7DF91CF91FD
:101DD000089590E0FC01EE0FFF1FE557FF4FA5911E
:101DE000B4912C91FC01E85DFC4F30812083880F79
:101DF000991FFC01E45FFE4F0190F081E02D80818E
:101E000008952091D502260F3327331F2132310543
:101E1000ECF420918803FC0190E080E0243069F02C
:101E200082E00895A091D5022191AC014B545D4F01
:101E3000A40FB52FB11D2C930196861798F38091AE
:101E4000D502680F6093D50280E0089581E008957F
:101E50001092880381E0809367031092620361E02F
:101E600082E10E942A0A61E083E10E942A0AE9EBEA
:101E7000F0E080818E7F808380818D7F808388E405
:101E80008093B80085E48093BC0008951092950378
:101E90001092940310929303109292030E94280FC1
:101EA0008CED99E090939103809390038DED99E0F0
:101EB00090938F0380938E030895CF93DF9391E0E7
:101EC0009093B4028823B9F0C091B800D091BA00C1
:101ED0008091BC008A7B8093BC0060E082E10E941C
:101EE0002A0A60E083E10E942A0A0E94280FD09308
:101EF000BA00C093B800DF91CF910895CF92DF92DE
:101F0000EF92FF920F931F93CF93DF93D82FC62F9B
:101F1000613208F098C00E94940A6B017C018091A4
:101F2000880381116BC081E08093880380936703ED
:101F30009FEF90936603109265039C0F9093640348
:101F40008093630380916303DD0FD82BD0936303E9
:101F500080916203813009F078C0109262030E9480
:101F6000940A6B017C01809163038093BB00809194
:101F70008A0390918B03A0918C03B0918D03892BE0
:101F80008A2B8B2BA1F00E94940A00918A03109156
:101F90008B0320918C0330918D036C197D098E0980
:101FA0009F09061717072807390708F448C08091CA
:101FB000BC0083FDD8CF85EC8093BC000E94940ABE
:101FC0006B017C0180918803813009F440C08091CD
:101FD00065038C1710F4C0916503E2E4F3E0A8E612
:101FE000B3E080E08C1355C08C2FDF91CF911F910F
:101FF0000F91FF90EF90DF90CF90089580918A032A
:1020000090918B03A0918C03B0918D03892B8A2B27
:102010008B2B09F484CF0E94940A00918A031091BB
:102020008B0320918C0330918D036C197D098E09EF
:102030009F09061717072807390708F070CF809106
:1020400089030E945D0FC0E0CFCF85EEB5CF8091B0
:102050008A0390918B03A0918C03B0918D03892BFF
:102060008A2B8B2B09F4AECF0E94940A00918A032D
:1020700010918B0320918C0330918D036C197D0995
:102080008E099F09061717072807390708F09ACF06
:10209000D6CF91919D938F5FA5CF0895E091950341
:1020A00080919403E81730F4F0E0E859FC4F808108
:1020B00090E008958FEF9FEF0895909195038091A0
:1020C00094032FEF3FEF981748F4E92FF0E0E85919
:1020D000FC4F208130E09F5F90939503C9010895E4
:1020E000CF92DF92EF92FF920F931F93CF93DF93E4
:1020F0007C01CB018A0120912C03222389F0EB0182
:102100006B01C40ED51ECC15DD0569F06991D701B0
:10211000ED91FC910190F081E02DC7010995F3CF7D
:10212000642F0E94010FC801DF91CF911F910F9181
:10213000FF90EF90DF90CF900895CF93DF931F92A1
:10214000CDB7DEB7698320912C032223F9F02091CB
:102150009203203258F021E030E0FC0133832283E7
:1021600090E080E00F90DF91CF91089580919303EC
:10217000E82FF0E0EC56FD4F998190838F5F8093BC
:1021800093038093920381E090E0ECCF61E0CE0175
:1021900001960E94010FF7CFCF92DF92EF92FF924C
:1021A0000F931F93CF93DF93D091920381E0D132AD
:1021B00008F09CC0C0912B030E94940A6B017C0123
:1021C0008091880381116CC082E08093880381E054
:1021D000809367038FEF8093660310926503D0931B
:1021E0006403A4E9B2E0E2E4F3E080E0D8138DC038
:1021F0001092630380916303CC0FC82BC0936303D9
:1022000080916203813009F084C0109262030E94C1
:10221000940A6B017C01809163038093BB008091E1
:102220008A0390918B03A0918C03B0918D03892B2D
:102230008A2B8B2BA1F00E94940A00918A031091A3
:102240008B0320918C0330918D036C197D098E09CD
:102250009F09061717072807390708F442C080911D
:10226000BC0083FDD8CF85EC8093BC000E94940A0B
:102270006B017C0180918803823009F44CC080910D
:1022800066038F3F09F469C080916603803209F4C8
:1022900066C080916603803309F463C084E026C081
:1022A00080918A0390918B03A0918C03B0918D0350
:1022B000892B8A2B8B2B09F483CF0E94940A0091DF
:1022C0008A0310918B0320918C0330918D036C193C
:1022D0007D098E099F09061717072807390708F097
:1022E0006FCF809189030E945D0F85E01092930368
:1022F0001092920310922C03DF91CF911F910F91B6
:10230000FF90EF90DF90CF9008959D9191938F5F14
:102310006DCF85EEA9CF80918A0390918B03A09118
:102320008C03B0918D03892B8A2B8B2B09F4A2CFC0
:102330000E94940A00918A0310918B0320918C03D0
:1023400030918D036C197D098E099F0906171707B7
:102350002807390708F08ECFC4CF80E0C7CF82E0CE
:10236000C5CF83E0C3CFFC0191816281808123814D
:1023700031E030932C0320932B031092930310929F
:10238000920360956923682B8CE894E00E949D106D
:102390008CE894E00C94CC10EF92FF920F931F9373
:1023A000CF93DF93EC017B018C010D581F4FD801B7
:1023B0008D919C91FE01E159FF4F208131E03093D6
:1023C0002C0320932B031092930310929203DC01B1
:1023D000ED91FC910190F081E02D0995FE01E0590D
:1023E000FF4F8081823058F0F80180819181DC01BB
:1023F000ED91FC910190F081E02D6F2D0995F80190
:10240000808191810E94CC10CF58DF4FE882F98201
:10241000DF91CF911F910F91FF90EF90089521E0F0
:1024200030E002C0220F331F6A95E2F7FC01EF583B
:10243000FF4F60817181442341F0262B372B31837C
:102440002083608171810C94CC11209530952623D6
:102450003723F5CFCF93DF9370E0FB01E55BFC4EB4
:102460008491FB01E95CFC4ED4916D5D7C4EFB01D7
:10247000C491CC23A1F081110E94010AEC2FF0E05D
:10248000EE0FFF1FE957FF4FA591B491EC91ED239B
:1024900081E090E009F480E0DF91CF91089580E041
:1024A00090E0FACF862F642F0C942A0A862F642F8F
:1024B0000C94580A0F931F93CF93DF93EC01062FD0
:1024C000142F8E85813120F4882339F0411105C005
:1024D0008CE894E00E94CC101E868E85811112C07B
:1024E0008D8591E090932C0380932B03109293039E
:1024F0001092920360E4111101C060E08CE894E056
:102500000E949D10602F8CE894E00E949D10123074
:1025100041F48E858F5F8E87DF91CF911F910F9150
:1025200008958CE894E00E94CC101E86F5CF90E0D0
:1025300080E00895CF93DF93EC0189818C8361E083
:102540008B810E947E0F10929503809394038111DA
:1025500001C0FFCF8CE894E00E945D108983DF9179
:10256000CF910895CF92DF92EF92FF920F931F9336
:10257000CF93DF93EC0181E090E07C0102C0EE0C90
:10258000FF1C6A95E2F76E0180E7C80ED11CD601E8
:102590006C91613208F060E2FE01E159FF4F8081E9
:1025A0000E947E0F1092950380939403CD58DF4FC5
:1025B00088819981DC01ED91FC910284F385E02D05
:1025C00009958C01F6018081823060F088819981C3
:1025D000DC01ED91FC910284F385E02D099520E06A
:1025E000022B182B0E211F2181E090E00E151F05F4
:1025F00011F090E080E0DF91CF911F910F91FF905B
:10260000EF90DF90CF900895FC0180819181009739
:1026100011F00C94CB1F0895FB0101900020E9F705
:102620003197AF01461B570BDC01ED91FC91028005
:10263000F381E02D09948F929F92AF92BF92EF9217
:10264000FF920F931F93CF93DF93CDB7DEB7A19780
:102650000FB6F894DEBF0FBECDBF7C01FA01CB01EF
:1026600019A2223008F42AE08E010F5D1F4F822E3E
:10267000912CB12CA12CBF01A50194010E94071F30
:10268000F901CA016A300CF5605DD8016E938D01C5
:10269000232B242B252B79F790E080E0109721F055
:1026A000BD01C7010E940C13A1960FB6F894DEBFBE
:1026B0000FBECDBFDF91CF911F910F91FF90EF9093
:1026C000BF90AF909F908F900895695CDECF62E5D8
:1026D00071E00C940C13CF93DF93682F86E993E09D
:1026E0000E94270CEC0186E993E00E9467138C0F8F
:1026F0009D1FDF91CF9108950F931F93CF93DF9389
:10270000EC010E940C138C01CE010E946713800F14
:10271000911FDF91CF911F910F9108950F931F93F8
:10272000CF93DF93EC010E94550B8C01CE010E94E8
:102730006713800F911FDF91CF911F910F91089523
:102740000F931F93CF93DF93EC010E94630B8C01D7
:10275000CE010E946713800F911FDF91CF911F91CF
:102760000F9108950C940C130F931F93CF93DF9345
:10277000EC018B0161E08EE00E942A0A86E993E079
:102780000E94671365E571E086E993E00E94B21349
:10279000B80186E993E00E94550B68E571E086E98F
:1027A00093E00E94B213BE0186E993E00E94550BAC
:1027B0006AE571E086E993E00E947C1362E370E0D1
:1027C00080E090E00E94B90A60E08EE0DF91CF9156
:1027D0001F910F910C942A0A0F931F93CF93DF93AD
:1027E0000E941F0D89E291E190931F0580931E05C1
:1027F00083E195E00E94671385EF9BE090931F05AE
:1028000080931E0583E195E00E94671364E870E001
:1028100083E195E00E94630B61E870E083E195E05D
:102820000E94630BC5E7D4E08E01F80101900020FF
:10283000E9F7CF01865794409E0125573440281769
:10284000390760F4699183E195E00E943D0D6FE7DF
:1028500070E083E195E00E94630BE7CFDF91CF91B9
:102860001F910F9108950F931F93CF93DF93EC0166
:1028700088819981009759F02A813B812617370773
:1028800030F081E0DF91CF911F910F9108958B017E
:102890006F5F7F4F0E945420009759F0998388837F
:1028A0001B830A832C813D81232B59F7FC01108265
:1028B000E8CF80E0E7CFEF92FF920F931F93CF9383
:1028C000DF93EC01198218821B821A821D821C82FE
:1028D00085E0C232D807F9F0009122051091230556
:1028E00001151105C1F0E0902605F0902705B7010C
:1028F000CE010E94331428813981811113C0211522
:10290000310519F0C9010E94CB1F198218821D825E
:102910001C821B821A82DF91CF911F910F91FF9031
:10292000EF900895FD82EC82B801C901DF91CF914B
:102930001F910F91FF90EF900C941A21EF92FF924C
:102940000F931F93CF93DF93EC017B0119821882C1
:102950001B821A821D821C82FB0101900020E9F774
:1029600031978F01061B170BB8010E943314288181
:102970003981811113C02115310519F0C9010E9457
:10298000CB1F198218821D821C821B821A82DF9142
:10299000CF911F910F91FF90EF9008951D830C83AD
:1029A000B701C901DF91CF911F910F91FF90EF9077
:1029B0000C941A211F93CF93DF93CDB7DEB72C97DA
:1029C0000FB6F894DEBF0FBECDBF182F8091B704AD
:1029D0009091B8048130910569F0029709F44DC0D7
:1029E0002C960FB6F894DEBF0FBECDBFDF91CF910E
:1029F0001F91089581E080933303809300010E942A
:102A0000EB0A60932D0370932E0380932F03909312
:102A10003003E0918904E33169F081E08E0F809307
:102A20008904F0E0EB58FB4F1083E82FF0E0EB58FF
:102A3000FB4F1082CE0107960E945B1465E774E09D
:102A4000CE0101960E949E14BE01695F7F4FCE01A8
:102A500001960E94B413CE0101960E940413CE0188
:102A600007960E94041361E671E086E993E00E94F4
:102A7000B213812F0E946B13B3CF6BE671E0F5CFD9
:102A800085ED8093BC0080918A0390918B03A09187
:102A90008C03B0918D030796A11DB11D23E0B6955F
:102AA000A795979587952A95D1F72091BC0024FD8D
:102AB00003C010928803089540918A0350918B03BC
:102AC00060918C0370918D03452B462B472B69F346
:102AD0000097A105B10541F025E32A95F1F7000023
:102AE0000197A109B109E1CF809189030C945D0F91
:102AF0001F920F920FB60F9211242F933F938F9333
:102B00009F93AF93BF9380913A0390913B03A09121
:102B10003C03B0913D033091390323E0230F2D375F
:102B200058F50196A11DB11D2093390380933A03F6
:102B300090933B03A0933C03B0933D0380913E03ED
:102B400090913F03A0914003B09141030196A11DD4
:102B5000B11D80933E0390933F03A0934003B09335
:102B60004103BF91AF919F918F913F912F910F9012
:102B70000FBE0F901F90189526E8230F0296A11DF7
:102B8000B11DD2CF1F920F920FB60F9211242F9327
:102B90003F934F935F936F937F938F939F93AF93E5
:102BA000BF93EF93FF9386E993E00E94050CFF919A
:102BB000EF91BF91AF919F918F917F916F915F91B5
:102BC0004F913F912F910F900FBE0F901F9018952E
:102BD0001F920F920FB60F9211242F938F939F93F2
:102BE000EF93FF93E091A603F091A7038081E0911A
:102BF000AC03F091AD0382FD1BC090818091AF03C7
:102C00008F5F8F732091B003821741F0E091AF0383
:102C1000F0E0EA56FC4F958F8093AF03FF91EF9160
:102C20009F918F912F910F900FBE0F901F9018952D
:102C30008081F4CF1F920F920FB60F9211242F9321
:102C40003F934F935F936F937F938F939F93AF9334
:102C5000BF93EF93FF9382E00E94E90EFF91EF9103
:102C6000BF91AF919F918F917F916F915F914F91A4
:102C70003F912F910F900FBE0F901F9018951F92AC
:102C80000F920FB60F9211242F933F934F935F93A0
:102C90006F937F938F939F93AF93BF93EF93FF9324
:102CA00081E00E94E90EFF91EF91BF91AF919F915A
:102CB0008F917F916F915F914F913F912F910F90E5
:102CC0000FBE0F901F9018951F920F920FB60F9284
:102CD00011242F933F934F935F936F937F938F9321
:102CE0009F93AF93BF93EF93FF9380E00E94E90E11
:102CF000FF91EF91BF91AF919F918F917F916F91D4
:102D00005F914F913F912F910F900FBE0F901F90A9
:102D100018951F920F920FB60F9211242F933F9385
:102D20004F935F936F937F938F939F93AF93BF93D3
:102D3000EF93FF938091B900887F803609F44AC0F1
:102D4000F0F5883209F4A7C018F5803109F49BC06A
:102D5000B8F4882309F4F9C0883009F494C0FF91CD
:102D6000EF91BF91AF919F918F917F916F915F9103
:102D70004F913F912F910F900FBE0F901F9018957C
:102D8000883109F488C0803251F78093660314C0FB
:102D9000803409F49DC040F48033B9F38833F9F6E8
:102DA0008093660385ECB0C0803509F485C0883512
:102DB00009F496C0883499F60E944015D0CF88391E
:102DC00009F48CC038F5883729F050F4883611F0B2
:102DD000803729F683E0809388031092F70257C06A
:102DE000883809F47BC0803919F0803809F0B7CFF2
:102DF0008091F702803208F071C0E091F70281E023
:102E00008E0F8093F7028091BB00F0E0E952FD4FF6
:102E100080833DC0803B39F0E0F4803A09F479C00A
:102E2000883A09F09CCF84E0809388031092D60200
:102E30001092D502E0919003F09191030995809151
:102E4000D50281110FC081E08093D5021092B502A6
:102E500009C0803C09F4A6CF883C09F4A3CF883B85
:102E600009F07DCFE091D60281E08E0F8093D602EB
:102E7000F0E0EB54FD4F80818093BB009091D6022F
:102E80008091D50229C0809163038093BB0085ECBB
:102E90008093BC0064CF9091650380916403981780
:102EA00058F5E091650381E08E0F80936503F0E0B3
:102EB000EE5BFC4F8081E9CFE091650381E08E0FEE
:102EC000809365038091BB00F0E0EE5BFC4F808354
:102ED00090916503809164039817C8F285E8D8CF74
:102EE000E091650381E08E0F809365038091BB00C4
:102EF000F0E0EE5BFC4F80838091670381115CCF33
:102F000081E08093620384EA8093BC00109288037E
:102F100026CF85EC8093BC00109288038091F70245
:102F2000803230F4E091F702F0E0E952FD4F108278
:102F30006091F70270E0E0918E03F0918F0387EDCE
:102F400092E009951092F7020ACF1092660334CFEF
:102F5000109299031092980388EE93E0A0E0B0E0FD
:102F600080939A0390939B03A0939C03B0939D033B
:102F700026E131E0309397032093960325EC30E06F
:102F80003093A3032093A20324EC30E03093A503F5
:102F90002093A40320EC30E03093A7032093A603F2
:102FA00021EC30E03093A9032093A80322EC30E019
:102FB0003093AB032093AA0326EC30E03093AD03AB
:102FC0002093AC031092AF031092B0031092B103A0
:102FD0001092B20310928F0410928E04809390048A
:102FE00090939104A0939204B093930488E291E0AB
:102FF00090938D0480938C0462E771E08AE395E0FE
:103000000E949E1463E871E084E395E00E949E14A0
:103010006EE871E08EE295E00E949E146CE971E02A
:1030200088E295E00E949E1464EA71E082E295E0F5
:103030000E949E14109216051092150581E080934F
:103040001C0510921F0510921E0588E491E09093D4
:1030500014058093130568EA71E08DE095E00E9405
:103060009E1410929A0410929E0410929D04109245
:103070009F04E4EBF4E010821482138215823696EA
:1030800084E0E03FF807B9F785E091E09093FB0416
:103090008093FA0481E091E09093FD048093FC0416
:1030A00081E08093FE0494E09093FF0420E431E0FB
:1030B0003093F9042093F8042AE030E030930105BE
:1030C0002093000524EF31E030930305209302059F
:1030D00010920605109205051092F4041092F50462
:1030E0001092F6041092F704109204052AE331E0DE
:1030F000309399042093980499E390930705809363
:1031000008058CE894E090930C0580930B058BEAFE
:1031100091E090938B0480938A041092890410921A
:10312000750486E594E00E94CE0E87E394E00E9449
:10313000CE0E0E94EB0A60933304709334048093A4
:103140003504909336040895CF93DF93CDB7DEB75F
:103150002C970FB6F894DEBF0FBECDBF789484B520
:10316000826084BD84B5816084BD85B5826085BD83
:1031700085B5816085BD80916E00816080936E0011
:103180001092810080918100826080938100809103
:1031900081008160809381008091800081608093B4
:1031A00080008091B10084608093B1008091B00074
:1031B00081608093B00080917A00846080937A006F
:1031C00080917A00826080937A0080917A00816099
:1031D00080937A0080917A00806880937A001092C0
:1031E000C1000E94460FE091A603F091A70382E080
:1031F0008083E091A203F091A3031082E091A403E5
:10320000F091A50380E180831092AE03E091AA03C0
:10321000F091AB0386E08083E091A803F091A903CD
:10322000808180618083E091A803F091A90380816F
:1032300088608083E091A803F091A9038081806871
:103240008083E091A803F091A90380818F7D808322
:1032500064E670E080E090E00E94B90A61E08EE0F0
:103260000E94580A60EB71E0CE0101960E949E1404
:1032700064EB71E0CE0107960E949E14BE016F5F61
:103280007F4FCE0107960E94B413CE0107960E948D
:103290000413CE0101960E9404136AE375E086E9E7
:1032A00093E00E948E136EE275E086E993E00E943F
:1032B0008E1386E993E00E9467136DEA70E086E959
:1032C00093E00E94A01361EA70E086E993E00E9417
:1032D000A013E8E0CE2ED12CE12CF12C10E001E07F
:1032E00000932C03C0922B0310929303109292032D
:1032F0008CE894E00E94CC10811127C061EC71E051
:1033000086E993E00E94B2132AE0B701A60186E99C
:1033100093E00E941B1361ED71E086E993E00E9447
:10332000B21320E1B701A60186E993E00E941B13C6
:1033300066ED71E086E993E00E947C131F5F61E017
:1033400070E080E090E00E94B90A2FEFC21AD20A22
:10335000E20AF20A88E7C816D104E104F10409F090
:10336000BFCF6BE571E086E993E00E947C1368EDC6
:1033700071E086E993E00E94B213412F50E070E0C3
:1033800060E02AE086E993E00E941B136FED71E094
:1033900086E993E00E947C130E94460F109221055B
:1033A0008CE3809320051092170510921805E0EE2B
:1033B000FAE0C590D490E2EEFAE0F490E3EEFAE0A1
:1033C000E491E0931905E4EEFAE0E491E0931A0544
:1033D000E5EEFAE0E491E0931B0510E000E00F1544
:1033E00058F4F801EC0DFD1D649183E195E00E9415
:1033F000A90C0F5F1F4FF3CF10921D050E941F0DE8
:103400008CE08093B80080911A05803429F40E94E2
:103410001F0D81E080931D0585EF98E090931F05B7
:1034200080931E050E941F0D83E195E00E946713A3
:1034300083E195E00E94671365EFE62E6BE0F62EC0
:10344000F0921F05E0921E056EEE78E083E195E0B4
:103450000E94630B02EE14E010931F0500931E05FB
:103460006DED74E083E195E00E94630BF0921F051F
:10347000E0921E056BED74E083E195E00E94630B22
:1034800010931F0500931E0565ED74E083E195E040
:103490000E94A0138FEC90E090931F0580931E056F
:1034A0006AEB70E083E195E00E94A01360ED77E0A5
:1034B00080E090E00E94B90A0E941F0D89E380938A
:1034C0003A040E94460F87E394E00E949A1210E0AB
:1034D00000E0EE24E394F12C909139046701002E72
:1034E00001C0CC0C0A94EAF72C2D209592239093DE
:1034F00039048091370482238093370487E394E072
:103500000E94B311809137048C298093370487E39C
:1035100094E00E94B3110F5F1F4F08301105E1F6D0
:1035200064E670E080E090E00E94B90A8AED94E1E0
:10353000909306058093050580E491E09093F9044B
:103540008093F8046FEF7FEF88E994E00E94CC113C
:1035500060910805613208F060E2809107050E94E1
:103560007E0F109295038093940380910B059091A8
:103570000C05DC01ED91FC910284F385E02D0995A9
:1035800090930A0580930905809108058230B8F070
:1035900080910B0590910C05DC01ED91FC9102846A
:1035A000F385E02D099520E0382F80910905909151
:1035B0000A05822B932B90930A058093090588E8CE
:1035C00093E1909303058093020582E390E090934A
:1035D0000105809300056BEE71E086E993E00E949F
:1035E0007C138FE3809359040E94460F86E594E094
:1035F0000E949A12809158048064809358048091AC
:1036000056048F7B8093560486E594E00E94B311A4
:10361000809156048F7B8093560486E594E00E9447
:10362000B3116EEF71E086E993E00E94B21364E09B
:1036300072E086E993E00E94B2132AE046E050E08F
:1036400060E070E086E993E00E941B136CE072E09A
:1036500086E993E00E94B2132AE040E050E0BA010C
:1036600086E993E00E941B1386E993E00E946713AA
:1036700086E993E00E94671366E172E086E993E0D1
:103680000E947C1360ED77E080E090E00E94B90A30
:1036900060EB71E0CE0101960E949E1465E372E03A
:1036A000CE0107960E949E14BE016F5F7F4FCE0130
:1036B00007960E94B413CE0107960E940413CE0110
:1036C00001960E94041336E0432E49E2C42E41E1E4
:1036D000D42E55EF252E5BE0352E772473940E946F
:1036E000EB0A009133041091340420913504309199
:1036F0003604601B710B820B930B68387341810594
:10370000910518F10E94EB0A60933304709334041E
:103710008093350490933604CE0101960E945B1489
:1037200065E774E0CE0107960E949E14BE016F5FAC
:103730007F4FCE0107960E94B413CE0107960E94D8
:103740000413CE0101960E940413709204050E9496
:10375000EB0A0091F4041091F5042091F6043091E5
:10376000F704AB01BC01401B510B620B730B809142
:10377000000590910105B0E0A0E084179507A60729
:10378000B70708F43EC1109204050E94EB0A0091AD
:103790002D0310912E0320912F0330913003601BD5
:1037A000710B820B930B693873418105910528F1E8
:1037B00080913303882309F1CE0101960E945B14A6
:1037C00064E472E0CE0107960E949E14BE016F5F12
:1037D0007F4FCE0107960E94B413CE0107960E9438
:1037E0000413CE0101960E940413109233037092C9
:1037F00000011092890410927504E5E7F4E001904D
:103800000020E9F7EA57F44009F062C01092330350
:103810007092000180918A0490918B04FC01319197
:1038200020917504A6E7B4E044963111DFC121115F
:10383000E5C170923203CE0107960E945B146BE4DF
:1038400072E0CE0101960E949E14BE01695F7F4F17
:10385000CE0101960E94B413CE0101960E9404137A
:10386000CE0107960E9404138091560480648093D1
:10387000560486E594E00E94B31164E572E0CE013F
:1038800001960E949E1480910D0590910E0500975F
:1038900009F4DFC169817A816115710509F4D7C125
:1038A00040910F05509110052D813E81421753071D
:1038B00008F4CDC10E941A218D819E81909312053A
:1038C000809311051E821D82CE0101960E94041371
:1038D0000E94EB0A009134031091350320913603C6
:1038E00030913703601B710B820B930B6938734166
:1038F0008105910530F080913303811102C07092EF
:10390000000180910001882309F44EC00E94EB0A57
:103910006093340370933503809336039093370399
:10392000109200018091750481110E94EC13809126
:103930003203882309F4A4C164EF71E080E090E0D1
:103940000E94B90AD0921F05C0921E050E941F0D49
:1039500065E57BE083E195E00E94A01362E47BE0F3
:1039600083E195E00E94A01360E37BE083E195E0B2
:103970000E94A0136DE17BE083E195E00E94A0131B
:103980006BE07BE083E195E00E94A01369EF7AE0B1
:1039900083E195E00E94A01366EE7AE083E195E072
:1039A0000E94630B7092380380913803882309F4D6
:1039B000D0C160EB71E0CE0107960E949E146FE5C6
:1039C00072E0CE0101960E949E14BE01695F7F4F96
:1039D000CE0101960E94B413CE0101960E940413F9
:1039E000CE0107960E9404136DE672E086E993E02B
:1039F0000E947C1364E670E080E090E00E94B90AC7
:103A0000F9CF612C8091FF04681608F055C0A62CF0
:103A1000B12CE091FC04F091FD04EA0DFB1D40E0A7
:103A2000608188E994E00E940F1281E090E0A0E0BC
:103A3000B0E0062C04C0880F991FAA1FBB1F0A9470
:103A4000D2F74C017C01E094F094512C8091FE045B
:103A5000581618F5052D10E0E091FA04F091FB04DA
:103A6000E00FF11F608188E994E00E94B2120C5FC0
:103A70001F4F000F111FF801E856FB4F892B41F42F
:103A80008081918188299929918380835394DECF05
:103A9000808191818E219F21F7CF8091FC049091AC
:103AA000FD04A80EB91E41E0F501608188E994E0AB
:103AB0000E940F126394A6CF98E9E92E94E0F92EA4
:103AC0008701D8015F968D919C919097892B59F42D
:103AD0005C961C925C97EFEFFFEF5E96FC93EE9383
:103AE0005D9791961C920A5F1F4FF4E0043D1F07FB
:103AF00041F7B12C8091FE04B81608F052C0A12CF9
:103B00008B2C912C880C991CC40180569B4F4C0126
:103B10002091FF04A21608F042C0D4016D917C915F
:103B20000A2C02C0769567950A94E2F7B29E90013E
:103B300011242A0D311DE8E9F4E080E0458D568D11
:103B40002417350709F412C18F5F36968A30B1F712
:103B500060FF23C0E8E9F4E090E080E0448D41118B
:103B600017C0E091F804F091F904E20FF31F4081CF
:103B7000489EF001499EF00D1124E856FB4F448FFA
:103B8000368F258F10A2178E61E00E94F70A05C0BC
:103B9000019636968A30910509F7A394B9CFB3946C
:103BA000A9CFB12CF70181A18111B82EF6E0EF0E5B
:103BB000F11C0E151F05B1F70E94EB0A6093F40487
:103BC0007093F5048093F6049093F704BB2009F4F6
:103BD000DACD8091B904882309F4D5CD8091B7045A
:103BE0009091B804019709F0CECDCFCD321306C025
:103BF00031912D918E179F0709F017CE70923103E6
:103C0000CE0101960E945B1468E572E0CE01079632
:103C10000E949E14BE016F5F7F4FCE0107960E94E7
:103C2000B413CE0107960E940413CE0101960E94A0
:103C300004138091750481110E94EC1310923303D8
:103C400070920001109289041092750441CE0E9476
:103C5000CB1F89819A8190930E0580930D058B81EE
:103C60009C819093100580930F058D819E81909388
:103C70001205809311051A8219821C821B8222CEA2
:103C800080913103882309F441C064EF71E080E042
:103C900090E00E94B90AD0921F05C0921E050E94B2
:103CA0001F0D67ED7BE083E195E00E94A01364ECBB
:103CB0007BE083E195E00E94A01362EB7BE083E16F
:103CC00095E00E94A0136FE97BE083E195E00E94FC
:103CD000A0136CE87BE083E195E00E94A0136BE702
:103CE0007BE083E195E00E94A01368E67BE083E13E
:103CF00095E00E94630B68EE73E080E090E00E9424
:103D0000B90A70920001109231034ECE80913303B4
:103D100081114ACE0E941F0DD0921F05C0921E0530
:103D200083E195E00E94671330921F0520921E05E3
:103D300083E195E00E9467136AEE7BE083E195E002
:103D40000E94630B6DE075E083E195E00E948E13A5
:103D50002BCEE0E0F0E0EF2B09F4C1CC0E94F10B98
:103D6000882309F4BACC0E940000B7CC61700DCF53
:103D70008DE095E00E94041382E295E00E94041316
:103D800088E295E00E9404138EE295E00E940413FD
:103D900084E395E00E9404138AE395E00C940413F5
:103DA0002F923F924F925F926F927F928F929F924B
:103DB000AF92BF92CF92DF92EF92FF920F931F9339
:103DC000CF93DF93CDB7DEB7CA1BDB0B0FB6F894EA
:103DD000DEBF0FBECDBF09942A88398848885F842A
:103DE0006E847D848C849B84AA84B984C884DF809B
:103DF000EE80FD800C811B81AA81B981CE0FD11D7F
:103E00000FB6F894DEBF0FBECDBFED010895A1E25D
:103E10001A2EAA1BBB1BFD010DC0AA1FBB1FEE1F44
:103E2000FF1FA217B307E407F50720F0A21BB30B8F
:103E3000E40BF50B661F771F881F991F1A9469F70B
:103E400060957095809590959B01AC01BD01CF0167
:103E50000895EE0FFF1F0590F491E02D09940F9344
:103E60001F93CF93DF938230910510F482E090E0AE
:103E7000E0914205F091430530E020E0B0E0A0E0A1
:103E8000309799F42115310509F44AC0281B390BE4
:103E900024303105D8F58A819B816115710589F13E
:103EA000FB0193838283FE0111C040815181028115
:103EB000138148175907E0F04817590799F41097EC
:103EC00061F012960C93129713961C933296CF01C1
:103ED000DF91CF911F910F910895009342051093A8
:103EE0004305F4CF2115310551F04217530738F03F
:103EF000A901DB019A01BD01DF01F801C1CFEF018A
:103F0000F9CF9093430580934205CDCFFE01E20F98
:103F1000F31F819391932250310939832883D7CF9E
:103F20002091400530914105232B41F42091080157
:103F300030910901309341052093400520910601FD
:103F4000309107012115310541F42DB73EB740915D
:103F50000A0150910B01241B350BE0914005F091B3
:103F60004105E217F307A0F42E1B3F0B2817390772
:103F700078F0AC014E5F5F4F2417350748F04E0FC5
:103F80005F1F5093410540934005819391939FCFCC
:103F9000F0E0E0E09CCFCF93DF930097E9F0FC01E5
:103FA000329713821282A0914205B0914305ED0130
:103FB00030E020E01097A1F420813181820F931F1F
:103FC00020914005309141052817390709F061C05B
:103FD000F0934105E0934005DF91CF910895EA0108
:103FE000CE17DF07E8F54A815B819E014115510537
:103FF000B1F7E901FB83EA8349915991C40FD51FB9
:10400000EC17FD0761F4808191810296840F951F62
:10401000E90199838883828193819B838A83F0E07D
:10402000E0E012968D919C9113970097B9F52D9130
:104030003C911197CD010296820F931F209140056C
:10404000309141052817390739F6309751F510920C
:10405000430510924205B0934105A0934005BCCFA3
:10406000D383C28340815181840F951FC817D9071C
:1040700061F44E5F5F4F88819981480F591F5183CA
:1040800040838A819B81938382832115310509F0C6
:10409000B0CFF0934305E09342059ECFFD01DC01D4
:1040A000C0CF13821282D7CFB0E0A0E0EAE5F0E201
:1040B0000C94D21E8C01009751F4CB010E942F1F4B
:1040C0008C01C801CDB7DEB7E0E10C94EE1EFC0117
:1040D000E60FF71F9C0122503109E217F30708F49D
:1040E0009DC0D901CD91DC911197C617D70798F0E3
:1040F000C530D10530F3CE0104978617970708F332
:10410000C61BD70B2297C193D1936D937C93CF019C
:104110000E94CB1FD6CF5B01AC1ABD0A4C018C0E9E
:104120009D1EA0914205B0914305512C412CF12CCC
:10413000E12C109731F5809140059091410588154B
:10414000990509F05CC04616570608F058C08091E2
:10415000060190910701009741F48DB79EB74091F9
:104160000A0150910B01841B950BE817F90708F021
:1041700055C0F0934105E0934005F90171836083D8
:10418000A0CF8D919C91119712966C9012971396D7
:104190007C901397A815B90559F56C0142E0C40E3F
:1041A000D11CCA14DB0420F1AC014A195B09DA0105
:1041B0001296159780F06282738251834083D901F1
:1041C0006D937C93E114F10471F0D7011396FC9385
:1041D000EE93129776CF22968C0F9D1FF901918353
:1041E0008083F301EFCFF0934305E093420569CF5D
:1041F0004816590608F42C017D01D3019ACFCB0152
:104200000E942F1F7C01009749F0AE01B8010E9467
:104210001121C8010E94CB1F870153CF10E000E09D
:1042200050CFFB01DC0102C001900D924150504083
:10423000D8F70895FB01DC0101900D920020E1F711
:10424000089519E0C1EBD9E004C0FE010E94291FC6
:0C4250002196C23BD107C9F7F894FFCFBC
:10425C000100010203040000440580006B006C00A7
:10426C006D0000000000270C870BB40B740CE50BE1
:10427C00C30BD70B000000009D10701097124D104F
:10428C00C70E5D104E1000000000530B0F12B2123F
:10429C0052474257000000003D0D870B9712540BFC
:1042AC005A120D0A002142722C002C446F6E652E9E
:1042BC0000507265737365643A2000484F4C443A61
:1042CC002000474C5F53545F434F4C4F525F434F5A
:1042DC0044450031302E30352E3230323100766587
:1042EC007273696F6E20312E305354004272434FFB
:1042FC004C4F5200484944004F4E00524742570021
:10430C005359530021536574757020426567696E6B
:10431C0000466F756E6420616464726573733A2035
:10432C000020283078002900466F756E642000202C
:10433C006465766963652873292E00696E697469F2
:10434C00616C697A696E672072656C6179002020F6
:10435C002020200052656C6179205B005D20736524
:10436C007420746F20007375636365737366756C6A
:10437C006C7920696E697469616C697A6564207204
:10438C00656C617900536574757020436F6D706C4A
:10439C00657465002152657365740021436F7272F8
:1043AC00656374004F4646002157726F6E67004775
:1043BC00616D6520436F6D706C65746500456E644E
:1043CC002047616D652C20506C65617365207265AA
:1043DC007374617274207468652061726475696E9F
:0443EC006F2100003D
:00000001FF
