:100000000C94E1050C9409060C9409060C94C307A2
:100010000C949E070C9479070C9409060C9409061D
:100020000C9409060C9409060C9409060C94090614
:100030000C9409060C9409060C9409060C94090604
:100040000C94C2130C9409060C94000F0C94DA0E55
:100050000C9409060C9409060C9409060C940906E4
:100060000C94E8070C940906AED580A83FD3004055
:100070008D142002A1C8DA12817FD9F1DB40A4A639
:10008000AF206465766963652873292E0020646556
:10009000766963652873292E00466F756E642000AB
:1000A000466F756E642000202D3E2052656C61798C
:1000B00000202D3E20446973706C617900202D3E34
:1000C00020427574746F6E73002900290020283057
:1000D00078002028307800466F756E642061646473
:1000E000726573733A2000493243205363616E2E68
:1000F0002E2E005363616E6E696E672E2E2E0049A0
:100100003243207363616E6E65723A00000005072A
:100110002061000000000000005F000000070007F1
:1001200000147F147F14242A7F2A12231308646288
:1001300036495522500005030000001C22410000F2
:1001400041221C00082A1C2A0808083E0808005002
:10015000300000080808080800606000002010084F
:1001600004023E5149453E00427F400042615149F0
:10017000462141454B311814127F1027454545391A
:100180003C4A494930017109050336494949360657
:100190004949291E00363600000056360000000886
:1001A00014224114141414144122140800020151A1
:1001B0000906324979413E7E1111117E7F49494934
:1001C000363E414141227F4141221C7F49494941FC
:1001D0007F090901013E414151327F0808087F0033
:1001E000417F41002040413F017F081422417F4070
:1001F0004040407F0204027F7F0408107F3E41415F
:10020000413E7F090909063E4151215E7F091929B6
:1002100046464949493101017F01013F4040403F85
:100220001F2040201F7F2018207F631408146303C1
:1002300004780403615149454300007F41410204B1
:1002400008102041417F00000402010204404040A8
:100250004040000102040020545454787F48444434
:10026000383844444420384444487F38545454185F
:10027000087E090102081454543C7F0804047800E5
:10028000447D40002040443D00007F102844004150
:100290007F40007C041804787C08040478384444C7
:1002A00044387C14141408081414187C7C080404C2
:1002B000084854545420043F4440203C4040207C93
:1002C0001C2040201C3C4030403C44281028440C5A
:1002D0005050503C4464544C4400083641000000E7
:1002E0007F0000004136080008082A1C08081C2A64
:1002F000080800060909066800198040006F6B2E87
:10030000004B657970616420006F6B2E004578703A
:10031000616E646572200020204D61676E65743ADD
:100320002000202020202020272E5F5F5F5F5F2E8F
:10033000272020200020202020205C20202F20208B
:10034000205C20202F00202020207C202020205FE7
:100350005F5F202020207C2000202020207C202087
:100360002020202020202020207C20002020202051
:10037000202F20206F2020206F20205C20002020B4
:10038000202020202E272020202020272E20202043
:100390000020202020202020205F5F5F5F5F202042
:1003A000202020004E6575737461727420696E00A0
:1003B000202020202020272E5F5F5F5F5F2E2720D8
:1003C00020200020202020205C2020272D2D2D27DC
:1003D00020202F2000202020207C20205C20202096
:1003E00020202F20207C00202020207C2020202066
:1003F000202020202020207C200020202020202FB2
:1004000020206F2020206F20205C20002020202032
:1004100020202E272020202020272E2020200020D2
:10042000202020202020205F5F5F5F5F2020202091
:100430002000200020200020200022080D0E206037
:100440000402050607080902030305080204020462
:100450000704070707070707070702020707070838
:100460000E0908080807070908020708070B08090A
:10047000070909070808090D070808040404060805
:10048000030707060707050707020306020A07070F
:10049000070705060507070B0607050501050708F9
:1004A0000000000000000000FEFE18181E1E001EC6
:1004B0001E000000000090F89E90F89E1C00001C9A
:1004C0000000183C26FF66CC88040C183C180C046D
:1004D0001C221CC0308E408000001804000C100C40
:1004E00080CC7E72F2DE0C80000C1C1010101C0CF4
:1004F0001C101E1E0000F0FC061C7CC006FCF0C098
:100500007C1C14140E14140000000000606060FCD9
:10051000FC6060600000000C0C0000000000583817
:10052000C0C0C0C0000000000000181800C038069D
:1005300018040000F8FC0E060EFCF8040C1C181C35
:100540000C04180CFEFE00001C1C181C86C6663E1F
:100550001C181C1C18181818888C062626FEDC048B
:100560000C1C18180C04C0E0B88CFEFE80040404B7
:10057000041C1C04707E3E3636F6C60C1C18181877
:100580000C04F8FC6E6666EECC040C1818181C0CF3
:10059000060606E6761E0600001C1C0000009CFEF7
:1005A000666666FE9C0C1C1818181C0C3C7E666661
:1005B00066FCF80C1C18181C0C04181818181818CD
:1005C00058386060F0F098980C0000000004040CAB
:1005D000D8D8D8D8D8D8D8000000000000000C988F
:1005E00098F0F060600C040400000000080C06C6DF
:1005F000E6763C180000001818000000E03008C43F
:10060000F63A1A1AF2FA7E0408F00C30604C9C9804
:10061000988C9C9C90484C2000C0F8BE86BEF8C0C8
:1006200000181C04040404041C18FEFE66666666BA
:10063000FEDC1C1C181818181C0CF8FC0E06060E04
:100640009C08040C1C18181C0C04FEFE0606060E62
:10065000FCF81C1C1818181C0C04FEFE6666666666
:10066000661C1C1818181818FEFE66666666061CBE
:100670001C0000000000F8FC0E0606C6CEDCC80414
:100680000C1C181818180C04FEFE60606060FEFE5A
:100690001C1C000000001C1CFEFE1C1C80800000B6
:1006A00000FEFE0C1C1818181C0CFEFE603078ECC6
:1006B00086021C1C000000041C18FEFE0000000046
:1006C000001C1C1818181818FEFE0E7CE000E07CB8
:1006D0000EFEFE1C1C00000C1C0C00001C1CFEFE70
:1006E0001C78E080FEFE1C1C0000040C1C1CF8FCA6
:1006F0000E0606060EFCF8040C1C1818181C0C0438
:10070000FEFE6666667E3C1C1C0000000000F8FCD5
:100710000E0686060EFCF8040C1C18181C0C1C2473
:10072000FEFE6666E6E6BE1C001C1C0000000C1CFB
:1007300018103C7E666666EECC0C1C1818181C0C53
:10074000060606FEFE0606060000001C1C00000051
:10075000FEFE00000000FEFE040C1C18181C0C0419
:10076000021EFCE000E0FC1E020000001C1C1C003D
:10077000000006FEF800F0FE0EFEF000F8FE060097
:10078000001C1C1C0000001C1C1C0000060EF8F0C5
:10079000F80E06181C0400041C18060E38F0F03879
:1007A0000E060000001C1C000000060686E6761EF1
:1007B0000E06181C1C1818181818FEFE0606FCFC5D
:1007C000C0C00638C000000004180606FEFEC0C007
:1007D000FCFC20380E0E3820000000000000000055
:1007E0000000000000008080808080808080020601
:1007F000040000001098D858F8F0000C1C18180CD1
:100800001C10FEFE301838F0E01C1C0C181C0C04E8
:10081000E0F018183830040C18181C0CE0F03818E8
:1008200030FEFE040C1C180C1C1CE0F0D8D8D8F0CC
:10083000E0040C181818180818FCFE1A1A001C1CE2
:100840000000E0F0381830F8F864ECDCD8CCFC7C20
:10085000FEFE301818F8F01C1C0000001C1CFAFAF0
:100860001C1C00FAFAC0FC7CFEFEE0F098081C1C80
:1008700000041C18FEFE1C1CF8F81018F8F01818DC
:10088000F8F01C1C00001C1C00001C1CF8F83018A0
:1008900018F8F01C1C0000001C1CE0F0381838F0A0
:1008A000E0040C1C181C0C04F8F8301838F0E0FCBC
:1008B000FC0C181C0C04E0F0381830F8F8040C1C80
:1008C000180CFCFCF8F83018181C1C00000070F81C
:1008D000D8D8D890081818181C0C18FCFE18180046
:1008E0000C1C1818F8F8000000F8F80C1C18180C6C
:1008F0001C1C38F8C000C0F83800001C1C1C00008C
:1009000018F8E000F038F000E0F81800001C1C0CAB
:10091000000C1C1C00001838E0E03818181C0404F7
:100920001C1818F8E000E0F8180084FCF83C0400FB
:100930001898D878381C1C18181880FC7E060600F9
:100940007CFCC0C0FEFC06067EFC80C0C0FC7C00B7
:100950006030307060603000000000000000FE0277
:100960000202020202FE1C1010101010101C0000E7
:1009700005072060000000000000005F0000000785
:10098000000700147F147F14242A7F2A12231308DF
:10099000646236495620500008070300001C2241BB
:1009A000000041221C002A1C7F1C2A08083E08085F
:1009B000008070300008080808080000606000200F
:1009C000100804023E5149453E00427F40007249F2
:1009D0004949462141494D331814127F1027454596
:1009E00045393C4A494931412111090736494949AC
:1009F00036464949291E000014000000403400001A
:100A00000008142241141414141400412214080282
:100A1000015909063E415D594E7C1211127C7F49F5
:100A20004949363E414141227F4141413E7F49494A
:100A300049417F090909013E414151737F08080876
:100A40007F00417F41002040413F017F0814224147
:100A50007F404040407F021C027F7F0408107F3EA1
:100A60004141413E7F090909063E4151215E7F090E
:100A7000192946264949493203017F01033F404075
:100A8000403F1F2040201F3F4038403F6314081460
:100A90006303047804036159494D43007F41414198
:100AA0000204081020004141417F04020102044079
:100AB00040404040000307080020545478407F28FD
:100AC0004444383844444428384444287F385454F3
:100AD000541800087E090218A4A49C787F08040416
:100AE0007800447D40002040403D007F10284400B5
:100AF00000417F40007C047804787C080404783846
:100B000044444438FC1824241818242418FC7C0875
:100B1000040408485454542404043F44243C4040F2
:100B2000207C1C2040201C3C4030403C44281028A5
:100B3000444C9090907C4464544C440008364100EE
:100B40000000770000004136080002010204023C68
:100B50002623263C00030C0F30333C3FC0C3CCCFD0
:100B6000F0F3FCFF00000000230026002900000035
:100B70000000240027002A000000000025002800B3
:100B80002B0004040404040404040202020202020E
:100B90000303030303030102040810204080010241
:100BA00004081020010204081020000000080002C0
:100BB00001000003040700000000000000006819A5
:100BC000501911241FBECFEFD8E0DEBFCDBF25E006
:100BD000A0EBB2E001C01D92A635B207E1F712E02A
:100BE000A0E0B1E0E4E8F9E302C005900D92A03B7B
:100BF000B107D9F715E0C0EED5E004C02197FE019A
:100C00000E94B31ACF3DD107C9F70E940C140C946F
:100C1000B51C0C9400008091A10390E02091A203E8
:100C2000821B9109089590E0FC01EE0FFF1FE85927
:100C3000F44FA591B4912C91FC01EF5AFC4F3081F7
:100C40002083880F991FFC01E45FFE4F0190F08123
:100C5000E02D8081089585ED8093BC008091BC00DB
:100C600084FDFCCF10929E0308954091FE02262F32
:100C700030E0240F311D21323105DCF420919E0338
:100C80002430C9F4FC0180E090E0861758F43091DC
:100C9000FE022191DC01A252BD4FA30FB11D2C9386
:100CA0000196F3CF8091FE02680F6093FE0280E010
:100CB000089581E0089582E00895089508950895C3
:100CC000E091A2038091A103E81730F4F0E0EC5A20
:100CD000FC4F808190E008958FEF9FEF08959091F1
:100CE000A2038091A103981750F4E92FF0E0EC5A89
:100CF000FC4F208130E09F5F9093A20302C02FEF52
:100D00003FEFC9010895CF92DF92EF92FF920F93C8
:100D10001F93CF93DF937C01CB018A012091B10215
:100D2000222389F0EB016B01C40ED51ECC15DD0525
:100D300069F06991D701ED91FC910190F081E02D6E
:100D4000C7010995F3CF642F0E943506C801DF91D2
:100D5000CF911F910F91FF90EF90DF90CF9008956A
:100D6000CF93DF931F92CDB7DEB769832091B10295
:100D70002223D1F020919F03203240F021E030E087
:100D8000FC013383228380E090E015C08091A003B2
:100D9000E82FF0E0E254FD4F998190838F5F8093BC
:100DA000A00380939F0305C061E0CE0101960E94DD
:100DB000350681E090E00F90DF91CF91089508957E
:100DC00080E090E00895CF93DF93EC019C818E81C9
:100DD000981758F4E881F9810084F185E02D42E00C
:100DE000CE0109958C818F5F8C83DF91CF9108951F
:100DF000DC01ED91FC910084F185E02D40E0099447
:100E0000FC012781269526952695621720F4658397
:100E1000606B0C94F8060895CF92DF92EF92FF92E8
:100E20000F931F93CF93DF93EC01162FC42ED22E76
:100E30008F81869586958695081710F00FEF080F1D
:100E4000FD2C8E810F15A8F0181720F4612FCE010C
:100E50000E94920F6F2DCE010E940007E12ECE144A
:100E600030F060E0CE010E94E306E394F8CFF39403
:100E7000E8CF181720F4612FCE010E94920F6D2D3C
:100E8000CE01DF91CF911F910F91FF90EF90DF90F6
:100E9000CF900C940007CF93DF93EC0189818C8372
:100EA00061E08B810E94B8111092A2038093A1038C
:100EB000811101C0FFCF85E994E00E946F0689830C
:100EC000DF91CF910895FC0110821182128213826A
:100ED000148215821682DC0117960F961D92A817B0
:100EE000B907E1F77F961D921D92EA17FB07D9F724
:100EF00008951F920F920FB60F9211242F933F93D4
:100F00004F935F936F937F938F939F93AF93BF9311
:100F1000EF93FF9382E00E941306FF91EF91BF9140
:100F2000AF919F918F917F916F915F914F913F9181
:100F30002F910F900FBE0F901F9018951F920F9238
:100F40000FB60F9211242F933F934F935F936F939C
:100F50007F938F939F93AF93BF93EF93FF9381E022
:100F60000E941306FF91EF91BF91AF919F918F91D6
:100F70007F916F915F914F913F912F910F900FBE95
:100F80000F901F9018951F920F920FB60F92112479
:100F90002F933F934F935F936F937F938F939F9381
:100FA000AF93BF93EF93FF9380E00E941306FF91EE
:100FB000EF91BF91AF919F918F917F916F915F91D1
:100FC0004F913F912F910F900FBE0F901F9018954A
:100FD0001F920F920FB60F9211242F933F934F93AE
:100FE0005F936F937F938F939F93AF93BF93EF9391
:100FF000FF938091B900887F803609F49CC068F522
:10100000883209F45BC090F4803109F454C038F49C
:10101000882309F4F6C0883009F44DC0F6C0883141
:1010200009F44CC0803209F45DC0EFC0803409F48B
:1010300068C048F4803309F455C0883309F0E5C02E
:1010400080939703D8C0803509F44FC0883509F4E0
:101050005DC0883409F0D9C0D6C0883909F4C7C04A
:10106000A8F4883709F467C038F4883609F463C0F7
:10107000803709F460C0C9C0883809F4B8C0803925
:1010800009F45FC0803809F0C0C05BC0803B09F440
:1010900086C038F4803A09F466C0883A09F47FC003
:1010A000B4C0803C09F4A7C0883C09F4A4C0883BC4
:1010B00009F48AC0AAC08091940310C0909196034D
:1010C00080919503981770F5E091960381E08E0F5B
:1010D00080939603F0E0EC58FC4F80818093BB0036
:1010E00085EC86C0809397038EC0E091960381E0E3
:1010F0008E0F809396038091BB00F0E0EC58FC4F7C
:10110000808390919603809195036EC0E091960341
:1011100081E08E0F809396038091BB00F0E0EC5845
:10112000FC4F808380919D0381116DC081E080938D
:101130009C0384EA61C083E080939E0310922003A5
:10114000CFCF80912003803208F051C0E09120037E
:1011500081E08E0F809320038091BB00F0E0E0508F
:10116000FD4F8083BDCF85EC8093BC0010929E0321
:1011700080912003803230F4E0912003F0E0E050D1
:10118000FD4F10826091200370E0E0919803F09190
:10119000990380E093E009951092200336C084E023
:1011A00080939E031092FF021092FE02E0919A0338
:1011B000F0919B0309958091FE02811105C081E0A9
:1011C0008093FE021092DE02E091FF0281E08E0F1A
:1011D0008093FF02F0E0E252FD4F80818093BB00DC
:1011E0009091FF028091FE02981708F479CF85E86C
:1011F0008093BC000AC085EC8093BC0010929E03D3
:1012000004C0109297030E942B06FF91EF91BF91AB
:10121000AF919F918F917F916F915F914F913F918E
:101220002F910F900FBE0F901F90189530919F0334
:10123000313208F04BC080919E038111FCCF909118
:10124000B00222E020939E0321E020939D032FEF24
:10125000209397031092960330939503EEEBF2E000
:10126000A4E7B3E020E0321721F041914D932F5FC6
:10127000FACF1092940320919403990F922B90939C
:10128000940390919C03913061F410929C0390918F
:1012900094039093BB009091BC0093FDF8CF95EC24
:1012A00001C095EE9093BC0090919E039230E1F3C3
:1012B000909197039F3F79F080919703803241F09E
:1012C00080919703803331F084E005C081E003C052
:1012D00082E001C083E01092A00310929F0310925D
:1012E000B1020895FC01918162818081238131E006
:1012F0003093B1022093B0021092A00310929F038A
:1013000060956923682B85E994E00E94B00685E921
:1013100094E00C9416090F931F93CF93DF93EC0185
:10132000062F142F8E85813120F4882339F0411146
:1013300005C085E994E00E9416091E868E858111FC
:1013400013C08D8591E09093B1028093B00210920A
:10135000A00310929F03112311F060E401C060E02C
:1013600085E994E00E94B006602F85E994E00E9430
:10137000B006123021F48E858F5F8E8705C085E917
:1013800094E00E9416091E86DF91CF911F910F9164
:1013900008951F93CF93DF93CDB7DEB72C970FB689
:1013A000F894DEBF0FBECDBF182F8091C00490917E
:1013B000C1048130910569F0029709F05DC065E2D2
:1013C00072E083EA93E00E94940E812F0E9406123D
:1013D00053C06BE172E083EA93E00E94940E812F88
:1013E0000E94061281E08093B402809300010E9463
:1013F0005B136093B5027093B6028093B70290932B
:10140000B802E0919204E33169F081E08E0F80939D
:101410009204F0E0E258FB4F1083E82FF0E0E2582E
:10142000FB4F108218861F821A8619861C861B861F
:1014300060912B0570912C056115710541F040916B
:101440002F0550913005CE0107960E94DB0D6EE707
:1014500074E0CE0101960E94200EBE01695F7F4FAD
:10146000CE0101960E941713CE0101960E941B0E19
:10147000CE0107960E941B0E2C960FB6F894DEBF85
:101480000FBECDBFDF91CF911F910895CF92DF9214
:10149000EF92FF920F931F93CF93DF93CDB7DEB7F9
:1014A0002C970FB6F894DEBF0FBECDBF0E945B1322
:1014B0000091BA021091BB022091BC023091BD0292
:1014C000DC01CB01801B910BA20BB30B893893413C
:1014D000A105B10528F08091B402882309F498C1D0
:1014E00080910001882309F4B2C10E945B136093CC
:1014F000BA027093BB028093BC029093BD0210921B
:1015000000018091B402882309F441C00E949A111D
:101510008EE699E090932805809327058CE195E06D
:101520000E947E0E8AE394E090932805809327051D
:101530008CE195E00E947E0E67E374E08CE195E01B
:101540000E94A40E64E374E08CE195E00E94A40E76
:101550000EE714E07801F70101900020E9F7CF01D0
:101560008E57944098012E5734402817390708F0B9
:101570006EC1F80161918F018CE195E00E94AA0F84
:1015800062E374E08CE195E00E94A40EE4CF8091C8
:10159000B202882309F4CCC08EE699E09093280526
:1015A000809327050E949A116FE174E08CE195E029
:1015B0000E94C80E6CE074E08CE195E00E94C80EB9
:1015C0006AEF73E08CE195E00E94C80E67EE73E06D
:1015D0008CE195E00E94C80E65ED73E08CE195E02A
:1015E0000E94C80E63EC73E08CE195E00E94C80E87
:1015F00060EB73E08CE195E00E94A40E68EE73E06E
:1016000080E090E00E94DD1281E080930001109262
:10161000B20264E571E0CE0101960E94200E6CE2F8
:1016200072E0CE0107960E94200EBE016F5F7F4FD1
:10163000CE0107960E941713CE0107960E941B0E3B
:10164000CE0101960E941B0E64E372E083EA93E0F0
:101650000E94820EC12CD12C01E010E08091610427
:1016600078010C2C01C0EE0C0A94EAF78E298093C5
:10167000610480915F049E2D9095892380935F047F
:101680008FE594E00E94720980915F04E82AE0925D
:101690005F048FE594E00E947209FFEFCF1ADF0A22
:1016A00028E0C216D104D1F664E472E083EA93E044
:1016B0000E94820E64EA73E083EA93E00E94C80EFF
:1016C0000E949A1169E472E08CE195E00E94820E1A
:1016D0006AEF70E080E090E00E94DD1283E0C82EA7
:1016E000D12CE12CF12C2AE0B701A60183EA93E08A
:1016F0000E94350E83EA93E00E947E0E2AE0B70135
:10170000A6018CE195E00E94350E8CE195E00E94E7
:101710007E0E68EE73E080E090E00E94DD1281E0D2
:10172000C81AD108E108F108F1F60C9400008FC046
:101730008091B302882309F444C064EF71E080E033
:1017400090E00E94DD128EE699E090932805809348
:1017500027050E949A1161E973E08CE195E00E94EF
:10176000C80E6EE773E08CE195E00E94C80E6CE64F
:1017700073E08CE195E00E94C80E69E573E08CE1AE
:1017800095E00E94C80E66E473E08CE195E00E944B
:10179000C80E65E373E08CE195E00E94C80E62E23A
:1017A00073E08CE195E00E94A40E68EE73E080E0A7
:1017B00090E00E94DD1281E0809300011092B3025C
:1017C00046C00E949A118EE699E090932805809376
:1017D00027058CE195E00E947E0E8AE394E09093C9
:1017E0002805809327058CE195E00E947E0E67E135
:1017F00073E08CE195E00E94A40E66E175E08CE157
:1018000095E00E94960E8CE195E00E947E0E1FC02E
:1018100064E571E0CE0107960E94200E65E572E056
:10182000CE0101960E94200EBE01695F7F4FCE015E
:1018300001960E941713CE0101960E941B0ECE0145
:1018400007960E941B0E81E08093000149CE2C96E2
:101850000FB6F894DEBF0FBECDBFDF91CF911F91C1
:101860000F91FF90EF90DF90CF9008950895CF9261
:10187000DF92EF92FF920F931F93CF93DF936C0150
:101880007A018B01C0E0D0E0CE15DF0581F0D801F0
:101890006D918D01D601ED91FC910190F081E02DCB
:1018A000C6010995892B11F02196EECF7E01C70163
:1018B000DF91CF911F910F91FF90EF90DF90CF902C
:1018C0000895FC01538D448D252F30E0842F90E046
:1018D000821B930B541710F0CF960895019708952B
:1018E000FC01918D828D981761F0828DDF01A80F28
:1018F000B11D5D968C91928D9F5F9F73928F90E04A
:1019000008958FEF9FEF0895FC01918D828D9817B8
:1019100031F0828DE80FF11D858D90E008958FEFF5
:101920009FEF0895FC01918D228D892F90E0805CBE
:101930009F4F821B91098F739927089583EA93E043
:101940000E94920C21E0892B09F420E0822F089557
:10195000FC01848DDF01A80FB11DA35ABF4F2C914C
:10196000848D90E001968F739927848FA689B7891B
:101970002C93A089B1898C91837080648C93938D12
:10198000848D981306C00288F389E02D80818F7DB5
:1019900080830895EF92FF920F931F93CF93DF936D
:1019A000EC0181E0888F9B8D8C8D981305C0E889B0
:1019B000F989808185FD26C0F62E0B8D10E00F5F22
:1019C0001F4F0F731127E02E8C8DE8120CC00FB63D
:1019D00007FCFACFE889F989808185FFF5CFCE0130
:1019E0000E94A80CF1CF8B8DFE01E80FF11DE35A88
:1019F000FF4FF0829FB7F8940B8FEA89FB898081B3
:101A000080620AC09FB7F894EE89FF896083E889F5
:101A1000F98980818370806480839FBF81E090E03A
:101A2000DF91CF911F910F91FF90EF900895CF9389
:101A3000DF93EC01888D8823C9F0EA89FB898081D6
:101A400085FD05C0A889B9898C9186FD0FC00FB6A8
:101A500007FCF5CF808185FFF2CFA889B9898C91E9
:101A600085FFEDCFCE010E94A80CE7CFDF91CF918B
:101A7000089580E090E0892B29F00E949E0C81114E
:101A80000C94000008950E94A01C6115710579F066
:101A9000FB0101900020E9F73197AF01461B570B7E
:101AA000DC01ED91FC910280F381E02D099480E04E
:101AB00090E00895CF92DF92EF92FF920F931F93E1
:101AC000CF93DF9321E030E0790102C0EE0CFF1CE0
:101AD0006A95E2F76C0120E7C20ED11CD6014C9149
:101AE00050E0FC01E159FF4F608170E0EC01CD58FE
:101AF000DF4F888199810E94FA1188819981DC01E8
:101B0000ED91FC910284F385E02D09958C01F6019D
:101B10008081823070F088819981DC01ED91FC91A7
:101B20000284F385E02D099520E030E0382F022B68
:101B3000132B0E211F2181E090E00E151F0511F0DF
:101B400080E090E0DF91CF911F910F91FF90EF9097
:101B5000DF90CF900895CF93DF9370E0FB01E655BF
:101B6000F44F8491FB01EA56F44FD491FB01EE57F8
:101B7000F44FC491CC2391F081110E941712EC2FE5
:101B8000F0E0EE0FFF1FEC59F44FA591B491EC91EA
:101B9000ED2381E090E021F480E002C080E090E05D
:101BA000DF91CF910895862F642F0C944012862FD9
:101BB000642F0C94A112EF92FF920F931F93CF9377
:101BC000DF93EC017B018A0188819981009729F0DC
:101BD0002A813B8124173507F8F4B8016F5F7F4FE6
:101BE0000E94DA1B009759F0998388831B830A832C
:101BF0002C813D81232B81F4FC0110820DC0888152
:101C00009981009711F00E94511B198218821D8240
:101C10001C821B821A8207C01D830C83B701888136
:101C200099810E94AE1CCE01DF91CF911F910F913F
:101C3000FF90EF900895FC01808191810C94511BDD
:101C4000FC011182108213821282158214826115A6
:101C5000710551F0FB0101900020E9F73197AF01C8
:101C6000461B570B0C94DB0D08958F929F92AF92F9
:101C7000BF92EF92FF920F931F93CF93DF93CDB755
:101C8000DEB7A1970FB6F894DEBF0FBECDBF7C01C3
:101C9000FA01CB0119A2223008F42AE08E010F5D6F
:101CA0001F4F822E912CA12CB12CBF01A5019401B4
:101CB0000E94911AF901CA01015011096A3014F405
:101CC000605D01C0695CD8016C93232B242B252B0C
:101CD00061F7B801C7010E94450DA1960FB6F894AF
:101CE000DEBF0FBECDBFDF91CF911F910F91FF904F
:101CF000EF90BF90AF909F908F9008956DE572E048
:101D00000C94450D0F931F93CF93DF93EC010E942A
:101D1000450D8C01CE010E947E0E800F911FDF9138
:101D2000CF911F910F9108950C94450DDB011496EE
:101D30004D915C9115976D917C91DC01ED91FC9139
:101D40000280F381E02D0994EF92FF920F931F938D
:101D5000CF93DF938C017B01C0E0D0E0F701EC0F63
:101D6000FD1F6491662361F0D801ED91FC91019013
:101D7000F081E02DC8010995892B11F02196EECF55
:101D8000CE01DF91CF911F910F91FF90EF900895B9
:101D90000F931F93CF93DF93EC010E94A40E8C014D
:101DA000CE010E947E0E800F911FDF91CF911F9177
:101DB0000F9108951F920F920FB60F9211242F9337
:101DC0003F934F935F936F937F938F939F93AF93C3
:101DD000BF93EF93FF9383EA93E00E94A80CFF91D7
:101DE000EF91BF91AF919F918F917F916F915F9193
:101DF0004F913F912F910F900FBE0F901F9018950C
:101E00001F920F920FB60F9211242F938F939F93CF
:101E1000EF93FF93E091B303F091B4038081E091DD
:101E2000B903F091BA0382FD12C090818091BC0386
:101E30008F5F8F732091BD03821751F0E091BC0337
:101E4000F0E0ED55FC4F958F8093BC0301C080817D
:101E5000FF91EF919F918F912F910F900FBE0F9057
:101E60001F901895EF92FF920F931F93CF93DF93DC
:101E7000EC017B01FC01E159FF4F808191E09093DF
:101E8000B1028093B0021092A00310929F038E01C2
:101E90000D581F4FD8018D919C91DC01ED91FC9163
:101EA0000190F081E02D0995FE01E059FF4F8081FE
:101EB000823058F0F80180819181DC01ED91FC9134
:101EC0000190F081E02D6F2D0995F80180819181BD
:101ED0000E941609CF58DF4FE882F982DF91CF9137
:101EE0001F910F91FF90EF90089521E030E002C024
:101EF000220F331F6A95E2F7FC01EF58FF4F44238E
:101F000029F040815181242B352B06C02095309536
:101F10004081518124233523318320836081718165
:101F20000C94320F0F931F93CF938C01FC016483A9
:101F30008085C62FC80F6C2F6F70C8010E94F806ED
:101F40006C2F62956F706061C801CF911F910F91E6
:101F50000C94F8062F923F924F925F926F927F926D
:101F60008F929F92AF92BF92CF92DF92EF92FF92A9
:101F70000F931F93CF93DF93CDB7DEB729970FB69B
:101F8000F894DEBF0FBECDBFDC011B960D911C91F6
:101F90001C970115110509F46AC199878887F80112
:101FA000B49131964491319644903196A491EA2EA1
:101FB000F12CF7E0EF0EF11C93E0F594E7949A957D
:101FC000E1F7EC82F801349674913196E491671749
:101FD00058F0862F90E02E2F30E0F901E70FF11D29
:101FE0008E179F070CF476C06D3069F4A885B9850B
:101FF00016968C91882309F437C160E0888599850D
:102000000E94920F31C16A3009F031C1E885F9852B
:102010008185D5808E9DD00C1124878186958695EB
:102020008695D81630F08285882319F082E0828761
:10203000D12CA885B98516968C911697882321F006
:1020400060E0CD010E94920F6D2D888599850E94D8
:102050000007E885F9858285823008F405C125816D
:102060000384F485E02D309751F03396E491A885F0
:10207000B98519960C91E09F002D112401C000E054
:1020800010E0095F1F4F83E0159507958A95E1F7EA
:102090008FEF820F080FE885F985468141506481F2
:1020A000CF010E940C07A885B98519968C911997C4
:1020B0006D2D8E9D600D1124660F660F660F1796AD
:1020C0008C91861708F460E06064888599850E9489
:1020D000F806CAC050E05B2BC8010696671BE8856E
:1020E000F985F185F9834230510588F4452B09F0D3
:1020F00019824E9C90014F9C300D1124629F8001EB
:10210000639F100D1124080F191F312C24C0EA2FD2
:10211000E77021F048E0342E3E1A01C0312CA82F80
:10212000FC0140E050E07E2F7A1B761728F4749172
:10213000470F511D3196F7CFFC01E60FF11D44907A
:10214000E49E8001E59E100DF49E100D1124020FF7
:10215000131F080F191FA885B9851496BC91BA835F
:10216000E885F985F581FD83842D90E09F838E833A
:10217000812C912CC12CD12CCB829C81C91608F0CA
:102180006EC0212C3601BFEF6B1A7B0AE885F985FA
:102190008185281608F05BC0FB81F11102C0222066
:1021A000A9F0A885B9851596BC901597B394169695
:1021B0008C91BA81B81728F46B2F888599850E9475
:1021C000920F6B2D888599850E940007A12CB12C58
:1021D000A41410F0B12C2FC0F401EA0DFB1DE00F88
:1021E000F11F5490332061F0E614F70449F4E52D13
:1021F000F0E0032C02C0F595E7950A94E2F75E2E15
:10220000E885F9858185823069F4E52D2110E29514
:10221000EF70F0E0EC5AF44F5490652D8885998565
:102220000E94E306652D888599850E94E306FFEFED
:10223000AF1ABF0ACDCF79817B1539F060E0888570
:1022400099850E94E306B394F6CF23949FCF8FEF36
:10225000C81AD80AAE81BF818A0E9B1E8DCF6D81B0
:10226000888599850E94000781E090E002C080E0A7
:1022700090E029960FB6F894DEBF0FBECDBFDF9178
:10228000CF911F910F91FF90EF90DF90CF90BF9073
:10229000AF909F908F907F906F905F904F903F9006
:1022A0002F90089596E0899FD0011124AF55BB4F20
:1022B00090967C936E935F9791E091969C93919703
:1022C00090910D05E0910E05F0910F05992339F0DD
:1022D000309751F0811108C08091BD0404C030973F
:1022E00019F05C968C91099408953FB7F894809109
:1022F0004E0590914F05A0915005B091510526B51E
:10230000A89B05C02F3F19F00196A11DB11D3FBF2D
:10231000BA2FA92F982F8827820F911DA11DB11DBB
:10232000BC01CD0142E0660F771F881F991F4A95B7
:10233000D1F708950F93009123050695069506950C
:10234000015040912205415020E060E08CE195E091
:102350000E940C0781E090912605911101C080E058
:102360008093260560E48CE195E00F910C94F806CB
:1023700090919E039111FCCF91E090939E039093D6
:102380009D032FEF2093970310929603260F20931F
:1023900095039093940390919403880F892B8093D5
:1023A000940380919C03813061F410929C0380918E
:1023B00094038093BB008091BC0083FDF8CF85EC33
:1023C00001C085EE8093BC0080919E038130E1F3D3
:1023D00080919603861710F460919603A4E7B3E00A
:1023E000E4E5F3E080E0861721F09D9191938F5F03
:1023F000FACF0895862F413208F040E2642F0E9400
:10240000B8111092A2038093A1030895CF93DF9394
:10241000682F83EA93E00E94CA0CEC0183EA93E000
:102420000E947E0E8C0F9D1FDF91CF910895833007
:1024300081F028F4813099F08230A1F0089587303E
:10244000A9F08830B9F08430D1F4809180008F7D7C
:1024500003C0809180008F7780938000089584B5B9
:102460008F7702C084B58F7D84BD08958091B000C0
:102470008F7703C08091B0008F7D8093B000089566
:102480001F93CF93DF93282F30E0F901E655F44FE7
:102490008491F901EA56F44FD491F901EE57F44FC3
:1024A000C491CC23C1F0162F81110E941712EC2F7A
:1024B000F0E0EE0FFF1FE858F44FA591B4919FB7DD
:1024C000F894111104C08C91D095D82302C0EC91DE
:1024D000DE2BDC939FBFDF91CF911F910895109267
:1024E000A2031092A1031092A00310929F031092D6
:1024F0009E0381E080939D0310929C0361E082E142
:102500000E94401261E083E10E944012E9EBF0E09A
:1025100080818E7F808380818D7F808388E480931B
:10252000B80085E48093BC008DE596E090939B0312
:1025300080939A038EE596E0909399038093980395
:102540000895CF93DF9390E0FC01EA56F44F249175
:10255000FC01EE57F44F8491882361F190E0880FDD
:10256000991FFC01E259F44FC591D491FC01E85840
:10257000F44FA591B491611109C09FB7F894888177
:10258000209582238883EC912E230BC0623061F466
:102590009FB7F8948881322F309583238883EC91FC
:1025A0002E2B2C939FBF06C08FB7F894E8812E2B5B
:1025B00028838FBFDF91CF9108958F929F92AF9222
:1025C000BF92CF92DF92EF92FF926B017C010E944B
:1025D00075114B015C01C114D104E104F104F1F067
:1025E0000E947511DC01CB0188199909AA09BB0960
:1025F000883E9340A105B10570F321E0C21AD108CD
:10260000E108F10888EE880E83E0981EA11CB11C39
:10261000C114D104E104F10419F7DDCFFF90EF906C
:10262000DF90CF90BF90AF909F908F9008950F93C1
:102630001F93CF93DF93EC018B0161E08EE00E944A
:10264000401283EA93E00E947E0E64EA72E083EA1D
:1026500093E00E94940E61E375E083EA93E00E94A8
:10266000960E66EA72E083EA93E00E94940EB80147
:1026700083EA93E00E94960E66EA72E083EA93E0B2
:102680000E94940EBE0183EA93E00E94960E68EACF
:1026900072E083EA93E00E94820E62E370E080E0E1
:1026A00090E00E94DD1260E08EE0DF91CF911F91FB
:1026B0000F910C9440122FB7F89460914A057091D5
:1026C0004B0580914C0590914D052FBF08950F93B8
:1026D0001F93CF93DF93C82FD62F86E0C89FF001BA
:1026E0001124EF55FB4F11A2878D90A181309105E8
:1026F000D9F040F082309105A9F10397F1F560E03F
:1027000070E034C06623C9F161E070E08C2F0E9454
:1027100052110E945B136093F9047093FA04809342
:10272000FB049093FC0429C00E945B130091F90400
:102730001091FA042091FB043091FC04AB01BC0120
:10274000401B510B620B730B80910B0590910C0594
:10275000A0E0B0E084179507A607B70718F462E079
:1027600070E004C0D11109C063E070E08C2FDF91EC
:10277000CF911F910F910C945211DF91CF911F9126
:102780000F9108951F920F920FB60F9211242F935D
:102790003F938F939F93AF93BF9380914A059091FE
:1027A0004B05A0914C05B0914D053091490523E0B2
:1027B000230F2D3720F40196A11DB11D05C026E879
:1027C000230F0296A11DB11D2093490580934A0550
:1027D00090934B05A0934C05B0934D0580914E0509
:1027E00090914F05A0915005B09151050196A11D02
:1027F000B11D80934E0590934F05A0935005B09363
:102800005105BF91AF919F918F913F912F910F9063
:102810000FBE0F901F901895CF93DF93CDB7DEB703
:102820002E970FB6F894DEBF0FBECDBF789484B557
:10283000826084BD84B5816084BD85B5826085BDBC
:1028400085B5816085BD80916E00816080936E004A
:10285000109281008091810082608093810080913C
:1028600081008160809381008091800081608093ED
:1028700080008091B10084608093B1008091B000AD
:1028800081608093B00080917A00846080937A00A8
:1028900080917A00826080937A0080917A008160D2
:1028A00080937A0080917A00806880937A001092F9
:1028B000C100E091B303F091B40382E08083E09122
:1028C000AF03F091B0031082E091B103F091B20335
:1028D00080E180831092BB03E091B703F091B803CD
:1028E00086E08083E091B503F091B603808180613A
:1028F0008083E091B503F091B60380818860808386
:10290000E091B503F091B603808180688083E09107
:10291000B503F091B60380818F7D808368EE73E00C
:1029200080E090E00E94DD1261E08EE00E94A11242
:1029300061E08EE00E9440126EE572E083EA93E06F
:102940000E94820E64E571E0CE0101960E94200E85
:1029500068E571E0CE0107960E94200EBE016F5F10
:102960007F4FCE0107960E941713CE0107960E9453
:102970001B0ECE0101960E941B0E60E08EE00E94AD
:1029800040120E946F1210922A058CE38093290551
:102990001092200510922105E7EFF2E085919491C5
:1029A000E82EE9EFF2E0F490EAEFF2E0E491E09350
:1029B0002205EBEFF2E0E491E0932305ECEFF2E087
:1029C000E491E09324058C01802F8E198F1548F433
:1029D000F80164918CE195E00E94F8060F5F1F4FAB
:1029E000F3CF109226050E949A118CE08093B800D4
:1029F00080912305803429F40E949A1181E080930C
:102A000026050CE011E010932805009327056FEFD1
:102A100070E083EA93E00E94C80E63EF70E083EAFF
:102A200093E00E94C80E109328050093270567EED7
:102A300070E08CE195E00E94C80EF8E0CF2ED12C1A
:102A4000E12CF12C10E0BB24B3940C2DB092B10218
:102A5000C092B0021092A00310929F0385E994E007
:102A60000E941609811166C067ED70E083EA93E069
:102A70000E94A40E2AE0B701A60183EA93E00E9417
:102A8000350E62ED70E083EA93E00E94A40E6DECD7
:102A900070E08CE195E00E94A40E20E1B701A60150
:102AA00083EA93E00E94350E20E1B701A6018CE194
:102AB00095E00E94350E6BEC70E083EA93E00E9493
:102AC000A40E69EC70E08CE195E00E94A40E09333D
:102AD00049F46DEB70E083EA93E00E94A40E64E693
:102AE00071E015C00C3349F461EB70E083EA93E0C8
:102AF0000E94A40E60E771E00AC00F3361F467EA38
:102B000070E083EA93E00E94A40E6CE771E08CE130
:102B100095E00E94940E83EA93E00E947E0E8CE181
:102B200095E00E947E0E1F5F61E070E080E090E023
:102B30000E94DD12FFEFCF1ADF0AEF0AFF0A28E733
:102B4000C216D104E104F10409F07FCF60EA70E01D
:102B500083EA93E00E94A40E69E970E08CE195E0BD
:102B60000E94A40EC12ED12CE12CF12C2AE0B70139
:102B7000A60183EA93E00E94350E2AE0B701A60180
:102B80008CE195E00E94350E6DE870E083EA93E0F9
:102B90000E94C80E61E870E08CE195E00E94C80ECA
:102BA00083EA93E00E947E0E8CE195E00E947E0E07
:102BB00060ED77E080E090E00E94DD1289E3809391
:102BC00043040E946F1280E494E00E944B0700E0EF
:102BD00010E0CC24C394D12C909142047601002EB5
:102BE00001C0EE0C0A94EAF78E2D809598239093FD
:102BF00042049091400489238093400480E494E04F
:102C00000E94720980914004E82AE092400480E426
:102C100094E00E9472090F5F1F4F08301105E1F622
:102C200064E670E080E090E00E94DD1261E073E015
:102C30008CE195E00E94A40E89EC99E090930F0539
:102C400080930E0580E591E0909302058093010545
:102C50006FEF7FEF81EA94E00E94320F40911105FF
:102C600050E06091100570E0809114059091150579
:102C70000E94FA118091140590911505DC01ED91E7
:102C8000FC910284F385E02D0995909313058093C0
:102C90001205809111058230C0F080911405909149
:102CA0001505DC01ED91FC910284F385E02D099579
:102CB00020E030E0382F8091120590911305282BE9
:102CC000392B309313052093120588E893E19093F4
:102CD0000C0580930B0582E390E090930A058093A6
:102CE00009056DEF72E08CE195E00E94C80E6DE081
:102CF00073E08CE195E00E94A40E66E871E083EA3F
:102D000093E00E94820E8FE3809362040E946F1210
:102D10008FE594E00E944B076CE971E083EA93E051
:102D20000E94820EE12CF12CCC24C394D12C8091F2
:102D3000610486010E2C01C0000F0A94EAF7802B73
:102D40008093610480915F04902F909589238093F4
:102D50005F048FE594E00E94720980915F04082B64
:102D600000935F048FE594E00E947209BFEFEB1AB5
:102D7000FB0AE8E0EE16F104D1F66FEA71E083EAAF
:102D800093E00E94820E60ED77E080E090E00E9488
:102D9000DD1280915F04877F80935F048FE594E06C
:102DA0000E94720965EC71E083EA93E00E94820E52
:102DB00069E073E08CE195E00E94C80E60ED77E079
:102DC00080E090E00E94DD1264E571E0CE010196A2
:102DD0000E94200E60EE71E0CE0107960E94200E48
:102DE000BE016F5F7F4FCE0107960E941713CE0181
:102DF00007960E941B0ECE0101960E941B0EFF2417
:102E0000F394412C512C320143945DED852E54E016
:102E1000952E66E0262EF0920D050E945B13009120
:102E2000FD041091FE042091FF0430910005AB01D8
:102E3000BC01401B510B620B730B809109059091F3
:102E40000A05A0E0B0E084179507A607B70718F0B9
:102E500010920D05C6C0E12C80910805E81608F017
:102E600056C0CE2CD12CE0910505F0910605EC0D55
:102E7000FD1D40E0608181EA94E00E94750FD3015E
:102E8000C2010E2C04C0880F991FAA1FBB1F0A94F1
:102E9000D2F79E878D875C01A094B094312C8091ED
:102EA0000705381628F5032D10E0E0910305F09191
:102EB0000405E00FF11F608181EA94E00E945A0D41
:102EC0000C5F1F4F000F111FF801EF55FB4F892BAF
:102ED00039F4808191812D853E85822B932B04C00E
:102EE000808191818A219B21918380833394D7CFE4
:102EF0008091050590910605FC01EC0DFD1D41E05A
:102F0000608181EA94E00E94750FE394A5CF01EA05
:102F100014E0F801878D90A1892B31F4148E8FEF86
:102F20009FEF968F858F11A236968E169F0691F78A
:102F3000E12C80910705E81670F5B12CCE2CD12C30
:102F4000C601880F991FDC01A755BB4F6D01209169
:102F50000805B216F0F4F601408151810B2C02C035
:102F6000569547950A94E2F7642F6170E29E9001AE
:102F700011242B0D311DE1EAF4E080E0A58DB68D22
:102F80002A173B0709F479C18F5F36968A30B1F76B
:102F900058C1E394CECFE12CD80191968C9188232F
:102FA00011F0EE24E3940A5F1F4F80169106A1F7FB
:102FB0000E945B136093FD047093FE048093FF04F2
:102FC00090930005EE2009F443CF8091C20488233A
:102FD00009F43ECF8091C0049091C104019709F09B
:102FE00037CF0E945B130091B5021091B602209179
:102FF000B7023091B802DC01CB01801B910BA20B10
:10300000B30B89389341A105B105F0F18091B40269
:103010008823D1F11A8219821C821B821E821D8292
:1030200060912B0570912C056115710541F040915F
:103030002F0550913005CE0101960E94DB0D6FEEF9
:1030400071E0CE0107960E94200EBE016F5F7F4F98
:10305000CE0107960E941713CE0107960E941B0E01
:10306000CE0101960E941B0E0E949A1166EF71E03C
:103070008CE195E00E94820E1092B402F092000161
:103080001092920410927E04EEE7F4E0019000208A
:10309000E9F7E958F44009F0CFC08091B9028111F5
:1030A000CBC0F09200010E94460A64EF71E080E01C
:1030B00090E00E94DD128091930490919404FC01B1
:1030C000319120917E04AFE7B4E04496311103C002
:1030D00021117AC008C0321377C031912D91E817C1
:1030E000F907A1F771C0F092B2021092B402F09207
:1030F0000001F092B90218861F821A8619861C8672
:103100001B8660912B0570912C056115710541F0AE
:1031100040912F0550913005CE0107960E94DB0D9E
:1031200067E072E0CE0101960E94200EBE01695F49
:103130007F4FCE0101960E941713CE0101960E9487
:103140001B0ECE0107960E941B0E80915F048860C3
:1031500080935F048FE594E00E94720960E172E061
:10316000CE0101960E94200E8091160590911705C0
:10317000009789F069817A816115710551F040915C
:103180001805509119052D813E814217530708F00B
:103190007EC00E94511B89819A819093170580936C
:1031A00016058B819C8190931905809318058D815C
:1031B0009E8190931B0580931A051A8219821C82A6
:1031C0001B821E821D822CC0F092B3021092B402A8
:1031D000F09200011A8219821C821B821E821D82BB
:1031E00060912B0570912C056115710541F040919E
:1031F0002F0550913005CE0101960E94DB0D64E150
:1032000072E0CE0107960E94200EBE016F5F7F4FD5
:10321000CE0107960E941713CE0107960E941B0E3F
:10322000CE0101960E941B0E1092B402F092000192
:103230001092920410927E040E94460A0E94390D58
:10324000EACD40FF1CC0E1EAF4E080E090E0448D6C
:10325000411117C0E0910105F0910205E20FF31F43
:103260004081289EF001299EF00D1124EF55FB4F5F
:10327000448F368F258F10A2178E0E946713B39448
:1032800066CE019636968A30910509F7F8CF0E94EE
:10329000AE1C8D819E8190931B0580931A0591CF62
:1032A00086E195E00E941B0E8BE295E00E941B0ECA
:1032B00081E395E00E941B0E87E395E00E941B0EC0
:1032C0008DE395E00E941B0E83E495E00C941B0EA9
:1032D0001092A6031092A50388EE93E0A0E0B0E060
:1032E0008093A7039093A803A093A903B093AA0384
:1032F00026E131E03093A4032093A30325EC30E0D2
:103300003093B0032093AF0324EC30E03093B2034A
:103310002093B10320EC30E03093B4032093B30347
:1033200021EC30E03093B6032093B50322EC30E07B
:103330003093B8032093B70326EC30E03093BA0300
:103340002093B9031092BC031092BD031092BE03E8
:103350001092BF03109298041092970480939904DE
:1033600090939A04A0939B04B0939C0488E291E00C
:10337000909396048093950460E672E083E495E070
:103380000E94200E61E772E08DE395E00E94200E1E
:103390006CE772E087E395E00E94200E6AE872E035
:1033A00081E395E00E94200E62E972E08BE295E0F5
:1033B0000E94200E10921F0510921E0581E080933E
:1033C000250510922805109227058AE391E0909335
:1033D0001D0580931C0566E972E086E195E00E9478
:1033E000200E1092A3041092A7041092A60410922B
:1033F000A804E1EAF4E08DED94E0148E10A2178E9B
:1034000011A236968E179F07C1F785E091E0909341
:1034100004058093030581E091E090930605809375
:10342000050581E08093070594E09093080520E569
:1034300031E030930205209301052AE030E030931B
:103440000A052093090524EF31E030930C05209301
:103450000B0510920F0510920E051092FD041092AC
:10346000FE041092FF041092000510920D052AE44C
:1034700031E03093A2042093A10499E390931005C6
:103480008093110585E994E09093150580931405C8
:1034900089E992E0909394048093930410929204AB
:1034A00010927E048FE594E00E94630780E494E02C
:1034B0000C9463072F923F924F925F926F927F928C
:1034C0008F929F92AF92BF92CF92DF92EF92FF9234
:1034D0000F931F93CF93DF93CDB7DEB7CA1BDB0BE0
:1034E0000FB6F894DEBF0FBECDBF09942A88398885
:1034F00048885F846E847D848C849B84AA84B9848C
:10350000C884DF80EE80FD800C811B81AA81B98197
:10351000CE0FD11D0FB6F894DEBF0FBECDBFED01AB
:103520000895A1E21A2EAA1BBB1BFD010DC0AA1F04
:10353000BB1FEE1FFF1FA217B307E407F50720F01C
:10354000A21BB30BE40BF50B661F771F881F991F97
:103550001A9469F760957095809590959B01AC01E0
:10356000BD01CF010895EE0FFF1F0590F491E02DEE
:1035700009940F931F93CF93DF938230910510F43A
:1035800082E090E0E0915405F091550520E030E0B4
:10359000A0E0B0E0309719F14081518102811381A0
:1035A00048175907C8F08417950769F4109731F048
:1035B00012960C93129713961C9327C000935405F0
:1035C0001093550522C02115310519F042175307F4
:1035D00018F49A01BD01EF01DF01F801DBCF2115DD
:1035E0003105F9F0281B390B2430310580F48A812C
:1035F0009B816115710521F0FB019383828304C0D7
:103600009093550580935405FE01329644C0FE0107
:10361000E20FF31F8193919322503109398328835C
:103620003AC02091520530915305232B41F420914B
:1036300008013091090130935305209352052091E0
:103640000601309107012115310541F42DB73EB730
:1036500040910A0150910B01241B350BE09152055A
:10366000F0915305E217F307A0F42E1B3F0B281728
:10367000390778F0AC014E5F5F4F2417350748F0EB
:103680004E0F5F1F509353054093520581939193C2
:1036900002C0E0E0F0E0CF01DF91CF911F910F91E8
:1036A0000895CF93DF93009709F481C0FC0132970E
:1036B00013821282A0915405B0915505109781F4A0
:1036C00020813181820F931F209152053091530543
:1036D0002817390751F5F0935305E093520567C059
:1036E000ED0120E030E0CE17DF0740F44A815B8136
:1036F0009E0141155105F1F0EA01F5CFD383C28354
:1037000040815181840F951FC817D90759F48881CA
:103710009981840F951F0296918380838A819B8172
:10372000938382832115310529F4F0935505E093A5
:1037300054053DC0E901FB83EA8349915991C40FC7
:10374000D51FEC17FD0761F480819181840F951FCF
:103750000296E90199838883828193819B838A837E
:10376000E0E0F0E012968D919C911397009719F08C
:10377000FD01DC01F7CF8D919C9111979D012E5F8A
:103780003F4F820F931F2091520530915305281708
:10379000390769F4309729F41092550510925405B1
:1037A00002C013821282B0935305A0935205DF9199
:1037B000CF910895A0E0B0E0E0EEFBE10C945E1A3A
:1037C000EC01009721F4CB010E94B91AB4C0FC01AE
:1037D000E60FF71F9C0122503109E217F30708F4A6
:1037E000A8C0D9010D911C91119706171707B0F0C9
:1037F0000530110508F49BC0C80104978617970788
:1038000008F495C002501109061B170B0193119380
:103810006D937C93CF010E94511B89C05B01A01A5C
:10382000B10A4C01800E911EA0915405B09155052E
:10383000612C712CE12CF12C109709F446C08D916C
:103840009C911197A815B905B1F56C0142E0C40E21
:10385000D11CCA14DB0478F14C018A189B0864015E
:1038600042E0C40ED11C1296BC9012971396AC91F4
:10387000B5E0CB16D10440F0B282A383918280825E
:10388000D9016D937C9309C00E5F1F4F800F911F6C
:10389000F90191838083EB2DFA2FE114F10431F0CB
:1038A000D7011396FC93EE93129741C0F093550500
:1038B000E09354053CC06816790608F43C017D018C
:1038C00012960D90BC91A02DB7CF8091520590918A
:1038D000530588169906E1F466167706C8F48091B8
:1038E000060190910701009741F48DB79EB7409172
:1038F0000A0150910B01841B950BE817F907C8F4D6
:10390000F0935305E0935205F901718360830FC072
:10391000CB010E94B91A7C01009759F0A801BE01A1
:103920000E94A51CCE010E94511BC70104C0CE01FC
:1039300002C080E090E0CDB7DEB7EEE00C947A1ADA
:1039400081E090E0F8940C94B51CFB01DC0102C00E
:1039500001900D9241505040D8F70895FB01DC01D1
:1039600001900D920020E1F7089515E0C0EED5E03A
:1039700004C0FE010E94B31A2196C13ED107C9F7C7
:04398000F894FFCFE9
:103984000100010203040000560520006B006C00D6
:103994006D0000000000CA0C370C610C170D920C6E
:1039A400700C840C00000000B0068306E0065F067D
:1039B4000B066F06600600000000AA0F370CE00635
:1039C400360C8B09990200000000DF06750F5A0DB2
:1039D40052474257535953005365747570204265DA
:1039E40067696E00202D3E20427574746F6E7300FB
:1039F400202D3E20446973706C617900202D3E2097
:103A040052656C617900457870616E6465722062FC
:103A14006567696E3A2073746172740045787061E9
:103A24006E64657220626567696E3A206F6B005040
:103A3400696E732061756620484947482067657A36
:103A44006F67656E004D61676E65742050696E2006
:103A5400617566204C4F572067657A6F67656E0005
:103A6400536574757020436F6D706C6574650021C7
:103A74005265736574005265736574746520506192
:103A84007373776F72740021436F7272656374008D
:103A94004F4646002157726F6E670050726573730C
:103AA40065643A2000484F4C443A20005245535430
:103AB40041525400457870616E64657220506F7293
:103AC40074733A0048494748004E657573746172CF
:103AD4007420696E0072656672657368000D0A0071
:103AE400474C5F53545F434F4C4F525F434F4445E1
:103AF4000030322E30322E3230323100766572731D
:103B0400696F6E20312E305354004272434F4C4F34
:103B14005200484944004F4E0052474742574752CB
:103B24004257470021002C002C446F6E652E000084
:00000001FF
