:100000000C94F2090C941A0A0C941A0A0C94AF1767
:100010000C948A170C9465170C941A0A0C941A0AFB
:100020000C941A0A0C941A0A0C941A0A0C941A0AC0
:100030000C941A0A0C941A0A0C941A0A0C941A0AB0
:100040000C94C3160C941A0A0C9433170C940D17C5
:100050000C941A0A0C941A0A0C941A0A0C941A0A90
:100060000C94D4170C941A0AAED580A83FD3004044
:100070008D142002A1C8DA12817FD9F1DB40A4A639
:10008000AF20204D61676E65743A2000202020204B
:100090002020272E5F5F5F5F5F2E2720202000201B
:1000A000202020205C20202F2020205C20202F00DA
:1000B000202020207C202020205F5F5F2020202027
:1000C0007C2000202020207C202020202020202098
:1000D0002020207C200020202020202F20206F2086
:1000E00020206F20205C20002020202020202E2790
:1000F0002020202020272E2020200020202020200B
:100100002020205F5F5F5F5F2020202020002020D4
:1001100020202020272E5F5F5F5F5F2E272020207A
:100120000020202020205C2020272D2D2D2720207E
:100130002F2000202020207C20205C202020202038
:100140002F20207C00202020207C20202020202008
:1001500020202020207C200020202020202F202054
:100160006F2020206F20205C2000202020202020D5
:100170002E272020202020272E2020200020202075
:1001800020202020205F5F5F5F5F20202020200054
:100190002000202000202000000005072060000033
:1001A00000000000005F00000007000700147F143B
:1001B0007F14242A7F2A12231308646236495620AA
:1001C000500008070300001C2241000041221C00CF
:1001D0002A1C7F1C2A08083E08080080703000088E
:1001E00008080808000060600020100804023E5162
:1001F00049453E00427F40007249494946214149F4
:100200004D331814127F1027454545393C4A49495A
:100210003141211109073649494936464949291EC4
:1002200000001400000040340000000814224114B3
:1002300014141414004122140802015909063E4105
:100240005D594E7C1211127C7F494949363E41412D
:1002500041227F4141413E7F494949417F09090986
:10026000013E414151737F0808087F00417F4100F2
:100270002040413F017F081422417F404040407FA1
:10028000021C027F7F0408107F3E4141413E7F09EE
:100290000909063E4151215E7F091929462649492F
:1002A000493203017F01033F4040403F1F2040206F
:1002B0001F3F4038403F631408146303047804036D
:1002C0006159494D43007F4141410204081020001B
:1002D0004141417F0402010204404040404000038C
:1002E00007080020545478407F2844443838444458
:1002F0004428384444287F385454541800087E0950
:100300000218A4A49C787F0804047800447D40006F
:100310002040403D007F1028440000417F40007C89
:10032000047804787C080404783844444438FC1881
:1003300024241818242418FC7C0804040848545465
:10034000542404043F44243C4040207C1C20402092
:100350001C3C4030403C44281028444C9090907CF9
:100360004464544C4400083641000000770000000B
:100370004136080002010204023C2623263C000309
:100380000C0F30333C3FC0C3CCCFF0F3FCFF000078
:1003900000002300260029002020202020202020EB
:1003A00020454E47494E454552494E470014400AA4
:1003B0000B2060020203060608070103030406027D
:1003C00003010505050606050605050506020305E4
:1003D0000506040A070605060505070602040504C6
:1003E00009070705070605050705090605060303AE
:1003F00003040502050504050504050502030402BE
:10040000090505050503050305040805050503039E
:1004100004050600000000601E2000080608000019
:1004200000C8784EC8784E200000200000800C12D2
:1004300022C3040060202000000C92522CD02824FB
:10044000C22000000000202000C0201C32CAC420AE
:10045000002020200000200800E01C026080000036
:10046000827C80600014380E14000000002020E020
:1004700038202000000000000000008060202020C4
:10048000000000002080601806012000000000F03D
:100490000C02C23C00202000000004E21E002020CC
:1004A00020202000804422120C20202020200080C8
:1004B000001412F20C002020200000605048E45E7E
:1004C000000000200080181612E202002020200008
:1004D00000E018149262002020000002C2320A06D6
:1004E0002000000000E01C12F20C002020000000A0
:1004F0001824A2621C202020000000000820000018
:10050000000880600020505050880000000000501B
:100510005050505000000000008088505050200083
:1005200000000000006212120C20000000E018041D
:1005300024524A7A4A221C00204040404040000099
:100540000000C0704C427CC020000000000020E091
:100550001E121212EC202020202000F00C02028239
:100560000020202000E01E0202C23C2020202000AB
:1005700000E01E1212122020202020E01E12121273
:100580002000000000F00C020212D23400202020D3
:10059000200000E01E1010F01E200000002000E0EF
:1005A0001E20000000E01E20200000E01E30C804D5
:1005B0002000000020E01E000020202020E01E0679
:1005C00078806018E61E200000002000002000E077
:1005D0001E0C30C0E01E20000000002000F00C02C5
:1005E0000202C23C00202020200000E03E22221C0B
:1005F0002000000000F00C020202C23C002020207B
:10060000202040E01E1232D20C200000002000808A
:100610000C1222C2002020200002E21E0202002052
:10062000000000E01E000000E01E0020202020004E
:1006300000FE8060100C20000000003EC060180E1C
:10064000F040300C00200000002000000000804638
:1006500078880420000000200006D820180400201C
:10066000000000804222120A06202020202000C024
:100670003E02E0800007F8000000E000C23E80E09B
:1006800000100C021C000000000000000000808030
:1006900080808001020000E01008C838002020207F
:1006A00000C03E0888702020200000E0100888006C
:1006B000202000E01008C83E0020202000E0302864
:1006C000281000202020000088780C80600000E0C6
:1006D0001008C83880A0A06000C03E08C8302000C4
:1006E000002000C03A200000C03A806000C03EE018
:1006F0001020000020C03E2000C0381008C830087C
:10070000C830200000002000002000C03808C83099
:100710002000002000E0100888700020200000C0A9
:1007200038088870E020200000E01008C838002059
:1007300020E000C03808200000001028C808202051
:10074000200000C83C08002020C03800C03800202D
:10075000202000F880403020000000F8806010F871
:100760008040302000000020000000008870E01071
:10077000200000002000F800C03080402000000071
:1007800088482818202020202020E01E00E080003B
:10079000F00EE0000000C23E20806000001008085B
:1007A00010100000000000FE025A0A02FE20202065
:1007B000202020534341504500450045414D200035
:1007C00014610A0B206002020306050808010303F6
:1007D00005050203020505060505060505050505CF
:1007E0000202050505050A060605070505070702B5
:1007F000030604090707050806050607060A060694
:1008000005030503050602050504050503060502A3
:10081000020502080505050503040305050805058D
:1008200004030104050600000000BEBE20200E00E7
:100830000E00000048E85EE85E480020002000004E
:100840009C3E33F2E400206020000C128C6018C63D
:1008500020C00000200000002000C0EC3E327ECC12
:10086000E00000202020200020200E00F0FC0600E8
:1008700060C006FCF0C06000120C3F0C12000000CB
:1008800000002020F8202000000000008080E060B0
:10089000202020000000808020200080700C03C0F9
:1008A00020000000FCFE02FEFC00202020000804C6
:1008B000FEFE000020202020202084C2623E1C205A
:1008C00020202020841212FEEC00202020006058FE
:1008D00046FEFE400000002020001E1E12F2E22014
:1008E00020202000FCFE12F2E2002020200002C2A4
:1008F000FA3E060020200000ECFE12FEEC00202054
:1009000020001C3E22FEFC20202020009898202061
:100910009898E060205050888800000000005050F7
:100920005050500000000000888850502000000007
:10093000000002B2B21E0C0020200000F0086492F9
:100940008A4AF29A847800204040404040000000EB
:10095000E0F84E4EF8E0202000002020FEFE1212AB
:10096000FEEC202020202000FCFE0202840020203B
:100970002000FEFE020286FC7820202020200000BD
:10098000FEFE1212122020202020FEFE1212122043
:1009900020000000FCFE020222E2E40020202020D1
:1009A0002000FEFE101010FEFE202000000020207F
:1009B000FEFE202000FEFE202000FEFE30FCCE02C7
:1009C000202000002020FEFE000020202020FEFE2F
:1009D0001C70C0701CFEFE202000002000002020A3
:1009E000FEFE0C30C0FEFE20200000002020FCFE99
:1009F000020202FEFC00202020202000FEFE223EFB
:100A00001C2020000000FCFE020202FEFC00002070
:100A1000202020204040FEFE1232FECC202000008C
:100A200020209C3E32F2E400202020000202FEFE44
:100A30000202000020200000FEFE000000FEFE007A
:100A40002020202020000E7EE0E07E0E00002020EE
:100A50000000063EF8C03E3EC0F83E0600002020E2
:100A600000002020000086CE7878CE86202000006E
:100A70002020061EF8F81E0600002020000082E25A
:100A80007A1E062020202020FEFE02E0E080030CDB
:100A900070800000000020C002FEFE80E0E0100C2C
:100AA000020C100000000000000000000000808028
:100AB0008080808001020000C8E828F8F000202033
:100AC0002020FEFE08F8F02020202000F0F8080882
:100AD00000202020F0F808FEFE0020202020F0F862
:100AE0002838300020202020FCFE0A202000B0F80A
:100AF00048783808C0E0A0E06000FEFE08F8F0206A
:100B000020002020FBFB2020FBFBE060FEFE60F8C5
:100B1000982020002020FEFE2020F8F808F8F00899
:100B2000F8F02020002020002020F8F808F8F0201D
:100B300020002020F0F808F8F00020202000F8F82D
:100B400008F8F0E0E0202000F0F808F8F800202095
:100B5000E0E0F8F8082020003078E8C820202000E5
:100B6000FCFC08002020F8F800F8F80020202020E5
:100B700038F880F838002020200038F8C03838C015
:100B8000F838002020000020200098F860F8982015
:100B90002000202038F880F83800C0E0200088E8E5
:100BA000781820202020FCDE0260E080FEE002DEDB
:100BB000FC2080E060001008181008000000000011
:100BC000FE026A3A02FE2020202020202020202041
:100BD00020540022080D0E206004020506070809B3
:100BE00002030305080204020407040707070707B6
:100BF0000707070202070707080E09080808070782
:100C00000908020708070B08090709090708080966
:100C10000D0708080404040608030707060707056C
:100C20000707020306020A07070707050605070765
:100C30000B0607050501050708000000000000007D
:100C400000FEFE18181E1E001E1E00000000009070
:100C5000F89E90F89E1C00001C0000183C26FF66C1
:100C6000CC88040C183C180C041C221CC0308E408C
:100C70008000001804000C100C80CC7E72F2DE0C98
:100C800080000C1C1010101C0C1C101E1E0000F00C
:100C9000FC061C7CC006FCF0C07C1C14140E141452
:100CA0000000000000606060FCFC6060600000000C
:100CB0000C0C00000000005838C0C0C0C00000008C
:100CC000000000181800C0380618040000F8FC0ED8
:100CD000060EFCF8040C1C181C0C04180CFEFE007C
:100CE000001C1C181C86C6663E1C181C1C181818F4
:100CF00018888C062626FEDC040C1C18180C04C070
:100D0000E0B88CFEFE80040404041C1C04707E3ECB
:100D10003636F6C60C1C1818180C04F8FC6E6666FD
:100D2000EECC040C1818181C0C060606E6761E06F7
:100D300000001C1C0000009CFE666666FE9C0C1CED
:100D40001818181C0C3C7E666666FCF80C1C1818FB
:100D50001C0C0418181818181858386060F0F0980F
:100D6000980C0000000004040CD8D8D8D8D8D8D8E3
:100D7000000000000000000C9898F0F060600C0487
:100D80000400000000080C06C6E6763C18000000CF
:100D90001818000000E03008C4F63A1A1AF2FA7E79
:100DA0000408F00C30604C9C98988C9C9C90484CAB
:100DB0002000C0F8BE86BEF8C000181C040404045D
:100DC000041C18FEFE66666666FEDC1C1C181818FD
:100DD000181C0CF8FC0E06060E9C08040C1C1818B7
:100DE0001C0C04FEFE0606060EFCF81C1C18181847
:100DF0001C0C04FEFE66666666661C1C1818181835
:100E000018FEFE66666666061C1C0000000000F800
:100E1000FC0E0606C6CEDCC8040C1C181818180CEC
:100E200004FEFE60606060FEFE1C1C000000001CF2
:100E30001CFEFE1C1C8080000000FEFE0C1C18180E
:100E4000181C0CFEFE603078EC86021C1C000000B2
:100E5000041C18FEFE00000000001C1C18181818C6
:100E600018FEFE0E7CE000E07C0EFEFE1C1C000066
:100E70000C1C0C00001C1CFEFE1C78E080FEFE1CFE
:100E80001C0000040C1C1CF8FC0E0606060EFCF8E8
:100E9000040C1C1818181C0C04FEFE6666667E3CCA
:100EA0001C1C0000000000F8FC0E0686060EFCF874
:100EB000040C1C18181C0C1C24FEFE6666E6E6BE1C
:100EC0001C001C1C0000000C1C18103C7E66666692
:100ED000EECC0C1C1818181C0C060606FEFE0606A6
:100EE000060000001C1C000000FEFE00000000FECA
:100EF000FE040C1C18181C0C04021EFCE000E0FC94
:100F00001E020000001C1C1C00000006FEF800F081
:100F1000FE0EFEF000F8FE0600001C1C1C00000087
:100F20001C1C1C0000060EF8F0F80E06181C04002D
:100F3000041C18060E38F0F0380E060000001C1CC9
:100F4000000000060686E6761E0E06181C1C181801
:100F5000181818FEFE0606FCFCC0C00638C00000CB
:100F60000004180606FEFEC0C0FCFC20380E0E3839
:100F700020000000000000000000000000000080D1
:100F8000808080808080800206040000001098D855
:100F900058F8F0000C1C18180C1C10FEFE30183805
:100FA000F0E01C1C0C181C0C04E0F018183830047D
:100FB0000C18181C0CE0F0381830FEFE040C1C183D
:100FC0000C1C1CE0F0D8D8D8F0E0040C1818181845
:100FD0000818FCFE1A1A001C1C0000E0F03818303B
:100FE000F8F864ECDCD8CCFC7CFEFE301818F8F085
:100FF0001C1C0000001C1CFAFA1C1C00FAFAC0FCA5
:101000007CFEFEE0F098081C1C00041C18FEFE1C70
:101010001CF8F81018F8F01818F8F01C1C00001C48
:101020001C00001C1CF8F8301818F8F01C1C0000FC
:10103000001C1CE0F0381838F0E0040C1C181C0CE4
:1010400004F8F8301838F0E0FCFC0C181C0C04E034
:10105000F0381830F8F8040C1C180CFCFCF8F830C8
:1010600018181C1C00000070F8D8D8D89008181860
:10107000181C0C18FCFE1818000C1C1818F8F800A6
:101080000000F8F80C1C18180C1C1C38F8C000C024
:10109000F83800001C1C1C000018F8E000F038F0C4
:1010A00000E0F81800001C1C0C000C1C1C000018B0
:1010B00038E0E03818181C04041C1818F8E000E0A8
:1010C000F8180084FCF83C04001898D878381C1CE8
:1010D00018181880FC7E0606007CFCC0C0FEFC06CA
:1010E000067EFC80C0C0FC7C0060303070606030E8
:1010F00000000000000000FE020202020202FE1CCC
:101100001010101010101C20646576696365287338
:10111000292E00206465766963652873292E0046B0
:101120006F756E642000466F756E642000202D3E42
:101130002052656C617900202D3E20446973706CEB
:10114000617900202D3E20427574746F6E73002902
:1011500000290020283078002028307800466F755C
:101160006E6420616464726573733A20004932438F
:10117000205363616E2E2E2E005363616E6E696E76
:10118000672E2E2E00493243207363616E6E6572A6
:101190003A00000005072061000000000000005F29
:1011A00000000007000700147F147F14242A7F2A00
:1011B00012231308646236495522500005030000CB
:1011C000001C2241000041221C00082A1C2A080899
:1011D000083E0808005030000008080808080060B1
:1011E00060000020100804023E5149453E00427F45
:1011F000400042615149462141454B311814127F4C
:101200001027454545393C4A4949300171090503D4
:101210003649494936064949291E0036360000003C
:1012200056360000000814224114141414144122EC
:101230001408000201510906324979413E7E11111C
:10124000117E7F494949363E414141227F41412239
:101250001C7F494949417F090901013E4141513201
:101260007F0808087F00417F41002040413F017F07
:10127000081422417F404040407F0204027F7F04E7
:1012800008107F3E4141413E7F090909063E415118
:10129000215E7F09192946464949493101017F01EB
:1012A000013F4040403F1F2040201F7F2018207FEB
:1012B000631408146303047804036151494543002F
:1012C000007F4141020408102041417F00000402D8
:1012D00001020440404040400001020400205454F8
:1012E00054787F484444383844444420384444487F
:1012F0007F3854545418087E090102081454543C91
:101300007F0804047800447D40002040443D0000F4
:101310007F10284400417F40007C041804787C083A
:1013200004047838444444387C1414140808141411
:10133000187C7C080404084854545420043F44405A
:10134000203C4040207C1C2040201C3C4030403C45
:1013500044281028440C5050503C4464544C4400E1
:101360000836410000007F000000413608000808F0
:101370002A1C08081C2A0808000609090668001922
:101380008040006F6B2E004B657970616420000017
:10139000000000240027002A00000000002500288B
:1013A000002B0004040404040404040202020202E8
:1013B0000203030303030301020408102040800119
:1013C0000204081020010204081020000000080098
:1013D00002010000030407000000000000000000FC
:1013E000F318A91F11241FBECFEFD8E0DEBFCDBF79
:1013F00025E0A6E9B2E001C01D92A234B207E1F7F0
:1014000012E0A0E0B1E0EEE3F4E402C005900D923A
:10141000A639B107D9F719E0C1EFD9E004C0219787
:10142000FE010E941A20C03FD107C9F70E94E419AB
:101430000C9412220C9400000895089596E0899F60
:10144000D0011124AA56BB4F90967C936E935F9760
:1014500091E091969C939197E0910305F09104059A
:1014600090910205992339F0309751F0811108C00D
:101470008091B2040994309719F05C968C91FACF60
:101480000895833081F028F4813099F08230A9F0FA
:1014900008958730A9F08830C9F08430B1F4809184
:1014A00080008F7D03C0809180008F7780938000C3
:1014B000089584B58F7784BD089584B58F7DFBCF63
:1014C0008091B0008F778093B00008958091B00034
:1014D0008F7DF9CF1F93CF93DF93282F30E0F90151
:1014E000E553FC4E8491F901E954FC4ED491F90185
:1014F000ED55FC4EC491CC23A9F0162F81110E940A
:10150000410AEC2FF0E0EE0FFF1FE756FC4EA591CD
:10151000B4918FB7F894EC91111108C0D095DE23E7
:10152000DC938FBFDF91CF911F910895DE2BF8CF11
:10153000CF93DF9390E0FC01E954FC4E24918D554C
:101540009C4EFC0184918823C9F090E0880F991F7C
:10155000FC01E157FC4EA591B491FC01E756FC4E0D
:10156000C591D49161110DC09FB7F8948C912095CD
:1015700082238C938881282328839FBFDF91CF917A
:101580000895623051F49FB7F8943C91822F809572
:1015900083238C93E8812E2BEFCF8FB7F894EC91B7
:1015A0002E2B2C938FBFEACF3FB7F8948091400346
:1015B00090914103A0914203B091430326B5A89BAB
:1015C00005C02F3F19F00196A11DB11D3FBFBA2FD5
:1015D000A92F982F8827BC01CD01620F711D811D95
:1015E000911D42E0660F771F881F991F4A95D1F71A
:1015F00008958F929F92AF92BF92CF92DF92EF9217
:10160000FF924B015C010E94D40A6B017C010E9495
:10161000D40A6C197D098E099F09683E73408105C3
:101620009105A8F321E0821A9108A108B10888EE7B
:10163000C80E83E0D81EE11CF11C81149104A104A2
:10164000B10429F7FF90EF90DF90CF90BF90AF905B
:101650009F908F9008952FB7F89460913C037091FC
:101660003D0380913E0390913F032FBF08950F9358
:101670001F93CF93DF93C82FD62F86E0C89FF0012A
:101680001124EA56FB4F11A2878D90A1813091055C
:10169000F1F058F082309105F1F1039709F440C060
:1016A000DF91CF911F910F9108956623C9F361E0F7
:1016B00070E08C2F0E941E0A0E942B0B6093EE0498
:1016C0007093EF048093F0049093F104E9CF0E94AB
:1016D0002B0B0091EE041091EF042091F004309157
:1016E000F104AB01BC01401B510B620B730B8091E9
:1016F000000590910105B0E0A0E084179507A607CA
:10170000B70748F462E070E08C2FDF91CF911F9112
:101710000F910C941E0A63E070E0D111C1CFF4CF99
:1017200070E060E0F1CF08950895DB0114964D91CB
:101730005C9115976D917C91DC01ED91FC9102809B
:10174000F381E02D0994EF92FF920F931F93CF93B3
:10175000DF938C017B01D0E0C0E0F701EC0FFD1FAF
:101760006491662361F0D801ED91FC910190F081C4
:10177000E02DC8010995892B11F02196EECFCE01FD
:10178000DF91CF911F910F91FF90EF900895AF924D
:10179000BF92CF92DF92EF92FF920F931F93CF935E
:1017A000DF936C017B018B01040F151FEB015E01C0
:1017B000AE18BF08C017D10759F06991D601ED9155
:1017C000FC910190F081E02DC6010995892B79F7F4
:1017D000C501DF91CF911F910F91FF90EF90DF90A6
:1017E000CF90BF90AF900895FC01538D448D252F6D
:1017F00030E0842F90E0821B930B541710F0CF96AB
:10180000089501970895FC01918D828D981761F0DC
:10181000A28DAE0FBF2FB11D5D968C91928D9F5FF3
:101820009F73928F90E008958FEF9FEF0895FC01D2
:10183000918D828D981731F0828DE80FF11D858D85
:1018400090E008958FEF9FEF0895FC01918D228D18
:10185000892F90E0805C9F4F821B91098F7399279D
:10186000089588E993E00E94250C21E0892B09F472
:1018700020E0822F089580E090E0892B29F00E94DB
:10188000310C81110C9400000895FC01A48DA80F67
:10189000B92FB11DA35ABF4F2C91848D90E00196B2
:1018A0008F739927848FA689B7892C93A089B189D2
:1018B0008C91837080648C93938D848D981306C073
:1018C0000288F389E02D80818F7D80830895EF92D7
:1018D000FF920F931F93CF93DF93EC0181E0888FEA
:1018E0009B8D8C8D98131AC0E889F989808185FFBA
:1018F00015C09FB7F894EE89FF896083E889F9895C
:1019000080818370806480839FBF81E090E0DF915D
:10191000CF911F910F91FF90EF900895F62E0B8DB0
:1019200010E00F5F1F4F0F731127E02E8C8D8E116B
:101930000CC00FB607FCFACFE889F989808185FFD2
:10194000F5CFCE010E94450CF1CFEB8DEC0FFD2FB2
:10195000F11DE35AFF4FF0829FB7F8940B8FEA898D
:10196000FB8980818062CFCFCF93DF93EC01888D9C
:101970008823B9F0AA89BB89E889F9898C9185FD0A
:1019800003C0808186FD0DC00FB607FCF7CF8C9198
:1019900085FFF2CF808185FFEDCFCE010E94450CFF
:1019A000E9CFDF91CF910895CF93DF9370E0FB01F2
:1019B000E553FC4E8491FB01E954FC4ED4916D55E6
:1019C0007C4EFB01C491CC23A1F081110E94410AFD
:1019D000EC2FF0E0EE0FFF1FE257FC4FA591B49102
:1019E000EC91ED2381E090E009F480E0DF91CF916C
:1019F000089580E090E0FACF862F642F0C946A0A55
:101A0000862F642F0C94980ACF93DF93EC019C816E
:101A10008E81981758F4E881F9810084F185E02DD2
:101A200042E0CE0109958C818F5F8C83DF91CF914D
:101A30000895DC01ED91FC910084F185E02D40E0FA
:101A400009940F931F93CF938C01FC016483C0858D
:101A5000C60F6C2F6F700E94190D6C2F62956F70FE
:101A60006061C801CF911F910F910C94190DFC0179
:101A70002781269526952695621720F46583606B4D
:101A80000C94190D08951F93CF93DF93EC01142F3D
:101A90008E81681718F4CE010E94210D612FCE01AE
:101AA000DF91CF911F910C94370DCF92DF92EF927F
:101AB000FF920F931F93CF93DF93EC01162FC42E49
:101AC000D22E8F81869586958695081710F00FEF98
:101AD000080FFD2C0F15B0F08E81181720F4612F20
:101AE000CE010E94210D6F2DCE010E94370DE12EF7
:101AF000CE1430F060E0CE010E94040DE394F8CFE4
:101B0000F394E8CF4D2D612FCE01DF91CF911F913E
:101B10000F91FF90EF90DF90CF900C94430D0F93B7
:101B200000911805069506950695015040911705F8
:101B3000415020E060E081E195E00E94550D81E098
:101B400090911B05911101C080E080931B0560E41A
:101B500081E195E00F910C94190D2F923F924F92D5
:101B60005F926F927F928F929F92AF92BF92CF922D
:101B7000DF92EF92FF920F931F93CF93DF9300D0EA
:101B800000D01F92CDB7DEB7DC011B960D911C91E2
:101B90000115110509F468C19D838C83F8014491F6
:101BA000319654913196649031962491E22EF12C25
:101BB000F7E0EF0EF11C73E0F594E7947A95E1F706
:101BC000E982F801349634913196E491631748F034
:101BD0008E2F90E0FC01E30FF11D6E171F060CF431
:101BE00087C06D3031F5AC81BD8116968C91811125
:101BF0001AC081E090E00F900F900F900F900F901F
:101C0000DF91CF911F910F91FF90EF90DF90CF90D8
:101C1000BF90AF909F908F907F906F905F904F900C
:101C20003F902F90089560E08C819D810E94210D4E
:101C3000E0CF6A3009F018C1EC81FD818185D58043
:101C40008E9DD00C11248781869586958695D81611
:101C500030F08285882319F082E08287D12C4D2DC7
:101C600060E08C819D810E94430DAC81BD811A96FC
:101C70008C911A97823008F4BCCF15962C91159749
:101C80001B96ED91FC911C9700E0309739F033964C
:101C9000E49119960C91E09F002D112410E0095F4A
:101CA0001F4F33E0159507953A95E1F78FEF820FB7
:101CB000080FEC81FD81468141506481CF010E9473
:101CC000550DAC81BD8119968C9119976D2D8E9D06
:101CD000600D1124660F660F660F17968C9186179C
:101CE00008F460E060648C819D810E94190D81CFB1
:101CF0004527542745270A5F1F4F631BEC81FD8151
:101D000021844230510508F06DC0452B09F0212C8B
:101D10006E9CC0016F9C900D1124689FF001699F1B
:101D2000F00D11240E0F1F1F512CAC81BD81149694
:101D3000BC91BA83EC81FD81F581FB83862C912CCB
:101D4000AA24A394B12C312C8981381608F086C0BE
:101D5000412CAC81BD8119968C91481608F077C052
:101D6000311002C0442041F0EC81FD8145814F5F7C
:101D70006A81CF010E94430DD12CC12CC61408F0FA
:101D80005AC0F801EC0DFD1D7490552061F0EA1465
:101D9000FB0449F4E72DF0E0052C02C0F595E7952A
:101DA0000A94E2F77E2EAC81BD8119968C91823027
:101DB00081F4442009F43BC072948FE07822E72D2F
:101DC000F0E0E258FC4F7490672D8C819D810E9459
:101DD000040D672D8C819D810E94040DEFEFCE1ABA
:101DE000DE0ACCCF277038E0532E521A211101C0E1
:101DF000512C50E040E030E020E0F801461740F47C
:101E0000E40FF51FE4912E0F311D4F5F5F4FF5CFAB
:101E1000E60FF11D6490E29EF001E39EF00DF29E4C
:101E2000F00D11248E0F9F1F080F191F7ECFB72DA5
:101E3000BF707B2EC4CFD12C2D1439F060E08C8183
:101E40009D810E94040DD394F7CF439482CF3394A5
:101E5000080D191DFFEFAF1ABF0A76CF6B818C8179
:101E60009D810E94370DC5CE90E080E0C4CE809168
:101E7000960390919703891B990B0895CF93DF9355
:101E8000FC01108211821282138214821582168242
:101E9000EC012796DC011F961992AC17BD07E1F7FC
:101EA0007F961D921D92EA17FB07D9F7DF91CF911C
:101EB000089590E0FC01EE0FFF1FEE56FC4FA59138
:101EC000B4912C91FC01E25DFC4F30812083880F9E
:101ED000991FFC01E45FFE4F0190F081E02D8081AD
:101EE00008952091DB02260F3327331F213231055D
:101EF000ECF420918A03FC0190E080E0243069F04A
:101F000082E00895A091DB022191AC0145545D4F20
:101F1000A40FB52FB11D2C930196861798F38091CD
:101F2000DB02680F6093DB0280E0089581E0089592
:101F300010928A0381E0809369031092640361E048
:101F400082E10E946A0A61E083E10E946A0AE9EB89
:101F5000F0E080818E7F808380818D7F808388E424
:101F60008093B80085E48093BC0008951092970395
:101F70001092960310929503109294030E94980F6A
:101F80008CE19AE090939303809392038DE19AE021
:101F900090939103809390030895CF93DF9391E002
:101FA0009093BA028823B9F0C091B800D091BA00DA
:101FB0008091BC008A7B8093BC0060E082E10E943B
:101FC0006A0A60E083E10E946A0A0E94980FD09337
:101FD000BA00C093B800DF91CF910895CF92DF92FD
:101FE000EF92FF920F931F93CF93DF93D82FC62FBB
:101FF000613208F098C00E94D40A6B017C01809184
:102000008A0381116BC081E080938A038093690306
:102010009FEF90936803109267039C0F9093660361
:102020008093650380916503DD0FD82BD093650302
:1020300080916403813009F078C0109264030E949B
:10204000D40A6B017C01809165038093BB00809171
:102050008C0390918D03A0918E03B0918F03892BF7
:102060008A2B8B2BA1F00E94D40A00918C03109133
:102070008D0320918E0330918F036C197D098E0999
:102080009F09061717072807390708F448C08091E9
:10209000BC0083FDD8CF85EC8093BC000E94D40A9D
:1020A0006B017C0180918A03813009F440C08091EA
:1020B00067038C1710F4C0916703E4E4F3E0AAE629
:1020C000B3E080E08C1355C08C2FDF91CF911F912E
:1020D0000F91FF90EF90DF90CF90089580918C0347
:1020E00090918D03A0918E03B0918F03892B8A2B41
:1020F0008B2B09F484CF0E94D40A00918C03109199
:102100008D0320918E0330918F036C197D098E0908
:102110009F09061717072807390708F070CF809125
:102120008B030E94CD0FC0E0CFCF85EEB5CF80915D
:102130008C0390918D03A0918E03B0918F03892B16
:102140008A2B8B2B09F4AECF0E94D40A00918C030A
:1021500010918D0320918E0330918F036C197D09AE
:102160008E099F09061717072807390708F09ACF25
:10217000D6CF91919D938F5FA5CF0895E09197035E
:1021800080919603E81730F4F0E0E659FC4F808127
:1021900090E008958FEF9FEF0895909197038091BD
:1021A00096032FEF3FEF981748F4E92FF0E0E65938
:1021B000FC4F208130E09F5F90939703C901089501
:1021C000CF92DF92EF92FF920F931F93CF93DF9303
:1021D0007C01CB018A0120913203222389F0EB019B
:1021E0006B01C40ED51ECC15DD0569F06991D701D0
:1021F000ED91FC910190F081E02DC7010995F3CF9D
:10220000642F0E94710FC801DF91CF911F910F9130
:10221000FF90EF90DF90CF900895CF93DF931F92C0
:10222000CDB7DEB76983209132032223F9F02091E4
:102230009403203258F021E030E0FC013383228304
:1022400090E080E00F90DF91CF9108958091950309
:10225000E82FF0E0E656FD4F998190838F5F8093E1
:1022600095038093940381E090E0ECCF61E0CE0190
:1022700001960E94710FF7CFCF92DF92EF92FF92FB
:102280000F931F93CF93DF93D091940381E0D132CA
:1022900008F09CC0C09131030E94D40A6B017C01FC
:1022A00080918A0381116CC082E080938A0381E06F
:1022B000809369038FEF8093680310926703D09334
:1022C0006603AAE9B2E0E4E4F3E080E0D8138DC04D
:1022D0001092650380916503CC0FC82BC0936503F2
:1022E00080916403813009F084C0109264030E94DD
:1022F000D40A6B017C01809165038093BB008091BF
:102300008C0390918D03A0918E03B0918F03892B44
:102310008A2B8B2BA1F00E94D40A00918C03109180
:102320008D0320918E0330918F036C197D098E09E6
:102330009F09061717072807390708F442C080913C
:10234000BC0083FDD8CF85EC8093BC000E94D40AEA
:102350006B017C0180918A03823009F44CC080912A
:1023600068038F3F09F469C080916803803209F4E3
:1023700066C080916803803309F463C084E026C09E
:1023800080918C0390918D03A0918E03B0918F0367
:10239000892B8A2B8B2B09F483CF0E94D40A0091BE
:1023A0008C0310918D0320918E0330918F036C1953
:1023B0007D098E099F09061717072807390708F0B6
:1023C0006FCF80918B030E94CD0F85E01092950313
:1023D0001092940310923203DF91CF911F910F91CD
:1023E000FF90EF90DF90CF9008959D9191938F5F34
:1023F0006DCF85EEA9CF80918C0390918D03A09134
:102400008E03B0918F03892B8A2B8B2B09F4A2CFDB
:102410000E94D40A00918C0310918D0320918E03A9
:1024200030918F036C197D098E099F0906171707D4
:102430002807390708F08ECFC4CF80E0C7CF82E0ED
:10244000C5CF83E0C3CFEF92FF920F931F93CF933B
:10245000DF93EC017B018C010D581F4FD8018D914A
:102460009C91FE01E159FF4F208131E0309332030E
:10247000209331031092950310929403DC01ED91A7
:10248000FC910190F081E02D0995FE01E059FF4F8C
:102490008081823058F0F80180819181DC01ED91DA
:1024A000FC910190F081E02D6F2D0995F80180815C
:1024B00091810E943C11CF58DF4FE882F982DF9171
:1024C000CF911F910F91FF90EF90089521E030E0A0
:1024D00002C0220F331F6A95E2F7FC01EF58FF4F4D
:1024E00060817181442341F0262B372B3183208377
:1024F000608171810C942312209530952623372317
:10250000F5CFFC01918162818081238131E030939C
:102510003203209331031092950310929403609537
:102520006923682B8AE894E00E940D118AE894E000
:102530000C943C110F931F93CF93DF93EC01062F64
:10254000142F8E85813120F4882339F0411105C084
:102550008AE894E00E943C111E868E85811112C08B
:102560008D8591E09093320380933103109295030F
:102570001092940360E4111101C060E08AE894E0D5
:102580000E940D11602F8AE894E00E940D11123014
:1025900041F48E858F5F8E87DF91CF911F910F91D0
:1025A00008958AE894E00E943C111E86F5CF90E0E1
:1025B00080E00895CF92DF92EF92FF920F931F93E6
:1025C000CF93DF93EC0181E090E07C0102C0EE0C40
:1025D000FF1C6A95E2F76E0180E7C80ED11CD60198
:1025E0006C91613208F060E2FE01E159FF4F808199
:1025F0000E94EE0F1092970380939603CD58DF4F01
:1026000088819981DC01ED91FC910284F385E02DB4
:1026100009958C01F6018081823060F08881998172
:10262000DC01ED91FC910284F385E02D099520E019
:10263000022B182B0E211F2181E090E00E151F05A3
:1026400011F090E080E0DF91CF911F910F91FF900A
:10265000EF90DF90CF900895CF93DF93EC018981C5
:102660008C8361E08B810E94EE0F10929703809320
:102670009603811101C0FFCF8AE894E00E94CD103B
:102680008983DF91CF910895FB0101900020E9F744
:102690003197AF01461B570BDC01ED91FC91028095
:1026A000F381E02D09948F929F92AF92BF92EF92A7
:1026B000FF920F931F93CF93DF93CDB7DEB7A19710
:1026C0000FB6F894DEBF0FBECDBF7C01FA01CB017F
:1026D00019A2223008F42AE08E010F5D1F4F822ECE
:1026E000912CB12CA12CBF01A50194010E94F81FCF
:1026F000F901CA016A300CF5605DD8016E938D0155
:10270000232B242B252B79F790E080E0109721F0E4
:10271000BD01C7010E944413A1960FB6F894DEBF15
:102720000FBECDBFDF91CF911F910F91FF90EF9022
:10273000BF90AF909F908F900895695CDECF6AE65E
:1027400071E00C944413CF93DF93682F88E993E0F2
:102750000E94670CEC0188E993E00E949F138C0FA4
:102760009D1FDF91CF9108950F931F93CF93DF9318
:10277000EC010E9444138C01CE010E949F13800F34
:10278000911FDF91CF911F910F9108950F931F9388
:10279000CF93DF93EC010E94A30B8C01CE010E942A
:1027A0009F13800F911FDF91CF911F910F9108957B
:1027B0000C9444130F931F93CF93DF93EC018B0181
:1027C00061E08EE00E946A0A88E993E00E949F130C
:1027D00063E972E088E993E00E94D81366E275E04D
:1027E00088E993E00E94950B6DE671E088E993E03B
:1027F0000E94D813B80188E993E00E94950B6DE61A
:1028000071E088E993E00E94D813BE0188E993E063
:102810000E94950B6FE671E088E993E00E94B41383
:1028200062E370E080E090E00E94F90A60E08EE0F0
:10283000DF91CF911F910F910C946A0AFC01808166
:102840009181009711F00C94BC2008950F931F9371
:10285000CF93DF93EC0188819981009759F02A8109
:102860003B812617370730F081E0DF91CF911F9130
:102870000F9108958B016F5F7F4F0E944521009754
:1028800059F0998388831B830A832C813D81232BF4
:1028900059F7FC011082E8CF80E0E7CFEF92FF927A
:1028A0000F931F93CF93DF93EC01198218821B8241
:1028B0001A821D821C8286179707D9F0FB010081BE
:1028C000118101151105A9F0E480F580B7010E947E
:1028D000261428813981811113C02115310519F081
:1028E000C9010E94BC20198218821D821C821B8291
:1028F0001A82DF91CF911F910F91FF90EF90089571
:10290000FD82EC82B801C901DF91CF911F910F9137
:10291000FF90EF900C940B22EF92FF920F931F9376
:10292000CF93DF93EC017B01198218821B821A82FC
:102930001D821C82FB0101900020E9F731978F0175
:10294000061B170BB8010E942614288139818111BA
:1029500013C02115310519F0C9010E94BC2019824C
:1029600018821D821C821B821A82DF91CF911F91D7
:102970000F91FF90EF9008951D830C83B701C9015B
:10298000DF91CF911F910F91FF90EF900C940B224C
:102990001F93CF93DF93CDB7DEB72C970FB6F89484
:1029A000DEBF0FBECDBF182F8091B5049091B60445
:1029B0008130910569F0029709F44FC02C960FB64B
:1029C000F894DEBF0FBECDBFDF91CF911F91089568
:1029D00081E080933503809300010E942B0B60936C
:1029E0003603709337038093380390933903E09153
:1029F0008704E33169F081E08E0F80938704F0E073
:102A0000ED58FB4F1083E82FF0E0ED58FB4F10829C
:102A100060E275E0CE0107960E944E1463E774E011
:102A2000CE0101960E948C14BE01695F7F4FCE01DA
:102A300001960E94DA13CE0101960E941E14CE0167
:102A400007960E941E1466E771E088E993E00E94F1
:102A5000D813812F0E94A313B1CF60E871E0F5CFA6
:102A6000EF92FF920F931F93CF93DF93CDB7DEB713
:102A70002C970FB6F894DEBF0FBECDBF0E942B0B74
:102A8000009196021091970220919802309199023C
:102A9000601B710B820B930B6938734181059105A3
:102AA00010F18091350381111EC060E275E0CE0106
:102AB00007960E944E1463E774E0CE0101960E94CF
:102AC0008C14BE01695F7F4FCE0101960E94DA131C
:102AD000CE0101960E941E14CE0107960E941E147C
:102AE00081E08093000180910001882309F496C061
:102AF0000E942B0B6093960270939702809398022A
:102B0000909399021092000180913503882309F473
:102B100041C00E948F0D88E991E090931D0580933C
:102B20001C0581E195E00E949F1383ED9BE090934B
:102B30001D0580931C0581E195E00E949F1365E9C6
:102B400071E081E195E00E94A30B62E971E081E10F
:102B500095E00E94A30B03E714E07801F7010190D0
:102B60000020E9F7CF018357944098012357344060
:102B70002817390708F052C0F80161918F0181E1EF
:102B800095E00E94AD0D60E971E081E195E00E9461
:102B9000A30BE4CF80913303882309F44CC088E968
:102BA00091E090931D0580931C050E948F0D6DE7A9
:102BB00071E081E195E00E94C6136AE671E081E16F
:102BC00095E00E94C61368E571E081E195E00E94FE
:102BD000C61365E471E081E195E00E94C61363E3EA
:102BE00071E081E195E00E94C61361E271E081E14C
:102BF00095E00E94C6136EE071E081E195E00E94CD
:102C0000A30B68EE73E080E090E00E94F90A81E097
:102C1000809300011092330380933A032C960FB6F1
:102C2000F894DEBF0FBECDBFDF91CF911F910F9102
:102C3000FF90EF90089580913403882309F444C0F5
:102C400064EF71E080E090E00E94F90A88E991E089
:102C500090931D0580931C050E948F0D6BEF70E013
:102C600081E195E00E94C61368EE70E081E195E095
:102C70000E94C61366ED70E081E195E00E94C613E4
:102C800063EC70E081E195E00E94C61360EB70E0B8
:102C900081E195E00E94C6136FE970E081E195E063
:102CA0000E94C6136CE870E081E195E00E94A30BDE
:102CB00068EE73E080E090E00E94F90A81E0809382
:102CC000000110923403AACF0E948F0D88E991E091
:102CD00090931D0580931C0581E195E00E949F1350
:102CE00083ED9BE090931D0580931C0581E195E0A9
:102CF0000E949F1361E870E081E195E00E94A30BC0
:102D00006BE075E081E195E00E94950B81E195E033
:102D10000E949F1383CF85ED8093BC0080918C032C
:102D200090918D03A0918E03B0918F030796A11D02
:102D3000B11D23E0B695A795979587952A95D1F76C
:102D40002091BC0024FD03C010928A030895409195
:102D50008C0350918D0360918E0370918F03452BEE
:102D6000462B472B69F30097A105B10541F025E3F8
:102D70002A95F1F700000197A109B109E1CF8091EF
:102D80008B030C94CD0F1F920F920FB60F9211244C
:102D90002F933F938F939F93AF93BF9380913C0367
:102DA00090913D03A0913E03B0913F0330913B03CE
:102DB00023E0230F2D3758F50196A11DB11D209357
:102DC0003B0380933C0390933D03A0933E03B09359
:102DD0003F038091400390914103A0914203B09141
:102DE00043030196A11DB11D8093400390934103BD
:102DF000A0934203B0934303BF91AF919F918F91F2
:102E00003F912F910F900FBE0F901F90189526E8BD
:102E1000230F0296A11DB11DD2CF1F920F920FB6A4
:102E20000F9211242F933F934F935F936F937F9350
:102E30008F939F93AF93BF93EF93FF9388E993E0B2
:102E40000E94450CFF91EF91BF91AF919F918F919F
:102E50007F916F915F914F913F912F910F900FBE96
:102E60000F901F9018951F920F920FB60F9211247A
:102E70002F938F939F93EF93FF93E091A803F0918B
:102E8000A9038081E091AE03F091AF0382FD1BC0E6
:102E900090818091B1038F5F8F732091B20382176D
:102EA00041F0E091B103F0E0E856FC4F958F80933C
:102EB000B103FF91EF919F918F912F910F900FBED2
:102EC0000F901F9018958081F4CF1F920F920FB62C
:102ED0000F9211242F933F934F935F936F937F93A0
:102EE0008F939F93AF93BF93EF93FF9382E00E94E2
:102EF000590FFF91EF91BF91AF919F918F917F916A
:102F00006F915F914F913F912F910F900FBE0F9056
:102F10001F9018951F920F920FB60F9211242F93A6
:102F20003F934F935F936F937F938F939F93AF9351
:102F3000BF93EF93FF9381E00E94590FFF91EF91B0
:102F4000BF91AF919F918F917F916F915F914F91C1
:102F50003F912F910F900FBE0F901F9018951F92C9
:102F60000F920FB60F9211242F933F934F935F93BD
:102F70006F937F938F939F93AF93BF93EF93FF9341
:102F800080E00E94590FFF91EF91BF91AF919F9107
:102F90008F917F916F915F914F913F912F910F9002
:102FA0000FBE0F901F9018951F920F920FB60F92A1
:102FB00011242F933F934F935F936F937F938F933E
:102FC0009F93AF93BF93EF93FF938091B900887F56
:102FD000803609F44AC0F0F5883209F4A7C018F524
:102FE000803109F49BC0B8F4882309F4F9C0883013
:102FF00009F494C0FF91EF91BF91AF919F918F9190
:103000007F916F915F914F913F912F910F900FBEE4
:103010000F901F901895883109F488C0803251F7BD
:103020008093680314C0803409F49DC040F4803359
:10303000B9F38833F9F68093680385ECB0C0803526
:1030400009F485C0883509F496C0883499F60E9441
:103050008B16D0CF883909F48CC038F5883729F021
:1030600050F4883611F0803729F683E080938A0384
:103070001092FD0257C0883809F47BC0803919F0DE
:10308000803809F0B7CF8091FD02803208F071C01E
:10309000E091FD0281E08E0F8093FD028091BB00E4
:1030A000F0E0E352FD4F80833DC0803B39F0E0F417
:1030B000803A09F479C0883A09F09CCF84E0809383
:1030C0008A031092DC021092DB02E0919203F091ED
:1030D000930309958091DB0281110FC081E08093F9
:1030E000DB021092BB0209C0803C09F4A6CF883CE9
:1030F00009F4A3CF883B09F07DCFE091DC0281E0A9
:103100008E0F8093DC02F0E0E554FD4F80818093C8
:10311000BB009091DC028091DB0229C080916503A5
:103120008093BB0085EC8093BC0064CF90916703D3
:1031300080916603981758F5E091670381E08E0F40
:1031400080936703F0E0EC5BFC4F8081E9CFE09176
:10315000670381E08E0F809367038091BB00F0E0EE
:10316000EC5BFC4F80839091670380916603981716
:10317000C8F285E8D8CFE091670381E08E0F809395
:1031800067038091BB00F0E0EC5BFC4F8083809193
:10319000690381115CCF81E08093640384EA8093AA
:1031A000BC0010928A0326CF85EC8093BC0010925D
:1031B0008A038091FD02803230F4E091FD02F0E05C
:1031C000E352FD4F10826091FD0270E0E0919003A8
:1031D000F09191038DED92E009951092FD020ACFD6
:1031E0001092680334CF10929B0310929A0388EEDA
:1031F00093E0A0E0B0E080939C0390939D03A093A4
:103200009E03B0939F032EE231E030939903209305
:10321000980325EC30E03093A5032093A40324EC1D
:1032200030E03093A7032093A60320EC30E03093E6
:10323000A9032093A80321EC30E03093AB03209343
:10324000AA0322EC30E03093AD032093AC0326ECCC
:1032500030E03093AF032093AE031092B10310928D
:10326000B2031092B3031092B40310928D04109223
:103270008C0480938E0490938F04A0939004B09359
:10328000910480E491E090938B0480938A0467E832
:1032900071E088E395E00E948C1468E971E082E3B4
:1032A00095E00E948C1463EA71E08CE295E00E9444
:1032B0008C1461EB71E086E295E00E948C1469EB5E
:1032C00071E080E295E00E948C1410921405109237
:1032D000130581E080931A0510921D0510921C05BC
:1032E00080E691E090931205809311056DEB71E0FB
:1032F0008BE095E00E948C141092980410929C042C
:1033000010929B0410929D04E2EBF4E01082148270
:1033100013821582369684E0EE3EF807B9F785E011
:1033200091E09093F9048093F80481E091E0909308
:10333000FB048093FA0481E08093FC0494E0909372
:10334000FD0428E531E03093F7042093F6042AE0E9
:1033500030E03093FF042093FE0424EF31E03093FB
:1033600001052093000510920405109203051092A8
:10337000F2041092F3041092F4041092F5041092E7
:10338000020522E531E0309397042093960499E3F7
:1033900090930505809306058AE894E090930A05CA
:1033A0008093090580EC91E09093890480938804D0
:1033B000109287041092730484E594E00E943E0FFB
:1033C00085E394E00C943E0FCF93DF93CDB7DEB747
:1033D0002C970FB6F894DEBF0FBECDBF789484B59E
:1033E000826084BD84B5816084BD85B5826085BD01
:1033F00085B5816085BD80916E00816080936E008F
:103400001092810080918100826080938100809180
:103410008100816080938100809180008160809331
:1034200080008091B10084608093B1008091B000F1
:1034300081608093B00080917A00846080937A00EC
:1034400080917A00826080937A0080917A00816016
:1034500080937A0080917A00806880937A0010923D
:10346000C100E091A803F091A90382E08083E0917C
:10347000A403F091A5031082E091A603F091A703A5
:1034800080E180831092B003E091AC03F091AD0332
:1034900086E08083E091AA03F091AB038081806194
:1034A0008083E091AA03F091AB03808188608083E0
:1034B000E091AA03F091AB03808180688083E09162
:1034C000AA03F091AB0380818F7D808368EE73E067
:1034D00080E090E00E94F90A61E08EE00E94980A84
:1034E00065EC71E0CE0101960E948C1469EC71E0EC
:1034F000CE0107960E948C14BE016F5F7F4FCE01F4
:1035000007960E94DA13CE0107960E941E14CE0180
:1035100001960E941E146BE671E088E993E00E9418
:10352000B4130E94B60F10921F058CE380931E0502
:103530001092150510921605EDE7F3E1859194912F
:10354000E82EEFE7F3E1F490E0E8F3E1E491E093B3
:103550001705E1E8F3E1E491E0931805E2E8F3E10F
:10356000E491E09319058C01802F8E198F1548F492
:10357000F801649181E195E00E94190D0F5F1F4FE2
:10358000F3CF10921B050E948F0D8CE08093B80042
:1035900080911805803429F40E948F0D81E080937A
:1035A0001B0502E911E110931D0500931C0568E35A
:1035B00075E0CE0101960E944E140E948F0D81E1AC
:1035C00095E00E949F1381E195E00E949F13A3ED77
:1035D000CA2EABE0DA2ED0921D05C0921C056CEC11
:1035E0007BE081E195E00E94A30BB0ECEB2EB7E00D
:1035F000FB2EF0921D05E0921C056BEB77E081E15C
:1036000095E00E94A30BD0921D05C0921C0569EBAA
:1036100077E081E195E00E94A30BF0921D05E09216
:103620001C0563EB77E081E195E00E94C6138DEA0B
:1036300093E090931D0580931C0568E973E081E198
:1036400095E00E94C61360ED77E080E090E00E9474
:10365000F90A0E948F0DCE0101960E941E1465E8A2
:1036600071E188E993E00E94C61369E771E188E996
:1036700093E00E94C61310931D0500931C056DE690
:1036800071E181E195E00E94C61318E0C12ED12CB2
:10369000E12CF12C10E0BB24B3940C2DB09232033A
:1036A000C092310310929503109294038AE894E03B
:1036B0000E943C11811151C06DE571E188E993E0F0
:1036C0000E94A30B2AE0B701A60188E993E00E94BB
:1036D000531368E571E188E993E00E94A30B63E569
:1036E00071E181E195E00E94A30B20E1B701A60101
:1036F00088E993E00E94531320E1B701A60181E11C
:1037000095E00E94531361E571E188E993E00E941E
:10371000A30B6FE471E181E195E00E94A30B0933F3
:1037200009F0C6C263E471E188E993E00E94A30B4B
:1037300065ED71E081E195E00E94D81388E993E09E
:103740000E949F1381E195E00E949F131F5F61E03B
:1037500070E080E090E00E94F90AFFEFCF1ADF0AE4
:10376000EF0AFF0A28E7C216D104E104F10409F0C8
:1037700094CF66E271E188E993E00E94A30B6FE1C8
:1037800071E181E195E00E94A30BC12ED12CF12CB7
:10379000E12C2AE0B701A60188E993E00E945313C7
:1037A0002AE0B701A60181E195E00E94531363E18D
:1037B00071E188E993E00E94C61367E071E181E15D
:1037C00095E00E94C61388E993E00E949F1381E16F
:1037D00095E00E949F1360ED77E080E090E00E940A
:1037E000F90A89E3809338040E94B60F85E394E0D8
:1037F0000E942C1310E000E0EE24E394F12C909151
:1038000037046701002E01C0CC0C0A94EAF72C2D76
:1038100020959223909337048091350482238093DE
:10382000350485E394E00E948112809135048C294F
:103830008093350485E394E00E9481120F5F1F4F4F
:1038400008301105E1F664E670E080E090E00E9447
:10385000F90A67E873E181E195E00E94A30B88EC27
:1038600094E1909304058093030588E591E090939B
:10387000F7048093F6046FEF7FEF86E994E00E94EF
:10388000231260910605613208F060E2809105051F
:103890000E94EE0F10929703809396038091090582
:1038A00090910A05DC01ED91FC910284F385E02DF5
:1038B000099590930805809307058091060582304D
:1038C000B8F08091090590910A05DC01ED91FC9119
:1038D0000284F385E02D099520E0382F80910705BB
:1038E00090910805822B932B9093080580930705F0
:1038F00088E893E1909301058093000582E390E0CE
:103900009093FF048093FE0463E873E181E195E006
:103910000E94C61367EF71E088E993E00E94B41338
:103920008FE3809357040E94B60F84E594E00E94D1
:103930002C135AE1252E51E0352E62E1A62E61E0CE
:10394000B62E7AE2672E71E0772E88248394912C2C
:10395000F101019111911F01809156046401002E23
:1039600001C0CC0C0A94EAF78C298093560480910C
:1039700054044C2C409484218093540484E594E0B6
:103980000E948112D5015D905D0180915404552003
:1039900009F4A5C1C82AC092540484E594E00E94A9
:1039A00081126AE072E088E993E00E94D81360E136
:1039B00072E088E993E00E94D8136801110FEE08C5
:1039C000FF082AE0B701A601F7FE0DC06DE288E905
:1039D00093E00E94670C44275527BA014C195D09F2
:1039E0006E097F092AE088E993E00E94531368E199
:1039F00072E088E993E00E94D813452D50E070E012
:103A000060E02AE088E993E00E94531388E993E09C
:103A10000E949F136214730409F09ACF88E993E01F
:103A20000E949F1362E272E088E993E00E94B4135F
:103A300060ED77E080E090E00E94F90A65EC71E0CB
:103A4000CE0101960E948C1461E472E0CE010796CB
:103A50000E948C14BE016F5F7F4FCE0107960E94BB
:103A6000DA13CE0107960E941E14CE0101960E9421
:103A70001E14412C512C3201439446E0E42EFF24C5
:103A8000F394F09202050E942B0B0091F204109126
:103A9000F3042091F4043091F504AB01BC01401B08
:103AA000510B620B730B8091FE049091FF04B0E008
:103AB000A0E084179507A607B70708F414C1109271
:103AC00002050E942B0B00913603109137032091C1
:103AD000380330913903601B710B820B930B6938EB
:103AE00073418105910578F180913503882359F15F
:103AF00060E275E0CE0101960E944E1460E572E02E
:103B0000CE0107960E948C14BE016F5F7F4FCE01DD
:103B100007960E94DA13CE0107960E941E14CE016A
:103B200001960E941E140E948F0D67E572E081E1EC
:103B300095E00E94B41310923503F09200011092A8
:103B4000870410927304E3E7F4E001900020E9F7A2
:103B5000E857F44009F07AC080913A03811176C0A9
:103B6000F09200010E94301564EF71E080E090E077
:103B70000E94F90A8091880490918904FC01319196
:103B800020917304A4E7B4E044963111A1C121113E
:103B9000A7C1F092330310923503F092000160E266
:103BA00075E0CE0107960E944E1466E672E0CE01E3
:103BB00001960E948C14BE01695F7F4FCE01019671
:103BC0000E94DA13CE0101960E941E14CE010796C0
:103BD0000E941E148091540480648093540484E5F0
:103BE00094E00E9481126FE672E0CE0101960E947D
:103BF0008C1480910B0590910C05009709F490C1ED
:103C000069817A816115710509F488C140910D05BA
:103C100050910E052D813E814217530708F47EC155
:103C20000E940B228D819E819093100580930F0539
:103C30001E821D82CE0101960E941E141092350331
:103C4000F092000110928704109273040E943015C4
:103C500080913A038823F9F065EC71E0CE0101967A
:103C60000E948C146AE772E0CE0107960E948C14C1
:103C7000BE016F5F7F4FCE0107960E94DA13CE011F
:103C800007960E941E14CE0101960E941E14809178
:103C90003A038111FECF80E090E0892B09F4F1CE48
:103CA0000E94310C882309F4EACE0E940000E7CE7E
:103CB0000C3349F467E371E188E993E00E94A30BB8
:103CC00061EE71E037CD0F3309F038CD6DE271E16F
:103CD00088E993E00E94A30B6DEE71E02BCD842167
:103CE000809354045ACE312C8091FD04381608F08C
:103CF00053C0A32CB12CE091FA04F091FB04EA0D1F
:103D0000FB1D40E0608186E994E00E946612D301C9
:103D1000C201032C04C0880F991FAA1FBB1F0A945D
:103D2000D2F74C016C01C094D094212C8091FC04FA
:103D3000281618F5022D10E0E091F804F091F9042E
:103D4000E00FF11F608186E994E00E94DA120C5FB7
:103D50001F4F000F111FF801EA56FB4F892B41F44A
:103D60008081918188299929918380832394DECF52
:103D7000808191818C219D21F7CF8091FA049091CF
:103D8000FB04A80EB91E41E0F501608186E994E0CC
:103D90000E9466123394A8CF96E9C92E94E0D92EDA
:103DA0008601D8015F968D919C919097892B59F44B
:103DB0005C961C925C97EFEFFFEF5E96FC93EE93A0
:103DC0005D9791961C920A5F1F4F82ED94E08017D9
:103DD000910739F7B12C8091FC04B81608F052C055
:103DE000A12C8B2C912C880C991CD401A256BB4F72
:103DF0004D012091FD04A21608F042C0F40160813B
:103E000071810A2C02C0769567950A94E2F7B29EFA
:103E1000900111242A0D311DE6E9F4E080E0458D82
:103E2000568D2417350709F492C08F5F36968A3075
:103E3000B1F760FF23C0E6E9F4E090E080E0448D54
:103E4000411117C0E091F604F091F704E20FF31F5F
:103E50004081E89EF001E99EF00D1124EA56FB4FE7
:103E6000448F368F258F10A2178E61E00E94370B8A
:103E700005C0019636968A30910509F7A394B9CF0B
:103E8000B394A9CFB12CD60191968C918111B82E03
:103E9000B6E0CB0ED11CC016D106A9F70E942B0BA1
:103EA0006093F2047093F3048093F4049093F50408
:103EB000BB2009F404CE8091B704882309F4FFCD18
:103EC0008091B5049091B604019709F0F8CDF9CD31
:103ED000321306C031912D91E817F90709F055CE3C
:103EE000F092340310923503F092000160E275E025
:103EF000CE0101960E944E1463E772E0CE01079650
:103F00000E948C14BE016F5F7F4FCE0107960E9406
:103F1000DA13CE0107960E941E148CCE0E94BC209C
:103F200089819A8190930C0580930B058B819C81EC
:103F300090930E0580930D058D819E8190931005C1
:103F400080930F051A8219821C821B8271CE6170C8
:103F50008DCF8BE095E00E941E1480E295E00E94D8
:103F60001E1486E295E00E941E148CE295E00E94E9
:103F70001E1482E395E00E941E1488E395E00C94E1
:103F80001E142F923F924F925F926F927F928F9268
:103F90009F92AF92BF92CF92DF92EF92FF920F93D8
:103FA0001F93CF93DF93CDB7DEB7CA1BDB0B0FB6E2
:103FB000F894DEBF0FBECDBF09942A88398848889F
:103FC0005F846E847D848C849B84AA84B984C88435
:103FD000DF80EE80FD800C811B81AA81B981CE0F2C
:103FE000D11D0FB6F894DEBF0FBECDBFED01089511
:103FF000A1E21A2EAA1BBB1BFD010DC0AA1FBB1FED
:10400000EE1FFF1FA217B307E407F50720F0A21B5E
:10401000B30BE40BF50B661F771F881F991F1A94CB
:1040200069F760957095809590959B01AC01BD01F5
:10403000CF010895EE0FFF1F0590F491E02D099434
:104040000F931F93CF93DF938230910510F482E09A
:1040500090E0E0914005F091410530E020E0B0E0D3
:10406000A0E0309799F42115310509F44AC0281BC6
:10407000390B24303105D8F58A819B816115710592
:1040800089F1FB0193838283FE0111C0408151813C
:104090000281138148175907E0F04817590799F42E
:1040A000109761F012960C93129713961C93329608
:1040B000CF01DF91CF911F910F910895009340059B
:1040C00010934105F4CF2115310551F042175307E4
:1040D00038F0A901DB019A01BD01DF01F801C1CF70
:1040E000EF01F9CF9093410580934005CDCFFE01BC
:1040F000E20FF31F81939193225031093983288372
:10410000D7CF20913E0530913F05232B41F42091DC
:1041100008013091090130933F0520933E0520911D
:104120000601309107012115310541F42DB73EB745
:1041300040910A0150910B01241B350BE0913E0583
:10414000F0913F05E217F307A0F42E1B3F0B281751
:10415000390778F0AC014E5F5F4F2417350748F000
:104160004E0F5F1F50933F0540933E0581939193FF
:104170009FCFF0E0E0E09CCFCF93DF930097E9F092
:10418000FC01329713821282A0914005B091410543
:10419000ED0130E020E01097A1F420813181820F01
:1041A000931F20913E0530913F052817390709F0EC
:1041B00061C0F0933F05E0933E05DF91CF910895F4
:1041C000EA01CE17DF07E8F54A815B819E014115C0
:1041D0005105B1F7E901FB83EA8349915991C40F75
:1041E000D51FEC17FD0761F4808191810296840F41
:1041F000951FE90199838883828193819B838A83B8
:10420000F0E0E0E012968D919C9113970097B9F53C
:104210002D913C911197CD010296820F931F209111
:104220003E0530913F052817390739F6309751F58B
:104230001092410510924005B0933F05A0933E05B2
:10424000BCCFD383C28340815181840F951FC8178F
:10425000D90761F44E5F5F4F88819981480F591FDC
:10426000518340838A819B81938382832115310509
:1042700009F0B0CFF0934105E09340059ECFFD01DA
:10428000DC01C0CF13821282D7CFB0E0A0E0EBE414
:10429000F1E20C94C31F8C01009751F4CB010E94F2
:1042A00020208C01C801CDB7DEB7E0E10C94DF1F00
:1042B000FC01E60FF71F9C0122503109E217F307BA
:1042C00008F49DC0D901CD91DC911197C617D7078D
:1042D00098F0C530D10530F3CE01049786179707C3
:1042E00008F3C61BD70B2297C193D1936D937C9390
:1042F000CF010E94BC20D6CF5B01AC1ABD0A4C0195
:104300008C0E9D1EA0914005B0914105512C412C71
:10431000F12CE12C109731F580913E0590913F05ED
:104320008815990509F05CC04616570608F058C074
:104330008091060190910701009741F48DB79EB7D7
:1043400040910A0150910B01841B950BE817F90766
:1043500008F055C0F0933F05E0933E05F9017183E5
:104360006083A0CF8D919C91119712966C901297BB
:1043700013967C901397A815B90559F56C0142E086
:10438000C40ED11CCA14DB0420F1AC014A195B092C
:10439000DA011296159780F062827382518340830E
:1043A000D9016D937C93E114F10471F0D701139658
:1043B000FC93EE93129776CF22968C0F9D1FF901F6
:1043C00091838083F301EFCFF0934105E0934005A3
:1043D00069CF4816590608F42C017D01D3019ACF04
:1043E000CB010E9420207C01009749F0AE01B8016A
:1043F0000E940222C8010E94BC20870153CF10E016
:1044000000E050CFFB01DC0102C001900D92415051
:104410005040D8F70895FB01DC0101900D92002077
:10442000E1F7089519E0C1EFD9E004C0FE010E9450
:0E4430001A202196C23FD107C9F7F894FFCF9A
:10443E000100010203040000420580006B006C00C5
:10444E006D000101010101010001000001000200E7
:10445E000300040005000600070000000000670CC2
:10446E00C70BF40BB40C250C030C170C000000004A
:10447E000D11E010D712BD10370FCD10BE10000079
:10448E000000930B6612DA125247425700000000EA
:10449E00AD0DC70BD712940B9A120D0A002C002CDF
:1044AE00446F6E652E00507265737365643A20001A
:1044BE00484F4C443A2000474C5F53545F434F4C97
:1044CE004F525F434F44450030322E30322E323041
:1044DE0032310076657273696F6E20312E3053540F
:1044EE00004272434F4C4F5200484944004F4E0019
:1044FE00524742570053595300536574757020420A
:10450E006567696E00202D3E20427574746F6E7360
:10451E0000202D3E20446973706C617900202D3E81
:10452E002052656C617900696E697469616C697A93
:10453E00696E672072656C61790020202020200052
:10454E0052656C6179205B005D2073657420746F19
:10455E0020007375636365737366756C6C7920697F
:10456E006E697469616C697A65642072656C6179D3
:10457E0000536574757020436F6D706C65746500C3
:10458E0021526573657400526573657420506173B2
:10459E0073776F72740021436F7272656374004F8C
:1045AE004646002157726F6E670047616D65204564
:1045BE006E64732077616974696E672072657374B7
:0645CE006172742100007F
:00000001FF
