:100000000C94F8090C94200A0C94200A0C94D00B40
:100010000C94AB0B0C94860B0C94200A0C94200AC5
:100020000C94200A0C94200A0C94200A0C94200AA8
:100030000C94200A0C94200A0C94200A0C94200A98
:100040000C9495190C94200A0C944A140C942414C2
:100050000C94200A0C94200A0C94200A0C94200A78
:100060000C946C0C0C94200AAED580A83FD30040B1
:100070008D142002A1C8DA12817FD9F1DB40A4A639
:10008000AF202020202020202020454E47494E45EB
:100090004552494E470014400A0B206002020306F5
:1000A0000608070103030406020301050505060609
:1000B0000506050505060203050506040A070605EB
:1000C00006050507060204050409070705070605D6
:1000D00005070509060506030303040502050504D3
:1000E00005050405050203040209050505050305C8
:1000F00003050408050505030304050600000000C8
:10010000601E2000080608000000C8784EC8784E1F
:10011000200000200000800C1222C3040060202078
:1001200000000C92522CD02824C220000000002095
:100130002000C0201C32CAC4200020202000002043
:100140000800E01C0260800000827C80600014389F
:100150000E14000000002020E038202000000000E5
:10016000000000008060202020000000002080604F
:100170001806012000000000F00C02C23C00202004
:1001800000000004E21E00202020202000804422E5
:10019000120C20202020200080001412F20C0020DD
:1001A00020200000605048E45E000000200080181D
:1001B0001612E202002020200000E01814926200D3
:1001C0002020000002C2320A062000000000E01CCD
:1001D00012F20C0020200000001824A2621C202033
:1001E000200000000008200000000880600020506F
:1001F0005050880000000000505050505000000047
:100200000000808850505020000000000000621262
:10021000120C20000000E0180424524A7A4A221CE2
:100220000020404040404000000000C0704C427C34
:10023000C020000000000020E01E121212EC20205E
:1002400020202000F00C0202820020202000E01E6E
:100250000202C23C202020200000E01E12121220C8
:1002600020202020E01E1212122000000000F00CBE
:10027000020212D23400202020200000E01E1010C4
:10028000F01E200000002000E01E20000000E01E04
:1002900020200000E01E30C8042000000020E01EE6
:1002A000000020202020E01E0678806018E61E2036
:1002B0000000002000002000E01E0C30C0E01E20E6
:1002C000000000002000F00C020202C23C002020CE
:1002D00020200000E03E22221C2000000000F00C44
:1002E000020202C23C00202020202040E01E1232E8
:1002F000D20C200000002000800C1222C20020201E
:10030000200002E21E02020020000000E01E0000A9
:1003100000E01E00202020200000FE8060100C2045
:10032000000000003EC060180EF040300C002000BD
:1003300000002000000000804678880420000000B3
:10034000200006D82018040020000000804222125D
:100350000A06202020202000C03E02E0800007F88E
:10036000000000E000C23E80E000100C021C000013
:1003700000000000000000808080808001020000FA
:10038000E01008C8380020202000C03E08887020F7
:1003900020200000E010088800202000E01008C89D
:1003A0003E0020202000E0302828100020202000DF
:1003B0000088780C80600000E01008C83880A0A099
:1003C0006000C03E08C8302000002000C03A200075
:1003D00000C03A806000C03EE01020000020C03E17
:1003E0002000C0381008C83008C8302000000020A5
:1003F00000002000C03808C8302000002000E010B5
:100400000888700020200000C038088870E0202094
:100410000000E01008C838002020E000C0380820A4
:100420000000001028C8082020200000C83C080058
:100430002020C03800C0380020202000F880403044
:1004400020000000F8806010F8804030200000009C
:1004500020000000008870E010200000002000F85C
:1004600000C030804020000000884828182020204C
:10047000202020E01E00E08000F00EE0000000C21E
:100480003E208060000010080810100000000000EE
:10049000FE025A0A02FE2020202020205343415011
:1004A0004500450045414D200014610A0B206002C3
:1004B00002030605080801030305050203020505FA
:1004C0000605050605050505050202050505050ADB
:1004D00006060507050507070203060409070705C1
:1004E0000806050607060A060605030503050602B3
:1004F00005050405050306050202050208050505B4
:1005000005030403050508050504030104050600A9
:10051000000000BEBE20200E000E00000048E85E75
:10052000E85E480020002000009C3E33F2E40020FA
:100530006020000C128C6018C620C0000020000053
:10054000002000C0EC3E327ECCE0000020202020C5
:100550000020200E00F0FC060060C006FCF0C06029
:1005600000120C3F0C1200000000002020F8202098
:1005700000000000008080E060202020000000805B
:100580008020200080700C03C020000000FCFE02D0
:10059000FEFC00202020000804FEFE000020202099
:1005A00020202084C2623E1C2020202020841212A1
:1005B000FEEC0020202000605846FEFE40000000B7
:1005C0002020001E1E12F2E22020202000FCFE123D
:1005D000F2E2002020200002C2FA3E0600202000A5
:1005E00000ECFE12FEEC00202020001C3E22FEFC4F
:1005F0002020202000989820209898E060205050DB
:10060000888800000000005050505050000000004A
:10061000008888505020000000000002B2B21E0C7A
:100620000020200000F00864928A4AF29A84780040
:10063000204040404040000000E0F84E4EF8E020EE
:100640002000002020FEFE1212FEEC2020202020A0
:1006500000FCFE0202840020202000FEFE02028632
:10066000FC7820202020200000FEFE121212202004
:10067000202020FEFE1212122020000000FCFE02AC
:100680000222E2E400202020202000FEFE101010B4
:10069000FEFE20200000002020FEFE202000FEFEA6
:1006A000202000FEFE30FCCE02202000002020FE94
:1006B000FE000020202020FEFE1C70C0701CFEFEEC
:1006C000202000002000002020FEFE0C30C0FEFE96
:1006D00020200000002020FCFE020202FEFC002080
:1006E0002020202000FEFE223E1C2020000000FCD6
:1006F000FE020202FEFC000020202020204040FEDE
:10070000FE1232FECC2020000020209C3E32F2E47B
:1007100000202020000202FEFE0202000020200035
:1007200000FEFE000000FEFE002020202020000E23
:100730007EE0E07E0E000020200000063EF8C03E75
:100740003EC0F83E06000020200000202000008669
:10075000CE7878CE86202000002020061EF8F81ED5
:100760000600002020000082E27A1E0620202020C1
:1007700020FEFE02E0E080030C70800000000020FC
:10078000C002FEFE80E0E0100C020C100000000031
:100790000000000000000080808080808001020056
:1007A00000C8E828F8F00020202020FEFE08F8F01D
:1007B0002020202000F0F8080800202020F0F80871
:1007C000FEFE0020202020F0F828383000202020D5
:1007D00020FCFE0A202000B0F848783808C0E0A0CD
:1007E000E06000FEFE08F8F02020002020FBFB2047
:1007F00020FBFBE060FEFE60F8982020002020FE39
:10080000FE2020F8F808F8F008F8F020200020205A
:10081000002020F8F808F8F02020002020F0F80848
:10082000F8F00020202000F8F808F8F0E0E02020A0
:1008300000F0F808F8F8002020E0E0F8F8082020A0
:10084000003078E8C820202000FCFC08002020F8B8
:10085000F800F8F8002020202038F880F838002030
:1008600020200038F8C03838C0F8380020200000B8
:1008700020200098F860F898202000202038F88088
:10088000F83800C0E0200088E8781820202020FCFC
:10089000DE0260E080FEE002DEFC2080E06000100E
:1008A000081810080000000000FE026A3A02FE204C
:1008B00020202020202020202020540022080D0E5F
:1008C0002060040205060708090203030508020464
:1008D00002040704070707070707070702020707BD
:1008E00007080E0908080807070908020708070B88
:1008F0000809070909070808090D0708080404047E
:100900000608030707060707050707020306020A8A
:100910000707070705060507070B06070505010575
:1009200007080000000000000000FEFE18181E1E50
:10093000001E1E000000000090F89E90F89E1C0013
:10094000001C0000183C26FF66CC88040C183C18DC
:100950000C041C221CC0308E408000001804000CC7
:10096000100C80CC7E72F2DE0C80000C1C1010107B
:100970001C0C1C101E1E0000F0FC061C7CC006FC9B
:10098000F0C07C1C14140E14140000000000606001
:1009900060FCFC6060600000000C0C0000000000C7
:1009A0005838C0C0C0C0000000000000181800C0C7
:1009B000380618040000F8FC0E060EFCF8040C1CA7
:1009C000181C0C04180CFEFE00001C1C181C86C60B
:1009D000663E1C181C1C18181818888C062626FE43
:1009E000DC040C1C18180C04C0E0B88CFEFE80045B
:1009F0000404041C1C04707E3E3636F6C60C1C181B
:100A000018180C04F8FC6E6666EECC040C18181866
:100A10001C0C060606E6761E0600001C1C000000E4
:100A20009CFE666666FE9C0C1C1818181C0C3C7E0E
:100A3000666666FCF80C1C18181C0C0418181818AC
:100A4000181858386060F0F098980C000000000406
:100A5000040CD8D8D8D8D8D8D8000000000000009E
:100A60000C9898F0F060600C040400000000080C82
:100A700006C6E6763C180000001818000000E030BA
:100A800008C4F63A1A1AF2FA7E0408F00C30604CE8
:100A90009C98988C9C9C90484C2000C0F8BE86BEC8
:100AA000F8C000181C04040404041C18FEFE66664A
:100AB0006666FEDC1C1C181818181C0CF8FC0E06C8
:100AC000060E9C08040C1C18181C0C04FEFE0606DE
:100AD000060EFCF81C1C1818181C0C04FEFE66669A
:100AE0006666661C1C1818181818FEFE6666666690
:100AF000061C1C0000000000F8FC0E0606C6CEDC3A
:100B0000C8040C1C181818180C04FEFE6060606005
:100B1000FEFE1C1C000000001C1CFEFE1C1C808035
:100B2000000000FEFE0C1C1818181C0CFEFE6030A5
:100B300078EC86021C1C000000041C18FEFE00005D
:100B40000000001C1C1818181818FEFE0E7CE0008F
:100B5000E07C0EFEFE1C1C00000C1C0C00001C1C8B
:100B6000FEFE1C78E080FEFE1C1C0000040C1C1C19
:100B7000F8FC0E0606060EFCF8040C1C1818181CCF
:100B80000C04FEFE6666667E3C1C1C000000000035
:100B9000F8FC0E0686060EFCF8040C1C18181C0C3B
:100BA0001C24FEFE6666E6E6BE1C001C1C0000005F
:100BB0000C1C18103C7E666666EECC0C1C181818CF
:100BC0001C0C060606FEFE0606060000001C1C00A5
:100BD0000000FEFE00000000FEFE040C1C18181CA5
:100BE0000C04021EFCE000E0FC1E020000001C1CC5
:100BF0001C00000006FEF800F0FE0EFEF000F8FEFD
:100C00000600001C1C1C0000001C1C1C0000060E22
:100C1000F8F0F80E06181C0400041C18060E38F034
:100C2000F0380E060000001C1C000000060686E6D8
:100C3000761E0E06181C1C1818181818FEFE06063C
:100C4000FCFCC0C00638C000000004180606FEFE0A
:100C5000C0C0FCFC20380E0E382000000000000050
:100C60000000000000000000808080808080808084
:100C70000206040000001098D858F8F0000C1C1868
:100C8000180C1C10FEFE301838F0E01C1C0C181C50
:100C90000C04E0F018183830040C18181C0CE0F0A4
:100CA000381830FEFE040C1C180C1C1CE0F0D8D8C0
:100CB000D8F0E0040C181818180818FCFE1A1A00CE
:100CC0001C1C0000E0F0381830F8F864ECDCD8CCDC
:100CD000FC7CFEFE301818F8F01C1C0000001C1CE8
:100CE000FAFA1C1C00FAFAC0FC7CFEFEE0F0980840
:100CF0001C1C00041C18FEFE1C1CF8F81018F8F050
:100D00001818F8F01C1C00001C1C00001C1CF8F833
:100D1000301818F8F01C1C0000001C1CE0F03818FB
:100D200038F0E0040C1C181C0C04F8F8301838F0EB
:100D3000E0FCFC0C181C0C04E0F0381830F8F80447
:100D40000C1C180CFCFCF8F83018181C1C000000D7
:100D500070F8D8D8D890081818181C0C18FCFE1871
:100D600018000C1C1818F8F8000000F8F80C1C18F3
:100D7000180C1C1C38F8C000C0F83800001C1C1CE3
:100D8000000018F8E000F038F000E0F81800001C4F
:100D90001C0C000C1C1C00001838E0E03818181C53
:100DA00004041C1818F8E000E0F8180084FCF83C73
:100DB00004001898D878381C1C18181880FC7E0677
:100DC00006007CFCC0C0FEFC06067EFC80C0C0FCA9
:100DD0007C00603030706060300000000000000077
:100DE000FE020202020202FE1C1010101010101C63
:100DF000206465766963652873292E002064657612
:100E00006963652873292E00466F756E642000465D
:100E10006F756E642000202D3E2052656C61790054
:100E2000202D3E20446973706C617900202D3E2096
:100E3000427574746F6E7300290029002028307881
:100E4000002028307800466F756E642061646472FB
:100E50006573733A2000493243205363616E2E2E2E
:100E60002E005363616E6E696E672E2E2E0049321E
:100E700043207363616E6E65723A000000050720BF
:100E800061000000000000005F0000000700070094
:100E9000147F147F14242A7F2A12231308646236D5
:100EA000495522500005030000001C22410000416A
:100EB000221C00082A1C2A0808083E080800503096
:100EC00000000808080808006060000020100804FE
:100ED000023E5149453E00427F4000426151494631
:100EE0002141454B311814127F1027454545393CA7
:100EF0004A494930017109050336494949360649CD
:100F000049291E003636000000563600000008143D
:100F1000224114141414144122140800020151092E
:100F200006324979413E7E1111117E7F4949493689
:100F30003E414141227F4141221C7F494949417F35
:100F4000090901013E414151327F0808087F0041F3
:100F50007F41002040413F017F081422417F4040F3
:100F600040407F0204027F7F0408107F3E414141E0
:100F70003E7F090909063E4151215E7F0919294634
:100F8000464949493101017F01013F4040403F1F2F
:100F90002040201F7F2018207F631408146303045F
:100FA000780403615149454300007F414102040830
:100FB000102041417F0000040201020440404040F3
:100FC00040000102040020545454787F48444438BF
:100FD0003844444420384444487F38545454180812
:100FE0007E090102081454543C7F0804047800442C
:100FF0007D40002040443D00007F10284400417F98
:1010000040007C041804787C080404783844444484
:10101000387C14141408081414187C7C0804040880
:101020004854545420043F4440203C4040207C1C01
:101030002040201C3C4030403C44281028440C50A8
:1010400050503C4464544C44000836410000007F3A
:101050000000004136080008082A1C08081C2A085D
:101060000800060909066800198040006F6B2E0011
:101070004B6579706164200020204D61676E657456
:101080003A2000202020202020272E5F5F5F5F5F16
:101090002E272020200020202020205C20202F2010
:1010A00020205C20202F00202020207C20202020B9
:1010B0005F5F5F202020207C2000202020207C20DB
:1010C000202020202020202020207C2000202020E4
:1010D00020202F20206F2020206F20205C20002047
:1010E00020202020202E272020202020272E2020D6
:1010F000200020202020202020205F5F5F5F5F20D5
:1011000020202020004E6575737461727420696E12
:1011100000202020202020272E5F5F5F5F5F2E278A
:101120002020200020202020205C2020272D2D2D75
:101130002720202F2000202020207C20205C202021
:101140002020202F20207C00202020207C202020F8
:1011500020202020202020207C2000202020202053
:101160002F20206F2020206F20205C2000202020B6
:101170002020202E272020202020272E2020200065
:1011800020202020202020205F5F5F5F5F20202024
:101190002020002000202000202000000005072043
:1011A00060000000000000005F0000000700070072
:1011B000147F147F14242A7F2A12231308646236B2
:1011C000495620500008070300001C22410000413E
:1011D000221C002A1C7F1C2A08083E080800807078
:1011E00030000808080808000060600020100804AB
:1011F000023E5149453E00427F40007249494946FE
:101200002141494D331814127F1027454545393C7B
:101210004A49493141211109073649494936464968
:1012200049291E000014000000403400000008148A
:101230002241141414141400412214080201590903
:10124000063E415D594E7C1211127C7F4949493658
:101250003E414141227F4141413E7F494949417FD1
:10126000090909013E414151737F0808087F004187
:101270007F41002040413F017F081422417F4040D0
:1012800040407F021C027F7F0408107F3E414141A5
:101290003E7F090909063E4151215E7F0919294611
:1012A000264949493203017F01033F4040403F1F27
:1012B0002040201F3F4038403F631408146303045C
:1012C0007804036159494D43007F414141020408BC
:1012D0001020004141417F0402010204404040408F
:1012E00040000307080020545478407F28444438C5
:1012F0003844444428384444287F3854545418000F
:10130000087E090218A4A49C787F0804047800448D
:101310007D40002040403D007F1028440000417F78
:1013200040007C047804787C080404783844444401
:1013300038FC1824241818242418FC7C08040408F9
:10134000485454542404043F44243C4040207C1C12
:101350002040201C3C4030403C44281028444C9005
:1013600090907C4464544C4400083641000000775F
:101370000000004136080002010204023C26232638
:101380003C00030C0F30333C3FC0C3CCCFF0F3FC28
:10139000FF000000002300260029000000000024B8
:1013A0000027002A0000000000250028002B000470
:1013B00004040404040404020202020202030303FC
:1013C00003030301020408102040800102040810F6
:1013D00020010204081020000000080002010000A3
:1013E0000304070000000000000000007D1F651FCF
:1013F00011241FBECFEFD8E0DEBFCDBF25E0A0EBAC
:10140000B2E001C01D92AC35B207E1F712E0A0E0F6
:10141000B1E0EEEAF5E402C005900D92A03BB10701
:10142000D9F719E0C7EFD9E004C02197FE010E9467
:10143000C820C63FD107C9F70E94DF190C94CA2201
:101440000C9400008091A70390E02091A803821BD8
:101450009109089590E0FC01EE0FFF1FEB56FC4E42
:10146000A591B4912C91FC01EE5AFC4F3081208360
:10147000880F991FFC01EC5DFE4F0190F081E02D7B
:10148000808108954091FF02262F30E0240F311D06
:1014900021323105DCF420919B032430C9F4FC0196
:1014A00080E090E0861758F43091FF022191DC0132
:1014B000A152BD4FA30FB11D2C930196F3CF809184
:1014C000FF02680F6093FF0280E0089581E00895B5
:1014D00082E00895089508950895E091A803809109
:1014E000A703E81730F4F0E0E558FC4F808190E066
:1014F00008958FEF9FEF08959091A8038091A7031F
:10150000981750F4E92FF0E0E558FC4F208130E0C7
:101510009F5F9093A80302C02FEF3FEFC90108958A
:10152000CF92DF92EF92FF920F931F93CF93DF93AF
:101530007C01CB018A012091B102222389F0EB01C9
:101540006B01C40ED51ECC15DD0569F06991D7017C
:10155000ED91FC910190F081E02DC7010995F3CF49
:10156000642F0E94420AC801DF91CF911F910F9111
:10157000FF90EF90DF90CF900895CF93DF931F926D
:10158000CDB7DEB769832091B1022223D1F020913B
:10159000A503203240F021E030E0FC0133832283B8
:1015A00080E090E015C08091A603E82FF0E0E254BF
:1015B000FD4F998190838F5F8093A6038093A5034D
:1015C00005C061E0CE0101960E94420A81E090E0F0
:1015D0000F90DF91CF910895089580E090E00895F5
:1015E000CF93DF93EC019C818E81981758F4E881AA
:1015F000F9810084F185E02D42E0CE0109958C81CE
:101600008F5F8C83DF91CF910895DC01ED91FC9188
:101610000084F185E02D40E00994FC0127812695A6
:1016200026952695621720F46583606B0C94050B54
:101630000895CF92DF92EF92FF920F931F93CF9373
:10164000DF93EC01162FC42ED22E8F8186958695BE
:101650008695081710F00FEF080FFD2C8E810F15DF
:10166000A8F0181720F4612FCE010E94DC146F2D12
:10167000CE010E940D0BE12ECE1430F060E0CE01C1
:101680000E94F00AE394F8CFF394E8CF181720F4FF
:10169000612FCE010E94DC146D2DCE01DF91CF9120
:1016A0001F910F91FF90EF90DF90CF900C940D0B56
:1016B000CF93DF93EC0189818C8361E08B810E9461
:1016C000D5171092A8038093A703811101C0FFCF03
:1016D0008BE994E00E947C0A8983DF91CF91089581
:1016E000FC011082118212821382148215821682EA
:1016F000DC0117960F961D92A817B907E1F77F96A0
:101700001D921D92EA17FB07D9F708951F920F92B9
:101710000FB60F9211242F933F934F935F936F93C4
:101720007F938F939F93AF93BF93EF93FF9382E049
:101730000E942A0AFF91EF91BF91AF919F918F91E3
:101740007F916F915F914F913F912F910F900FBEBD
:101750000F901F9018951F920F920FB60F921124A1
:101760002F933F934F935F936F937F938F939F93A9
:10177000AF93BF93EF93FF9381E00E942A0AFF91FA
:10178000EF91BF91AF919F918F917F916F915F91F9
:101790004F913F912F910F900FBE0F901F90189572
:1017A0001F920F920FB60F9211242F933F934F93D6
:1017B0005F936F937F938F939F93AF93BF93EF93B9
:1017C000FF9380E00E942A0AFF91EF91BF91AF91B1
:1017D0009F918F917F916F915F914F913F912F9149
:1017E0000F900FBE0F901F90189510929B0381E0F1
:1017F00080937A031092750361E082E10E9445179D
:1018000061E083E10E944517E9EBF0E080818E7F83
:10181000808380818D7F808388E48093B80085E415
:101820008093BC000895CF93DF9391E09093DE0204
:101830008823B9F0C091B800D091BA008091BC0063
:101840008A7B8093BC0060E082E10E94451760E0E3
:1018500083E10E9445170E94F50BD093BA00C09314
:10186000B800DF91CF91089585ED8093BC00809101
:101870009D0390919E03A0919F03B091A0030796B2
:10188000A11DB11D23E0B695A795979587952A953B
:10189000D1F72091BC0024FF1CC040919D035091C2
:1018A0009E0360919F037091A003452B462B472B0D
:1018B00081F30097A105B10541F025E32A95F1F7E1
:1018C00000000197A109B109E4CF80919C030C9419
:1018D000130C10929B0308951F920F920FB60F9254
:1018E00011242F933F934F935F936F937F938F9325
:1018F0009F93AF93BF93EF93FF938091B900887F3D
:10190000803609F49CC068F5883209F45BC090F415
:10191000803109F454C038F4882309F4F6C08830C3
:1019200009F44DC0F6C0883109F44CC0803209F486
:101930005DC0EFC0803409F468C048F4803309F416
:1019400055C0883309F0E5C080937903D8C080354D
:1019500009F44FC0883509F45DC0883409F0D9C056
:10196000D6C0883909F4C7C0A8F4883709F467C01D
:1019700038F4883609F463C0803709F460C0C9C000
:10198000883809F4B8C0803909F45FC0803809F09C
:10199000C0C05BC0803B09F486C038F4803A09F4CB
:1019A00066C0883A09F47FC0B4C0803C09F4A7C07F
:1019B000883C09F4A4C0883B09F48AC0AAC080917D
:1019C000760310C09091780380917703981770F593
:1019D000E091780381E08E0F80937803F0E0EB5A7A
:1019E000FC4F80818093BB0085EC86C08093790397
:1019F0008EC0E091780381E08E0F80937803809110
:101A0000BB00F0E0EB5AFC4F80839091780380910B
:101A100077036EC0E091780381E08E0F80937803A6
:101A20008091BB00F0E0EB5AFC4F808380917A03F9
:101A300081116DC081E08093750384EA61C083E009
:101A400080939B0310922103CFCF8091210380329A
:101A500008F051C0E091210381E08E0F80932103B3
:101A60008091BB00F0E0EF5FFC4F8083BDCF85EC41
:101A70008093BC0010929B0380912103803230F44C
:101A8000E0912103F0E0EF5FFC4F108260912103B1
:101A900070E0E091A103F091A20381E093E0099549
:101AA0001092210336C084E080939B0310920003C0
:101AB0001092FF02E091A303F091A4030995809195
:101AC000FF02811105C081E08093FF021092DF02C6
:101AD000E091000381E08E0F80930003F0E0E1527B
:101AE000FD4F80818093BB00909100038091FF02A5
:101AF000981708F479CF85E88093BC000AC085EC7C
:101B00008093BC0010929B0304C0109279030E9442
:101B1000340CFF91EF91BF91AF919F918F917F9185
:101B20006F915F914F913F912F910F900FBE0F904A
:101B30001F9018958F929F92AF92BF92CF92DF9293
:101B4000EF92FF920F931F93CF93DF931091A50312
:101B5000113208F0C2C0D091B0020E94B0176B01E0
:101B60007C01C0919B03CC2311F180919D03909146
:101B70009E03A0919F03B091A003892B8A2B8B2BEE
:101B800081F30E94B01780909D0390909E03A090D7
:101B90009F03B090A003DC01CB018C199D09AE0915
:101BA000BF0988169906AA06BB06D8F682C082E04D
:101BB00080939B0381E080937A038FEF8093790376
:101BC0001092780310937703AEEBB2E0E5E5F3E013
:101BD00080E0181721F09D9191938F5FFACF1092BA
:101BE0007603909176038D2F880F892B809376034F
:101BF00080917503813089F5109275030E94B017AA
:101C00006B017C01809176038093BB0080919D03E2
:101C100090919E03A0919F03B091A003892B8A2BE2
:101C20008B2BA9F00E94B01700919D0310919E0389
:101C300020919F033091A003DC01CB018C199D09F9
:101C4000AE09BF09081719072A073B0790F18091D1
:101C5000BC0083FDD7CF85EC01C085EE8093BC002E
:101C60000E94B0176B017C0180919B03823039F593
:101C700080919D0390919E03A0919F03B091A0033A
:101C8000892B8A2B8B2B81F30E94B01700919D0327
:101C900010919E0320919F033091A003DC01CB01A2
:101CA0008C199D09AE09BF09081719072A073B07B8
:101CB000D8F680919C030E94130CC5E013C080915C
:101CC00079038F3F79F080917903803241F08091E0
:101CD0007903803331F0C4E005C0C1E003C0C2E045
:101CE00001C0C3E01092A6031092A5031092B102A6
:101CF0008C2FDF91CF911F910F91FF90EF90DF908C
:101D0000CF90BF90AF909F908F900895FC019181EC
:101D100062818081238131E03093B1022093B0024F
:101D20001092A6031092A50360956923682B8BE996
:101D300094E00E94BD0A8BE994E00C949A0D0F93F5
:101D40001F93CF93DF93EC01062F142F8E858131E3
:101D500020F4882339F0411105C08BE994E00E94FA
:101D60009A0D1E868E85811113C08D8591E090930A
:101D7000B1028093B0021092A6031092A503112322
:101D800011F060E401C060E08BE994E00E94BD0ABC
:101D9000602F8BE994E00E94BD0A123021F48E85F9
:101DA0008F5F8E8705C08BE994E00E949A0D1E8696
:101DB000DF91CF911F910F9108951F93CF93DF93E0
:101DC000CDB7DEB72C970FB6F894DEBF0FBECDBFF0
:101DD000182F8091C6049091C7048130910569F055
:101DE000029709F04EC06BE272E089EA93E00E942C
:101DF000DE13812F0E94F41644C061E272E089EA8A
:101E000093E00E94DE13812F0E94F41681E08093FC
:101E1000B402809300010E942E196093B502709362
:101E2000B6028093B7029093B802E0919804E33130
:101E300069F081E08E0F80939804F0E0EC57FB4F3F
:101E40001083E82FF0E0EC57FB4F108261E375E060
:101E5000CE0107960E94001364E874E0CE0101965B
:101E60000E943F13BE01695F7F4FCE0101960E9421
:101E7000EA18CE0101960E94F812CE0107960E9440
:101E8000F8122C960FB6F894DEBF0FBECDBFDF91CF
:101E9000CF911F910895CF92DF92EF92FF920F930F
:101EA0001F93CF93DF93CDB7DEB72C970FB6F8947F
:101EB000DEBF0FBECDBF0E942E190091BA02109155
:101EC000BB022091BC023091BD02DC01CB01801B22
:101ED000910BA20BB30B89389341A105B10528F0F2
:101EE0008091B402882309F485C180910001882380
:101EF00009F49FC10E942E196093BA027093BB022D
:101F00008093BC029093BD02109200018091B402B4
:101F1000882309F441C00E94BF168BE991E1909398
:101F20002E0580932D0582E295E00E94C8138CEB6C
:101F300098E090932E0580932D0582E295E00E9413
:101F4000C81368E971E182E295E00E94EE1365E949
:101F500071E182E295E00E94EE1304E814E078015A
:101F6000F70101900020E9F7CF01845894409801CF
:101F7000245834402817390708F05BC1F8016191F3
:101F80008F0182E295E00E94F41463E971E182E23C
:101F900095E00E94EE13E4CF8091B202882309F409
:101FA000B9C08BE991E190932E0580932D050E9495
:101FB000BF1660E871E182E295E00E9412146DE6BE
:101FC00071E182E295E00E9412146BE571E182E218
:101FD00095E00E94121468E471E182E295E00E94AB
:101FE000121466E371E182E295E00E94121464E249
:101FF00071E182E295E00E94121461E171E182E2F6
:1020000095E00E94EE1368EE73E080E090E00E949D
:10201000B01881E0809300011092B2026CE671E08A
:10202000CE0101960E943F1362E372E0CE01079653
:102030000E943F13BE016F5F7F4FCE0107960E9443
:10204000EA18CE0107960E94F812CE0101960E946E
:10205000F8126AE372E089EA93E00E94CC13E12C63
:10206000F12CCC24C394D12C8091670486010E2CD2
:1020700001C0000F0A94EAF7802B809367048091D7
:102080006504902F909589238093650485E694E0FC
:102090000E94860E80916504082B0093650485E6F6
:1020A00094E00E94860EFFEFEF1AFF0A28E0E21686
:1020B000F104D1F66AE472E089EA93E00E94CC135D
:1020C00065E071E189EA93E00E9412140E94BF1654
:1020D0006FE472E082E295E00E94CC136AEF70E058
:1020E00080E090E00E94B01813E0612F89EA93E04D
:1020F0000E940517612F82E295E00E94051768EEA5
:1021000073E080E090E00E94B018115071F70C94D9
:1021100000008FC08091B302882309F444C064EFAB
:1021200071E080E090E00E94B0188BE991E190931B
:102130002E0580932D050E94BF1662EF70E182E2AA
:1021400095E00E9412146FED70E182E295E00E942A
:1021500012146DEC70E182E295E00E9412146AEBB9
:1021600070E182E295E00E94121467EA70E182E277
:1021700095E00E94121466E970E182E295E00E9407
:10218000121463E870E182E295E00E94EE1368EEBB
:1021900073E080E090E00E94B01881E0809300013D
:1021A0001092B30246C00E94BF168BE991E1909352
:1021B0002E0580932D0582E295E00E94C8138CEBDA
:1021C00098E090932E0580932D0582E295E00E9481
:1021D000C81368E770E182E295E00E94EE136CE1BB
:1021E00075E082E295E00E94E01382E295E00E94B1
:1021F000C8131FC06CE671E0CE0107960E943F1322
:102200006BE572E0CE0101960E943F13BE01695F4B
:102210007F4FCE0101960E94EA18CE0101960E94DE
:10222000F812CE0107960E94F81281E08093000117
:102230005CCE2C960FB6F894DEBF0FBECDBFDF91FB
:10224000CF911F910F91FF90EF90DF90CF90089565
:102250000895CF92DF92EF92FF920F931F93CF9347
:10226000DF936C017A018B01C0E0D0E0CE15DF0571
:1022700081F0D8016D918D01D601ED91FC91019015
:10228000F081E02DC6010995892B11F02196EECF42
:102290007E01C701DF91CF911F910F91FF90EF90C9
:1022A000DF90CF900895FC01538D448D252F30E0B1
:1022B000842F90E0821B930B541710F0CF96089553
:1022C00001970895FC01918D828D981761F0828DA0
:1022D000DF01A80FB11D5D968C91928D9F5F9F735A
:1022E000928F90E008958FEF9FEF0895FC01918DFC
:1022F000828D981731F0828DE80FF11D858D90E069
:1023000008958FEF9FEF0895FC01918D228D892F05
:1023100090E0805C9F4F821B91098F7399270895ED
:1023200089EA93E00E94841121E0892B09F420E0DE
:10233000822F0895FC01848DDF01A80FB11DA35ADF
:10234000BF4F2C91848D90E001968F739927848FD5
:10235000A689B7892C93A089B1898C9183708064F8
:102360008C93938D848D981306C00288F389E02D99
:1023700080818F7D80830895EF92FF920F931F934A
:10238000CF93DF93EC0181E0888F9B8D8C8D981328
:1023900005C0E889F989808185FD26C0F62E0B8D60
:1023A00010E00F5F1F4F0F731127E02E8C8DE81286
:1023B0000CC00FB607FCFACFE889F989808185FF48
:1023C000F5CFCE010E949A11F1CF8B8DFE01E80F5F
:1023D000F11DE35AFF4FF0829FB7F8940B8FEA8903
:1023E000FB89808180620AC09FB7F894EE89FF89DB
:1023F0006083E889F98980818370806480839FBFCE
:1024000081E090E0DF91CF911F910F91FF90EF90CD
:102410000895CF93DF93EC01888D8823C9F0EA8972
:10242000FB89808185FD05C0A889B9898C9186FDCD
:102430000FC00FB607FCF5CF808185FFF2CFA889CA
:10244000B9898C9185FFEDCFCE010E949A11E7CF1B
:10245000DF91CF91089580E090E0892B29F00E94D0
:10246000901181110C94000008950E94B5220F93E1
:102470001F93CF93DF93EC0188819981009729F016
:102480002A813B812617370788F48B016F5F7F4FC6
:102490000E94EF21009761F0998388831B830A8350
:1024A0002C813D81232B11F4FC01108281E001C0BD
:1024B00080E0DF91CF911F910F9108956115710513
:1024C00079F0FB0101900020E9F73197AF01461B3D
:1024D000570BDC01ED91FC910280F381E02D099412
:1024E00080E090E00895CF92DF92EF92FF920F93F9
:1024F0001F93CF93DF93EC0181E090E07C0102C059
:10250000EE0CFF1C6A95E2F76E0180E7C80ED11C45
:10251000D6016C91613208F060E2FE01E159FF4F93
:1025200080810E94D5171092A8038093A703CD58ED
:10253000DF4F88819981DC01ED91FC910284F38564
:10254000E02D09958C01F6018081823070F0888140
:102550009981DC01ED91FC910284F385E02D0995D0
:1025600020E030E0382F022B132B98012E213F2141
:1025700081E090E02E153F0511F080E090E0DF91C2
:10258000CF911F910F91FF90EF90DF90CF90089522
:10259000CF93DF9370E0FB01E952FC4E8491FB0185
:1025A000ED53FC4ED491FB01E155FC4EC491CC237C
:1025B00091F081110E941C17EC2FF0E0EE0FFF1F2D
:1025C000EF56FC4EA591B491EC91ED2381E090E0A3
:1025D00021F480E002C080E090E0DF91CF91089587
:1025E000862F642F0C944517862F642F0C94741734
:1025F000FC0180819181009711F00C94662108956F
:10260000EF92FF920F931F93CF93DF93EC01198208
:1026100018821B821A821D821C828617970741F13D
:10262000FB01008111810115110511F1E480F58094
:10263000B7010E9437122881398181110DC02115FF
:10264000310519F0C9010E946621198218821D8284
:102650001C821B821A820CC0FD82EC82B801C90167
:10266000DF91CF911F910F91FF90EF900C94C322B7
:10267000DF91CF911F910F91FF90EF900895EF920E
:10268000FF920F931F93CF93DF93EC01198218826F
:102690001B821A821D821C826115710549F18B0112
:1026A000FB0101900020E9F731977F01E61AF70A54
:1026B000B7010E9437122881398181110DC021157F
:1026C000310519F0C9010E946621198218821D8204
:1026D0001C821B821A820CC0FD82EC82B801C901E7
:1026E000DF91CF911F910F91FF90EF900C94C32237
:1026F000DF91CF911F910F91FF90EF9008958F92EE
:102700009F92AF92BF92EF92FF920F931F93CF933E
:10271000DF93CDB7DEB7A1970FB6F894DEBF0FBE3B
:10272000CDBF7C01FA01CB0119A2223008F42AE0C6
:102730008E010F5D1F4F822E912CA12CB12CBF0159
:10274000A50194010E94A620F901CA0101501109B6
:102750006A3014F4605D01C0695CD8016C93232B6E
:10276000242B252B61F7B801C7010E945E12A196A8
:102770000FB6F894DEBF0FBECDBFDF91CF911F9192
:102780000F91FF90EF90BF90AF909F908F90089522
:1027900063E672E00C945E120F931F93CF93DF9366
:1027A000EC010E945E128C01CE010E94C813800FC2
:1027B000911FDF91CF911F910F9108950C945E129C
:1027C000DB0114964D915C9115976D917C91DC0124
:1027D000ED91FC910280F381E02D0994EF92FF923C
:1027E0000F931F93CF93DF938C017B01C0E0D0E068
:1027F000F701EC0FFD1F6491662361F0D801ED91A4
:10280000FC910190F081E02DC8010995892B11F010
:102810002196EECFCE01DF91CF911F910F91FF90C6
:10282000EF9008950F931F93CF93DF93EC010E94D5
:10283000EE138C01CE010E94C813800F911FDF910F
:10284000CF911F910F9108951F920F920FB60F9283
:1028500011242F933F934F935F936F937F938F93A5
:102860009F93AF93BF93EF93FF9389EA93E00E9406
:102870009A11FF91EF91BF91AF919F918F917F91AD
:102880006F915F914F913F912F910F900FBE0F90DD
:102890001F9018951F920F920FB60F9211242F932D
:1028A0008F939F93EF93FF93E091B903F091BA0355
:1028B0008081E091BF03F091C00382FD12C090813E
:1028C0008091C2038F5F8F732091C303821751F0F1
:1028D000E091C203F0E0E755FC4F958F8093C2036F
:1028E00001C08081FF91EF919F918F912F910F9067
:1028F0000FBE0F901F901895EF92FF920F931F93AA
:10290000CF93DF93EC017B01FC01E159FF4F808104
:1029100091E09093B1028093B0021092A6031092BE
:10292000A5038E010D581F4FD8018D919C91DC019C
:10293000ED91FC910190F081E02D0995FE01E059A7
:10294000FF4F8081823058F0F80180819181DC0155
:10295000ED91FC910190F081E02D6F2D0995F8012A
:10296000808191810E949A0DCF58DF4FE882F982D1
:10297000DF91CF911F910F91FF90EF90089521E08B
:1029800030E002C0220F331F6A95E2F7FC01EF58D6
:10299000FF4F442329F040815181242B352B06C061
:1029A0002095309540815181242335233183208324
:1029B000608171810C947C140F931F93CF938C01D1
:1029C000FC0164838085C62FC80F6C2F6F70C8010F
:1029D0000E94050B6C2F62956F706061C801CF91EA
:1029E0001F910F910C94050B2F923F924F925F9283
:1029F0006F927F928F929F92AF92BF92CF92DF920F
:102A0000EF92FF920F931F93CF93DF93CDB7DEB773
:102A100029970FB6F894DEBF0FBECDBFDC011B9621
:102A20000D911C911C970115110509F46AC1998734
:102A30008887F801B491319644913196449031964B
:102A4000A491EA2EF12CF7E0EF0EF11C93E0F5943F
:102A5000E7949A95E1F7EC82F801349674913196F7
:102A6000E491671758F0862F90E02E2F30E0F9019F
:102A7000E70FF11D8E179F070CF476C06D3069F4D7
:102A8000A885B98516968C91882309F437C160E032
:102A9000888599850E94DC1431C16A3009F031C102
:102AA000E885F9858185D5808E9DD00C112487819C
:102AB000869586958695D81630F08285882319F0FC
:102AC00082E08287D12CA885B98516968C911697BD
:102AD000882321F060E0CD010E94DC146D2D8885F3
:102AE00099850E940D0BE885F9858285823008F46E
:102AF00005C125810384F485E02D309751F033968C
:102B0000E491A885B98519960C91E09F002D1124B8
:102B100001C000E010E0095F1F4F83E015950795A5
:102B20008A95E1F78FEF820F080FE885F9854681D6
:102B300041506481CF010E94190BA885B98519966F
:102B40008C9119976D2D8E9D600D1124660F660F67
:102B5000660F17968C91861708F460E0606488858C
:102B600099850E94050BCAC050E05B2BC8010696F0
:102B7000671BE885F985F185F9834230510588F4B2
:102B8000452B09F019824E9C90014F9C300D112469
:102B9000629F8001639F100D1124080F191F312CB3
:102BA00024C0EA2FE77021F048E0342E3E1A01C01D
:102BB000312CA82FFC0140E050E07E2F7A1B7617C5
:102BC00028F47491470F511D3196F7CFFC01E60FA1
:102BD000F11D4490E49E8001E59E100DF49E100DC1
:102BE0001124020F131F080F191FA885B985149609
:102BF000BC91BA83E885F985F581FD83842D90E049
:102C00009F838E83812C912CC12CD12CCB829C81D3
:102C1000C91608F06EC0212C3601BFEF6B1A7B0A73
:102C2000E885F9858185281608F05BC0FB81F111E4
:102C300002C02220A9F0A885B9851596BC901597E9
:102C4000B39416968C91BA81B81728F46B2F8885A7
:102C500099850E94DC146B2D888599850E940D0B47
:102C6000A12CB12CA41410F0B12C2FC0F401EA0D4A
:102C7000FB1DE00FF11F5490332061F0E614F704C0
:102C800049F4E52DF0E0032C02C0F595E7950A9490
:102C9000E2F75E2EE885F9858185823069F4E52DBD
:102CA0002110E295EF70F0E0EF57FC4E5490652D47
:102CB000888599850E94F00A652D888599850E94EE
:102CC000F00AFFEFAF1ABF0ACDCF79817B1539F03B
:102CD00060E0888599850E94F00AB394F6CF23942A
:102CE0009FCF8FEFC81AD80AAE81BF818A0E9B1E74
:102CF0008DCF6D81888599850E940D0B81E090E0D4
:102D000002C080E090E029960FB6F894DEBF0FBEB7
:102D1000CDBFDF91CF911F910F91FF90EF90DF908A
:102D2000CF90BF90AF909F908F907F906F905F906B
:102D30004F903F902F90089596E0899FD0011124E5
:102D4000A955BB4F90967C936E935F9791E09196B7
:102D50009C93919790911305E0911405F0911505BE
:102D6000992339F0309751F0811108C08091C30444
:102D700004C0309719F05C968C91099408950F93D4
:102D80000091290506950695069501504091280564
:102D9000415020E060E082E295E00E94190B81E062
:102DA00090912C05911101C080E080932C0560E486
:102DB00082E295E00F910C94050B1092A8031092FB
:102DC000A7031092A6031092A5030E94F50B8AE6B2
:102DD0009AE09093A4038093A3038BE69AE09093E8
:102DE000A2038093A1030895CF93DF93682F89EA0C
:102DF00093E00E94BC11EC0189EA93E00E94C813A1
:102E00008C0F9D1FDF91CF9108950F931F93CF9348
:102E1000DF93EC01462F50E060E070E02AE00E9472
:102E20007F138C01CE010E94C813800F911FDF9188
:102E3000CF911F910F910895833081F028F4813054
:102E400099F08230A1F008958730A9F08830B9F068
:102E50008430D1F4809180008F7D03C08091800008
:102E60008F7780938000089584B58F7702C084B5F2
:102E70008F7D84BD08958091B0008F7703C08091CD
:102E8000B0008F7D8093B00008951F93CF93DF93A0
:102E9000282F30E0F901E952FC4E8491F901ED53FD
:102EA000FC4ED491F901E155FC4EC491CC23C1F004
:102EB000162F81110E941C17EC2FF0E0EE0FFF1F60
:102EC000EB55FC4EA591B4919FB7F894111104C035
:102ED0008C91D095D82302C0EC91DE2BDC939FBF60
:102EE000DF91CF911F910895CF93DF9390E0FC0184
:102EF000ED53FC4E2491FC01E155FC4E8491882356
:102F000061F190E0880F991FFC01E556FC4EC591D8
:102F1000D491FC01EB55FC4EA591B491611109C00F
:102F20009FB7F8948881209582238883EC912E2383
:102F30000BC0623061F49FB7F8948881322F3095CE
:102F400083238883EC912E2B2C939FBF06C08FB7D1
:102F5000F894E8812E2B28838FBFDF91CF910895BD
:102F60003FB7F8948091540590915505A09156056E
:102F7000B091570526B5A89B05C02F3F19F00196C3
:102F8000A11DB11D3FBFBA2FA92F982F8827820FEF
:102F9000911DA11DB11DBC01CD0142E0660F771F3F
:102FA000881F991F4A95D1F708958F929F92AF92EB
:102FB000BF92CF92DF92EF92FF920F931F93CF9326
:102FC000DF93F82ED62F613208F0BBC00E94B017F5
:102FD0004B015C01C0919B03CC2331F180919D0397
:102FE00090919E03A0919F03B091A003892B8A2BFF
:102FF0008B2B81F30E94B01700919D0310919E03CB
:1030000020919F033091A003DC01CB01881999091D
:10301000AA09BB09081719072A073B07D8F68091A8
:103020009C030E94130C8DC081E080939B038093CE
:103030007A039FEF90937903109278039D0F9093FA
:10304000770380937603909176038F2D880F892BD9
:103050008093760380917503813089F51092750312
:103060000E94B0176B017C01809176038093BB00B6
:1030700080919D0390919E03A0919F03B091A00326
:10308000892B8A2B8B2BA9F00E94B01780909D036F
:1030900090909E03A0909F03B090A003DC01CB0111
:1030A0008C199D09AE09BF0988169906AA06BB06A8
:1030B00090F18091BC0083FDD7CF85EC01C085EEF7
:1030C0008093BC000E94B0176B017C0180919B0330
:1030D000813031F580919D0390919E03A0919F03D3
:1030E000B091A003892B8A2B8B2B81F30E94B01700
:1030F00080909D0390909E03A0909F03B090A003AA
:10310000DC01CB018C199D09AE09BF09881699060F
:10311000AA06BB06D8F680919C030E94130C12C02D
:10312000809178038D1710F4D0917803E5E5F3E0F2
:10313000ABE7B3E0C0E0CD1729F081918D93CF5F6D
:10314000FACFC0E08C2FDF91CF911F910F91FF90AC
:10315000EF90DF90CF90BF90AF909F908F900895A9
:103160008F929F92AF92BF92CF92DF92EF92FF9297
:103170006B017C010E94B0174B015C01C114D104AA
:10318000E104F104F1F00E94B017DC01CB018819D1
:103190009909AA09BB09883E9340A105B10570F3BE
:1031A00021E0C21AD108E108F10888EE880E83E018
:1031B000981EA11CB11CC114D104E104F10419F73B
:1031C000DDCFFF90EF90DF90CF90BF90AF909F90BA
:1031D0008F9008950F931F93CF93DF93EC018B0192
:1031E00061E08EE00E94451789EA93E00E94C813CF
:1031F00064EA72E089EA93E00E94DE1367E375E017
:1032000089EA93E00E94E01366EA72E089EA93E0BB
:103210000E94DE13B80189EA93E00E94E01366EA97
:1032200072E089EA93E00E94DE13BE0189EA93E02E
:103230000E94E01368EA72E089EA93E00E94CC13EE
:1032400062E370E080E090E00E94B01860E08EE001
:10325000DF91CF911F910F910C9445172FB7F894E0
:1032600060915005709151058091520590915305E0
:103270002FBF08950F931F93CF93DF93C82FD62F9F
:1032800086E0C89FF0011124E955FB4F11A2878DFC
:1032900090A181309105D9F040F082309105A9F1DB
:1032A0000397F1F560E070E034C06623C9F161E096
:1032B00070E08C2F0E949C160E942E196093FF04D0
:1032C00070930005809301059093020529C00E9428
:1032D0002E190091FF0410910005209101053091F5
:1032E0000205AB01BC01401B510B620B730B8091BB
:1032F000110590911205A0E0B0E084179507A6078C
:10330000B70718F462E070E004C0D11109C063E0AF
:1033100070E08C2FDF91CF911F910F910C949C1630
:10332000DF91CF911F910F9108951F920F920FB6C9
:103330000F9211242F933F938F939F93AF93BF933B
:103340008091500590915105A0915205B09153057F
:1033500030914F0523E0230F2D3720F40196A11D56
:10336000B11D05C026E8230F0296A11DB11D2093B3
:103370004F058093500590935105A0935205B0934B
:1033800053058091540590915505A0915605B09133
:1033900057050196A11DB11D8093540590935505C5
:1033A000A0935605B0935705BF91AF919F918F9110
:1033B0003F912F910F900FBE0F901F901895CF93B4
:1033C000DF93CDB7DEB72E970FB6F894DEBF0FBEF2
:1033D000CDBF789484B5826084BD84B5816084BD9E
:1033E00085B5826085BD85B5816085BD80916E00A3
:1033F000816080936E0010928100809181008260D4
:103400008093810080918100816080938100809110
:1034100080008160809380008091B10084608093FF
:10342000B1008091B00081608093B00080917A00FB
:10343000846080937A0080917A00826080937A0021
:1034400080917A00816080937A0080917A00806810
:1034500080937A001092C100E091B903F091BA0311
:1034600082E08083E091B503F091B6031082E09191
:10347000B703F091B80380E180831092C103E0911B
:10348000BD03F091BE0386E08083E091BB03F09121
:10349000BC03808180618083E091BB03F091BC0319
:1034A000808188608083E091BB03F091BC038081C0
:1034B00080688083E091BB03F091BC0380818F7DA5
:1034C000808368EE73E080E090E00E94B01861E0D5
:1034D0008EE00E9474176CE671E0CE0101960E94A6
:1034E0003F1360E771E0CE0107960E943F13BE01D3
:1034F0006F5F7F4FCE0107960E94EA18CE010796B4
:103500000E94F812CE0101960E94F81264E672E061
:1035100089EA93E00E94CC130E94DD1610923005D8
:103520008CE380932F051092260510922705E6E67E
:10353000F0E185919491E82EE8E6F0E1F490E9E677
:10354000F0E1E491E0932805EAE6F0E1E491E0930C
:103550002905EBE6F0E1E491E0932A058C01802F48
:103560008E198F1548F4F801649182E295E00E946B
:10357000050B0F5F1F4FF3CF10922C050E94BF1653
:103580008CE08093B80080912905803429F40E9452
:10359000BF1681E080932C050BE71EE010932E05EB
:1035A00000932D0569E475E0CE0101960E94001399
:1035B0000E94BF1682E295E00E94C81382E295E065
:1035C0000E94C813ACEBCA2EA8E0DA2ED0922E05CA
:1035D000C0922D0565EB78E082E295E00E94EE1343
:1035E000B9EAEB2EB4E0FB2EF0922E05E0922D0509
:1035F00064EA74E082E295E00E94EE13D0922E0518
:10360000C0922D0562EA74E082E295E00E94EE131A
:10361000F0922E05E0922D056CE974E082E295E0CF
:103620000E94121486E990E090932E0580932D0558
:1036300061E870E082E295E00E94121460ED77E0AC
:1036400080E090E00E94B0180E94BF16CE01019663
:103650000E94F8126EE67EE089EA93E00E9412145E
:1036600062E67EE089EA93E00E94121410932E0530
:1036700000932D0566E57EE082E295E00E9412143B
:1036800018E0C12ED12CE12CF12C10E0BB24B39416
:103690000C2DB092B102C092B0021092A60310920B
:1036A000A5038BE994E00E949A0D811166C066E43F
:1036B0007EE089EA93E00E94EE132AE0B701A601BA
:1036C00089EA93E00E947F1361E47EE089EA93E057
:1036D0000E94EE136CE37EE082E295E00E94EE131E
:1036E00020E1B701A60189EA93E00E947F1320E15F
:1036F000B701A60182E295E00E947F136AE37EE0B3
:1037000089EA93E00E94EE1368E37EE082E295E0AE
:103710000E94EE13093349F46CE27EE089EA93E0FB
:103720000E94EE136CE771E015C00C3349F460E2BF
:103730007EE089EA93E00E94EE1368E871E00AC037
:103740000F3361F466E17EE089EA93E00E94EE13B4
:1037500064E971E082E295E00E94DE1389EA93E079
:103760000E94C81382E295E00E94C8131F5F61E0C7
:1037700070E080E090E00E94B018FFEFCF1ADF0AFF
:10378000EF0AFF0A28E7C216D104E104F10409F0A8
:103790007FCF6FE07EE089EA93E00E94EE1368E05D
:1037A0007EE082E295E00E94EE13C12ED12CE12C46
:1037B000F12C2AE0B701A60189EA93E00E947F1369
:1037C0002AE0B701A60182E295E00E947F136CEF28
:1037D0007DE089EA93E00E94121460EF7DE082E2CE
:1037E00095E00E94121489EA93E00E94C81382E2D5
:1037F00095E00E94C81360ED77E080E090E00E94C1
:10380000B01889E3809349040E94DD1686E494E0B1
:103810000E94580B00E010E0CC24C394D12C90916E
:1038200048047601002E01C0EE0C0A94EAF78E2DB2
:10383000809598239093480490914604892380931F
:10384000460486E494E00E94860E80914604E82AAD
:10385000E092460486E494E00E94860E0F5F1F4FBC
:1038600008301105E1F664E670E080E090E00E9427
:10387000B01860E770E182E295E00E94EE138DEDF2
:103880009EE0909315058093140588E691E090934F
:103890000805809307056FEF7FEF87EA94E00E94A9
:1038A0007C1460911705613208F060E28091160582
:1038B0000E94D5171092A8038093A70380911A0540
:1038C00090911B05DC01ED91FC910284F385E02DC4
:1038D00009959093190580931805809117058230FA
:1038E000C0F080911A0590911B05DC01ED91FC91CF
:1038F0000284F385E02D099520E030E0382F809197
:10390000180590911905282B392B30931905209310
:10391000180588E893E1909312058093110582E3DE
:1039200090E09093100580930F056CE670E182E2C1
:1039300095E00E9412146EE971E089EA93E00E941A
:10394000CC138FE3809368040E94DD1685E694E033
:103950000E94580B04E111E07CE0A72E71E0B72E25
:1039600088248394912CF801C190D1908F0180918B
:10397000670474010C2C01C0EE0C0A94EAF78E293E
:1039800080936704809165046E2C609486218093F7
:10399000650485E694E00E94860ED5017D905D0168
:1039A00080916504772021F0E82AE092650403C045
:1039B00068226092650485E694E00E94860E61EBC1
:1039C00071E089EA93E00E94DE1367EB71E089EA17
:1039D00093E00E94DE130D2C000CEE08FF08F7FEAA
:1039E0000EC06DE289EA93E00E94BC11442755277E
:1039F000BA014C195D096E097F092AE003C02AE06B
:103A0000B701A60189EA93E00E947F136FEB71E092
:103A100089EA93E00E94DE13672D89EA93E00E9411
:103A20000517B1E004321B0709F09DCF89EA93E046
:103A30000E94C81369EC71E089EA93E00E94CC13FC
:103A400060ED77E080E090E00E94B0186CE671E0F5
:103A5000CE0101960E943F1368EE71E0CE010796F9
:103A60000E943F13BE016F5F7F4FCE0107960E94F9
:103A7000EA18CE0107960E94F812CE0101960E9424
:103A8000F812FF24F394412C512C3201439453EE4D
:103A9000852E54E0952E66E0262EF09213050E94A6
:103AA0002E19009103051091040520910505309110
:103AB0000605AB01BC01401B510B620B730B8091DF
:103AC0000F0590911005A0E0B0E084179507A607B8
:103AD000B70718F010921305C6C0E12C80910E05AF
:103AE000E81608F056C0CE2CD12CE0910B05F091D1
:103AF0000C05EC0DFD1D40E0608187EA94E00E941A
:103B0000BF14D301C2010E2C04C0880F991FAA1F35
:103B1000BB1F0A94D2F79E878D875C01A094B09456
:103B2000312C80910D05381628F5032D10E0E09119
:103B30000905F0910A05E00FF11F608187EA94E022
:103B40000E9473120C5F1F4F000F111FF801E955FF
:103B5000FB4F892B39F4808191812D853E85822B05
:103B6000932B04C0808191818A219B219183808342
:103B70003394D7CF80910B0590910C05FC01EC0D8F
:103B8000FD1D41E0608187EA94E00E94BF14E39448
:103B9000A5CF07EA14E0F801878D90A1892B31F4B5
:103BA000148E8FEF9FEF968F858F11A236968E160B
:103BB0009F0691F7E12C80910D05E81670F5B12C68
:103BC000CE2CD12CC601880F991FDC01A155BB4F0B
:103BD0006D0120910E05B216F0F4F601408151817D
:103BE0000B2C02C0569547950A94E2F7642F61703A
:103BF000E29E900111242B0D311DE7EAF4E080E0F4
:103C0000A58DB68D2A173B0709F429C18F5F36961B
:103C10008A30B1F708C1E394CECFE12CD801919658
:103C20008C91882311F0EE24E3940A5F1F4F8016D5
:103C30009106A1F70E942E19609303057093040565
:103C40008093050590930605EE2009F443CF8091FB
:103C5000C804882309F43ECF8091C6049091C7041C
:103C6000019709F037CF0E942E190091B5021091EB
:103C7000B6022091B7023091B802DC01CB01801B63
:103C8000910BA20BB30B89389341A105B10520F02C
:103C90008091B4028111EDC0E4E8F4E001900020CD
:103CA000E9F7E958F44009F0B9C08091B9028111EF
:103CB000B5C0F09200010E944B0F64EF71E080E00C
:103CC00090E00E94B0188091990490919A04FC01B0
:103CD000319120918404A5E8B4E04496311103C0E9
:103CE000211173C008C0231370C031912D91E817C2
:103CF000F907A1F76AC0F092B2021092B402F092F2
:103D00000001F092B90261E375E0CE0107960E94CE
:103D1000001367EF71E0CE0101960E943F13BE01D0
:103D2000695F7F4FCE0101960E94EA18CE0101968D
:103D30000E94F812CE0107960E94F8128091650445
:103D400088608093650485E694E00E94860E60E0BA
:103D500072E0CE0101960E943F1380911C05909164
:103D60001D050097C9F069817A816115710591F08F
:103D700040911E0550911F052D813E81421753072A
:103D800048F00E94C3228D819E81909321058093EB
:103D9000200518C00E94662189819A8190931D0593
:103DA00080931C058B819C8190931F0580931E0539
:103DB0008D819E8190932105809320051A8219821E
:103DC0001C821B821E821D821DC0F092B3021092C3
:103DD000B402F092000161E375E0CE0101960E9409
:103DE000001364E072E0CE0107960E943F13BE010B
:103DF0006F5F7F4FCE0107960E94EA18CE010796AB
:103E00000E94F812CE0101960E94F8121092B4029C
:103E1000F092000110929804109284040E944B0FBB
:103E20000E942B123ACE40FF1CC0E7EAF4E080E08B
:103E300090E0448D411117C0E0910705F09108050D
:103E4000E20FF31F4081289EF001299EF00D1124FE
:103E5000E955FB4F448F368F258F10A2178E0E9495
:103E60003A19B394B6CE019636968A30910509F781
:103E7000F8CF61E375E0CE0101960E9400136BE07C
:103E800072E0CE0107960E943F13BE016F5F7F4F25
:103E9000CE0107960E94EA18CE0107960E94F812FA
:103EA000CE0101960E94F8120E94BF1662E172E0F4
:103EB00082E295E00E94CC131092B402F0920001CD
:103EC0001092980410928404E7CE8CE195E00E9451
:103ED000F81281E395E00E94F81287E395E00E94D2
:103EE000F8128DE395E00E94F81283E495E00E94B9
:103EF000F81289E495E00C94F8121092AC03109239
:103F0000AB0388EE93E0A0E0B0E08093AD03909324
:103F1000AE03A093AF03B093B0032EE231E0309331
:103F2000AA032093A90325EC30E03093B603209335
:103F3000B50324EC30E03093B8032093B70320ECB2
:103F400030E03093BA032093B90321EC30E0309392
:103F5000BC032093BB0322EC30E03093BE032093DC
:103F6000BD0326EC30E03093C0032093BF031092D2
:103F7000C2031092C3031092C4031092C50310929F
:103F80009E0410929D0480939F049093A004A0939C
:103F9000A104B093A20480E491E090939C048093E8
:103FA0009B0466E672E089E495E00E943F1367E7B0
:103FB00072E083E495E00E943F1362E872E08DE3D3
:103FC00095E00E943F1360E972E087E395E00E946C
:103FD0003F1368E972E081E395E00E943F1310927D
:103FE00025051092240581E080932B0510922E0563
:103FF00010922D0582E591E0909323058093220590
:104000006CE972E08CE195E00E943F131092A904E4
:104010001092AD041092AC041092AE04E7EAF4E002
:1040200083EE94E0148E10A2178E11A236968E178E
:104030009F07C1F785E091E090930A0580930905F9
:1040400081E091E090930C0580930B0581E08093D3
:104050000D0594E090930E0528E631E030930805B5
:10406000209307052AE030E03093100520930F05D8
:1040700024EF31E0309312052093110510921505BD
:104080001092140510920305109204051092050574
:10409000109206051092130522E631E03093A80431
:1040A0002093A70499E390931605809317058BE955
:1040B00094E090931B0580931A058FE992E090930A
:1040C0009A0480939904109298041092840485E6CF
:1040D00094E00E94700B86E494E00C94700B2F9295
:1040E0003F924F925F926F927F928F929F92AF9288
:1040F000BF92CF92DF92EF92FF920F931F93CF93D5
:10410000DF93CDB7DEB7CA1BDB0B0FB6F894DEBF6B
:104110000FBECDBF09942A88398848885F846E8491
:104120007D848C849B84AA84B984C884DF80EE80DB
:10413000FD800C811B81AA81B981CE0FD11D0FB6E4
:10414000F894DEBF0FBECDBFED010895A1E21A2E97
:10415000AA1BBB1BFD010DC0AA1FBB1FEE1FFF1F2B
:10416000A217B307E407F50720F0A21BB30BE40B7B
:10417000F50B661F771F881F991F1A9469F76095C2
:104180007095809590959B01AC01BD01CF0108957C
:10419000EE0FFF1F0590F491E02D09940F931F93EC
:1041A000CF93DF938230910510F482E090E0E091AC
:1041B0005A05F0915B0520E030E0A0E0B0E03097D8
:1041C00019F1408151810281138148175907C8F0C4
:1041D0008417950769F4109731F012960C93129793
:1041E00013961C9327C000935A0510935B0522C0B9
:1041F0002115310519F04217530718F49A01BD0132
:10420000EF01DF01F801DBCF21153105F9F0281BA3
:10421000390B2430310580F48A819B816115710549
:1042200021F0FB019383828304C090935B0580930C
:104230005A05FE01329644C0FE01E20FF31F81933E
:10424000919322503109398328833AC0209158052F
:1042500030915905232B41F4209108013091090137
:10426000309359052093580520910601309107019C
:104270002115310541F42DB73EB740910A01509107
:104280000B01241B350BE0915805F0915905E217FD
:10429000F307A0F42E1B3F0B2817390778F0AC0169
:1042A0004E5F5F4F2417350748F04E0F5F1F509346
:1042B0005905409358058193919302C0E0E0F0E0E6
:1042C000CF01DF91CF911F910F910895CF93DF938D
:1042D000009709F481C0FC01329713821282A091E9
:1042E0005A05B0915B05109781F420813181820FCE
:1042F000931F20915805309159052817390751F51A
:10430000F0935905E093580567C0ED0120E030E0D7
:10431000CE17DF0740F44A815B819E0141155105AC
:10432000F1F0EA01F5CFD383C28340815181840F3C
:10433000951FC817D90759F488819981840F951F53
:104340000296918380838A819B8193838283211546
:10435000310529F4F0935B05E0935A053DC0E9016E
:10436000FB83EA8349915991C40FD51FEC17FD07D0
:1043700061F480819181840F951F0296E9019983F0
:104380008883828193819B838A83E0E0F0E01296A8
:104390008D919C911397009719F0FD01DC01F7CFE7
:1043A0008D919C9111979D012E5F3F4F820F931F1E
:1043B00020915805309159052817390769F430972D
:1043C00029F410925B0510925A0502C013821282E2
:1043D000B0935905A0935805DF91CF910895A0E0BF
:1043E000B0E0E5EFF1E20C947320EC01009721F4CA
:1043F000CB010E94CE20B4C0FC01E60FF71F9C0148
:1044000022503109E217F30708F4A8C0D9010D9131
:104410001C91119706171707B0F00530110508F425
:104420009BC0C80104978617970708F495C00250EF
:104430001109061B170B019311936D937C93CF0108
:104440000E94662189C05B01A01AB10A4C01800E4E
:10445000911EA0915A05B0915B05612C712CE12C45
:10446000F12C109709F446C08D919C911197A815D5
:10447000B905B1F56C0142E0C40ED11CCA14DB04CD
:1044800078F14C018A189B08640142E0C40ED11CEB
:104490001296BC9012971396AC91B5E0CB16D1044E
:1044A00040F0B282A38391828082D9016D937C9384
:1044B00009C00E5F1F4F800F911FF9019183808308
:1044C000EB2DFA2FE114F10431F0D7011396FC9390
:1044D000EE93129741C0F0935B05E0935A053CC000
:1044E0006816790608F43C017D0112960D90BC9186
:1044F000A02DB7CF8091580590915905881699063F
:10450000E1F466167706C8F48091060190910701E0
:10451000009741F48DB79EB740910A0150910B016D
:10452000841B950BE817F907C8F4F0935905E0933D
:104530005805F901718360830FC0CB010E94CE2022
:104540007C01009759F0A801BE010E94BA22CE0159
:104550000E946621C70104C0CE0102C080E090E045
:10456000CDB7DEB7EEE00C948F2081E090E0F894B8
:104570000C94CA22FB01DC0102C001900D92415053
:104580005040D8F70895FB01DC0101900D92002006
:10459000E1F7089519E0C7EFD9E004C0FE010E94D9
:0E45A000C8202196C83FD107C9F7F894FFCF75
:1045AE0001000102030400005C058000010101000E
:1045BE0001010101000001000200030004000500DA
:1045CE00060007006B006C006D0000000000BC11BF
:1045DE002911531109128411621176110000000085
:1045EE00BD0A900AED0A6C0A220A7C0A6D0A0000C6
:1045FE000000F4142911ED0A28119F0E9F020000ED
:10460E000000EC0ABF14731252474257535953001D
:10461E00536574757020426567696E00202D3E20CB
:10462E00427574746F6E7300202D3E204469737052
:10463E006C617900202D3E2052656C617900696EA7
:10464E00697469616C697A696E672072656C6179EB
:10465E000020202020200052656C6179205B005DD7
:10466E002073657420746F200073756363657373B4
:10467E0066756C6C7920696E697469616C697A65AE
:10468E00642072656C617900536574757020436F98
:10469E006D706C6574650021436F72726563740092
:1046AE004F4646002157726F6E6700215265736543
:1046BE00740052657365742050617373776F7274F2
:1046CE0000507265737365643A2000484F4C443A4B
:1046DE0020005245535441525400457870616E6427
:1046EE00657220506F7274733A0048494748004E05
:1046FE006575737461727420696E00726566726599
:10470E007368000D0A00474C5F53545F434F4C4F84
:10471E00525F434F44450030322E30322E3230320B
:10472E00310076657273696F6E20312E30535400EE
:10473E004272434F4C4F5200484944004F4E005274
:10474E004742570021002C002C446F6E652E00004E
:00000001FF
