:100000000C9443040C946B040C946B040C94281112
:100010000C9403110C94DE100C946B040C946B0480
:100020000C946B040C946B040C946B040C946B0494
:100030000C946B040C946B040C946B040C946B0484
:100040000C943C100C946B040C94AC100C94861023
:100050000C946B040C946B040C946B040C946B0464
:100060000C944D110C946B04AEB08180A1A6A83FF6
:10007000AD8B32C8D300D580D91FDA12DB40AF5424
:10008000617374653A20006B6579706164657665AB
:100090006E74206F6E206B657970616400000005DE
:1000A000072060000000000000005F000000070063
:1000B0000700147F147F14242A7F2A122313086454
:1000C0006236495620500008070300001C224100F8
:1000D0000041221C002A1C7F1C2A08083E08080038
:1000E00080703000080808080800006060002010D8
:1000F0000804023E5149453E00427F400072494992
:1001000049462141494D331814127F102745454572
:10011000393C4A4949314121110907364949493693
:10012000464949291E000014000000403400000028
:10013000081422411414141414004122140802015A
:100140005909063E415D594E7C1211127C7F494986
:1001500049363E414141227F4141413E7F49494923
:10016000417F090909013E414151737F0808087F19
:1001700000417F41002040413F017F081422417F20
:10018000404040407F021C027F7F0408107F3E41B8
:1001900041413E7F090909063E4151215E7F09190F
:1001A0002946264949493203017F01033F40404027
:1001B0003F1F2040201F3F4038403F631408146316
:1001C00003047804036159494D43007F41414102D2
:1001D00004081020004141417F0402010204404014
:1001E000404040000307080020545478407F2844D2
:1001F00044383844444428384444287F38545454BC
:100200001800087E090218A4A49C787F08040478CA
:1002100000447D40002040403D007F102844000005
:10022000417F40007C047804787C080404783844DA
:10023000444438FC1824241818242418FC7C08048E
:100240000408485454542404043F44243C404020AF
:100250007C1C2040201C3C4030403C44281028445A
:100260004C9090907C4464544C440008364100000B
:1002700000770000004136080002010204023C261B
:1002800023263C00030C0F30333C3FC0C3CCCFF0DF
:10029000F3FCFF00000000240027002A00000000FB
:1002A000002300260029005363616E6E696E672E7D
:1002B0002E2E00493243207363616E6E65723A00E0
:1002C0001C620A0C206002020508070D08020404E3
:1002D00005070204020607060707070707070707BF
:1002E0000202070707050A070707080606080804A9
:1002F000060707090809070908070808070C07087F
:100300000604060408090306060606060506060294
:100310000407020A0606060605050506060A06067D
:10032000050602060809000000007E7E303007073F
:100330000007070000000000C0D8F8DED8F8DE187B
:100340000030000030000000387C64FF64E4C81016
:100350002020F02030103C7E427E3CC02018E6F089
:1003600010F0E000000000300000001030203010DD
:10037000DCFE227EDC806020103020202010302027
:1003800007070000F8FE07011070E0800107FEF883
:1003900080E07010120C3F0C1200000000002020C2
:1003A00020FC202020000000100000000000F07061
:1003B0002020202000000000000030300080E07C81
:1003C0001F03C0F030000000FCFE020202FEFC1021
:1003D0003020202030100404FEFE000020203030A9
:1003E0002020040682C2623E1C20303020202020C3
:1003F0000406222222FEDC10302020203010C0A073
:100400009884FEFE8000000000303000001E1E12A6
:1004100012F2E210302020203010F8FC161212F2F6
:10042000E010302020203010020282E27A1E060006
:10043000203010000000DCFE222222FEDC103020E2
:10044000202030103C7E424242FEFC002020203022
:100450001000181830301818F0706060909008087C
:100460000400000000101020909090909090900058
:100470000000000000000408089090606020101048
:10048000000000000462721E0C0030300000F00C0E
:10049000F4FA0AFAFA040CF00030205050505010D0
:1004A000100080F8FE86FEF880303000000030300A
:1004B000FEFE22223EFCC030302020203010F8FC0E
:1004C000060202020400103020202010FEFE02026C
:1004D0000206FCF83030202020301000FEFE2222E0
:1004E0002222303020202020FEFE22222222303004
:1004F00000000000F8FC06024242C2C40010302096
:1005000020203030FEFE20202020FEFE3030000073
:100510000000303002FEFE022030302000020202D5
:10052000FEFE202020203010FEFE70D88C06023007
:10053000300000103020FEFE0000000000303020AF
:1005400020202020FE0E3CF0C0300CFEFE300000CB
:10055000000000003030FE061C38E0C000FE300015
:10056000000000103030F8FC0602020206FCF80021
:100570001030202020301000FEFE4242427E3C30EF
:10058000300000000000F8FC0602020206FCF80041
:1005900010302060E0B09080FEFE2262E2BE1C00BF
:1005A00030300000001030201C3E322262E2C410C5
:1005B000202020203010020202FEFE020202000073
:1005C000003030000000FEFE00000000FEFE103093
:1005D0002020202030100E7EF080F07E0E000030B3
:1005E000303000000E7EF080E03E3EE080F07E0E77
:1005F000000030300000000030300000068EF8703F
:10060000F88E0630300000003030060E18F0F0187A
:100610000E06000000303000000002C2F23E0E0262
:10062000303020202020FFFF0101F0F08080031FE8
:100630007CE0800000000030F0C00101FFFF8080FE
:10064000F0F010180C06060C181000000000000056
:10065000000000000000000000000080808080801A
:1006600080808080010302000000C0E82828F8F0A4
:10067000103020203030FFFF0808F8F03030202004
:100680003010F0F808080810103020202010F0F882
:100690000808FFFF103020203030F0F8484878700C
:1006A00010302020201008FEFF0909003030000023
:1006B000F0F80808F8F810B0A0A0F070FFFF0808E4
:1006C000F8F0303000003030FBFB30300008FBFB2E
:1006D0008080F070FFFF60F098080030300000105C
:1006E0003020FFFF3030F8F81008F8F01008F8F06C
:1006F00030300000303000003030F8F80808F8F0F2
:10070000303000003030F0F80808F8F010302020C9
:100710003010F8F80808F8F0F0F020203010F0F869
:100720000808F8F810302020F0F0F8F81018183009
:1007300030000000307848C888202020301008FEA3
:10074000FE08080010302020F8F80000F8F81030FB
:100750002020303038F8C0C0F83800103030100099
:1007600078F880C03838C080F87800303000000059
:100770000030300018B8E0E0B818303000003030F9
:1007800038F8C0C0F8380090F070100008C8E87859
:100790001830302020202020FEDF0101000070F002
:1007A0008080FFFFF0F00101DFFE20208080F070EC
:1007B0000000E01010204080807000000000000069
:1007C0000000FE02020202020202FE30202020206F
:1007D000202020306800178040024F6C656420693B
:1007E0006E69740A000A20737563636573736675B6
:1007F0006C6C7920696E697469616C697A656420D2
:1008000072656C61790A002173657475705F656E3D
:10081000640A0A00206F6B0A004B65797061643AC4
:10082000202E2E2E0052656C61793A202E2E2E003D
:100830004F6C6564733A202E2E2E000000000025B8
:100840000028002B0004040404040404040202022F
:100850000202020303030303030102040810204001
:10086000800102040810200102040810200000008A
:10087000080002010000030407000000000000005F
:1008800000006C12DA1711241FBECFEFD8E0DEBFD4
:10089000CDBF25E0A2ECB2E001C01D92A134B207A9
:1008A000E1F712E0A0E0B1E0E8E9F4E302C005906E
:1008B0000D92A23CB107D9F714E0C2E4D4E004C021
:1008C0002197FE010E944718C134D107C9F70E9441
:1008D00099130C943F1A0C94000096E0899FD00164
:1008E0001124A956BB4F90967C936E935F9791E02D
:1008F00091969C939197E0910405F0910505909154
:100900000305992339F0309751F0811108C0809187
:10091000B3040994309719F05C968C91FACF08953E
:10092000833081F028F4813099F08230A9F0089565
:100930008730A9F08830C9F08430B1F4809180000C
:100940008F7D03C0809180008F7780938000089511
:1009500084B58F7784BD089584B58F7DFBCF80915A
:10096000B0008F778093B00008958091B0008F7DA4
:10097000F9CF1F93CF93DF93282F30E0F901E3598C
:10098000F74F8491F901E75AF74FD491F901EB5BE6
:10099000F74FC491CC23A9F0162F81110E94900427
:1009A000EC2FF0E0EE0FFF1FE55CF74FA591B4913F
:1009B0008FB7F894EC91111108C0D095DE23DC9329
:1009C0008FBFDF91CF911F910895DE2BF8CF3FB7F6
:1009D000F8948091640390916503A0916603B091AF
:1009E000670326B5A89B05C02F3F19F00196A11DEE
:1009F000B11D3FBFBA2FA92F982F8827BC01CD0169
:100A0000620F711D811D911D42E0660F771F881FC7
:100A1000991F4A95D1F708958F929F92AF92BF92F6
:100A2000CF92DF92EF92FF924B015C010E94E704AC
:100A30006B017C010E94E7046C197D098E099F09F6
:100A4000683E734081059105A8F321E0821A910860
:100A5000A108B10888EEC80E83E0D81EE11CF11C85
:100A600081149104A104B10429F7FF90EF90DF9065
:100A7000CF90BF90AF909F908F9008952FB7F8942C
:100A800060916003709161038091620390916303B0
:100A90002FBF08950F931F93CF93DF93C82FD62FA7
:100AA00086E0C89FF0011124E956FB4F11A2878D03
:100AB00090A181309105F1F058F082309105F1F16B
:100AC000039709F440C0DF91CF911F910F910895D2
:100AD0006623C9F361E070E08C2F0E946D040E94D0
:100AE0003E056093EF047093F0048093F1049093BB
:100AF000F204E9CF0E943E050091EF041091F0044A
:100B00002091F1043091F204AB01BC01401B510B68
:100B1000620B730B8091010590910205B0E0A0E09B
:100B200084179507A607B70748F462E070E08C2F9A
:100B3000DF91CF911F910F910C946D0463E070E0F1
:100B4000D111C1CFF4CF70E060E0F1CF08950895E6
:100B5000089580915D0390915E03891B990B089520
:100B6000AF92BF92CF92DF92EF92FF920F931F93BB
:100B7000CF93DF936C017B018B01040F151FEB01F9
:100B80005E01AE18BF08C017D10759F06991D601B0
:100B9000ED91FC910190F081E02DC6010995892B22
:100BA00079F7C501DF91CF911F910F91FF90EF90E1
:100BB000DF90CF90BF90AF900895FC01538D448D8E
:100BC000252F30E0842F90E0821B930B541710F0F8
:100BD000CF96089501970895FC01918D828D981705
:100BE00061F0A28DAE0FBF2FB11D5D968C91928DDD
:100BF0009F5F9F73928F90E008958FEF9FEF08950E
:100C0000FC01918D828D981731F0828DE80FF11DD6
:100C1000858D90E008958FEF9FEF0895FC01918DF1
:100C2000228D892F90E0805C9F4F821B91098F73EA
:100C30009927089588EB93E00E940E0621E0892B06
:100C400009F420E0822F089580E090E0892B29F0BC
:100C50000E941A0681110C9400000895FC01A48DD5
:100C6000A80FB92FB11DA35ABF4F2C91848D90E0CE
:100C700001968F739927848FA689B7892C93A089B1
:100C8000B1898C91837080648C93938D848D98133B
:100C900006C00288F389E02D80818F7D80830895CE
:100CA000EF92FF920F931F93CF93DF93EC0181E0BC
:100CB000888F9B8D8C8D98131AC0E889F989808163
:100CC00085FF15C09FB7F894EE89FF896083E88996
:100CD000F98980818370806480839FBF81E090E088
:100CE000DF91CF911F910F91FF90EF900895F62E15
:100CF0000B8D10E00F5F1F4F0F731127E02E8C8DAF
:100D00008E110CC00FB607FCFACFE889F9898081F3
:100D100085FFF5CFCE010E942E06F1CFEB8DEC0FB3
:100D2000FD2FF11DE35AFF4FF0829FB7F8940B8F10
:100D3000EA89FB8980818062CFCF0F931F93CF9385
:100D4000DF938C01D0E0C0E0F801EC0FFD1F64914F
:100D5000662341F088EB93E00E945006892B11F046
:100D60002196F2CFCE01DF91CF911F910F9108957F
:100D7000CF93DF93EC01888D8823B9F0AA89BB89D2
:100D8000E889F9898C9185FD03C0808186FD0DC0BD
:100D90000FB607FCF7CF8C9185FFF2CF808185FFDE
:100DA000EDCFCE010E942E06E9CFDF91CF910895BD
:100DB00090E0FC01EE0FFF1FEF55FD4FA591B491A0
:100DC0002C91FC01EA5AFC4F30812083880F991F37
:100DD000FC01E75EFE4F0190F081E02D80810895D7
:100DE000CF93DF9370E0FB01E359F74F8491FB0150
:100DF000E75AF74FD4916B5B774FFB01C491CC233B
:100E0000A1F081110E949004EC2FF0E0EE0FFF1F83
:100E1000E356FD4FA591B491EC91ED2381E090E074
:100E200009F480E0DF91CF91089580E090E0FACF5F
:100E3000862F642F0C94B904CF93DF9370E0FB01ED
:100E4000E75AF74F24916B5B774FFB01849188231E
:100E5000C9F090E0880F991FFC01ED56FD4FA59158
:100E6000B491FC01E55CF74FC591D49141110DC0DF
:100E70009FB7F8948C91209582238C9388812823A6
:100E800028839FBFDF91CF910895423051F49FB7DF
:100E9000F8943C91822F809583238C93E8812E2BAC
:100EA000EFCF8FB7F894EC912E2B2C938FBFEACF16
:100EB000CF93DF93EC019C818E81981758F4E881E1
:100EC000F9810084F185E02D42E0CE0109958C8105
:100ED0008F5F8C83DF91CF910895DC01ED91FC91C0
:100EE0000084F185E02D40E009940F931F93CF9388
:100EF0008C01FC016483C085C60F6C2F6F700E944B
:100F00006D076C2F62956F706061C801CF911F9162
:100F10000F910C946D07FC01278126952695269547
:100F2000621720F46583606B0C946D0708951F931E
:100F3000CF93DF93EC01142F8E81681718F4CE0144
:100F40000E947507612FCE01DF91CF911F910C9404
:100F50008B07CF92DF92EF92FF920F931F93CF9365
:100F6000DF93EC01162FC42ED22E8F8186958695A5
:100F70008695081710F00FEF080FFD2C0F15B0F035
:100F80008E81181720F4612FCE010E9475076F2DF6
:100F9000CE010E948B07E12ECE1430F060E0CE012E
:100FA0000E945807E394F8CFF394E8CF4D2D612FBA
:100FB000CE01DF91CF911F910F91FF90EF90DF90C5
:100FC000CF900C9497070F930091170506950695FF
:100FD0000695015040911605415020E060E080E107
:100FE00095E00E94A90781E090911A05911101C036
:100FF00080E080931A0560E480E195E00F910C9405
:101000006D072F923F924F925F926F927F928F92D5
:101010009F92AF92BF92CF92DF92EF92FF920F9387
:101020001F93CF93DF9300D000D01F92CDB7DEB7D0
:10103000DC011B960D911C910115110509F468C185
:101040009D838C83F801449131965491319664903C
:1010500031962491E22EF12CF7E0EF0EF11C73E0B3
:10106000F594E7947A95E1F7E982F80134963491A2
:101070003196E491631748F08E2F90E0FC01E30F66
:10108000F11D6E171F060CF487C06D3031F5AC8171
:10109000BD8116968C9181111AC081E090E00F906D
:1010A0000F900F900F900F90DF91CF911F910F91A4
:1010B000FF90EF90DF90CF90BF90AF909F908F9078
:1010C0007F906F905F904F903F902F90089560E0D9
:1010D0008C819D810E947507E0CF6A3009F018C1AC
:1010E000EC81FD818185D5808E9DD00C1124878176
:1010F000869586958695D81630F08285882319F0D6
:1011000082E08287D12C4D2D60E08C819D810E94F0
:101110009707AC81BD811A968C911A97823008F49A
:10112000BCCF15962C9115971B96ED91FC911C97B1
:1011300000E0309739F03396E49119960C91E09FD6
:10114000002D112410E0095F1F4F33E0159507951E
:101150003A95E1F78FEF820F080FEC81FD81468110
:1011600041506481CF010E94A907AC81BD811996CD
:101170008C9119976D2D8E9D600D1124660F660F51
:10118000660F17968C91861708F460E060648C8176
:101190009D810E946D0781CF4527542745270A5F0F
:1011A0001F4F631BEC81FD8121844230510508F003
:1011B0006DC0452B09F0212C6E9CC0016F9C900DD9
:1011C0001124689FF001699FF00D11240E0F1F1F5D
:1011D000512CAC81BD811496BC91BA83EC81FD8108
:1011E000F581FB83862C912CAA24A394B12C312C5D
:1011F0008981381608F086C0412CAC81BD811996D2
:101200008C91481608F077C0311002C0442041F09C
:10121000EC81FD8145814F5F6A81CF010E94970774
:10122000D12CC12CC61408F05AC0F801EC0DFD1DDC
:101230007490552061F0EA14FB0449F4E72DF0E0C6
:10124000052C02C0F595E7950A94E2F77E2EAC8155
:10125000BD8119968C91823081F4442009F43BC001
:1012600072948FE07822E72DF0E0ED57FD4F7490F7
:10127000672D8C819D810E945807672D8C819D81EF
:101280000E945807EFEFCE1ADE0ACCCF277038E065
:10129000532E521A211101C0512C50E040E030E091
:1012A00020E0F801461740F4E40FF51FE4912E0FFB
:1012B000311D4F5F5F4FF5CFE60FF11D6490E29E49
:1012C000F001E39EF00DF29EF00D11248E0F9F1F92
:1012D000080F191F7ECFB72DBF707B2EC4CFD12C26
:1012E0002D1439F060E08C819D810E945807D394C1
:1012F000F7CF439482CF3394080D191DFFEFAF1A37
:10130000BF0A76CF6B818C819D810E948B07C5CEF1
:1013100090E080E0C4CE20910303260F3327331FD3
:1013200021323105ECF42091AE03FC0190E080E025
:10133000243069F082E00895A09103032191AC016B
:101340004D515D4FA40FB52FB11D2C9301968617FB
:1013500098F380910303680F6093030380E008957E
:1013600081E008951092AE0381E080938D03109286
:10137000880361E082E10E94B90461E083E10E9498
:10138000B904E9EBF0E080818E7F808380818D7FDE
:10139000808388E48093B80085E48093BC0008953E
:1013A000CF93DF9391E09093E2028823B9F0C0914C
:1013B000B800D091BA008091BC008A7B8093BC00B9
:1013C00060E082E10E94B90460E083E10E94B90418
:1013D0000E94B209D093BA00C093B800DF91CF91B8
:1013E0000895CF92DF92EF92FF920F931F93CF93C6
:1013F000DF93D82FC62F613208F098C00E94E7040F
:101400006B017C018091AE0381116BC081E0809300
:10141000AE0380938D039FEF90938C0310928B0308
:101420009C0F90938A038093890380918903DD0F39
:10143000D82BD093890380918803813009F078C03C
:10144000109288030E94E7046B017C01809189035C
:101450008093BB008091B0039091B103A091B2033F
:10146000B091B303892B8A2B8B2BA1F00E94E70448
:101470000091B0031091B1032091B2033091B303F6
:101480006C197D098E099F09061717072807390768
:1014900008F448C08091BC0083FDD8CF85EC8093D0
:1014A000BC000E94E7046B017C018091AE03813097
:1014B00009F440C080918B038C1710F4C0918B030A
:1014C000E8E6F3E0AEE8B3E080E08C1355C08C2F83
:1014D000DF91CF911F910F91FF90EF90DF90CF9010
:1014E00008958091B0039091B103A091B203B0919F
:1014F000B303892B8A2B8B2B09F484CF0E94E7043A
:101500000091B0031091B1032091B2033091B30365
:101510006C197D098E099F090617170728073907D7
:1015200008F070CF8091AF030E94D009C0E0CFCF08
:1015300085EEB5CF8091B0039091B103A091B20335
:10154000B091B303892B8A2B8B2B09F4AECF0E9469
:10155000E7040091B0031091B1032091B2033091E0
:10156000B3036C197D098E099F0906171707280711
:10157000390708F09ACFD6CF91919D938F5FA5CF71
:101580000895E0915E0380915D03E81730F4F0E088
:10159000E257FC4F808190E008958FEF9FEF089510
:1015A00090915E0380915D032FEF3FEF981748F411
:1015B000E92FF0E0E257FC4F208130E09F5F9093ED
:1015C0005E03C9010895CF92DF92EF92FF920F93CD
:1015D0001F93CF93DF937C01CB018A012091B70346
:1015E000222389F0EB016B01C40ED51ECC15DD055D
:1015F00069F06991D701ED91FC910190F081E02DA6
:10160000C7010995F3CF642F0E948B09C801DF91B0
:10161000CF911F910F91FF90EF90DF90CF900895A1
:10162000CF93DF931F92CDB7DEB769832091B703C5
:101630002223F9F02091B403203258F021E030E069
:10164000FC013383228390E080E00F90DF91CF9103
:1016500008958091B503E82FF0E0EE53FD4F998196
:1016600090838F5F8093B5038093B40381E090E013
:10167000ECCF61E0CE0101960E948B09F7CFCF92AB
:10168000DF92EF92FF920F931F93CF93DF93D0914E
:10169000B40381E0D13208F09CC0C091B6030E942F
:1016A000E7046B017C018091AE0381116CC082E084
:1016B0008093AE0381E080938D038FEF80938C0342
:1016C00010928B03D0938A03A2ECB2E0E8E6F3E039
:1016D00080E0D8138DC01092890380918903CC0FCC
:1016E000C82BC093890380918803813009F084C09E
:1016F000109288030E94E7046B017C0180918903AA
:101700008093BB008091B0039091B103A091B2038C
:10171000B091B303892B8A2B8B2BA1F00E94E70495
:101720000091B0031091B1032091B2033091B30343
:101730006C197D098E099F090617170728073907B5
:1017400008F442C08091BC0083FDD8CF85EC809323
:10175000BC000E94E7046B017C018091AE038230E3
:1017600009F44CC080918C038F3F09F469C08091CB
:101770008C03803209F466C080918C03803309F4B5
:1017800063C084E026C08091B0039091B103A09122
:10179000B203B091B303892B8A2B8B2B09F483CF2F
:1017A0000E94E7040091B0031091B1032091B203AD
:1017B0003091B3036C197D098E099F09061717072D
:1017C0002807390708F06FCF8091AF030E94D00936
:1017D00085E01092B5031092B4031092B703DF9125
:1017E000CF911F910F91FF90EF90DF90CF900895D0
:1017F0009D9191938F5F6DCF85EEA9CF8091B003BE
:101800009091B103A091B203B091B303892B8A2BBD
:101810008B2B09F4A2CF0E94E7040091B003109132
:10182000B1032091B2033091B3036C197D098E0985
:101830009F09061717072807390708F08ECFC4CF6E
:1018400080E0C7CF82E0C5CF83E0C3CFE5E5F4E019
:10185000918162818081238131E03093B7032093AD
:10186000B6031092B5031092B40360956923682BF8
:101870008BE894E00E94100B8BE894E00C943F0BF3
:10188000EF92FF920F931F93CF93DF93EC017B01B5
:101890008C010D581F4FD8018D919C91FE01E1598B
:1018A000FF4F208131E03093B7032093B6031092AD
:1018B000B5031092B403DC01ED91FC910190F0812D
:1018C000E02D0995FE01E059FF4F8081823058F0EC
:1018D000F80180819181DC01ED91FC910190F08112
:1018E000E02D6F2D0995F801808191810E943F0BB9
:1018F000CF58DF4FE882F982DF91CF911F910F918E
:10190000FF90EF90089521E030E002C0220F331FD6
:101910006A95E2F7FC01EF58FF4F60817181442323
:1019200041F0262B372B31832083608171810C9409
:10193000400C2095309526233723F5CF0F931F9326
:10194000CF93DF93EC01062F142F8E85813120F485
:10195000882339F0411105C08BE894E00E943F0BC9
:101960001E868E85811112C08D8591E09093B703FC
:101970008093B6031092B5031092B40360E4111182
:1019800001C060E08BE894E00E94100B602F8BE8B0
:1019900094E00E94100B123041F48E858F5F8E8789
:1019A000DF91CF911F910F9108958BE894E00E94F1
:1019B0003F0B1E86F5CF089590E080E00895CF920A
:1019C000DF92EF92FF920F931F93CF93DF93EC017F
:1019D00081E090E07C0102C0EE0CFF1C6A95E2F70A
:1019E0006E0180E7C80ED11CD6016C91613208F0FF
:1019F00060E2FE01E159FF4F80810E94F1091092DF
:101A00005E0380935D03CD58DF4F88819981DC01AF
:101A1000ED91FC910284F385E02D09958C01F6018E
:101A20008081823060F088819981DC01ED91FC91A8
:101A30000284F385E02D099520E0022B182B0E215E
:101A40001F2181E090E00E151F0511F090E080E06D
:101A5000DF91CF911F910F91FF90EF90DF90CF908A
:101A600008950F931F93CF93DF93EC0188819981A1
:101A7000009759F02A813B812617370730F081E023
:101A8000DF91CF911F910F9108958B016F5F7F4F71
:101A90000E947219009759F0998388831B830A83E7
:101AA0002C813D81232B59F7FC011082E8CF80E087
:101AB000E7CFFC0180819181009711F00C94E91827
:101AC0000895EF92FF920F931F93CF93DF93EC0152
:101AD000198218821B821A821D821C828617970720
:101AE000D9F0FB010081118101151105A9F0E480F5
:101AF000F580B7010E94310D28813981811113C011
:101B00002115310519F0C9010E94E91819821882BE
:101B10001D821C821B821A82DF91CF911F910F912F
:101B2000FF90EF900895FD82EC82B801C901DF912A
:101B3000CF911F910F91FF90EF900C94381AEF9274
:101B4000FF920F931F93CF93DF93EC017B011982D8
:101B500018821B821A821D821C82FB0101900020C8
:101B6000E9F731978F01061B170BB8010E94310D61
:101B700028813981811113C02115310519F0C9015E
:101B80000E94E918198218821D821C821B821A8207
:101B9000DF91CF911F910F91FF90EF9008951D83DA
:101BA0000C83B701C901DF91CF911F910F91FF9075
:101BB000EF900C94381AFB0101900020E9F731975F
:101BC000AF01461B570BDC01ED91FC910280F381C4
:101BD000E02D09948F929F92AF92BF920F931F9323
:101BE000CF93DF93CDB7DEB7A1970FB6F894DEBFE2
:101BF0000FBECDBF19A2423008F44AE08E010F5D3E
:101C00001F4F842E912CB12CA12CA50194010E9470
:101C10002518E62FB901CA01EA3004F5E05DD801C4
:101C2000EE938D01232B242B252B79F790E080E078
:101C3000109729F0BD0188EB93E00E94DB0DA1967F
:101C40000FB6F894DEBF0FBECDBFDF91CF911F91CD
:101C50000F91BF90AF909F908F900895E95CDFCF78
:101C600063E771E00C94DB0D0F931F93CF93DF9329
:101C7000EC010E94DB0D8C01CE010E94300E800F22
:101C8000911FDF91CF911F910F9108950F931F9393
:101C9000CF93DF93EC018B0161E08EE00E94B904E9
:101CA00088EB93E00E94300E66E771E088EB93E0EA
:101CB0000E94DB0DF801448155816081718188EBC0
:101CC00093E00E94B00569E771E088EB93E00E9421
:101CD000DB0D4C815D816881798188EB93E00E9406
:101CE000B0056BE771E088EB93E00E94340E62E38D
:101CF00070E080E090E00E940C0560E08EE0DF91F3
:101D0000CF911F910F910C94B904CF93DF93CDB76E
:101D1000DEB72C970FB6F894DEBF0FBECDBF809113
:101D200074048823F9F0109288041092740462E815
:101D300071E0CE0107960E949F0D66E871E0CE012A
:101D400001960E949F0DBE01695F7F4FCE010196F3
:101D50000E94460ECE0101960E94590DCE010796B3
:101D60000E94590D2C960FB6F894DEBF0FBECDBF62
:101D7000DF91CF910895CF93DF93CDB7DEB72C9746
:101D80000FB6F894DEBF0FBECDBF8091890490914D
:101D90008A04FC01319120917404A5E7B4E04496D3
:101DA00031114FC0211155C062E871E0CE0101969A
:101DB0000E949F0D6DE871E0CE0107960E949F0D75
:101DC000BE016F5F7F4FCE0107960E94460ECE0187
:101DD00007960E94590DCE0101960E94590D0E944E
:101DE000E3078DE990E090931C0580931B0566E95D
:101DF00071E080E195E00E94DB0D80EC92E0909331
:101E00001C0580931B056AE971E080E195E00E9462
:101E1000340E809155048160809355040E94260CF5
:101E200068EB7BE080E090E00E940C050E94850E4C
:101E30002C960FB6F894DEBF0FBECDBFDF91CF91C9
:101E40000895321306C031912D91E817F90709F072
:101E5000A7CF62E871E0CE0101960E949F0D6DEA66
:101E600071E0CE0107960E949F0DBE016F5F7F4F0C
:101E7000CE0107960E94460ECE0107960E94590D8C
:101E8000CE0101960E94590D64EB71E080E195E06E
:101E90000E94340ECBCFEF92FF921F93CF93DF932C
:101EA000CDB7DEB72C970FB6F894DEBF0FBECDBF0F
:101EB000182F87E890E00E949D06E090B604F0900D
:101EC000B704112309F489C0612F88EB93E00E94C5
:101ED000500688EB93E00E94300EEA94EF2809F058
:101EE0006BC00E943E0560930C0570930D058093B6
:101EF0000E0590930F058FE790E00E949D06612FDD
:101F000088EB93E00E945006133209F450C01A3255
:101F100009F45EC0E0918804E33169F081E08E0F3E
:101F200080938804F0E0EC58FB4F1083E82FF0E03A
:101F3000EC58FB4F10820E94E3078DE990E09093EC
:101F40001C0580931B0566E971E080E195E00E9425
:101F5000DB0D80EC92E090931C0580931B0567ECF1
:101F600071E080E195E00E94DB0D64E774E080E1C0
:101F700095E00E94340E62E871E0CE0107960E945F
:101F80009F0D64E774E0CE0101960E949F0DBE0193
:101F9000695F7F4FCE0101960E94460ECE010196E9
:101FA0000E94590DCE0107960E94590D05C08091DF
:101FB000740481110E94BB0E2C960FB6F894DEBFFC
:101FC0000FBECDBFDF91CF911F91FF90EF9008958D
:101FD0000E94E3070E94850EEFCFEA94EF2861F795
:101FE0000E943E0560930C0570930D0580930E05CD
:101FF00090930F058FE790E00E949D0660E088EBCC
:1020000093E00E94500686CF85ED8093BC008091BE
:10201000B0039091B103A091B203B091B3030796BE
:10202000A11DB11D23E0B695A795979587952A9593
:10203000D1F72091BC0024FD03C01092AE03089597
:102040004091B0035091B1036091B2037091B3031A
:10205000452B462B472B69F30097A105B10541F0AD
:1020600025E32A95F1F700000197A109B109E1CF15
:102070008091AF030C94D0091F920F920FB60F926C
:1020800011242F933F938F939F93AF93BF9380918E
:10209000600390916103A0916203B091630330915A
:1020A0005F0323E0230F2D3758F50196A11DB11DC5
:1020B00020935F038093600390936103A093620376
:1020C000B09363038091640390916503A0916603CC
:1020D000B09167030196A11DB11D80936403909395
:1020E0006503A0936603B0936703BF91AF919F917F
:1020F0008F913F912F910F900FBE0F901F901895C9
:1021000026E8230F0296A11DB11DD2CF1F920F9278
:102110000FB60F9211242F933F934F935F936F93BA
:102120007F938F939F93AF93BF93EF93FF9388EB2E
:1021300093E00E942E06FF91EF91BF91AF919F9186
:102140008F917F916F915F914F913F912F910F9060
:102150000FBE0F901F9018951F920F920FB60F92FF
:1021600011242F938F939F93EF93FF93E091C803D4
:10217000F091C9038081E091CE03F091CF0382FDFD
:102180001BC090818091D1038F5F8F732091D20308
:10219000821741F0E091D103F0E0E854FC4F958FB5
:1021A0008093D103FF91EF919F918F912F910F9089
:1021B0000FBE0F901F9018958081F4CF1F920F9241
:1021C0000FB60F9211242F933F934F935F936F930A
:1021D0007F938F939F93AF93BF93EF93FF9382E08F
:1021E0000E94D806FF91EF91BF91AF919F918F917F
:1021F0007F916F915F914F913F912F910F900FBE03
:102200000F901F9018951F920F920FB60F921124E6
:102210002F933F934F935F936F937F938F939F93EE
:10222000AF93BF93EF93FF9381E00E94D806FF9195
:10223000EF91BF91AF919F918F917F916F915F913E
:102240004F913F912F910F900FBE0F901F901895B7
:102250001F920F920FB60F9211242F933F934F931B
:102260005F936F937F938F939F93AF93BF93EF93FE
:10227000FF9380E00E94D806FF91EF91BF91AF914C
:102280009F918F917F916F915F914F913F912F918E
:102290000F900FBE0F901F9018951F920F920FB6C0
:1022A0000F9211242F933F934F935F936F937F93DC
:1022B0008F939F93AF93BF93EF93FF938091B90058
:1022C000887F803609F44AC0F0F5883209F4A7C047
:1022D00018F5803109F49BC0B8F4882309F4F9C0DB
:1022E000883009F494C0FF91EF91BF91AF919F9115
:1022F0008F917F916F915F914F913F912F910F90AF
:102300000FBE0F901F901895883109F488C0803255
:1023100051F780938C0314C0803409F49DC040F4BD
:102320008033B9F38833F9F680938C0385ECB0C021
:10233000803509F485C0883509F496C0883499F64B
:102340000E940410D0CF883909F48CC038F5883742
:1023500029F050F4883611F0803729F683E0809315
:10236000AE031092250357C0883809F47BC080392A
:1023700019F0803809F0B7CF80912503803208F03A
:1023800071C0E091250381E08E0F80932503809139
:10239000BB00F0E0EB5FFC4F80833DC0803B39F039
:1023A000E0F4803A09F479C0883A09F09CCF84E0DF
:1023B0008093AE031092040310920303E09159033B
:1023C000F0915A0309958091030381110FC081E0B8
:1023D000809303031092E30209C0803C09F4A6CF66
:1023E000883C09F4A3CF883B09F07DCFE09104033A
:1023F00081E08E0F80930403F0E0ED51FD4F80816A
:102400008093BB00909104038091030329C08091C5
:1024100089038093BB0085EC8093BC0064CF9091CE
:102420008B0380918A03981758F5E0918B0381E024
:102430008E0F80938B03F0E0E859FC4F8081E9CF49
:10244000E0918B0381E08E0F80938B038091BB0022
:10245000F0E0E859FC4F808390918B0380918A03D0
:102460009817C8F285E8D8CFE0918B0381E08E0FF2
:1024700080938B038091BB00F0E0E859FC4F808390
:1024800080918D0381115CCF81E08093880384EA81
:102490008093BC001092AE0326CF85EC8093BC00E5
:1024A0001092AE0380912503803230F4E091250331
:1024B000F0E0EB5FFC4F10826091250370E0E0914B
:1024C0005B03F0915C0385E093E00995109225038E
:1024D0000ACF10928C0334CF1092BB031092BA0330
:1024E00088EE93E0A0E0B0E08093BC039093BD033E
:1024F000A093BE03B093BF032BE331E03093B90345
:102500002093B80325EC30E03093C5032093C40337
:1025100024EC30E03093C7032093C60320EC30E076
:102520003093C9032093C80321EC30E03093CB03F0
:102530002093CA0322EC30E03093CD032093CC03E8
:1025400026EC30E03093CF032093CE031092D103DA
:102550001092D2031092D3031092D40310928E04DF
:1025600010928D0480938F0490939004A093910413
:10257000B09392048DE491E090938C0480938B044B
:1025800061ED71E087E395E00E949F0D6CEE71E0D4
:1025900081E395E00E949F0D67EF71E08BE295E08B
:1025A0000E949F0D64E072E085E295E00E949F0D1D
:1025B0006BE072E08FE195E00E949F0D1092130591
:1025C0001092120581E08093190510921C0510925B
:1025D0001B0589E691E090931105809310050E94F8
:1025E0003E0560930C0570930D0580930E05909346
:1025F0000F051092990410929D0410929C04109261
:102600009E04E3EBF4E01082148213821582369666
:1026100084E0EF3EF807B9F783E091E09093FA0485
:102620008093F90480E091E09093FC048093FB0494
:1026300084E08093FD0483E08093FE0487E091E0D2
:102640009093F8048093F7048AE090E0909300055B
:102650008093FF0484EF91E090930205809301053D
:1026600010920505109204051092F3041092F404E0
:102670001092F5041092F604109203058FE591E094
:10268000909398048093970488E38093060581E0F3
:10269000809307058BE894E090930B0580930A05DF
:1026A0008FE092E090938A048093890410928804CA
:1026B000109274041092550410925604109257040C
:1026C000109258041092590410925A0410925B040C
:1026D00010925C0410925D0410925E0410925F04EC
:1026E00010926004109261041092620410926304CC
:1026F00010926504109264041092670410926604AC
:10270000109269041092680410926B0410926A048B
:1027100010926D0410926C0410926F0410926E046B
:10272000109271041092700410927304109272044B
:102730000895CF93DF93CDB7DEB72C970FB6F894FB
:10274000DEBF0FBECDBF789484B5826084BD84B5F2
:10275000816084BD85B5826085BD85B5816085BD9C
:1027600080916E00816080936E0010928100809154
:1027700081008260809381008091810081608093DC
:102780008100809180008160809380008091B10001
:1027900084608093B1008091B00081608093B0002C
:1027A00080917A00846080937A0080917A008260C0
:1027B00080937A0080917A00816080937A00809182
:1027C0007A00806880937A001092C100E091C8037B
:1027D000F091C90382E08083E091C403F091C503C6
:1027E0001082E091C603F091C70380E180831092CC
:1027F000D003E091CC03F091CD0386E08083E0919B
:10280000CA03F091CB03808180618083E091CA0389
:10281000F091CB03808188608083E091CA03F091BE
:10282000CB03808180688083E091CA03F091CB0361
:1028300080818F7D808310925E0310925D031092E1
:10284000B5031092B4030E94B20987EA95E0909311
:102850005A038093590388EA95E090935C03809330
:102860005B0364E172E0CE0101960E949F0D68E176
:1028700072E0CE0107960E949F0DBE016F5F7F4FF1
:10288000CE0107960E94460ECE0107960E94590D72
:10289000CE0101960E94590D64E172E0CE010196CD
:1028A0000E949F0D67E375E0CE0107960E94610DBF
:1028B000BE016F5F7F4FCE0107960E94460ECE018C
:1028C00007960E94590DCE0101960E94590D64E1B0
:1028D00072E0CE0101960E949F0D61E375E0CE018A
:1028E00007960E94610DBE016F5F7F4FCE01079674
:1028F0000E94460ECE0107960E94590DCE01019608
:102900000E94590D64E172E0CE0101960E949F0D74
:102910006BE275E0CE0107960E94610DBE016F5F0C
:102920007F4FCE0107960E94460ECE0107960E9469
:10293000590DCE0101960E94590D66E272E088EBB6
:1029400093E00E94340EA89563E372E088EB93E075
:102950000E94340E88EB93E00E94300E83EB92E0ED
:102960000E949D0688EB93E00E94300E87EA92E079
:102970000E949D0688EB93E00E94300EF8E0CF2E77
:10298000D12CE12CF12C10E001E00093B703C092B0
:10299000B6031092B5031092B4038BE894E00E9442
:1029A0003F0B811123C060E472E088EB93E00E944A
:1029B000DB0D4AE0C701B6010E94EA0D60E572E056
:1029C00088EB93E00E94DB0D40E1C701B6010E9455
:1029D000EA0D65E572E088EB93E00E94340E1F5F1C
:1029E00061E070E080E090E00E940C052FEFC21AD9
:1029F000D20AE20AF20A48E7C416D104E104F1045B
:102A000021F66CE771E088EB93E00E94340E67E5F5
:102A100072E088EB93E00E94DB0D612F70E090E0A4
:102A200080E04AE00E94EA0D6EE572E088EB93E0F8
:102A30000E94340E80E398E00E949D068AED97E0A4
:102A40000E949D0610921E058CE380931D05109236
:102A5000140510921505E4EDF7E085919491E82EA8
:102A6000E6EDF7E0F490E7EDF7E0E491E09316058A
:102A7000E8EDF7E0E491E0931705E9EDF7E0E49184
:102A8000E09318058C01802F8E198F1548F4F801FA
:102A9000649180E195E00E946D070F5F1F4FF3CFB7
:102AA00010921A050E94E3078CE08093B800809191
:102AB0001705803429F40E94E30781E080931A050A
:102AC0000E94E30780EC92E090931C0580931B0525
:102AD00068EE73E080E090E00E940C056AE672E028
:102AE00088EB93E00E94340E85E298E00E949D06F8
:102AF0006CE772E088EB93E00E94340E8FE38093E2
:102B0000580410925E031092B5031092B4030E9411
:102B1000B20987EA95E090935A038093590388EAB3
:102B200095E090935C0380935B03809156048093BF
:102B3000590461E0809158040E94F10980935D037B
:102B4000811101C0FFCF8BE894E00E94D00A8093EE
:102B5000560410E000E0CC24C394D12C809157049B
:102B60007601002E01C0EE0C0A94EAF78E298093BC
:102B70005704909155048E2D809589238093550498
:102B80000E94260C809155048E29809355040E9442
:102B9000260C0F5F1F4F0830110501F75FE2A52ECD
:102BA00051E0B52E0FE111E067E3E62E61E0F62E6D
:102BB000CC24C394D12CD5012D915D01F8018191D4
:102BC00091918F01A60102C0440F551F8A95E2F72B
:102BD000CA0190915504222309F4F2C0892B8093F5
:102BE00055040E94260CEA14FB0429F785EE97E0B1
:102BF0000E949D066FE872E088EB93E00E94340E1D
:102C0000A89562E370E080E090E00E940C0589E105
:102C100098E00E949D068BE49FE0909305058093C9
:102C2000040587E091E09093F8048093F7046FEF38
:102C30007FEF87E994E00E94400C609107056132C4
:102C400008F060E2809106050E94F10910925E038F
:102C500080935D0380910A0590910B05DC01ED9155
:102C6000FC910284F385E02D0995909309058093EA
:102C70000805809107058230B8F080910A0590918F
:102C80000B05DC01ED91FC910284F385E02D0995A3
:102C900020E0382F8091080590910905822B932B15
:102CA000909309058093080588E893E190930205C5
:102CB0008093010584E190E0909300058093FF04E8
:102CC00084E198E00E949D06A89565E070E080E0B0
:102CD00090E00E940C0588EB93E00E94300E63E9BF
:102CE00072E088EB93E00E94340E88EB93E00E9440
:102CF000300E87E098E00E949D0660ED77E080E06E
:102D000090E00E940C05412C512C3201439440E08C
:102D1000A42E40E0B42EA895B1E0B09303050E9424
:102D20003E050091F3041091F4042091F5043091D4
:102D3000F604AB01BC01401B510B620B730B80917D
:102D4000FF0490910005B0E0A0E0312C84179507B6
:102D5000A607B70708F44AC0109203050E943E0573
:102D600000910C0510910D0520910E0530910F0575
:102D7000601B710B820B930B603D774081059105C1
:102D800098F00E943E0560930C0570930D058093AA
:102D90000E0590930F0580917404882309F405C1F2
:102DA0000E94BB0E0E94850EA114B10409F4B3CF9A
:102DB0000E941A06882309F4AECF0E940000ABCF10
:102DC000809589230CCF808191818E219F214FC0D6
:102DD0008091FB049091FC04C80ED91E41E0F601DD
:102DE000608187E994E00E94830C33948091FE0413
:102DF000381608F040C0C32CD12CE091FB04F091B0
:102E0000FC04EC0DFD1D40E0608187E994E00E9428
:102E1000830CD301C201032C04C0880F991FAA1F81
:102E2000BB1F0A94D2F74C017C01E094F094212C52
:102E30008091FD04281660F6022D10E0E091F9045F
:102E4000F091FA04E00FF11F608187E994E00E949D
:102E5000DF0C0C5F1F4F000F111FF801E956FB4FED
:102E6000892B09F0B0CF808191818829992991839C
:102E700080832394DDCF07E914E07801D7015F96C2
:102E80008D919C919097892B59F45C961C925C973C
:102E9000EFEFFFEF5E96FC93EE935D9791961C9299
:102EA000F6E0EF0EF11C43ED54E04E155F0531F7EF
:102EB000D12C8091FD04D81608F053C0C12C8D2C64
:102EC000912C880C991CC40181569B4F4C01209178
:102ED000FE04C21608F043C0D4016D917C910C2C05
:102EE00002C0769567950A94E2F7D29E900111246C
:102EF0002C0D311DE7E9F4E080E0458D568D241757
:102F0000350709F455C08F5F36968A30B1F760FFF8
:102F100024C0E7E9F4E090E080E0448D411118C05E
:102F2000E091F704F091F804E20FF31F4081B6E05E
:102F3000B89FF001B99FF00D1124E956FB4F448F63
:102F4000368F258F10A2178E61E00E944A0505C0BA
:102F5000019636968A30910501F7C394B8CFD39481
:102F6000A8CFD12CF80181A18111D82E0A5F1F4F63
:102F7000E016F106B9F70E943E056093F3047093E2
:102F8000F4048093F5049093F604DD2009F4E4CE74
:102F90008091B804882309F4DFCE8091B604909123
:102FA000B704019709F0D8CED9CE0E94E307FACE34
:102FB0006170CBCF8FE195E00E94590D85E295E0DD
:102FC0000E94590D8BE295E00E94590D81E395E036
:102FD0000E94590D87E395E00C94590D2F923F9272
:102FE0004F925F926F927F928F929F92AF92BF9219
:102FF000CF92DF92EF92FF920F931F93CF93DF93C5
:10300000CDB7DEB7CA1BDB0B0FB6F894DEBF0FBE21
:10301000CDBF09942A88398848885F846E847D846E
:103020008C849B84AA84B984C884DF80EE80FD8070
:103030000C811B81AA81B981CE0FD11D0FB6F894E6
:10304000DEBF0FBECDBFED010895A1E21A2EAA1B6F
:10305000BB1BFD010DC0AA1FBB1FEE1FFF1FA21748
:10306000B307E407F50720F0A21BB30BE40BF50B45
:10307000661F771F881F991F1A9469F760957095CE
:10308000809590959B01AC01BD01CF010895EE0F95
:10309000FF1F0590F491E02D09940F931F93CF9398
:1030A000DF938230910510F482E090E0E0913F05DB
:1030B000F091400530E020E0B0E0A0E0309799F4D6
:1030C0002115310509F44AC0281B390B243031057C
:1030D000D8F58A819B816115710589F1FB01938384
:1030E0008283FE0111C04081518102811381481702
:1030F0005907E0F04817590799F4109761F01296B4
:103100000C93129713961C933296CF01DF91CF91B7
:103110001F910F91089500933F0510934005F4CF40
:103120002115310551F04217530738F0A901DB0191
:103130009A01BD01DF01F801C1CFEF01F9CF9093F2
:10314000400580933F05CDCFFE01E20FF31F819331
:1031500091932250310939832883D7CF20913D059F
:1031600030913E05232B41F4209115013091160139
:1031700030933E0520933D052091130130911401B9
:103180002115310541F42DB73EB7409117015091FB
:103190001801241B350BE0913D05F0913E05E21727
:1031A000F307A0F42E1B3F0B2817390778F0AC016A
:1031B0004E5F5F4F2417350748F04E0F5F1F509347
:1031C0003E0540933D05819391939FCFF0E0E0E071
:1031D0009CCFCF93DF930097E9F0FC0132971382E5
:1031E0001282A0913F05B0914005ED0130E020E052
:1031F0001097A1F420813181820F931F20913D050A
:1032000030913E052817390709F061C0F0933E055B
:10321000E0933D05DF91CF910895EA01CE17DF07D6
:10322000E8F54A815B819E0141155105B1F7E9013D
:10323000FB83EA8349915991C40FD51FEC17FD0711
:1032400061F4808191810296840F951FE901998331
:103250008883828193819B838A83F0E0E0E01296E9
:103260008D919C9113970097B9F52D913C911197F1
:10327000CD010296820F931F20913D0530913E05AE
:103280002817390739F6309751F5109240051092FA
:103290003F05B0933E05A0933D05BCCFD383C283C9
:1032A00040815181840F951FC817D90761F44E5F83
:1032B0005F4F88819981480F591F518340838A81CC
:1032C0009B81938382832115310509F0B0CFF09360
:1032D0004005E0933F059ECFFD01DC01C0CF138286
:1032E0001282D7CFB0E0A0E0E8E7F9E10C94F01744
:1032F0008C01009751F4CB010E944D188C01C8013C
:10330000CDB7DEB7E0E10C940C18FC01E60FF71F17
:103310009C0122503109E217F30708F49DC0D9013E
:10332000CD91DC911197C617D70798F0C530D1051C
:1033300030F3CE0104978617970708F3C61BD70B07
:103340002297C193D1936D937C93CF010E94E9188A
:10335000D6CF5B01AC1ABD0A4C018C0E9D1EA0910C
:103360003F05B0914005512C412CF12CE12C1097D8
:1033700031F580913D0590913E058815990509F03C
:103380005CC04616570608F058C080911301909112
:103390001401009741F48DB79EB7409117015091E9
:1033A0001801841B950BE817F90708F055C0F09336
:1033B0003E05E0933D05F90171836083A0CF8D91B7
:1033C0009C91119712966C90129713967C9013977C
:1033D000A815B90559F56C0142E0C40ED11CCA14F8
:1033E000DB0420F1AC014A195B09DA01129615974A
:1033F00080F06282738251834083D9016D937C9304
:10340000E114F10471F0D7011396FC93EE93129737
:1034100076CF22968C0F9D1FF90191838083F30153
:10342000EFCFF0934005E0933F0569CF481659066A
:1034300008F42C017D01D3019ACFCB010E944D18D5
:103440007C01009749F0AE01B8010E942F1AC80113
:103450000E94E918870153CF10E000E050CFFB0134
:10346000DC0102C001900D9241505040D8F7089500
:10347000FB01DC0101900D920020E1F7089514E0BA
:10348000C2E4D4E004C0FE010E9447182196C33470
:08349000D107C9F7F894FFCF42
:103498000200040106050331323334353637383932
:1034A8002A30230000410580006B006C006D00008D
:1034B80000010002000300040005000600070000E8
:1034C80000000000000000000000005006B005DD0C
:1034D80005B8060E06EC05000600000000100BE318
:1034E8000ADC0CC00AA905D00AC10A00000000A61F
:1034F80005830CDF0C000000000108B005DC0CDBC4
:103508000C9E0C0D0A002142722C002C446F6E6533
:103518002E0046504B002152657365740021436F9D
:103528007272656374000A0A0A002020204143432E
:10353800455353204752414E544544210021577268
:103548006F6E670020202020414343455353204499
:10355800454E4945442100202020202020202020BD
:10356800004C6967687420262045786974202620F5
:103578005246494420532076302E330031352E30C0
:10358800332E323032310076657273696F6E2031B6
:103598002E3635004272524649440055564C003585
:1035A8003331340053595300216865616465725F93
:1035B800626567696E0057445420656E6461626C89
:1035C8006564002173657475705F626567696E0074
:1035D800466F756E6420616464726573733A200087
:1035E80020283078002900466F756E64200020641A
:1035F80065766963652873292E00206C696768748D
:10360800204F4C4544206F6B2E2E2E00696E697436
:1036180069616C697A696E672072656C61790020EE
:103628006F6B003D3D3D3D3D3D3D3D3D3D3D3D3D9F
:103638003D3D3D3D3D3D53544152543D3D3D3D3D55
:103648003D3D3D3D3D3D3D3D3D3D3D3D3D3D3D3DA2
:02365800000070
:00000001FF
