:100000000C9438040C9460040C9460040C9400115B
:100010000C94DB100C94B6100C9460040C946004E7
:100020000C9460040C9460040C9460040C946004C0
:100030000C9460040C9460040C9460040C946004B0
:100040000C9414100C9460040C9484100C945E10A6
:100050000C9460040C9460040C9460040C94600490
:100060000C9425110C946004AEB08180A1A6A83F29
:10007000AD8B32C8D300D580D91FDA12DB40AF5424
:10008000617374653A2000000005072060000000DD
:10009000000000005F00000007000700147F147FCD
:1000A00014242A7F2A1223130864623649562050EA
:1000B0000008070300001C2241000041221C002A06
:1000C0001C7F1C2A08083E080800807030000808C1
:1000D000080808000060600020100804023E514932
:1000E000453E00427F400072494949462141494D01
:1000F000331814127F1027454545393C4A49493188
:1001000041211109073649494936464949291E0006
:1001100000140000004034000000081422411414B0
:10012000141414004122140802015909063E415DCD
:10013000594E7C1211127C7F494949363E4141415A
:10014000227F4141413E7F494949417F09090901D7
:100150003E414151737F0808087F00417F410020E4
:1001600040413F017F081422417F404040407F02D0
:100170001C027F7F0408107F3E4141413E7F0909F8
:1001800009063E4151215E7F091929462649494900
:100190003203017F01033F4040403F1F2040201FAA
:1001A0003F4038403F63140814630304780403613C
:1001B00059494D43007F414141020408102000414C
:1001C00041417F04020102044040404040000307D7
:1001D000080020545478407F28444438384444442C
:1001E00028384444287F385454541800087E0902A3
:1001F00018A4A49C787F0804047800447D40002063
:1002000040403D007F1028440000417F40007C04B6
:100210007804787C080404783844444438FC182472
:10022000241818242418FC7C080404084854545446
:100230002404043F44243C4040207C1C2040201CDB
:100240003C4030403C44281028444C9090907C44E2
:1002500064544C440008364100000077000000411F
:1002600036080002010204023C2623263C00030C4F
:100270000F30333C3FC0C3CCCFF0F3FCFF00000095
:10028000002300260029005363616E6E696E672E9D
:100290002E2E00493243207363616E6E65723A0000
:1002A0001C620A0C206002020508070D0802040403
:1002B00005070204020607060707070707070707DF
:1002C0000202070707050A070707080606080804C9
:1002D000060707090809070908070808070C07089F
:1002E00006040604080903060606060605060602B5
:1002F0000407020A0606060605050506060A06069E
:10030000050602060809000000007E7E303007075F
:100310000007070000000000C0D8F8DED8F8DE189B
:100320000030000030000000387C64FF64E4C81036
:100330002020F02030103C7E427E3CC02018E6F0A9
:1003400010F0E000000000300000001030203010FD
:10035000DCFE227EDC806020103020202010302047
:1003600007070000F8FE07011070E0800107FEF8A3
:1003700080E07010120C3F0C1200000000002020E2
:1003800020FC202020000000100000000000F07081
:100390002020202000000000000030300080E07CA1
:1003A0001F03C0F030000000FCFE020202FEFC1041
:1003B0003020202030100404FEFE000020203030C9
:1003C0002020040682C2623E1C20303020202020E3
:1003D0000406222222FEDC10302020203010C0A093
:1003E0009884FEFE8000000000303000001E1E12C7
:1003F00012F2E210302020203010F8FC161212F217
:10040000E010302020203010020282E27A1E060026
:10041000203010000000DCFE222222FEDC10302002
:10042000202030103C7E424242FEFC002020203042
:100430001000181830301818F0706060909008089C
:100440000400000000101020909090909090900078
:100450000000000000000408089090606020101068
:10046000000000000462721E0C0030300000F00C2E
:10047000F4FA0AFAFA040CF00030205050505010F0
:10048000100080F8FE86FEF880303000000030302A
:10049000FEFE22223EFCC030302020203010F8FC2E
:1004A000060202020400103020202010FEFE02028C
:1004B0000206FCF83030202020301000FEFE222200
:1004C0002222303020202020FEFE22222222303024
:1004D00000000000F8FC06024242C2C400103020B6
:1004E00020203030FEFE20202020FEFE3030000094
:1004F0000000303002FEFE022030302000020202F6
:10050000FEFE202020203010FEFE70D88C06023027
:10051000300000103020FEFE0000000000303020CF
:1005200020202020FE0E3CF0C0300CFEFE300000EB
:10053000000000003030FE061C38E0C000FE300035
:10054000000000103030F8FC0602020206FCF80041
:100550001030202020301000FEFE4242427E3C300F
:10056000300000000000F8FC0602020206FCF80061
:1005700010302060E0B09080FEFE2262E2BE1C00DF
:1005800030300000001030201C3E322262E2C410E5
:10059000202020203010020202FEFE020202000093
:1005A000003030000000FEFE00000000FEFE1030B3
:1005B0002020202030100E7EF080F07E0E000030D3
:1005C000303000000E7EF080E03E3EE080F07E0E97
:1005D000000030300000000030300000068EF8705F
:1005E000F88E0630300000003030060E18F0F0189B
:1005F0000E06000000303000000002C2F23E0E0283
:10060000303020202020FFFF0101F0F08080031F08
:100610007CE0800000000030F0C00101FFFF80801E
:10062000F0F010180C06060C181000000000000076
:10063000000000000000000000000080808080803A
:1006400080808080010302000000C0E82828F8F0C4
:10065000103020203030FFFF0808F8F03030202024
:100660003010F0F808080810103020202010F0F8A2
:100670000808FFFF103020203030F0F8484878702C
:1006800010302020201008FEFF0909003030000043
:10069000F0F80808F8F810B0A0A0F070FFFF080804
:1006A000F8F0303000003030FBFB30300008FBFB4E
:1006B0008080F070FFFF60F098080030300000107C
:1006C0003020FFFF3030F8F81008F8F01008F8F08C
:1006D00030300000303000003030F8F80808F8F012
:1006E000303000003030F0F80808F8F010302020EA
:1006F0003010F8F80808F8F0F0F020203010F0F88A
:100700000808F8F810302020F0F0F8F81018183029
:1007100030000000307848C888202020301008FEC3
:10072000FE08080010302020F8F80000F8F810301B
:100730002020303038F8C0C0F838001030301000B9
:1007400078F880C03838C080F87800303000000079
:100750000030300018B8E0E0B81830300000303019
:1007600038F8C0C0F8380090F070100008C8E87879
:100770001830302020202020FEDF0101000070F022
:100780008080FFFFF0F00101DFFE20208080F0700C
:100790000000E01010204080807000000000000089
:1007A0000000FE02020202020202FE30202020208F
:1007B000202020306800178040024F6C656420695B
:1007C0006E69740A000A20737563636573736675D6
:1007D0006C6C7920696E697469616C697A656420F2
:1007E00072656C61790A002173657475705F656E5E
:1007F000640A0A00206F6B0A004B65797061643AE5
:10080000202E2E2E0052656C61793A202E2E2E005D
:100810004F6C6564733A202E2E2E000000000024D9
:100820000027002A0000000000250028002B0004FB
:100830000404040404040402020202020203030387
:100840000303030102040810204080010204081081
:10085000200102040810200000000800020100002E
:1008600003040700000000000000000044127D1790
:1008700011241FBECFEFD8E0DEBFCDBF25E0ACEA2C
:10088000B2E001C01D92AB32B207E1F712E0A0E086
:10089000B1E0EEEDF3E302C005900D92AC3AB10782
:1008A000D9F714E0C7E3D4E004C02197FE010E9409
:1008B000EA17C633D107C9F70E9471130C94E219E5
:1008C0000C94000096E0899FD0011124AF57BB4FD4
:1008D00090967C936E935F9791E091969C939197FD
:1008E000E091EE04F091EF049091ED04992339F03A
:1008F000309751F0811108C080919D040994309780
:1009000019F05C968C91FACF0895833081F028F429
:10091000813099F08230A9F008958730A9F08830AD
:10092000C9F08430B1F4809180008F7D03C0809144
:1009300080008F7780938000089584B58F7784BD81
:10094000089584B58F7DFBCF8091B0008F77809321
:10095000B00008958091B0008F7DF9CF1F93CF93A1
:10096000DF93282F30E0F901E95AF74F8491F9011C
:10097000ED5BF74FD491F901E15DF74FC491CC23C2
:10098000A9F0162F81110E948504EC2FF0E0EE0FE4
:10099000FF1FEB5DF74FA591B4918FB7F894EC91E1
:1009A000111108C0D095DE23DC938FBFDF91CF916A
:1009B0001F910895DE2BF8CFCF93DF9390E0FC01D9
:1009C000ED5BF74F2491815D974FFC018491882363
:1009D000C9F090E0880F991FFC01E55EF74FA591E3
:1009E000B491FC01EB5DF74FC591D49161110DC03D
:1009F0009FB7F8948C91209582238C93888128232B
:100A000028839FBFDF91CF910895623051F49FB743
:100A1000F8943C91822F809583238C93E8812E2B30
:100A2000EFCF8FB7F894EC912E2B2C938FBFEACF9A
:100A30003FB7F89480914E0390914F03A0915003DB
:100A4000B091510326B5A89B05C02F3F19F0019620
:100A5000A11DB11D3FBFBA2FA92F982F8827BC0118
:100A6000CD01620F711D811D911D42E0660F771F40
:100A7000881F991F4A95D1F708958F929F92AF9240
:100A8000BF92CF92DF92EF92FF924B015C010E94E6
:100A900018056B017C010E9418056C197D098E09EF
:100AA0009F09683E734081059105A8F321E0821AF1
:100AB0009108A108B10888EEC80E83E0D81EE11C99
:100AC000F11C81149104A104B10429F7FF90EF9067
:100AD000DF90CF90BF90AF909F908F9008952FB7E9
:100AE000F89460914A0370914B0380914C0390916C
:100AF0004D032FBF08950F931F93CF93DF93C82FFC
:100B0000D62F86E0C89FF0011124EF57FB4F11A2AA
:100B1000878D90A181309105F1F058F082309105D8
:100B2000F1F1039709F440C0DF91CF911F910F912C
:100B300008956623C9F361E070E08C2F0E9462047F
:100B40000E946F056093D9047093DA048093DB04EC
:100B50009093DC04E9CF0E946F050091D9041091B5
:100B6000DA042091DB043091DC04AB01BC01401BB2
:100B7000510B620B730B8091EB049091EC04B0E08D
:100B8000A0E084179507A607B70748F462E070E075
:100B90008C2FDF91CF911F910F910C94620463E031
:100BA00070E0D111C1CFF4CF70E060E0F1CF0895D3
:100BB000089508958091470390914803891B990BEC
:100BC0000895AF92BF92CF92DF92EF92FF920F9370
:100BD0001F93CF93DF936C017B018B01040F151FD3
:100BE000EB015E01AE18BF08C017D10759F069913B
:100BF000D601ED91FC910190F081E02DC60109959F
:100C0000892B79F7C501DF91CF911F910F91FF904B
:100C1000EF90DF90CF90BF90AF900895FC01538D7F
:100C2000448D252F30E0842F90E0821B930B5417C6
:100C300010F0CF96089501970895FC01918D828D53
:100C4000981761F0A28DAE0FBF2FB11D5D968C91EC
:100C5000928D9F5F9F73928F90E008958FEF9FEF2B
:100C60000895FC01918D828D981731F0828DE80FE7
:100C7000F11D858D90E008958FEF9FEF0895FC01A1
:100C8000918D228D892F90E0805C9F4F821B91096E
:100C90008F739927089582EA93E00E943F0621E02E
:100CA000892B09F420E0822F089580E090E0892BC1
:100CB00029F00E944B0681110C9400000895FC015C
:100CC000A48DA80FB92FB11DA35ABF4F2C91848DAD
:100CD00090E001968F739927848FA689B7892C930A
:100CE000A089B1898C91837080648C93938D848D5D
:100CF000981306C00288F389E02D80818F7D808360
:100D00000895EF92FF920F931F93CF93DF93EC011F
:100D100081E0888F9B8D8C8D98131AC0E889F989A2
:100D2000808185FF15C09FB7F894EE89FF896083A5
:100D3000E889F98980818370806480839FBF81E026
:100D400090E0DF91CF911F910F91FF90EF90089568
:100D5000F62E0B8D10E00F5F1F4F0F731127E02E43
:100D60008C8D8E110CC00FB607FCFACFE889F9897B
:100D7000808185FFF5CFCE010E945F06F1CFEB8D1C
:100D8000EC0FFD2FF11DE35AFF4FF0829FB7F8944F
:100D90000B8FEA89FB8980818062CFCFEF92FF922F
:100DA0000F931F93CF93DF938C017B01D0E0C0E0C2
:100DB000F701EC0FFD1F6491662339F0C8010E9412
:100DC0008106892B11F02196F3CFCE01DF91CF91CF
:100DD0001F910F91FF90EF900895CF93DF93EC0157
:100DE000888D8823B9F0AA89BB89E889F9898C9113
:100DF00085FD03C0808186FD0DC00FB607FCF7CFCF
:100E00008C9185FFF2CF808185FFEDCFCE010E94CE
:100E10005F06E9CFDF91CF91089590E0FC01EE0FDE
:100E2000FF1FEF57FD4FA591B4912C91FC01E05CA1
:100E3000FC4F30812083880F991FFC01E75EFE4F35
:100E40000190F081E02D80810895CF93DF9370E0D1
:100E5000FB01E95AF74F8491FB01ED5BF74FD49109
:100E6000615D774FFB01C491CC23A1F081110E94F9
:100E70008504EC2FF0E0EE0FFF1FE358FD4FA59126
:100E8000B491EC91ED2381E090E009F480E0DF91F2
:100E9000CF91089580E090E0FACF862F642F0C94D4
:100EA000AE04862F642F0C94DC04CF93DF93EC0107
:100EB0009C818E81981758F4E881F9810084F1852E
:100EC000E02D42E0CE0109958C818F5F8C83DF910C
:100ED000CF910895DC01ED91FC910084F185E02D26
:100EE00040E009940F931F93CF938C01FC0164831E
:100EF000C085C60F6C2F6F700E946A076C2F6295B9
:100F00006F706061C801CF911F910F910C946A07B7
:100F1000FC012781269526952695621720F4658386
:100F2000606B0C946A0708951F93CF93DF93EC01D5
:100F3000142F8E81681718F4CE010E947207612F5A
:100F4000CE01DF91CF911F910C948807CF92DF9251
:100F5000EF92FF920F931F93CF93DF93EC01162F25
:100F6000C42ED22E8F81869586958695081710F00F
:100F70000FEF080FFD2C0F15B0F08E81181720F41D
:100F8000612FCE010E9472076F2DCE010E9488074B
:100F9000E12ECE1430F060E0CE010E945507E394BC
:100FA000F8CFF394E8CF4D2D612FCE01DF91CF9193
:100FB0001F910F91FF90EF90DF90CF900C949407CA
:100FC0000F930091010506950695069501504091F5
:100FD0000005415020E060E08AEF94E00E94A607FF
:100FE00081E090910405911101C080E08093040597
:100FF00060E48AEF94E00F910C946A072F923F927D
:101000004F925F926F927F928F929F92AF92BF9218
:10101000CF92DF92EF92FF920F931F93CF93DF93C4
:1010200000D000D01F92CDB7DEB7DC011B960D912A
:101030001C910115110509F468C19D838C83F80189
:101040004491319654913196649031962491E22ED8
:10105000F12CF7E0EF0EF11C73E0F594E7947A952C
:10106000E1F7E982F801349634913196E4916317FF
:1010700048F08E2F90E0FC01E30FF11D6E171F0664
:101080000CF487C06D3031F5AC81BD8116968C9122
:1010900081111AC081E090E00F900F900F900F9097
:1010A0000F90DF91CF911F910F91FF90EF90DF9004
:1010B000CF90BF90AF909F908F907F906F905F90F8
:1010C0004F903F902F90089560E08C819D810E9409
:1010D0007207E0CF6A3009F018C1EC81FD8181858B
:1010E000D5808E9DD00C1124878186958695869516
:1010F000D81630F08285882319F082E08287D12CBF
:101100004D2D60E08C819D810E949407AC81BD8152
:101110001A968C911A97823008F4BCCF15962C91B0
:1011200015971B96ED91FC911C9700E0309739F0D4
:101130003396E49119960C91E09F002D112410E054
:10114000095F1F4F33E0159507953A95E1F78FEF4B
:10115000820F080FEC81FD81468141506481CF01EF
:101160000E94A607AC81BD8119968C9119976D2DAF
:101170008E9D600D1124660F660F660F17968C9179
:10118000861708F460E060648C819D810E946A0784
:1011900081CF4527542745270A5F1F4F631BEC81EA
:1011A000FD8121844230510508F06DC0452B09F0C6
:1011B000212C6E9CC0016F9C900D1124689FF00142
:1011C000699FF00D11240E0F1F1F512CAC81BD81A2
:1011D0001496BC91BA83EC81FD81F581FB83862C4A
:1011E000912CAA24A394B12C312C8981381608F0B3
:1011F00086C0412CAC81BD8119968C91481608F0AF
:1012000077C0311002C0442041F0EC81FD8145815E
:101210004F5F6A81CF010E949407D12CC12CC61464
:1012200008F05AC0F801EC0DFD1D7490552061F0D6
:10123000EA14FB0449F4E72DF0E0052C02C0F59513
:10124000E7950A94E2F77E2EAC81BD8119968C91C8
:10125000823081F4442009F43BC072948FE07822FC
:10126000E72DF0E0E359FD4F7490672D8C819D814F
:101270000E945507672D8C819D810E945507EFEFD5
:10128000CE1ADE0ACCCF277038E0532E521A211125
:1012900001C0512C50E040E030E020E0F80146175A
:1012A00040F4E40FF51FE4912E0F311D4F5F5F4FA7
:1012B000F5CFE60FF11D6490E29EF001E39EF00D84
:1012C000F29EF00D11248E0F9F1F080F191F7ECF65
:1012D000B72DBF707B2EC4CFD12C2D1439F060E018
:1012E0008C819D810E945507D394F7CF439482CF80
:1012F0003394080D191DFFEFAF1ABF0A76CF6B812B
:101300008C819D810E948807C5CE90E080E0C4CE8C
:101310002091ED02260F3327331F21323105ECF4E3
:1013200020919803FC0190E080E0243069F082E095
:101330000895A091ED022191AC0143535D4FA40F9C
:10134000B52FB11D2C930196861798F38091ED026D
:10135000680F6093ED0280E0089581E00895109297
:10136000980381E0809377031092720361E082E139
:101370000E94AE0461E083E10E94AE04E9EBF0E07C
:1013800080818E7F808380818D7F808388E48093BD
:10139000B80085E48093BC000895CF93DF9391E07B
:1013A0009093CC028823B9F0C091B800D091BA00D4
:1013B0008091BC008A7B8093BC0060E082E10E9447
:1013C000AE0460E083E10E94AE040E94AF09D093B6
:1013D000BA00C093B800DF91CF910895CF92DF9209
:1013E000EF92FF920F931F93CF93DF93D82FC62FC7
:1013F000613208F098C00E9418056B017C01809151
:10140000980381116BC081E08093980380937703E8
:101410009FEF90937603109275039C0F9093740343
:101420008093730380917303DD0FD82BD0937303E4
:1014300080917203813009F078C0109272030E948B
:1014400018056B017C01809173038093BB00809130
:101450009A0390919B03A0919C03B0919D03892BCB
:101460008A2B8B2BA1F00E94180500919A031091F2
:101470009B0320919C0330919D036C197D098E097B
:101480009F09061717072807390708F448C08091F5
:10149000BC0083FDD8CF85EC8093BC000E9418056A
:1014A0006B017C0180919803813009F440C08091E8
:1014B00075038C1710F4C0917503E2E5F3E0A8E71B
:1014C000B3E080E08C1355C08C2FDF91CF911F913A
:1014D0000F91FF90EF90DF90CF90089580919A0345
:1014E00090919B03A0919C03B0919D03892B8A2B23
:1014F0008B2B09F484CF0E94180500919A03109158
:101500009B0320919C0330919D036C197D098E09EA
:101510009F09061717072807390708F070CF809131
:1015200099030E94CD09C0E0CFCF85EEB5CF809161
:101530009A0390919B03A0919C03B0919D03892BEA
:101540008A2B8B2B09F4AECF0E94180500919A03C9
:1015500010919B0320919C0330919D036C197D0990
:101560008E099F09061717072807390708F09ACF31
:10157000D6CF91919D938F5FA5CF0895E0914803B9
:1015800080914703E81730F4F0E0E858FC4F808181
:1015900090E008958FEF9FEF089590914803809118
:1015A00047032FEF3FEF981748F4E92FF0E0E85892
:1015B000FC4F208130E09F5F90934803C90108955C
:1015C000CF92DF92EF92FF920F931F93CF93DF930F
:1015D0007C01CB018A012091A103222389F0EB0138
:1015E0006B01C40ED51ECC15DD0569F06991D701DC
:1015F000ED91FC910190F081E02DC7010995F3CFA9
:10160000642F0E948809C801DF91CF911F910F912B
:10161000FF90EF90DF90CF900895CF93DF931F92CC
:10162000CDB7DEB769832091A1032223F9F0209181
:101630009E03203258F021E030E0FC013383228306
:1016400090E080E00F90DF91CF91089580919F030B
:10165000E82FF0E0E455FD4F998190838F5F8093F0
:101660009F0380939E0381E090E0ECCF61E0CE0188
:1016700001960E948809F7CFCF92DF92EF92FF92F6
:101680000F931F93CF93DF93D0919E0381E0D132CC
:1016900008F09CC0C091A0030E9418056B017C015A
:1016A0008091980381116CC082E08093980381E05F
:1016B000809377038FEF8093760310927503D09316
:1016C0007403ACEAB2E0E2E5F3E080E0D8138DC049
:1016D0001092730380917303CC0FC82BC0937303D4
:1016E00080917203813009F084C0109272030E94CD
:1016F00018056B017C01809173038093BB0080917E
:101700009A0390919B03A0919C03B0919D03892B18
:101710008A2B8B2BA1F00E94180500919A0310913F
:101720009B0320919C0330919D036C197D098E09C8
:101730009F09061717072807390708F442C0809148
:10174000BC0083FDD8CF85EC8093BC000E941805B7
:101750006B017C0180919803823009F44CC0809128
:1017600076038F3F09F469C080917603803209F4D3
:1017700066C080917603803309F463C084E026C09C
:1017800080919A0390919B03A0919C03B0919D033B
:10179000892B8A2B8B2B09F483CF0E94180500918B
:1017A0009A0310919B0320919C0330919D036C1927
:1017B0007D098E099F09061717072807390708F0C2
:1017C0006FCF809199030E94CD0985E010929F030D
:1017D00010929E031092A103DF91CF911F910F9160
:1017E000FF90EF90DF90CF9008959D9191938F5F40
:1017F0006DCF85EEA9CF80919A0390919B03A09124
:101800009C03B0919D03892B8A2B8B2B09F4A2CFCB
:101810000E94180500919A0310919B0320919C034C
:1018200030919D036C197D098E099F0906171707D2
:101830002807390708F08ECFC4CF80E0C7CF82E0F9
:10184000C5CF83E0C3CFEFE3F4E091816281808173
:10185000238131E03093A1032093A00310929F03D2
:1018600010929E0360956923682B85E794E00E949F
:101870000D0B85E794E00C943C0BEF92FF920F93D5
:101880001F93CF93DF93EC017B018C010D581F4F09
:10189000D8018D919C91FE01E159FF4F208131E0EB
:1018A0003093A1032093A00310929F0310929E03F4
:1018B000DC01ED91FC910190F081E02D0995FE0194
:1018C000E059FF4F8081823058F0F801808191818A
:1018D000DC01ED91FC910190F081E02D6F2D0995D7
:1018E000F801808191810E943C0BCF58DF4FE88244
:1018F000F982DF91CF911F910F91FF90EF900895A2
:1019000021E030E002C0220F331F6A95E2F7FC01AC
:10191000EF58FF4F60817181442341F0262B372B14
:1019200031832083608171810C943D0C209530952A
:1019300026233723F5CF0F931F93CF93DF93EC012B
:10194000062F142F8E85813120F4882339F0411120
:1019500005C085E794E00E943C0B1E868E858111B0
:1019600012C08D8591E09093A1038093A003109203
:101970009F0310929E0360E4111101C060E085E7AF
:1019800094E00E940D0B602F85E794E00E940D0B00
:10199000123041F48E858F5F8E87DF91CF911F913A
:1019A0000F91089585E794E00E943C0B1E86F5CFC9
:1019B000089590E080E00895CF92DF92EF92FF9239
:1019C0000F931F93CF93DF93EC0181E090E07C01B4
:1019D00002C0EE0CFF1C6A95E2F76E0180E7C80EAC
:1019E000D11CD6016C91613208F060E2FE01E15930
:1019F000FF4F80810E94EE091092480380934703B5
:101A0000CD58DF4F88819981DC01ED91FC910284F2
:101A1000F385E02D09958C01F6018081823060F01C
:101A200088819981DC01ED91FC910284F385E02DA0
:101A3000099520E0022B182B0E211F2181E090E058
:101A40000E151F0511F090E080E0DF91CF911F91FE
:101A50000F91FF90EF90DF90CF900895FC0180816F
:101A60009181009711F00C948C180895EF92FF92D9
:101A70000F931F93CF93DF93EC017B018A01888141
:101A80009981009729F02A813B812417350788F432
:101A9000B8016F5F7F4F0E941519009791F09983ED
:101AA00088831B830A832C813D81232B11F4FC0145
:101AB00010821D830C83B701888199810E94DB19F4
:101AC0000CC088819981009711F00E948C181982AE
:101AD00018821D821C821B821A82CE01DF91CF9157
:101AE0001F910F91FF90EF900895FC0111821082D9
:101AF0001382128215821482FB0101900020E9F703
:101B00003197AF01461B570B0C94360DFB0101902A
:101B10000020E9F73197AF01461B570BDC01ED912F
:101B2000FC910280F381E02D09948F929F92AF92F5
:101B3000BF920F931F93CF93DF93CDB7DEB7A197DB
:101B40000FB6F894DEBF0FBECDBF19A2423008F425
:101B50004AE08E010F5D1F4F842E912CB12CA12CD9
:101B6000A50194010E94C817E62FB901CA01EA3005
:101B700004F5E05DD801EE938D01232B242B252B5A
:101B800079F790E080E0109729F0BD0182EA93E0B8
:101B90000E94860DA1960FB6F894DEBF0FBECDBF92
:101BA000DF91CF911F910F91BF90AF909F908F9039
:101BB0000895E95CDFCF63E771E00C94860D0F9325
:101BC0001F93CF93DF93EC010E94860D8C01CE0111
:101BD0000E94DB0D800F911FDF91CF911F910F911C
:101BE00008950F931F93CF93DF93EC018B0161E076
:101BF0008EE00E94AE0482EA93E00E94DB0D66E76D
:101C000071E082EA93E00E94860DF80144815581DB
:101C10006081718182EA93E00E94E10569E771E0E9
:101C200082EA93E00E94860D4C815D816881798112
:101C300082EA93E00E94E1056BE771E082EA93E0BB
:101C40000E94DF0D62E370E080E090E00E943D05BD
:101C500060E08EE0DF91CF911F910F910C94AE0464
:101C6000CF93DF93CDB7DEB72C970FB6F894DEBFD6
:101C70000FBECDBF80915E04882371F11092720473
:101C800010925E0418861F821A8619861C861B868F
:101C90006091090570910A056115710541F0409147
:101CA0000D0550910E05CE0107960E94360D62E893
:101CB00071E0CE0101960E94750DBE01695F7F4FF4
:101CC000CE0101960E94F10DCE0101960E942E0DCB
:101CD000CE0107960E942E0D2C960FB6F894DEBF0B
:101CE0000FBECDBFDF91CF910895CF93DF93CDB7D6
:101CF000DEB72C970FB6F894DEBF0FBECDBF809134
:101D0000730490917404FC01319120915E04AFE55D
:101D1000B4E0449631115EC0211164C060910905A0
:101D200070910A051A8219821C821B821E821D82F2
:101D30006115710541F040910D0550910E05CE01E0
:101D400001960E94360D69E871E0CE0107960E9467
:101D5000750DBE016F5F7F4FCE0107960E94F10D9A
:101D6000CE0107960E942E0DCE0101960E942E0DE7
:101D70000E94E00787E890E09093060580930505B0
:101D800062E971E08AEF94E00E94860D80EA92E0B9
:101D9000909306058093050566E971E08AEF94E06B
:101DA0000E94DF0D80913F04816080933F040E9478
:101DB000230C68EB7BE080E090E00E943D050E94F0
:101DC000300E2C960FB6F894DEBF0FBECDBFDF915C
:101DD000CF910895321306C031912D918E179F0730
:101DE00009F098CF1A8219821C821B821E821D82E2
:101DF0006091090570910A056115710541F04091E6
:101E00000D0550910E05CE0101960E94360D69EA2E
:101E100071E0CE0107960E94750DBE016F5F7F4F86
:101E2000CE0107960E94F10DCE0107960E942E0D5D
:101E3000CE0101960E942E0D60EB71E08AEF94E0D6
:101E40000E94DF0DBCCFEF92FF921F93CF93DF93E1
:101E5000CDB7DEB72C970FB6F894DEBF0FBECDBF5F
:101E6000182FE090A004F090A104882309F48BC0FF
:101E7000682F82EA93E00E94810682EA93E00E9442
:101E8000DB0DEA94EF2809F06DC00E946F056093A6
:101E9000F6047093F7048093F8049093F9046FE7C5
:101EA00070E082EA93E00E94CE06612F82EA93E01E
:101EB0000E948106133209F450C01A3209F45EC040
:101EC000E0917204E33169F081E08E0F8093720437
:101ED000F0E0E25AFB4F1083E82FF0E0E25AFB4FAC
:101EE00010820E94E00787E890E0909306058093B7
:101EF000050562E971E08AEF94E00E94860D80EAB0
:101F000092E0909306058093050563EC71E08AEFFB
:101F100094E00E94860D6EE574E08AEF94E00E94E2
:101F2000DF0D6DEC71E0CE0107960E94750D6EE538
:101F300074E0CE0101960E94750DBE01695F7F4F6E
:101F4000CE0101960E94F10DCE0101960E942E0D48
:101F5000CE0107960E942E0D05C080915E0481116E
:101F60000E94750E2C960FB6F894DEBF0FBECDBF43
:101F7000DF91CF911F91FF90EF9008950E94E007AD
:101F80000E94300EEFCFEA94EF2861F70E946F05B0
:101F90006093F6047093F7048093F8049093F90427
:101FA0006FE770E082EA93E00E94CE0660E082EA8A
:101FB00093E00E94810684CF85ED8093BC008091E0
:101FC0009A0390919B03A0919C03B0919D03079667
:101FD000A11DB11D23E0B695A795979587952A95E4
:101FE000D1F72091BC0024FD03C0109298030895FE
:101FF00040919A0350919B0360919C0370919D03C3
:10200000452B462B472B69F30097A105B10541F0FD
:1020100025E32A95F1F700000197A109B109E1CF65
:10202000809199030C94CD091F920F920FB60F92D5
:1020300011242F933F938F939F93AF93BF938091DE
:102040004A0390914B03A0914C03B0914D03309102
:10205000490323E0230F2D3758F50196A11DB11D2B
:102060002093490380934A0390934B03A0934C031E
:10207000B0934D0380914E0390914F03A091500374
:10208000B09151030196A11DB11D80934E03909311
:102090004F03A0935003B0935103BF91AF919F9111
:1020A0008F913F912F910F900FBE0F901F90189519
:1020B00026E8230F0296A11DB11DD2CF1F920F92C9
:1020C0000FB60F9211242F933F934F935F936F930B
:1020D0007F938F939F93AF93BF93EF93FF9382EA86
:1020E00093E00E945F06FF91EF91BF91AF919F91A6
:1020F0008F917F916F915F914F913F912F910F90B1
:102100000FBE0F901F9018951F920F920FB60F924F
:1021100011242F938F939F93EF93FF93E091B2033A
:10212000F091B3038081E091B803F091B90382FD8F
:102130001BC090818091BB038F5F8F732091BC0384
:10214000821741F0E091BB03F0E0EE55FC4F958F14
:102150008093BB03FF91EF919F918F912F910F90EF
:102160000FBE0F901F9018958081F4CF1F920F9291
:102170000FB60F9211242F933F934F935F936F935A
:102180007F938F939F93AF93BF93EF93FF9382E0DF
:102190000E940D07FF91EF91BF91AF919F918F9199
:1021A0007F916F915F914F913F912F910F900FBE53
:1021B0000F901F9018951F920F920FB60F92112437
:1021C0002F933F934F935F936F937F938F939F933F
:1021D000AF93BF93EF93FF9381E00E940D07FF91B0
:1021E000EF91BF91AF919F918F917F916F915F918F
:1021F0004F913F912F910F900FBE0F901F90189508
:102200001F920F920FB60F9211242F933F934F936B
:102210005F936F937F938F939F93AF93BF93EF934E
:10222000FF9380E00E940D07FF91EF91BF91AF9166
:102230009F918F917F916F915F914F913F912F91DE
:102240000F900FBE0F901F9018951F920F920FB610
:102250000F9211242F933F934F935F936F937F932C
:102260008F939F93AF93BF93EF93FF938091B900A8
:10227000887F803609F44AC0F0F5883209F4A7C097
:1022800018F5803109F49BC0B8F4882309F4F9C02B
:10229000883009F494C0FF91EF91BF91AF919F9165
:1022A0008F917F916F915F914F913F912F910F90FF
:1022B0000FBE0F901F901895883109F488C08032A6
:1022C00051F78093760314C0803409F49DC040F424
:1022D0008033B9F38833F9F68093760385ECB0C088
:1022E000803509F485C0883509F496C0883499F69C
:1022F0000E94DC0FD0CF883909F48CC038F58837BC
:1023000029F050F4883611F0803729F683E0809365
:10231000980310920F0357C0883809F47BC08039A6
:1023200019F0803809F0B7CF80910F03803208F0A0
:1023300071C0E0910F0381E08E0F80930F038091B5
:10234000BB00F0E0E151FD4F80833DC0803B39F0A0
:10235000E0F4803A09F479C0883A09F09CCF84E02F
:10236000809398031092EE021092ED02E0914503E3
:10237000F091460309958091ED0281110FC081E033
:102380008093ED021092CD0209C0803C09F4A6CFE3
:10239000883C09F4A3CF883B09F07DCFE091EE02A1
:1023A00081E08E0F8093EE02F0E0E353FD4F8081D9
:1023B0008093BB009091EE028091ED0229C0809144
:1023C00073038093BB0085EC8093BC0064CF909135
:1023D000750380917403981758F5E091750381E0B7
:1023E0008E0F80937503F0E0EE5AFC4F8081E9CFA9
:1023F000E091750381E08E0F809375038091BB009F
:10240000F0E0EE5AFC4F8083909175038091740345
:102410009817C8F285E8D8CFE091750381E08E0F58
:10242000809375038091BB00F0E0EE5AFC4F8083EF
:102430008091770381115CCF81E08093720384EAFD
:102440008093BC001092980326CF85EC8093BC004B
:102450001092980380910F03803230F4E0910F03C3
:10246000F0E0E151FD4F108260910F0370E0E091C8
:102470004303F09144038FEE92E0099510920F030D
:102480000ACF1092760334CF1092A5031092A403C2
:1024900088EE93E0A0E0B0E08093A6039093A703BA
:1024A000A093A803B093A9032BE331E03093A303D7
:1024B0002093A20325EC30E03093AF032093AE03CA
:1024C00024EC30E03093B1032093B00320EC30E0F3
:1024D0003093B3032093B20321EC30E03093B50383
:1024E0002093B40322EC30E03093B7032093B6037B
:1024F00026EC30E03093B9032093B8031092BB036D
:102500001092BC031092BD031092BE031092780487
:10251000109277048093790490937A04A0937B04BB
:10252000B0937C048DE491E09093760480937504DD
:1025300061ED71E081E295E00E94750D6DED71E055
:102540008BE195E00E94750D68EE71E085E195E004
:102550000E94750D64EF71E08FE095E00E94750DAB
:102560006DEC71E089E095E00E94750D1092FD041C
:102570001092FC0481E080930305109206051092EE
:10258000050589E691E09093FB048093FA040E948C
:102590006F056093F6047093F7048093F8049093AA
:1025A000F90410928304109287041092860410920A
:1025B0008804EDE9F4E010821482138215823696C5
:1025C00084E0E93DF807B9F783E091E09093E404F3
:1025D0008093E30480E091E09093E6048093E50427
:1025E00084E08093E70483E08093E80487E091E04F
:1025F0009093E2048093E1048AE090E09093EA04EF
:102600008093E90484EF91E09093EC048093EB04D1
:102610001092EF041092EE041092DD041092DE048A
:102620001092DF041092E0041092ED048FE591E027
:10263000909382048093810488E38093F00481E086
:102640008093F10485E794E09093F5048093F4047B
:102650008AEF91E090937404809373041092720453
:1026600010925E0410923F041092400410924104B4
:1026700010924204109243041092440410924504B4
:102680001092460410924704109248041092490494
:1026900010924A0410924B0410924C0410924D0474
:1026A00010924F0410924E04109251041092500454
:1026B0001092530410925204109255041092540434
:1026C0001092570410925604109259041092580414
:1026D00010925B0410925A0410925D0410925C04F4
:1026E0000895CF93DF93CDB7DEB72C970FB6F8944C
:1026F000DEBF0FBECDBF789484B5826084BD84B543
:10270000816084BD85B5826085BD85B5816085BDEC
:1027100080916E00816080936E00109281008091A4
:10272000810082608093810080918100816080932C
:102730008100809180008160809380008091B10051
:1027400084608093B1008091B00081608093B0007C
:1027500080917A00846080937A0080917A00826010
:1027600080937A0080917A00816080937A008091D2
:102770007A00806880937A001092C100109248031A
:102780001092470310929F0310929E030E94AF097C
:1027900088ED95E0909346038093450389ED95E09D
:1027A0009093440380934303E091B203F091B30309
:1027B00082E08083E091AE03F091AF031082E0915C
:1027C000B003F091B10380E180831092BA03E091ED
:1027D000B603F091B70386E08083E091B403F091F3
:1027E000B503808180618083E091B403F091B503EB
:1027F000808188608083E091B403F091B50380818B
:1028000080688083E091B403F091B50380818F7D6F
:10281000808364E670E080E090E00E943D0561E026
:102820008EE00E94DC046FEF71E0CE0101960E9401
:10283000750D63E072E0CE0107960E94750DBE0132
:102840006F5F7F4FCE0107960E94F10DCE01079674
:102850000E942E0DCE0101960E942E0D60E172E0C5
:1028600082EA93E00E94DF0DA8956DE172E082EAB2
:1028700093E00E94DF0D82EA93E00E94DB0D63E9A2
:1028800072E082EA93E00E94CE0682EA93E00E9420
:10289000DB0D67E872E082EA93E00E94CE0682EAEE
:1028A00093E00E94DB0DF8E0CF2ED12CE12CF12C2F
:1028B00010E001E00093A103C092A00310929F03D7
:1028C00010929E0385E794E00E943C0B811123C087
:1028D0006AE272E082EA93E00E94860D4AE0C70154
:1028E000B6010E94950D6AE372E082EA93E00E94CD
:1028F000860D40E1C701B6010E94950D6FE372E0BD
:1029000082EA93E00E94DF0D1F5F61E070E080E0EB
:1029100090E00E943D052FEFC21AD20AE20AF20AA5
:1029200048E7C416D104E104F10421F66CE771E034
:1029300082EA93E00E94DF0D61E472E082EA93E0B4
:102940000E94860D612F70E090E080E04AE00E94D6
:10295000950D68E472E082EA93E00E94DF0D60E189
:1029600078E082EA93E00E94CE066AEB77E082EAA2
:1029700093E00E94CE06109208058CE38093070531
:102980001092FE041092FF04E4EBF7E0859194911D
:10299000E82EE6EBF7E0F490E7EBF7E0E491E09364
:1029A0000005E8EBF7E0E491E0930105E9EBF7E0DF
:1029B000E491E09302058C01802F8E198F1548F465
:1029C000F80164918AEF94E00E946A070F5F1F4F3D
:1029D000F3CF109204050E94E0078CE08093B800CA
:1029E00080910105803429F40E94E00781E0809302
:1029F00004050E94E00780EA92E090930605809328
:102A0000050568EE73E080E090E00E943D0564E516
:102A100072E082EA93E00E94DF0D65E078E082EAEE
:102A200093E00E94CE0666E672E082EA93E00E949E
:102A3000DF0D8FE3809342041092480310929F03AE
:102A400010929E030E94AF0988ED95E09093460393
:102A50008093450389ED95E090934403809343036D
:102A6000809140048093430461E0809142040E947D
:102A7000EE0980934703811101C0FFCF85E794E001
:102A80000E94CD0A8093400410E000E0CC24C3945F
:102A9000D12C809141047601002E01C0EE0C0A94E5
:102AA000EAF78E298093410490913F048E2D809502
:102AB000892380933F040E94230C80913F048E2938
:102AC00080933F040E94230C0F5F1F4F08301105B5
:102AD00001F75FE2A52E51E0B52E0FE111E067E3AB
:102AE000E62E61E0F62ECC24C394D12CD5012D9195
:102AF0005D01F801819191918F01A60102C0440FFF
:102B0000551F8A95E2F7CA0190913F04222309F4E8
:102B1000FAC0892B80933F040E94230CEA14FB0423
:102B200029F765EC77E082EA93E00E94CE0669E738
:102B300072E082EA93E00E94DF0DA89562E370E004
:102B400080E090E00E943D0569EF77E082EA93E043
:102B50000E94CE0683E29FE09093EF048093EE0400
:102B600087E091E09093E2048093E1046FEF7FEFC0
:102B700081E894E00E943D0C6091F104613208F01C
:102B800060E28091F0040E94EE0910924803809365
:102B900047038091F4049091F504DC01ED91FC91E0
:102BA0000284F385E02D09959093F3048093F20459
:102BB0008091F1048230B8F08091F4049091F50492
:102BC000DC01ED91FC910284F385E02D099520E074
:102BD000382F8091F2049091F304822B932B9093E1
:102BE000F3048093F20488E893E19093EC048093DB
:102BF000EB0484E190E09093EA048093E90464EFAD
:102C000077E082EA93E00E94CE06A89565E070E046
:102C100080E090E00E943D0582EA93E00E94DB0D97
:102C20006DE772E082EA93E00E94DF0D82EA93E0B2
:102C30000E94DB0D67EE77E082EA93E00E94CE0609
:102C400060ED77E080E090E00E943D05412C512C42
:102C50003201439440E0A42E40E0B42EA895B1E0A8
:102C6000B093ED040E946F050091DD041091DE0425
:102C70002091DF043091E004AB01BC01401B510BFB
:102C8000620B730B8091E9049091EA04B0E0A0E03C
:102C9000312C84179507A607B70708F44AC010928D
:102CA000ED040E946F050091F6041091F704209145
:102CB000F8043091F904601B710B820B930B603D9B
:102CC00077408105910598F00E946F056093F604A6
:102CD0007093F7048093F8049093F90480915E0454
:102CE000882309F405C10E94750E0E94300EA114BC
:102CF000B10409F4B3CF0E944B06882309F4AECF88
:102D00000E940000ABCF8095892304CF8081918100
:102D10008E219F214FC08091E5049091E604C80E5A
:102D2000D91E41E0F601608181E894E00E94800CA8
:102D300033948091E804381608F040C0C32CD12C9D
:102D4000E091E504F091E604EC0DFD1D40E06081AA
:102D500081E894E00E94800CD301C201032C04C0DE
:102D6000880F991FAA1FBB1F0A94D2F74C017C0140
:102D7000E094F094212C8091E704281660F6022D4F
:102D800010E0E091E304F091E404E00FF11F6081B2
:102D900081E894E00E94DC0C0C5F1F4F000F111FB4
:102DA000F801EF57FB4F892B09F0B0CF808191815B
:102DB00088299929918380832394DDCF01E814E049
:102DC0007801D7015F968D919C919097892B59F44A
:102DD0005C961C925C97EFEFFFEF5E96FC93EE9390
:102DE0005D9791961C92F6E0EF0EF11C4DEB54E0CE
:102DF0004E155F0531F7D12C8091E704D81608F005
:102E000053C0C12C8D2C912C880C991CC401875760
:102E10009B4F4C012091E804C21608F043C0D40136
:102E20006D917C910C2C02C0769567950A94E2F71F
:102E3000D29E900111242C0D311DE1E8F4E080E0D8
:102E4000458D568D2417350709F455C08F5F36968A
:102E50008A30B1F760FF24C0E1E8F4E090E080E060
:102E6000448D411118C0E091E104F091E204E20FB9
:102E7000F31F4081B6E0B89FF001B99FF00D112417
:102E8000EF57FB4F448F368F258F10A2178E61E0CE
:102E90000E947B0505C0019636968A30910501F7A0
:102EA000C394B8CFD394A8CFD12CF80181A18111BC
:102EB000D82E0A5F1F4F0E151F05B9F70E946F0528
:102EC0006093DD047093DE048093DF049093E0044C
:102ED000DD2009F4E4CE8091A204882309F4DFCE3A
:102EE0008091A0049091A104019709F0D8CED9CE89
:102EF0000E94E007FACE6170CBCF89E095E00E9496
:102F00002E0D8FE095E00E942E0D85E195E00E9448
:102F10002E0D8BE195E00E942E0D81E295E00C9440
:102F20002E0D2F923F924F925F926F927F928F92CF
:102F30009F92AF92BF92CF92DF92EF92FF920F9348
:102F40001F93CF93DF93CDB7DEB7CA1BDB0B0FB652
:102F5000F894DEBF0FBECDBF09942A88398848880F
:102F60005F846E847D848C849B84AA84B984C884A5
:102F7000DF80EE80FD800C811B81AA81B981CE0F9C
:102F8000D11D0FB6F894DEBF0FBECDBFED01089581
:102F9000A1E21A2EAA1BBB1BFD010DC0AA1FBB1F5D
:102FA000EE1FFF1FA217B307E407F50720F0A21BCF
:102FB000B30BE40BF50B661F771F881F991F1A943C
:102FC00069F760957095809590959B01AC01BD0166
:102FD000CF010895EE0FFF1F0590F491E02D0994A5
:102FE0000F931F93CF93DF938230910510F482E00B
:102FF00090E0E0912905F0912A0530E020E0B0E072
:10300000A0E0309799F42115310509F44AC0281B36
:10301000390B24303105D8F58A819B816115710502
:1030200089F1FB0193838283FE0111C040815181AC
:103030000281138148175907E0F04817590799F49E
:10304000109761F012960C93129713961C93329678
:10305000CF01DF91CF911F910F9108950093290522
:1030600010932A05F4CF2115310551F0421753076B
:1030700038F0A901DB019A01BD01DF01F801C1CFE0
:10308000EF01F9CF90932A0580932905CDCFFE015A
:10309000E20FF31F819391932250310939832883E2
:1030A000D7CF2091270530912805232B41F420917B
:1030B00015013091160130932805209327052091A2
:1030C0001301309114012115310541F42DB73EB79C
:1030D0004091170150911801241B350BE0912705F1
:1030E000F0912805E217F307A0F42E1B3F0B2817D9
:1030F000390778F0AC014E5F5F4F2417350748F071
:103100004E0F5F1F5093280540932705819391939D
:103110009FCFF0E0E0E09CCFCF93DF930097E9F002
:10312000FC01329713821282A0912905B0912A05E1
:10313000ED0130E020E01097A1F420813181820F71
:10314000931F20912705309128052817390709F08A
:1031500061C0F0932805E0932705DF91CF91089592
:10316000EA01CE17DF07E8F54A815B819E01411530
:103170005105B1F7E901FB83EA8349915991C40FE5
:10318000D51FEC17FD0761F4808191810296840FB1
:10319000951FE90199838883828193819B838A8328
:1031A000F0E0E0E012968D919C9113970097B9F5AD
:1031B0002D913C911197CD010296820F931F209182
:1031C0002705309128052817390739F6309751F52A
:1031D00010922A0510922905B0932805A09327057F
:1031E000BCCFD383C28340815181840F951FC81700
:1031F000D90761F44E5F5F4F88819981480F591F4D
:10320000518340838A819B81938382832115310579
:1032100009F0B0CFF0932A05E09329059ECFFD0178
:10322000DC01C0CF13821282D7CFB0E0A0E0EBE187
:10323000F9E10C9493178C01009751F4CB010E9493
:10324000F0178C01C801CDB7DEB7E0E10C94AF17E1
:10325000FC01E60FF71F9C0122503109E217F3072A
:1032600008F49DC0D901CD91DC911197C617D707FD
:1032700098F0C530D10530F3CE0104978617970733
:1032800008F3C61BD70B2297C193D1936D937C9300
:10329000CF010E948C18D6CF5B01AC1ABD0A4C013D
:1032A0008C0E9D1EA0912905B0912A05512C412C10
:1032B000F12CE12C109731F580912705909128058C
:1032C0008815990509F05CC04616570608F058C0E5
:1032D0008091130190911401009741F48DB79EB72E
:1032E0004091170150911801841B950BE817F907BD
:1032F00008F055C0F0932805E0932705F901718384
:103300006083A0CF8D919C91119712966C9012972B
:1033100013967C901397A815B90559F56C0142E0F6
:10332000C40ED11CCA14DB0420F1AC014A195B099C
:10333000DA011296159780F062827382518340837E
:10334000D9016D937C93E114F10471F0D7011396C8
:10335000FC93EE93129776CF22968C0F9D1FF90166
:1033600091838083F301EFCFF0932A05E093290541
:1033700069CF4816590608F42C017D01D3019ACF74
:10338000CB010E94F0177C01009749F0AE01B80113
:103390000E94D219C8010E948C18870153CF10E0F7
:1033A00000E050CFFB01DC0102C001900D924150C2
:1033B0005040D8F70895FB01DC0101900D920020E8
:1033C000E1F7089514E0C7E3D4E004C0FE010E94D1
:0E33D000EA172196C833D107C9F7F894FFCF4A
:1033DE0002000401060503313233343536373839ED
:1033EE002A302300002B0580006B006C006D00005E
:1033FE0000010002000300040005000600070000A3
:10340E0000000000000000000000008106E1050E33
:10341E0006ED063F061D063106000000000D0BE00E
:10342E000AD90CBD0ADA05CD0ABE0A00000000D783
:10343E0005800CDC0C00000000FE07E105D90CD85D
:10344E000C9B0C0D0A002142722C002C446F6E65F1
:10345E002E002152657365740021436F727265638D
:10346E0074000A0A0A00202020414343455353208A
:10347E004752414E54454421002157726F6E6700EA
:10348E00202020204143434553532044454E494577
:10349E004421002020202020202020200046504BB8
:1034AE000053656372657420446F6F720031322E63
:1034BE0030342E323032310076657273696F6E2081
:1034CE00312E3000427253454300353331340053B0
:1034DE0059530021536574757020426567696E00FB
:1034EE0057445420656E6461626C65640021736597
:1034FE007475705F626567696E00466F756E6420E5
:10350E00616464726573733A200020283078002954
:10351E0000466F756E6420002064657669636528C9
:10352E0073292E00206C69676874204F4C45442027
:10353E006F6B2E2E2E00696E697469616C697A69E3
:10354E006E672072656C617900206F6B003D3D3DAA
:10355E003D3D3D3D3D3D3D3D3D3D3D3D3D3D3D3D8D
:10356E0053544152543D3D3D3D3D3D3D3D3D3D3D20
:0C357E003D3D3D3D3D3D3D3D3D3D0000DF
:00000001FF
