:100000000C9438040C9460040C9460040C94021159
:100010000C94DD100C94B8100C9460040C946004E3
:100020000C9460040C9460040C9460040C946004C0
:100030000C9460040C9460040C9460040C946004B0
:100040000C9416100C9460040C9486100C946010A0
:100050000C9460040C9460040C9460040C94600490
:100060000C9427110C946004AEB08180A1A6A83F27
:10007000AD8B32C8D300D580D91FDA12DB40AF5424
:10008000617374653A20001C620A0C20600202054C
:1000900008070D0802040405070204020607060704
:1000A000070707070707070202070707050A0707E9
:1000B00007080606080804060707090809070908CB
:1000C000070808070C0708060406040809030606C3
:1000D000060606050606020407020A0606060605C7
:1000E000050506060A0606050602060809000000C0
:1000F000007E7E303007070007070000000000C0C8
:10010000D8F8DED8F8DE18003000003000000038E3
:100110007C64FF64E4C8102020F02030103C7E4254
:100120007E3CC02018E6F010F0E000000000300037
:1001300000001030203010DCFE227EDC80602010B9
:100140003020202010302007070000F8FE070110A3
:1001500070E0800107FEF880E07010120C3F0C1276
:100160000000000000202020FC20202000000010C3
:100170000000000000F0702020202000000000009F
:100180000030300080E07C1F03C0F030000000FC35
:10019000FE020202FEFC103020202030100404FE7B
:1001A000FE0000202030302020040682C2623E1C67
:1001B000203030202020200406222222FEDC1030B5
:1001C0002020203010C0A09884FEFE800000000097
:1001D000303000001E1E1212F2E2103020202030BB
:1001E00010F8FC161212F2E010302020203010021D
:1001F0000282E27A1E0600203010000000DCFE229F
:100200002222FEDC103020202030103C7E42424270
:10021000FEFC00202020301000181830301818F094
:10022000706060909008080400000000101020909A
:10023000909090909090000000000000000408084A
:1002400090906060201010000000000462721E0C8C
:100250000030300000F00CF4FA0AFAFA040CF00056
:1002600030205050505010100080F8FE86FEF8806C
:1002700030300000003030FEFE22223EFCC0303024
:100280002020203010F8FC0602020204001030206A
:10029000202010FEFE02020206FCF8303020202052
:1002A000301000FEFE22222222303020202020FEAC
:1002B000FE22222222303000000000F8FC0602421A
:1002C00042C2C40010302020203030FEFE2020200A
:1002D00020FEFE303000000000303002FEFE022022
:1002E00030302000020202FEFE202020203010FECE
:1002F000FE70D88C060230300000103020FEFE0068
:100300000000000030302020202020FE0E3CF0C0F5
:10031000300CFEFE300000000000003030FE061CF5
:1003200038E0C000FE3000000000103030F8FC065D
:1003300002020206FCF8001030202020301000FEDF
:10034000FE4242427E3C30300000000000F8FC06D5
:1003500002020206FCF80010302060E0B09080FE3F
:10036000FE2262E2BE1C0030300000001030201C73
:100370003E322262E2C4102020202030100202020D
:10038000FEFE0202020000003030000000FEFE000F
:10039000000000FEFE10302020202030100E7EF0E5
:1003A00080F07E0E000030303000000E7EF080E0E5
:1003B0003E3EE080F07E0E00003030000000003055
:1003C000300000068EF870F88E06303000000030E5
:1003D00030060E18F0F0180E060000003030000055
:1003E0000002C2F23E0E02303020202020FFFF012A
:1003F00001F0F08080031F7CE0800000000030F0FE
:10040000C00101FFFF8080F0F010180C06060C18E8
:1004100010000000000000000000000000000000CC
:100420000000808080808080808080010302000046
:1004300000C0E82828F8F0103020203030FFFF08F6
:1004400008F8F0303020203010F0F80808081010BC
:100450003020202010F0F80808FFFF103020203056
:1004600030F0F84848787010302020201008FEFF47
:1004700009090030300000F0F80808F8F810B0A0C2
:10048000A0F070FFFF0808F8F0303000003030FBBB
:10049000FB30300008FBFB8080F070FFFF60F098BD
:1004A000080030300000103020FFFF3030F8F81026
:1004B00008F8F01008F8F03030000030300000305C
:1004C00030F8F80808F8F0303000003030F0F80864
:1004D00008F8F0103020203010F8F80808F8F0F094
:1004E000F020203010F0F80808F8F810302020F044
:1004F000F0F8F81018183030000000307848C8883C
:10050000202020301008FEFE08080010302020F8BF
:10051000F80000F8F810302020303038F8C0C0F86B
:100520003800103030100078F880C03838C080F8BB
:10053000780030300000000030300018B8E0E0B83B
:100540001830300000303038F8C0C0F8380090F073
:1005500070100008C8E8781830302020202020FED5
:10056000DF0101000070F08080FFFFF0F00101DF8B
:10057000FE20208080F0700000E01010204080807D
:10058000700000000000000000FE020202020202F1
:1005900002FE3020202020202020300000050720EF
:1005A00060000000000000005F000000070007007E
:1005B000147F147F14242A7F2A12231308646236BE
:1005C000495620500008070300001C22410000414A
:1005D000221C002A1C7F1C2A08083E080800807084
:1005E00030000808080808000060600020100804B7
:1005F000023E5149453E00427F400072494949460A
:100600002141494D331814127F1027454545393C87
:100610004A49493141211109073649494936464974
:1006200049291E0000140000004034000000081496
:10063000224114141414140041221408020159090F
:10064000063E415D594E7C1211127C7F4949493664
:100650003E414141227F4141413E7F494949417FDD
:10066000090909013E414151737F0808087F004193
:100670007F41002040413F017F081422417F4040DC
:1006800040407F021C027F7F0408107F3E414141B1
:100690003E7F090909063E4151215E7F091929461D
:1006A000264949493203017F01033F4040403F1F33
:1006B0002040201F3F4038403F6314081463030468
:1006C0007804036159494D43007F414141020408C8
:1006D0001020004141417F0402010204404040409B
:1006E00040000307080020545478407F28444438D1
:1006F0003844444428384444287F3854545418001B
:10070000087E090218A4A49C787F08040478004499
:100710007D40002040403D007F1028440000417F84
:1007200040007C047804787C08040478384444440D
:1007300038FC1824241818242418FC7C0804040805
:10074000485454542404043F44243C4040207C1C1E
:100750002040201C3C4030403C44281028444C9011
:1007600090907C4464544C4400083641000000776B
:100770000000004136080002010204023C26232644
:100780003C00030C0F30333C3FC0C3CCCFF0F3FC34
:10079000FF000000002300260029005363616E6EF5
:1007A000696E672E2E2E00493243207363616E6E90
:1007B00065723A006800178040024F6C65642069DA
:1007C0006E69740A000A20737563636573736675D6
:1007D0006C6C7920696E697469616C697A656420F2
:1007E00072656C61790A002173657475705F656E5E
:1007F000640A0A00206F6B0A004B65797061643AE5
:10080000202E2E2E0052656C61793A202E2E2E005D
:100810004F6C6564733A202E2E2E000000000024D9
:100820000027002A0000000000250028002B0004FB
:100830000404040404040402020202020203030387
:100840000303030102040810204080010204081081
:10085000200102040810200000000800020100002E
:1008600003040700000000000000000046126E179D
:1008700011241FBECFEFD8E0DEBFCDBF25E0ACEC2A
:10088000B2E001C01D92AB34B207E1F712E0A0E084
:10089000B1E0E0ECF3E302C005900D92AC3CB1078F
:1008A000D9F714E0C7E3D4E004C02197FE010E9409
:1008B000DB17C633D107C9F70E9473130C94D31901
:1008C0000C94000096E0899FD0011124AF55BB4FD6
:1008D00090967C936E935F9791E091969C939197FD
:1008E000E0910E05F0910F0590910D05992339F0D7
:1008F000309751F0811108C08091BD040994309760
:1009000019F05C968C91FACF0895833081F028F429
:10091000813099F08230A9F008958730A9F08830AD
:10092000C9F08430B1F4809180008F7D03C0809144
:1009300080008F7780938000089584B58F7784BD81
:10094000089584B58F7DFBCF8091B0008F77809321
:10095000B00008958091B0008F7DF9CF1F93CF93A1
:10096000DF93282F30E0F901E95AF74F8491F9011C
:10097000ED5BF74FD491F901E15DF74FC491CC23C2
:10098000A9F0162F81110E948504EC2FF0E0EE0FE4
:10099000FF1FEB5DF74FA591B4918FB7F894EC91E1
:1009A000111108C0D095DE23DC938FBFDF91CF916A
:1009B0001F910895DE2BF8CFCF93DF9390E0FC01D9
:1009C000ED5BF74F2491815D974FFC018491882363
:1009D000C9F090E0880F991FFC01E55EF74FA591E3
:1009E000B491FC01EB5DF74FC591D49161110DC03D
:1009F0009FB7F8948C91209582238C93888128232B
:100A000028839FBFDF91CF910895623051F49FB743
:100A1000F8943C91822F809583238C93E8812E2B30
:100A2000EFCF8FB7F894EC912E2B2C938FBFEACF9A
:100A30003FB7F89480916E0390916F03A09170037B
:100A4000B091710326B5A89B05C02F3F19F0019600
:100A5000A11DB11D3FBFBA2FA92F982F8827BC0118
:100A6000CD01620F711D811D911D42E0660F771F40
:100A7000881F991F4A95D1F708958F929F92AF9240
:100A8000BF92CF92DF92EF92FF924B015C010E94E6
:100A900018056B017C010E9418056C197D098E09EF
:100AA0009F09683E734081059105A8F321E0821AF1
:100AB0009108A108B10888EEC80E83E0D81EE11C99
:100AC000F11C81149104A104B10429F7FF90EF9067
:100AD000DF90CF90BF90AF909F908F9008952FB7E9
:100AE000F89460916A0370916B0380916C0390910C
:100AF0006D032FBF08950F931F93CF93DF93C82FDC
:100B0000D62F86E0C89FF0011124EF55FB4F11A2AC
:100B1000878D90A181309105F1F058F082309105D8
:100B2000F1F1039709F440C0DF91CF911F910F912C
:100B300008956623C9F361E070E08C2F0E9462047F
:100B40000E946F056093F9047093FA048093FB048C
:100B50009093FC04E9CF0E946F050091F904109175
:100B6000FA042091FB043091FC04AB01BC01401B52
:100B7000510B620B730B80910B0590910C05B0E04B
:100B8000A0E084179507A607B70748F462E070E075
:100B90008C2FDF91CF911F910F910C94620463E031
:100BA00070E0D111C1CFF4CF70E060E0F1CF0895D3
:100BB000089508958091670390916803891B990BAC
:100BC0000895AF92BF92CF92DF92EF92FF920F9370
:100BD0001F93CF93DF936C017B018B01040F151FD3
:100BE000EB015E01AE18BF08C017D10759F069913B
:100BF000D601ED91FC910190F081E02DC60109959F
:100C0000892B79F7C501DF91CF911F910F91FF904B
:100C1000EF90DF90CF90BF90AF900895FC01538D7F
:100C2000448D252F30E0842F90E0821B930B5417C6
:100C300010F0CF96089501970895FC01918D828D53
:100C4000981761F0A28DAE0FBF2FB11D5D968C91EC
:100C5000928D9F5F9F73928F90E008958FEF9FEF2B
:100C60000895FC01918D828D981731F0828DE80FE7
:100C7000F11D858D90E008958FEF9FEF0895FC01A1
:100C8000918D228D892F90E0805C9F4F821B91096E
:100C90008F739927089582EC93E00E943F0621E02C
:100CA000892B09F420E0822F089580E090E0892BC1
:100CB00029F00E944B0681110C9400000895FC015C
:100CC000A48DA80FB92FB11DA35ABF4F2C91848DAD
:100CD00090E001968F739927848FA689B7892C930A
:100CE000A089B1898C91837080648C93938D848D5D
:100CF000981306C00288F389E02D80818F7D808360
:100D00000895EF92FF920F931F93CF93DF93EC011F
:100D100081E0888F9B8D8C8D98131AC0E889F989A2
:100D2000808185FF15C09FB7F894EE89FF896083A5
:100D3000E889F98980818370806480839FBF81E026
:100D400090E0DF91CF911F910F91FF90EF90089568
:100D5000F62E0B8D10E00F5F1F4F0F731127E02E43
:100D60008C8D8E110CC00FB607FCFACFE889F9897B
:100D7000808185FFF5CFCE010E945F06F1CFEB8D1C
:100D8000EC0FFD2FF11DE35AFF4FF0829FB7F8944F
:100D90000B8FEA89FB8980818062CFCFEF92FF922F
:100DA0000F931F93CF93DF938C017B01D0E0C0E0C2
:100DB000F701EC0FFD1F6491662339F0C8010E9412
:100DC0008106892B11F02196F3CFCE01DF91CF91CF
:100DD0001F910F91FF90EF900895CF93DF93EC0157
:100DE000888D8823B9F0AA89BB89E889F9898C9113
:100DF00085FD03C0808186FD0DC00FB607FCF7CFCF
:100E00008C9185FFF2CF808185FFEDCFCE010E94CE
:100E10005F06E9CFDF91CF91089590E0FC01EE0FDE
:100E2000FF1FEB56F84FA591B4912C91FC01E05AAD
:100E3000FC4F30812083880F991FFC01E75EFE4F35
:100E40000190F081E02D80810895CF93DF9370E0D1
:100E5000FB01E95AF74F8491FB01ED5BF74FD49109
:100E6000615D774FFB01C491CC23A1F081110E94F9
:100E70008504EC2FF0E0EE0FFF1FEF56F84FA59121
:100E8000B491EC91ED2381E090E009F480E0DF91F2
:100E9000CF91089580E090E0FACF862F642F0C94D4
:100EA000AE04862F642F0C94DC04CF93DF93EC0107
:100EB0009C818E81981758F4E881F9810084F1852E
:100EC000E02D42E0CE0109958C818F5F8C83DF910C
:100ED000CF910895DC01ED91FC910084F185E02D26
:100EE00040E009940F931F93CF938C01FC0164831E
:100EF000C085C60F6C2F6F700E946A076C2F6295B9
:100F00006F706061C801CF911F910F910C946A07B7
:100F1000FC012781269526952695621720F4658386
:100F2000606B0C946A0708951F93CF93DF93EC01D5
:100F3000142F8E81681718F4CE010E947207612F5A
:100F4000CE01DF91CF911F910C948807CF92DF9251
:100F5000EF92FF920F931F93CF93DF93EC01162F25
:100F6000C42ED22E8F81869586958695081710F00F
:100F70000FEF080FFD2C0F15B0F08E81181720F41D
:100F8000612FCE010E9472076F2DCE010E9488074B
:100F9000E12ECE1430F060E0CE010E945507E394BC
:100FA000F8CFF394E8CF4D2D612FCE01DF91CF9193
:100FB0001F910F91FF90EF90DF90CF900C949407CA
:100FC0000F930091210506950695069501504091D5
:100FD0002005415020E060E08AE195E00E94A607EC
:100FE00081E090912405911101C080E08093240557
:100FF00060E48AE195E00F910C946A072F923F928A
:101000004F925F926F927F928F929F92AF92BF9218
:10101000CF92DF92EF92FF920F931F93CF93DF93C4
:1010200000D000D01F92CDB7DEB7DC011B960D912A
:101030001C910115110509F468C19D838C83F80189
:101040004491319654913196649031962491E22ED8
:10105000F12CF7E0EF0EF11C73E0F594E7947A952C
:10106000E1F7E982F801349634913196E4916317FF
:1010700048F08E2F90E0FC01E30FF11D6E171F0664
:101080000CF487C06D3031F5AC81BD8116968C9122
:1010900081111AC081E090E00F900F900F900F9097
:1010A0000F90DF91CF911F910F91FF90EF90DF9004
:1010B000CF90BF90AF909F908F907F906F905F90F8
:1010C0004F903F902F90089560E08C819D810E9409
:1010D0007207E0CF6A3009F018C1EC81FD8181858B
:1010E000D5808E9DD00C1124878186958695869516
:1010F000D81630F08285882319F082E08287D12CBF
:101100004D2D60E08C819D810E949407AC81BD8152
:101110001A968C911A97823008F4BCCF15962C91B0
:1011200015971B96ED91FC911C9700E0309739F0D4
:101130003396E49119960C91E09F002D112410E054
:10114000095F1F4F33E0159507953A95E1F78FEF4B
:10115000820F080FEC81FD81468141506481CF01EF
:101160000E94A607AC81BD8119968C9119976D2DAF
:101170008E9D600D1124660F660F660F17968C9179
:10118000861708F460E060648C819D810E946A0784
:1011900081CF4527542745270A5F1F4F631BEC81EA
:1011A000FD8121844230510508F06DC0452B09F0C6
:1011B000212C6E9CC0016F9C900D1124689FF00142
:1011C000699FF00D11240E0F1F1F512CAC81BD81A2
:1011D0001496BC91BA83EC81FD81F581FB83862C4A
:1011E000912CAA24A394B12C312C8981381608F0B3
:1011F00086C0412CAC81BD8119968C91481608F0AF
:1012000077C0311002C0442041F0EC81FD8145815E
:101210004F5F6A81CF010E949407D12CC12CC61464
:1012200008F05AC0F801EC0DFD1D7490552061F0D6
:10123000EA14FB0449F4E72DF0E0052C02C0F59513
:10124000E7950A94E2F77E2EAC81BD8119968C91C8
:10125000823081F4442009F43BC072948FE07822FC
:10126000E72DF0E0EF57F84F7490672D8C819D814A
:101270000E945507672D8C819D810E945507EFEFD5
:10128000CE1ADE0ACCCF277038E0532E521A211125
:1012900001C0512C50E040E030E020E0F80146175A
:1012A00040F4E40FF51FE4912E0F311D4F5F5F4FA7
:1012B000F5CFE60FF11D6490E29EF001E39EF00D84
:1012C000F29EF00D11248E0F9F1F080F191F7ECF65
:1012D000B72DBF707B2EC4CFD12C2D1439F060E018
:1012E0008C819D810E945507D394F7CF439482CF80
:1012F0003394080D191DFFEFAF1ABF0A76CF6B812B
:101300008C819D810E948807C5CE90E080E0C4CE8C
:1013100020910D03260F3327331F21323105ECF4C2
:101320002091B803FC0190E080E0243069F082E075
:101330000895A0910D032191AC0143515D4FA40F7D
:10134000B52FB11D2C930196861798F380910D034C
:10135000680F60930D0380E0089581E00895109276
:10136000B80381E0809397031092920361E082E1D9
:101370000E94AE0461E083E10E94AE04E9EBF0E07C
:1013800080818E7F808380818D7F808388E48093BD
:10139000B80085E48093BC000895CF93DF9391E07B
:1013A0009093EC028823B9F0C091B800D091BA00B4
:1013B0008091BC008A7B8093BC0060E082E10E9447
:1013C000AE0460E083E10E94AE040E94AF09D093B6
:1013D000BA00C093B800DF91CF910895CF92DF9209
:1013E000EF92FF920F931F93CF93DF93D82FC62FC7
:1013F000613208F098C00E9418056B017C01809151
:10140000B80381116BC081E08093B8038093970388
:101410009FEF90939603109295039C0F90939403E3
:101420008093930380919303DD0FD82BD093930384
:1014300080919203813009F078C0109292030E944B
:1014400018056B017C01809193038093BB00809110
:10145000BA039091BB03A091BC03B091BD03892B4B
:101460008A2B8B2BA1F00E9418050091BA031091D2
:10147000BB032091BC033091BD036C197D098E091B
:101480009F09061717072807390708F448C08091F5
:10149000BC0083FDD8CF85EC8093BC000E9418056A
:1014A0006B017C018091B803813009F440C08091C8
:1014B00095038C1710F4C0919503E2E7F3E0A8E9D7
:1014C000B3E080E08C1355C08C2FDF91CF911F913A
:1014D0000F91FF90EF90DF90CF9008958091BA0325
:1014E0009091BB03A091BC03B091BD03892B8A2BC3
:1014F0008B2B09F484CF0E9418050091BA03109138
:10150000BB032091BC033091BD036C197D098E098A
:101510009F09061717072807390708F070CF809131
:10152000B9030E94CD09C0E0CFCF85EEB5CF809141
:10153000BA039091BB03A091BC03B091BD03892B6A
:101540008A2B8B2B09F4AECF0E9418050091BA03A9
:101550001091BB032091BC033091BD036C197D0930
:101560008E099F09061717072807390708F09ACF31
:10157000D6CF91919D938F5FA5CF0895E091680399
:1015800080916703E81730F4F0E0E856FC4F808163
:1015900090E008958FEF9FEF0895909168038091F8
:1015A00067032FEF3FEF981748F4E92FF0E0E85674
:1015B000FC4F208130E09F5F90936803C90108953C
:1015C000CF92DF92EF92FF920F931F93CF93DF930F
:1015D0007C01CB018A012091C103222389F0EB0118
:1015E0006B01C40ED51ECC15DD0569F06991D701DC
:1015F000ED91FC910190F081E02DC7010995F3CFA9
:10160000642F0E948809C801DF91CF911F910F912B
:10161000FF90EF90DF90CF900895CF93DF931F92CC
:10162000CDB7DEB769832091C1032223F9F0209161
:10163000BE03203258F021E030E0FC0133832283E6
:1016400090E080E00F90DF91CF9108958091BF03EB
:10165000E82FF0E0E453FD4F998190838F5F8093F2
:10166000BF038093BE0381E090E0ECCF61E0CE0148
:1016700001960E948809F7CFCF92DF92EF92FF92F6
:101680000F931F93CF93DF93D091BE0381E0D132AC
:1016900008F09CC0C091C0030E9418056B017C013A
:1016A0008091B80381116CC082E08093B80381E01F
:1016B000809397038FEF8093960310929503D093B6
:1016C0009403ACECB2E0E2E7F3E080E0D8138DC025
:1016D0001092930380919303CC0FC82BC093930374
:1016E00080919203813009F084C0109292030E948D
:1016F00018056B017C01809193038093BB0080915E
:10170000BA039091BB03A091BC03B091BD03892B98
:101710008A2B8B2BA1F00E9418050091BA0310911F
:10172000BB032091BC033091BD036C197D098E0968
:101730009F09061717072807390708F442C0809148
:10174000BC0083FDD8CF85EC8093BC000E941805B7
:101750006B017C018091B803823009F44CC0809108
:1017600096038F3F09F469C080919603803209F493
:1017700066C080919603803309F463C084E026C07C
:101780008091BA039091BB03A091BC03B091BD03BB
:10179000892B8A2B8B2B09F483CF0E94180500918B
:1017A000BA031091BB032091BC033091BD036C19A7
:1017B0007D098E099F09061717072807390708F0C2
:1017C0006FCF8091B9030E94CD0985E01092BF03CD
:1017D0001092BE031092C103DF91CF911F910F9120
:1017E000FF90EF90DF90CF9008959D9191938F5F40
:1017F0006DCF85EEA9CF8091BA039091BB03A091E4
:10180000BC03B091BD03892B8A2B8B2B09F4A2CF8B
:101810000E9418050091BA031091BB032091BC03EC
:101820003091BD036C197D098E099F0906171707B2
:101830002807390708F08ECFC4CF80E0C7CF82E0F9
:10184000C5CF83E0C3CFEFE5F4E091816281808171
:10185000238131E03093C1032093C0031092BF0372
:101860001092BE0360956923682B85E994E00E947D
:101870000D0B85E994E00C943C0BEF92FF920F93D3
:101880001F93CF93DF93EC017B018C010D581F4F09
:10189000D8018D919C91FE01E159FF4F208131E0EB
:1018A0003093C1032093C0031092BF031092BE0374
:1018B000DC01ED91FC910190F081E02D0995FE0194
:1018C000E059FF4F8081823058F0F801808191818A
:1018D000DC01ED91FC910190F081E02D6F2D0995D7
:1018E000F801808191810E943C0BCF58DF4FE88244
:1018F000F982DF91CF911F910F91FF90EF900895A2
:1019000021E030E002C0220F331F6A95E2F7FC01AC
:10191000EF58FF4F60817181442341F0262B372B14
:1019200031832083608171810C943D0C209530952A
:1019300026233723F5CF0F931F93CF93DF93EC012B
:10194000062F142F8E85813120F4882339F0411120
:1019500005C085E994E00E943C0B1E868E858111AE
:1019600012C08D8591E09093C1038093C0031092C3
:10197000BF031092BE0360E4111101C060E085E96D
:1019800094E00E940D0B602F85E994E00E940D0BFE
:10199000123041F48E858F5F8E87DF91CF911F913A
:1019A0000F91089585E994E00E943C0B1E86F5CFC7
:1019B000089590E080E00895CF92DF92EF92FF9239
:1019C0000F931F93CF93DF93EC0181E090E07C01B4
:1019D00002C0EE0CFF1C6A95E2F76E0180E7C80EAC
:1019E000D11CD6016C91613208F060E2FE01E15930
:1019F000FF4F80810E94EE09109268038093670375
:101A0000CD58DF4F88819981DC01ED91FC910284F2
:101A1000F385E02D09958C01F6018081823060F01C
:101A200088819981DC01ED91FC910284F385E02DA0
:101A3000099520E0022B182B0E211F2181E090E058
:101A40000E151F0511F090E080E0DF91CF911F91FE
:101A50000F91FF90EF90DF90CF900895FC0180816F
:101A60009181009711F00C947D180895EF92FF92E8
:101A70000F931F93CF93DF93EC017B018A01888141
:101A80009981009729F02A813B812417350788F432
:101A9000B8016F5F7F4F0E940619009791F09983FC
:101AA00088831B830A832C813D81232B11F4FC0145
:101AB00010821D830C83B701888199810E94CC1903
:101AC0000CC088819981009711F00E947D181982BD
:101AD00018821D821C821B821A82CE01DF91CF9157
:101AE0001F910F91FF90EF900895FC0111821082D9
:101AF0001382128215821482FB0101900020E9F703
:101B00003197AF01461B570B0C94360DFB0101902A
:101B10000020E9F73197AF01461B570BDC01ED912F
:101B2000FC910280F381E02D09948F929F92AF92F5
:101B3000BF920F931F93CF93DF93CDB7DEB7A197DB
:101B40000FB6F894DEBF0FBECDBF19A2423008F425
:101B50004AE08E010F5D1F4F842E912CB12CA12CD9
:101B6000A50194010E94B917E62FB901CA01EA3014
:101B700004F5E05DD801EE938D01232B242B252B5A
:101B800079F790E080E0109729F0BD0182EC93E0B6
:101B90000E94860DA1960FB6F894DEBF0FBECDBF92
:101BA000DF91CF911F910F91BF90AF909F908F9039
:101BB0000895E95CDFCF6BE571E00C94860D0F931F
:101BC0001F93CF93DF93EC010E94860D8C01CE0111
:101BD0000E94DB0D800F911FDF91CF911F910F911C
:101BE00008950F931F93CF93DF93EC018B0161E076
:101BF0008EE00E94AE0482EC93E00E94DB0D6EE565
:101C000071E082EC93E00E94860DF80144815581D9
:101C10006081718182EC93E00E94E10561E671E0F0
:101C200082EC93E00E94860D4C815D816881798110
:101C300082EC93E00E94E10563E671E082EC93E0C0
:101C40000E94DF0D62E370E080E090E00E943D05BD
:101C500060E08EE0DF91CF911F910F910C94AE0464
:101C6000CF93DF930E94E007CAE1D5E08BE995E0CE
:101C70009C878B876AE671E0CE010E94860D87E81B
:101C800090E09C878B876EE671E0CE01DF91CF916B
:101C90000C94DF0DCF93DF93CDB7DEB72C970FB643
:101CA000F894DEBF0FBECDBF80917E04882381F102
:101CB0001092920410927E0418861F821A8619864A
:101CC0001C861B866091290570912A056115710596
:101CD00041F040912D0550912E05CE0107960E94AE
:101CE000360D61E871E0CE0101960E94750DBE01CE
:101CF000695F7F4FCE0101960E94F10DCE010196E2
:101D00000E942E0DCE0107960E942E0D0E94300ECD
:101D10002C960FB6F894DEBF0FBECDBFDF91CF91EA
:101D20000895CF93DF93CDB7DEB72C970FB6F89415
:101D3000DEBF0FBECDBF20917E04222309F4A6C0D2
:101D40008091930490919404FC013191AFE7B4E049
:101D5000449631115BC0211161C0609129057091D9
:101D60002A0518861F821A8619861C861B8661150D
:101D7000710541F040912D0550912E05CE01079639
:101D80000E94360D68E871E0CE0101960E94750D43
:101D9000BE01695F7F4FCE0101960E94F10DCE0119
:101DA00001960E942E0DCE0107960E942E0D0E94D4
:101DB000E0078BE995E090932605809325056AE678
:101DC00071E08AE195E00E94860D87E890E09093AB
:101DD00026058093250561E971E08AE195E00E947E
:101DE000DF0D80915F04806280935F040E94230C6A
:101DF00064EA71E082EC93E00E94DF0DA8956AE04E
:101E000070E080E090E00E943D05F8CF321306C0FC
:101E100031912D918E179F0709F09BCF18861F8255
:101E20001A8619861C861B866091290570912A05E1
:101E30006115710541F040912D0550912E05CE019F
:101E400007960E94360D69EC71E0CE0101960E9462
:101E5000750DBE01695F7F4FCE0101960E94F10DA5
:101E6000CE0101960E942E0DCE0107960E942E0DE6
:101E700060ED71E08AE195E00E94DF0D68EE73E0AD
:101E800080E090E00E943D050E944A0E2C960FB61D
:101E9000F894DEBF0FBECDBFDF91CF9108951F93A1
:101EA000CF93DF93CDB7DEB72C970FB6F894DEBF94
:101EB0000FBECDBF2091C0043091C1042130310547
:101EC00009F06FC0182F0E946F056093160570937C
:101ED000170580931805909319056FE770E082EC61
:101EE00093E00E94CE06612F82EC93E00E9481066F
:101EF00082EC93E00E94DB0D133209F450C01A32D9
:101F000009F459C0E0919204E33169F091E09E0F29
:101F100090939204F0E0E258FB4F1083E92FF0E039
:101F2000E258FB4F10820E94E0078BE995E0909306
:101F30002605809325056AE671E08AE195E00E9416
:101F4000860D87E890E0909326058093250563EE43
:101F500071E08AE195E00E94860D6EE774E08AE107
:101F600095E00E94DF0D6DEE71E0CE0107960E94B4
:101F7000750D6EE774E0CE0101960E94750DBE01ED
:101F8000695F7F4FCE0101960E94F10DCE0101964F
:101F90000E942E0DCE0107960E942E0D02C00E94B7
:101FA000910E2C960FB6F894DEBF0FBECDBFDF9119
:101FB000CF911F9108950E944A0EF3CF85ED809333
:101FC000BC008091BA039091BB03A091BC03B09177
:101FD000BD030796A11DB11D23E0B695A795979562
:101FE00087952A95D1F72091BC0024FD03C010925B
:101FF000B80308954091BA035091BB036091BC03AC
:102000007091BD03452B462B472B69F30097A10523
:10201000B10541F025E32A95F1F700000197A109E8
:10202000B109E1CF8091B9030C94CD091F920F92B1
:102030000FB60F9211242F933F938F939F93AF93DB
:10204000BF9380916A0390916B03A0916C03B09150
:102050006D033091690323E0230F2D3758F5019666
:10206000A11DB11D2093690380936A0390936B03B4
:10207000A0936C03B0936D0380916E0390916F03F6
:10208000A0917003B09171030196A11DB11D8093C1
:102090006E0390936F03A0937003B0937103BF918D
:1020A000AF919F918F913F912F910F900FBE0F9005
:1020B0001F90189526E8230F0296A11DB11DD2CFBF
:1020C0001F920F920FB60F9211242F933F934F93AD
:1020D0005F936F937F938F939F93AF93BF93EF9390
:1020E000FF9382EC93E00E945F06FF91EF91BF9116
:1020F000AF919F918F917F916F915F914F913F91A0
:102100002F910F900FBE0F901F9018951F920F9256
:102110000FB60F9211242F938F939F93EF93FF93FA
:10212000E091D203F091D3038081E091D803F09144
:10213000D90382FD1BC090818091DB038F5F8F7379
:102140002091DC03821741F0E091DB03F0E0EE53D5
:10215000FC4F958F8093DB03FF91EF919F918F91BF
:102160002F910F900FBE0F901F9018958081F4CF84
:102170001F920F920FB60F9211242F933F934F93FC
:102180005F936F937F938F939F93AF93BF93EF93DF
:10219000FF9382E00E940D07FF91EF91BF91AF91F5
:1021A0009F918F917F916F915F914F913F912F916F
:1021B0000F900FBE0F901F9018951F920F920FB6A1
:1021C0000F9211242F933F934F935F936F937F93BD
:1021D0008F939F93AF93BF93EF93FF9381E00E9400
:1021E0000D07FF91EF91BF91AF919F918F917F91DB
:1021F0006F915F914F913F912F910F900FBE0F9074
:102200001F9018951F920F920FB60F9211242F93C3
:102210003F934F935F936F937F938F939F93AF936E
:10222000BF93EF93FF9380E00E940D07FF91EF9122
:10223000BF91AF919F918F917F916F915F914F91DE
:102240003F912F910F900FBE0F901F9018951F92E6
:102250000F920FB60F9211242F933F934F935F93DA
:102260006F937F938F939F93AF93BF93EF93FF935E
:102270008091B900887F803609F44AC0F0F5883231
:1022800009F4A7C018F5803109F49BC0B8F488237D
:1022900009F4F9C0883009F494C0FF91EF91BF911F
:1022A000AF919F918F917F916F915F914F913F91EE
:1022B0002F910F900FBE0F901F901895883109F441
:1022C00088C0803251F78093960314C0803409F49B
:1022D0009DC040F48033B9F38833F9F680939603B8
:1022E00085ECB0C0803509F485C0883509F496C006
:1022F000883499F60E94DE0FD0CF883909F48CC05B
:1023000038F5883729F050F4883611F0803729F6EF
:1023100083E08093B80310922F0357C0883809F4E4
:102320007BC0803919F0803809F0B7CF80912F0336
:10233000803208F071C0E0912F0381E08E0F80930E
:102340002F038091BB00F0E0E15FFC4F80833DC034
:10235000803B39F0E0F4803A09F479C0883A09F01A
:102360009CCF84E08093B80310920E0310920D036B
:10237000E0916503F0916603099580910D03811149
:102380000FC081E080930D031092ED0209C0803CE4
:1023900009F4A6CF883C09F4A3CF883B09F07DCF90
:1023A000E0910E0381E08E0F80930E03F0E0E35185
:1023B000FD4F80818093BB0090910E0380910D03AF
:1023C00029C0809193038093BB0085EC8093BC006F
:1023D00064CF9091950380919403981758F5E091FC
:1023E000950381E08E0F80939503F0E0EE58FC4F4B
:1023F0008081E9CFE091950381E08E0F8093950372
:102400008091BB00F0E0EE58FC4F808390919503E3
:10241000809194039817C8F285E8D8CFE09195038E
:1024200081E08E0F809395038091BB00F0E0EE5821
:10243000FC4F80838091970381115CCF81E0809372
:10244000920384EA8093BC001092B80326CF85ECF7
:102450008093BC001092B80380912F03803230F437
:10246000E0912F03F0E0E15FFC4F108260912F03B9
:1024700070E0E0916303F09164038FE093E00995CD
:1024800010922F030ACF1092960334CF1092C503F7
:102490001092C40388EE93E0A0E0B0E08093C603FE
:1024A0009093C703A093C803B093C90323E231E01C
:1024B0003093C3032093C20325EC30E03093CF0365
:1024C0002093CE0324EC30E03093D1032093D0034B
:1024D00020EC30E03093D3032093D20321EC30E0A2
:1024E0003093D5032093D40322EC30E03093D7030C
:1024F0002093D60326EC30E03093D9032093D80301
:102500001092DB031092DC031092DD031092DE03C5
:1025100010929804109297048093990490939A04CF
:10252000A0939B04B0939C0485E391E09093960460
:102530008093950461EF71E081E495E00E94750D50
:102540006DEF71E08BE395E00E94750D68E072E03D
:1025500085E395E00E94750D64E172E08FE295E0FD
:102560000E94750D6DEE71E089E295E00E94750D97
:1025700010921D0510921C0581E080932305109296
:1025800026051092250581E591E090931B05809327
:102590001A050E946F0560931605709317058093C6
:1025A0001805909319051092A3041092A704109295
:1025B000A6041092A804EDEBF4E0108214821382BA
:1025C0001582369684E0E93FF807B9F783E091E099
:1025D000909304058093030580E091E090930605B5
:1025E0008093050584E08093070583E080930805C8
:1025F00087E091E090930205809301058AE090E0E6
:1026000090930A058093090584EF91E090930C055F
:1026100080930B0510920F0510920E051092FD0489
:102620001092FE041092FF041092000510920D0506
:1026300087E491E09093A2048093A10488E38093BF
:10264000100581E08093110585E994E090931505CC
:10265000809314058AE192E090939404809393040C
:102660001092920410927E0410925F041092600403
:102670001092610410926204109263041092640438
:102680001092650410926604109267041092680418
:102690001092690410926A0410926B0410926C04F8
:1026A00010926D0410926F0410926E0410927104D7
:1026B00010927004109273041092720410927504B8
:1026C0001092740410927704109276041092790498
:1026D0001092780410927B0410927A0410927D0478
:1026E00010927C040895CF93DF93CDB7DEB72C977B
:1026F0000FB6F894DEBF0FBECDBF789484B582606C
:1027000084BD84B5816084BD85B5826085BD85B595
:10271000816085BD80916E00816080936E00109213
:10272000810080918100826080938100809181008E
:10273000816080938100809180008160809380001F
:102740008091B10084608093B1008091B00081607D
:102750008093B00080917A00846080937A008091A9
:102760007A00826080937A0080917A008160809301
:102770007A0080917A00806880937A001092C1007C
:1027800010926803109267031092BF031092BE0369
:102790000E94AF0988ED95E09093660380936503EE
:1027A00089ED95E09093640380936303E091D203F5
:1027B000F091D30382E08083E091CE03F091CF03C8
:1027C0001082E091D003F091D10380E180831092D8
:1027D000DA03E091D603F091D70386E08083E0919D
:1027E000D403F091D503808180618083E091D4038C
:1027F000F091D503808188608083E091D403F091CB
:10280000D503808180688083E091D403F091D50363
:1028100080818F7D808364E670E080E090E00E949C
:102820003D0561E08EE00E94DC046FE172E0CE01C4
:1028300001960E94750D63E272E0CE0107960E9438
:10284000750DBE016F5F7F4FCE0107960E94F10D9F
:10285000CE0107960E942E0DCE0101960E942E0DEC
:1028600060E372E082EC93E00E94DF0D88E199E280
:102870000FB6F894A895809360000FBE9093600007
:10288000A8956DE372E082EC93E00E94DF0D82EC8C
:1028900093E00E94DB0D67EA77E082EC93E00E9410
:1028A000CE0682EC93E00E94DB0D6BE977E082ECD0
:1028B00093E00E94CE0682EC93E00E94DB0D58E08C
:1028C000C52ED12CE12CF12C10E001E00093C103C6
:1028D000C092C0031092BF031092BE0385E994E03A
:1028E0000E943C0B811123C06AE472E082EC93E009
:1028F0000E94860D4AE0C701B6010E94950D6AE567
:1029000072E082EC93E00E94860D40E1C701B601BF
:102910000E94950D6FE572E082EC93E00E94DF0D5E
:102920001F5F61E070E080E090E00E943D052FEFC6
:10293000C21AD20AE20AF20A58E7C516D104E10423
:10294000F10421F664E671E082EC93E00E94DF0D71
:1029500061E672E082EC93E00E94860D612F70E0E8
:1029600090E080E04AE00E94950D68E672E082EC1B
:1029700093E00E94DF0D60E178E082EC93E00E943A
:10298000CE066AEB77E082EC93E00E94CE061092CE
:1029900028058CE38093270510921E0510921F05D1
:1029A000E4EBF7E0C590D490E6EBF7E0F490E7EBCA
:1029B000F7E0E491E0932005E8EBF7E0E491E093A1
:1029C0002105E9EBF7E0E491E093220510E000E057
:1029D0000F1558F4F801EC0DFD1D64918AE195E0A6
:1029E0000E946A070F5F1F4FF3CF109224050E94C9
:1029F000E0078CE08093B80080912105803429F4B1
:102A00000E94E00781E0809324050E94300E68EE6A
:102A100073E080E090E00E943D0564E772E082ECA4
:102A200093E00E94DF0D65E078E082EC93E00E9485
:102A3000CE0666E872E082EC93E00E94DF0D8FE341
:102A400080936204109268031092BF031092BE0339
:102A50000E94AF0988ED95E090936603809365032B
:102A600089ED95E090936403809363038091600403
:102A70008093630461E0809162040E94EE09809378
:102A80006703811101C0FFCF85E994E00E94CD0A60
:102A900080936004809161048062809361048091DE
:102AA0005F048F7D80935F040E94230C80915F04FC
:102AB0008F7D80935F040E94230C65EC77E082ECAD
:102AC00093E00E94CE0669E972E082EC93E00E94F6
:102AD000DF0DA89562E370E080E090E00E943D0584
:102AE00069EF77E082EC93E00E94CE068FE49FE0EE
:102AF00090930F0580930E0587E091E09093020577
:102B0000809301056FEF7FEF81EA94E00E943D0C16
:102B100060911105613208F060E2809110050E9419
:102B2000EE091092680380936703809114059091D9
:102B30001505DC01ED91FC910284F385E02D0995EA
:102B40009093130580931205809111058230B8F09F
:102B50008091140590911505DC01ED91FC910284A2
:102B6000F385E02D099520E0382F80911205909192
:102B70001305822B932B909313058093120588E8FD
:102B800093E190930C0580930B0584E190E0909382
:102B90000A058093090564EF77E082EC93E00E94D8
:102BA000CE06A89565E070E080E090E00E943D05CB
:102BB00082EC93E00E94DB0D6DE972E082EC93E021
:102BC0000E94DF0D82EC93E00E94DB0D67EE77E060
:102BD00082EC93E00E94CE0660ED77E080E090E02A
:102BE0000E943D05412C512C3201439440E0A42E1B
:102BF00040E0B42EA895B1E0B0930D050E946F059A
:102C00000091FD041091FE042091FF043091000515
:102C1000AB01BC01401B510B620B730B809109058A
:102C200090910A05B0E0A0E0312C84179507A60723
:102C3000B70708F447C010920D050E946F05009178
:102C40001605109117052091180530911905601B84
:102C5000710B820B930B603D77408105910598F0D5
:102C60000E946F05609316057093170580931805F1
:102C70009093190580917E04882309F402C10E9473
:102C8000910E0E944A0EA114B10409F4B3CF0E9420
:102C90004B06882309F4AECF0E940000ABCF8081A1
:102CA00091818E219F214FC080910505909106054D
:102CB000C80ED91E41E0F601608181EA94E00E94CD
:102CC000800C339480910805381608F040C0C32C5E
:102CD000D12CE0910505F0910605EC0DFD1D40E0BD
:102CE000608181EA94E00E94800CD301C201032C30
:102CF00004C0880F991FAA1FBB1F0A94D2F74C016A
:102D00007C01E094F094212C80910705281660F650
:102D1000022D10E0E0910305F0910405E00FF11F92
:102D2000608181EA94E00E94DC0C0C5F1F4F000F71
:102D3000111FF801EF55FB4F892B09F0B0CF8081AF
:102D4000918188299929918380832394DDCF01EA99
:102D500014E07801D7015F968D919C919097892B13
:102D600059F45C961C925C97EFEFFFEF5E96FC9334
:102D7000EE935D9791961C92F6E0EF0EF11C2DED0F
:102D8000E21624E0F20631F7912C8091070598169F
:102D900008F053C0812CC92CD12CCC0CDD1CC601F1
:102DA00087559B4F6C0120910805821608F043C09F
:102DB000D6016D917C91082C02C0769567950A9496
:102DC000E2F7929E90011124280D311DE1EAF4E012
:102DD00080E0458D568D2417350709F47DC08F5F3F
:102DE00036968A30B1F760FF24C0E1EAF4E090E063
:102DF00080E0448D411118C0E0910105F091020579
:102E0000E20FF31F4081B6E0B89FF001B99FF00DCB
:102E10001124EF55FB4F448F368F258F10A2178E4C
:102E200061E00E947B0505C0019636968A309105C7
:102E300001F78394B8CF9394A8CFD12CF80181A146
:102E40008111D82E0A5F1F4FE016F106B9F70E94D4
:102E50006F056093FD047093FE048093FF049093CC
:102E60000005DD2009F4E7CE8091C204882309F42F
:102E7000E2CE8091C0049091C104019709F0DBCEAD
:102E8000DCCE18861F821A8619861C861B866091E6
:102E9000290570912A056115710541F040912D05B4
:102EA00050912E05CE0107960E94360D6DE671E019
:102EB000CE0101960E94750DBE01695F7F4FCE0164
:102EC00001960E94F10DCE0101960E942E0DCE01B9
:102ED00007960E942E0DD5CE6170A3CF89E295E0B2
:102EE0000E942E0D8FE295E00E942E0D85E395E065
:102EF0000E942E0D8BE395E00E942E0D81E495E05B
:102F00000C942E0D2F923F924F925F926F927F9270
:102F10008F929F92AF92BF92CF92DF92EF92FF92E9
:102F20000F931F93CF93DF93CDB7DEB7CA1BDB0B95
:102F30000FB6F894DEBF0FBECDBF09942A8839883A
:102F400048885F846E847D848C849B84AA84B98441
:102F5000C884DF80EE80FD800C811B81AA81B9814D
:102F6000CE0FD11D0FB6F894DEBF0FBECDBFED0161
:102F70000895A1E21A2EAA1BBB1BFD010DC0AA1FBA
:102F8000BB1FEE1FFF1FA217B307E407F50720F0D2
:102F9000A21BB30BE40BF50B661F771F881F991F4D
:102FA0001A9469F760957095809590959B01AC0196
:102FB000BD01CF010895EE0FFF1F0590F491E02DA4
:102FC00009940F931F93CF93DF938230910510F4F0
:102FD00082E090E0E0914905F0914A0530E020E080
:102FE000B0E0A0E0309799F42115310509F44AC00A
:102FF000281B390B24303105D8F58A819B81611556
:10300000710589F1FB0193838283FE0111C0408128
:1030100051810281138148175907E0F04817590779
:1030200099F4109761F012960C93129713961C93D3
:103030003296CF01DF91CF911F910F9108950093A8
:10304000490510934A05F4CF2115310551F0421777
:10305000530738F0A901DB019A01BD01DF01F80136
:10306000C1CFEF01F9CF90934A0580934905CDCFA9
:10307000FE01E20FF31F81939193225031093983AE
:103080002883D7CF2091470530914805232B41F461
:103090002091150130911601309348052093470582
:1030A00020911301309114012115310541F42DB700
:1030B0003EB74091170150911801241B350BE09148
:1030C0004705F0914805E217F307A0F42E1B3F0BCC
:1030D0002817390778F0AC014E5F5F4F241735078A
:1030E00048F04E0F5F1F509348054093470581936A
:1030F00091939FCFF0E0E0E09CCFCF93DF930097D8
:10310000E9F0FC01329713821282A0914905B09137
:103110004A05ED0130E020E01097A1F420813181D3
:10312000820F931F209147053091480528173907D2
:1031300009F061C0F0934805E0934705DF91CF9116
:103140000895EA01CE17DF07E8F54A815B819E0109
:1031500041155105B1F7E901FB83EA834991599182
:10316000C40FD51FEC17FD0761F480819181029691
:10317000840F951FE90199838883828193819B83C2
:103180008A83F0E0E0E012968D919C91139700976E
:10319000B9F52D913C911197CD010296820F931FA5
:1031A00020914705309148052817390739F630979F
:1031B00051F510924A0510924905B0934805A09325
:1031C0004705BCCFD383C28340815181840F951FB3
:1031D000C817D90761F44E5F5F4F88819981480F06
:1031E000591F518340838A819B8193838283211558
:1031F000310509F0B0CFF0934A05E09349059ECF21
:10320000FD01DC01C0CF13821282D7CFB0E0A0E075
:10321000ECE0F9E10C9484178C01009751F4CB0198
:103220000E94E1178C01C801CDB7DEB7E0E10C9434
:10323000A017FC01E60FF71F9C0122503109E2178D
:10324000F30708F49DC0D901CD91DC911197C61701
:10325000D70798F0C530D10530F3CE010497861713
:10326000970708F3C61BD70B2297C193D1936D9391
:103270007C93CF010E947D18D6CF5B01AC1ABD0AAA
:103280004C018C0E9D1EA0914905B0914A05512C10
:10329000412CF12CE12C109731F58091470590914C
:1032A00048058815990509F05CC04616570608F0D0
:1032B00058C08091130190911401009741F48DB78B
:1032C0009EB74091170150911801841B950BE81788
:1032D000F90708F055C0F0934805E0934705F90158
:1032E00071836083A0CF8D919C91119712966C9001
:1032F000129713967C901397A815B90559F56C0190
:1033000042E0C40ED11CCA14DB0420F1AC014A19FE
:103310005B09DA011296159780F0628273825183FD
:103320004083D9016D937C93E114F10471F0D701CE
:103330001396FC93EE93129776CF22968C0F9D1FD7
:10334000F90191838083F301EFCFF0934A05E09375
:10335000490569CF4816590608F42C017D01D301AF
:103360009ACFCB010E94E1177C01009749F0AE0192
:10337000B8010E94C319C8010E947D18870153CF6C
:1033800010E000E050CFFB01DC0102C001900D9283
:1033900041505040D8F70895FB01DC0101900D9297
:1033A0000020E1F7089514E0C7E3D4E004C0FE0173
:1033B0000E94DB172196C833D107C9F7F894FFCFD5
:1033C000020004010605033132333435363738390B
:1033D0002A302300004B0580006B006C006D00005C
:1033E0000000008106E1050E06ED063F061D0631D0
:1033F00006000000000D0BE00AD90CBD0ADA05CD6D
:103400000ABE0A00000000D705800CDC0C0000009A
:1034100000FE07E105D90CD80C9B0C0D0A002142D7
:10342000722C002C446F6E652E000A0A0A002020C0
:103430005479706520796F757220636F64652E2EE4
:10344000002152657365740021436F727265637465
:1034500000202020414343455353204752414E54BE
:1034600045442100526964646C6520536F6C766535
:10347000642C20506C656173652072657374617291
:103480007420627261696E21002157726F6E67004D
:10349000202020204143434553532044454E494575
:1034A0004421002020202020202020200046504BB6
:1034B0000053656372657420446F6F720031322E61
:1034C00030342E323032310076657273696F6E207F
:1034D000312E3000427253454300353331340053AE
:1034E00059530021536574757020426567696E00F9
:1034F00057445420656E6461626C65640021736595
:103500007475705F626567696E00466F756E6420E2
:10351000616464726573733A200020283078002952
:1035200000466F756E6420002064657669636528C7
:1035300073292E00206C69676874204F4C45442025
:103540006F6B2E2E2E00696E697469616C697A69E1
:103550006E672072656C617900206F6B003D3D3DA8
:103560003D3D3D3D3D3D3D3D3D3D3D3D3D3D3D3D8B
:1035700053544152543D3D3D3D3D3D3D3D3D3D3D1E
:0C3580003D3D3D3D3D3D3D3D3D3D0000DD
:00000001FF
