:100000000C94B8000C94E0000C94E0000C9499055A
:100010000C9474050C944F050C94E0000C94E000D3
:100020000C94E0000C94E0000C94E0000C94E000D0
:100030000C94E0000C94E0000C94E0000C94E000C0
:100040000C94700D0C94E0000C9479030C94530301
:100050000C94E0000C94E0000C94E0000C94E000A0
:100060000C94BE050C94E0002064657669636528F5
:1000700073292E00466F756E642000202D3E20539C
:100080006572766F2D4932432D426F617264002094
:100090002D3E2052656C617900202D3E204469730D
:1000A000706C617900202D3E20496E7075742D4969
:1000B00032432D626F61726400202D3E204C434418
:1000C0002D4932432D426F61726400202D3E204C39
:1000D00043440029002028307800466F756E642064
:1000E000616464726573733A20005363616E6E6974
:1000F0006E672E2E2E00493243207363616E6E654B
:10010000723A0052657374617274696E6720696E29
:10011000000000000023002600290001020408104E
:100120002040800102040810200102040810200071
:10013000000000250028002B00040404040404042B
:10014000040202020202020303030303030000008D
:1001500000240027002A000000000800020100001F
:10016000030407000000000000000000F315041560
:1001700011241FBECFEFD8E0DEBFCDBF26E0A8ED33
:10018000B3E001C01D92A83FB207E1F713E0A0E081
:10019000B1E0E8E8F2E302C005900D92A83DB10796
:1001A000D9F710E0C7EBD0E004C02197FE010E9410
:1001B0001017C63BD107C9F70E94BA0D0C94371926
:1001C0000C940000CF92DF92EF92FF920F931F9357
:1001D000CF93DF936C017A018B01C0E0D0E0CE15A4
:1001E000DF0581F0D8016D918D01D601ED91FC9173
:1001F0000190F081E02DC6010995892B11F021961F
:10020000EECF7E01C701DF91CF911F910F91FF903B
:10021000EF90DF90CF900895FC01538D448D252FF2
:1002200030E0842F90E0821B930B541710F0CF9690
:10023000089501970895FC01918D828D981761F0C2
:10024000828DDF01A80FB11D5D968C91928D9F5F0D
:100250009F73928F90E008958FEF9FEF0895FC01B8
:10026000918D828D981731F0828DE80FF11D858D6B
:1002700090E008958FEF9FEF0895FC01918D228DFE
:10028000892F90E0805C9F4F821B91098F73992783
:10029000089588E195E00E943D0121E0892B09F451
:1002A00020E0822F0895FC01848DDF01A80FB11D8D
:1002B000A35ABF4F2C91848D90E001968F7399279C
:1002C000848FA689B7892C93A089B1898C9183707A
:1002D00080648C93938D848D981306C00288F38973
:1002E000E02D80818F7D80830895EF92FF920F93A0
:1002F0001F93CF93DF93EC0181E0888F9B8D8C8DD2
:10030000981305C0E889F989808185FD26C0F62EFD
:100310000B8D10E00F5F1F4F0F731127E02E8C8D98
:10032000E8120CC00FB607FCFACFE889F989808182
:1003300085FFF5CFCE010E945301F1CF8B8DFE01D9
:10034000E80FF11DE35AFF4FF0829FB7F8940B8F2F
:10035000EA89FB89808180620AC09FB7F894EE89A0
:10036000FF896083E889F989808183708064808354
:100370009FBF81E090E0DF91CF911F910F91FF909F
:10038000EF900895CF93DF93EC01888D8823C9F017
:10039000EA89FB89808185FD05C0A889B9898C918E
:1003A00086FD0FC00FB607FCF5CF808185FFF2CF29
:1003B000A889B9898C9185FFEDCFCE010E945301A8
:1003C000E7CFDF91CF91089580E090E0892B29F06D
:1003D0000E94490181110C940000089590E0FC01F5
:1003E000EE0FFF1FEB5EFE4FA591B4912C91FC0127
:1003F000EC59FB4F30812083880F991FFC01E35C8F
:10040000FE4F0190F081E02D8081089585ED80936D
:10041000BC008091BC0084FDFCCF109217050895AC
:1004200040911104262F30E0240F311D2132310577
:10043000DCF4209117052430C9F4FC0180E090E041
:10044000861758F4309111042191DC01AF50BC4F54
:10045000A30FB11D2C930196F3CF80911104680F67
:100460006093110480E0089581E0089582E008958A
:10047000089508950895E0916C0480916B04E81745
:1004800030F4F0E0EF52FB4F808190E008958FEF61
:100490009FEF089590916C0480916B04981750F42D
:1004A000E92FF0E0EF52FB4F208130E09F5F909307
:1004B0006C0402C02FEF3FEFC901089580916B04D7
:1004C00090E020916C04821B91090895CF92DF92F5
:1004D000EF92FF920F931F93CF93DF937C01CB0199
:1004E0008A012091AD04222389F0EB016B01C40E37
:1004F000D51ECC15DD0569F06991D701ED91FC9110
:100500000190F081E02DC7010995F3CF642F0E947F
:100510001002C801DF91CF911F910F91FF90EF90D2
:10052000DF90CF900895CF93DF931F92CDB7DEB7C2
:1005300069832091AD042223D1F02091D004203290
:1005400040F021E030E0FC013383228380E090E042
:1005500015C08091AE04E82FF0E0E155FB4F998182
:1005600090838F5F8093AE048093D00405C061E0D8
:10057000CE0101960E94100281E090E00F90DF9181
:10058000CF910895089580E090E008950E94FD18AD
:10059000FC0124813581232B31F421E061157105A3
:1005A000A1F0FB0108C0FC018081918161157105FA
:1005B00031F421E0FC018081882339F005C00E94DC
:1005C000181921E0892B09F020E0822F08950F935C
:1005D0001F93CF93DF93EC0188819981009729F0D5
:1005E0002A813B812617370788F48B016F5F7F4F85
:1005F0000E943718009761F0998388831B830A83D0
:100600002C813D81232B11F4FC01108281E001C07B
:1006100080E0DF91CF911F910F910895FC018081BF
:1006200091810C94AE17EF92FF920F931F93CF938B
:10063000DF93EC01198218821B821A821D821C82B0
:100640006115710549F18B01FB0101900020E9F76B
:1006500031977F01E61AF70AB7010E94E702288165
:10066000398181110DC02115310519F0C9010E9490
:10067000AE17198218821D821C821B821A820CC03E
:10068000FD82EC82B801C901DF91CF911F910F91DA
:10069000FF90EF900C942119DF91CF911F910F9152
:1006A000FF90EF9008951F920F920FB60F921124B2
:1006B0002F933F934F935F936F937F938F939F936A
:1006C000AF93BF93EF93FF9388E195E00E945301AE
:1006D000FF91EF91BF91AF919F918F917F916F911A
:1006E0005F914F913F912F910F900FBE0F901F90F0
:1006F00018951F920F920FB60F9211242F938F937C
:100700009F93EF93FF93E0912805F0912905808155
:10071000E0912E05F0912F0582FD12C0908180910D
:1007200031058F5F8F7320913205821751F0E09170
:100730003105F0E0E85EFA4F958F8093310501C0F6
:100740008081FF91EF919F918F912F910F900FBE1C
:100750000F901F901895CF92DF92EF92FF920F9318
:100760001F93CF93DF931F92CDB7DEB76B01142F8A
:10077000FC0181899289E42EF12C009751F023E04D
:1007800029839701AB01BE016F5F7F4F0E94DE0896
:100790002AC062E070E080E090E00E94020D62E01A
:1007A000610F613208F060E284E20E94400810921A
:1007B0006C0480936B0485EB95E00E944A028601ED
:1007C000EC0CFD1C0E151F0571F061E070E080E07F
:1007D00090E00E94020D85EB95E00E944A02F8012C
:1007E00081938F01EFCF0F90DF91CF911F910F91E8
:1007F000FF90EF90DF90CF9008958F929F92AF92ED
:10080000BF92CF92DF92EF92FF920F931F93CF93FD
:10081000DF9300D0CDB7DEB77C016B0100E010E0C4
:10082000AA24A39492E0992EF701818992890097D6
:1008300091F09A8221E030E0AE014F5F5F4FBE0140
:100840006E5F7F4F0E94DE0881E09981913009F44C
:1008500035C080E024C0F701208130E0F901E95A79
:10086000FE4F8491F901E55EFE4FB490F901E75C1B
:10087000FE4F8490882079F081110E94490CE82D68
:10088000F0E0EE0FFF1FEF5EFE4FA591B491EC91EB
:10089000BE2281E009F480E08A25817079F4C114D8
:1008A000D10429F0065F1F4FC016D10638F06AE068
:1008B00070E080E090E00E94020DB6CF0F900F90A4
:1008C000DF91CF911F910F91FF90EF90DF90CF902C
:1008D000BF90AF909F908F900895682F85EB95E023
:1008E0000C949302CF92DF92EF92FF920F931F939B
:1008F000CF93DF93CDB7DEB729970FB6F894DEBF5D
:100900000FBECDBF8C01DC0118968D919C9119977B
:10091000892B09F4A3C00E94DD0CF801C684D7849A
:10092000E088F188DC01CB018C199D09AE09BF0973
:100930008C329140A105B10570F3F894D80114965A
:100940008D919C9115979A8389831896ED91FC91CE
:1009500019977F01BFEFEB1AFB0A80818987F801A5
:1009600090810288F389E02DD80154968C919923C7
:1009700009F430C09081982B9887908180958923C5
:100980008F838F818C8388E08B8358856F81498525
:100990003B812C8189819A81D701508347FD252F86
:1009A0003A952083262F39F0441F00C00000608351
:1009B000000000C0F2CF38E04D9160830000019745
:1009C00061F7D8015396FC93EE93529749873B8386
:1009D0002C833AC09081982B9887908180958923A9
:1009E0008F838F818E8388E08D8358856F814985C1
:1009F0003D812E8189819A81D701508347FD252F22
:100A000000C000C0208300C000C000C000C000C003
:100A100060830000262F3A9541F0441F000000C07B
:100A200000C000C000C000C0E8CF38E04D9100C059
:100A3000608300C0019709F7D8015396FC93EE93A9
:100A4000529749873D832E839A83898378940E94A5
:100A5000DD0CF80166877787808B918B29960FB61E
:100A6000F894DEBF0FBECDBFDF91CF911F910F91E4
:100A7000FF90EF90DF90CF900895CF93DF93EC013C
:100A80008E8187FD07C061E00E94A10C60E08E812D
:100A90000E94720C81E08983DF91CF9108951F92AB
:100AA0000F920FB60F9211242F933F934F935F93A2
:100AB0006F937F938F939F93AF93BF93EF93FF9326
:100AC00082E00E94EE01FF91EF91BF91AF919F9163
:100AD0008F917F916F915F914F913F912F910F90E7
:100AE0000FBE0F901F9018951F920F920FB60F9286
:100AF00011242F933F934F935F936F937F938F9323
:100B00009F93AF93BF93EF93FF9381E00E94EE0119
:100B1000FF91EF91BF91AF919F918F917F916F91D5
:100B20005F914F913F912F910F900FBE0F901F90AB
:100B300018951F920F920FB60F9211242F933F9387
:100B40004F935F936F937F938F939F93AF93BF93D5
:100B5000EF93FF9380E00E94EE01FF91EF91BF9130
:100B6000AF919F918F917F916F915F914F913F9145
:100B70002F910F900FBE0F901F9018951F920F92FC
:100B80000FB60F9211242F933F934F935F936F9360
:100B90007F938F939F93AF93BF93EF93FF93809136
:100BA000B900887F803609F49CC068F5883209F462
:100BB0005BC090F4803109F454C038F4882309F400
:100BC000F6C0883009F44DC0F6C0883109F44CC035
:100BD000803209F45DC0EFC0803409F468C048F485
:100BE000803309F455C0883309F0E5C080931505BA
:100BF000D8C0803509F44FC0883509F45DC0883409
:100C000009F0D9C0D6C0883909F4C7C0A8F488371C
:100C100009F467C038F4883609F463C0803709F4F2
:100C200060C0C9C0883809F4B8C0803909F45FC011
:100C3000803809F0C0C05BC0803B09F486C038F43E
:100C4000803A09F466C0883A09F47FC0B4C0803C99
:100C500009F4A7C0883C09F4A4C0883B09F48AC001
:100C6000AAC08091120510C09091140580911305BF
:100C7000981770F5E091140581E08E0F80931405AC
:100C8000F0E0EF50FB4F80818093BB0085EC86C085
:100C9000809315058EC0E091140581E08E0F80933E
:100CA00014058091BB00F0E0EF50FB4F80839091E2
:100CB0001405809113056EC0E091140581E08E0F3C
:100CC000809314058091BB00F0E0EF50FB4F8083D0
:100CD0008091160581116DC081E08093110584EA31
:100CE00061C083E08093170510923304CFCF8091C9
:100CF0003304803208F051C0E091330481E08E0F5C
:100D0000809333048091BB00F0E0ED5EFB4F808365
:100D1000BDCF85EC8093BC00109217058091330401
:100D2000803230F4E0913304F0E0ED5EFB4F10824E
:100D30006091330470E0E0916704F091680483E10E
:100D400094E009951092330436C084E0809317052F
:100D50001092120410921104E0916904F0916A0457
:100D6000099580911104811105C081E080931104DF
:100D70001092F103E091120481E08E0F809312042F
:100D8000F0E0EF50FC4F80818093BB009091120403
:100D900080911104981708F479CF85E88093BC00FE
:100DA0000AC085EC8093BC001092170504C0109215
:100DB00015050E940602FF91EF91BF91AF919F919F
:100DC0008F917F916F915F914F913F912F910F90F4
:100DD0000FBE0F901F901895EF92FF921F93CF9325
:100DE000DF9300D000D000D0CDB7DEB788EDE82E7D
:100DF00083E0F82EF70121E080E090E041915191ED
:100E0000840F951F452B09F420E033E0EE3DF307F6
:100E1000A9F710E00697A1F468E873E0CE01019607
:100E20000E941303BE016F5F7F4F812F0E94CC078A
:100E3000CE0101960E940E031F5F133069F732C086
:100E400021111DC0F701819191917F01892B19F426
:100E50006EE873E002C064E973E0CE0101960E947F
:100E60001303BE016F5F7F4F812F0E94CC07CE011D
:100E700001960E940E031F5F133021F713C06AE929
:100E800073E0CE0101960E941303BE016F5F7F4F96
:100E9000812F0E94CC07CE0101960E940E031F5F96
:100EA000133069F726960FB6F894DEBF0FBECDBF9C
:100EB000DF91CF911F91FF90EF900895009769F017
:100EC000FC0101900020E9F73197AF01481B590B55
:100ED000BC0188E195E00C94E20080E090E0089588
:100EE000BF92CF92DF92EF92FF920F931F93CF9317
:100EF000DF93FC0182819381892B09F443C06B014C
:100F0000EE24FF24BC2C052F162F272F3327B02FBC
:100F1000A42F8781882361F0C89E60011124BD2C15
:100F2000809F80011124B12F849F90011124A32F51
:100F30009585D285208531859D17A1F0472F5527AE
:100F4000662777278901090F111D882349F090E052
:100F5000849F7001859FF00C949FF00C11244F2DFD
:100F6000E80148838285A901480F511DEA01B88232
:100F70008385E901C80FD11DB8838485F901E80F85
:100F8000F11DA083DF91CF911F910F91FF90EF9002
:100F9000DF90CF90BF9008950F931F93CF93C82FEA
:100FA0008B016AE973E0C8010E94C802811119C06F
:100FB00068E873E0C8010E94C802811117C064E9A3
:100FC00073E0C8010E94C802811115C067E971E091
:100FD000C8010E94C802811113C040E050E0BA016C
:100FE00013C040E050E06FEF70E00EC040E05FEFF4
:100FF00060E070E009C04FEF5FEF6FEF70E004C09A
:1010000040E056E46FEF70E0C11107C087EB96E057
:101010000E94700787EB96E01AC0C13039F482EA6B
:1010200096E00E94700782EA96E011C0C23039F45F
:101030008DE896E00E9470078DE896E008C0C33006
:1010400059F488E796E00E94700788E796E0CF9110
:101050001F910F910C947204CF911F910F910895DD
:101060008EEC93E00C945E07CF93DF930E945E07B3
:10107000EC010E9430088C0F9D1FDF91CF910895E5
:10108000909117059111FCCF91E0909317059093E3
:1010900016052FEF2093150510921405260F2093A7
:1010A00013059093120590911205880F892B809358
:1010B000120580911105813061F410921105809123
:1010C00012058093BB008091BC0083FDF8CF85ECB6
:1010D00001C085EE8093BC00809117058130E1F35B
:1010E00080911405861710F460911405A1EFB4E007
:1010F000E1EDF4E080E0861721F09D9191938F5F00
:10110000FACF0895282F3091D004313208F04AC028
:10111000809117058111FCCF9091CF0442E040935C
:101120001705209316052FEF20931505109214052F
:1011300030931305EFEAF4E0A1EFB4E020E03217BA
:1011400021F041914D932F5FFACF1092120520911B
:101150001205990F922B90931205909111059130E1
:1011600061F410921105909112059093BB0090913B
:10117000BC0093FDF8CF95EC01C095EE9093BC00B8
:10118000909117059230E1F3909115059F3F79F00A
:1011900080911505803241F080911505803331F042
:1011A00084E005C081E003C082E001C083E01092CA
:1011B000AE041092D0041092AD040895CF92DF9245
:1011C000EF92FF920F931F93CF93DF93EC018B016C
:1011D0006A01790188819981892B31F0EA81FB814B
:1011E000808191810E94460C60E08B850E94720C88
:1011F000F8016081CE010E948F0B8601EC0CFD1C72
:10120000E016F10641F06FEFCE010E948F0BF8015E
:1012100081938F01F5CF61E08B850E94720C81E094
:10122000DF91CF911F910F91FF90EF90DF90CF90C2
:1012300008952F923F924F925F926F927F928F927A
:101240009F92AF92BF92CF92DF92EF92FF920F9355
:101250001F93CF93DF93CDB7DEB727970FB6F894E0
:10126000DEBF0FBECDBF7C014A012DB63EB6DC010C
:101270005196CD90DC90529766246394660EC1140B
:10128000D10409F472C04DB65EB670E0685F7F4F5E
:10129000EDB7FEB7E61BF70B0FB6F894FEBF0FBE17
:1012A000EDBF0DB71EB70F5F1F4F81E08183D801DF
:1012B00011961C92119712961C9212978FEF13960B
:1012C0008C93139714966C921497862D819515968E
:1012D0008C93159784ED16968C934DB75EB7485F47
:1012E0005F4FFA0163ED712C9301215031098E2F6C
:1012F000841B90E0821793073CF4DC01A359BB4F99
:101300008C918193680FF3CF609560831182B8E070
:101310006B0E711CF60180819181892B39F002805E
:10132000F381E02D808191810E94460C60E0D6011E
:101330001B968C910E94720C5801F50161915F011E
:10134000C6010E948F0BC501801B910B8615970566
:10135000A0F361E0D6011B968C910E94720C0FB62F
:10136000F8945EBE0FBE4DBE44C062E070E080E007
:1013700090E00E94020D81E08093AD0484E28093AE
:10138000CF041092AE041092D00480E00E946D044D
:1013900080E00E946D048FEF0E946D04862D0E94F4
:1013A0006D04862D81950E946D0484ED0E946D046C
:1013B000C12C83EDD82E712CB1E06B1A71080C2D65
:1013C00010E0061517055CF403591B4FF8018081E6
:1013D0000E946D04D8018C91D80EC394F0CF8D2D4E
:1013E00080950E946D0480E00E946D0481E00E945F
:1013F0008208B401C7010E94FD03182F811102C0A9
:1014000010E02FC0F70181899289009769F023E0ED
:101410002F8326E030E0AE014F5F5F4FBE01695F72
:101420007F4F0E94DE0807C046E0BE016F5F7F4F1E
:10143000C7010E94AB0346E050E069E171E0CE01D4
:1014400001960E940219892BD9F6D70151968D91E8
:101450009C915297892B29F0B401C7010E94FD038A
:10146000182F812F0FB6F8943EBE0FBE2DBE2796C3
:101470000FB6F894DEBF0FBECDBFDF91CF911F91A5
:101480000F91FF90EF90DF90CF90BF90AF909F9023
:101490008F907F906F905F904F903F902F90089526
:1014A0008F929F92AF92BF920F931F93CF93DF9330
:1014B000CDB7DEB7A1970FB6F894DEBF0FBECDBF94
:1014C00019A2423008F44AE08E010F5D1F4F842EAE
:1014D000912CA12CB12CA50194010E94EE16E62FAF
:1014E000B901CA0101501109EA3014F4E05D01C0EC
:1014F000E95CD801EC93232B242B252B61F7C80141
:101500000E945E07A1960FB6F894DEBF0FBECDBF56
:10151000DF91CF911F910F91BF90AF909F908F90CF
:1015200008950C945E07CF92DF92EF92FF92CF93D3
:10153000DF9397FF1BC06B017C016DE288E195E0B2
:101540000E947501EC0166277727CB016C197D0994
:101550008E099F094AE00E94500A8C0F9D1FDF915F
:10156000CF91FF90EF90DF90CF9008954AE0DF9108
:10157000CF91FF90EF90DF90CF900C94500AE1EC68
:10158000F5E0918162818081238131E03093AD0467
:101590002093CF041092AE041092D004609569237A
:1015A000682B85EB95E00E94930281E00C94820801
:1015B00010926C0410926B041092AE041092D0043E
:1015C0001092170581E0809316051092110561E0D5
:1015D00082E10E94720C61E083E10E94720CE9EBEF
:1015E000F0E080818E7F808380818D7F808388E49E
:1015F0008093B80085E48093BC0088E392E09093E8
:101600006A048093690489E392E09093680480936C
:10161000670408950F931F93CF93DF938C01C0E06D
:10162000D0E0F801EC0FFD1F6491662341F088E1E2
:1016300095E00E947501892B11F02196F2CFCE0121
:10164000DF91CF911F910F9108958230910538F06D
:10165000880F991F880F991F05970197F1F7089533
:10166000CF93DF930E940A0BEC010E9430088C0F8D
:101670009D1FDF91CF910895FC01448155816081C8
:10168000718188E195E00C94E200EF92FF920F9354
:101690001F93CF93DF93EC01198218821B821A8269
:1016A0001D821C8286E0CC3CD80761F10091CC06FB
:1016B0001091CD060115110529F1E090D006F090AA
:1016C000D106B701CE010E94E7022881398181113C
:1016D0000DC02115310519F0C9010E94AE171982FC
:1016E00018821D821C821B821A820CC0FD82EC8231
:1016F000B801C901DF91CF911F910F91FF90EF9039
:101700000C942119DF91CF911F910F91FF90EF90D1
:1017100008958FB7F8948091F3068FBF0895AF9224
:10172000BF92CF92DF92EF92FF920F931F93CF93CE
:10173000DF93EC0188819981892B31F06EBD0DB466
:1017400007FEFDCFAEB496C088859985892B11F030
:1017500010E801C011E0BB24B394862F812309F067
:10176000B12C062F2C813D814E815F8160E271EAB0
:1017700087E090E00E94EE16F22EA02EE12CC22E01
:10178000D12CFF2019F0C6010E94250B8A85877F86
:10179000B9F58D858F3FB9F0902F912381E009F441
:1017A00080E0B81681F0EF85F8898F89992331F0B0
:1017B0009081892B8083BB24B39405C09081809550
:1017C00089238083B12CE989FA899081898D892BBD
:1017D0008083FF2019F0C6010E94250B8E858F3F64
:1017E00039F0EB89FC899081888D892309F0E12A01
:1017F000E989FA899081898D8095892380832CC01D
:10180000E989FA899081898D892B8083FF2019F0DD
:10181000C6010E94250B8D858F3F69F0EF85F88901
:101820008F89902F912319F09081892B03C090818B
:10183000809589238083E989FA899081898D8095B3
:10184000892380838E858F3F39F0EB89FC899081D5
:10185000888D892309F0E12A8E858F3F09F0AE2C0F
:1018600088859985892B21F4110F11118ACF02C027
:101870001695FBCF8A2DDF91CF911F910F91FF908D
:10188000EF90DF90CF90BF90AF9008958CBD9DBD3D
:101890000895833081F028F4813099F08230A1F0EE
:1018A00008958730A9F08830B9F08430D1F4809160
:1018B00080008F7D03C0809180008F7780938000AF
:1018C000089584B58F7702C084B58F7D84BD089557
:1018D0008091B0008F7703C08091B0008F7D80939E
:1018E000B00008951F93CF93DF93282F30E0F901C4
:1018F000E95AFE4F8491F901E55EFE4FD491F9015A
:10190000E75CFE4FC491CC23C1F0162F81110E94D9
:10191000490CEC2FF0E0EE0FFF1FE15DFE4FA591AB
:10192000B4919FB7F894111104C08C91D095D8232D
:1019300002C0EC91DE2BDC939FBFDF91CF911F9112
:101940000895CF93DF9390E0FC01E55EFE4F249174
:10195000FC01E75CFE4F8491882361F190E0880FE1
:10196000991FFC01E35BFE4FC591D491FC01E15D41
:10197000FE4FA591B491611109C09FB7F894888179
:10198000209582238883EC912E230BC0623061F472
:101990009FB7F8948881322F309583238883EC9108
:1019A0002E2B2C939FBF06C08FB7F894E8812E2B67
:1019B00028838FBFDF91CF9108953FB7F89480912E
:1019C000EF069091F006A091F106B091F20626B5CF
:1019D000A89B05C02F3F19F00196A11DB11D3FBF67
:1019E000BA2FA92F982F8827820F911DA11DB11DF5
:1019F000BC01CD0142E0660F771F881F991F4A95F1
:101A0000D1F708958F929F92AF92BF92CF92DF92BB
:101A1000EF92FF926B017C010E94DD0C4B015C0197
:101A2000C114D104E104F104F1F00E94DD0CDC01E9
:101A3000CB0188199909AA09BB09883E9340A105E1
:101A4000B10570F321E0C21AD108E108F10888EE6F
:101A5000880E83E0981EA11CB11CC114D104E104BE
:101A6000F10419F7DDCFFF90EF90DF90CF90BF909A
:101A7000AF909F908F9008950F931F93CF93DF9314
:101A8000EC018B0161E08EE00E94720C0E94300834
:101A90008AE492E00E94910A82ED96E00E943C0B5B
:101AA0008AE093E00E94910AC8010E943C0B8AE000
:101AB00093E00E94910ACE010E943C0B81ED93E0DD
:101AC0000E94340862E370E080E090E00E94020D22
:101AD00060E08EE0DF91CF911F910F910C94720C1A
:101AE0001F920F920FB60F9211242F933F938F9353
:101AF0009F93AF93BF938091EA069091EB06A091DC
:101B0000EC06B091ED063091EE0623E0230F2D3761
:101B100020F40196A11DB11D05C026E8230F0296F1
:101B2000A11DB11D2093EE068093EA069093EB066B
:101B3000A093EC06B093ED068091EF069091F0062D
:101B4000A091F106B091F2060196A11DB11D8093FE
:101B5000EF069093F006A093F106B093F206BF91C2
:101B6000AF919F918F913F912F910F900FBE0F904A
:101B70001F901895CF93DF93CDB7DEB7E1970FB6DF
:101B8000F894DEBF0FBECDBF789484B5826084BD6B
:101B900084B5816084BD85B5826085BD85B5816071
:101BA00085BD80916E00816080936E0010928100EF
:101BB00080918100826080938100809181008160AA
:101BC000809381008091800081608093800080916B
:101BD000B10084608093B1008091B00081608093F7
:101BE000B00080917A00846080937A0080917A00BE
:101BF000826080937A0080917A00816080937A007D
:101C000080917A00806880937A001092C1000E94CF
:101C1000D80AE0912805F091290582E08083E091BF
:101C20002405F09125051082E0912605F091270505
:101C300080E1808310923005E0912C05F0912D0514
:101C400086E08083E0912A05F0912B0580818061F8
:101C50008083E0912A05F0912B0580818860808344
:101C6000E0912A05F0912B05808180688083E091C6
:101C70002A05F0912B0580818F7D808360ED77E0D0
:101C800080E090E00E94020D61E08EE00E94A10CD5
:101C900088E691E00E94340860E771E0CE01019689
:101CA0003C010E9413031E0191E1290E311C64E7DF
:101CB00071E0C1010E941303B301C1010E943C0DF8
:101CC000C1010E940E03C3010E940E0380E891E04F
:101CD0000E94340899E288E10FB6F894A8958093A1
:101CE00060000FBE909360000E9430088DE891E084
:101CF0000E94340810E01230E1F0133031F111305D
:101D000061F087EB96E00E943D0567E971E0C30151
:101D10000E941303B30180E023C082EA96E00E9490
:101D20003D0567E971E0C3010E941303B30181E03F
:101D300017C08DE896E00E943D0567E971E0C30198
:101D40000E941303B30182E00BC088E796E00E9473
:101D50003D0567E971E0C3010E941303B30183E00D
:101D60000E94CC07C3010E940E0364E670E080E08D
:101D700090E00E94020D1F5F143009F0BCCF64E6B2
:101D800070E080E090E00E94020D10E040E050E042
:101D9000BA01111107C087EB96E00E94700787EB2C
:101DA00096E018C0113039F482EA96E00E9470077C
:101DB00082EA96E00FC0123039F48DE896E00E9476
:101DC00070078DE896E006C088E796E00E947007ED
:101DD00088E796E00E9472041F5F1430B9F68CE920
:101DE00091E00E943408A8950E94300885EA91E0AD
:101DF0000E94340886EF90E00E94300B8AEE90E05B
:101E00000E94300BB8E0CB2ED12CE12CF12C00E05D
:101E1000BB24B3941C2DB092AD04C092CF04109299
:101E2000AE041092D00481E00E94820881113EC06D
:101E30008AED90E00E940A0B4AE0C701B6010E94B9
:101E4000500A85ED90E00E940A0B40E1C701B601FF
:101E50000E94500A83ED90E00E940A0B173219F499
:101E60008BEC90E018C0183319F489EB90E013C0A4
:101E7000193319F485EA90E00EC01C3319F489E98E
:101E800090E009C01F3319F48FE890E004C01631C8
:101E900021F48BE790E00E940A0B0E9430080F5F4C
:101EA00061E070E080E090E00E94020DEFEFCE1A5A
:101EB000DE0AEE0AFE0AF8E7CF16D104E104F104C7
:101EC00009F0A8CF84E790E00E940A0B602F70E031
:101ED00080E090E04AE00E94500A88E690E00E948C
:101EE000300B8FEA91E00E9434080E94300888ECA1
:101EF00091E00E943408A8950E94300881ED91E09D
:101F00000E94340800EE15E0812C912C5401F3015D
:101F100027E011922A95E9F7A8958CED91E00E94AF
:101F2000910AC501B4010E94930A0E943008F80189
:101F3000E188F288E114F10409F474C061E0F7016A
:101F400083850E94A10C61E0F70183850E94720CD9
:101F5000F70180819181892B09F434C0DFB6F894B0
:101F60008091DE03811127C0E3E4F1E08491E5E292
:101F7000F1E09491E82FF0E0EE0FFF1FE35BFE4FDE
:101F8000A591B4918C91982321F461E08AE00E949C
:101F9000720C61E08AE00E94A10C8CB580618CBD5E
:101FA0008CB580648CBD61E08DE00E94A10C61E085
:101FB0008BE00E94A10C8091DE038F5F8093DE0393
:101FC000DFBE23C061E0F70184850E94A10CF70108
:101FD00082858B7F11F460E002C061E0F7018485A7
:101FE0000E94720CF70185858F3F41F061E00E94ED
:101FF000A10C61E0F70185850E94720CF7018685CE
:102000008F3F19F060E00E94A10C81E0F701838FFF
:10201000F2E0F0936D0444E650E061E0C8010E94F4
:1020200019091DC00E94D80A61E0F80181810E944F
:10203000720C60E0F80181810E94720C60E971E02D
:1020400080E090E00E94020D61E0F80181810E9431
:10205000720C6AE070E080E090E00E94020DF2E312
:10206000F0936D0425E020936E048FEF80936F044E
:1020700081E0809370042093710444E650E065E0B1
:10208000C8010E941909412C512C92E090936D04D3
:1020900044E650E061E0C8010E941909882309F470
:1020A00040C44CE06DE674E0C8010E94AB0346E01A
:1020B00050E060E071E08DE694E00E940219892B07
:1020C00009F02FC4C0907404D0907504DC24CD2492
:1020D000DC24E12CF12CFE2CED2CDC2CCC2480918A
:1020E0007604C82AFE2CED2CDC2CCC2480917704BD
:1020F000C82AC114D104E104F10409F412C486E130
:1021000092E00E94910A6F2D77278827992740E156
:102110000E94500A0E94300885E292E00E94910AD3
:102120006E2D70E080E090E04AE00E94500A6EE27E
:1021300088E195E00E9475016D2D70E080E090E0EF
:102140004AE00E94500A0E943008F4E1F0936D04C6
:1021500081E080936E04F0936F048093700444E6F2
:1021600050E064E0C8010E941909882331F048E07A
:102170006DE674E0C8010E94AB0361E070E080E0AE
:1021800090E00E94020D2AE420936D0481E0809388
:102190006E0410926F0440E050E063E0C8010E94BA
:1021A0001909F82E882321F1F80181899289892B58
:1021B00081F044E16DE674E0C8010E94AB038091B8
:1021C00074048130A9F490917904AAE7B4E0F30192
:1021D00008C060E070E0C8010E94FD038111E9CFF2
:1021E00007C08E2F8619891720F48D918193F9CF1E
:1021F000F12CFFEF8F1A9F0AAF0ABF0A0D5E1F4F27
:1022000023E082169104A104B10409F080CEFF20DE
:1022100019F084E392E002C08EE392E00E94340859
:10222000A8950E9430088CE492E00E94340888E56A
:1022300092E00E9434088FE38093C4050E94D80A7C
:102240008091C2058093C50561E08091C4050E941C
:10225000400810926C0480936B04811101C0FFCF81
:1022600085EB95E00E944A028093C2052DE2C22EC2
:1022700021E0D22E35E2A32E31E0B32E88248394C0
:10228000912CF601E190F1906F018091C3058401DA
:102290000E2C01C0000F0A94EAF7802B8093C3052F
:1022A0008091C105402E409484218093C1050E94F5
:1022B000BF0AF50151905F018091C105552021F0C1
:1022C000082B0093C10503C084218093C1050E949F
:1022D000BF0A8BE692E00E94910A81E792E00E9499
:1022E000910AB701FF0C880B990B0E94930A89E7AA
:1022F00092E00E94910A652D70E080E090E04AE053
:102300000E94500A0E943008FDE3CF16F1E0DF067C
:1023100009F0B7CF0E94300883E892E00E943408A9
:1023200082EA92E00E943408A8952FB7F894809131
:10233000EA069091EB06A091EC06B091ED062FBF56
:102340008093DF039093E003A093E103B093E20353
:1023500060E771E0C3010E9413036DEA72E0C101FE
:102360000E941303B301C1010E943C0DC1010E94F0
:102370000E03C3010E940E03CE0184969BA78AA779
:102380002E0191E1490E511C2FB7F8948091EA0675
:102390009091EB06A091EC06B091ED062FBF409115
:1023A000DF035091E0036091E1037091E203841B2D
:1023B000950BA60BB70B88389341A105B10538F1F1
:1023C0002FB7F8948091EA069091EB06A091EC0665
:1023D000B091ED062FBF8093DF039093E003A093AD
:1023E000E103B093E20360E771E0C1010E941303CF
:1023F0006CEB72E0C3010E941303B101C3010E94A0
:102400003C0DC3010E940E03C1010E940E03809186
:10241000F00381117BC2A89587E0F10111928A95A2
:10242000E9F786E0EAA5FBA511928A95E9F788ED20
:1024300093E099AB88ABFE01B4966F0183EE93E015
:102440009FA78EA74C01E8EDF3E0FDA7ECA700EEF7
:1024500015E0E12CF12CBB24B394A895FAE4F09399
:102460006D04B0926E0410926F0440E050E063E09F
:10247000C8010E941909882309F4D3C0F801818991
:102480009289892B89F044E16DE674E0C8010E94CD
:10249000AB0380917404813009F0C3C0809179044A
:1024A000AAE7B4E0F20108C060E070E0C8010E9451
:1024B000FD038111E8CFB5C09E2F9419981708F03D
:1024C00064C29D919193F8CF96E0E6E0F1E0D801E7
:1024D0001A9601900D929A95E1F794E0F201D801D5
:1024E000129601900D929A95E1F7F8018187F0E438
:1024F000F0936D04B0926E0420E620936F04B092C6
:10250000700486E0F8013A96A1E7B4E001900D92DC
:102510008A95E1F7F8018281809377048381809323
:102520007804848180937904858180937A0444E6D9
:1025300050E06EE0C8010E941909882309F42BC2FB
:102540004CE06DE674E0C8010E94AB03AA24A3949A
:102550008091740481111FC261E070E080E090E01E
:102560000E94020DAA2009F41CC2F0E4F0936D044D
:10257000B0926E0420E320936F04B092700444E69E
:1025800050E064E0C8010E941909882309F405C2DB
:102590004AE16DE674E0C8010E94AB0380917404C7
:1025A0008111FBC180E1E5E7F4E0DE0111960190C5
:1025B0000D928A95E1F781E090E0F60191838083A6
:1025C0001B8243E050E0BE016F5F7F4FC4010E9459
:1025D00028192A8130E040910D01042E000C550B82
:1025E00081E04217530709F480E081954091100182
:1025F000042E000C550B4217530709F481E040915B
:102600001301042E000C550B4217530709F482E006
:1026100090E0E816F90629F482E090E0F601918353
:102620008083F60180819181ECA5FDA52081318117
:102630002817390709F19183808360E771E0CE01A3
:1026400048960E9413036CEF72E0CE014E960E94F2
:102650001303BE01685E7F4FCE014E960E943C0D73
:10266000CE014E960E940E03CE0148960E940E03A4
:102670001092EF03B0921801FFEFEF1AFF0A0D5E00
:102680001F4F8CA59DA502969DA78CA792E0C90E11
:10269000D11CE3E08E0E911CF3E0EF16F10409F07B
:1026A000DCCE0E94EC06A89580911801882309F4DD
:1026B00088C11092180161E08EE00E94720C65E002
:1026C00070E080E090E00E94020D0E9430088AE4F1
:1026D00092E00E94910A82ED96E00E943C0B8AE013
:1026E00093E00E94910A8CEC96E00E943C0B8AE0F9
:1026F00093E00E94910A812C912C5401839421E053
:102700002CA7E12CF12CE8A9F9A981919191F9ABC1
:10271000E8ABE80EF91E8230910549F486EC91E0B1
:102720000E94910AC501B4010E94930A28C0813019
:102730009105C9F48CE0C82E81E0D82E00E010E0AD
:102740006EA57FA5C6010E9418190F5F1F4F892B28
:1027500009F42CC1F3E0CF0ED11C0330110581F731
:1027600085E893E00AC0892B31F48CE093E00E9465
:10277000910A1CA604C08FE093E00E94910A8FE6A4
:1027800092E00E94910A65E070E080E090E00E9493
:10279000020D2FEF821A920AA20AB20A8EA59FA5F5
:1027A00003969FA78EA794E089169104A104B10413
:1027B00009F0A9CF82E193E00E94340869E170E05A
:1027C00080E090E00E94020D60E08EE00E94720CBA
:1027D000E6E0EE16F10409F07FC0C2010E94450B4D
:1027E0006AE173E0CE0101960E941303B201CE01AB
:1027F00001960E943C0DCE0101960E940E03C2017B
:102800000E940E038091EF038111DBC08AE293E006
:102810000E9434080E94EC068091C1058F7D809350
:10282000C1050E94BF0A8091C10580618093C105E6
:102830000E94BF0A0E94EC0668EE73E080E090E020
:102840000E94020D0E94EC0668EE73E080E090E0CA
:102850000E94020D0E94EC0668EE73E080E090E0BA
:102860000E94020D0E94EC068091C1058062809357
:10287000C1050E94BF0A11E01093EF03A89584E3FD
:1028800093E00E9434081093F0038AE493E00E94DE
:1028900034080FB6F894A895809160008861809301
:1028A0006000109260000FBE60E771E0C2010E94FC
:1028B00013036FE573E0CE0101960E941303B2018A
:1028C000CE0101960E943C0DCE0101960E940E039E
:1028D000C2010E940E0322C0FCA5FF2309F471C0AF
:1028E000C2010E94450B63E273E0CE0101960E9493
:1028F0001303B201CE0101960E943C0DCE01019658
:102900000E940E03C2010E940E035BC00E94EC06EF
:1029100064EF71E080E090E00E94020D0E94E4010B
:1029200033CD8DE693E00E94340826E04216510430
:1029300044F182EF91E00E94340883E091E00E942C
:10294000300B62E370E080E090E00E94020D63E0F3
:10295000C62ED12CE12CF12C4AE0C701B6010E9411
:10296000500A0E94300864E670E080E090E00E9427
:10297000020DE1E0CE1AD108E108F10869F70C94E4
:1029800000008FEF481A580A80CB843009F49CCDA0
:1029900084EC92E008C0A12CDFCD8CED92E00E9487
:1029A000340880ED92E00E94340866CE86EC91E017
:1029B0000E94910AB80180E090E04AE00E94500A2B
:1029C000DECE8091C10580628093C1050E94BF0A5E
:1029D0008091C1058F7E8093C1050E94BF0A9ECF62
:1029E000CF93DF93EC0188859985009711F00E94C1
:1029F000AE178E8187FD05C060E0DF91CF910C940A
:102A0000A10CDF91CF91089588E796E00E94F01421
:102A10008DE896E00E94F01482EA96E00E94F0149D
:102A200087EB96E00E94F0148CEC96E00E940E0377
:102A300082ED96E00E940E0388ED96E00E940E0360
:102A40008EED96E00E940E0384EE96E00C940E0349
:102A5000FF920F931F93CF93DF938C01F62E8FEF8E
:102A6000F801808381838CE190E00E941617EC01CD
:102A7000FB868DE08C878CE08E878BE08D876F2DB9
:102A8000FF0C770BFB01E75CFE4FE491F0E0EE0FEB
:102A9000FF1FE15DFE4F859194919E8B8D8BFB0115
:102AA000E55EFE4FE491EA8FE4E4F1E0E491F0E0CA
:102AB000EE0FFF1FE15DFE4F85919491988B8F87FC
:102AC000E6E2F1E0E491EF8BE5E4F1E0E491F0E09F
:102AD000EE0FFF1FEF5EFE4F859194919C8B8B8BC9
:102AE000E7E2F1E0E491E88FE6E4F1E0E491F0E080
:102AF000EE0FFF1FE15DFE4F859194919A8B898BBC
:102B0000E8E2F1E0E491E98F80E492E4AFE0B0E044
:102B10008C839D83AE83BF83198618861A861B8E8D
:102B200082E090E00E94161721E7FC0120831182C9
:102B30009B838A8319821882F801D28BC18BDF9123
:102B4000CF911F910F91FF9008951F93CF93DF9323
:102B5000EC01162F19821F821E861F86188A198A79
:102B600081E08D878A871B8692E09C87888383E03B
:102B700090E09D838C830E94161799878887009721
:102B800051F023E0FC0111922A95E9F781E090E0F1
:102B90009B838A8304C01D821C821B821A821E832F
:102BA0008981882341F061E0812F0E94A10C60E0BF
:102BB000812F0E94720C812F90E0FC01E75CFE4F98
:102BC000E491F0E0EE0FFF1FE15DFE4F259134919F
:102BD0003B8B2A8BFC01E55EFE4FE491EC8BDF9191
:102BE000CF911F910895E8E1F5E01382128288EEFB
:102BF00093E0A0E0B0E084839583A683B78328E4C4
:102C000031E03183208325EC30E03587248724ECC4
:102C100030E03787268720EC30E0318B208B21ECA9
:102C200030E0338B228B22EC30E0358B248B26EC8A
:102C300030E0378B268B118E128E138E148EE5EBBF
:102C4000F5E01382128284839583A683B7838AE595
:102C500091E0918380836EE973E084EE96E00E94B8
:102C600013036AEA73E08EED96E00E94130365EBAE
:102C700073E088ED96E00E94130363EC73E082ED4D
:102C800096E00E9413036AEC73E08CEC96E00E94DD
:102C9000130369E087EB96E00E94A51566E082EADF
:102CA00096E00E94A51565E08DE896E00E94A515C6
:102CB00063E088E796E00E94A51568E085E696E067
:102CC0000E94281567E082E596E00E94281564E0DE
:102CD0008FE396E00E94281562E08CE296E00E9465
:102CE000281583E1E5E6F6E0A0EEB5E001900D924F
:102CF0008A95E1F783E1E2E5F6E0A3EFB5E0019024
:102D00000D928A95E1F783E1EFE3F6E0A6E0B6E005
:102D100001900D928A95E1F783E1ECE2F6E0A9E1FA
:102D2000B6E001900D928A95E1F7E1ECF5E01082B2
:102D300011821282138214821582168217821086E3
:102D4000118612861386148615861686108A1786B3
:102D5000128A118A148A138A168A158A108E178A83
:102D6000128E118E148E138E168E158E08952F923C
:102D70003F924F925F926F927F928F929F92AF920B
:102D8000BF92CF92DF92EF92FF920F931F93CF9358
:102D9000DF93CDB7DEB7CA1BDB0B0FB6F894DEBFEF
:102DA0000FBECDBF09942A88398848885F846E8415
:102DB0007D848C849B84AA84B984C884DF80EE805F
:102DC000FD800C811B81AA81B981CE0FD11D0FB668
:102DD000F894DEBF0FBECDBFED010895A1E21A2E1B
:102DE000AA1BBB1BFD010DC0AA1FBB1FEE1FFF1FAF
:102DF000A217B307E407F50720F0A21BB30BE40BFF
:102E0000F50B661F771F881F991F1A9469F7609545
:102E10007095809590959B01AC01BD01CF010895FF
:102E2000EE0FFF1F0590F491E02D09940F931F936F
:102E3000CF93DF938230910510F482E090E0E0912F
:102E4000F606F091F70620E030E0A0E0B0E0309721
:102E500019F1408151810281138148175907C8F047
:102E60008417950769F4109731F012960C93129716
:102E700013961C9327C00093F6061093F70622C002
:102E80002115310519F04217530718F49A01BD01B5
:102E9000EF01DF01F801DBCF21153105F9F0281B27
:102EA000390B2430310580F48A819B8161157105CD
:102EB00021F0FB019383828304C09093F7068093F3
:102EC000F606FE01329644C0FE01E20FF31F819325
:102ED000919322503109398328833AC02091F40616
:102EE0003091F506232B41F42091210130912201EC
:102EF0003093F5062093F40620911F0130912001B4
:102F00002115310541F42DB73EB740912301509171
:102F10002401241B350BE091F406F091F506E2172D
:102F2000F307A0F42E1B3F0B2817390778F0AC01EC
:102F30004E5F5F4F2417350748F04E0F5F1F5093C9
:102F4000F5064093F4068193919302C0E0E0F0E02F
:102F5000CF01DF91CF911F910F910895CF93DF9310
:102F6000009709F481C0FC01329713821282A0916C
:102F7000F606B091F706109781F420813181820F17
:102F8000931F2091F4063091F5062817390751F563
:102F9000F093F506E093F40667C0ED0120E030E021
:102FA000CE17DF0740F44A815B819E014115510530
:102FB000F1F0EA01F5CFD383C28340815181840FC0
:102FC000951FC817D90759F488819981840F951FD7
:102FD0000296918380838A819B81938382832115CA
:102FE000310529F4F093F706E093F6063DC0E901B8
:102FF000FB83EA8349915991C40FD51FEC17FD0754
:1030000061F480819181840F951F0296E901998373
:103010008883828193819B838A83E0E0F0E012962B
:103020008D919C911397009719F0FD01DC01F7CF6A
:103030008D919C9111979D012E5F3F4F820F931FA1
:103040002091F4063091F5062817390769F4309776
:1030500029F41092F7061092F60602C0138212822B
:10306000B093F506A093F406DF91CF910895A0E008
:10307000B0E0EDE3F8E10C94BB16EC01009721F40D
:10308000CB010E941617B4C0FC01E60FF71F9C018C
:1030900022503109E217F30708F4A8C0D9010D91B5
:1030A0001C91119706171707B0F00530110508F4A9
:1030B0009BC0C80104978617970708F495C0025073
:1030C0001109061B170B019311936D937C93CF018C
:1030D0000E94AE1789C05B01A01AB10A4C01800E94
:1030E000911EA091F606B091F706612C712CE12C8F
:1030F000F12C109709F446C08D919C911197A81559
:10310000B905B1F56C0142E0C40ED11CCA14DB0450
:1031100078F14C018A189B08640142E0C40ED11C6E
:103120001296BC9012971396AC91B5E0CB16D104D1
:1031300040F0B282A38391828082D9016D937C9307
:1031400009C00E5F1F4F800F911FF901918380838B
:10315000EB2DFA2FE114F10431F0D7011396FC9313
:10316000EE93129741C0F093F706E093F6063CC049
:103170006816790608F43C017D0112960D90BC9109
:10318000A02DB7CF8091F4069091F5068816990688
:10319000E1F466167706C8F480911F019091200132
:1031A000009741F48DB79EB74091230150912401BF
:1031B000841B950BE817F907C8F4F093F506E09324
:1031C000F406F901718360830FC0CB010E941617CA
:1031D0007C01009759F0A801BE010E940F19CE0191
:1031E0000E94AE17C70104C0CE0102C080E090E08B
:1031F000CDB7DEB7EEE00C94D71681E090E0F894FE
:103200000C943719FB01DC0104C08D9101908019E9
:1032100021F441505040C8F7881B990B0895FB01D9
:10322000DC0102C001900D9241505040D8F7089542
:10323000FB01DC018D91019080190110D9F3990BEC
:103240000895FB01DC0101900D920020E1F7089543
:10325000FB01DC014150504048F001900D920020EC
:10326000C9F701C01D9241505040E0F7089510E0A9
:10327000C7EBD0E004C0FE010E9410172196C83BA6
:08328000D107C9F7F894FFCF54
:103288000000FF06FAD5FFFFFFFFFFFF414800538C
:103298004400474600504100010000FF00FF0000C5
:1032A80000F80620000101010100010101000001F0
:1032B800000200030004000500060007006B006C14
:1032C800006D0000000000007501E2000C01C20161
:1032D8003D011B012F010000000093026602C3029A
:1032E8003A025E024A023B020A53455455500A000C
:1032F80053595300536574757020426567696E00B1
:1033080057445420656E6461626C6564004C4544A2
:103318003A202E2E2E2000676F6C64004C45443AEC
:10332800204F4B21004932433A202E2E2E20007385
:1033380075636365737366756C6C79207363616E0E
:103348006E656420493243004932433A204F4B218D
:1033580000524649443A202E2E2E2000696E697488
:1033680069616C697A696E67207265616465723A31
:103378002000504E3533322073746172747570209A
:1033880074696D6564206F75742C2072657374613F
:103398007274696E6700466F756E64206368697041
:1033A80020504E35004669726D77617265207665EA
:1033B800722E2000524649443A204F4B2100524673
:1033C80049443A204641494C4544210052656C61C4
:1033D800793A202E2E2E2000696E697469616C6915
:1033E8007A696E672072656C617900202020202040
:1033F8000052656C6179205B005D207365742074F0
:103408006F20007375636365737366756C6C7920E0
:10341800696E697469616C697A65642072656C614A
:10342800790052656C61793A204F4B2100536574DD
:10343800757020436F6D706C657465007265667297
:103448006573680046616C7365204361726421008E
:1034580072656164206661696C65640052656164C7
:10346800696E67206661696C65642C2064697363A2
:10347800617264696E67206361726400436172649B
:1034880073204368616E676564002C005F5F0055B8
:103498006B002C20446F6E652E0021436F7272659D
:1034A8006374002157726F6E670047415445204F7F
:1034B80050454E0057616974696E6720666F7220C7
:1034C8006E65772047616D6521005265737461727E
:1034D8007420696E20726571756972656421004790
:1034E800616D6520436F6D706C6574650044696437
:1034F8006E27742066696E6420504E3533782062DA
:103508006F61726400585800677265656E00626C7E
:1035180061636B007768697465007265640054685C
:10352800652047616C6C6572790030322E30322E1E
:10353800323032310076657273696F6E20312E3009
:103548005354004272524649440055564C000D0AE5
:08355800002C446F6E652E008B
:00000001FF
