:100000000C94B8000C94E0000C94E0000C94D8051B
:100010000C94B3050C948E050C94E0000C94E00055
:100020000C94E0000C94E0000C94E0000C94E000D0
:100030000C94E0000C94E0000C94E0000C94E000C0
:100040000C949D0D0C94E0000C94B8030C94920356
:100050000C94E0000C94E0000C94E0000C94E000A0
:100060000C94FD050C94E0002064657669636528B6
:1000700073292E00466F756E642000202D3E20539C
:100080006572766F2D4932432D426F617264002094
:100090002D3E2052656C617900202D3E204469730D
:1000A000706C617900202D3E20496E7075742D4969
:1000B00032432D626F61726400202D3E204C434418
:1000C0002D4932432D426F61726400202D3E204C39
:1000D00043440029002028307800466F756E642064
:1000E000616464726573733A20005363616E6E6974
:1000F0006E672E2E2E00493243207363616E6E654B
:10010000723A0052657374617274696E6720696E29
:10011000000000000023002600290001020408104E
:100120002040800102040810200102040810200071
:10013000000000250028002B00040404040404042B
:10014000040202020202020303030303030000008D
:1001500000240027002A000000000800020100001F
:100160000304070000000000000000001C162D150D
:1001700011241FBECFEFD8E0DEBFCDBF26E0A2ED39
:10018000B3E001C01D92A23FB207E1F713E0A0E087
:10019000B1E0E4E4F3E302C005900D92A23DB107A3
:1001A000D9F710E0C7EBD0E004C02197FE010E9410
:1001B0006E17C63BD107C9F70E94E70D0C9495193D
:1001C0000C940000CF92DF92EF92FF920F931F9357
:1001D000CF93DF936C017A018B01C0E0D0E0CE15A4
:1001E000DF0581F0D8016D918D01D601ED91FC9173
:1001F0000190F081E02DC6010995892B11F021961F
:10020000EECF7E01C701DF91CF911F910F91FF903B
:10021000EF90DF90CF900895FC01538D448D252FF2
:1002200030E0842F90E0821B930B541710F0CF9690
:10023000089501970895FC01918D828D981761F0C2
:10024000828DDF01A80FB11D5D968C91928D9F5F0D
:100250009F73928F90E008958FEF9FEF0895FC01B8
:10026000918D828D981731F0828DE80FF11D858D6B
:1002700090E008958FEF9FEF0895FC01918D228DFE
:10028000892F90E0805C9F4F821B91098F73992783
:1002900008958CE095E00E943D0121E0892B09F44E
:1002A00020E0822F0895FC01848DDF01A80FB11D8D
:1002B000A35ABF4F2C91848D90E001968F7399279C
:1002C000848FA689B7892C93A089B1898C9183707A
:1002D00080648C93938D848D981306C00288F38973
:1002E000E02D80818F7D80830895EF92FF920F93A0
:1002F0001F93CF93DF93EC0181E0888F9B8D8C8DD2
:10030000981305C0E889F989808185FD26C0F62EFD
:100310000B8D10E00F5F1F4F0F731127E02E8C8D98
:10032000E8120CC00FB607FCFACFE889F989808182
:1003300085FFF5CFCE010E945301F1CF8B8DFE01D9
:10034000E80FF11DE35AFF4FF0829FB7F8940B8F2F
:10035000EA89FB89808180620AC09FB7F894EE89A0
:10036000FF896083E889F989808183708064808354
:100370009FBF81E090E0DF91CF911F910F91FF909F
:10038000EF900895CF93DF93EC01888D8823C9F017
:10039000EA89FB89808185FD05C0A889B9898C918E
:1003A00086FD0FC00FB607FCF5CF808185FFF2CF29
:1003B000A889B9898C9185FFEDCFCE010E945301A8
:1003C000E7CFDF91CF91089580E090E0892B29F06D
:1003D0000E94490181110C940000089590E0FC01F5
:1003E000EE0FFF1FEB5EFE4FA591B4912C91FC0127
:1003F000E25AFB4F30812083880F991FFC01E35C98
:10040000FE4F0190F081E02D8081089585ED80936D
:10041000BC008091BC0084FDFCCF10920B050895B8
:1004200040910B04262F30E0240F311D213231057D
:10043000DCF420910B052430C9F4FC0180E090E04D
:10044000861758F430910B042191DC01A551BC4F63
:10045000A30FB11D2C930196F3CF80910B04680F6D
:1004600060930B0480E0089581E0089582E0089590
:10047000089508950895E091E7068091E606E8174B
:1004800030F4F0E0EB53FB4F808190E008958FEF64
:100490009FEF08959091E7068091E606981750F433
:1004A000E92FF0E0EB53FB4F208130E09F5F90930A
:1004B000E70602C02FEF3FEFC90108958091E606DD
:1004C00090E02091E706821B91090895CF92DF9278
:1004D000EF92FF920F931F93CF93DF937C01CB0199
:1004E0008A012091A104222389F0EB016B01C40E43
:1004F000D51ECC15DD0569F06991D701ED91FC9110
:100500000190F081E02DC7010995F3CF642F0E947F
:100510001002C801DF91CF911F910F91FF90EF90D2
:10052000DF90CF900895CF93DF931F92CDB7DEB7C2
:1005300069832091A1042223D1F02091C4042032A8
:1005400040F021E030E0FC013383228380E090E042
:1005500015C08091A204E82FF0E0ED55FB4F998182
:1005600090838F5F8093A2048093C40405C061E0F0
:10057000CE0101960E94100281E090E00F90DF9181
:10058000CF910895089580E090E008950E945B194E
:10059000FC0124813581232B31F421E061157105A3
:1005A000A1F0FB0108C0FC018081918161157105FA
:1005B00031F421E0FC018081882339F005C00E94DC
:1005C000761921E0892B09F020E0822F08950F93FE
:1005D0001F93CF93DF93EC0188819981009729F0D5
:1005E0002A813B812617370788F48B016F5F7F4F85
:1005F0000E949518009761F0998388831B830A8372
:100600002C813D81232B11F4FC01108281E001C07B
:1006100080E0DF91CF911F910F910895FC018081BF
:1006200091810C940C18EF92FF920F931F93CF932C
:10063000DF93EC01198218821B821A821D821C82B0
:100640008617970741F1FB01008111810115110502
:1006500011F1E480F580B7010E94E7022881398119
:1006600081110DC02115310519F0C9010E940C1826
:10067000198218821D821C821B821A820CC0FD8284
:10068000EC82B801C901DF91CF911F910F91FF90CA
:10069000EF900C947F19DF91CF911F910F91FF90F4
:1006A000EF900895EF92FF920F931F93CF93DF93F4
:1006B000EC01198218821B821A821D821C8261152C
:1006C000710549F18B01FB0101900020E9F7319799
:1006D0007F01E61AF70AB7010E94E70228813981F3
:1006E00081110DC02115310519F0C9010E940C18A6
:1006F000198218821D821C821B821A820CC0FD8204
:10070000EC82B801C901DF91CF911F910F91FF9049
:10071000EF900C947F19DF91CF911F910F91FF9073
:10072000EF9008951F920F920FB60F9211242F93FE
:100730003F934F935F936F937F938F939F93AF9369
:10074000BF93EF93FF938CE095E00E945301FF91DC
:10075000EF91BF91AF919F918F917F916F915F9139
:100760004F913F912F910F900FBE0F901F901895B2
:100770001F920F920FB60F9211242F938F939F9376
:10078000EF93FF93E0911C05F0911D058081E091AE
:100790002205F091230582FD12C0908180912505EC
:1007A0008F5F8F7320912605821751F0E091250508
:1007B000F0E0E45FFA4F958F8093250501C08081BA
:1007C000FF91EF919F918F912F910F900FBE0F90FE
:1007D0001F901895CF92DF92EF92FF920F931F9385
:1007E000CF93DF931F92CDB7DEB76B01142FFC01BF
:1007F00081899289E42EF12C009751F023E029831E
:100800009701AB01BE016F5F7F4F0E941D092AC097
:1008100062E070E080E090E00E942F0D62E0610FE6
:10082000613208F060E284E20E947F081092E706DD
:100830008093E60689EA95E00E944A028601EC0C64
:10084000FD1C0E151F0571F061E070E080E090E086
:100850000E942F0D89EA95E00E944A02F8018193D7
:100860008F01EFCF0F90DF91CF911F910F91FF90EC
:10087000EF90DF90CF9008958F929F92AF92BF92AA
:10088000CF92DF92EF92FF920F931F93CF93DF935C
:1008900000D0CDB7DEB77C016B0100E010E0AA24E8
:1008A000A39492E0992EF70181899289009791F0A3
:1008B0009A8221E030E0AE014F5F5F4FBE016E5F74
:1008C0007F4F0E941D0981E09981913009F435C064
:1008D00080E024C0F701208130E0F901E95AFE4FA1
:1008E0008491F901E55EFE4FB490F901E75CFE4F9B
:1008F0008490882079F081110E94440CE82DF0E06A
:10090000EE0FFF1FEF5EFE4FA591B491EC91BE225A
:1009100081E009F480E08A25817079F4C114D10462
:1009200029F0065F1F4FC016D10638F06AE070E06C
:1009300080E090E00E942F0DB6CF0F900F90DF91D6
:10094000CF911F910F91FF90EF90DF90CF90BF90CC
:10095000AF909F908F900895682F89EA95E00C944E
:100960009302CF92DF92EF92FF920F931F93CF9358
:10097000DF93CDB7DEB729970FB6F894DEBF0FBE71
:10098000CDBF8C01DC0118968D919C911997892B14
:1009900009F4A3C00E940A0DF801C684D784E08838
:1009A000F188DC01CB018C199D09AE09BF098C329D
:1009B0009140A105B10570F3F894D80114968D917A
:1009C0009C9115979A8389831896ED91FC911997BC
:1009D0007F01BFEFEB1AFB0A80818987F8019081C4
:1009E0000288F389E02DD80154968C91992309F45B
:1009F00030C09081982B98879081809589238F8330
:100A00008F818C8388E08B8358856F8149853B81FA
:100A10002C8189819A81D701508347FD252F3A95F2
:100A20002083262F39F0441F00C00000608300009F
:100A300000C0F2CF38E04D9160830000019761F76C
:100A4000D8015396FC93EE93529749873B832C83AE
:100A50003AC09081982B98879081809589238F83C5
:100A60008F818E8388E08D8358856F8149853D8194
:100A70002E8189819A81D701508347FD252F00C09F
:100A800000C0208300C000C000C000C000C0608360
:100A90000000262F3A9541F0441F000000C000C01E
:100AA00000C000C000C0E8CF38E04D9100C06083B6
:100AB00000C0019709F7D8015396FC93EE93529723
:100AC00049873D832E839A83898378940E940A0DF7
:100AD000F80166877787808B918B29960FB6F894FB
:100AE000DEBF0FBECDBFDF91CF911F910F91FF9061
:100AF000EF90DF90CF900895CF93DF93EC018E813C
:100B000087FD07C061E00E94CE0C60E08E810E94EC
:100B10006D0C81E08983DF91CF9108951F920F9230
:100B20000FB60F9211242F933F934F935F936F93C0
:100B30007F938F939F93AF93BF93EF93FF9382E045
:100B40000E94EE01FF91EF91BF91AF919F918F9124
:100B50007F916F915F914F913F912F910F900FBEB9
:100B60000F901F9018951F920F920FB60F9211249D
:100B70002F933F934F935F936F937F938F939F93A5
:100B8000AF93BF93EF93FF9381E00E94EE01FF913B
:100B9000EF91BF91AF919F918F917F916F915F91F5
:100BA0004F913F912F910F900FBE0F901F9018956E
:100BB0001F920F920FB60F9211242F933F934F93D2
:100BC0005F936F937F938F939F93AF93BF93EF93B5
:100BD000FF9380E00E94EE01FF91EF91BF91AF91F2
:100BE0009F918F917F916F915F914F913F912F9145
:100BF0000F900FBE0F901F9018951F920F920FB677
:100C00000F9211242F933F934F935F936F937F9392
:100C10008F939F93AF93BF93EF93FF938091B9000E
:100C2000887F803609F49CC068F5883209F45BC07F
:100C300090F4803109F454C038F4882309F4F6C0E4
:100C4000883009F44DC0F6C0883109F44CC08032B8
:100C500009F45DC0EFC0803409F468C048F4803303
:100C600009F455C0883309F0E5C080930905D8C060
:100C7000803509F44FC0883509F45DC0883409F027
:100C8000D9C0D6C0883909F4C7C0A8F4883709F498
:100C900067C038F4883609F463C0803709F460C04F
:100CA000C9C0883809F4B8C0803909F45FC08038F9
:100CB00009F0C0C05BC0803B09F486C038F4803ABC
:100CC00009F466C0883A09F47FC0B4C0803C09F4D6
:100CD000A7C0883C09F4A4C0883B09F48AC0AAC014
:100CE0008091060510C0909108058091070598171E
:100CF00070F5E091080581E08E0F80930805F0E023
:100D0000EB51FB4F80818093BB0085EC86C08093C4
:100D100009058EC0E091080581E08E0F80930805DB
:100D20008091BB00F0E0EB51FB4F80839091080570
:100D3000809107056EC0E091080581E08E0F8093D9
:100D400008058091BB00F0E0EB51FB4F8083809160
:100D50000A0581116DC081E08093050584EA61C0B8
:100D600083E080930B0510922D04CFCF80912D044A
:100D7000803208F051C0E0912D0481E08E0F809305
:100D80002D048091BB00F0E0E35FFB4F8083BDCF7B
:100D900085EC8093BC0010920B0580912D0480326D
:100DA00030F4E0912D04F0E0E35FFB4F108260919E
:100DB0002D0470E0E091E206F091E3068DE094E00E
:100DC000099510922D0436C084E080930B05109293
:100DD0000C0410920B04E091E406F091E5060995ED
:100DE00080910B04811105C081E080930B04109267
:100DF000EB03E0910C0481E08E0F80930C04F0E093
:100E0000E551FC4F80818093BB0090910C04809150
:100E10000B04981708F479CF85E88093BC000AC0CA
:100E200085EC8093BC0010920B0504C0109209055C
:100E30000E940602FF91EF91BF91AF919F918F9118
:100E40007F916F915F914F913F912F910F900FBEC6
:100E50000F901F901895EF92FF921F93CF93DF93FF
:100E600000D000D000D0CDB7DEB782EDE82E83E011
:100E7000F82EF70121E080E090E041915191840F3C
:100E8000951F452B09F420E033E0E83DF307A9F76F
:100E900010E00697A1F466E773E0CE0101960E9488
:100EA0005203BE016F5F7F4F812F0E94F907CE0171
:100EB00001960E940E031F5F133069F732C02111A3
:100EC0001DC0F701819191917F01892B19F46CE785
:100ED00073E002C062E873E0CE0101960E94520303
:100EE000BE016F5F7F4F812F0E94F907CE010196EF
:100EF0000E940E031F5F133021F713C068E873E0F0
:100F0000CE0101960E945203BE016F5F7F4F812F79
:100F10000E94F907CE0101960E940E031F5F133055
:100F200069F726960FB6F894DEBF0FBECDBFDF91EE
:100F3000CF911F91FF90EF900895BF92CF92DF92D3
:100F4000EF92FF920F931F93CF93DF93FC01828167
:100F50009381892B09F443C06B01EE24FF24BC2C40
:100F6000052F162F272F3327B02FA42F87818823F3
:100F700061F0C89E60011124BD2C809F8001112466
:100F8000B12F849F90011124A32F9585D2852085B0
:100F900031859D17A1F0472F5527662777278901AF
:100FA000090F111D882349F090E0849F7001859FEF
:100FB000F00C949FF00C11244F2DE801488382859A
:100FC000A901480F511DEA01B8828385E901C80FC4
:100FD000D11DB8838485F901E80FF11DA083DF914D
:100FE000CF911F910F91FF90EF90DF90CF90BF9026
:100FF00008950F931F93CF93C82F8B0168E873E078
:10100000C8010E94C802811119C066E773E0C801D7
:101010000E94C802811117C062E873E0C8010E94F3
:10102000C802811115C067E971E0C8010E94C802B9
:10103000811113C040E050E0BA0113C040E050E01D
:101040006FEF70E00EC040E05FEF60E070E009C05D
:101050004FEF5FEF6FEF70E004C040E056E46FEFDA
:1010600070E0C11107C08BEA96E00E949D078BEAF1
:1010700096E01AC0C13039F486E996E00E949D07D7
:1010800086E996E011C0C23039F481E896E00E940A
:101090009D0781E896E008C0C33059F48CE696E0DD
:1010A0000E949D078CE696E0CF911F910F910C94C2
:1010B000B104CF911F910F910895009769F0FC0141
:1010C00001900020E9F73197AF01481B590BBC0193
:1010D0008CE095E00C94E20080E090E0089586ECCE
:1010E00093E00C945D08CF93DF930E945D08EC01C0
:1010F0000E946F088C0F9D1FDF91CF9108959091F2
:101100000B059111FCCF91E090930B0590930A058C
:101110002FEF2093090510920805260F209307054D
:101120009093060590910605880F892B80930605FC
:1011300080910505813061F41092050580910605C6
:101140008093BB008091BC0083FDF8CF85EC01C08B
:1011500085EE8093BC0080910B058130E1F3809196
:101160000805861710F460910805A5EEB4E0E5ECDB
:10117000F4E080E0861721F09D9191938F5FFACF84
:101180000895282F3091C404313208F04AC080916C
:101190000B058111FCCF9091C30442E040930B05F5
:1011A00020930A052FEF209309051092080530932C
:1011B0000705E3EAF4E0A5EEB4E020E0321721F001
:1011C00041914D932F5FFACF1092060520910605AD
:1011D000990F922B9093060590910505913061F43B
:1011E00010920505909106059093BB009091BC006C
:1011F00093FDF8CF95EC01C095EE9093BC009091D3
:101200000B059230E1F3909109059F3F79F08091B1
:101210000905803241F080910905803331F084E086
:1012200005C081E003C082E001C083E01092A20407
:101230001092C4041092A1040895CF92DF92EF920D
:10124000FF920F931F93CF93DF93EC018B016A0101
:10125000790188819981892B31F0EA81FB81808134
:1012600091810E94410C60E08B850E946D0CF80119
:101270006081CE010E948A0B8601EC0CFD1CE016F9
:10128000F10641F06FEFCE010E948A0BF8018193C5
:101290008F01F5CF61E08B850E946D0C81E0DF91BD
:1012A000CF911F910F91FF90EF90DF90CF90089515
:1012B0002F923F924F925F926F927F928F929F9266
:1012C000AF92BF92CF92DF92EF92FF920F931F9354
:1012D000CF93DF93CDB7DEB727970FB6F894DEBF75
:1012E0000FBECDBF7C014A012DB63EB6DC01519642
:1012F000CD90DC90529766246394660EC114D1049D
:1013000009F472C04DB65EB670E0685F7F4FEDB70E
:10131000FEB7E61BF70B0FB6F894FEBF0FBEEDBF8E
:101320000DB71EB70F5F1F4F81E08183D801119663
:101330001C92119712961C9212978FEF13968C9312
:10134000139714966C921497862D819515968C930D
:10135000159784ED16968C934DB75EB7485F5F4F37
:10136000FA0163ED712C9301215031098E2F841BFA
:1013700090E0821793073CF4DC01AF59BB4F8C918E
:101380008193680FF3CF609560831182B8E06B0E94
:10139000711CF60180819181892B39F00280F381E3
:1013A000E02D808191810E94410C60E0D6011B9666
:1013B0008C910E946D0C5801F50161915F01C6018D
:1013C0000E948A0BC501801B910B86159705A0F31F
:1013D00061E0D6011B968C910E946D0C0FB6F894BB
:1013E0005EBE0FBE4DBE44C062E070E080E090E0A3
:1013F0000E942F0D81E08093A10484E28093C304B6
:101400001092A2041092C40480E00E94AC0480E018
:101410000E94AC048FEF0E94AC04862D0E94AC04A5
:10142000862D81950E94AC0484ED0E94AC04C12CF1
:1014300083EDD82E712CB1E06B1A71080C2D10E0E1
:10144000061517055CF40F591B4FF80180810E94A7
:10145000AC04D8018C91D80EC394F0CF8D2D80951B
:101460000E94AC0480E00E94AC0481E00E94C108AC
:10147000B401C7010E943C04182F811102C010E082
:101480002FC0F70181899289009769F023E02F83AB
:1014900026E030E0AE014F5F5F4FBE01695F7F4FD6
:1014A0000E941D0907C046E0BE016F5F7F4FC70164
:1014B0000E94EA0346E050E069E171E0CE01019646
:1014C0000E946019892BD9F6D70151968D919C9174
:1014D0005297892B29F0B401C7010E943C04182FB0
:1014E000812F0FB6F8943EBE0FBE2DBE27960FB6C5
:1014F000F894DEBF0FBECDBFDF91CF911F910F914A
:10150000FF90EF90DF90CF90BF90AF909F908F9023
:101510007F906F905F904F903F902F900895823012
:10152000910538F0880F991F880F991F059701972B
:10153000F1F70895FC0144815581608171818CE04F
:1015400095E00C94E2008F929F92AF92BF920F931E
:101550001F93CF93DF93CDB7DEB7A1970FB6F89463
:10156000DEBF0FBECDBF19A2423008F44AE08E01A3
:101570000F5D1F4F842E912CA12CB12CA50194013D
:101580000E944C17E62FB901CA0101501109EA3037
:1015900014F4E05D01C0E95CD801EC93232B242B0B
:1015A000252B61F7C8010E945D08A1960FB6F8943B
:1015B000DEBF0FBECDBFDF91CF911F910F91BF90C6
:1015C000AF909F908F9008950C945D08CF92DF921A
:1015D000EF92FF92CF93DF936B017C016DE28CE081
:1015E00095E00E947501EC0166277727CB016C1905
:1015F0007D098E099F094AE00E94A30A8C0F9D1F56
:10160000DF91CF91FF90EF90DF90CF900895E5EBC1
:10161000F5E0918162818081238131E03093A104E2
:101620002093C3041092A2041092C404609569230D
:10163000682B89EA95E00E94930281E00C94C1082E
:101640000F931F93CF93DF938C01C0E0D0E0F8019C
:10165000EC0FFD1F6491662341F08CE095E00E9441
:101660007501892B11F02196F2CFCE01DF91CF9138
:101670001F910F910895CF93DF930E94200BEC01EF
:101680000E946F088C0F9D1FDF91CF910895EF92FC
:10169000FF920F931F93CF93DF936115710511F4A0
:1016A00080E01CC041155105C1F07B01EC018C812B
:1016B0009D818A01080F191FB801CE010E94E7021F
:1016C000882371F3288139818C819D81B701820F34
:1016D000931F0E947F191D830C8381E0DF91CF91BE
:1016E0001F910F91FF90EF9008956115710551F0D2
:1016F000FB0101900020E9F73197AF01461B570B22
:101700000C94470B80E008958FB7F8948091ED0614
:101710008FBF0895AF92BF92CF92DF92EF92FF9268
:101720000F931F93CF93DF93EC0188819981892BCD
:1017300031F06EBD0DB407FEFDCFAEB496C0888506
:101740009985892B11F010E801C011E0BB24B394F6
:10175000862F812309F0B12C062F2C813D814E81EB
:101760005F8160E271EA87E090E00E944C17F22E00
:10177000A02EE12CC22ED12CFF2019F0C6010E9410
:101780008F0A8A85877FB9F58D858F3FB9F0902FB5
:10179000912381E009F480E0B81681F0EF85F889A3
:1017A0008F89992331F09081892B8083BB24B39456
:1017B00005C09081809589238083B12CE989FA89BD
:1017C0009081898D892B8083FF2019F0C6010E94AA
:1017D0008F0A8E858F3F39F0EB89FC899081888D47
:1017E000892309F0E12AE989FA899081898D809518
:1017F000892380832CC0E989FA899081898D892B7E
:101800008083FF2019F0C6010E948F0A8D858F3FCB
:1018100069F0EF85F8898F89902F912319F09081D5
:10182000892B03C09081809589238083E989FA8977
:101830009081898D8095892380838E858F3F39F0B3
:10184000EB89FC899081888D892309F0E12A8E85B6
:101850008F3F09F0AE2C88859985892B21F4110FD3
:1018600011118ACF02C01695FBCF8A2DDF91CF913F
:101870001F910F91FF90EF90DF90CF90BF90AF90AE
:1018800008958CBD9DBD0895833081F028F481308A
:1018900099F08230A1F008958730A9F08830B9F02E
:1018A0008430D1F4809180008F7D03C080918000CE
:1018B0008F7780938000089584B58F7702C084B5B8
:1018C0008F7D84BD08958091B0008F7703C0809193
:1018D000B0008F7D8093B00008951F93CF93DF9366
:1018E000282F30E0F901E95AFE4F8491F901E55EB5
:1018F000FE4FD491F901E75CFE4FC491CC23C1F0B7
:10190000162F81110E94440CEC2FF0E0EE0FFF1F08
:10191000E15DFE4FA591B4919FB7F894111104C0F9
:101920008C91D095D82302C0EC91DE2BDC939FBF25
:10193000DF91CF911F9108951092E7061092E6066D
:101940001092A2041092C40410920B0581E08093BF
:101950000A051092050561E082E10E946D0C61E0CC
:1019600083E10E946D0CE9EBF0E080818E7F808343
:1019700080818D7F808388E48093B80085E48093A4
:10198000BC0088E392E09093E5068093E40689E347
:1019900092E09093E3068093E2060895CF93DF935D
:1019A00090E0FC01E55EFE4F2491FC01E75CFE4FF8
:1019B0008491882361F190E0880F991FFC01E35B1B
:1019C000FE4FC591D491FC01E15DFE4FA591B4910C
:1019D000611109C09FB7F89488812095822388837C
:1019E000EC912E230BC0623061F49FB7F89488818C
:1019F000322F309583238883EC912E2B2C939FBF1D
:101A000006C08FB7F894E8812E2B28838FBFDF9113
:101A1000CF9108953FB7F8948091E9069091EA0636
:101A2000A091EB06B091EC0626B5A89B05C02F3F10
:101A300019F00196A11DB11D3FBFBA2FA92F982FF4
:101A40008827820F911DA11DB11DBC01CD0142E06F
:101A5000660F771F881F991F4A95D1F708958F92B7
:101A60009F92AF92BF92CF92DF92EF92FF926B0163
:101A70007C010E940A0D4B015C01C114D104E104F8
:101A8000F104F1F00E940A0DDC01CB0188199909DB
:101A9000AA09BB09883E9340A105B10570F321E076
:101AA000C21AD108E108F10888EE880E83E0981E7A
:101AB000A11CB11CC114D104E104F10419F7DDCF5C
:101AC000FF90EF90DF90CF90BF90AF909F908F905E
:101AD00008950F931F93CF93DF93EC018B0161E087
:101AE0008EE00E946D0C0E946F088AE492E00E94D2
:101AF000E40A86EC96E00E949A0A89EC93E00E9440
:101B0000E40AC8010E949A0A89EC93E00E94E40A60
:101B1000CE010E949A0A8BEC93E00E94730862E364
:101B200070E080E090E00E942F0D60E08EE0DF9199
:101B3000CF911F910F910C946D0C1F920F920FB6C5
:101B40000F9211242F933F938F939F93AF93BF9343
:101B50008091DE069091DF06A091E006B091E1064B
:101B60003091E80623E0230F2D3720F40196A11DC4
:101B7000B11D05C026E8230F0296A11DB11D2093BB
:101B8000E8068093DE069093DF06A093E006B0930C
:101B9000E1068091E9069091EA06A091EB06B091EA
:101BA000EC060196A11DB11D8093E9069093EA060B
:101BB000A093EB06B093EC06BF91AF919F918F91EC
:101BC0003F912F910F900FBE0F901F901895CF93BC
:101BD000DF93CDB7DEB7E2970FB6F894DEBF0FBE46
:101BE000CDBF789484B5826084BD84B5816084BDA6
:101BF00085B5826085BD85B5816085BD80916E00AB
:101C0000816080936E0010928100809181008260DB
:101C10008093810080918100816080938100809118
:101C200080008160809380008091B1008460809307
:101C3000B1008091B00081608093B00080917A0003
:101C4000846080937A0080917A00826080937A0029
:101C500080917A00816080937A0080917A00806818
:101C600080937A001092C1000E949C0CE0911C05A8
:101C7000F0911D0582E08083E0911805F09119052F
:101C80001082E0911A05F0911B0580E1808310928B
:101C90002405E0912005F091210586E08083E09104
:101CA0001E05F0911F05808180618083E0911E05F3
:101CB000F0911F05808188608083E0911E05F0917E
:101CC0001F05808180688083E0911E05F0911F05CB
:101CD00080818F7D808360ED77E080E090E00E94DE
:101CE0002F0D61E08EE00E94CE0C88E691E00E940C
:101CF000730860E771E09E012F5F3F4F3901C90112
:101D00000E9452031E0131E1230E311C64E771E091
:101D1000C1010E945203B301C1010E94690DC101BA
:101D20000E940E03C3010E940E0380E891E00E940E
:101D3000730899E288E10FB6F894A8958093600043
:101D40000FBE909360000E946F088DE891E00E94A2
:101D5000730810E01230E1F0133031F1113061F00E
:101D60008BEA96E00E947C0567E971E0C3010E945E
:101D70005203B30180E023C086E996E00E947C050F
:101D800067E971E0C3010E945203B30181E017C00B
:101D900081E896E00E947C0567E971E0C3010E943A
:101DA0005203B30182E00BC08CE696E00E947C05F2
:101DB00067E971E0C3010E945203B30183E00E940E
:101DC000F907C3010E940E0364E670E080E090E032
:101DD0000E942F0D1F5F143009F0BCCF64E670E045
:101DE00080E090E00E942F0D10E040E050E0BA014A
:101DF000111107C08BEA96E00E949D078BEA96E0DE
:101E000018C0113039F486E996E00E949D0786E9F2
:101E100096E00FC0123039F481E896E00E949D07E9
:101E200081E896E006C08CE696E00E949D078CE66D
:101E300096E00E94B1041F5F1430B9F68CE991E07E
:101E40000E947308A8950E946F0885EA91E00E949D
:101E5000730886EF90E00E943B0B8AEE90E00E94B0
:101E60003B0B18E0C12ED12CE12CF12C00E0BB245F
:101E7000B3941C2DB092A104C092C3041092A2048A
:101E80001092C40481E00E94C10881113EC08AED15
:101E900090E00E94200B4AE0C701B6010E94A30A0D
:101EA00085ED90E00E94200B40E1C701B6010E9441
:101EB000A30A83ED90E00E94200B173219F48BECFB
:101EC00090E018C0183319F489EB90E013C019336F
:101ED00019F485EA90E00EC01C3319F489E990E00A
:101EE00009C01F3319F48FE890E004C0163121F4C3
:101EF0008BE790E00E94200B0E946F080F5F61E06B
:101F000070E080E090E00E942F0D8FEFC81AD80A91
:101F1000E80AF80A98E7C916D104E104F10409F0C7
:101F2000A8CF84E790E00E94200B602F70E080E053
:101F300090E04AE00E94A30A88E690E00E943B0BF2
:101F40008FEA91E00E9473080E946F0888EC91E08C
:101F50000E947308A8950E946F0881ED91E00E948D
:101F6000730804ED15E0812C912C5401F30127E056
:101F700011922A95E9F7A8958CED91E00E94E40A68
:101F80004AE0C501B4010E94A30A0E946F08F8014B
:101F9000E188F288E114F10409F474C061E0F7010A
:101FA00083850E94CE0C61E0F70183850E946D0C51
:101FB000F70180819181892B09F434C0DFB6F89450
:101FC0008091D803811127C0E3E4F1E08491E5E238
:101FD000F1E09491E82FF0E0EE0FFF1FE35BFE4F7E
:101FE000A591B4918C91982321F461E08AE00E943C
:101FF0006D0C61E08AE00E94CE0C8CB580618CBDD6
:102000008CB580648CBD61E08DE00E94CE0C61E0F7
:102010008BE00E94CE0C8091D8038F5F8093D80311
:10202000DFBE23C061E0F70184850E94CE0CF7017A
:1020300082858B7F11F460E002C061E0F701848546
:102040000E946D0CF70185858F3F41F061E00E9491
:10205000CE0C61E0F70185850E946D0CF701868545
:102060008F3F19F060E00E94CE0C81E0F701838F72
:10207000F2E0F093610444E650E061E0C8010E94A0
:1020800058091DC00E949C0C61E0F80181810E94EA
:102090006D0C60E0F80181810E946D0C60E971E0D7
:1020A00080E090E00E942F0D61E0F80181810E94A4
:1020B0006D0C6AE070E080E090E00E942F0DF2E38A
:1020C000F093610425E0209362043FEF30936304B2
:1020D00081E0809364042093650444E650E065E069
:1020E000C8010E945809412C512C82E08093610460
:1020F00044E650E061E0C8010E945809882309F4D1
:102100003AC44CE061E674E0C8010E94EA0346E08C
:1021100050E060E071E081E694E00E946019892B54
:1021200009F029C4C0906804D0906904DC24CD244F
:10213000DC24E12CF12CFE2CED2CDC2CCC24809129
:102140006A04C82AFE2CED2CDC2CCC2480916B0474
:10215000C82AC114D104E104F10409F40CC486E1D5
:1021600092E00E94E40A6F2D77278827992740E1A3
:102170000E94A30A0E946F0885E292E00E94E40A8E
:102180006E2D70E080E090E04AE00E94A30A6EE2CB
:102190008CE095E00E9475016D2D70E080E090E08C
:1021A0004AE00E94A30A0E946F08E4E1E093610400
:1021B00081E080936204E09363048093640444E6C6
:1021C00050E064E0C8010E945809882331F048E0DB
:1021D00061E674E0C8010E94EA0361E070E080E01B
:1021E00090E00E942F0DFAE4F093610481E0809367
:1021F00062041092630440E050E063E0C8010E9472
:102200005809F82E882321F1F80181899289892BB8
:1022100081F044E161E674E0C8010E94EA03809124
:1022200068048130A9F490916D04AEE6B4E0F30146
:1022300008C060E070E0C8010E943C048111E9CF51
:1022400007C08E2F8619891720F48D918193F9CFBD
:10225000F12CFFEF8F1A9F0AAF0ABF0A0D5E1F4FC6
:1022600023E082169104A104B10409F07FCEFF207F
:1022700019F084E392E002C08EE392E00E947308BA
:10228000A8950E946F088CE492E00E94730888E58C
:1022900092E00E9473088FE38093B8050E949C0C23
:1022A0008091B6058093B90561E08091B8050E94E0
:1022B0007F081092E7068093E606811101C0FFCFE8
:1022C00089EA95E00E944A028093B6054DE2C42E49
:1022D00041E0D42E55E2A52E51E0B52E88248394FA
:1022E000912CF601019111916F018091B705740154
:1022F000002E01C0EE0C0A94EAF78E298093B705F0
:102300008091B5054E2C409484218093B5050E94A0
:10231000070BF50151905F018091B505552021F023
:10232000E82AE092B50503C048224092B5050E9414
:10233000070B8BE692E00E94E40A81E792E00E949C
:10234000E40AB801110F880B990B97FF03C00E9494
:10235000E60A03C04AE00E94A30A89E792E00E94CD
:10236000E40A652D70E080E090E04AE00E94A30A54
:102370000E946F08FDE3CF16F1E0DF0609F0B1CF50
:102380000E946F0883E892E00E94730882EA92E05C
:102390000E947308A8952FB7F8948091DE0690915B
:1023A000DF06A091E006B091E1062FBF8093D9032C
:1023B0009093DA03A093DB03B093DC0360E771E052
:1023C000C3010E9452036DEA72E0C1010E945203F0
:1023D000B301C1010E94690DC1010E940E03C30136
:1023E0000E940E039E012C5D3F4F3BA72AA73E0192
:1023F00031E1630E711C8E010F5F1F4F2FB7F894F0
:102400008091DE069091DF06A091E006B091E10692
:102410002FBF4091D9035091DA036091DB03709193
:10242000DC03841B950BA60BB70B88389341A105E1
:10243000B105B0F02FB7F8948091DE069091DF06D9
:10244000A091E006B091E1062FBF8093D90390934D
:10245000DA03A093DB03B093DC0381E080931801DF
:10246000F091EA03FEA7F1117BC2A89587E0F10184
:1024700011928A95E9F786E0EAA5FBA511928A9563
:10248000E9F722ED33E03AAB29ABCE0184965C014B
:10249000EDEDF3E0FDA7ECA7F8ABEFA722ED422EA0
:1024A00023E0522E34EDE32E35E0F32EC12CD12C57
:1024B00099249394A8953AE430936104909262042D
:1024C0001092630440E050E063E0C7010E945809A5
:1024D000882309F4D1C0F70181899289892B89F079
:1024E00044E161E674E0C7010E94EA038091680458
:1024F000813009F0C1C080916D04AEE6B4E0F30113
:1025000008C060E070E0C7010E943C048111E8CF80
:10251000B3C09E2F9619981708F061C29D919193B0
:10252000F8CF96E0E6E0F1E0D7011A9601900D921F
:102530009A95E1F794E0F301D701129601900D927C
:102540009A95E1F7F7018187F0E4F09361049092A6
:10255000620420E6209363049092640486E0F7010D
:102560003A96A5E6B4E001900D928A95E1F7F7015D
:10257000828180936B04838180936C048481809337
:102580006D04858180936E0444E650E06EE0C701DF
:102590000E945809882309F428C24CE061E674E0DF
:1025A000C7010E94EA038824839480916804811102
:1025B0001CC261E070E080E090E00E942F0D882056
:1025C00009F419C2F0E4F09361049092620420E3EC
:1025D000209363049092640444E650E064E0C701F1
:1025E0000E945809882309F402C24AE161E674E0B6
:1025F000C7010E94EA03809168048111F8C180E15B
:10260000E9E6F4E0D80101900D928A95E1F721E026
:1026100030E0F501318320831B8243E050E0B801B4
:102620008FA598A90E9486192A8130E040910D015A
:10263000042E000C550B81E04217530709F480E08B
:10264000819540911001042E000C550B4217530741
:1026500009F481E040911301042E000C550B421740
:10266000530709F482E090E0C816D90629F422E065
:1026700030E0F50131832083F50180819181F20101
:10268000208131812817390709F19183808360E720
:1026900071E0CE0148960E94520364EF72E0CE01D1
:1026A0004E960E945203BE01685E7F4FCE014E9649
:1026B0000E94690DCE014E960E940E03CE014896EF
:1026C0000E940E031092E90390921801FFEFCF1AB7
:1026D000DF0A23E1E20EF11C32E0430E511C82E0DE
:1026E000A80EB11CEFA5F8A93396F8ABEFA7F3E05D
:1026F000CF16D10409F0DECE0E942B07A89540909A
:102700001801442009F41DC11092180168EC73E00F
:10271000CE0148960E945203CC24C394D12C552458
:102720005394A12CB12CE9A9FAA981919191FAAB0A
:10273000E9ABA80EB91E8230910561F466EC71E038
:10274000CE0148960E94750B4AE0B801C6010E946E
:10275000E01661C181309105E1F48CE0882E81E0C2
:10276000982EE12CF12C6CA57DA5C4010E94761950
:1027700097012F5F3F4F7901892B09F441C133E065
:10278000830E911C83E0E816F10469F763E773E0B8
:102790000CC0892B41F462E073E0CE0148960E94A0
:1027A000750B512C06C065E073E0CE0148960E947F
:1027B000750B6FE672E0CE0148960E94750B9FEF95
:1027C000C91AD90AECA5FDA53396FDA7ECA7F4E03C
:1027D000CF16D10409F0A7CF60EC76E0C3010E94C8
:1027E0001303BE01685E7F4FC8010E941303B3014B
:1027F000C8010E94690DC8010E940E03C3010E9416
:102800000E0326E0A216B104B1F460EC76E0C30139
:102810000E94130368E073E0C8010E945203B301F1
:10282000C8010E94690DC8010E940E03C3010E94E5
:102830000E034EA616C05520A1F060EC76E0C30151
:102840000E94130361E173E0C8010E945203B301C7
:10285000C8010E94690DC8010E940E03C3010E94B5
:102860000E03CE0148960E940E033EA5332309F4C1
:1028700068C08091E903811164C088E193E00E94FF
:1028800073080E942B078091B5058F7D8093B50555
:102890000E94070B8091B50580618093B5050E9469
:1028A000070B0E942B0768EE73E080E090E00E9427
:1028B0002F0D0E942B0768EE73E080E090E00E94ED
:1028C0002F0D0E942B0768EE73E080E090E00E94DD
:1028D0002F0D0E942B078091B50580628093B5056E
:1028E0000E94070BFF24F394F092E903A89582E27B
:1028F00093E00E947308F092EA0388E393E00E9459
:1029000073080FB6F894A895809160008861809351
:102910006000109260000FBE60E771E0C3010E948A
:1029200052036DE473E0C8010E945203B301C80171
:102930000E94690DC8010E940E03C3010E940E038C
:1029400017C08091B50580628093B5050E94070B82
:102950008091B5058F7E8093B5050E94070B08C056
:102960000E942B0764EF71E080E090E00E942F0D41
:102970000E94E40143CD8BE593E00E94730886E05A
:102980004816510444F182EF91E00E94730883E0FD
:1029900091E00E943B0B62E370E080E090E00E94D7
:1029A0002F0DE3E0CE2ED12CE12CF12C4AE0C70113
:1029B000B6010E94A30A0E946F0864E670E080E0FE
:1029C00090E00E942F0D91E0C91AD108E108F108AA
:1029D00069F70C9400003FEF431A530A86CB84300A
:1029E00009F49FCD8CEB92E008C0812CE2CD84ED00
:1029F00092E00E94730888EC92E00E94730866CE11
:102A000066EC71E0CE0148960E94750B4AE0B80171
:102A1000C7010E94EB16F80101900020E9F73197F9
:102A2000AF01401B510BB801CE0148960E94470BE5
:102A3000C0CECF93DF93EC0188859985009711F084
:102A40000E940C188E8187FD05C060E0DF91CF9158
:102A50000C94CE0CDF91CF9108958CE696E00E9405
:102A6000191581E896E00E94191586E996E00E9402
:102A700019158BEA96E00E94191580EC96E00E94E9
:102A80000E0386EC96E00E940E038CEC96E00E940A
:102A90000E0382ED96E00E940E0388ED96E00C9402
:102AA0000E03FF920F931F93CF93DF938C01F62EAB
:102AB0008FEFF801808381838CE190E00E9474178E
:102AC000EC01FB868DE08C878CE08E878BE08D8718
:102AD0006F2DFF0C770BFB01E75CFE4FE491F0E0FC
:102AE000EE0FFF1FE15DFE4F859194919E8B8D8BC4
:102AF000FB01E55EFE4FE491EA8FE4E4F1E0E4914E
:102B0000F0E0EE0FFF1FE15DFE4F85919491988BF1
:102B10008F87E6E2F1E0E491EF8BE5E4F1E0E49108
:102B2000F0E0EE0FFF1FEF5EFE4F859194919C8BBE
:102B30008B8BE7E2F1E0E491E88FE6E4F1E0E491E9
:102B4000F0E0EE0FFF1FE15DFE4F859194919A8BAF
:102B5000898BE8E2F1E0E491E98F80E492E4AFE070
:102B6000B0E08C839D83AE83BF83198618861A8656
:102B70001B8E82E090E00E94741721E7FC01208305
:102B800011829B838A8319821882F801D28BC18BB0
:102B9000DF91CF911F910F91FF9008951F93CF93D5
:102BA000DF93EC01162F19821F821E861F86188A5A
:102BB000198A81E08D878A871B8692E09C878883AB
:102BC00083E090E09D838C830E94741799878887A7
:102BD000009751F023E0FC0111922A95E9F781E07A
:102BE00090E09B838A8304C01D821C821B821A8210
:102BF0001E838981882341F061E0812F0E94CE0CE1
:102C000060E0812F0E946D0C812F90E0FC01E75C59
:102C1000FE4FE491F0E0EE0FFF1FE15DFE4F2591C6
:102C200034913B8B2A8BFC01E55EFE4FE491EC8BEB
:102C3000DF91CF911F910895ECE0F5E013821282AD
:102C400088EE93E0A0E0B0E084839583A683B78309
:102C500028E431E03183208325EC30E03587248778
:102C600024EC30E03787268720EC30E0318B208B56
:102C700021EC30E0338B228B22EC30E0358B248B3F
:102C800026EC30E0378B268B118E128E138E148E2D
:102C9000E9EAF5E01382128284839583A683B783E1
:102CA0008AE591E0918380836CE873E088ED96E09B
:102CB0000E94520362EA73E082ED96E00E945203A2
:102CC0006DEA73E08CEC96E00E9452036BEB73E0CC
:102CD00086EC96E00E94520362EC73E080EC96E092
:102CE0000E94520369E08BEA96E00E94CE1566E0EE
:102CF00086E996E00E94CE1565E081E896E00E94A4
:102D0000CE1563E08CE696E00E94CE1568E089E57A
:102D100096E00E94511567E086E496E00E94511506
:102D200064E083E396E00E94511562E080E296E061
:102D30000E94511583E1E9E5F6E0A4EDB5E00190CC
:102D40000D928A95E1F783E1E6E4F6E0A7EEB5E0BF
:102D500001900D928A95E1F783E1E3E3F6E0AAEFB3
:102D6000B5E001900D928A95E1F783E1E0E2F6E0AB
:102D7000ADE0B6E001900D928A95E1F7E5EBF5E064
:102D80001082118212821382148215821682178297
:102D90001086118612861386148615861686108A6A
:102DA0001786128A118A148A138A168A158A108E37
:102DB000178A128E118E148E138E168E158E08950C
:102DC000BB274A3031F4992322F4BDE290958195D6
:102DD0009F4F0C94EC16BB27FB015527AA27880FA1
:102DE000991FAA1FA41710F0A41B83955051B9F77F
:102DF000A05DAA3308F0A95DA193009779F7B111FE
:102E0000B1931192CB010C940517DC01FC01672FE3
:102E100071917723E1F7329704C07C916D937083B1
:102E20006291AE17BF07C8F308952F923F924F9259
:102E30005F926F927F928F929F92AF92BF92CF924A
:102E4000DF92EF92FF920F931F93CF93DF93CDB753
:102E5000DEB7CA1BDB0B0FB6F894DEBF0FBECDBFCB
:102E600009942A88398848885F846E847D848C849C
:102E70009B84AA84B984C884DF80EE80FD800C81A5
:102E80001B81AA81B981CE0FD11D0FB6F894DEBF88
:102E90000FBECDBFED010895A1E21A2EAA1BBB1BE8
:102EA000FD010DC0AA1FBB1FEE1FFF1FA217B30716
:102EB000E407F50720F0A21BB30BE40BF50B661F2C
:102EC000771F881F991F1A9469F7609570958095F0
:102ED00090959B01AC01BD01CF010895EE0FFF1F3E
:102EE0000590F491E02D09940F931F93CF93DF93F6
:102EF0008230910510F482E090E0E091F006F091CC
:102F0000F10620E030E0A0E0B0E0309719F1408118
:102F100051810281138148175907C8F0841795071A
:102F200069F4109731F012960C93129713961C9334
:102F300027C00093F0061093F10622C02115310539
:102F400019F04217530718F49A01BD01EF01DF0190
:102F5000F801DBCF21153105F9F0281B390B24309E
:102F6000310580F48A819B816115710521F0FB0197
:102F70009383828304C09093F1068093F006FE0150
:102F8000329644C0FE01E20FF31F819391932250C9
:102F90003109398328833AC02091EE063091EF063B
:102FA000232B41F420912101309122013093EF062F
:102FB0002093EE0620911F0130912001211531054B
:102FC00041F42DB73EB74091230150912401241BB9
:102FD000350BE091EE06F091EF06E217F307A0F44F
:102FE0002E1B3F0B2817390778F0AC014E5F5F4F5F
:102FF0002417350748F04E0F5F1F5093EF0640939C
:10300000EE068193919302C0E0E0F0E0CF01DF9102
:10301000CF911F910F910895CF93DF93009709F4FB
:1030200081C0FC01329713821282A091F006B09108
:10303000F106109781F420813181820F931F209136
:10304000EE063091EF062817390751F5F093EF0699
:10305000E093EE0667C0ED0120E030E0CE17DF0719
:1030600040F44A815B819E0141155105F1F0EA016E
:10307000F5CFD383C28340815181840F951FC81738
:10308000D90759F488819981840F951F02969183FD
:1030900080838A819B81938382832115310529F462
:1030A000F093F106E093F0063DC0E901FB83EA836B
:1030B00049915991C40FD51FEC17FD0761F4808128
:1030C0009181840F951F0296E901998388838281FB
:1030D00093819B838A83E0E0F0E012968D919C912E
:1030E0001397009719F0FD01DC01F7CF8D919C91AA
:1030F00011979D012E5F3F4F820F931F2091EE0687
:103100003091EF062817390769F4309729F41092A7
:10311000F1061092F00602C013821282B093EF06FD
:10312000A093EE06DF91CF910895A0E0B0E0EBE927
:10313000F8E10C941917EC01009721F4CB010E94DF
:103140007417B4C0FC01E60FF71F9C01225031092F
:10315000E217F30708F4A8C0D9010D911C9111974B
:1031600006171707B0F00530110508F49BC0C80119
:1031700004978617970708F495C002501109061B9B
:10318000170B019311936D937C93CF010E940C1840
:1031900089C05B01A01AB10A4C01800E911EA0915A
:1031A000F006B091F106612C712CE12CF12C1097F6
:1031B00009F446C08D919C911197A815B905B1F5F8
:1031C0006C0142E0C40ED11CCA14DB0478F14C013E
:1031D0008A189B08640142E0C40ED11C1296BC9070
:1031E00012971396AC91B5E0CB16D10440F0B282A1
:1031F000A38391828082D9016D937C9309C00E5F75
:103200001F4F800F911FF90191838083EB2DFA2FBF
:10321000E114F10431F0D7011396FC93EE93129769
:1032200041C0F093F106E093F0063CC068167906C1
:1032300008F43C017D0112960D90BC91A02DB7CFF2
:103240008091EE069091EF0688169906E1F46616D5
:103250007706C8F480911F0190912001009741F4F6
:103260008DB79EB74091230150912401841B950B8B
:10327000E817F907C8F4F093EF06E093EE06F901BA
:10328000718360830FC0CB010E9474177C0100978B
:1032900059F0A801BE010E946D19CE010E940C18C0
:1032A000C70104C0CE0102C080E090E0CDB7DEB718
:1032B000EEE00C94351781E090E0F8940C949519A9
:1032C000FB01DC0104C08D910190801921F4415073
:1032D0005040C8F7881B990B0895FB01DC0102C020
:1032E00001900D9241505040D8F70895FB01DC0148
:1032F0008D91019080190110D9F3990B0895FB016C
:10330000DC0101900D920020E1F70895FB01DC0142
:103310004150504048F001900D920020C9F701C083
:103320001D9241505040E0F7089510E0C7EBD0E007
:1033300004C0FE010E946E172196C83BD107C9F751
:04334000F894FFCF2F
:103344000000FF06FAD5FFFFFFFFFFFF41480053CF
:103354004400474600000000010000FF00FF000099
:1033640000F2062000010101010001010100000139
:10337400000200030004000500060007006B006C57
:10338400006D0000000000007501E2000C01C201A4
:103394003D011B012F010000000093026602C302DD
:1033A4003A025E024A023B020A53455455500A004F
:1033B40053595300536574757020426567696E00F4
:1033C40057445420656E6461626C6564004C4544E6
:1033D4003A202E2E2E2000676F6C64004C45443A30
:1033E400204F4B21004932433A202E2E2E200073C9
:1033F40075636365737366756C6C79207363616E52
:103404006E656420493243004932433A204F4B21D0
:1034140000524649443A202E2E2E2000696E6974CB
:1034240069616C697A696E67207265616465723A74
:103434002000504E353332207374617274757020DD
:1034440074696D6564206F75742C20726573746182
:103454007274696E6700466F756E64206368697084
:1034640020504E35004669726D776172652076652D
:10347400722E2000524649443A204F4B21005246B6
:1034840049443A204641494C4544210052656C6107
:10349400793A202E2E2E2000696E697469616C6958
:1034A4007A696E672072656C617900202020202083
:1034B4000052656C6179205B005D20736574207433
:1034C4006F20007375636365737366756C6C792024
:1034D400696E697469616C697A65642072656C618E
:1034E400790052656C61793A204F4B210053657421
:1034F400757020436F6D706C6574650046616C7304
:1035040065204361726421007265616420666169AB
:103514006C65640052656164696E67206661696CFC
:1035240065642C2064697363617264696E672063E7
:10353400617264004361726473204368616E6765FD
:1035440064005F5F00556B0021436F7272656374A2
:10355400002157726F6E670047415445204F504514
:103564004E0057616974696E6720666F72206E65DC
:10357400772047616D652100526573746172742010
:10358400696E207265717569726564210047616DA9
:103594006520436F6D706C657465004469646E27C3
:1035A400742066696E6420504E35337820626F61F2
:1035B400726400585800677265656E00626C6163DE
:1035C4006B00776869746500726564005374757480
:1035D40074676172742047616C6C65727920412F45
:1035E400420030322E30322E323032310076657263
:1035F40073696F6E20312E30535400427252464923
:10360400440055564C000D0A002C002C446F6E6586
:023614002E0086
:00000001FF
