:100000000C94B8000C94E0000C94E0000C94D10522
:100010000C94AC050C9487050C94E0000C94E00063
:100020000C94E0000C94E0000C94E0000C94E000D0
:100030000C94E0000C94E0000C94E0000C94E000C0
:100040000C941B0F0C94E0000C94B1030C948B03E4
:100050000C94E0000C94E0000C94E0000C94E000A0
:100060000C946D060C94E000206465766963652845
:1000700073292E00466F756E642000202D3E20539C
:100080006572766F2D4932432D426F617264002094
:100090002D3E2052656C617900202D3E204469730D
:1000A000706C617900202D3E20496E7075742D4969
:1000B00032432D626F61726400202D3E204C434418
:1000C0002D4932432D426F61726400202D3E204C39
:1000D00043440029002028307800466F756E642064
:1000E000616464726573733A20005363616E6E6974
:1000F0006E672E2E2E00493243207363616E6E654B
:10010000723A0052657374617274696E6720696E29
:10011000000000000023002600290001020408104E
:100120002040800102040810200102040810200071
:10013000000000250028002B00040404040404042B
:10014000040202020202020303030303030000008D
:1001500000240027002A000000000800020100001F
:100160000304070000000000000000009A17AB160F
:1001700011241FBECFEFD8E0DEBFCDBF26E0A2ED39
:10018000B3E001C01D92A83FB207E1F713E0A0E081
:10019000B1E0E0E4F6E302C005900D92A23DB107A4
:1001A000D9F710E0C7EBD0E004C02197FE010E9410
:1001B000EC18C63BD107C9F70E94650F0C94131BBE
:1001C0000C940000CF92DF92EF92FF920F931F9357
:1001D000CF93DF936C017A018B01C0E0D0E0CE15A4
:1001E000DF0581F0D8016D918D01D601ED91FC9173
:1001F0000190F081E02DC6010995892B11F021961F
:10020000EECF7E01C701DF91CF911F910F91FF903B
:10021000EF90DF90CF900895FC01538D448D252FF2
:1002200030E0842F90E0821B930B541710F0CF9690
:10023000089501970895FC01918D828D981761F0C2
:10024000828DDF01A80FB11D5D968C91928D9F5F0D
:100250009F73928F90E008958FEF9FEF0895FC01B8
:10026000918D828D981731F0828DE80FF11D858D6B
:1002700090E008958FEF9FEF0895FC01918D228DFE
:10028000892F90E0805C9F4F821B91098F73992783
:10029000089582E195E00E943D0121E0892B09F457
:1002A00020E0822F0895FC01848DDF01A80FB11D8D
:1002B000A35ABF4F2C91848D90E001968F7399279C
:1002C000848FA689B7892C93A089B1898C9183707A
:1002D00080648C93938D848D981306C00288F38973
:1002E000E02D80818F7D80830895EF92FF920F93A0
:1002F0001F93CF93DF93EC0181E0888F9B8D8C8DD2
:10030000981305C0E889F989808185FD26C0F62EFD
:100310000B8D10E00F5F1F4F0F731127E02E8C8D98
:10032000E8120CC00FB607FCFACFE889F989808182
:1003300085FFF5CFCE010E945301F1CF8B8DFE01D9
:10034000E80FF11DE35AFF4FF0829FB7F8940B8F2F
:10035000EA89FB89808180620AC09FB7F894EE89A0
:10036000FF896083E889F989808183708064808354
:100370009FBF81E090E0DF91CF911F910F91FF909F
:10038000EF900895CF93DF93EC01888D8823C9F017
:10039000EA89FB89808185FD05C0A889B9898C918E
:1003A00086FD0FC00FB607FCF5CF808185FFF2CF29
:1003B000A889B9898C9185FFEDCFCE010E945301A8
:1003C000E7CFDF91CF91089580E090E0892B29F06D
:1003D0000E94490181110C940000089590E0FC01F5
:1003E000EE0FFF1FEB5EFE4FA591B4912C91FC0127
:1003F000E15AFB4F30812083880F991FFC01E35C99
:10040000FE4F0190F081E02D8081089540910C0411
:10041000262F30E0240F311D21323105DCF42091EC
:100420000C052430C9F4FC0180E090E0861758F4F4
:1004300030910C042191DC01A451BC4FA30FB11DDC
:100440002C930196F3CF80910C04680F60930C04F9
:1004500080E0089581E0089582E008950895089568
:100460000895E091ED068091EC06E81730F4F0E095
:10047000E451FB4F808190E008958FEF9FEF089546
:100480009091ED068091EC06981750F4E92FF0E07A
:10049000E451FB4F208130E09F5F9093ED0602C056
:1004A0002FEF3FEFC90108958091EC0690E0209175
:1004B000ED06821B91090895CF92DF92EF92FF9291
:1004C0000F931F93CF93DF937C01CB018A0120917F
:1004D000A204222389F0EB016B01C40ED51ECC15BA
:1004E000DD0569F06991D701ED91FC910190F081F2
:1004F000E02DC7010995F3CF642F0E940602C801C1
:10050000DF91CF911F910F91FF90EF90DF90CF90EF
:100510000895CF93DF931F92CDB7DEB76983209103
:10052000A2042223D1F02091C504203240F021E022
:1005300030E0FC013383228380E090E015C080919D
:10054000A304E82FF0E0EC55FB4F998190838F5F77
:100550008093A3048093C50405C061E0CE01019699
:100560000E94060281E090E00F90DF91CF91089504
:10057000089580E090E008950E94D91AFC0124813A
:100580003581232B31F421E061157105A1F0FB01C8
:1005900008C0FC01808191816115710531F421E071
:1005A000FC018081882339F005C00E94F41A21E003
:1005B000892B09F020E0822F08950F931F93CF938A
:1005C000DF93EC0188819981009729F02A813B8192
:1005D0002617370788F48B016F5F7F4F0E94131A2D
:1005E000009761F0998388831B830A832C813D8166
:1005F000232B11F4FC01108281E001C080E0DF9127
:10060000CF911F910F910895FC01808191810097F6
:1006100011F00C948A190895EF92FF920F931F9393
:10062000CF93DF93EC01198218821B821A821D82FC
:100630001C828617970741F1FB010081118101158A
:10064000110511F1E480F580B7010E94DD022881D7
:10065000398181110DC02115310519F0C9010E94A0
:100660008A19198218821D821C821B821A820CC070
:10067000FD82EC82B801C901DF91CF911F910F91EA
:10068000FF90EF900C94FD1ADF91CF911F910F9185
:10069000FF90EF900895EF92FF920F931F93CF93E7
:1006A000DF93EC01198218821B821A821D821C8240
:1006B0006115710549F18B01FB0101900020E9F7FB
:1006C00031977F01E61AF70AB7010E94DD022881FF
:1006D000398181110DC02115310519F0C9010E9420
:1006E0008A19198218821D821C821B821A820CC0F0
:1006F000FD82EC82B801C901DF91CF911F910F916A
:10070000FF90EF900C94FD1ADF91CF911F910F9104
:10071000FF90EF9008951F920F920FB60F92112441
:100720002F933F934F935F936F937F938F939F93F9
:10073000AF93BF93EF93FF9382E195E00E94530143
:10074000FF91EF91BF91AF919F918F917F916F91A9
:100750005F914F913F912F910F900FBE0F901F907F
:1007600018951F920F920FB60F9211242F938F930B
:100770009F93EF93FF93E0912205F09123058081F1
:10078000E0912805F091290582FD12C090818091A9
:100790002B058F5F8F7320912C05821751F0E0910C
:1007A0002B05F0E0EE5EFA4F958F80932B0501C08C
:1007B0008081FF91EF919F918F912F910F900FBEAC
:1007C0000F901F901895CF92DF92EF92FF920F93A8
:1007D0001F93CF93DF931F92CDB7DEB76B01142F1A
:1007E000FC0181899289E42EF12C009751F023E0DD
:1007F00029839701AB01BE016F5F7F4F0E94B60A4C
:100800002AC062E070E080E090E00E94AD0E62E0FD
:10081000610F613208F060E284E20E94EF081092FA
:10082000ED068093EC068FEA95E00E944002860177
:10083000EC0CFD1CE016F10671F061E070E080E068
:1008400090E00E94AD0E8FEA95E00E944002F80110
:1008500081938F01EFCF0F90DF91CF911F910F9177
:10086000FF90EF90DF90CF9008958F929F92AF927C
:10087000BF92CF92DF92EF92FF920F931F93CF938D
:10088000DF9300D0CDB7DEB77C016B0100E010E054
:10089000AA24A39492E0992EF70181899289009766
:1008A00091F09A8221E030E0AE014F5F5F4FBE01D0
:1008B0006E5F7F4F0E94B60A81E09981913009F402
:1008C00035C080E024C0F701208130E0F901E95A09
:1008D000FE4F8491F901E55EFE4FB490F901E75CAB
:1008E000FE4F8490882079F081110E94F40DE82D4C
:1008F000F0E0EE0FFF1FEF5EFE4FA591B491EC917B
:10090000BE2281E009F480E08A25817079F4C11467
:10091000D10429F0065F1F4FC016D10638F06AE0F7
:1009200070E080E090E00E94AD0EB6CF0F900F9087
:10093000DF91CF911F910F91FF90EF90DF90CF90BB
:10094000BF90AF909F908F900895682F8FEA95E0A9
:100950000C948902CF92DF92EF92FF920F931F9334
:10096000CF93DF93CDB7DEB729970FB6F894DEBFEC
:100970000FBECDBF8C01DC0118968D919C9119970B
:10098000892B09F4A3C00E94880EF801C684D7847D
:10099000E088F188DC01CB018C199D09AE09BF0903
:1009A0008C329140A105B10570F3F894D8011496EA
:1009B0008D919C9115979A8389831896ED91FC915E
:1009C00019977F01BFEFEB1AFB0A80818987F80135
:1009D00090810288F389E02DD80154968C91992357
:1009E00009F430C09081982B988790818095892355
:1009F0008F838F818C8388E08B8358856F814985B5
:100A00003B812C8189819A81D701508347FD252F15
:100A10003A952083262F39F0441F00C000006083E0
:100A2000000000C0F2CF38E04D91608300000197D4
:100A300061F7D8015396FC93EE93529749873B8315
:100A40002C833AC09081982B988790818095892338
:100A50008F838F818E8388E08D8358856F81498550
:100A60003D812E8189819A81D701508347FD252FB1
:100A700000C000C0208300C000C000C000C000C093
:100A800060830000262F3A9541F0441F000000C00B
:100A900000C000C000C000C0E8CF38E04D9100C0E9
:100AA000608300C0019709F7D8015396FC93EE9339
:100AB000529749873D832E839A83898378940E9435
:100AC000880EF80166877787808B918B29960FB601
:100AD000F894DEBF0FBECDBFDF91CF911F910F9174
:100AE000FF90EF90DF90CF900895CF93DF93EC01CC
:100AF0008E8187FD07C061E00E944C0E60E08E8110
:100B00000E941D0E81E08983DF91CF9108951F928D
:100B10000F920FB60F9211242F933F934F935F9331
:100B20006F937F938F939F93AF93BF93EF93FF93B5
:100B300082E00E94EE01FF91EF91BF91AF919F91F2
:100B40008F917F916F915F914F913F912F910F9076
:100B50000FBE0F901F9018951F920F920FB60F9215
:100B600011242F933F934F935F936F937F938F93B2
:100B70009F93AF93BF93EF93FF9381E00E94EE01A9
:100B8000FF91EF91BF91AF919F918F917F916F9165
:100B90005F914F913F912F910F900FBE0F901F903B
:100BA00018951F920F920FB60F9211242F933F9317
:100BB0004F935F936F937F938F939F93AF93BF9365
:100BC000EF93FF9380E00E94EE01FF91EF91BF91C0
:100BD000AF919F918F917F916F915F914F913F91D5
:100BE0002F910F900FBE0F901F90189510920C052B
:100BF00081E08093EB041092E60461E082E10E94C0
:100C00001D0E61E083E10E941D0EE9EBF0E08081A2
:100C10008E7F808380818D7F808388E48093B8007D
:100C200085E48093BC000895CF93DF9391E0909387
:100C3000EB038823B9F0C091B800D091BA0080913D
:100C4000BC008A7B8093BC0060E082E10E941D0EA4
:100C500060E083E10E941D0E0E94F605D093BA0069
:100C6000C093B800DF91CF91089585ED8093BC00CB
:100C700080910E0590910F05A0911005B09111057E
:100C80000796A11DB11D23E0B695A7959795879569
:100C90002A95D1F72091BC0024FF1CC040910E057D
:100CA00050910F056091100570911105452B462B51
:100CB000472B81F30097A105B10541F025E32A9563
:100CC000F1F700000197A109B109E4CF80910D056A
:100CD0000C94140610920C0508951F920F920FB6F3
:100CE0000F9211242F933F934F935F936F937F93B2
:100CF0008F939F93AF93BF93EF93FF938091B9002E
:100D0000887F803609F49CC068F5883209F45BC09E
:100D100090F4803109F454C038F4882309F4F6C003
:100D2000883009F44DC0F6C0883109F44CC08032D7
:100D300009F45DC0EFC0803409F468C048F4803322
:100D400009F455C0883309F0E5C08093EA04D8C09F
:100D5000803509F44FC0883509F45DC0883409F046
:100D6000D9C0D6C0883909F4C7C0A8F4883709F4B7
:100D700067C038F4883609F463C0803709F460C06E
:100D8000C9C0883809F4B8C0803909F45FC0803818
:100D900009F0C0C05BC0803B09F486C038F4803ADB
:100DA00009F466C0883A09F47FC0B4C0803C09F4F5
:100DB000A7C0883C09F4A4C0883B09F48AC0AAC033
:100DC0008091E70410C09091E9048091E80498179D
:100DD00070F5E091E90481E08E0F8093E904F0E082
:100DE000EA53FB4F80818093BB0085EC86C08093E3
:100DF000EA048EC0E091E90481E08E0F8093E9045B
:100E00008091BB00F0E0EA53FB4F80839091E904AE
:100E10008091E8046EC0E091E90481E08E0F809338
:100E2000E9048091BB00F0E0EA53FB4F808380919E
:100E3000EB0481116DC081E08093E60484EA61C017
:100E400083E080930C0510922E04CFCF80912E0466
:100E5000803208F051C0E0912E0481E08E0F809323
:100E60002E048091BB00F0E0E25FFB4F8083BDCF9A
:100E700085EC8093BC0010920C0580912E0480328A
:100E800030F4E0912E04F0E0E25FFB4F10826091BD
:100E90002E0470E0E091E806F091E9068EE094E01F
:100EA000099510922E0436C084E080930C051092B0
:100EB0000D0410920C04E091EA06F091EB060995FE
:100EC00080910C04811105C081E080930C04109284
:100ED000EC03E0910D0481E08E0F80930D04F0E0AF
:100EE000E451FC4F80818093BB0090910D04809170
:100EF0000C04981708F479CF85E88093BC000AC0E9
:100F000085EC8093BC0010920C0504C01092EA049A
:100F10000E943506FF91EF91BF91AF919F918F9104
:100F20007F916F915F914F913F912F910F900FBEE5
:100F30000F901F901895EF92FF921F93CF93DF931E
:100F400000D000D000D0CDB7DEB782EDE82E83E030
:100F5000F82EF70121E080E090E041915191840F5B
:100F6000951F452B09F420E033E0E83DF307A9F78E
:100F700010E00697A1F466E773E0CE0101960E94A7
:100F80004B03BE016F5F7F4F812F0E946908CE0126
:100F900001960E9404031F5F133069F732C02111CC
:100FA0001DC0F701819191917F01892B19F46CE7A4
:100FB00073E002C062E873E0CE0101960E944B0329
:100FC000BE016F5F7F4F812F0E946908CE0101969D
:100FD0000E9404031F5F133021F713C068E873E019
:100FE000CE0101960E944B03BE016F5F7F4F812FA0
:100FF0000E946908CE0101960E9404031F5F13300E
:1010000069F726960FB6F894DEBF0FBECDBFDF910D
:10101000CF911F91FF90EF900895BF92CF92DF92F2
:10102000EF92FF920F931F93CF93DF93FC01828186
:101030009381892B09F443C06B01EE24FF24BC2C5F
:10104000052F162F272F3327B02FA42F8781882312
:1010500061F0C89E60011124BD2C809F8001112485
:10106000B12F849F90011124A32F9585D2852085CF
:1010700031859D17A1F0472F5527662777278901CE
:10108000090F111D882349F090E0849F7001859F0E
:10109000F00C949FF00C11244F2DE80148838285B9
:1010A000A901480F511DEA01B8828385E901C80FE3
:1010B000D11DB8838485F901E80FF11DA083DF916C
:1010C000CF911F910F91FF90EF90DF90CF90BF9045
:1010D00008950F931F93CF93C82F8B0168E873E097
:1010E000C8010E94BE02811119C066E773E0C80101
:1010F0000E94BE02811117C062E873E0C8010E941D
:10110000BE02811115C067E971E0C8010E94BE02EC
:10111000811113C040E050E0BA0113C040E050E03C
:101120006FEF70E00EC040E05FEF60E070E009C07C
:101130004FEF5FEF6FEF70E004C040E056E46FEFF9
:1011400070E0C11107C081EB96E00E940D0881EBB1
:1011500096E01AC0C13039F48CE996E00E940D087F
:101160008CE996E011C0C23039F487E896E00E941D
:101170000D0887E896E008C0C33059F482E796E08E
:101180000E940D0882E796E0CF911F910F910C9479
:10119000AA04CF911F910F910895009769F0FC0167
:1011A00001900020E9F73197AF01481B590BBC01B2
:1011B00082E195E00C94E20080E090E0089586ECF6
:1011C00093E00C94CD08CF93DF930E94CD08EC01FF
:1011D0000E94DF088C0F9D1FDF91CF9108958F92A1
:1011E0009F92AF92BF92CF92DF92EF92FF920F93B6
:1011F0001F93CF93DF93F82ED62F613208F0BBC038
:101200000E94880E4B015C01C0910C05CC2331F18A
:1012100080910E0590910F05A0911005B0911105D8
:10122000892B8A2B8B2B81F30E94880E00910E054F
:1012300010910F052091100530911105DC01CB01B3
:1012400088199909AA09BB09081719072A073B0732
:10125000D8F680910D050E9414068DC081E0809320
:101260000C058093EB049FEF9093EA041092E9043D
:101270009D0F9093E8048093E7049091E7048F2DED
:10128000880F892B8093E7048091E604813089F5EB
:101290001092E6040E94880E6B017C018091E704A5
:1012A0008093BB0080910E0590910F05A0911005D1
:1012B000B0911105892B8A2B8B2BA9F00E94880EE7
:1012C00080900E0590900F05A0901005B09011052C
:1012D000DC01CB018C199D09AE09BF09881699065E
:1012E000AA06BB0690F18091BC0083FDD7CF85ECA8
:1012F00001C085EE8093BC000E94880E6B017C01CA
:1013000080910C05813031F580910E0590910F058B
:10131000A0911005B0911105892B8A2B8B2B81F39D
:101320000E94880E80900E0590900F05A0901005E9
:10133000B0901105DC01CB018C199D09AE09BF09E4
:1013400088169906AA06BB06D8F680910D050E945C
:10135000140612C08091E9048D1710F4D091E904AD
:10136000E6ECF4E0ACEEB4E0C0E0CD1729F08191FA
:101370008D93CF5FFACFC0E08C2FDF91CF911F917B
:101380000F91FF90EF90DF90CF90BF90AF909F9024
:101390008F9008958F929F92AF92BF92CF92DF92DB
:1013A000EF92FF920F931F93CF93DF931091C50499
:1013B000113208F0C2C0082FD091C4040E94880ED8
:1013C0006B017C01C0910C05CC2311F180910E05BD
:1013D00090910F05A0911005B0911105892B8A2BD2
:1013E0008B2B81F30E94880E80900E0590900F0544
:1013F000A0901005B0901105DC01CB018C199D095E
:10140000AE09BF0988169906AA06BB06D8F681C0A0
:1014100082E080930C050093EB048FEF8093EA0445
:101420001092E9041093E804A4EAB4E0E6ECF4E0D6
:1014300080E0181721F09D9191938F5FFACF109261
:10144000E7049091E7048D2F880F892B8093E704A0
:101450008091E604813089F51092E6040E94880E9E
:101460006B017C018091E7048093BB0080910E05A5
:1014700090910F05A0911005B0911105892B8A2B31
:101480008B2BA9F00E94880E00910E0510910F057C
:101490002091100530911105DC01CB018C199D09BB
:1014A000AE09BF09081719072A073B0790F1809179
:1014B000BC0083FDD7CF85EC01C085EE8093BC00D6
:1014C0000E94880E6B017C0180910C05823039F5F9
:1014D00080910E0590910F05A0911005B091110516
:1014E000892B8A2B8B2B81F30E94880E00910E058D
:1014F00010910F052091100530911105DC01CB01F1
:101500008C199D09AE09BF09081719072A073B075F
:10151000D8F680910D050E941406C5E013C0809195
:10152000EA048F3F79F08091EA04803241F08091A3
:10153000EA04803331F0C4E005C0C1E003C0C2E07A
:1015400001C0C3E01092A3041092C5041092A2043B
:101550008C2FDF91CF911F910F91FF90EF90DF9033
:10156000CF90BF90AF909F908F900895CF92DF92D1
:10157000EF92FF920F931F93CF93DF93EC018B01B8
:101580006A01790188819981892B31F0EA81FB8197
:10159000808191810E94F10D60E08B850E941D0E7B
:1015A000F8016081CE010E943A0D8601EC0CFD1C11
:1015B000E016F10641F06FEFCE010E943A0DF801FE
:1015C00081938F01F5CF61E08B850E941D0E81E034
:1015D000DF91CF911F910F91FF90EF90DF90CF900F
:1015E00008952F923F924F925F926F927F928F92C7
:1015F0009F92AF92BF92CF92DF92EF92FF920F93A2
:101600001F93CF93DF93CDB7DEB727970FB6F8942C
:10161000DEBF0FBECDBF7C014A012DB63EB6DC0158
:101620005196CD90DC90529766246394660EC11457
:10163000D10409F472C04DB65EB670E0685F7F4FAA
:10164000EDB7FEB7E61BF70B0FB6F894FEBF0FBE63
:10165000EDBF0DB71EB70F5F1F4F81E08183D8012B
:1016600011961C92119712961C9212978FEF139657
:101670008C93139714966C921497862D81951596DA
:101680008C93159784ED16968C934DB75EB7485F93
:101690005F4FFA0163ED712C9301215031098E2FB8
:1016A000841B90E0821793073CF4DC01AE59BB4FDA
:1016B0008C918193680FF3CF609560831182B8E0BD
:1016C0006B0E711CF60180819181892B39F00280AB
:1016D000F381E02D808191810E94F10D60E0D601BF
:1016E0001B968C910E941D0E5801F50161915F01BE
:1016F000C6010E943A0DC501801B910B8615970506
:10170000A0F361E0D6011B968C910E941D0E0FB6CE
:10171000F8945EBE0FBE4DBE44C062E070E080E053
:1017200090E00E94AD0E81E08093A20484E2809359
:10173000C4041092A3041092C50480E00E94A50482
:1017400080E00E94A5048FEF0E94A504862D0E94D0
:10175000A504862D81950E94A50484ED0E94A50410
:10176000C12C83EDD82E712CB1E06B1A71080C2DB1
:1017700010E0061517055CF40E591B4FF801808127
:101780000E94A504D8018C91D80EC394F0CF8D2D62
:1017900080950E94A50480E00E94A50481E00E943B
:1017A000CA09B401C7010E943504182F811102C073
:1017B00010E02FC0F70181899289009769F023E03A
:1017C0002F8326E030E0AE014F5F5F4FBE01695FBF
:1017D0007F4F0E94B60A07C046E0BE016F5F7F4F91
:1017E000C7010E94E30346E050E069E171E0CE01E9
:1017F00001960E94DE1A892BD9F6D70151968D9158
:101800009C915297892B29F0B401C7010E9435049D
:10181000182F812F0FB6F8943EBE0FBE2DBE27960F
:101820000FB6F894DEBF0FBECDBFDF91CF911F91F1
:101830000F91FF90EF90DF90CF90BF90AF909F906F
:101840008F907F906F905F904F903F902F90089572
:101850008230910538F0880F991F880F991F0597DE
:101860000197F1F70895FC014481558160817181F0
:1018700082E195E00C94E2008F929F92AF92BF922A
:101880000F931F93CF93DF93CDB7DEB7A1970FB61A
:10189000F894DEBF0FBECDBF19A2423008F44AE073
:1018A0008E010F5D1F4F842E912CA12CB12CA50110
:1018B00094010E94CA18E62FB901CA01015011090A
:1018C000EA3014F4E05D01C0E95CD801EC93232B0D
:1018D000242B252B61F7C8010E94CD08A1960FB6D5
:1018E000F894DEBF0FBECDBFDF91CF911F910F9156
:1018F000BF90AF909F908F9008950C94CD08CF9299
:10190000DF92EF92FF92CF93DF936B017C016DE248
:1019100082E195E00E947501EC0166277727CB01F3
:101920006C197D098E099F094AE00E943C0C8C0FBE
:101930009D1FDF91CF91FF90EF90DF90CF900895A2
:10194000EBEBF5E0918162818081238131E030937E
:10195000A2042093C4041092A3041092C5046095BD
:101960006923682B8FEA95E00E94890281E00C943C
:10197000CA091092ED061092EC061092A304109280
:10198000C5040E94F6058EE292E09093EB068093E8
:10199000EA068FE292E09093E9068093E8060895C4
:1019A0000F931F93CF93DF938C01C0E0D0E0F80139
:1019B000EC0FFD1F6491662341F082E195E00E94E7
:1019C0007501892B11F02196F2CFCE01DF91CF91D5
:1019D0001F910F910895CF93DF930E94D00CEC01DB
:1019E0000E94DF088C0F9D1FDF91CF910895EF9229
:1019F000FF920F931F93CF93DF936115710511F43D
:101A000080E01CC041155105C1F07B01EC018C81C7
:101A10009D818A01080F191FB801CE010E94DD02C5
:101A2000882371F3288139818C819D81B701820FD0
:101A3000931F0E94FD1A1D830C8381E0DF91CF91DB
:101A40001F910F91FF90EF9008956115710551F06E
:101A5000FB0101900020E9F73197AF01461B570BBE
:101A60000C94F70C80E008958FB7F8948091F306FA
:101A70008FBF0895AF92BF92CF92DF92EF92FF9205
:101A80000F931F93CF93DF93EC0188819981892B6A
:101A900031F06EBD0DB407FEFDCFAEB496C08885A3
:101AA0009985892B11F010E801C011E0BB24B39493
:101AB000862F812309F0B12C062F2C813D814E8188
:101AC0005F8160E271EA87E090E00E94CA18F22E1E
:101AD000A02EE12CC22ED12CFF2019F0C6010E94AD
:101AE000280C8A85877FB9F58D858F3FB9F0902FB7
:101AF000912381E009F480E0B81681F0EF85F88940
:101B00008F89992331F09081892B8083BB24B394F2
:101B100005C09081809589238083B12CE989FA8959
:101B20009081898D892B8083FF2019F0C6010E9446
:101B3000280C8E858F3F39F0EB89FC899081888D48
:101B4000892309F0E12AE989FA899081898D8095B4
:101B5000892380832CC0E989FA899081898D892B1A
:101B60008083FF2019F0C6010E94280C8D858F3FCD
:101B700069F0EF85F8898F89902F912319F0908172
:101B8000892B03C09081809589238083E989FA8914
:101B90009081898D8095892380838E858F3F39F050
:101BA000EB89FC899081888D892309F0E12A8E8553
:101BB0008F3F09F0AE2C88859985892B21F4110F70
:101BC00011118ACF02C01695FBCF8A2DDF91CF91DC
:101BD0001F910F91FF90EF90DF90CF90BF90AF904B
:101BE00008958CBD9DBD0895833081F028F4813027
:101BF00099F08230A1F008958730A9F08830B9F0CB
:101C00008430D1F4809180008F7D03C0809180006A
:101C10008F7780938000089584B58F7702C084B554
:101C20008F7D84BD08958091B0008F7703C080912F
:101C3000B0008F7D8093B00008951F93CF93DF9302
:101C4000282F30E0F901E95AFE4F8491F901E55E51
:101C5000FE4FD491F901E75CFE4FC491CC23C1F053
:101C6000162F81110E94F40DEC2FF0E0EE0FFF1FF4
:101C7000E15DFE4FA591B4919FB7F894111104C096
:101C80008C91D095D82302C0EC91DE2BDC939FBFC2
:101C9000DF91CF911F910895CF93DF9390E0FC01E6
:101CA000E55EFE4F2491FC01E75CFE4F84918823A2
:101CB00061F190E0880F991FFC01E35BFE4FC59135
:101CC000D491FC01E15DFE4FA591B491611109C071
:101CD0009FB7F8948881209582238883EC912E23E6
:101CE0000BC0623061F49FB7F8948881322F309531
:101CF00083238883EC912E2B2C939FBF06C08FB734
:101D0000F894E8812E2B28838FBFDF91CF9108951F
:101D10003FB7F8948091EF069091F006A091F106FC
:101D2000B091F20626B5A89B05C02F3F19F0019689
:101D3000A11DB11D3FBFBA2FA92F982F8827820F51
:101D4000911DA11DB11DBC01CD0142E0660F771FA1
:101D5000881F991F4A95D1F708958F929F92AF924D
:101D6000BF92CF92DF92EF92FF926B017C010E94B3
:101D7000880E4B015C01C114D104E104F104F1F0BF
:101D80000E94880EDC01CB0188199909AA09BB09B8
:101D9000883E9340A105B10570F321E0C21AD10835
:101DA000E108F10888EE880E83E0981EA11CB11CA2
:101DB000C114D104E104F10419F7DDCFFF90EF90D5
:101DC000DF90CF90BF90AF909F908F9008950F932A
:101DD0001F93CF93DF93EC018B0161E08EE00E94B3
:101DE0001D0E0E94DF088AE492E00E947D0C8CECBC
:101DF00096E00E94330C89EC93E00E947D0CC801B0
:101E00000E94330C89EC93E00E947D0CCE010E946D
:101E1000330C8BEC93E00E94E30862E370E080E017
:101E200090E00E94AD0E60E08EE0DF91CF911F91B7
:101E30000F910C941D0E1F920F920FB60F9211244A
:101E40002F933F938F939F93AF93BF938091E4061B
:101E50009091E506A091E606B091E7063091EE0676
:101E600023E0230F2D3720F40196A11DB11D05C0DD
:101E700026E8230F0296A11DB11D2093EE06809344
:101E8000E4069093E506A093E606B093E7068091FA
:101E9000EF069091F006A091F106B091F20601963E
:101EA000A11DB11D8093EF069093F006A093F1065B
:101EB000B093F206BF91AF919F918F913F912F9177
:101EC0000F900FBE0F901F901895CF93DF93CDB753
:101ED000DEB7E2970FB6F894DEBF0FBECDBF7894A1
:101EE00084B5826084BD84B5816084BD85B582601F
:101EF00085BD85B5816085BD80916E0081608093D0
:101F00006E00109281008091810082608093810038
:101F10008091810081608093810080918000816048
:101F2000809380008091B10084608093B1008091A3
:101F3000B00081608093B00080917A0084608093CB
:101F40007A0080917A00826080937A0080917A0092
:101F5000816080937A0080917A00806880937A0013
:101F60001092C1000E94B90CE0912205F091230566
:101F700082E08083E0911E05F0911F051082E091C0
:101F80002005F091210580E1808310922A05E091DF
:101F90002605F091270586E08083E0912405F091E5
:101FA0002505808180618083E0912405F0912505DD
:101FB000808188608083E0912405F09125058081EF
:101FC00080688083E0912405F091250580818F7DD4
:101FD000808360ED77E080E090E00E94AD0E61E0EC
:101FE0008EE00E944C0E88E691E00E94E30860E7D4
:101FF00071E09E012F5F3F4F3901C9010E944B03E1
:102000001E0131E1230E311C64E771E0C1010E9421
:102010004B03B301C1010E94E70EC1010E940403FA
:10202000C3010E94040380E891E00E94E30899E262
:1020300088E10FB6F894A895809360000FBE909346
:1020400060000E94DF088DE891E00E94E30810E044
:102050001230E1F0133031F1113061F081EB96E094
:102060000E94750567E971E0C3010E944B03B3014B
:1020700080E023C08CE996E00E94750567E971E075
:10208000C3010E944B03B30181E017C087E896E0CB
:102090000E94750567E971E0C3010E944B03B3011B
:1020A00082E00BC082E796E00E94750567E971E067
:1020B000C3010E944B03B30183E00E946908C3017E
:1020C0000E94040364E670E080E090E00E94AD0EA0
:1020D0001F5F143009F0BCCF64E670E080E090E050
:1020E0000E94AD0E10E040E050E0BA01111107C0AF
:1020F00081EB96E00E940D0881EB96E018C011304C
:1021000039F48CE996E00E940D088CE996E00FC046
:10211000123039F487E896E00E940D0887E896E0CF
:1021200006C082E796E00E940D0882E796E00E94D2
:10213000AA041F5F1430B9F68CE991E00E94E3080D
:10214000A8950E94DF0885EA91E00E94E30886EFE7
:1021500090E00E94EB0C8AEE90E00E94EB0C18E0FD
:10216000C12ED12CE12CF12C00E0BB24B3941C2D0A
:10217000B092A204C092C4041092A3041092C504A9
:1021800081E00E94CA0981113EC08AED90E00E9460
:10219000D00C4AE0C701B6010E943C0C85ED90E0EE
:1021A0000E94D00C40E1C701B6010E943C0C83EDB7
:1021B00090E00E94D00C173219F48BEC90E018C01C
:1021C000183319F489EB90E013C0193319F485EA38
:1021D00090E00EC01C3319F489E990E009C01F3368
:1021E00019F48FE890E004C0163121F48BE790E0F9
:1021F0000E94D00C0E94DF080F5F61E070E080E079
:1022000090E00E94AD0E8FEFC81AD80AE80AF80ACB
:1022100098E7C916D104E104F10409F0A8CF84E7D6
:1022200090E00E94D00C602F70E080E090E04AE0E7
:102230000E943C0C88E690E00E94EB0C8FEA91E053
:102240000E94E3080E94DF0888EC91E00E94E30806
:10225000A8950E94DF0881ED91E00E94E3080AED55
:1022600015E0812C912C5401F30127E011922A955D
:10227000E9F7A8958CED91E00E947D0C4AE0C5013C
:10228000B4010E943C0C0E94DF08F801E188F2884A
:10229000E114F10409F474C061E0F70183850E9440
:1022A0004C0E61E0F70183850E941D0EF7018081CD
:1022B0009181892B09F434C0DFB6F8948091D8035A
:1022C000811127C0E3E4F1E08491E5E2F1E094912B
:1022D000E82FF0E0EE0FFF1FE35BFE4FA591B491F6
:1022E0008C91982321F461E08AE00E941D0E61E048
:1022F0008AE00E944C0E8CB580618CBD8CB58064E8
:102300008CBD61E08DE00E944C0E61E08BE00E948C
:102310004C0E8091D8038F5F8093D803DFBE23C01B
:1023200061E0F70184850E944C0EF70182858B7F66
:1023300011F460E002C061E0F70184850E941D0E87
:10234000F70185858F3F41F061E00E944C0E61E00E
:10235000F70185850E941D0EF70186858F3F19F0D4
:1023600060E00E944C0E81E0F701838FF2E0F09371
:10237000620444E650E061E0C8010E94F10A1DC019
:102380000E94B90C61E0F80181810E941D0E60E09D
:10239000F80181810E941D0E60E971E080E090E00B
:1023A0000E94AD0E61E0F80181810E941D0E6AE07D
:1023B00070E080E090E00E94AD0EF2E3F0936204E2
:1023C00025E0209363043FEF3093640481E0809321
:1023D00065042093660444E650E065E0C8010E946D
:1023E000F10A412C512C82E08093620444E650E0D3
:1023F00061E0C8010E94F10A882309F43AC44CE064
:1024000062E674E0C8010E94E30346E050E060E049
:1024100071E082E694E00E94DE1A892B09F029C45B
:10242000C0906904D0906A04DC24CD24DC24E12C23
:10243000F12CFE2CED2CDC2CCC2480916B04C82AD2
:10244000FE2CED2CDC2CCC2480916C04C82AC11409
:10245000D104E104F10409F40CC486E192E00E9485
:102460007D0C6F2D77278827992740E10E943C0C2F
:102470000E94DF0885E292E00E947D0C6E2D70E0E4
:1024800080E090E04AE00E943C0C6EE282E195E040
:102490000E9475016D2D70E080E090E04AE00E949E
:1024A0003C0C0E94DF08E4E1E093620481E0809349
:1024B0006304E09364048093650444E650E064E0C0
:1024C000C8010E94F10A882331F048E062E674E016
:1024D000C8010E94E30361E070E080E090E00E94A8
:1024E000AD0EFAE4F093620481E0809363041092ED
:1024F000640440E050E063E0C8010E94F10AF82E55
:10250000882321F1F80181899289892B81F044E1A6
:1025100062E674E0C8010E94E3038091690481309F
:10252000A9F490916E04AFE6B4E0F30108C060E056
:1025300070E0C8010E9435048111E9CF07C08E2FD9
:102540008619891720F48D918193F9CFF12CFFEF33
:102550008F1A9F0AAF0ABF0A0D5E1F4F23E0821633
:102560009104A104B10409F07FCEFF2019F084E3A7
:1025700092E002C08EE392E00E94E308A8950E94D8
:10258000DF088CE492E00E94E30888E592E00E9474
:10259000E3088FE38093BE050E94B90C8091BC05CF
:1025A0008093BF0561E08091BE050E94EF08109204
:1025B000ED068093EC06811101C0FFCF8FEA95E014
:1025C0000E9440028093BC054DE2C42E41E0D42E0F
:1025D00055E2A52E51E0B52E88248394912CF60166
:1025E000019111916F018091BD057401002E01C010
:1025F000EE0C0A94EAF78E298093BD058091BB0505
:102600004E2C409484218093BB050E94A00CF501C0
:1026100051905F018091BB05552021F0E82AE0929E
:10262000BB0503C048224092BB050E94A00C8BE66C
:1026300092E00E947D0C81E792E00E947D0CB8013F
:10264000110F880B990B97FF03C00E947F0C03C0EA
:102650004AE00E943C0C89E792E00E947D0C652DC7
:1026600070E080E090E04AE00E943C0C0E94DF08AD
:10267000FDE3CF16F1E0DF0609F0B1CF0E94DF08DD
:1026800083E892E00E94E30882EA92E00E94E30875
:10269000A8952FB7F8948091E4069091E506A09153
:1026A000E606B091E7062FBF8093D9039093DA0333
:1026B000A093DB03B093DC0360E771E0C3010E94E9
:1026C0004B036DEA72E0C1010E944B03B301C101EB
:1026D0000E94E70EC1010E940403C3010E9404038B
:1026E0009E012C5D3F4F3BA72AA73E0131E1630EBF
:1026F000711C8E010F5F1F4F2FB7F8948091E40675
:102700009091E506A091E606B091E7062FBF4091B3
:10271000D9035091DA036091DB037091DC03841BD1
:10272000950BA60BB70B88389341A105B105B0F006
:102730002FB7F8948091E4069091E506A091E60603
:10274000B091E7062FBF8093D9039093DA03A0934B
:10275000DB03B093DC0381E080931801F091EA037E
:10276000FEA7F1117BC2A89587E0F10111928A952D
:10277000E9F786E0EAA5FBA511928A95E9F722ED33
:1027800033E03AAB29ABCE0184965C01EDEDF3E08A
:10279000FDA7ECA7F8ABEFA722ED422E23E0522EC7
:1027A0003AEDE32E35E0F32EC12CD12C99249394ED
:1027B000A8953AE430936204909263041092640402
:1027C00040E050E063E0C7010E94F10A882309F469
:1027D000D1C0F70181899289892B89F044E162E6B1
:1027E00074E0C7010E94E30380916904813009F01D
:1027F000C1C080916E04AFE6B4E0F30108C060E0B0
:1028000070E0C7010E9435048111E8CFB3C09E2F4C
:102810009619981708F061C29D919193F8CF96E0B0
:10282000E6E0F1E0D7011A9601900D929A95E1F752
:1028300094E0F301D701129601900D929A95E1F779
:10284000F7018187F0E4F09362049092630420E63C
:10285000209364049092650486E0F7013A96A6E618
:10286000B4E001900D928A95E1F7F701828180939F
:102870006C04838180936D04848180936E048581D0
:1028800080936F0444E650E06EE0C7010E94F10AB5
:10289000882309F428C24CE062E674E0C7010E9474
:1028A000E303882483948091690481111CC261E050
:1028B00070E080E090E00E94AD0E882009F419C21B
:1028C000F0E4F09362049092630420E320936404A4
:1028D0009092650444E650E064E0C7010E94F10A6A
:1028E000882309F402C24AE162E674E0C7010E944B
:1028F000E303809169048111F8C180E1EAE6F4E024
:10290000D80101900D928A95E1F721E030E0F501C0
:10291000318320831B8243E050E0B8018FA598A942
:102920000E94041B2A8130E040910D01042E000C0E
:10293000550B81E04217530709F480E081954091DF
:102940001001042E000C550B4217530709F481E0C7
:1029500040911301042E000C550B4217530709F444
:1029600082E090E0C816D90629F422E030E0F501B3
:1029700031832083F50180819181F20120813181B1
:102980002817390709F19183808360E771E0CE0150
:1029900048960E944B0364EF72E0CE014E960E946F
:1029A0004B03BE01685E7F4FCE014E960E94E70E3C
:1029B000CE014E960E940403CE0148960E94040365
:1029C0001092E90390921801FFEFCF1ADF0A23E17A
:1029D000E20EF11C32E0430E511C82E0A80EB11C45
:1029E000EFA5F8A93396F8ABEFA7F3E0CF16D10423
:1029F00009F0DECE0E949B07A89540901801442064
:102A000009F41DC11092180168EC73E0CE014896DC
:102A10000E944B03CC24C394D12C55245394A12C55
:102A2000B12CE9A9FAA981919191FAABE9ABA80E71
:102A3000B91E8230910561F466EC71E0CE014896D2
:102A40000E94250D4AE0B801C6010E945E1861C1CE
:102A500081309105E1F48CE0882E81E0982EE12C04
:102A6000F12C6CA57DA5C4010E94F41A97012F5F7B
:102A70003F4F7901892B09F441C133E0830E911C4A
:102A800083E0E816F10469F763E773E00CC0892B73
:102A900041F462E073E0CE0148960E94250D512C6E
:102AA00006C065E073E0CE0148960E94250D6FE6F2
:102AB00072E0CE0148960E94250D9FEFC91AD90AEF
:102AC000ECA5FDA53396FDA7ECA7F4E0CF16D10445
:102AD00009F0A7CF66EC76E0C3010E940C03BE01AB
:102AE000685E7F4FC8010E940C03B301C8010E94B9
:102AF000E70EC8010E940403C3010E94040326E0FC
:102B0000A216B104B1F466EC76E0C3010E940C0396
:102B100068E073E0C8010E944B03B301C8010E9442
:102B2000E70EC8010E940403C3010E9404034EA6DD
:102B300016C05520A1F066EC76E0C3010E940C039C
:102B400061E173E0C8010E944B03B301C8010E9418
:102B5000E70EC8010E940403C3010E940403CE01D2
:102B600048960E9404033EA5332309F468C080916F
:102B7000E903811164C088E193E00E94E3080E94A8
:102B80009B078091BB058F7D8093BB050E94A00CA5
:102B90008091BB0580618093BB050E94A00C0E94C0
:102BA0009B0768EE73E080E090E00E94AD0E0E940B
:102BB0009B0768EE73E080E090E00E94AD0E0E94FB
:102BC0009B0768EE73E080E090E00E94AD0E0E94EB
:102BD0009B078091BB0580628093BB050E94A00C7F
:102BE000FF24F394F092E903A89582E293E00E9417
:102BF000E308F092EA0388E393E00E94E3080FB64B
:102C0000F894A8958091600088618093600010928C
:102C100060000FBE60E771E0C3010E944B036DE4EA
:102C200073E0C8010E944B03B301C8010E94E70E84
:102C3000C8010E940403C3010E94040317C08091CD
:102C4000BB0580628093BB050E94A00C8091BB05F0
:102C50008F7E8093BB050E94A00C08C00E949B073A
:102C600064EF71E080E090E00E94AD0E0E94E4010C
:102C700043CD8BE593E00E94E30886E048165104BB
:102C800044F182EF91E00E94E30883E091E00E942A
:102C9000EB0C62E370E080E090E00E94AD0EE3E0B8
:102CA000CE2ED12CE12CF12C4AE0C701B6010E94B6
:102CB0003C0C0E94DF0864E670E080E090E00E9437
:102CC000AD0E91E0C91AD108E108F10869F70C943A
:102CD00000003FEF431A530A86CB843009F49FCD9E
:102CE0008CEB92E008C0812CE2CD84ED92E00E9452
:102CF000E30888EC92E00E94E30866CE66EC71E09F
:102D0000CE0148960E94250D4AE0B801C7010E94F5
:102D10006918F80101900020E9F73197AF01401BD5
:102D2000510BB801CE0148960E94F70CC0CECF934C
:102D3000DF93EC0188859985009711F00E948A192C
:102D40008E8187FD05C060E0DF91CF910C944C0E21
:102D5000DF91CF91089582E796E00E94971687E869
:102D600096E00E9497168CE996E00E94971681EBF8
:102D700096E00E94971686EC96E00E9404038CEC85
:102D800096E00E94040382ED96E00E94040388ED21
:102D900096E00E9404038EED96E00C940403FF92EB
:102DA0000F931F93CF93DF938C01F62E8FEFF801D3
:102DB000808381838CE190E00E94F218EC01FB8615
:102DC0008DE08C878CE08E878BE08D876F2DFF0CDC
:102DD000770BFB01E75CFE4FE491F0E0EE0FFF1F85
:102DE000E15DFE4F859194919E8B8D8BFB01E55E9D
:102DF000FE4FE491EA8FE4E4F1E0E491F0E0EE0FBD
:102E0000FF1FE15DFE4F85919491988B8F87E6E2DD
:102E1000F1E0E491EF8BE5E4F1E0E491F0E0EE0F16
:102E2000FF1FEF5EFE4F859194919C8B8B8BE7E2A9
:102E3000F1E0E491E88FE6E4F1E0E491F0E0EE0FF8
:102E4000FF1FE15DFE4F859194919A8B898BE8E29B
:102E5000F1E0E491E98F80E492E4AFE0B0E08C83AC
:102E60009D83AE83BF83198618861A861B8E82E0E7
:102E700090E00E94F21821E7FC01208311829B83DD
:102E80008A8319821882F801D28BC18BDF91CF918E
:102E90001F910F91FF9008951F93CF93DF93EC0143
:102EA000162F19821F821E861F86188A198A81E0B2
:102EB0008D878A871B8692E09C87888383E090E0D9
:102EC0009D838C830E94F21899878887009751F020
:102ED00023E0FC0111922A95E9F781E090E09B83C1
:102EE0008A8304C01D821C821B821A821E838981F0
:102EF000882341F061E0812F0E944C0E60E0812F19
:102F00000E941D0E812F90E0FC01E75CFE4FE491D2
:102F1000F0E0EE0FFF1FE15DFE4F259134913B8BFA
:102F20002A8BFC01E55EFE4FE491EC8BDF91CF91A3
:102F30001F910895E2E1F5E01382128288EE93E09A
:102F4000A0E0B0E084839583A683B78328E431E0D2
:102F50003183208325EC30E03587248724EC30E072
:102F60003787268720EC30E0318B208B21EC30E056
:102F7000338B228B22EC30E0358B248B26EC30E037
:102F8000378B268B118E128E138E148EEFEAF5E09E
:102F90001382128284839583A683B7838AE591E0A6
:102FA000918380836CE873E08EED96E00E944B0382
:102FB00062EA73E088ED96E00E944B036DEA73E0ED
:102FC00082ED96E00E944B036BEB73E08CEC96E095
:102FD0000E944B0362EC73E086EC96E00E944B0388
:102FE00069E081EB96E00E944C1766E08CE996E080
:102FF0000E944C1765E087E896E00E944C1763E05A
:1030000082E796E00E944C1768E08FE596E00E9408
:10301000CF1667E08CE496E00E94CF1664E089E367
:1030200096E00E94CF1662E086E296E00E94CF16FC
:1030300083E1EFE5F6E0AAEDB5E001900D928A9507
:10304000E1F783E1ECE4F6E0ADEEB5E001900D923E
:103050008A95E1F783E1E9E3F6E0A0E0B6E00190CC
:103060000D928A95E1F783E1E6E2F6E0A3E1B6E0AE
:1030700001900D928A95E1F7EBEBF5E01082118259
:10308000128213821482158216821782108611868C
:1030900012861386148615861686108A1786128A5B
:1030A000118A148A138A168A158A108E178A128E2C
:1030B000118E148E138E168E158E0895BB274A30EE
:1030C00031F4992322F4BDE2909581959F4F0C94A1
:1030D0006A18BB27FB015527AA27880F991FAA1F2B
:1030E000A41710F0A41B83955051B9F7A05DAA3323
:1030F00008F0A95DA193009779F7B111B1931192EE
:10310000CB010C948318DC01FC01672F71917723AC
:10311000E1F7329704C07C916D9370836291AE1792
:10312000BF07C8F308952F923F924F925F926F921C
:103130007F928F929F92AF92BF92CF92DF92EF9247
:10314000FF920F931F93CF93DF93CDB7DEB7CA1BC8
:10315000DB0B0FB6F894DEBF0FBECDBF09942A88F3
:10316000398848885F846E847D848C849B84AA849B
:10317000B984C884DF80EE80FD800C811B81AA8128
:10318000B981CE0FD11D0FB6F894DEBF0FBECDBFF3
:10319000ED010895A1E21A2EAA1BBB1BFD010DC073
:1031A000AA1FBB1FEE1FFF1FA217B307E407F507F7
:1031B00020F0A21BB30BE40BF50B661F771F881FD3
:1031C000991F1A9469F760957095809590959B0169
:1031D000AC01BD01CF010895EE0FFF1F0590F491E2
:1031E000E02D09940F931F93CF93DF9382309105C5
:1031F00010F482E090E0E091F606F091F70620E00E
:1032000030E0A0E0B0E0309719F1408151810281B7
:10321000138148175907C8F08417950769F4109768
:1032200031F012960C93129713961C9327C00093BB
:10323000F6061093F70622C02115310519F0421742
:10324000530718F49A01BD01EF01DF01F801DBCF4C
:1032500021153105F9F0281B390B2430310580F494
:103260008A819B816115710521F0FB019383828323
:1032700004C09093F7068093F606FE01329644C090
:10328000FE01E20FF31F819391932250310939839C
:1032900028833AC02091F4063091F506232B41F49F
:1032A00020912101309122013093F5062093F406FC
:1032B00020911F01309120012115310541F42DB7D6
:1032C0003EB74091230150912401241B350BE0911E
:1032D000F406F091F506E217F307A0F42E1B3F0B5E
:1032E0002817390778F0AC014E5F5F4F2417350778
:1032F00048F04E0F5F1F5093F5064093F4068193FC
:10330000919302C0E0E0F0E0CF01DF91CF911F91F7
:103310000F910895CF93DF93009709F481C0FC01CA
:10332000329713821282A091F606B091F706109799
:1033300081F420813181820F931F2091F406309116
:10334000F5062817390751F5F093F506E093F406D2
:1033500067C0ED0120E030E0CE17DF0740F44A817E
:103360005B819E0141155105F1F0EA01F5CFD38350
:10337000C28340815181840F951FC817D90759F422
:1033800088819981840F951F0296918380838A8119
:103390009B81938382832115310529F4F093F706ED
:1033A000E093F6063DC0E901FB83EA834991599118
:1033B000C40FD51FEC17FD0761F480819181840F44
:1033C000951F0296E90199838883828193819B836B
:1033D0008A83E0E0F0E012968D919C91139700971C
:1033E00019F0FD01DC01F7CF8D919C9111979D01A2
:1033F0002E5F3F4F820F931F2091F4063091F50608
:103400002817390769F4309729F41092F7061092BB
:10341000F60602C013821282B093F506A093F4065A
:10342000DF91CF910895A0E0B0E0E9E1FAE10C94DA
:103430009718EC01009721F4CB010E94F218B4C058
:10344000FC01E60FF71F9C0122503109E217F30738
:1034500008F4A8C0D9010D911C9111970617170700
:10346000B0F00530110508F49BC0C8010497861719
:10347000970708F495C002501109061B170B01931A
:1034800011936D937C93CF010E948A1989C05B01CF
:10349000A01AB10A4C01800E911EA091F606B091BF
:1034A000F706612C712CE12CF12C109709F446C021
:1034B0008D919C911197A815B905B1F56C0142E069
:1034C000C40ED11CCA14DB0478F14C018A189B0885
:1034D000640142E0C40ED11C1296BC901297139660
:1034E000AC91B5E0CB16D10440F0B282A3839182B7
:1034F0008082D9016D937C9309C00E5F1F4F800FAE
:10350000911FF90191838083EB2DFA2FE114F104CF
:1035100031F0D7011396FC93EE93129741C0F093CC
:10352000F706E093F6063CC06816790608F43C01FD
:103530007D0112960D90BC91A02DB7CF8091F4061D
:103540009091F50688169906E1F466167706C8F498
:1035500080911F0190912001009741F48DB79EB793
:103560004091230150912401841B950BE817F90722
:10357000C8F4F093F506E093F406F90171836083D3
:103580000FC0CB010E94F2187C01009759F0A801EE
:10359000BE010E94EB1ACE010E948A19C70104C025
:1035A000CE0102C080E090E0CDB7DEB7EEE00C9433
:1035B000B31881E090E0F8940C94131BFB01DC013C
:1035C00004C08D910190801921F441505040C8F7FA
:1035D000881B990B0895FB01DC0102C001900D923C
:1035E00041505040D8F70895FB01DC018D910190C6
:1035F00080190110D9F3990B0895FB01DC010190AA
:103600000D920020E1F70895FB01DC01415050408C
:1036100048F001900D920020C9F701C01D92415061
:103620005040E0F7089510E0C7EBD0E004C0FE0181
:103630000E94EC182196C83BD107C9F7F894FFCF38
:103640000000FF06FAD5FFFFFFFFFFFF41480053D0
:103650004400474600000000010000FF00FF00009A
:1036600000F80680000101010100010101000001D4
:10367000000200030004000500060007006B006C58
:10368000006D0000000000007501E2000C01C201A5
:103690003D011B012F010000000089025C02B902FC
:1036A00030025402400231020A53455455500A0078
:1036B00053595300536574757020426567696E00F5
:1036C00057445420656E6461626C6564004C4544E7
:1036D0003A202E2E2E2000676F6C64004C45443A31
:1036E000204F4B21004932433A202E2E2E200073CA
:1036F00075636365737366756C6C79207363616E53
:103700006E656420493243004932433A204F4B21D1
:1037100000524649443A202E2E2E2000696E6974CC
:1037200069616C697A696E67207265616465723A75
:103730002000504E353332207374617274757020DE
:1037400074696D6564206F75742C20726573746183
:103750007274696E6700466F756E64206368697085
:1037600020504E35004669726D776172652076652E
:10377000722E2000524649443A204F4B21005246B7
:1037800049443A204641494C4544210052656C6108
:10379000793A202E2E2E2000696E697469616C6959
:1037A0007A696E672072656C617900202020202084
:1037B0000052656C6179205B005D20736574207434
:1037C0006F20007375636365737366756C6C792025
:1037D000696E697469616C697A65642072656C618F
:1037E000790052656C61793A204F4B210053657422
:1037F000757020436F6D706C6574650046616C7305
:1038000065204361726421007265616420666169AC
:103810006C65640052656164696E67206661696CFD
:1038200065642C2064697363617264696E672063E8
:10383000617264004361726473204368616E6765FE
:1038400064005F5F00556B0021436F7272656374A3
:10385000002157726F6E670047415445204F504515
:103860004E0057616974696E6720666F72206E65DD
:10387000772047616D652100526573746172742011
:10388000696E207265717569726564210047616DAA
:103890006520436F6D706C657465004469646E27C4
:1038A000742066696E6420504E35337820626F61F3
:1038B000726400585800677265656E00626C6163DF
:1038C0006B00776869746500726564005374757481
:1038D00074676172742047616C6C65727920412F46
:1038E000420030322E30322E323032310076657264
:1038F00073696F6E20312E30535400427252464924
:10390000440055564C000D0A002C002C446F6E6587
:023910002E0087
:00000001FF
