:100000000C9465000C948D000C948D000C94640687
:100010000C943F060C941A060C948D000C948D00E1
:100020000C948D000C948D000C948D000C948D001C
:100030000C948D000C948D000C948D000C948D000C
:100040000C940D0D0C948D000C9428050C94020555
:100050000C948D000C948D000C948D000C948D00EC
:100060000C94640B0C948D0000000000230026000B
:10007000290052657374617274696E6720696E003D
:1000800000000000250028002B00040404040404E0
:100090000404020202020202030303030303010237
:1000A0000408102040800102040810200102040806
:1000B00010200000000800020100000304070000F7
:1000C00000000000000008136D0D11241FBECFEFCB
:1000D000D8E0DEBFCDBF27E0A6E5B4E001C01D92A9
:1000E000A333B207E1F714E0A0E0B1E0ECE0FDE2F9
:1000F00002C005900D92A635B107D9F710E0C4E60D
:10010000D0E004C02197FE010E947714C336D107C6
:10011000C9F70E94730D0C9479160C940000CF92CD
:10012000DF92EF92FF920F931F93CF93DF936C01B7
:100130007A018B01C0E0D0E0CE15DF0581F0D80157
:100140006D918D01D601ED91FC910190F081E02D32
:10015000C6010995892B11F02196EECF7E01C701CA
:10016000DF91CF911F910F91FF90EF90DF90CF9093
:100170000895089580E090E00895FC01538D448D2A
:10018000252F30E0842F90E0821B930B541710F042
:10019000CF96089501970895FC01918D828D98174F
:1001A00061F0828DDF01A80FB11D5D968C91928D5B
:1001B0009F5F9F73928F90E008958FEF9FEF089558
:1001C000FC01918D828D981731F0828DE80FF11D21
:1001D000858D90E008958FEF9FEF0895FC01918D3C
:1001E000228D892F90E0805C9F4F821B91098F7335
:1001F000992708958FEE95E00E94EE0021E0892B6B
:1002000009F420E0822F0895FC01848DDF01A80FFE
:10021000B11DA35ABF4F2C91848D90E001968F732E
:100220009927848FA689B7892C93A089B1898C914D
:10023000837080648C93938D848D981306C002889C
:10024000F389E02D80818F7D80830895EF92FF9266
:100250000F931F93CF93DF93EC0181E0888F9B8DE9
:100260008C8D981305C0E889F989808185FD26C0A9
:10027000F62E0B8D10E00F5F1F4F0F731127E02E2E
:100280008C8DE8120CC00FB607FCFACFE889F9890B
:10029000808185FFF5CFCE010E940401F1CF8B8DC7
:1002A000FE01E80FF11DE35AFF4FF0829FB7F8946B
:1002B0000B8FEA89FB89808180620AC09FB7F8941E
:1002C000EE89FF896083E889F98980818370806481
:1002D00080839FBF81E090E0DF91CF911F910F91CC
:1002E000FF90EF900895CF93DF93EC01888D8823E2
:1002F000C9F0EA89FB89808185FD05C0A889B98993
:100300008C9186FD0FC00FB607FCF5CF808185FF6D
:10031000F2CFA889B9898C9185FFEDCFCE010E94DB
:100320000401E7CFDF91CF91089580E090E0892B21
:1003300029F00E94FA0081110C940000089590E0C9
:10034000FC01EE0FFF1FE459FF4FA591B4912C91D2
:10035000FC01E857FB4F30812083880F991FFC0177
:10036000E85FFE4F0190F081E02D808108950F93AA
:100370001F93CF93DF93209157042F5F322F377055
:100380003093570420FF02C020E801C020E031FD77
:100390002064347009F02062205FFC01EC01239698
:1003A00000E011E06485662331F070E0C8010E942E
:1003B00026146F5F01C060E06187322F369F030E05
:1003C00030E0311D1124311102C0168202C03150BB
:1003D0003683662311F0615061873196CE17DF07AF
:1003E00009F7DF91CF911F910F91089580E991E076
:1003F0000895539A08950F931F93CF93DF93CDB72A
:10040000DEB762970FB6F894DEBF0FBECDBF8C018A
:10041000F901DC011C968C917A8369835C834B83A0
:100420005E834D8390819D8791819E8792819F8776
:10043000813029F4CE0101960E94B70106C01C86C6
:100440001B861A86198618861F8283E0888B1A8A73
:10045000198AD801ED91FC910484F585E02DBE0147
:100460006F5F7F4FC801099562960FB6F894DEBFA3
:100470000FBECDBFDF91CF911F910F9108950F93C4
:100480001F93CF93DF93CDB7DEB762970FB6F89483
:10049000DEBF0FBECDBF8C01F901DC011C968C9133
:1004A0007A8369835C834B835E834D8390819D87D0
:1004B00091819E8792819F87813029F4CE01019698
:1004C0000E94B70106C01C861B861A8619861886EC
:1004D0001F82188A1A8A198AD801ED91FC91048426
:1004E000F585E02DBE016F5F7F4FC80109956296CB
:1004F0000FB6F894DEBF0FBECDBFDF91CF911F9135
:100500000F910895CF93DF9300D000D000D0CDB7E6
:10051000DEB7AB011C821D821E82DC01ED91FC91D5
:100520000190F081E02D19821A821B829E012F5FBB
:100530003F4FBE016C5F7F4F099526960FB6F8942A
:10054000DEBF0FBECDBFDF91CF910895FC01858541
:100550009685089580E090E008950E9464164F9279
:100560005F926F927F928F92AF92BF92CF92DF9203
:10057000EF920F931F93CF93DF933C01EB010E9407
:10058000E80CF30127853089621B730B6A30710513
:10059000B0F3F894E881F9817BB178606BB1677F43
:1005A0006BB9CA848F812C2D281B822F2F83BF8487
:1005B0004A805B801D850C85DE841F5F0F5FD394AE
:1005C0009E813885A984EB844181D20120E0C32F2C
:1005D000522F322F3181442788943111380F08F47B
:1005E0003FEF8195889410FD430F4795889411FD46
:1005F000430F4795889412FD430F4795889413FD48
:10060000430F4795889414FD430F4795889415FD33
:10061000430F4795889416FD430F4795889417FD1F
:10062000430F47958894232F1111242F8C0D422FAF
:10063000002C7BB900C047FF6BB93081222788941A
:1006400000C000C0002C6BB93111390F00C0002C64
:100650007BB900C046FF6BB908F43FEF91958894D1
:1006600000C000C0002C6BB900FD230F00C0002C9F
:100670007BB900C045FF6BB92795889401FD230F16
:1006800000C000C0002C6BB92795889400C0002CD6
:100690007BB900C044FF6BB902FD230F27958894F6
:1006A00000C000C0002C6BB903FD230F00C0002C5C
:1006B0007BB900C043FF6BB92795889404FD230FD5
:1006C00000C000C0002C6BB92795889400C0002C96
:1006D0007BB900C042FF6BB905FD230F27958894B5
:1006E00000C000C0002C6BB906FD230F00C0002C19
:1006F0007BB900C041FF6BB92795889407FD230F94
:1007000000C000C0002C6BB92795889400C0002C55
:100710007BB900C040FF6BB9432F0111422F9A0DE6
:1007200000C000C0002C6BB900C000C0002C7BB919
:1007300000C047FF6BB932812227889400C000C0F7
:10074000002C6BB931113C0F00C0002C7BB900C0EC
:1007500046FF6BB908F43FEFEB0DF11D00C000C080
:10076000002C6BB9D0FC230F00C0002C7BB900C05B
:1007700045FF6BB927958894D1FC230F00C000C0BA
:10078000002C6BB92795889400C0002C7BB900C061
:1007900044FF6BB9D2FC230F2795889400C000C09A
:1007A000002C6BB9D3FC230F00C0002C7BB900C018
:1007B00043FF6BB927958894D4FC230F00C000C079
:1007C000002C6BB92795889400C0002C7BB900C021
:1007D00042FF6BB9D5FC230F2795889400C000C059
:1007E000002C6BB9D6FC230F00C0002C7BB900C0D5
:1007F00041FF6BB927958894D7FC230F00C000C038
:10080000002C6BB92795889400C0002C7BB900C0E0
:1008100040FF6BB9432FD110422FC19500C000C0DB
:10082000002C6BB9CE0D00C000C07BB900C047FFE3
:100830006BB931812227889400C000C0002C6BB9AD
:100840003111380F00C0002C7BB900C046FF6BB9D6
:1008500008F43FEF8195889400C000C0002C6BB96C
:1008600010FD230F00C0002C7BB900C045FF6BB901
:100870002795889411FD230F00C000C0002C6BB990
:100880002795889400C0002C7BB900C044FF6BB949
:1008900012FD230F2795889400C000C0002C6BB96F
:1008A00013FD230F00C0002C7BB900C043FF6BB9C0
:1008B0002795889414FD230F00C000C0002C6BB94D
:1008C0002795889400C0002C7BB900C042FF6BB90B
:1008D00015FD230F2795889400C000C0002C6BB92C
:1008E00016FD230F00C0002C7BB900C041FF6BB97F
:1008F0002795889417FD230F00C000C0002C6BB90A
:100900002795889400C0002C7BB900C040FF6BB9CC
:10091000432F1111422F8C0D00C000C0002C6BB969
:10092000119709F086CE20EE31E0D2010E945C14CE
:10093000DC01CB01F4E0B695A79597958795FA95DC
:10094000D1F720E030E0B901EAE94E9E040C611DC8
:100950005E9E600D711D1124650D711D860F971F20
:10096000A11DB11D893E43E09407A105B10508F41E
:1009700034C0885E9340A109B10942E0B695A795BD
:10098000979587954A95D1F747E0849F080E211DDA
:10099000949F200D311D1124290F311D60915604A3
:1009A00070E0860F971F820F931F4091DD055091D5
:1009B000DE056091DF057091E005292F3327420F96
:1009C000531F611D711D4093DD055093DE0560933B
:1009D000DF057093E0058093560478940E94E80C3C
:1009E000F301708B6787DF91CF911F910F91EF908B
:1009F000DF90CF90BF90AF908F907F906F905F907F
:100A00004F9008951F920F920FB60F9211242F93BB
:100A10003F934F935F936F937F938F939F93AF9386
:100A2000BF93EF93FF938FEE95E00E940401FF9137
:100A3000EF91BF91AF919F918F917F916F915F9156
:100A40004F913F912F910F900FBE0F901F901895CF
:100A50001F920F920FB60F9211242F938F939F9393
:100A6000EF93FF93E091FF05F09100068081E09104
:100A70000506F091060682FD12C09081809108065D
:100A80008F5F8F7320910906821751F0E09108065D
:100A9000F0E0E151FA4F958F8093080601C0808104
:100AA000FF91EF919F918F912F910F900FBE0F901B
:100AB0001F901895CF93FC01918162818081C38141
:100AC00021E020938D05C0938B041092B105109204
:100AD000B00560956923682B83EE95E00E945F095D
:100AE0009091B005913208F045C08091B705811111
:100AF000FCCF82E08093B70581E08093B9058FEF4A
:100B00008093B6051092DB059093DA05ADE6B5E06B
:100B1000EAEBF5E080E0981721F02D9121938F5FAB
:100B2000FACF1092DC058091DC05CC0FC82BC09366
:100B3000DC058091B805813061F41092B805809190
:100B4000DC058093BB008091BC0083FDF8CF85EC71
:100B500001C085EE8093BC008091B7058230E1F33F
:100B60008091B6058F3F31F08091B605803211F04B
:100B70008091B6051092B1051092B00510928D05C6
:100B8000CF910895CF93DF93FC018181848383818A
:100B90009091B7059111FCCF91E09093B705909398
:100BA000B9052FEF2093B6051092DB051092DA05F8
:100BB0009093DC059091DC05880F892B8093DC05F0
:100BC0008091B805813061F41092B8058091DC0500
:100BD0008093BB008091BC0083FDF8CF85EC01C001
:100BE00085EE8093BC008091B7058130E1F3809160
:100BF000DB05811103C09091DB0501C091E0CAEBD8
:100C0000D5E0AEE8B5E080E0891721F029912D9379
:100C10008F5FFACF1092AF058093AE05811101C0AE
:100C2000FFCFEF0183EE95E00E9416098983DF91E3
:100C3000CF9108951F920F920FB60F9211242F9308
:100C40003F934F935F936F937F938F939F93AF9354
:100C5000BF93EF93FF9382E00E949F01FF91EF917A
:100C6000BF91AF919F918F917F916F915F914F91C4
:100C70003F912F910F900FBE0F901F9018951F92CC
:100C80000F920FB60F9211242F933F934F935F93C0
:100C90006F937F938F939F93AF93BF93EF93FF9344
:100CA00081E00E949F01FF91EF91BF91AF919F91D1
:100CB0008F917F916F915F914F913F912F910F9005
:100CC0000FBE0F901F9018951F920F920FB60F92A4
:100CD00011242F933F934F935F936F937F938F9341
:100CE0009F93AF93BF93EF93FF9380E00E949F0188
:100CF000FF91EF91BF91AF919F918F917F916F91F4
:100D00005F914F913F912F910F900FBE0F901F90C9
:100D10001895EF92FF920F931F93CF93DF938FE37A
:100D20008093AE061092AF051092AE051092B105F9
:100D30001092B0050E94920C84E099E09093B30564
:100D40008093B20585E099E09093B5058093B40552
:100D50008BEA96E00E94C20500E010E0EE24E394E6
:100D6000F12C8091AD06E701002E01C0CC0F0A9452
:100D7000EAF79C2F8C2B8093AD068091AB06909563
:100D800089238093AB068BEA96E00E945A058091F6
:100D9000AB06C82BC093AB068BEA96E00E945A05BF
:100DA0000F5F1F4F08301105E1F668EE73E080E039
:100DB00090E00E94AE0C8091AB0681608093AB0600
:100DC0008BEA96E00E945A0584E591E00E94620B4E
:100DD0008AE591E00E94620B80E090E00E94260B81
:100DE00086E691E00E94620B81E090E00E94560B43
:100DF00064E170E080E090E00E94AE0C8091AB0670
:100E000082608093AB068BEA96E00E945A0584E5E7
:100E100091E00E94620B80E791E00E94620B81E00A
:100E200090E00E94260B86E691E00E94620B81E032
:100E300090E00E94560B64E170E080E090E00E9438
:100E4000AE0C8091AB0684608093AB068BEA96E093
:100E50000E945A0584E591E00E94620B82E891E0CD
:100E60000E94620B82E090E00E94260B86E691E0F1
:100E70000E94620B81E090E00E94560B64E170E0FA
:100E800080E090E00E94AE0C8091AB068860809379
:100E9000AB068BEA96E00E945A0584E591E00E9439
:100EA000620B86E991E00E94620B83E090E00E9471
:100EB000260B86E691E00E94620B81E090E00E94A2
:100EC000560B64E170E080E090E00E94AE0C8091EF
:100ED000AB0680618093AB068BEA96E00E945A05D0
:100EE00084E591E00E94620B89EA91E00E94620B26
:100EF00084E090E00E94260B86E691E00E94620B5F
:100F000081E090E00E94560B64E170E080E090E0A8
:100F10000E94AE0C8091AB0680648093AB068BEA96
:100F200096E00E945A0584E591E00E94620B83EBF3
:100F300091E00E94620B86E090E00E94260B86E61C
:100F400091E00E94620B81E090E00E94560B64E108
:100F500070E080E090E00E94AE0C8091AB068F7D47
:100F60008093AB068BEA96E00E945A0584E591E0F7
:100F70000E94620B82EC91E00E94620B85E090E09F
:100F80000E94260B86E691E00E94620B80E090E0D2
:100F90000E94560B81E0DF91CF911F910F91FF903E
:100FA000EF900895282F862F90E060FD2195820F05
:100FB000911D08951F93DC01FB017C9111964C91CA
:100FC000119712961C91972F9F71990F990F990F56
:100FD00035E5292F239F020E20E0211D1124822FA9
:100FE000672F6074572F507277FD1FC061110AC0C0
:100FF000511103C0922F909511C025E5280F90E064
:101000008BEA34C051110DC0392F2AEA329F030EEA
:1010100030E0311D11249BEA931B280F892F90E0AB
:1010200025C090E02095982F0FC0611112C051117A
:101030000DC0392F2AEA329F030E30E0311D1124F2
:101040002BEA231B95E5930F80E010C0922F90951B
:101050000CC0511104C025E5280F9BEA04C02AEA00
:10106000280F90E0932F981B822F20E04F3F09F428
:1010700027C0442311F1882331F0382F349F030E09
:1010800030E0311D832F222321F0249F020E20E027
:10109000211D992331F0392F349F030E30E0311D8B
:1010A000932F1124342F3095339F030E30E0311DE0
:1010B0001124830F230F930F03C09FEF2FEF8FEFA8
:1010C0001F3F09F424C030E0112321F0119F312D7E
:1010D00009F03F5F3323C1F0882331F0482F439F4D
:1010E000040E40E0411D842F222321F0239F020E95
:1010F00020E0211D992331F0492F439F040E40E049
:10110000411D942F112403C090E020E080E08083F3
:10111000218392831F91089590E0FC01EE54FF4FCC
:101120002491FC01E256FF4F3491FC01E657FF4F3A
:10113000E491EE23B1F1222339F1233091F038F418
:101140002130A9F0223001F584B58F7D12C02730FF
:1011500091F02830A1F02430B9F4809180008F7D87
:1011600003C0809180008F77809380000DC084B58C
:101170008F7784BD09C08091B0008F7703C08091C4
:10118000B0008F7D8093B000F0E0EE0FFF1FE058BD
:10119000FF4FA591B4918FB7F894EC91E32BEC93AA
:1011A0008FBF089585ED8093BC008091BC0084FDC5
:1011B000FCCF1092B70508954091FD06262F30E030
:1011C000240F311D21323105DCF42091B705243084
:1011D000C9F4FC0180E090E0861758F43091FD06D8
:1011E0002191DC01A352B94FA30FB11D2C9301969D
:1011F000F3CF8091FD06680F6093FD0680E00895AF
:1012000081E0089582E00895089508950895E09199
:10121000AF058091AE05E81730F4F0E0E257FA4FE1
:10122000808190E008958FEF9FEF08959091AF0532
:101230008091AE05981750F4E92FF0E0E257FA4F8D
:10124000208130E09F5F9093AF0502C02FEF3FEF0A
:10125000C90108958091AE0590E02091AF05821BF1
:1012600091090895CF92DF92EF92FF920F931F930F
:10127000CF93DF937C01CB018A0120918D0522233E
:1012800089F0EB016B01C40ED51ECC15DD0569F0AC
:101290006991D701ED91FC910190F081E02DC7019A
:1012A0000995F3CF642F0E94DC08C801DF91CF912C
:1012B0001F910F91FF90EF90DF90CF900895CF9303
:1012C000DF931F92CDB7DEB7698320918D0522236E
:1012D000D1F02091B005203240F021E030E0FC0157
:1012E0003383228380E090E015C08091B105E82F20
:1012F000F0E0E359FA4F998190838F5F8093B105B5
:101300008093B00505C061E0CE0101960E94DC0823
:1013100081E090E00F90DF91CF910895009769F000
:10132000FC0101900020E9F73197AF01481B590BF0
:10133000BC018FEE95E00C948F0080E090E0089562
:101340003F924F925F926F927F928F929F92AF9255
:10135000BF92CF92DF92EF92FF920F931F93CF93A2
:10136000DF9300D01F92CDB7DEB7F090D00680910A
:10137000D3069091D406A091D506B091D606892BBC
:101380008A2B8B2BE9F00E94E80C00912607109124
:1013900027072091280730912907DC01CB01801B0A
:1013A000910BA20BB30B0091D3061091D4062091A0
:1013B000D5063091D60680179107A207B307B8F279
:1013C0000E94E80C609326077093270780932807F4
:1013D00090932907E091DB06F091DC06309759F0F5
:1013E0004091D7065091D8066091D9067091DA06DF
:1013F0008F2D0995F82E0091E1051091E2054F2CF3
:10140000512C612C712C0115110509F45FC0D80114
:101410001C96EC901C978091D1069091D206843650
:10142000910510F41C961C92D801ED91FC91A280BC
:10143000B38019821A821B82F11014C0F80145850D
:101440005685628173819E012F5F3F4FC801F50170
:101450000995D8011C96EC921C9714960D911C913D
:101460001597D1CFF8013696CE0101966C0148014F
:1014700099E0890E911C2191222309F132803320B9
:10148000F1F0822F90E0A0E0B0E09C01AD012F5F71
:101490003F4F4F4F5F4FC301B2010E9416149B0193
:1014A000AC01832D90E0A0E0B0E0BC01CD016F5F06
:1014B0007F4F8F4F9F4F0E941614D6018C93BFEF22
:1014C000CB1ADB0AE815F905B1F6B8CF80912407ED
:1014D000909125079C012F5F3F4F30932507209364
:1014E000240749970CF44CC08FB7F8944091DD0560
:1014F0005091DE056091DF057091E0058FBF80910E
:10150000200790912107A0912207B09123079A010B
:10151000AB01281B390B4A0B5B0B21F421E030E0B7
:1015200040E050E0E0912407F091250788EE93E039
:10153000E89FB001E99F700DF89F700D1124072EF0
:10154000000C880B990B0E943A143093D20620931A
:10155000D10610922507109224072FB7F894809196
:10156000DD059091DE05A091DF05B091E0052FBF6C
:101570008093200790932107A0932207B09323071D
:101580000F900F900F90DF91CF911F910F91FF90CF
:10159000EF90DF90CF90BF90AF909F908F907F9013
:1015A0006F905F904F903F90089583E594E00C9486
:1015B0008E09CF93DF930E948E09EC010E94D50A19
:1015C0008C0F9D1FDF91CF9108958F929F92AF92C4
:1015D000BF920F931F93CF93DF93CDB7DEB7A19741
:1015E0000FB6F894DEBF0FBECDBF19A2423008F48B
:1015F0004AE08E010F5D1F4F842E912CA12CB12C3F
:10160000A50194010E943A14E62FB901CA010150C4
:101610001109EA3014F4E05D01C0E95CD801EC93F3
:10162000232B242B252B61F7C8010E948E09A1963C
:101630000FB6F894DEBF0FBECDBFDF91CF911F91E3
:101640000F91BF90AF909F908F900895CF92DF92AF
:10165000EF92FF92CF93DF936C01990FEE08FF0892
:10166000F7FE19C06DE28FEE95E00E942601EC01B5
:1016700066277727CB016C197D098E099F094AE0FF
:101680000E94E50A8C0F9D1FDF91CF91FF90EF9094
:10169000DF90CF9008954AE0C701B601DF91CF9166
:1016A000FF90EF90DF90CF900C94E50ACF93DF93FB
:1016B0000E94260BEC010E94D50A8C0F9D1FDF9122
:1016C000CF9108950C948E091F920F920FB60F922E
:1016D00011242F933F934F935F936F937F938F9337
:1016E0009F93AF93BF93EF93FF938091B900887F4F
:1016F000803609F49CC068F5883209F45BC090F428
:10170000803109F454C038F4882309F4F6C08830D5
:1017100009F44DC0F6C0883109F44CC0803209F498
:101720005DC0EFC0803409F468C048F4803309F428
:1017300055C0883309F0E5C08093B605D8C0803520
:1017400009F44FC0883509F45DC0883409F0D9C068
:10175000D6C0883909F4C7C0A8F4883709F467C02F
:1017600038F4883609F463C0803709F460C0C9C012
:10177000883809F4B8C0803909F45FC0803809F0AE
:10178000C0C05BC0803B09F486C038F4803A09F4DD
:1017900066C0883A09F47FC0B4C0803C09F4A7C091
:1017A000883C09F4A4C0883B09F48AC0AAC080918F
:1017B000DC0510C09091DB058091DA05981770F573
:1017C000E091DB0581E08E0F8093DB05F0E0E654CD
:1017D000FA4F80818093BB0085EC86C08093B6056C
:1017E0008EC0E091DB0581E08E0F8093DB05809158
:1017F000BB00F0E0E654FA4F80839091DB058091C6
:10180000DA056EC0E091DB0581E08E0F8093DB0589
:101810008091BB00F0E0E654FA4F80838091B905D7
:1018200081116DC081E08093B80584EA61C083E0D6
:101830008093B70510921F07CFCF80911F0780328A
:1018400008F051C0E0911F0781E08E0F80931F07C1
:101850008091BB00F0E0E150F94F8083BDCF85EC73
:101860008093BC001092B70580911F07803230F43E
:10187000E0911F07F0E0E150F94F108260911F07DF
:1018800070E0E091B405F091B5058FEF96E0099511
:1018900010921F0736C084E08093B7051092FE06B1
:1018A0001092FD06E091B205F091B3050995809183
:1018B000FD06811105C081E08093FD061092DD06D2
:1018C000E091FE0681E08E0F8093FE06F0E0E35289
:1018D000F94F80818093BB009091FE068091FD06B8
:1018E000981708F479CF85E88093BC000AC085EC8E
:1018F0008093BC001092B70504C01092B6050E94F8
:10190000D208FF91EF91BF91AF919F918F917F91FD
:101910006F915F914F913F912F910F900FBE0F905C
:101920001F9018951092B70581E08093B905109229
:10193000B80582E10E948C0883E10E948C08E9EBE3
:10194000F0E080818E7F808380818D7F808388E43A
:101950008093B80085E48093BC0008958F929F9295
:10196000AF92BF92CF92DF92EF92FF926B017C0118
:101970000E94E80C4B015C01C114D104E104F104A4
:10198000F1F00E94E80CDC01CB0188199909AA0941
:10199000BB09883E9340A105B10570F321E0C21A4E
:1019A000D108E108F10888EE880E83E0981EA11C9A
:1019B000B11CC114D104E104F10419F7DDCFFF908B
:1019C000EF90DF90CF90BF90AF909F908F90089551
:1019D0003FB7F89480912B0790912C07A0912D0789
:1019E000B0912E0726B5A89B05C02F3F19F0019690
:1019F000A11DB11D3FBFBA2FA92F982F8827820F95
:101A0000911DA11DB11DBC01CD0142E0660F771FE4
:101A1000881F991F4A95D1F708951F920F920FB60C
:101A20000F9211242F933F938F939F93AF93BF9364
:101A30008091DD059091DE05A091DF05B091E00574
:101A400030912A0723E0230F2D3720F40196A11DA2
:101A5000B11D05C026E8230F0296A11DB11D2093DC
:101A60002A078093DD059093DE05A093DF05B093F0
:101A7000E00580912B0790912C07A0912D07B09144
:101A80002E070196A11DB11D80932B0790932C0763
:101A9000A0932D07B0932E07BF91AF919F918F9187
:101AA0003F912F910F900FBE0F901F901895FC0142
:101AB0001082118212821382148215821682DC0136
:101AC00017960F961D92A817B907E1F77F961D92FA
:101AD0001D92EA17FB07D9F708958091CA069091E5
:101AE000CB060C941515CF93DF9300D01F92CDB782
:101AF000DEB7789484B5826084BD84B5816084BD8E
:101B000085B5826085BD85B5816085BD80916E009B
:101B1000816080936E0010928100809181008260CC
:101B20008093810080918100816080938100809109
:101B300080008160809380008091B10084608093F8
:101B4000B1008091B00081608093B00080917A00F4
:101B5000846080937A0080917A00826080937A001A
:101B600080917A00816080937A0080917A00806809
:101B700080937A001092C1000FB6F894A8958091D6
:101B80006000886180936000109260000FBEE09159
:101B9000FF05F091000682E08083E091FB05F09163
:101BA000FC051082E091FD05F091FE0580E1808347
:101BB00010920706E0910306F091040686E0808308
:101BC000E0910106F0910206808180618083E091BE
:101BD0000106F0910206808188608083E091010611
:101BE000F0910206808180688083E0910106F09187
:101BF000020680818F7D80830E94D50A8FEC91E060
:101C00000E94D90A0E94D50A0E948906882321F0E1
:101C100087E092E00E94D90A80919F04811145C01B
:101C200010929104109290048FEF8093940480930B
:101C300095048093960480939704809398048093EE
:101C4000990481E080939A0410929C0410929B0462
:101C500010929304109292048091E1059091E20514
:101C6000892B31F48EE894E09093E2058093E105AE
:101C7000E0918C04F0918D04309721F08EE894E08F
:101C8000958384838EE894E090938D0480938C04F4
:101C900010929E0410929D0482E291E090938F0432
:101CA00080938E0481E080939F04539A87EA94E0A6
:101CB000909391048093900480E490E090939C042E
:101CC00080939B048091D3069091D406A091D50671
:101CD000B091D606843C29E09207A105B10520F415
:101CE00084EC99E0A0E0B0E08093D3069093D40612
:101CF000A093D506B093D60684E68093D006409193
:101D000000015091010125E038E0429FC001439F4E
:101D1000900D529F900D1124875E994C829FA001D7
:101D2000839F500D929F500D1124475E594C429F46
:101D3000C001439F900D529F900D1124875E994CD6
:101D4000909301018093000110E00FEF19820A8344
:101D50000B83612F80E00E94D207BC01660F771FC2
:101D6000860F971FBC0169557B4FCE0101960E94DB
:101D7000DA071F5F103451F70E94A00964EF71E089
:101D800080E090E00E94AE0C10E058E2F52E0FEFDC
:101D9000F9820A830B83612F80E00E94D207BC0185
:101DA000660F771F860F971FBC0169557B4FCE01C9
:101DB00001960E94DA071F5F103451F70E94A009B4
:101DC00064EF71E080E090E00E94AE0C10E038E734
:101DD000F32E0FEFF9820A830B83612F80E00E94BC
:101DE000D207BC01660F771F860F971FBC0169558C
:101DF0007B4FCE0101960E94DA071F5F103451F726
:101E00000E94A00964EF71E080E090E00E94AE0CB7
:101E100010E0B8ECFB2E0FEFF9820A830B83612FE1
:101E200080E00E94D207BC01660F771F860F971FC4
:101E3000BC0169557B4FCE0101960E94DA071F5FF6
:101E4000103451F70E94A00964EF71E080E090E047
:101E50000E94AE0C10E0F4E1FF2E0FEFF9820A832E
:101E60000B83612F80E00E94D207BC01660F771FB1
:101E7000860F971FBC0169557B4FCE0101960E94CA
:101E8000DA071F5F103451F70E94A00964EF71E078
:101E900080E090E00E94AE0C10E06AEAE62E7FE55A
:101EA000F72E0FEFE982FA820B83612F80E00E9408
:101EB000D207BC01660F771F860F971FBC016955BB
:101EC0007B4FCE0101960E94DA071F5F103451F755
:101ED0000E94A00983E192E00E94D90A89E38093DD
:101EE0008F061092AF051092AE051092B1051092B8
:101EF000B0050E94920C84E099E09093B305809322
:101F0000B20585E099E09093B5058093B4058CE81F
:101F100096E00E94C20580918E068E7F80938E0689
:101F200080918C068E7F80938C068CE896E00E94D0
:101F30005A0580918E068D7F80938E0680918C0647
:101F40008D7F80938C068CE896E00E945A058FE185
:101F500092E00E94D90A0E948906882321F087E036
:101F600092E00E94D90A8091AB068F778093AB06EE
:101F70008BEA96E00E945A0560ED77E080E090E001
:101F80000E94AE0C99E288E10FB6F894A895809370
:101F900060000FBE909360008CE896E00E94C2053E
:101FA00080918D0681FD75C08BE292E00E94D90A76
:101FB00060ED77E080E090E00E94AE0C81E492E07A
:101FC0000E94D90A8CE896E00E94C20510918D0605
:101FD0001695117009F059C0A8953AEAE32E4FE51D
:101FE000F42E0FEFE982FA820B83612F80E00E94CA
:101FF000D207BC01660F771F860F971FBC0169557A
:102000007B4FCE0101960E94DA071F5F103451F713
:102010000E94A0098CE592E00E94D90A64E670E073
:1020200080E090E00E94AE0C8091AB0681608093CE
:10203000AB068BEA96E00E945A0587E692E00E9482
:10204000D90A8091AB06877F8093AB068BEA96E036
:102050000E945A0560EA7FE080E090E00E94AE0CAA
:102060008091AB0688608093AB068BEA96E00E9475
:102070005A058091AB0680628093AB068BEA96E0AE
:102080000E945A0581E080936C0581E792E00E94EE
:10209000D90A8091AB0680688093AB068BEA96E004
:1020A0000E945A0587E892E00E94D90A0E94D50A48
:1020B000FF24FA94FAEACF2EAFE5BA2EBAEAAB2E95
:1020C0001FE5912EDD24DA9400E6802EA8956AE0C3
:1020D00070E080E090E00E94AE0C8CE896E00E94F8
:1020E000C20580918D0680FD13C080916C05811121
:1020F0000FC080916B0581110BC08CEF93E00E94A3
:10210000D90A81E080936B058091AB068F7738C246
:102110008CE896E00E94C20580918D0680FF08C081
:1021200080916C05811104C080916B0581111FC2E3
:102130006AE070E080E090E00E94AE0C8CE896E0EF
:102140000E94C20580918D0681FD9FC180916C0522
:1021500081119BC18CE194E00E94D90A60ED77E087
:1021600080E090E00E94AE0C81E492E00E94D90AE7
:102170008CE896E00E94C20580918D06282F22707F
:10218000E22E81FD82C18091AB0680688093AB0610
:102190008BEA96E00E945A0585EB92E00E94D90AEC
:1021A000A89510E01982FA821B82612F80E00E94BC
:1021B000D207BC01660F771F860F971FBC016955B8
:1021C0007B4FCE0101960E94DA071F5F103451F752
:1021D0000E94A009A8958091AB068F7B8093AB06E7
:1021E0008BEA96E00E945A058CEC92E00E94D90A94
:1021F0008091AB068E7F8093AB068BEA96E00E94BF
:102200005A058AED92E00E94D90A68EE73E080E0F8
:1022100090E00E94AE0C8091AB068B7F8093AB0662
:102220008BEA96E00E945A0585EE92E00E94D90A58
:102230008091AB0680648093AB068BEA96E00E94A7
:102240005A0587EF92E00E94D90A60EA7FE080E0B9
:1022500090E00E94AE0C8091AB06877F8093AB0626
:102260008BEA96E00E945A0589E093E00E94D90A21
:1022700000E010E08AE193E00E94620BC8010E9436
:10228000560B0330110509F082C18091AB068F7E99
:102290008093AB068BEA96E00E945A058EE193E0AC
:1022A0000E94D90A712CA9829A82DB82672D80E074
:1022B0000E94D207BC01660F771F860F971FBC01D3
:1022C00069557B4FCE0101960E94DA07739480E432
:1022D0007812E9CF0E94A0098091AB068E7F80938F
:1022E000AB068BEA96E00E945A05A89568EE73E06B
:1022F00080E090E00E94AE0C712C1982DA82DB82C1
:10230000672D80E00E94D207BC01660F771F860F01
:10231000971FBC0169557B4FCE0101960E94DA07D9
:10232000739490E47912E9CF0E94A0098091AB06E2
:1023300081608093AB068BEA96E00E945A05A895CF
:1023400068EE73E080E090E00E94AE0C0F5F1F4FDC
:102350000332110509F08ECF10E08982FA82FB82E8
:10236000612F80E00E94D207BC01660F771F860FA5
:10237000971FBC0169557B4FCE0101960E94DA0779
:102380001F5F103451F70E94A0098FE393E00E9471
:10239000D90AA89568E873E180E090E00E94AE0C4D
:1023A0008091AB0684608093AB068BEA96E00E9436
:1023B0005A058AE493E00E94D90A8091AB068860AE
:1023C0008093AB068BEA96E00E945A058DE593E078
:1023D0000E94D90A8091AB0681608093AB068BEA9C
:1023E00096E00E945A0587E692E00E94D90AC982C7
:1023F000BA82FB826E2D80E00E94D207BC01660F7C
:10240000771F860F971FBC0169557B4FCE01019640
:102410000E94DA07E394E0E4EE12E9CF0E94A009FB
:102420008CE592E00E94D90AA89560E777E180E008
:1024300090E00E94AE0C8FE693E00E94D90AA89526
:1024400068E57BE180E090E00E94AE0CA895809169
:10245000AB0682608093AB068BEA96E00E945A0539
:1024600084E893E00E94D90A8091AB068062809351
:10247000AB068BEA96E00E945A0585E993E00E943C
:10248000D90AA89581E080936C056AE070E080E04D
:1024900090E00E94AE0C80916C05882309F464C022
:1024A0008CE896E00E94C20580918D0681FD8EC069
:1024B0005BC0A8952FB7F8948091DD059091DE055B
:1024C000A091DF05B091E0052FBF409167055091C5
:1024D00068056091690570916A05841B950BA60BD0
:1024E000B70B81329F4BA240B10560F18AEA93E0BD
:1024F0000E94D90A02E710E0F801649161117EC0E0
:102500000E94D50A6AEF70E080E090E00E94AE0C75
:1025100083E0482E512C612C712C4AE0C301B2019A
:102520000E94E50A0E94D50A68EE73E080E090E020
:102530000E94AE0CF1E04F1A51086108710869F76A
:102540000C94000064E670E080E090E00E94AE0C25
:102550008CE896E00E94C20580918D0681FDA9CF8E
:102560008FEC93E00E94D90A0E949501AFCD8BE0D9
:1025700094E00E94D90A10926B058091AB068068A6
:102580008093AB068BEA96E00E945A05D1CD0D30C0
:10259000110561F48091AB0680618093AB068BEAF4
:1025A00096E00E945A0586E293E07ACE0F3011053C
:1025B00009F078CE8091AB068D7F8093AB068BEAD5
:1025C00096E00E945A058FE293E06ACE8BE294E097
:1025D0000E94D90A2FB7F8948091DD059091DE050D
:1025E000A091DF05B091E0052FBF80936705909320
:1025F0006805A0936905B0936A05AACF8FEE95E0B0
:102600000E9426010F5F1F4F892B09F075CF78CFED
:102610001092E6051092E50588EE93E0A0E0B0E0A8
:102620008093E7059093E805A093E905B093EA0548
:1026300024E331E03093E4052093E3051092F205A2
:102640001092F1058093F3059093F405A093F5059E
:10265000B093F60586E491E09093F0058093EF0542
:1026600085EC90E09093FC058093FB0584EC90E072
:102670009093FE058093FD0580EC90E0909300061A
:102680008093FF0581EC90E0909302068093010611
:1026900082EC90E0909304068093030686EC90E031
:1026A000909306068093050610920806109209067C
:1026B00010920A0610920B061092CB061092CA06D0
:1026C0001092CD061092CC061092CF061092CE0634
:1026D00067E170E080E090E00E949E15009799F01D
:1026E0009093CB068093CA0626E130E03093CD0666
:1026F0002093CC062091CE063091CF06232BB1F546
:10270000FC01108233C08091CA069091CB060097DD
:1027100011F00E9415151092CB061092CA06109265
:10272000CF061092CE061092CD061092CC068BEA00
:1027300096E00E94570D8CE896E00E94570D8FEFAF
:102740008093D0061092D2061092D1061092DC0629
:102750001092DB068FEF9FEFDC018093D7069093FA
:10276000D806A093D906B093DA06089586E190E0E2
:102770009093CF068093CE066CE374E08091CA06F6
:102780009091CB060E947216D2CF0E940714A59F8B
:10279000900DB49F900DA49F800D911D112408955C
:1027A0002F923F924F925F926F927F928F929F9261
:1027B000AF92BF92CF92DF92EF92FF920F931F934F
:1027C000CF93DF93CDB7DEB7CA1BDB0B0FB6F89400
:1027D000DEBF0FBECDBF09942A88398848885F8440
:1027E0006E847D848C849B84AA84B984C884DF80B1
:1027F000EE80FD800C811B81AA81B981CE0FD11D95
:102800000FB6F894DEBF0FBECDBFED010895A29FB5
:10281000B001B39FC001A39F700D811D1124911DB4
:10282000B29F700D811D1124911D0895DB018F93BE
:102830009F930E94C513BF91AF91A29F800D911DE0
:10284000A39F900DB29F900D1124089597FB072E22
:1028500016F4009407D077FD09D00E94631407FC9A
:1028600005D03EF4909581959F4F089570956195A0
:102870007F4F0895A1E21A2EAA1BBB1BFD010DC0BC
:10288000AA1FBB1FEE1FFF1FA217B307E407F50720
:1028900020F0A21BB30BE40BF50B661F771F881FFC
:1028A000991F1A9469F760957095809590959B0192
:1028B000AC01BD01CF0108950E940714B7FF089530
:1028C000821B930B0895AA1BBB1B51E107C0AA1FD3
:1028D000BB1FA617B70710F0A61BB70B881F991FC1
:1028E0005A95A9F780959095BC01CD010895EE0FFA
:1028F000FF1F0590F491E02D09940F931F93CF9340
:10290000DF938230910510F482E090E0E09131078E
:10291000F091320720E030E0A0E0B0E0309719F10C
:10292000408151810281138148175907C8F08417EB
:10293000950769F4109731F012960C93129713963D
:102940001C9327C0009331071093320722C0211532
:10295000310519F04217530718F49A01BD01EF0130
:10296000DF01F801DBCF21153105F9F0281B390B08
:102970002430310580F48A819B816115710521F035
:10298000FB019383828304C09093320780933107C5
:10299000FE01329644C0FE01E20FF31F8193919332
:1029A00022503109398328833AC020912F07309172
:1029B0003007232B41F4209104013091050130931D
:1029C000300720932F072091020130910301211538
:1029D000310541F42DB73EB74091060150910701F2
:1029E000241B350BE0912F07F0913007E217F30716
:1029F000A0F42E1B3F0B2817390778F0AC014E5F6F
:102A00005F4F2417350748F04E0F5F1F5093300774
:102A100040932F078193919302C0E0E0F0E0CF0153
:102A2000DF91CF911F910F910895CF93DF9300977E
:102A300009F481C0FC01329713821282A091310700
:102A4000B0913207109781F420813181820F931F5A
:102A500020912F07309130072817390751F5F0934F
:102A60003007E0932F0767C0ED0120E030E0CE177C
:102A7000DF0740F44A815B819E0141155105F1F069
:102A8000EA01F5CFD383C28340815181840F951F22
:102A9000C817D90759F488819981840F951F029628
:102AA000918380838A819B81938382832115310561
:102AB00029F4F0933207E09331073DC0E901FB832D
:102AC000EA8349915991C40FD51FEC17FD0761F4B2
:102AD00080819181840F951F0296E90199838883F3
:102AE000828193819B838A83E0E0F0E012968D914E
:102AF0009C911397009719F0FD01DC01F7CF8D91A0
:102B00009C9111979D012E5F3F4F820F931F209143
:102B10002F07309130072817390769F4309729F4C7
:102B2000109232071092310702C013821282B093C2
:102B30003007A0932F07DF91CF910895A0E0B0E078
:102B4000E4EAF5E10C94D413EC01009721F4CB01F5
:102B50000E947D14B4C0FC01E60FF71F9C012250B7
:102B60003109E217F30708F4A8C0D9010D911C91AF
:102B7000119706171707B0F00530110508F49BC030
:102B8000C80104978617970708F495C002501109E9
:102B9000061B170B019311936D937C93CF010E9439
:102BA000151589C05B01A01AB10A4C01800E911E57
:102BB000A0913107B0913207612C712CE12CF12CDE
:102BC000109709F446C08D919C911197A815B905ED
:102BD000B1F56C0142E0C40ED11CCA14DB0478F1DB
:102BE0004C018A189B08640142E0C40ED11C129665
:102BF000BC9012971396AC91B5E0CB16D10440F07F
:102C0000B282A38391828082D9016D937C9309C0A3
:102C10000E5F1F4F800F911FF90191838083EB2D71
:102C2000FA2FE114F10431F0D7011396FC93EE93DF
:102C3000129741C0F0933207E09331073CC0681609
:102C4000790608F43C017D0112960D90BC91A02DEF
:102C5000B7CF80912F079091300788169906E1F43D
:102C600066167706C8F480910201909103010097DF
:102C700041F48DB79EB74091060150910701841B26
:102C8000950BE817F907C8F4F0933007E0932F0786
:102C9000F901718360830FC0CB010E947D147C0118
:102CA000009759F0A801BE010E946916CE010E944A
:102CB0001515C70104C0CE0102C080E090E0CDB779
:102CC000DEB7EEE00C94F01381E090E0F8940C9401
:102CD0007916FB01DC0102C001900D924150504079
:102CE000D8F70895FB01DC0101900D920020E1F777
:102CF000089510E0C4E6D0E004C0FE010E947714FD
:0C2D00002196C536D107C9F7F894FFCF23
:102D0C0039050000330720006B006C006D000000DB
:102D1C000000AD02AD02AD028202A602AA020000C2
:102D2C0000003F02FB01F9018202A602F601AF028C
:102D3C00000000005F093209BA0006092A091609C9
:102D4C0007090000000026018F00BD007301EE0092
:102D5C00CC00E000202020202000416C61726D200E
:102D6C0050696E205B005D2073657420746F2000C9
:102D7C004269672046616E204F55542050696E2081
:102D8C005B00536D616C6C2046616E204F55542076
:102D9C0050696E205B00536D616C6C2046616E2037
:102DAC00494E2050696E205B00466F672050696E5B
:102DBC00205B0056747269676765722050696E20DB
:102DCC005B004D61676E65742050696E205B003D41
:102DDC003D3D3D3D3D3D3D3D3D3D3D3D3D3D3D3D17
:102DEC003D3D646174652030312E30342E323032EA
:102DFC00303D3D3D3D3D3D3D3D3D3D3D3D3D3D3D04
:102E0C003D3D3D3D3D3D0052656C61793A202020B1
:102E1C006F6B004C45443A20202020206F6B0049FA
:102E2C006E707574733A20206F6B004C6162206475
:102E3C006F6F7220616C7265616479206F70656E62
:102E4C00004C616220646F6F723A206F70656E2067
:102E5C0028326E6420636865636B29004C45443AE4
:102E6C00207768697465004C696768743A206F6EE6
:102E7C00004A756D70656420746F2066696E616CB4
:102E8C00207374617465003D3D3D3D3D3D3D3D3DD0
:102E9C003D3D3D3D3D3D3D3D3D3D53544152543DF9
:102EAC003D3D3D3D3D3D3D3D3D3D3D3D3D3D3D3D46
:102EBC003D3D3D3D004465636F6E74616D696E61AF
:102ECC0074696F6E3A20737461727400547269671E
:102EDC0067657220566964656F004C696768743A5F
:102EEC00206F66660046616E204F555420736D61ED
:102EFC006C6C3A206F6E005472696767657220566D
:102F0C006964656F206F66660046616E20494E20CD
:102F1C00736D616C6C3A206F6E007A3A2000466FCC
:102F2C00673A206F6E00466F673A206F6666004600
:102F3C00616E204F5554206269673A206F6E004CC9
:102F4C0045443A20677265656E0046616E204F55A8
:102F5C005420736D616C6C3A206F66660046616E2E
:102F6C0020494E20736D616C6C3A206F666600438D
:102F7C006C65616E20726F6F6D3A20756E6C6F634D
:102F8C006B65640046616E204F5554206269673A48
:102F9C00206F6666004465636F6E74616D696E6167
:102FAC0074696F6E3A20656E64004C616220646FC8
:102FBC006F723A20636C6F73656420666F72203396
:102FCC00206D696E73202D3E205245534554004CA4
:102FDC00616220646F6F723A206F70656E65642059
:102FEC006265666F72652033206D696E73202D3EAD
:102FFC002074696D6572526573657400456E7472E8
:10300C00616E63653A206F70656E00456E74726117
:10301C006E63653A20636C6F736564004C6162206B
:10302C00646F6F723A206F70656E004C6162206441
:10303C006F6F723A20636C6F736564005245494E32
:10304C005241554D535445554552554E47207631B6
:06305C002E31000D0A00F8
:00000001FF
