:100000000C94B8000C94E0000C94E0000C940E06E4
:100010000C94E9050C94C4050C94E0000C94E000E9
:100020000C94E0000C94E0000C94E0000C94E000D0
:100030000C94E0000C94E0000C94E0000C94E000C0
:100040000C94DC0C0C94E0000C94A1030C947B0346
:100050000C94E0000C94E0000C94E0000C94E000A0
:100060000C9433060C94E00020646576696365287F
:1000700073292E00466F756E642000202D3E20539C
:100080006572766F2D4932432D426F617264002094
:100090002D3E2052656C617900202D3E204469730D
:1000A000706C617900202D3E20496E7075742D4969
:1000B00032432D626F61726400202D3E204C434418
:1000C0002D4932432D426F61726400202D3E204C39
:1000D00043440029002028307800466F756E642064
:1000E000616464726573733A20005363616E6E6974
:1000F0006E672E2E2E00493243207363616E6E654B
:10010000723A0052657374617274696E6720696E29
:1001100000010204081020408001020408102001A0
:10012000020408102000000000250028002B000415
:10013000040404040404040202020202020303038E
:1001400003030300000000240027002A0000000031
:100150000023002600290000000008000201000022
:1001600003040700000000000000000004147113E5
:1001700011241FBECFEFD8E0DEBFCDBF27E0A8E33C
:10018000B4E001C01D92A537B207E1F714E0A0E08A
:10019000B1E0E0EAFEE202C005900D92A833B1079B
:1001A000D9F710E0C7EBD0E004C02197FE010E9410
:1001B0001B15C63BD107C9F70E94260D0C944317A7
:1001C0000C940000CF92DF92EF92FF920F931F9357
:1001D000CF93DF936C017A018B01C0E0D0E0CE15A4
:1001E000DF0581F0D8016D918D01D601ED91FC9173
:1001F0000190F081E02DC6010995892B11F021961F
:10020000EECF7E01C701DF91CF911F910F91FF903B
:10021000EF90DF90CF900895FC01538D448D252FF2
:1002200030E0842F90E0821B930B541710F0CF9690
:10023000089501970895FC01918D828D981761F0C2
:10024000828DDF01A80FB11D5D968C91928D9F5F0D
:100250009F73928F90E008958FEF9FEF0895FC01B8
:10026000918D828D981731F0828DE80FF11D858D6B
:1002700090E008958FEF9FEF0895FC01918D228DFE
:10028000892F90E0805C9F4F821B91098F73992783
:10029000089586E795E00E943D0121E0892B09F44D
:1002A00020E0822F0895FC01848DDF01A80FB11D8D
:1002B000A35ABF4F2C91848D90E001968F7399279C
:1002C000848FA689B7892C93A089B1898C9183707A
:1002D00080648C93938D848D981306C00288F38973
:1002E000E02D80818F7D80830895EF92FF920F93A0
:1002F0001F93CF93DF93EC0181E0888F9B8D8C8DD2
:10030000981305C0E889F989808185FD26C0F62EFD
:100310000B8D10E00F5F1F4F0F731127E02E8C8D98
:10032000E8120CC00FB607FCFACFE889F989808182
:1003300085FFF5CFCE010E945301F1CF8B8DFE01D9
:10034000E80FF11DE35AFF4FF0829FB7F8940B8F2F
:10035000EA89FB89808180620AC09FB7F894EE89A0
:10036000FF896083E889F989808183708064808354
:100370009FBF81E090E0DF91CF911F910F91FF909F
:10038000EF900895CF93DF93EC01888D8823C9F017
:10039000EA89FB89808185FD05C0A889B9898C918E
:1003A00086FD0FC00FB607FCF5CF808185FFF2CF29
:1003B000A889B9898C9185FFEDCFCE010E945301A8
:1003C000E7CFDF91CF91089580E090E0892B29F06D
:1003D0000E94490181110C940000089590E0FC01F5
:1003E000EE0FFF1FEF5AFE4FA591B4912C91FC0127
:1003F000E853FB4F30812083880F991FFC01E55A99
:10040000FE4F0190F081E02D8081089585ED80936D
:10041000BC008091BC0084FDFCCF1092750508954E
:1004200040917504262F30E0240F311D2132310513
:10043000DCF4209175052430C9F4FC0180E090E0E3
:10044000861758F4309175042191DC01AB5ABB4FEB
:10045000A30FB11D2C930196F3CF80917504680F03
:100460006093750480E0089581E0089582E0089526
:10047000089508950895E0916B0780916A07E81741
:1004800030F4F0E0E15DFA4F808190E008958FEF65
:100490009FEF089590916B0780916A07981750F429
:1004A000E92FF0E0E15DFA4F208130E09F5F90930B
:1004B0006B0702C02FEF3FEFC901089580916A07D3
:1004C00090E020916B07821B91090895CF92DF92F3
:1004D000EF92FF920F931F93CF93DF937C01CB0199
:1004E0008A0120910B05222389F0EB016B01C40ED8
:1004F000D51ECC15DD0569F06991D701ED91FC9110
:100500000190F081E02DC7010995F3CF642F0E947F
:100510001002C801DF91CF911F910F91FF90EF90D2
:10052000DF90CF900895CF93DF931F92CDB7DEB7C2
:10053000698320910B052223D1F020912E052032D2
:1005400040F021E030E0FC013383228380E090E042
:1005500015C080910C05E82FF0E0E35FFA4F998118
:1005600090838F5F80930C0580932E0505C061E01A
:10057000CE0101960E94100281E090E00F90DF9181
:10058000CF910895089580E090E008950E940817A3
:10059000CF92DF92EF92FF921F93CF93DF93FC01F4
:1005A0002689222339F01EBC00000DB407FEFDCFC2
:1005B0001EB526C0EC0161E081810E94E00BE12CB8
:1005C000F12C10E0CC24C394D12C8B810E94B70B6A
:1005D000892B39F0C6010E2C01C0880F0A94EAF766
:1005E000182B60E089810E94E00B61E089810E9404
:1005F000E00BFFEFEF1AFF0A88E0E816F10429F795
:10060000812FDF91CF911F91FF90EF90DF90CF90DE
:100610000895FC0124813581232B31F421E06115FB
:100620007105A1F0FB0108C0FC0180819181611579
:10063000710531F421E0FC018081882339F005C087
:100640000E94161721E0892B09F020E0822F0895DF
:10065000FC01808191810C94B915EF92FF920F9368
:100660001F93CF93DF93EC01198218821B821A82A9
:100670001D821C8261157105B9F17B01FB0101909E
:100680000020E9F731978F01061B170BB8016F5F48
:100690007F4F80E090E00E944216009759F09983C6
:1006A00088831B830A832C813D81232B81F4FC01E9
:1006B00010820DC088819981009711F00E94B915B0
:1006C000198218821D821C821B821A820DC01D8312
:1006D0000C83B70188819981DF91CF911F910F9190
:1006E000FF90EF900C941F17DF91CF911F910F9106
:1006F000FF90EF9008951F920F920FB60F92112462
:100700002F933F934F935F936F937F938F939F9319
:10071000AF93BF93EF93FF9386E795E00E94530159
:10072000FF91EF91BF91AF919F918F917F916F91C9
:100730005F914F913F912F910F900FBE0F901F909F
:1007400018951F920F920FB60F9211242F938F932B
:100750009F93EF93FF93E0918605F0918705808149
:10076000E0918C05F0918D0582FD12C09081809101
:100770008F058F5F8F7320919005821751F0E09164
:100780008F05F0E0EA58FA4F958F80938F0501C0EE
:100790008081FF91EF919F918F912F910F900FBECC
:1007A0000F901F901895EF92FF920F931F93CF9386
:1007B000DF93FC012689222339F06EBD00000DB4C1
:1007C00007FEFDCF8EB527C0062FEC0161E08181C9
:1007D0000E94E00BE12CF12C10E060E089810E9486
:1007E000E00BC8010E2C02C0959587950A94E2F79C
:1007F00080FF02C061E001C060E08A810E94E00BDE
:1008000061E089810E94E00BFFEFEF1AFF0A88E0A8
:10081000E816F10411F7DF91CF911F910F91FF902E
:10082000EF900895682F83E196E00C949302089569
:100830008CBD9DBD0895CF92DF92EF92FF920F93F2
:100840001F93CF93DF937C016B01C42FFC0185893B
:10085000042F10E08823A1F18689882321F081E705
:1008600090E00E94180460E0F70180810E94E00B94
:1008700062E070E080E090E00E94A20C63E0C701BB
:100880000E94D303E6010C0D1D1DC017D10759F0BE
:1008900061E070E080E090E00E94A20CC7010E943D
:1008A000C8028993F2CF61E0F7018081DF91CF9197
:1008B0001F910F91FF90EF90DF90CF900C94E00B81
:1008C00062E070E080E090E00E94A20C62E06C0FB9
:1008D000613208F060E284E20E94050910926B0721
:1008E00080936A0783E196E00E944A02E6010C0DBC
:1008F0001D1DC017D10761F061E070E080E090E05D
:100900000E94A20C83E196E00E944A028993F1CFF3
:10091000DF91CF911F910F91FF90EF90DF90CF90DB
:100920000895CF92DF92EF92FF920F931F93CF9390
:10093000DF93EC016B01E12CF12C8D89882309F107
:100940008E89882321F081E790E00E94180460E0FE
:1009500088810E94E00B62E070E080E090E00E94FD
:10096000A20C62E0CE010E94D303CE010E94C80215
:10097000082F61E088810E94E00B11E0013039F41A
:100980001CC08C810E94B70B11E08823B1F010E0ED
:10099000C114D10459F08AE0E80EF11CCE14DF0432
:1009A00028F48CED93E00E94F90807C06AE070E03B
:1009B00080E090E00E94A20CC0CF812FDF91CF9108
:1009C0001F910F91FF90EF90DF90CF900895CF92FD
:1009D000DF92EF92FF920F931F93CF93DF93CDB7E8
:1009E000DEB729970FB6F894DEBF0FBECDBF8C01DE
:1009F000DC0118968D919C911997892B09F4A3C05D
:100A00000E947D0CF801C684D784E088F188DC015F
:100A1000CB018C199D09AE09BF098C329140A1050B
:100A2000B10570F3F894D80114968D919C911597A7
:100A30009A8389831896ED91FC9119977F01BFEFF6
:100A4000EB1AFB0A80818987F80190810288F3897B
:100A5000E02DD80154968C91992309F430C09081EF
:100A6000982B98879081809589238F838F818C83A1
:100A700088E08B8358856F8149853B812C818981F2
:100A80009A81D701508347FD252F3A952083262F41
:100A900039F0441F00C000006083000000C0F2CFA6
:100AA00038E04D9160830000019761F7D8015396BB
:100AB000FC93EE93529749873B832C833AC09081F5
:100AC000982B98879081809589238F838F818E833F
:100AD00088E08D8358856F8149853D812E8189818C
:100AE0009A81D701508347FD252F00C000C0208385
:100AF00000C000C000C000C000C060830000262FFE
:100B00003A9541F0441F000000C000C000C000C082
:100B100000C0E8CF38E04D9100C0608300C001976D
:100B200009F7D8015396FC93EE93529749873D837A
:100B30002E839A83898378940E947D0CF8016687BE
:100B40007787808B918B29960FB6F894DEBF0FBE06
:100B5000CDBFDF91CF911F910F91FF90EF90DF906C
:100B6000CF900895CF93DF93EC018E8187FD07C06E
:100B700061E00E94410C60E08E810E94E00B81E008
:100B80008983DF91CF9108951F920F920FB60F9234
:100B900011242F933F934F935F936F937F938F9382
:100BA0009F93AF93BF93EF93FF9382E00E94EE0178
:100BB000FF91EF91BF91AF919F918F917F916F9135
:100BC0005F914F913F912F910F900FBE0F901F900B
:100BD00018951F920F920FB60F9211242F933F93E7
:100BE0004F935F936F937F938F939F93AF93BF9335
:100BF000EF93FF9381E00E94EE01FF91EF91BF918F
:100C0000AF919F918F917F916F915F914F913F91A4
:100C10002F910F900FBE0F901F9018951F920F925B
:100C20000FB60F9211242F933F934F935F936F93BF
:100C30007F938F939F93AF93BF93EF93FF9380E046
:100C40000E94EE01FF91EF91BF91AF919F918F9123
:100C50007F916F915F914F913F912F910F900FBEB8
:100C60000F901F9018951F920F920FB60F9211249C
:100C70002F933F934F935F936F937F938F939F93A4
:100C8000AF93BF93EF93FF938091B900887F803635
:100C900009F49CC068F5883209F45BC090F4803197
:100CA00009F454C038F4882309F4F6C0883009F4F4
:100CB0004DC0F6C0883109F44CC0803209F45DC0E3
:100CC000EFC0803409F468C048F4803309F455C09B
:100CD000883309F0E5C080937305D8C0803509F4E6
:100CE0004FC0883509F45DC0883409F0D9C0D6C03A
:100CF000883909F4C7C0A8F4883709F467C038F404
:100D0000883609F463C0803709F460C0C9C08838E8
:100D100009F4B8C0803909F45FC0803809F0C0C058
:100D20005BC0803B09F486C038F4803A09F466C0A1
:100D3000883A09F47FC0B4C0803C09F4A7C0883C5D
:100D400009F4A4C0883B09F48AC0AAC08091700548
:100D500010C09091720580917105981770F5E0911F
:100D6000720581E08E0F80937205F0E0E15BFA4F2F
:100D700080818093BB0085EC86C0809373058EC014
:100D8000E091720581E08E0F809372058091BB0027
:100D9000F0E0E15BFA4F80839091720580917105DC
:100DA0006EC0E091720581E08E0F80937205809194
:100DB000BB00F0E0E15BFA4F808380917405811104
:100DC0006DC081E080936F0584EA61C083E0809309
:100DD000750510929704CFCF80919704803208F068
:100DE00051C0E091970481E08E0F80939704809129
:100DF000BB00F0E0E958FB4F8083BDCF85EC8093CA
:100E0000BC001092750580919704803230F4E09117
:100E10009704F0E0E958FB4F10826091970470E06E
:100E2000E0916607F091670787E794E009951092D3
:100E3000970436C084E08093750510927604109272
:100E40007504E0916807F091690709958091750430
:100E5000811105C081E08093750410925504E091E2
:100E6000760481E08E0F80937604F0E0EB5AFB4F1E
:100E700080818093BB0090917604809175049817CF
:100E800008F479CF85E88093BC000AC085EC809394
:100E9000BC001092750504C0109273050E940602F2
:100EA000FF91EF91BF91AF919F918F917F916F9142
:100EB0005F914F913F912F910F900FBE0F901F9018
:100EC00018950F931F93CF93DF93EC018B0161E093
:100ED0008EE00E94E00B0E94F5088BE592E00E94F4
:100EE000DB0AEAE4F7E0448155816081718186E79D
:100EF00095E00E94E20085EE93E00E94DB0A60919B
:100F000053047091540480E090E04AE00E949A0AF1
:100F100086EE93E00E94DB0AC8010E94DB0A86EE9F
:100F200093E00E94DB0ACE010E94DB0A8AEE93E086
:100F30000E94F90880915304909154040196909373
:100F400054048093530462E370E080E090E00E94D8
:100F5000A20C60E08EE0DF91CF911F910F910C9475
:100F6000E00BEF92FF921F93CF93DF9300D000D05E
:100F700000D0CDB7DEB788E3E82E84E0F82EF70185
:100F800021E080E090E041915191840F951F452B25
:100F900009F420E034E0E034F307A9F710E0089703
:100FA000A1F463EF73E0CE0101960E942D03BE0110
:100FB0006F5F7F4F812F0E949108CE0101960E94A2
:100FC00028031F5F143069F732C021111DC0F701DB
:100FD000819191917F01892B19F469EF73E002C02F
:100FE0006FEF73E0CE0101960E942D03BE016F5F8B
:100FF0007F4F812F0E949108CE0101960E94280305
:101000001F5F143021F713C065E074E0CE01019634
:101010000E942D03BE016F5F7F4F812F0E949108B8
:10102000CE0101960E9428031F5F143069F72696AF
:101030000FB6F894DEBF0FBECDBFDF91CF911F91E9
:10104000FF90EF900895009769F0FC010190002057
:10105000E9F73197AF01481B590BBC0186E795E0D2
:101060000C94E20080E090E00895BF92CF92DF926E
:10107000EF92FF920F931F93CF93DF93FC01828136
:101080009381892B09F443C06B01EE24FF24BC2C0F
:10109000052F162F272F3327B02FA42F87818823C2
:1010A00061F0C89E60011124BD2C809F8001112435
:1010B000B12F849F90011124A32F9585D28520857F
:1010C00031859D17A1F0472F55276627772789017E
:1010D000090F111D882349F090E0849F7001859FBE
:1010E000F00C949FF00C11244F2DE8014883828569
:1010F000A901480F511DEA01B8828385E901C80F93
:10110000D11DB8838485F901E80FF11DA083DF911B
:10111000CF911F910F91FF90EF90DF90CF90BF90F4
:1011200008950F931F93CF93C82F8B0165E074E050
:10113000C8010E940903811119C063EF73E0C8015F
:101140000E940903811117C06FEF73E0C8010E946C
:101150000903811115C068EA71E0C8010E94090302
:10116000811113C040E050E0BA0113C040E050E0EC
:101170006FEF70E00EC040E05FEF60E070E009C02C
:101180004FEF5FEF6FEF70E004C040E056E46FEFA9
:1011900070E0C11107C085E397E00E94350885E340
:1011A00097E01AC0C13039F480E297E00E94350818
:1011B00080E297E011C0C23039F48BE097E00E94E2
:1011C00035088BE097E008C0C33059F486EF96E00D
:1011D0000E94350886EF96E0CF911F910F910C94F5
:1011E000E704CF911F910F91089585E394E00C944B
:1011F0002308CF93DF930E942308EC010E94F50897
:101200008C0F9D1FDF91CF910895909175059111DD
:10121000FCCF91E090937505909374052FEF209388
:10122000730510927205260F209371059093700537
:1012300090917005880F892B8093700580916F05C0
:10124000813061F410926F05809170058093BB002E
:101250008091BC0083FDF8CF85EC01C085EE8093C2
:10126000BC00809175058130E1F38091720586178D
:1012700010F460917205AFE4B5E0EFE2F5E080E0D4
:10128000861721F09D9191938F5FFACF0895282FB3
:1012900030912E05313208F04AC0809175058111D8
:1012A000FCCF90912D0542E0409375052093740585
:1012B0002FEF209373051092720530937105EDE0C6
:1012C000F5E0AFE4B5E020E0321721F041914D9315
:1012D0002F5FFACF1092700520917005990F922B15
:1012E0009093700590916F05913061F410926F05A5
:1012F000909170059093BB009091BC0093FDF8CF46
:1013000095EC01C095EE9093BC00909175059230DC
:10131000E1F3909173059F3F79F0809173058032DE
:1013200041F080917305803331F084E005C081E0A5
:1013300003C082E001C083E010920C0510922E05DC
:1013400010920B0508958F929F92AF92BF92CF9209
:10135000DF92EF92FF920F931F93CF93DF9300D012
:1013600000D000D0CDB7DEB78C016A01FC018589C1
:10137000EE24E394E60E882309F45FC0868988236F
:1013800021F081E790E00E94180460E0F80180817C
:101390000E94E00B62E070E080E090E00E94A20C0E
:1013A00061E0C8010E94D30360E0C8010E94D3033A
:1013B00060E0C8010E94D3036FEFC8010E94D3030D
:1013C0006E2DC8010E94D3036E2D6195C8010E9445
:1013D000D30364EDC8010E94D303A12C93EDB92E71
:1013E000F12CF1E0EF1AF1088A2D90E08E159F059F
:1013F00074F49C0125533B4F4901F9016081C801F8
:101400000E94D303F4018081B80EA394EDCF6B2D1D
:101410006095C8010E94D30360E0C8010E94D30315
:1014200061E0F80180810E94E00BF8018689882341
:1014300009F449C00E94170446C062E070E080E0F1
:1014400090E00E94A20C81E080930B0584E28093DF
:101450002D0510920C0510922E0580E00E941204BA
:1014600080E00E9412048FEF0E9412048E2D0E94D1
:1014700012048E2D81950E94120484ED0E941204A4
:10148000812C83ED982EF12CF1E0EF1AF108882DD4
:1014900090E08E159F056CF49C0125533B4F59013C
:1014A000F90180810E941204F5018081980E8394D5
:1014B000EECF892D80950E94120480E00E941204D4
:1014C00081E00E944709B601C8010E949104F82EEC
:1014D000811102C0F12C1AC046E0BE016F5F7F4F40
:1014E000C8010E941B0446E050E067E371E0CE01B2
:1014F00001960E942617892B69F7F80185898823B0
:1015000029F0B601C8010E949104F82E8F2D26966D
:101510000FB6F894DEBF0FBECDBFDF91CF911F9104
:101520000F91FF90EF90DF90CF90BF90AF909F9082
:101530008F9008958F929F92AF92BF920F931F93B7
:10154000CF93DF93CDB7DEB7A1970FB6F894DEBF88
:101550000FBECDBF19A2423008F44AE08E010F5DE4
:101560001F4F842E912CA12CB12CA50194010E9417
:10157000F914E62FB901CA0101501109EA3014F437
:10158000E05D01C0E95CD801EC93232B242B252BD3
:1015900061F7C8010E942308A1960FB6F894DEBF38
:1015A0000FBECDBFDF91CF911F910F91BF90AF9034
:1015B0009F908F9008950C942308833081F028F435
:1015C000813099F08230A1F008958730A9F08830F9
:1015D000B9F08430D1F4809180008F7D03C0809178
:1015E00080008F7780938000089584B58F7702C044
:1015F00084B58F7D84BD08958091B0008F7703C03E
:101600008091B0008F7D8093B0000895CF92DF92DB
:10161000EF92FF92CF93DF936B017C016DE286E73F
:1016200095E00E947501EC0166277727CB016C19C4
:101630007D098E099F094AE00E949A0A8C0F9D1F1E
:10164000DF91CF91FF90EF90DF90CF900895EFE181
:10165000F6E0918162818081238131E030930B0536
:1016600020932D0510920C0510922E05609569238C
:10167000682B83E196E00E94930281E00C94470975
:101680000F931F93CF93DF938C01C0E0D0E0F8015C
:10169000EC0FFD1F6491662341F086E795E00E9400
:1016A0007501892B11F02196F2CFCE01DF91CF91F8
:1016B0001F910F910895CF93DF930E94400BEC018F
:1016C0000E94F5088C0F9D1FDF91CF910895CF9256
:1016D000DF92EF92FF921F93CF93DF93EC017B0198
:1016E0006A018AE48093CB0481E08093CC04109259
:1016F000CD0440E050E063E0CE010E94A309182F22
:10170000882359F18D89882381F044E16BEC74E0E2
:10171000CE010E941B048091D2048130F1F48091AB
:10172000D704F601808380E008C060E070E0CE015D
:101730000E9491048111E9CF10C09091D7048917BC
:1017400068F4282F30E0F901E553FB4F9585F70148
:10175000E20FF31F90838F5FF0CF10E0812FDF91B6
:10176000CF911F91FF90EF90DF90CF900895CF938E
:10177000DF93282F30E0F901E95AFE4F8491F901F7
:10178000EF5EFE4FD491F901E15DFE4FC491CC2391
:1017900091F081110E94DD0AEC2FF0E0EE0FFF1FA7
:1017A000E35BFE4FA591B491EC91ED2381E090E0D5
:1017B00021F480E002C080E090E0DF91CF910895B5
:1017C0001F93CF93DF93282F30E0F901E95AFE4FA2
:1017D0008491F901EF5EFE4FD491F901E15DFE4F76
:1017E000C491CC23C1F0162F81110E94DD0AEC2F89
:1017F000F0E0EE0FFF1FEB5DFE4FA591B4919FB798
:10180000F894111104C08C91D095D82302C0EC91AA
:10181000DE2BDC939FBFDF91CF911F910895109233
:101820006B0710926A0710920C0510922E05109209
:10183000750581E08093740510926F0561E082E187
:101840000E94E00B61E083E10E94E00BE9EBF0E035
:1018500080818E7F808380818D7F808388E48093E8
:10186000B80085E48093BC0088E392E09093690718
:101870008093680789E392E09093670780936607F7
:101880000895CF93DF9390E0FC01EF5EFE4F24912B
:10189000FC01E15DFE4F8491882361F190E0880FA7
:1018A000991FFC01ED5BFE4FC591D491FC01EB5DEE
:1018B000FE4FA591B491611109C09FB7F89488813A
:1018C000209582238883EC912E230BC0623061F433
:1018D0009FB7F8948881322F309583238883EC91C9
:1018E0002E2B2C939FBF06C08FB7F894E8812E2B28
:1018F00028838FBFDF91CF9108953FB7F8948091EF
:101900006D0790916E07A0916F07B091700726B593
:10191000A89B05C02F3F19F00196A11DB11D3FBF27
:10192000BA2FA92F982F8827820F911DA11DB11DB5
:10193000BC01CD0142E0660F771F881F991F4A95B1
:10194000D1F708958F929F92AF92BF92CF92DF927C
:10195000EF92FF926B017C010E947D0C4B015C01B8
:10196000C114D104E104F104F1F00E947D0CDC010A
:10197000CB0188199909AA09BB09883E9340A105A2
:10198000B10570F321E0C21AD108E108F10888EE30
:10199000880E83E0981EA11CB11CC114D104E1047F
:1019A000F10419F7DDCFFF90EF90DF90CF90BF905B
:1019B000AF909F908F9008951F920F920FB60F9245
:1019C00011242F933F938F939F93AF93BF93809155
:1019D000620790916307A0916407B0916507309109
:1019E0006C0723E0230F2D3720F40196A11DB11DB4
:1019F00005C026E8230F0296A11DB11D20936C0798
:101A00008093620790936307A0936407B093650780
:101A100080916D0790916E07A0916F07B09170074C
:101A20000196A11DB11D80936D0790936E07A09341
:101A30006F07B0937007BF91AF919F918F913F91C6
:101A40002F910F900FBE0F901F901895CF93DF939B
:101A5000CDB7DEB7A4970FB6F894DEBF0FBECDBFEB
:101A6000789484B5826084BD84B5816084BD85B579
:101A7000826085BD85B5816085BD80916E00816085
:101A800080936E001092810080918100826080932B
:101A9000810080918100816080938100809180002D
:101AA0008160809380008091B10084608093B10058
:101AB0008091B00081608093B00080917A00846052
:101AC00080937A0080917A00826080937A0080917E
:101AD0007A00816080937A0080917A008068809398
:101AE0007A001092C1000E940F0CE0918605F091DF
:101AF000870582E08083E0918205F0918305108262
:101B0000E0918405F091850580E1808310928E0537
:101B1000E0918A05F0918B0586E08083E09188054D
:101B2000F0918905808180618083E0918805F09142
:101B30008905808188608083E0918805F09189051E
:101B4000808180688083E0918805F091890580819B
:101B50008F7D808360ED77E080E090E00E94A20CB2
:101B600061E08EE00E94410C61E08EE00E94E00B9B
:101B700086E394E00E94F90869E171E085E891E06C
:101B80000E94610760E08EE00E94E00B81E991E035
:101B90000E94F90899E288E10FB6F894A89580931D
:101BA00060000FBE909360000E94F5088EE991E0FE
:101BB0000E94F90810E0CE0101965C011230E1F0BC
:101BC000133031F1113061F085E397E00E94B205E6
:101BD00068EA71E0C5010E942D03B50180E023C0D1
:101BE00080E297E00E94B20568EA71E0C5010E94B8
:101BF0002D03B50181E017C08BE097E00E94B2058C
:101C000068EA71E0C5010E942D03B50182E00BC0B6
:101C100086EF96E00E94B20568EA71E0C5010E9475
:101C20002D03B50183E00E949108C5010E9428039D
:101C300064E670E080E090E00E94A20C1F5F143028
:101C400009F0BCCF64E670E080E090E00E94A20C56
:101C500010E040E050E0BA01111107C085E397E0C1
:101C60000E94350885E397E018C0113039F480E20E
:101C700097E00E94350880E297E00FC0123039F4F7
:101C80008BE097E00E9435088BE097E006C086EF76
:101C900096E00E94350886EF96E00E94E7041F5FF9
:101CA0001430B9F68DEA91E00E94F908A8950E94D7
:101CB000F50886EB91E00E94F90886EF90E00E941B
:101CC0005B0B8AEE90E00E945B0B58E0C52ED12C96
:101CD000E12CF12C00E0992493941C2D90920B059B
:101CE000C0922D0510920C0510922E0581E00E94E5
:101CF000470981113EC08AED90E00E94400B4AE006
:101D0000C701B6010E949A0A85ED90E00E94400B3F
:101D100040E1C701B6010E949A0A83ED90E00E945B
:101D2000400B173219F48BEC90E018C0183319F4FB
:101D300089EB90E013C0193319F485EA90E00EC0E6
:101D40001C3319F489E990E009C01F3319F48FE8B6
:101D500090E004C0163121F48BE790E00E94400B24
:101D60000E94F5080F5F61E070E080E090E00E9463
:101D7000A20C9FEFC91AD90AE90AF90AE8E7CE16B8
:101D8000D104E104F10409F0A8CF84E790E00E94B7
:101D9000400B602F70E080E090E04AE00E949A0AD9
:101DA00088E690E00E945B0B80EC91E00E94F908CD
:101DB0000E94F50889ED91E00E94F908A8950E941B
:101DC000F50882EE91E00E94F9080EE316E0412C3E
:101DD000512C320132E0932E45E0842ECE01419603
:101DE0009AA389A3F50127E011922A95E9F7A8950E
:101DF0008DEE91E00E94DB0A4AE0C301B2010E942D
:101E00009A0A0E94F508F8018589882309F45AC0C6
:101E10008689882309F437C0FFB6F894809140047E
:101E2000811127C0E9E3F1E08491EBE1F1E09491C5
:101E3000E82FF0E0EE0FFF1FED5BFE4FA591B49190
:101E40008C91982321F461E08AE00E94E00B61E02C
:101E50008AE00E94410C8CB580618CBD8CB5806499
:101E60008CBD61E08DE00E94410C61E08BE00E943E
:101E7000410C809140048F5F80934004FFBE81E756
:101E800090E00E94180460E0F80180810E94E00B5D
:101E900068EE73E080E090E00E94A20C9092CB0488
:101EA00048EE53E061E0C8010E94A30961E0F80137
:101EB00080810E94E00BF8018689882301F10E944D
:101EC00017041DC00E940F0C61E0F80185810E947B
:101ED000E00B60E0F80185810E94E00B60E971E0B1
:101EE00080E090E00E94A20C61E0F80185810E94F0
:101EF000E00B6AE070E080E090E00E94A20CF2E368
:101F0000F093CB048092CC042FEF2093CD0481E09A
:101F10008093CE048092CF0448EE53E065E0C80180
:101F20000E94A309212C312C9092CB0448EE53E05F
:101F300061E0C8010E94A309882309F477C34CE03B
:101F40006BEC74E0C8010E941B0446E050E060E0C6
:101F500071E08BEC94E00E942617892B09F066C390
:101F6000F8018589811103C0E7E0F0E002C0E6E0F6
:101F7000F0E0E553FB4FC080D12CE12CF12CFE2C7E
:101F8000ED2CDC2CCC248181C82AFE2CED2CDC2C01
:101F9000CC248281C82AFE2CED2CDC2CCC2483811D
:101FA000C82AC114D104E104F10409F43FC387E253
:101FB00092E00E94DB0A6F2D77278827992740E15E
:101FC0000E949A0A0E94F50886E392E00E94DB0ACA
:101FD0006E2D70E080E090E04AE00E949A0A6EE286
:101FE00086E795E00E9475016D2D70E080E090E03D
:101FF0004AE00E949A0A0E94F50824E12093CB044B
:1020000081E08093CC042093CD048093CE0448EEED
:1020100053E064E0C8010E94A309882331F048E03E
:102020006BEC74E0C8010E941B0461E070E080E08A
:1020300090E00E94A20CAE014F5E5F4FB501C80157
:102040000E94670B9FEF491A590A690A790A095ECB
:102050001F4FE4E04E1651046104710409F0C2CE32
:10206000882319F085E492E002C08FE492E00E9498
:10207000F908A8950E94F5088DE592E00E94F908FC
:1020800089E692E00E94F9088FE3809322060E947D
:102090000F0C809120068093230661E08091220638
:1020A0000E94050910926B0780936A07811101C095
:1020B000FFCF83E196E00E944A02809320063BE432
:1020C000C32E31E0D32E43E4A42E41E0B42E882465
:1020D0008394912CF601019111916F018091210659
:1020E0007401002E01C0EE0C0A94EAF78E29809349
:1020F000210680911F066E2C6094862180931F0616
:102100000E94270BF50171905F0180911F067720D7
:1021100021F0E82AE0921F0603C0682260921F06A1
:102120000E94270B8CE792E00E94DB0A82E892E093
:102130000E94DB0AB801110F880B990B97FF03C0AF
:102140000E94060B03C04AE00E949A0A8AE892E0C5
:102150000E94DB0A672D70E080E090E04AE00E9478
:102160009A0A0E94F508FBE5CF16F1E0DF0609F0B8
:10217000B1CF0E94F50884E992E00E94F90883EB50
:1021800092E00E94F908A8952FB7F8948091620711
:1021900090916307A0916407B09165072FBF80936A
:1021A000410490934204A0934304B093440469E132
:1021B00071E08EEB92E00E9461071E0129E1220E80
:1021C000311C2FB7F8948091620790916307A0911A
:1021D0006407B09165072FBF4091410450914204BC
:1021E0006091430470914404841B950BA60BB70BBC
:1021F00088389341A105B105C8F02FB7F8948091B4
:10220000620790916307A0916407B09165072FBFA3
:102210008093410490934204A0934304B0934404F8
:1022200069E171E08DEC92E00E94610780915204B7
:102230008111F1C1A895F10127E011922A95E9F7E2
:1022400088E0E9A1FAA111928A95E9F788E394E080
:102250009CA38BA3FE0171967F0125E4622E24E0EE
:10226000722E43015C010EE316E0C12CD12C5524E3
:102270005394A895AE01405E5F4FB101C8010E9422
:10228000670B882309F4AFC088A1843019F085ED6D
:1022900092E051C096E0E6E0F1E0D8011E96019090
:1022A0000D929A95E1F794E0F101D801169601900C
:1022B0000D929A95E1F7F8018587F0E4F093CB044D
:1022C0005092CC0420E62093CD045092CE0486E0B8
:1022D000F8013E96AFECB4E001900D928A95E1F7DB
:1022E000F80186818093D50487818093D604808508
:1022F0008093D70481858093D80448EE53E06EE044
:10230000C8010E94A309882359F04CE06BEC74E0EB
:10231000C8010E941B04442443948091D20481117B
:10232000412C61E070E080E090E00E94A20C41103E
:1023300005C081EE92E00E94F9086AC0F0E4F093D3
:10234000CB045092CC0420E32093CD045092CE04D1
:1023500048EE53E064E0C8010E94A309882341F1DC
:102360004AE16BEC74E0C8010E941B048091D20426
:1023700081111EC080E1E3EDF4E0DE0111960190D1
:102380000D928A95E1F781E090E0F70191838083D7
:102390001B8243E050E0BE016F5F7F4FC4010E948B
:1023A00034172A8130E0ECE0F1E090E08FEF09C0D3
:1023B0008DEE92E00E94F908BCCF33969F5F943077
:1023C00049F04181042E000C550B24173507A9F75D
:1023D000892FF3CF90E0C816D90629F482E090E067
:1023E000F70191838083F70180819181F50120813C
:1023F00031812817390761F09183808363E271E0AE
:102400008DE093E00E9461071092510450921801F0
:10241000FFEFCF1ADF0A095E1F4F22E0A20EB11CA8
:1024200082E0E80EF11C93E0890E911CE4E0CE16E8
:10243000D10409F01ECF0E94B107A8958091180120
:10244000882309F427C11092180161E08EE00E94F0
:10245000E00B65E070E080E090E00E94A20C0E943A
:10246000F5088BE592E00E94DB0A40914E075091FF
:102470004F0760914A0770914B0786E795E00E94ED
:10248000E2008BE193E00E94DB0A8CE0E82E81E021
:10249000F82E94E0D92ECC24C39400E010E0EBA1F8
:1024A000FCA180819181080F191F8DE293E00E94A9
:1024B000DB0AC7010E94DB0A85E393E00E94DB0A86
:1024C000EBA1FCA181919191FCA3EBA3823091053A
:1024D00019F48BE393E00FC08130910511F4C3012F
:1024E0000AC0892B31F488E493E00E94DB0AC12CF6
:1024F00004C080E593E00E94DB0A8DE593E00E9432
:10250000DB0A65E070E080E090E00E94A20CDA94C3
:10251000F3E0EF0EF11C23E0620E711CD110BFCF6F
:102520008BEE93E00E94F90869E170E080E090E0B2
:102530000E94A20C60E08EE00E94E00B08301105C2
:1025400009F05FC06DE271E081E693E00E946107EF
:102550008091510481119EC081E893E00E94F908A6
:102560000E94B10780911F068F7D80931F060E94F5
:10257000270B80911F06806180931F060E94270B06
:102580000E94B10768EE73E080E090E00E94A20C28
:102590000E94B10768EE73E080E090E00E94A20C18
:1025A0000E94B10768EE73E080E090E00E94A20C08
:1025B0000E94B10780911F06806280931F060E94CF
:1025C000270B11E010935104A8958BE893E00E942B
:1025D000F9081093520481EA93E00E94F9080FB6BB
:1025E000F894A895809160008861809360001092B3
:1025F00060000FBE6DE271E086EB93E00E94610720
:1026000012C0CC2009F446C06DE271E082E793E08D
:102610000E9461073FC00E94B10764EF71E080E053
:1026200090E00E94A20C0E94E401CBCD84EC93E0E8
:102630000E94F90886E02816310444F183E092E014
:102640000E94F90883E091E00E945B0B62E370E076
:1026500080E090E00E94A20C73E0C72ED12CE12C08
:10266000F12C4AE0C701B6010E949A0A0E94F508BF
:1026700064E670E080E090E00E94A20CF1E0CF1AE6
:10268000D108E108F10869F70C940000FFEF2F1A58
:102690003F0A4ACC809151048111C5CF80911F0619
:1026A000806280931F060E94270B80911F068F7EF9
:1026B00080931F060E94270BB6CFCF93DF93EC01C8
:1026C00088859985009711F00E94B9158E8187FD44
:1026D00005C060E0DF91CF910C94410CDF91CF9168
:1026E000089586EF96E00E945D138BE097E00E94CC
:1026F0005D1380E297E00E945D1385E397E00E94FE
:102700005D138AE497E00E94280380E597E00E9429
:10271000280386E597E00E9428038CE597E00C9457
:102720002803CF93DF93EC01862F68839DE0998384
:102730009BE09A839CE09B831C821D8291E09D8B91
:102740001E8A61E00E94410C61E088810E94E00BDA
:1027500061E089810E94410C61E08A810E94410C04
:1027600060E08B81DF91CF910C94410C1F93CF934C
:10277000DF93EC01162F19821F821E861F86188A8E
:10278000198A81E08D878A871B8692E09C878883DF
:1027900083E090E09D838C830E9421159987888730
:1027A000009751F023E0FC0111922A95E9F781E0AE
:1027B00090E09B838A8304C01D821C821B821A8244
:1027C0001E838981882341F061E0812F0E94410CA2
:1027D00060E0812F0E94E00B812F90E0FC01E15D21
:1027E000FE4FE491F0E0EE0FFF1FEB5DFE4F2591F1
:1027F00034913B8B2A8BFC01EF5EFE4FE491EC8B16
:10280000DF91CF911F910895E6E7F5E013821282E0
:1028100088EE93E0A0E0B0E084839583A683B7833D
:1028200025E631E03183208325EC30E035872487AD
:1028300024EC30E03787268720EC30E0318B208B8A
:1028400021EC30E0338B228B22EC30E0358B248B73
:1028500026EC30E0378B268B118E128E138E148E61
:10286000E3E1F6E01382128284839583A683B78323
:1028700087E791E09183808369E074E08CE597E0DD
:102880000E942D0365E174E086E597E00E942D0328
:1028900060E274E080E597E00E942D036EE274E050
:1028A0008AE497E00E942D0369E085E397E00E94A7
:1028B000B61366E080E297E00E94B61365E08BE015
:1028C00097E00E94B61363E086EF96E00E94B6138D
:1028D00068E08FED96E00E94911367E088EC96E047
:1028E0000E94911364E081EB96E00E94911362E0F4
:1028F0008AE996E00E94911387E1EFEDF6E0AEE3FE
:10290000B6E001900D928A95E1F787E1E8ECF6E0F8
:10291000A5E5B6E001900D928A95E1F787E1E1EB3C
:10292000F6E0ACE6B6E001900D928A95E1F787E11A
:10293000EAE9F6E0A3E8B6E001900D928A95E1F7A6
:10294000EFE1F6E010821182128213821482158266
:1029500016821782108611861286138614861586B3
:102960001686108A1786128A118A148A138A168A82
:10297000158A108E178A128E118E148E138E168E53
:10298000158E08952F923F924F925F926F927F9291
:102990008F929F92AF92BF92CF92DF92EF92FF926F
:1029A0000F931F93CF93DF93CDB7DEB7CA1BDB0B1B
:1029B0000FB6F894DEBF0FBECDBF09942A883988C0
:1029C00048885F846E847D848C849B84AA84B984C7
:1029D000C884DF80EE80FD800C811B81AA81B981D3
:1029E000CE0FD11D0FB6F894DEBF0FBECDBFED01E7
:1029F0000895A1E21A2EAA1BBB1BFD010DC0AA1F40
:102A0000BB1FEE1FFF1FA217B307E407F50720F057
:102A1000A21BB30BE40BF50B661F771F881F991FD2
:102A20001A9469F760957095809590959B01AC011B
:102A3000BD01CF010895EE0FFF1F0590F491E02D29
:102A400009940F931F93CF93DF938230910510F475
:102A500082E090E0E0917307F091740720E030E0AD
:102A6000A0E0B0E0309719F14081518102811381DB
:102A700048175907C8F08417950769F4109731F083
:102A800012960C93129713961C9327C0009373070A
:102A90001093740722C02115310519F0421753070E
:102AA00018F49A01BD01EF01DF01F801DBCF211518
:102AB0003105F9F0281B390B2430310580F48A8167
:102AC0009B816115710521F0FB019383828304C012
:102AD0009093740780937307FE01329644C0FE0101
:102AE000E20FF31F81939193225031093983288398
:102AF0003AC02091710730917207232B41F4209145
:102B00003F0130914001309372072093710720916B
:102B10003D0130913E012115310541F42DB73EB7FD
:102B20004091410150914201241B350BE091710706
:102B3000F0917207E217F307A0F42E1B3F0B281742
:102B4000390778F0AC014E5F5F4F2417350748F026
:102B50004E0F5F1F509372074093710781939193BB
:102B600002C0E0E0F0E0CF01DF91CF911F910F9123
:102B70000895CF93DF93009709F481C0FC01329749
:102B800013821282A0917307B0917407109781F499
:102B900020813181820F931F20917107309172073C
:102BA0002817390751F5F0937207E093710767C052
:102BB000ED0120E030E0CE17DF0740F44A815B8171
:102BC0009E0141155105F1F0EA01F5CFD383C2838F
:102BD00040815181840F951FC817D90759F4888106
:102BE0009981840F951F0296918380838A819B81AE
:102BF000938382832115310529F4F0937407E093C0
:102C000073073DC0E901FB83EA8349915991C40FE1
:102C1000D51FEC17FD0761F480819181840F951F0A
:102C20000296E90199838883828193819B838A83B9
:102C3000E0E0F0E012968D919C911397009719F0C7
:102C4000FD01DC01F7CF8D919C9111979D012E5FC5
:102C50003F4F820F931F2091710730917207281701
:102C6000390769F4309729F41092740710927307AA
:102C700002C013821282B0937207A0937107DF9192
:102C8000CF910895A0E0B0E0E8E4F6E10C94C6141A
:102C9000EC01009721F4CB010E942115B4C0FC0186
:102CA000E60FF71F9C0122503109E217F30708F4E1
:102CB000A8C0D9010D911C91119706171707B0F004
:102CC0000530110508F49BC0C801049786179707C3
:102CD00008F495C002501109061B170B01931193BC
:102CE0006D937C93CF010E94B91589C05B01A01A36
:102CF000B10A4C01800E911EA0917307B091740728
:102D0000612C712CE12CF12C109709F446C08D91A7
:102D10009C911197A815B905B1F56C0142E0C40E5C
:102D2000D11CCA14DB0478F14C018A189B08640199
:102D300042E0C40ED11C1296BC9012971396AC912F
:102D4000B5E0CB16D10440F0B282A3839182808299
:102D5000D9016D937C9309C00E5F1F4F800F911FA7
:102D6000F90191838083EB2DFA2FE114F10431F006
:102D7000D7011396FC93EE93129741C0F09374071A
:102D8000E09373073CC06816790608F43C017D01A6
:102D900012960D90BC91A02DB7CF809171079091A4
:102DA000720788169906E1F466167706C8F48091D2
:102DB0003D0190913E01009741F48DB79EB740913F
:102DC000410150914201841B950BE817F907C8F4A3
:102DD000F0937207E0937107F901718360830FC06C
:102DE000CB010E9421157C01009759F0A801BE017A
:102DF0000E940D17CE010E94B915C70104C0CE0173
:102E000002C080E090E0CDB7DEB7EEE00C94E214B3
:102E100081E090E0F8940C944317FB01DC0102C0C0
:102E200001900D9241505040D8F70895FB01DC010C
:102E30008D91019080190110D9F3990B0895FB0130
:102E4000DC0101900D920020E1F70895FB01DC0107
:102E50004150504030F08D910190801919F40020BC
:102E6000B9F7881B990B0895FB01DC0141505040D4
:102E700048F001900D920020C9F701C01D92415009
:102E80005040E0F7089510E0C7EBD0E004C0FE0129
:102E90000E941B152196C83BD107C9F7F894FFCFB4
:102EA00000FF06FAD503FFFFFFFFFFFF4148005375
:102EB00044004746005041000173797374656D000A
:102EC0000000007570646174650000000072657335
:102ED000756C74000000000000FF00FF000000752A
:102EE00007200001010101000101010000010002B1
:102EF00000030004000500060007006B006C006D75
:102F000000000000007501E2000C01C2013D011B40
:102F1000012F010000000093026602C3023A025E24
:102F2000024A023B02536574757020426567696E00
:102F30000057445420656E6461626C6564004C45C2
:102F4000443A202E2E2E2000676F6C64004C4544BE
:102F50003A204F4B21004932433A202E2E2E20009A
:102F60007375636365737366756C6C7920736361E5
:102F70006E6E656420493243004932433A204F4B1C
:102F80002100524649443A202E2E2E2000696E69B7
:102F90007469616C697A696E6720726561646572D3
:102FA0003A2000504E35333220737461727475705C
:102FB0002074696D6564206F75742C20726573745C
:102FC000617274696E6700466F756E64206368692C
:102FD0007020504E35004669726D776172652076BB
:102FE00065722E2000524649443A204F4B21005230
:102FF0004649443A204641494C4544210052656CBB
:1030000061793A202E2E2E2000696E697469616CF8
:10301000697A696E672072656C61790020202020D2
:10302000200052656C6179205B005D20736574201F
:10303000746F20007375636365737366756C6C7968
:1030400020696E697469616C697A65642072656C67
:1030500061790052656C61793A204F4B21005365CC
:1030600074757020436F6D706C6574650072656671
:10307000726573680046616C7365204361726421F8
:103080000072656164206661696C65640052656107
:1030900064696E67206661696C65642C206469737D
:1030A00063617264696E6720636172640043617278
:1030B0006473204368616E676564003A202C203099
:1030C000202C20757064617465202C20007265616D
:1030D0006465722000206861732000436F7272651E
:1030E00063742043617264004E6F20436172640018
:1030F000556E6B6E6F776E204361726400202D20D9
:1031000000436F727265637420536F6C7574696FDE
:103110006E0057726F6E6720536F6C7574696F6EB7
:103120000047415445204F50454E0057616974692E
:103130006E6720666F72206E65772047616D65212E
:10314000005265737461727420696E2072657175C6
:1031500069726564210047616D6520436F6D706C15
:10316000657465004469646E27742066696E642026
:10317000504E35337820626F6172640054494D457A
:103180004F555421003A202C2000202C20446F6EF3
:10319000652E00677265656E00626C61636B007717
:1031A0006869746500726564005468652047616CE5
:1031B0006C6572790030392E30392E323032300061
:1031C00076657273696F6E20302E32484800427205
:0831D00052464944000D0A00BB
:00000001FF
