:100000000C94310A0C94590A0C94590A0C94AA10B5
:100010000C9485100C9460100C94590A0C94590A95
:100020000C94590A0C94590A0C94590A0C94590AC4
:100030000C94590A0C94590A0C94590A0C94590AB4
:100040000C9494160C94590A0C94040E0C94DE0D26
:100050000C94590A0C94590A0C94590A0C94590A94
:100060000C94CF100C94590A4E65757374617274B8
:1000700020696E0000030C0F30333C3FC0C3CCCF6F
:10008000F0F3FCFF00000000240027002A0000001D
:100090000000230026002900AED580A83FD30040F1
:1000A0008D142002A1C8DA12817FD9F1DB40A4A609
:1000B000AF202020202020202020454E47494E45BB
:1000C0004552494E470014400A0B206002020306C5
:1000D00006080701030304060203010505050606D9
:1000E0000506050505060203050506040A070605BB
:1000F00006050507060204050409070705070605A6
:1001000005070509060506030303040502050504A2
:100110000505040505020304020905050505030597
:100120000305040805050503030405060000000097
:10013000601E2000080608000000C8784EC8784EEF
:10014000200000200000800C1222C3040060202048
:1001500000000C92522CD02824C220000000002065
:100160002000C0201C32CAC4200020202000002013
:100170000800E01C0260800000827C80600014386F
:100180000E14000000002020E038202000000000B5
:10019000000000008060202020000000002080601F
:1001A0001806012000000000F00C02C23C002020D4
:1001B00000000004E21E00202020202000804422B5
:1001C000120C20202020200080001412F20C0020AD
:1001D00020200000605048E45E00000020008018ED
:1001E0001612E202002020200000E01814926200A3
:1001F0002020000002C2320A062000000000E01C9D
:1002000012F20C0020200000001824A2621C202002
:10021000200000000008200000000880600020503E
:100220005050880000000000505050505000000016
:100230000000808850505020000000000000621232
:10024000120C20000000E0180424524A7A4A221CB2
:100250000020404040404000000000C0704C427C04
:10026000C020000000000020E01E121212EC20202E
:1002700020202000F00C0202820020202000E01E3E
:100280000202C23C202020200000E01E1212122098
:1002900020202020E01E1212122000000000F00C8E
:1002A000020212D23400202020200000E01E101094
:1002B000F01E200000002000E01E20000000E01ED4
:1002C00020200000E01E30C8042000000020E01EB6
:1002D000000020202020E01E0678806018E61E2006
:1002E0000000002000002000E01E0C30C0E01E20B6
:1002F000000000002000F00C020202C23C0020209E
:1003000020200000E03E22221C2000000000F00C13
:10031000020202C23C00202020202040E01E1232B7
:10032000D20C200000002000800C1222C2002020ED
:10033000200002E21E02020020000000E01E000079
:1003400000E01E00202020200000FE8060100C2015
:10035000000000003EC060180EF040300C0020008D
:100360000000200000000080467888042000000083
:10037000200006D82018040020000000804222122D
:100380000A06202020202000C03E02E0800007F85E
:10039000000000E000C23E80E000100C021C0000E3
:1003A00000000000000000808080808001020000CA
:1003B000E01008C8380020202000C03E08887020C7
:1003C00020200000E010088800202000E01008C86D
:1003D0003E0020202000E0302828100020202000AF
:1003E0000088780C80600000E01008C83880A0A069
:1003F0006000C03E08C8302000002000C03A200045
:1004000000C03A806000C03EE01020000020C03EE6
:100410002000C0381008C83008C830200000002074
:1004200000002000C03808C8302000002000E01084
:100430000888700020200000C038088870E0202064
:100440000000E01008C838002020E000C038082074
:100450000000001028C8082020200000C83C080028
:100460002020C03800C0380020202000F880403014
:1004700020000000F8806010F8804030200000006C
:1004800020000000008870E010200000002000F82C
:1004900000C030804020000000884828182020201C
:1004A000202020E01E00E08000F00EE0000000C2EE
:1004B0003E208060000010080810100000000000BE
:1004C000FE025A0A02FE20202020202053434150E1
:1004D0004500450045414D200014610A0B20600293
:1004E00002030605080801030305050203020505CA
:1004F0000605050605050505050202050505050AAB
:100500000606050705050707020306040907070590
:100510000806050607060A06060503050305060282
:100520000505040505030605020205020805050583
:100530000503040305050805050403010405060079
:10054000000000BEBE20200E000E00000048E85E45
:10055000E85E480020002000009C3E33F2E40020CA
:100560006020000C128C6018C620C0000020000023
:10057000002000C0EC3E327ECCE000002020202095
:100580000020200E00F0FC060060C006FCF0C060F9
:1005900000120C3F0C1200000000002020F8202068
:1005A00000000000008080E060202020000000802B
:1005B0008020200080700C03C020000000FCFE02A0
:1005C000FEFC00202020000804FEFE000020202069
:1005D00020202084C2623E1C202020202084121271
:1005E000FEEC0020202000605846FEFE4000000087
:1005F0002020001E1E12F2E22020202000FCFE120D
:10060000F2E2002020200002C2FA3E060020200074
:1006100000ECFE12FEEC00202020001C3E22FEFC1E
:100620002020202000989820209898E060205050AA
:10063000888800000000005050505050000000001A
:10064000008888505020000000000002B2B21E0C4A
:100650000020200000F00864928A4AF29A84780010
:10066000204040404040000000E0F84E4EF8E020BE
:100670002000002020FEFE1212FEEC202020202070
:1006800000FCFE0202840020202000FEFE02028602
:10069000FC7820202020200000FEFE1212122020D4
:1006A000202020FEFE1212122020000000FCFE027C
:1006B0000222E2E400202020202000FEFE10101084
:1006C000FEFE20200000002020FEFE202000FEFE76
:1006D000202000FEFE30FCCE02202000002020FE64
:1006E000FE000020202020FEFE1C70C0701CFEFEBC
:1006F000202000002000002020FEFE0C30C0FEFE66
:1007000020200000002020FCFE020202FEFC00204F
:100710002020202000FEFE223E1C2020000000FCA5
:10072000FE020202FEFC000020202020204040FEAD
:10073000FE1232FECC2020000020209C3E32F2E44B
:1007400000202020000202FEFE0202000020200005
:1007500000FEFE000000FEFE002020202020000EF3
:100760007EE0E07E0E000020200000063EF8C03E45
:100770003EC0F83E06000020200000202000008639
:10078000CE7878CE86202000002020061EF8F81EA5
:100790000600002020000082E27A1E062020202091
:1007A00020FEFE02E0E080030C70800000000020CC
:1007B000C002FEFE80E0E0100C020C100000000001
:1007C0000000000000000080808080808001020026
:1007D00000C8E828F8F00020202020FEFE08F8F0ED
:1007E0002020202000F0F8080800202020F0F80841
:1007F000FEFE0020202020F0F828383000202020A5
:1008000020FCFE0A202000B0F848783808C0E0A09C
:10081000E06000FEFE08F8F02020002020FBFB2016
:1008200020FBFBE060FEFE60F8982020002020FE08
:10083000FE2020F8F808F8F008F8F020200020202A
:10084000002020F8F808F8F02020002020F0F80818
:10085000F8F00020202000F8F808F8F0E0E0202070
:1008600000F0F808F8F8002020E0E0F8F808202070
:10087000003078E8C820202000FCFC08002020F888
:10088000F800F8F8002020202038F880F838002000
:1008900020200038F8C03838C0F838002020000088
:1008A00020200098F860F898202000202038F88058
:1008B000F83800C0E0200088E8781820202020FCCC
:1008C000DE0260E080FEE002DEFC2080E0600010DE
:1008D000081810080000000000FE026A3A02FE201C
:1008E0002020202020202020202054002B2D2D2DC2
:1008F0002D2D2D2D2D2D2D2D2D2D2D2D2D2D2D2D28
:100900002D2D2D2D2D2D2D2D2D2D2D2D2D2D2D2D17
:100910002B007C202020205465616D45736361703D
:1009200065204848265320454E47494E4545524983
:100930004E47202020207C002B2D2D2D2D2D2D2DC0
:100940002D2D2D2D2D2D2D2D2D2D2D2D2D2D2D2DD7
:100950002D2D2D2D2D2D2D2D2D2D2D2D2B002064CC
:1009600065766963652873292E002064657669635E
:10097000652873292E00466F756E642000466F75DA
:100980006E642000202D3E2052656C617900202D80
:100990003E20446973706C61790029002900202889
:1009A0003078002028307800466F756E64206164CE
:1009B00064726573733A2000493243205363616E59
:1009C0002E2E2E005363616E6E696E672E2E2E00E2
:1009D000493243207363616E6E65723A0000000510
:1009E000072061000000000000005F000000070019
:1009F0000700147F147F14242A7F2A12231308640B
:100A00006236495522500005030000001C224100B7
:100A10000041221C00082A1C2A0808083E08080079
:100A2000503000000808080808006060000020102E
:100A30000804023E5149453E00427F400042615158
:100A400049462141454B311814127F102745454531
:100A5000393C4A494930017109050336494949364B
:100A6000064949291E0036360000005636000000AF
:100A70000814224114141414144122140800020111
:100A8000510906324979413E7E1111117E7F494953
:100A900049363E414141227F4141221C7F4949491B
:100AA000417F090901013E414151327F0808087F19
:100AB00000417F41002040413F017F081422417FD7
:100AC000404040407F0204027F7F0408107F3E4187
:100AD00041413E7F090909063E4151215E7F0919C6
:100AE0002946464949493101017F01013F404040C3
:100AF0003F1F2040201F7F2018207F6314081463AD
:100B00000304780403615149454300007F414102D9
:100B10000408102041417F0000040201020440400B
:100B2000404040000102040020545454787F48445F
:100B300044383844444420384444487F385454545A
:100B400018087E090102081454543C7F08040478F4
:100B500000447D40002040443D00007F10284400B8
:100B6000417F40007C041804787C080404783844F1
:100B70004444387C14141408081414187C7C0804A9
:100B800004084854545420043F4440203C40402032
:100B90007C1C2040201C3C4030403C442810284411
:100BA0000C5050503C4464544C4400083641000002
:100BB000007F0000004136080008082A1C08081CB5
:100BC0002A080800060909069800198040006F6B82
:100BD0002E004B657970616420006F6B2E004578A4
:100BE00070616E646572200020204C696768743AF9
:100BF0002000202020202020272E5F5F5F5F5F2EB7
:100C0000272020200020202020205C20202F2020B2
:100C1000205C20202F00202020207C202020205F0E
:100C20005F5F202020207C2000202020207C2020AE
:100C30002020202020202020207C20002020202078
:100C4000202F20206F2020206F20205C20002020DB
:100C5000202020202E272020202020272E2020206A
:100C60000020202020202020205F5F5F5F5F202069
:100C700020202000202020202020272E5F5F5F5F83
:100C80005F2E272020200020202020205C202027ED
:100C90002D2D2D2720202F2000202020207C2020DB
:100CA0005C20202020202F20207C00202020207C61
:100CB00020202020202020202020207C20002020F8
:100CC0002020202F20206F2020206F20205C20005B
:100CD0002020202020202E272020202020272E20EA
:100CE00020200020202020202020205F5F5F5F5FE9
:100CF000202020202000200020200020200022088A
:100D00000D0E20600402050607080902030305080A
:100D10000204020407040707070707070707020280
:100D2000070707080E090808080707090802070847
:100D3000070B0809070909070808090D070808042F
:100D4000040406080307070607070507070203064A
:100D5000020A0707070705060507070B060705052B
:100D6000010507080000000000000000FEFE181842
:100D70001E1E001E1E000000000090F89E90F89EAF
:100D80001C00001C0000183C26FF66CC88040C18D0
:100D90003C180C041C221CC0308E4080000018043B
:100DA000000C100C80CC7E72F2DE0C80000C1C104B
:100DB00010101C0C1C101E1E0000F0FC061C7CC039
:100DC00006FCF0C07C1C14140E141400000000007B
:100DD000606060FCFC6060600000000C0C000000C3
:100DE00000005838C0C0C0C0000000000000181843
:100DF00000C0380618040000F8FC0E060EFCF804CB
:100E00000C1C181C0C04180CFEFE00001C1C181CEA
:100E100086C6663E1C181C1C18181818888C0626D6
:100E200026FEDC040C1C18180C04C0E0B88CFEFE76
:100E300080040404041C1C04707E3E3636F6C60C86
:100E40001C1818180C04F8FC6E6666EECC040C181E
:100E500018181C0C060606E6761E0600001C1C0070
:100E600000009CFE666666FE9C0C1C1818181C0C84
:100E70003C7E666666FCF80C1C18181C0C041818DE
:100E80001818181858386060F0F098980C00000096
:100E90000004040CD8D8D8D8D8D8D8000000000056
:100EA00000000C9898F0F060600C04040000000052
:100EB000080C06C6E6763C18000000181800000072
:100EC000E03008C4F63A1A1AF2FA7E0408F00C3040
:100ED000604C9C98988C9C9C90484C2000C0F8BE1C
:100EE00086BEF8C000181C04040404041C18FEFE8E
:100EF00066666666FEDC1C1C181818181C0CF8FCCC
:100F00000E06060E9C08040C1C18181C0C04FEFE91
:100F10000606060EFCF81C1C1818181C0C04FEFE15
:100F200066666666661C1C1818181818FEFE66664B
:100F30006666061C1C0000000000F8FC0E0606C6D3
:100F4000CEDCC8040C1C181818180C04FEFE6060D7
:100F50006060FEFE1C1C000000001C1CFEFE1C1C31
:100F60008080000000FEFE0C1C1818181C0CFEFEF1
:100F7000603078EC86021C1C000000041C18FEFE89
:100F800000000000001C1C1818181818FEFE0E7C2B
:100F9000E000E07C0EFEFE1C1C00000C1C0C00009F
:100FA0001C1CFEFE1C78E080FEFE1C1C0000040CD5
:100FB0001C1CF8FC0E0606060EFCF8040C1C181887
:100FC000181C0C04FEFE6666667E3C1C1C000000BD
:100FD0000000F8FC0E0686060EFCF8040C1C18181F
:100FE0001C0C1C24FEFE6666E6E6BE1C001C1C00F3
:100FF00000000C1C18103C7E666666EECC0C1C18BB
:1010000018181C0C060606FEFE0606060000001C4C
:101010001C000000FEFE00000000FEFE040C1C1878
:10102000181C0C04021EFCE000E0FC1E0200000084
:101030001C1C1C00000006FEF800F0FE0EFEF00076
:10104000F8FE0600001C1C1C0000001C1C1C0000FC
:10105000060EF8F0F80E06181C0400041C18060E04
:1010600038F0F0380E060000001C1C0000000606D8
:1010700086E6761E0E06181C1C1818181818FEFE98
:101080000606FCFCC0C00638C000000004180606B6
:10109000FEFEC0C0FCFC20380E0E38200000000010
:1010A0000000000000000000000080808080808040
:1010B00080800206040000001098D858F8F0000C58
:1010C0001C18180C1C10FEFE301838F0E01C1C0C0C
:1010D000181C0C04E0F018183830040C18181C0CFC
:1010E000E0F0381830FEFE040C1C180C1C1CE0F05C
:1010F000D8D8D8F0E0040C181818180818FCFE1AF4
:101100001A001C1C0000E0F0381830F8F864ECDC21
:10111000D8CCFC7CFEFE301818F8F01C1C00000037
:101120001C1CFAFA1C1C00FAFAC0FC7CFEFEE0F063
:1011300098081C1C00041C18FEFE1C1CF8F8101853
:10114000F8F01818F8F01C1C00001C1C00001C1CF7
:10115000F8F8301818F8F01C1C0000001C1CE0F017
:10116000381838F0E0040C1C181C0C04F8F830187F
:1011700038F0E0FCFC0C181C0C04E0F0381830F8D7
:10118000F8040C1C180CFCFCF8F83018181C1C0097
:10119000000070F8D8D8D890081818181C0C18FC43
:1011A000FE1818000C1C1818F8F8000000F8F80CCD
:1011B0001C18180C1C1C38F8C000C0F83800001CA3
:1011C0001C1C000018F8E000F038F000E0F81800EF
:1011D000001C1C0C000C1C1C00001838E0E0381827
:1011E000181C04041C1818F8E000E0F8180084FC2F
:1011F000F83C04001898D878381C1C18181880FC83
:101200007E0606007CFCC0C0FEFC06067EFC80C09C
:10121000C0FC7C0060303070606030000000000076
:101220000000FE020202020202FE1C10101010104A
:10123000101C000005072060000000000000005F97
:1012400000000007000700147F147F14242A7F2A5F
:101250001223130864623649562050000807030021
:10126000001C2241000041221C002A1C7F1C2A086D
:10127000083E0808008070300008080808080000D0
:1012800060600020100804023E5149453E00427F44
:10129000400072494949462141494D331814127F93
:1012A0001027454545393C4A494931412111090733
:1012B0003649494936464949291E000014000000B4
:1012C0004034000000081422411414141414004186
:1012D00022140802015909063E415D594E7C121143
:1012E000127C7F494949363E414141227F4141417B
:1012F0003E7F494949417F090909013E41415173F6
:101300007F0808087F00417F41002040413F017F66
:10131000081422417F404040407F021C027F7F042E
:1013200008107F3E4141413E7F090909063E415177
:10133000215E7F09192946264949493203017F0167
:10134000033F4040403F1F2040201F3F4038403F68
:10135000631408146303047804036159494D43007E
:101360007F4141410204081020004141417F0402B5
:10137000010204404040404000030708002054544C
:1013800078407F284444383844444428384444282A
:101390007F385454541800087E090218A4A49C787D
:1013A0007F0804047800447D40002040403D007FD9
:1013B0001028440000417F40007C047804787C08B9
:1013C0000404783844444438FC182424181824248D
:1013D00018FC7C08040408485454542404043F4472
:1013E000243C4040207C1C2040201C3C4030403CA1
:1013F00044281028444C9090907C4464544C440001
:101400000836410000007700000041360800020164
:101410000204023C2623263C000000002500280090
:101420002B00040404040404040402020202020265
:101430000303030303030102040810204080010298
:101440000408102001020408102000000008000217
:1014500001000003040700000000000000008D1DD3
:10146000DE1611241FBECFEFD8E0DEBFCDBF26E0D1
:10147000AAE3B4E001C01D92A43EB207E1F714E074
:10148000A0E0B1E0E0E6F2E402C005900D92AA33DC
:10149000B107D9F71AE0C0E3DAE004C02197FE01F2
:1014A0000E94211FCF32D107C9F70E94EA160C947F
:1014B00023210C9400000895CF92DF92EF92FF92C7
:1014C0000F931F93CF93DF936C017A018B01C0E0E0
:1014D000D0E0CE15DF0581F0D8016D918D01D601E8
:1014E000ED91FC910190F081E02DC6010995892BC9
:1014F00011F02196EECF7E01C701DF91CF911F91B0
:101500000F91FF90EF90DF90CF900895FC01538DE5
:10151000448D252F30E0842F90E0821B930B5417CD
:1015200010F0CF96089501970895FC01918D828D5A
:10153000981761F0828DDF01A80FB11D5D968C9127
:10154000928D9F5F9F73928F90E008958FEF9FEF32
:101550000895FC01918D828D981731F0828DE80FEE
:10156000F11D858D90E008958FEF9FEF0895FC01A8
:10157000918D228D892F90E0805C9F4F821B910975
:101580008F739927089582E395E00E94B70A21E0BE
:10159000892B09F420E0822F0895FC01848DDF015E
:1015A000A80FB11DA35ABF4F2C91848D90E00196D6
:1015B0008F739927848FA689B7892C93A089B189C5
:1015C0008C91837080648C93938D848D981306C066
:1015D0000288F389E02D80818F7D80830895EF92CA
:1015E000FF920F931F93CF93DF93EC0181E0888FDD
:1015F0009B8D8C8D981305C0E889F989808185FDC4
:1016000026C0F62E0B8D10E00F5F1F4F0F731127B2
:10161000E02E8C8DE8120CC00FB607FCFACFE889DB
:10162000F989808185FFF5CFCE010E94CD0AF1CFE7
:101630008B8DFE01E80FF11DE35AFF4FF0829FB73B
:10164000F8940B8FEA89FB89808180620AC09FB77A
:10165000F894EE89FF896083E889F9898081837035
:10166000806480839FBF81E090E0DF91CF911F91E4
:101670000F91FF90EF900895CF93DF93EC01888D49
:101680008823C9F0EA89FB89808185FD05C0A88986
:10169000B9898C9186FD0FC00FB607FCF5CF80810C
:1016A00085FFF2CFA889B9898C9185FFEDCFCE0156
:1016B0000E94CD0AE7CFDF91CF91089580E090E0BE
:1016C000892B29F00E94C30A81110C94000008950F
:1016D000CF93DF9370E0FB01EA5CFB4E2491FB01AA
:1016E000EE5DFB4E8491882361F190E0880F991F95
:1016F000FC01EC57FF4FC591D491FC01E85EFB4E15
:10170000A591B491411109C09FB7F89488812095A3
:1017100082238883EC912E230BC0423061F49FB763
:10172000F8948881322F309583238883EC912E2B77
:101730002C939FBF06C08FB7F894E8812E2B288387
:101740008FBFDF91CF910895CF93DF93EC019C8100
:101750008E81981758F4E881F9810084F185E02D95
:1017600042E0CE0109958C818F5F8C83DF91CF9110
:10177000089590E0FC01EE0FFF1FEE56FF4FA5917C
:10178000B4912C91FC01EF52FB4F30812083880FE4
:10179000991FFC01E95FFE4F0190F081E02D8081EF
:1017A000089585ED8093BC008091BC0084FDFCCF42
:1017B00010922D05089540917C04262F30E0240FCF
:1017C000311D21323105DCF420912D052430C9F47E
:1017D000FC0180E090E0861758F430917C04219160
:1017E000DC01A65ABB4FA30FB11D2C930196F3CF7A
:1017F00080917C04680F60937C0480E0089581E010
:10180000089582E00895089508950895E091D5041B
:101810008091D404E81730F4F0E0E951FB4F808167
:1018200090E008958FEF9FEF08959091D5048091F7
:10183000D404981750F4E92FF0E0E951FB4F2081D0
:1018400030E09F5F9093D50402C02FEF3FEFC901B6
:1018500008958091D40490E02091D504821B9109D1
:101860000895CF92DF92EF92FF920F931F93CF9341
:10187000DF937C01CB018A0120913105222389F07D
:10188000EB016B01C40ED51ECC15DD0569F0699125
:10189000D701ED91FC910190F081E02DC7010995F0
:1018A000F3CF642F0E94DB0BC801DF91CF911F9112
:1018B0000F91FF90EF90DF90CF900895CF93DF933B
:1018C0001F92CDB7DEB76983209131052223D1F075
:1018D00020912E05203240F021E030E0FC013383DE
:1018E000228380E090E015C080912F05E82FF0E082
:1018F000E65CFB4F998190838F5F80932F058093E7
:101900002E0505C061E0CE0101960E94DB0B81E04F
:1019100090E00F90DF91CF910895089580E090E0DE
:1019200008950E940E21CF93DF9370E0FB01E65BE8
:10193000FB4E8491FB01EA5CFB4ED491FB01EE5D12
:10194000FB4EC491CC2391F081110E949B15EC2F8A
:10195000F0E0EE0FFF1FE257FF4FA591B491EC911D
:10196000ED2381E090E021F480E002C080E090E08F
:10197000DF91CF910895862F642F0C94C415EF92B8
:10198000FF920F931F93CF93DF93EC017B018A01AA
:1019900088819981009729F02A813B812417350796
:1019A000F8F4B8016F5F7F4F0E944820009759F00C
:1019B000998388831B830A832C813D81232B81F4A7
:1019C000FC0110820DC088819981009711F00E945E
:1019D000BF1F198218821D821C821B821A8207C0B7
:1019E0001D830C83B701888199810E941C21CE013F
:1019F000DF91CF911F910F91FF90EF900895FC011F
:101A0000808191810C94BF1FFC011182108213828E
:101A10001282158214826115710551F0FB0101904B
:101A20000020E9F73197AF01461B570B0C94BF0C10
:101A30000895EF92FF920F931F93CF93DF938C0142
:101A40007B01C0E0D0E0F701EC0FFD1F649166233D
:101A500061F0D801ED91FC910190F081E02DC80179
:101A60000995892B11F02196EECFCE01DF91CF9110
:101A70001F910F91FF90EF9008956115710579F016
:101A8000FB0101900020E9F73197AF01461B570B8E
:101A9000DC01ED91FC910280F381E02D099480E05E
:101AA00090E008958F929F92AF92BF92EF92FF9233
:101AB0000F931F93CF93DF93CDB7DEB7A1970FB6E8
:101AC000F894DEBF0FBECDBF7C01FA01CB0119A295
:101AD000223008F42AE08E010F5D1F4F822E912CD8
:101AE000A12CB12CBF01A50194010E94FF1EF90198
:101AF000CA01015011096A3014F4605D01C0695CCB
:101B0000D8016C93232B242B252B61F7B801C70137
:101B10000E943D0DA1960FB6F894DEBF0FBECDBF5B
:101B2000DF91CF911F910F91FF90EF90BF90AF90F9
:101B30009F908F9008956EE671E00C943D0D0F9389
:101B40001F93CF93DF93EC010E943D0D8C01CE01DA
:101B50000E949B0D800F911FDF91CF911F910F91DC
:101B600008950F931F93CF93DF93EC01FB01448102
:101B7000558160817181E881F9810280F381E02DD6
:101B800009958C01CE010E949B0D800F911FDF9162
:101B9000CF911F910F9108950F931F93CF93DF93D0
:101BA000EC010E94190D8C01CE010E949B0D800F4B
:101BB000911FDF91CF911F910F9108951F920F9266
:101BC0000FB60F9211242F933F934F935F936F9310
:101BD0007F938F939F93AF93BF93EF93FF9382E392
:101BE00095E00E94CD0AFF91EF91BF91AF919F9137
:101BF0008F917F916F915F914F913F912F910F90B6
:101C00000FBE0F901F9018951F920F920FB60F9254
:101C100011242F938F939F93EF93FF93E0914205AD
:101C2000F09143058081E0914805F091490582FDDE
:101C300012C0908180914B058F5F8F7320914C056E
:101C4000821751F0E0914B05F0E0EE5CFA4F958F72
:101C500080934B0501C08081FF91EF919F918F91FF
:101C60002F910F900FBE0F901F901895DC01ED91F2
:101C7000FC910084F185E02D40E009940F931F93BF
:101C8000CF938C01FC0164838085C62FC80F6C2F15
:101C90006F70C8010E94360E6C2F62956F70606184
:101CA000C801CF911F910F910C94360EFC01278132
:101CB000269526952695621720F46583606B0C9413
:101CC000360E0895CF92DF92EF92FF920F931F93FB
:101CD000CF93DF93EC01162FC42ED22E8F818695E1
:101CE00086958695081710F00FEF080FFD2C8E8152
:101CF0000F15A8F0181720F4612FCE010E943E0E98
:101D00006F2DCE010E94560EE12ECE1430F060E011
:101D1000CE010E94A40BE394F8CFF394E8CF1817F8
:101D200020F4612FCE010E943E0E6D2DCE01DF9179
:101D3000CF911F910F91FF90EF90DF90CF900C9477
:101D4000560E2F923F924F925F926F927F928F9298
:101D50009F92AF92BF92CF92DF92EF92FF920F933A
:101D60001F93CF93DF93CDB7DEB729970FB6F894C3
:101D7000DEBF0FBECDBFDC011B960D911C911C97E1
:101D80000115110509F46AC199878887F801B49192
:101D900031964491319644903196A491EA2EF12CDB
:101DA000F7E0EF0EF11C93E0F594E7949A95E1F7D4
:101DB000EC82F801349674913196E491671758F0EB
:101DC000862F90E02E2F30E0F901E70FF11D8E17DE
:101DD0009F070CF476C06D3069F4A885B985169616
:101DE0008C91882309F437C160E0888599850E9429
:101DF0003E0E31C16A3009F031C1E885F98581852F
:101E0000D5808E9DD00C11248781869586958695E8
:101E1000D81630F08285882319F082E08287D12C91
:101E2000A885B98516968C911697882321F060E0D5
:101E3000CD010E943E0E6D2D888599850E94560E1B
:101E4000E885F9858285823008F405C125810384FF
:101E5000F485E02D309751F03396E491A885B9854B
:101E600019960C91E09F002D112401C000E010E0B4
:101E7000095F1F4F83E0159507958A95E1F78FEF6E
:101E8000820F080FE885F985468141506481CF01B2
:101E90000E94620EA885B98519968C9119976D2DAF
:101EA0008E9D600D1124660F660F660F17968C913C
:101EB000861708F460E06064888599850E94360E74
:101EC000CAC050E05B2BC8010696671BE885F98500
:101ED000F185F9834230510588F4452B09F01982C8
:101EE0004E9C90014F9C300D1124629F8001639F96
:101EF000100D1124080F191F312C24C0EA2FE77090
:101F000021F048E0342E3E1A01C0312CA82FFC01EC
:101F100040E050E07E2F7A1B761728F47491470F2B
:101F2000511D3196F7CFFC01E60FF11D4490E49E60
:101F30008001E59E100DF49E100D1124020F131F59
:101F4000080F191FA885B9851496BC91BA83E88536
:101F5000F985F581FD83842D90E09F838E83812C0C
:101F6000912CC12CD12CCB829C81C91608F06EC05B
:101F7000212C3601BFEF6B1A7B0AE885F985818534
:101F8000281608F05BC0FB81F11102C02220A9F0E5
:101F9000A885B9851596BC901597B39416968C9123
:101FA000BA81B81728F46B2F888599850E943E0E58
:101FB0006B2D888599850E94560EA12CB12CA414F6
:101FC00010F0B12C2FC0F401EA0DFB1DE00FF11F42
:101FD0005490332061F0E614F70449F4E52DF0E065
:101FE000032C02C0F595E7950A94E2F75E2EE8858A
:101FF000F9858185823069F4E52D2110E295EF7035
:10200000F0E0EC58FF4F5490652D888599850E942B
:10201000A40B652D888599850E94A40BFFEFAF1A4C
:10202000BF0ACDCF79817B1539F060E0888599852D
:102030000E94A40BB394F6CF23949FCF8FEFC81ABE
:10204000D80AAE81BF818A0E9B1E8DCF6D81888597
:1020500099850E94560E81E090E002C080E090E0F9
:1020600029960FB6F894DEBF0FBECDBFDF91CF919A
:102070001F910F91FF90EF90DF90CF90BF90AF90A6
:102080009F908F907F906F905F904F903F902F9098
:102090000895FC0125893689D9014D9191912C5ED5
:1020A0003F4F411104C081E0992349F007C0491313
:1020B00005C04D919191A217B30799F780E008955B
:1020C0001F920F920FB60F9211242F933F934F93AD
:1020D0005F936F937F938F939F93AF93BF93EF9390
:1020E000FF9382E00E94B90BFF91EF91BF91AF91F6
:1020F0009F918F917F916F915F914F913F912F9120
:102100000F900FBE0F901F9018951F920F920FB651
:102110000F9211242F933F934F935F936F937F936D
:102120008F939F93AF93BF93EF93FF9381E00E94B0
:10213000B90BFF91EF91BF91AF919F918F917F91DB
:102140006F915F914F913F912F910F900FBE0F9024
:102150001F9018951F920F920FB60F9211242F9374
:102160003F934F935F936F937F938F939F93AF931F
:10217000BF93EF93FF9380E00E94B90BFF91EF9123
:10218000BF91AF919F918F917F916F915F914F918F
:102190003F912F910F900FBE0F901F9018951F9297
:1021A0000F920FB60F9211242F933F934F935F938B
:1021B0006F937F938F939F93AF93BF93EF93FF930F
:1021C0008091B900887F803609F49CC068F5883218
:1021D00009F45BC090F4803109F454C038F48823CA
:1021E00009F4F6C0883009F44DC0F6C0883109F40E
:1021F0004CC0803209F45DC0EFC0803409F468C07F
:1022000048F4803309F455C0883309F0E5C0809361
:102210002B05D8C0803509F44FC0883509F45DC05E
:10222000883409F0D9C0D6C0883909F4C7C0A8F4E9
:10223000883709F467C038F4883609F463C08037FA
:1022400009F460C0C9C0883809F4B8C0803909F4FD
:102250005FC0803809F0C0C05BC0803B09F486C015
:1022600038F4803A09F466C0883A09F47FC0B4C0F3
:10227000803C09F4A7C0883C09F4A4C0883B09F459
:102280008AC0AAC08091280510C090912A0580912B
:102290002905981770F5E0912A0581E08E0F80934B
:1022A0002A05F0E0E95FFA4F80818093BB0085EC5E
:1022B00086C080932B058EC0E0912A0581E08E0FA9
:1022C00080932A058091BB00F0E0E95FFA4F80839C
:1022D00090912A05809129056EC0E0912A0581E040
:1022E0008E0F80932A058091BB00F0E0E95FFA4FE2
:1022F000808380912C0581116DC081E0809327053A
:1023000084EA61C083E080932D051092A004CFCFB2
:102310008091A004803208F051C0E091A00481E0D7
:102320008E0F8093A0048091BB00F0E0E058FB4F3B
:102330008083BDCF85EC8093BC0010922D058091E9
:10234000A004803230F4E091A004F0E0E058FB4FAC
:1023500010826091A00470E0E0917E04F0917F040F
:1023600080E894E009951092A00436C084E0809340
:102370002D0510927D0410927C04E0917A04F09176
:102380007B04099580917C04811105C081E08093D4
:102390007C0410925A04E0917D0481E08E0F8093BA
:1023A0007D04F0E0E65AFB4F80818093BB00909162
:1023B0007D0480917C04981708F479CF85E8809398
:1023C000BC000AC085EC8093BC0010922D0504C0AF
:1023D00010922B050E94D10BFF91EF91BF91AF910D
:1023E0009F918F917F916F915F914F913F912F912D
:1023F0000F900FBE0F901F90189530912E0531321F
:1024000008F04BC080912D058111FCCF90913005D3
:1024100022E020932D0521E020932C052FEF20931F
:102420002B0510922A0530932905EAE3F4E0A7E092
:10243000B5E020E0321721F041914D932F5FFACFA4
:102440001092280520912805990F922B909328052A
:1024500090912705913061F41092270590912805FD
:102460009093BB009091BC0093FDF8CF95EC01C018
:1024700095EE9093BC0090912D059230E1F39091F0
:102480002B059F3F79F080912B05803241F08091A0
:102490002B05803331F084E005C081E003C082E089
:1024A00001C083E010922F0510922E051092310585
:1024B0000895CF92DF92EF92FF920F931F93CF93E5
:1024C000DF93EC0181E090E002C0880F991F6A95CC
:1024D000E2F78E0103581F4F442349F0D8012D9194
:1024E0003C911197822B932B8D939C9309C08095DF
:1024F0009095F801208131818223932391838083F9
:10250000D801CC901196DC90FE01E558FF4F8081F8
:102510007E01BFE6EB0EF11C91E0909331058093B4
:10252000300510922F0510922E05D701ED91FC91E8
:102530000190F081E02D6C2DC7010995C458DF4F43
:102540008881823048F0D701ED91FC910190F081B3
:10255000E02D6D2DC7010995C7010E94FD11F801FD
:10256000C082D182DF91CF911F910F91FF90EF90A8
:10257000DF90CF9008950F931F93CF93DF93EC01DB
:10258000062F142F8E85813120F4882339F04111D4
:1025900005C08FEC95E00E94FD111E868E8581118D
:1025A00013C08D8591E09093310580933005109292
:1025B0002F0510922E05112311F060E401C060E098
:1025C0008FEC95E00E945E0C602F8FEC95E00E94EE
:1025D0005E0C123021F48E858F5F8E8705C08FECE4
:1025E00095E00E94FD111E86DF91CF911F910F9102
:1025F0000895862F413208F040E2642F0E940F15A3
:102600001092D5048093D4040895CF92DF92EF9274
:10261000FF920F931F93CF93DF9301E010E002C06E
:10262000000F111F6A95E2F77C012FE6E20EF11C04
:102630006C01ECE7CE0ED11CF601408150E03197E1
:10264000608170E0C7010E94F912C7010E94150C59
:10265000EC01F6018081823040F0C7010E94150C28
:1026600020E030E0382FC22BD32BC023D12381E0D0
:1026700090E0C017D10711F080E090E0DF91CF919A
:102680001F910F91FF90EF90DF90CF9008951092DF
:10269000D5041092D40410922F0510922E0510929A
:1026A0002D0581E080932C051092270561E082E1E1
:1026B0000E94C41561E083E10E94C415E9EBF0E0DB
:1026C00080818E7F808380818D7F808388E480936A
:1026D000B80085E48093BC0083E09CE090937B0489
:1026E00080937A0484E09CE090937F0480937E043E
:1026F00008951092D60481E080930001E8E2F6E0AC
:10270000148A1082E1E1F6E0148A1082EAEFF5E023
:10271000148A108261E771E082E395E00C949F0DCA
:10272000CF9368E670E082E395E00E94CC0D0E94B2
:102730008A1469E871E08AEC96E00E949F0D6AEFC6
:1027400070E080E090E00E94F315C3E06C2F82E31C
:1027500095E00E94A8146C2F8AEC96E00E94A814C1
:1027600068EE73E080E090E00E94F315C15071F7CD
:102770000C940000CF910895CF93C82F80915E06EE
:1027800090915F068130910521F0029709F464C0B1
:1027900077C065E971E082E395E00E943D0D6C2F02
:1027A00082E395E00E94EF0A6DE971E082E395E033
:1027B0000E943D0D68E276E082E395E00E943D0DC7
:1027C0008C2F0E94511581E08093D60480930001E4
:1027D000C33229F0CA3261F46EEB71E002C068EADC
:1027E00071E082E395E00E949F0DCF910C947913E4
:1027F000E0913C06E33169F081E08E0F80933C0666
:10280000F0E0E85DF94FC083E82FF0E0E85DF94FB4
:102810001082E0912506E33169F081E08E0F80930C
:102820002506F0E0EF5EF94FC083E82FF0E0EF5EA1
:10283000F94F1082E0910E06E33111F181E08E0F25
:1028400080930E06F0E0E650FA4FC083E82FF0E0E8
:10285000E650FA4F108214C064ED71E082E395E017
:102860000E943D0D8C2F0E945115CA3249F46BED28
:1028700071E082E395E00E949F0DCF910C9490133C
:10288000CF91089596E0899FD0011124A15CB94FA2
:1028900090967C936E935F9791E091969C9391971D
:1028A0009091AB06E091AC06F091AD06992339F01A
:1028B000309751F0811108C080915B0604C03097B9
:1028C00019F05C968C91099408953FB7F894809123
:1028D000E3049091E404A091E504B091E60426B5E8
:1028E000A89B05C02F3F19F00196A11DB11D3FBF48
:1028F000BA2FA92F982F8827820F911DA11DB11DD6
:10290000BC01CD0142E0660F771F881F991F4A95D1
:10291000D1F708950F930091D10606950695069577
:1029200001504091D006415020E060E08AEC96E0F2
:102930000E94620E81E09091D406911101C080E066
:102940008093D40660E48AEC96E00F910C94360EE6
:102950000F931F93CF93DF93EC01462F50E060E07D
:1029600070E02AE00E94520D8C01CE010E949B0D66
:10297000800F911FDF91CF911F910F910895CF92FA
:10298000DF92EF92FF92CF93DF936C01990FEE08E5
:10299000FF08F7FE15C06DE282E395E00E94EF0AA2
:1029A000EC0144275527BA014C195D096E097F09CE
:1029B0002AE082E395E00E94520DC80FD91F08C09B
:1029C0002AE0B701A60182E395E00E94520DEC01D6
:1029D00082E395E00E949B0D8C0F9D1FDF91CF91AC
:1029E000FF90EF90DF90CF900895EBEDF5E09181AF
:1029F00062818081238131E030933105209330055D
:102A000010922F0510922E0560956923682B8FEC8C
:102A100095E00E945E0C8FEC95E00C94FD11909176
:102A20002D059111FCCF91E090932D0590932C05ED
:102A30002FEF20932B0510922A05260F20932905AE
:102A40009093280590912805880F892B809328055D
:102A500080912705813061F4109227058091280527
:102A60008093BB008091BC0083FDF8CF85EC01C052
:102A700085EE8093BC0080912D058130E1F380913B
:102A80002A05861710F460912A05A7E0B5E0E7EE65
:102A9000F4E080E0861721F09D9191938F5FFACF4B
:102AA0000895CF93DF93682F82E395E00E94EF0AA9
:102AB000EC0182E395E00E949B0D8C0F9D1FDF913E
:102AC000CF9108950F931F93CF93DF938C01EB0168
:102AD000FC01808191810097B1F068817981611555
:102AE000710579F0428153812C813D814217530752
:102AF00040F00E941C218C819D81F8019583848384
:102B000013C00E94BF1F88819981F801918380833F
:102B10008A819B81938382838C819D819583848329
:102B2000198218821B821A821D821C82DF91CF912A
:102B30001F910F910895833081F028F4813099F02E
:102B40008230A1F008958730A9F08830B9F0843040
:102B5000D1F4809180008F7D03C0809180008F77B9
:102B600080938000089584B58F7702C084B58F7DEF
:102B700084BD08958091B0008F7703C08091B0002C
:102B80008F7D8093B00008951F93CF93DF93282FFC
:102B900030E0F901E65BFB4E8491F901EA5CFB4E03
:102BA000D491F901EE5DFB4EC491CC23C1F0162FF8
:102BB00081110E949B15EC2FF0E0EE0FFF1FE85EE5
:102BC000FB4EA591B4919FB7F894111104C08C915C
:102BD000D095D82302C0EC91DE2BDC939FBFDF9110
:102BE000CF911F9108958F929F92AF92BF92CF92F3
:102BF000DF92EF92FF926B017C010E9465144B0102
:102C00005C01C114D104E104F104F1F00E946514E7
:102C1000DC01CB0188199909AA09BB09883E9340B8
:102C2000A105B10570F321E0C21AD108E108F1084D
:102C300088EE880E83E0981EA11CB11CC114D1043B
:102C4000E104F10419F7DDCFFF90EF90DF90CF9012
:102C5000BF90AF909F908F9008952FB7F894609198
:102C6000DF047091E0048091E1049091E2042FBFB1
:102C700008950F931F93CF93DF93C82FD62F86E02D
:102C8000C89FF0011124E15CF94F11A2878D90A13A
:102C900081309105D9F040F082309105A9F1039778
:102CA000F1F560E070E034C06623C9F161E070E0E6
:102CB0008C2F0E9442140E942D16609397067093E9
:102CC00098068093990690939A0629C00E942D1623
:102CD00000919706109198062091990630919A06D6
:102CE000AB01BC01401B510B620B730B8091A90619
:102CF0009091AA06A0E0B0E084179507A607B70751
:102D000018F462E070E004C0D11109C063E070E023
:102D10008C2FDF91CF911F910F910C944214DF9172
:102D2000CF911F910F9108951F920F920FB60F929E
:102D300011242F933F938F939F93AF93BF938091D1
:102D4000DF049091E004A091E104B091E20430919D
:102D5000DF0623E0230F2D3720F40196A11DB11DBE
:102D600005C026E8230F0296A11DB11D2093DF06A2
:102D70008093DF049093E004A093E104B093E20415
:102D80008091E3049091E404A091E504B091E604FD
:102D90000196A11DB11D8093E3049093E404A093D8
:102DA000E504B093E604BF91AF919F918F913F915D
:102DB0002F910F900FBE0F901F9018958EEB96E0FD
:102DC0000E94FF0C84EC96E00E94FF0C89ED96E0D7
:102DD0000C94FF0CCF93DF93CDB7DEB72A970FB6D5
:102DE000F894DEBF0FBECDBF789484B5826084BDF9
:102DF00084B5816084BD85B5826085BD85B58160FF
:102E000085BD80916E00816080936E00109281007C
:102E10008091810082608093810080918100816037
:102E200080938100809180008160809380008091F8
:102E3000B10084608093B1008091B0008160809384
:102E4000B00080917A00846080937A0080917A004B
:102E5000826080937A0080917A00816080937A000A
:102E600080917A00806880937A001092C100E0918E
:102E70004205F091430582E08083E0913E05F091A8
:102E80003F051082E0914005F091410580E180838B
:102E900010924A05E0914605F091470586E080834F
:102EA000E0914405F0914505808180618083E09147
:102EB0004405F0914505808188608083E091440558
:102EC000F0914505808180688083E0914405F09110
:102ED000450580818F7D80838FEC95E00E944713AC
:102EE0001092D8068CE38093D7061092CE061092EB
:102EF000CF06E8ECFBE085919491E82EEAECFBE04C
:102F0000F490EBECFBE0E491E093D006ECECFBE01A
:102F1000E491E093D106EDECFBE0E491E093D2067E
:102F20008C01802F8E198F1548F4F80164918AEC7A
:102F300096E00E94360E0F5F1F4FF3CF1092D4061B
:102F40000E948A148CE08093B8008091D10680346E
:102F500029F40E948A1481E08093D4068DED99E0D3
:102F60009093D6068093D5061A8219821C821B8202
:102F70001E821D826091D9067091DA066115710575
:102F800041F04091DD065091DE06CE0101960E948F
:102F9000BF0C68E379E082E395E00E94CC0D62E12A
:102FA00079E082E395E00E94CC0D6CEE78E082E35C
:102FB00095E00E94CC0D82E395E00E949B0DBE013E
:102FC0006F5F7F4F82E395E00E94B10D82E395E051
:102FD0000E949B0D0E948A148AEC96E00E949B0D31
:102FE0008AEC96E00E949B0D0EEFE02E0CE0F02E96
:102FF000F092D606E092D50665EE78E08AEC96E08F
:103000000E94190D09ED14E01093D6060093D50621
:1030100064ED74E08AEC96E00E94190DF092D606F9
:10302000E092D50662ED74E08AEC96E00E94190DFC
:103030001093D6060093D5066CEC74E08AEC96E00B
:103040000E94CC0D86EC90E09093D6068093D50636
:1030500061EB70E08AEC96E00E94CC0D60ED77E0C9
:1030600080E090E00E94F3150E948A14CE01019640
:103070000E94FF0C60ED79E082E395E00E94CC0DA8
:1030800064EC79E082E395E00E94CC0D8DED99E04F
:103090009093D6068093D50668EB79E08AEC96E0AB
:1030A0000E94CC0D88E0C82ED12CE12CF12C10E030
:1030B000BB24B3940C2DB0923105C0923005109210
:1030C0002F0510922E058FEC95E00E94FD118111C5
:1030D0005BC068EA79E082E395E00E94190D2AE07E
:1030E000B701A60182E395E00E94520D63EA79E000
:1030F00082E395E00E94190D6EE979E08AEC96E092
:103100000E94190D20E1B701A60182E395E00E941B
:10311000520D20E1B701A6018AEC96E00E94520D03
:103120006CE979E082E395E00E94190D6AE979E0A3
:103130008AEC96E00E94190D0C3349F46EE879E0B0
:1031400082E395E00E94190D6FEF71E00AC00F3322
:1031500061F464E879E082E395E00E94190D6BE088
:1031600072E08AEC96E00E943D0D82E395E00E94B9
:103170009B0D8AEC96E00E949B0D1F5F61E070E062
:1031800080E090E00E94F315FFEFCF1ADF0AEF0A0C
:10319000FF0A28E7C216D104E104F10409F08ACF3E
:1031A0006DE779E082E395E00E94190D66E779E02A
:1031B0008AEC96E00E94190DC12ED12CE12CF12C45
:1031C0002AE0B701A60182E395E00E94520D2AE0B1
:1031D000B701A6018AEC96E00E94520D6AE679E0FA
:1031E00082E395E00E94CC0D6EE579E08AEC96E0F2
:1031F0000E94CC0D82E395E00E949B0D8AEC96E044
:103200000E949B0D60ED77E080E090E00E94F31556
:1032100065E172E082E395E00E949F0D62ED7BE044
:103220008AEC96E00E94190D8CEB93E19093AD0629
:103230008093AC0682E691E09093A00680939F066F
:103240008EEA96E00E9447134091BB0650E06091E1
:10325000BA0670E08EEA96E00E94F9128EEA96E0D5
:103260000E94150C9093BD068093BC068091BB060E
:10327000823088F08EEA96E00E94150C20E030E063
:10328000382F8091BC069091BD06282B392B3093A6
:10329000BD062093BC0688E893E19093AA0680932C
:1032A000A90684E190E09093A8068093A7066EECAF
:1032B0007BE08AEC96E00E94CC0D60E272E082E353
:1032C00095E00E949F0D6EED7BE08AEC96E00E94F7
:1032D000190D8FE38093DE058FEC95E00E94471374
:1032E0008091DC058093DF0561E08091DE050E941E
:1032F0000F151092D5048093D404811101C0FFCF23
:103300008FEC95E00E94150C8093DC05E12CF12CEC
:10331000CC24C394D12C8091DD0586010E2C01C0F4
:10332000000F0A94EAF7802B8093DD058091DB057E
:10333000902F909589238093DB050E94F51480914E
:10334000DB05082B0093DB050E94F5143FEFE31A21
:10335000F30A58E0E516F104F1F668EB7BE080E053
:1033600090E00E94F3158091DB058E7F8093DB0552
:103370000E94F5148091DB058D7F8093DB050E9410
:10338000F5146AED7BE08AEC96E00E94CC0D6BE2CE
:1033900072E082E395E00E949F0D82E395E00E9437
:1033A0009B0D66E372E082E395E00E949F0D82E34D
:1033B00095E00E949B0D60ED77E080E090E00E9438
:1033C000F31511E0412C512C32014394B2E3CB2E82
:1033D000B2E1DB2E1093AB060E942D1620919B06C6
:1033E00030919C0640919D0650919E064B015C01D8
:1033F000821A930AA40AB50A8091A7069091A8069A
:10340000A0E0B0E088159905AA05BB0518F0109258
:10341000AB06D2C000E08091A606081708F05FC096
:10342000A02EB12CE091A306F091A406EA0DFB1D9D
:1034300040E060818FE396E00E945912D301C201FF
:10344000002E04C0880F991FAA1FBB1F0A94D2F731
:103450004C019C01209530953A872987312C809129
:10346000A506381668F5E32CF12CE091A106F09141
:10347000A206EE0DFF1D60818FE396E00E9405130A
:1034800097012C5F3F4F892B59F4C901880F991F71
:10349000FC01E15CF94F80819181882999290CC058
:1034A000C901880F991FFC01E15CF94F808191816E
:1034B00029853A8582239323918380833394CFCFC8
:1034C0008091A3069091A406FC01EA0DFB1D41E04A
:1034D00060818FE396E00E9459120F5F9CCF7FE3DB
:1034E000E72E76E0F72EF701878D90A1892B31F436
:1034F000148E8FEF9FEF968F858F11A2369696E0F0
:10350000EB37F90789F700E08091A506081770F5F9
:10351000B12C202E312CC101880F991FFC01E95BD1
:10352000F94F1F012091A606B216F0F4F101408177
:1035300051810B2C02C0569547950A94E2F7642FEF
:103540006170029F900111242B0D311DEFE3F6E015
:1035500080E0A58DB68D2A173B0709F4CBC28F5F9B
:1035600036968A30B1F7A8C20F5FCECF00E0F701E0
:1035700081A1811101E0F6E0EF0EF11C2BE7E216CC
:1035800026E0F206A1F70E942D1660939B06709329
:103590009C0680939D0690939E06002309F437CFE6
:1035A00080916006882309F432CF80915E06909165
:1035B0005F06019709F02BCFE8E2F6E001900020CA
:1035C000E9F78091D704ED52F64089F49091DD043B
:1035D00091110DC081110BC064E672E082E395E0A9
:1035E0000E949F0D109300011093D70478C0882388
:1035F00009F475C088E296E00E944910882319F109
:103600001093DE041092D604109300011093DD0491
:103610001092D70460E972E082E395E00E949F0D6A
:103620008091DB0581608093DB050E94F5146DEAD3
:1036300072E0CE0101960E94040DBE016F5F7F4FC4
:1036400084EC96E026C081E196E00E944910882330
:1036500039F11093DE041092D604109300011092F9
:10366000D70460EB72E082E395E00E949F0D8091A9
:10367000DB0582608093DB050E94F5146DEC72E03F
:10368000CE0101960E94040DBE016F5F7F4F8EEB4D
:1036900096E00E946215CE0101960E94FF0C1DC0AB
:1036A0008AEF95E00E944910882349F06BED71E0A4
:1036B00082E395E00E949F0D0E94901310C010932A
:1036C000D8041092D604109300011092D70462ED32
:1036D00072E082E395E00E949F0D0E9479130E94A0
:1036E0002D162091D9043091DA044091DB045091D9
:1036F000DC04DC01CB01821B930BA40BB50B8938D6
:103700009341A105B10528F08091D604882309F4DE
:10371000FBC180910001882309F447C10E942D1646
:103720006093D9047093DA048093DB049093DC04F3
:10373000109200018091D60490E00E94BF14809105
:10374000DE0490E00E94BF148091D80490E00E94B3
:10375000BF1464EE72E082E395E00E949F0D8091B9
:10376000D604882309F449C06FEE72E082E395E045
:103770000E949F0D0E948A14D092D606C092D50650
:103780008AEC96E00E949B0D8EEF9CE09093D6060B
:103790008093D5068AEC96E00E949B0D6BEF7CE04F
:1037A0008AEC96E00E94190D68EF7CE08AEC96E0C6
:1037B0000E94190D98E2E92E96E0F92EE8E2F6E073
:1037C00001900020E9F7CF018852964097012852D6
:1037D00036402817390770F4F70161917F018AECB0
:1037E00096E00E94A10E66EF7CE08AEC96E00E94D3
:1037F000190DE4CF62E073E059C08091DE048823A4
:1038000009F459C064E173E082E395E00E949F0DE2
:103810006CE273E082E395E00E949F0D64EF71E03B
:1038200080E090E00E94F315D092D606C092D506B3
:103830000E948A1463EE7CE08AEC96E00E94CC0D34
:1038400060ED7CE08AEC96E00E94CC0D6EEB7CE0B3
:103850008AEC96E00E94CC0D6BEA7CE08AEC96E064
:103860000E94CC0D69E97CE08AEC96E00E94CC0DC8
:1038700067E87CE08AEC96E00E94CC0D64E77CE08F
:103880008AEC96E00E94190D63E473E082E395E010
:103890000E949F0D68EE73E080E090E00E94F315B7
:1038A000109300011092DE0469E573E082E395E075
:1038B0000E949F0D7AC08091D804882309F453C0D8
:1038C00060E773E082E395E00E949F0D66E873E095
:1038D00082E395E00E949F0D64EF71E080E090E04C
:1038E0000E94F315D092D606C092D5060E948A1483
:1038F00061E67CE08AEC96E00E94CC0D6EE47CE010
:103900008AEC96E00E94CC0D6CE37CE08AEC96E0B9
:103910000E94CC0D69E27CE08AEC96E00E94CC0D1E
:1039200066E17CE08AEC96E00E94CC0D65E07CE0EC
:103930008AEC96E00E94CC0D62EF7BE08AEC96E088
:103940000E94190D66E873E082E395E00E949F0DE6
:1039500068EE73E080E090E00E94F31510930001A0
:103960001092D804A1CF0E948A14D092D606C09299
:10397000D5068AEC96E00E949B0D8EEF882E8CE097
:10398000982E9092D6068092D5068AEC96E00E94F8
:103990009B0D68EE7BE08AEC96E00E94190D64ECCA
:1039A00076E08AEC96E00E94B10D82E395E00E94F9
:1039B000B70A892B09F47DC082E395E00E94950A3D
:1039C000082F682F82E395E00E94A814013339F58F
:1039D0006BE973E082E395E00E949F0D1093DE0493
:1039E0001092D604109300011093DD0460E972E098
:1039F00082E395E00E949F0D8091DB0581608093BA
:103A0000DB050E94F5146DEA72E0CE0101960E947A
:103A1000040DBE016F5F7F4F84EC96E026C0023339
:103A200069F56AEB73E082E395E00E949F0D1093C5
:103A3000DE041092D6041093000160EB72E082E382
:103A400095E00E949F0D8091DB0582608093DB05ED
:103A50000E94F5146DEC72E0CE0101960E94040DF7
:103A6000BE016F5F7F4F8EEB96E00E946215CE0124
:103A700001960E94FF0C0E9479131BC00333A9F426
:103A800068ED73E082E395E00E949F0D8091DB0575
:103A90008D7F8093DB050E94F5148091DB058E7F7E
:103AA0008093DB050E94F51404C0043311F40E94D6
:103AB00090130E945E0B8ECC40FF1EC0EFE3F6E039
:103AC00080E090E0448D411119C0E0919F06F09193
:103AD000A006E20FF31F408156E0852E889EF0017C
:103AE000899EF00D1124E15CF94F448F368F258FAC
:103AF00010A2178E0E943916B39414CD01963696F3
:103B00008A309105F9F6F8CF109300016EEE73E05C
:103B100082E395E00E949F0DFCCD10923505109236
:103B2000340588EE93E0A0E0B0E0809336059093F2
:103B30003705A0933805B093390521E131E0309382
:103B400033052093320525EC30E030933F05209378
:103B50003E0524EC30E0309341052093400520ECF5
:103B600030E0309343052093420521EC30E0309360
:103B700045052093440522EC30E03093470520931F
:103B8000460526EC30E03093490520934805109215
:103B90004B0510924C0510924D0510924E05109257
:103BA000D2051092D1058093D3059093D405A093AC
:103BB000D505B093D60583E291E09093D00580932C
:103BC000CF056BEF73E089ED96E00E94040D109233
:103BD000CD061092CC0681E08093D3061092D606D3
:103BE0001092D50681E591E09093CB068093CA06AA
:103BF00069E174E084EC96E00E94040D6DE174E0EC
:103C00008EEB96E00E94040D10924106109245063C
:103C10001092440610924606EFE3F6E0148E10A2CE
:103C2000178E11A2369686E0EB37F807B9F78EE5C6
:103C300091E09093A2068093A1068BE591E090938A
:103C4000A4068093A30684E08093A50683E0809376
:103C5000A60682E691E09093A00680939F068AE0F4
:103C600090E09093A8068093A70684EF91E090934C
:103C7000AA068093A9061092AD061092AC06109287
:103C80009B0610929C0610929D0610929E06109222
:103C9000AB061092B1061092B00688EE93E0A0E059
:103CA000B0E08093B2069093B306A093B406B093AD
:103CB000B50685E391E09093400680933F068FE33D
:103CC00091E09093AF068093AE0688E38093BA06A6
:103CD00081E08093BB0684E294E090933E0680935B
:103CE0003D0610923C061092280689E294E09093DB
:103CF000270680932606109225061092110681E36E
:103D000094E09093100680930F0610920E06109286
:103D1000FA051092DB051092DC051092DD05109279
:103D2000DE051092DF051092E0051092E105109279
:103D3000E2051092E3051092E4051092E505109259
:103D4000E6051092E7051092E8051092E905109239
:103D5000EB051092EA051092ED051092EC05109219
:103D6000EF051092EE051092F1051092F0051092F9
:103D7000F3051092F2051092F5051092F4051092D9
:103D8000F7051092F6051092F9051092F8050895BE
:103D90002F923F924F925F926F927F928F929F925B
:103DA000AF92BF92CF92DF92EF92FF920F931F9349
:103DB000CF93DF93CDB7DEB7CA1BDB0B0FB6F894FA
:103DC000DEBF0FBECDBF09942A88398848885F843A
:103DD0006E847D848C849B84AA84B984C884DF80AB
:103DE000EE80FD800C811B81AA81B981CE0FD11D8F
:103DF0000FB6F894DEBF0FBECDBFED010895A1E26E
:103E00001A2EAA1BBB1BFD010DC0AA1FBB1FEE1F54
:103E1000FF1FA217B307E407F50720F0A21BB30B9F
:103E2000E40BF50B661F771F881F991F1A9469F71B
:103E300060957095809590959B01AC01BD01CF0177
:103E40000895EE0FFF1F0590F491E02D09940F9354
:103E50001F93CF93DF938230910510F482E090E0BE
:103E6000E091E206F091E30620E030E0A0E0B0E06F
:103E7000309719F140815181028113814817590708
:103E8000C8F08417950769F4109731F012960C93D7
:103E9000129713961C9327C00093E2061093E30633
:103EA00022C02115310519F04217530718F49A0161
:103EB000BD01EF01DF01F801DBCF21153105F9F07C
:103EC000281B390B2430310580F48A819B816115D0
:103ED000710521F0FB019383828304C09093E30674
:103EE0008093E206FE01329644C0FE01E20FF31F0A
:103EF0008193919322503109398328833AC02091CC
:103F0000E0063091E106232B41F42091030130912A
:103F100004013093E1062093E006209101013091E5
:103F200002012115310541F42DB73EB7409105013D
:103F300050910601241B350BE091E006F091E1065B
:103F4000E217F307A0F42E1B3F0B2817390778F070
:103F5000AC014E5F5F4F2417350748F04E0F5F1FCF
:103F60005093E1064093E0068193919302C0E0E014
:103F7000F0E0CF01DF91CF911F910F910895CF9382
:103F8000DF93009709F481C0FC01329713821282FB
:103F9000A091E206B091E306109781F4208131816F
:103FA000820F931F2091E0063091E1062817390710
:103FB00051F5F093E106E093E00667C0ED0120E0E3
:103FC00030E0CE17DF0740F44A815B819E01411546
:103FD0005105F1F0EA01F5CFD383C28340815181CD
:103FE000840F951FC817D90759F488819981840FC8
:103FF000951F0296918380838A819B81938382831C
:104000002115310529F4F093E306E093E2063DC063
:10401000E901FB83EA8349915991C40FD51FEC173D
:10402000FD0761F480819181840F951F0296E9015B
:1040300099838883828193819B838A83E0E0F0E087
:1040400012968D919C911397009719F0FD01DC0158
:10405000F7CF8D919C9111979D012E5F3F4F820F5D
:10406000931F2091E0063091E1062817390769F483
:10407000309729F41092E3061092E20602C01382F0
:104080001282B093E106A093E006DF91CF910895EC
:10409000A0E0B0E0EEE4F0E20C94CC1EEC0100975E
:1040A00021F4CB010E94271FB4C0FC01E60FF71FCB
:1040B0009C0122503109E217F30708F4A8C0D90186
:1040C0000D911C91119706171707B0F005301105D7
:1040D00008F49BC0C80104978617970708F495C099
:1040E00002501109061B170B019311936D937C93DA
:1040F000CF010E94BF1F89C05B01A01AB10A4C0109
:10410000800E911EA091E206B091E306612C712C05
:10411000E12CF12C109709F446C08D919C911197D8
:10412000A815B905B1F56C0142E0C40ED11CCA1442
:10413000DB0478F14C018A189B08640142E0C40E4C
:10414000D11C1296BC9012971396AC91B5E0CB1689
:10415000D10440F0B282A38391828082D9016D9311
:104160007C9309C00E5F1F4F800F911FF90191834F
:104170008083EB2DFA2FE114F10431F0D70113966F
:10418000FC93EE93129741C0F093E306E093E206AE
:104190003CC06816790608F43C017D0112960D902A
:1041A000BC91A02DB7CF8091E0069091E1068816D2
:1041B0009906E1F466167706C8F4809101019091A2
:1041C0000201009741F48DB79EB7409105015091CF
:1041D0000601841B950BE817F907C8F4F093E10674
:1041E000E093E006F901718360830FC0CB010E9468
:1041F000271F7C01009759F0A801BE010E941321DE
:10420000CE010E94BF1FC70104C0CE0102C080E0E2
:1042100090E0CDB7DEB7EEE00C94E81E81E090E0D0
:10422000F8940C942321FB01DC0102C001900D9253
:1042300041505040D8F70895FB01DC0101900D92E8
:104240000020E1F708951AE0C0E3DAE004C0FE01BF
:104250000E94211F2196C133D107C9F7F894FFCFDF
:10426000010000E40620006B006C006D00000000FF
:1042700000EF0A5C0A860A3C0BB70A950AA90A00F5
:104280000000005E0C310C8E0C050C290C150C0680
:104290000C000000008D0C5912051391FF00005E08
:1042A0000C310C8E0C050C290C150C060C000000B2
:1042B00000A10E5C0A8E0C5B0ABB12020004010610
:1042C00005033132333435363738392A30230D0A75
:1042D0000050617373776F7274207A7572756563BD
:1042E0006B67657365747A74004E6575737461727B
:1042F0007420696E0054617374653A2000202D3E6D
:1043000020436F64653A20002320676564727565F9
:10431000636B74202D20636C6561726564002A20D4
:10432000676564727565636B74202D20636C6561CD
:1043300072656400484F4C443A20005265737461C2
:10434000727420436F64652065696E676567656296
:10435000656E2C20737461727465206E6575002023
:104360002D3E20446973706C617900202D3E2052EF
:10437000656C6179004F4C45443A2020206F6B00FA
:104380004B65797061643A206F6B0052656C61799E
:104390003A20206F6B003D3D3D3D3D3D3D3D3D3D67
:1043A0003D3D3D3D3D3D3D3D3D53544152543D3DE0
:1043B0003D3D3D3D3D3D3D3D3D3D3D3D3D3D3D3D2D
:1043C0003D3D3D0034205A65696368656E2065692E
:1043D0006E6765626562656E202D20756562657227
:1043E0007072756566652050617373776F727400C3
:1043F0004B6F7272656B7465732050617373776F66
:1044000072743A204C6963687420616E004F4E00EC
:104410004B6F7272656B7465732050617373776F45
:1044200072743A204578697420617566004F504572
:104430004E0046616C7363686573205061737377D7
:104440006F7274005570646174654F4C4544004B45
:10445000657970616473637265656E2073746172EF
:1044600074004B657970616473637265656E206575
:104470006E6465004B6579706164436F6465436F7A
:104480007272656374207374617274004F4C45449A
:104490005F736D696C6579536D696C6520737461C8
:1044A0007274004F4C45445F736D696C6579536D50
:1044B000696C6520656E6465004B65797061644365
:1044C0006F6465436F727265637420656E64650026
:1044D0004B6579706164436F646557726F6E6720D6
:1044E0007374617274004F4C45445F736D696C6501
:1044F00079536164207374617274004B6F6D6D61E8
:104500006E646F3A204C6963687472616574736598
:104510006C2067656C6F657374004B6F6D6D616EB9
:10452000646F3A20457869747261657473656C20B4
:1045300067656C6F657374004B6F6D6D616E646F52
:104540003A2052656C6179205265736574004F4C56
:1045500045442072656672657368004B65797061C9
:1045600064206C6967687420656E7472616E63653F
:104570002067616C6C657279004F4646004C4F4372
:104580004B45440031373038003233383139383414
:0A459000003230313632303136008F
:00000001FF
