:100000000C94A7000C94CF000C94CF000C94110416
:100010000C94EC030C94C7030C94C1070C94CF0010
:100020000C94CF000C94CF000C94CF000C94CF0014
:100030000C94CF000C94CF000C94CF000C94CF0004
:100040000C946D0C0C94CF000C947D030C9457030E
:100050000C94CF000C94CF000C94CF000C94CF00E4
:100060000C94D1040C94CF00000000002300260063
:100070002900206465766963652873292E00466F20
:10008000756E642000202D3E2052656C6179002041
:100090002D3E20446973706C617900202D3E20490B
:1000A0006E7075742D4932432D626F617264002049
:1000B0002D3E204C43442D4932432D426F617264E2
:1000C00000202D3E204C4344002900202830780099
:1000D000466F756E6420616464726573733A2000C4
:1000E0005363616E6E696E672E2E2E004932432077
:1000F0007363616E6E65723A000000000024002791
:10010000002A0000000000250028002B0004040441
:1001100004040404040202020202020303030303B0
:10012000030102040810204080010204081020018D
:10013000020408102000000008000201000003046F
:10014000070000000000000000006D11CD0C11241C
:100150001FBECFEFD8E0DEBFCDBF26E0ACE0B4E0FD
:1001600001C01D92A23BB207E1F714E0A0E0B1E0AC
:10017000E0E4FAE202C005900D92AC30B107D9F785
:1001800010E0C6EAD0E004C02197FE010E941613D9
:10019000C53AD107C9F70E94D30C0C9413150C94DF
:1001A0000000CF92DF92EF92FF920F931F93CF93B5
:1001B000DF936C017A018B01C0E0D0E0CE15DF0542
:1001C00081F0D8016D918D01D601ED91FC910190E6
:1001D000F081E02DC6010995892B11F02196EECF13
:1001E0007E01C701DF91CF911F910F91FF90EF909A
:1001F000DF90CF900895FC01538D448D252F30E082
:10020000842F90E0821B930B541710F0CF96089523
:1002100001970895FC01918D828D981761F0828D70
:10022000DF01A80FB11D5D968C91928D9F5F9F732A
:10023000928F90E008958FEF9FEF0895FC01918DCC
:10024000828D981731F0828DE80FF11D858D90E039
:1002500008958FEF9FEF0895FC01918D228D892FD6
:1002600090E0805C9F4F821B91098F7399270895BE
:1002700080E195E00E942C0121E0892B09F420E027
:10028000822F0895FC01848DDF01A80FB11DA35AB0
:10029000BF4F2C91848D90E001968F739927848FA6
:1002A000A689B7892C93A089B1898C9183708064C9
:1002B0008C93938D848D981306C00288F389E02D6A
:1002C00080818F7D80830895EF92FF920F931F931B
:1002D000CF93DF93EC0181E0888F9B8D8C8D9813F9
:1002E00005C0E889F989808185FD26C0F62E0B8D31
:1002F00010E00F5F1F4F0F731127E02E8C8DE81257
:100300000CC00FB607FCFACFE889F989808185FF18
:10031000F5CFCE010E944201F1CF8B8DFE01E80F97
:10032000F11DE35AFF4FF0829FB7F8940B8FEA89D3
:10033000FB89808180620AC09FB7F894EE89FF89AB
:100340006083E889F98980818370806480839FBF9E
:1003500081E090E0DF91CF911F910F91FF90EF909E
:100360000895CF93DF93EC01888D8823C9F0EA8943
:10037000FB89808185FD05C0A889B9898C9186FD9E
:100380000FC00FB607FCF5CF808185FFF2CFA8899B
:10039000B9898C9185FFEDCFCE010E944201E7CF54
:1003A000DF91CF91089580E090E0892B29F00E94A1
:1003B000380181110C94000008958091AD0490E003
:1003C0002091AC04821B9109089590E0FC01EE0F8E
:1003D000FF1FE459FF4FA591B4912C91FC01E75503
:1003E000FB4F30812083880F991FFC01E85FFE4F8F
:1003F0000190F081E02D8081089521E001C0220F5D
:100400006A95EAF7DC011C962C931C971A965C936C
:100410004E931997ED91FC910484F585E02D60E0F1
:100420000994DC01ED91FC910684F785E02D41E013
:10043000099581E090E008950895089585ED8093F1
:10044000BC008091BC0084FDFCCF10920F05089584
:1004500040915404262F30E0240F311D2132310504
:10046000DCF420910F052430C9F4FC0180E090E019
:10047000861758F4309154042191DC01AE5CBB4FD7
:10048000A30FB11D2C930196F3CF80915404680FF4
:100490006093540480E0089581E0089582E0089517
:1004A000089508950895E091AC048091AD04E81793
:1004B00030F4F0E0E753FB4F808190E008958FEF38
:1004C0009FEF08959091AC048091AD04981750F47B
:1004D000E92FF0E0E753FB4F208130E09F5F9093DE
:1004E000AC0402C02FEF3FEFC9010895CF92DF9215
:1004F000EF92FF920F931F93CF93DF937C01CB0179
:100500008A012091C804222389F0EB016B01C40EFB
:10051000D51ECC15DD0569F06991D701ED91FC91EF
:100520000190F081E02DC7010995F3CF642F0E945F
:100530002802C801DF91CF911F910F91FF90EF909A
:10054000DF90CF900895CF93DF931F92CDB7DEB7A2
:1005500069832091C8042223D1F02091C504203260
:1005600040F021E030E0FC013383228380E090E022
:1005700015C08091C604E82FF0E0EE5EFB4F998134
:1005800090838F5F8093C6048093C50405C061E0AB
:10059000CE0101960E94280281E090E00F90DF9149
:1005A000CF9108950895089580E090E008950F9305
:1005B0001F93CF93DF93062F0F70423019F440E062
:1005C000602F0EC0142FEC0170E084E075956795E4
:1005D0008A95E1F7CE010E94080B412F602FCE01D2
:1005E000DF91CF911F910F910C94080BFC01848532
:1005F0008823A9F0218532852115310519F461116F
:1006000006C007C02130310521F4611102C0858781
:1006100001C015866585CF010E960C94E00A0895F9
:10062000862F642F0C94610BCF93DF9370E0FB0156
:10063000EB5CFE4F8491FB01EF5DFE4FD491FB011B
:10064000E35FFE4FC491CC2391F081110E94380BDF
:10065000EC2FF0E0EE0FFF1FE859FF4FA591B4918A
:10066000EC91ED2381E090E021F480E002C080E095
:1006700090E0DF91CF910895862F642F0C94900B1A
:100680006115710579F0FB0101900020E9F73197C0
:10069000AF01461B570BDC01ED91FC910280F38109
:1006A000E02D099480E090E008950C9440031F929F
:1006B0000F920FB60F9211242F933F934F935F9396
:1006C0006F937F938F939F93AF93BF93EF93FF931A
:1006D00080E195E00E944201FF91EF91BF91AF91BF
:1006E0009F918F917F916F915F914F913F912F914A
:1006F0000F900FBE0F901F9018951F920F920FB67C
:100700000F9211242F938F939F93EF93FF93E09178
:100710002005F09121058081E0912605F0912705C3
:1007200082FD12C09081809129058F5F8F73209187
:100730002A05821751F0E0912905F0E0E05FFA4FB9
:10074000958F8093290501C08081FF91EF919F9142
:100750008F912F910F900FBE0F901F901895CF93F0
:10076000DF93EC0189818C8361E08B810E94250AF3
:100770001092AC048093AD04811101C0FFCF8DEACB
:1007800095E00E9462028983DF91CF9108951F92C4
:100790000F920FB60F9211242F933F934F935F93B5
:1007A0006F937F938F939F93AF93BF93EF93FF9339
:1007B00082E00E94E501FF91EF91BF91AF919F917F
:1007C0008F917F916F915F914F913F912F910F90FA
:1007D0000FBE0F901F9018951F920F920FB60F9299
:1007E00011242F933F934F935F936F937F938F9336
:1007F0009F93AF93BF93EF93FF9381E00E94E50136
:10080000FF91EF91BF91AF919F918F917F916F91E8
:100810005F914F913F912F910F900FBE0F901F90BE
:1008200018951F920F920FB60F9211242F933F939A
:100830004F935F936F937F938F939F93AF93BF93E8
:10084000EF93FF9380E00E94E501FF91EF91BF914C
:10085000AF919F918F917F916F915F914F913F9158
:100860002F910F900FBE0F901F901895DC01ED9106
:10087000FC910684F785E02D40E0099461E00E9438
:1008800036048BE39FE10197F1F708950F931F93CF
:10089000CF93DF93EC01423018F08C8188608C8319
:1008A0004F836887222329F0413019F48C818460BA
:1008B0008C8364E670E080E090E00E94CC0B6C8159
:1008C00064FD31C0E881F9810684F785E02D42E0BE
:1008D00063E0CE0109958BE496E40197F1F7E88196
:1008E000F9810684F785E02D42E063E0CE010995A9
:1008F00003E512E0C8010197F1F7E881F981068468
:10090000F785E02D42E063E0CE010995C80101972B
:10091000F1F7E881F9810684F785E02D42E062E095
:10092000CE01099517C06062CE010E9436048BE4A7
:1009300096E40197F1F76C816062CE010E94360463
:1009400003E512E0C8010197F1F76C816062CE0106
:100950000E943604C8010197F1F76C816062CE01F4
:100960000E9436048BEE90E00197F1F784E08D83CE
:100970006CE0CE010E943604CE010E943E0482E06B
:100980008E8366E0CE010E943604E881F9810484FA
:10099000F585E02D6FEFCE01DF91CF911F910F9183
:1009A00009941F920F920FB60F9211242F933F9329
:1009B0004F935F936F937F938F939F93AF93BF9367
:1009C000EF93FF938091B900887F803609F49CC033
:1009D00068F5883209F45BC090F4803109F454C0A2
:1009E00038F4882309F4F6C0883009F44DC0F6C005
:1009F000883109F44CC0803209F45DC0EFC0803406
:100A000009F468C048F4803309F455C0883309F00C
:100A1000E5C080930D05D8C0803509F44FC08835F6
:100A200009F45DC0883409F0D9C0D6C0883909F40A
:100A3000C7C0A8F4883709F467C038F4883609F4C9
:100A400063C0803709F460C0C9C0883809F4B8C0F1
:100A5000803909F45FC0803809F0C0C05BC0803BBA
:100A600009F486C038F4803A09F466C0883A09F47B
:100A70007FC0B4C0803C09F4A7C0883C09F4A4C07E
:100A8000883B09F48AC0AAC080910A0510C09091E1
:100A90000C0580910B05981770F5E0910C0581E02D
:100AA0008E0F80930C05F0E0E751FB4F808180931F
:100AB000BB0085EC86C080930D058EC0E0910C05CF
:100AC00081E08E0F80930C058091BB00F0E0E75130
:100AD000FB4F808390910C0580910B056EC0E091D7
:100AE0000C0581E08E0F80930C058091BB00F0E037
:100AF000E751FB4F808380910E0581116DC081E02D
:100B00008093090584EA61C083E080930F05109209
:100B10007804CFCF80917804803208F051C0E09102
:100B2000780481E08E0F809378048091BB00F0E020
:100B3000E85AFB4F8083BDCF85EC8093BC001092B8
:100B40000F0580917804803230F4E0917804F0E071
:100B5000E85AFB4F10826091780470E0E0915604EF
:100B6000F091570488E594E009951092780436C016
:100B700084E080930F051092550410925404E09184
:100B80005204F0915304099580915404811105C0D9
:100B900081E08093540410923204E091550481E086
:100BA0008E0F80935504F0E0EE5CFB4F80818093C4
:100BB000BB009091550480915404981708F479CFA4
:100BC00085E88093BC000AC085EC8093BC0010923D
:100BD0000F0504C010920D050E941E02FF91EF91B7
:100BE000BF91AF919F918F917F916F915F914F9145
:100BF0003F912F910F900FBE0F901F90189530913D
:100C0000C504313208F04AC080910F058111FCCF34
:100C10009091C70422E020930F0560930E052FEFFB
:100C200020930D0510920C0530930B05E2E1F4E0E2
:100C3000A9EEB4E020E0321721F041914D932F5FEF
:100C4000FACF10920A0520910A05990F922B9093E2
:100C50000A0590910905913061F41092090590916F
:100C60000A059093BB009091BC0093FDF8CF95ECE2
:100C700001C095EE9093BC0090910F059230E1F386
:100C800090910D059F3F79F080910D05803241F0E4
:100C900080910D05803331F084E005C081E003C010
:100CA00082E001C083E01092C6041092C504109245
:100CB000C8040895FC01918162818081238131E023
:100CC0003093C8042093C7041092C6041092C50440
:100CD00060956923682B8DEA95E00E94A30261E08C
:100CE0008DEA95E00C94FF05CF92DF92EF92FF9290
:100CF0000F931F93CF93DF93EC0181E090E002C04C
:100D0000880F991F6A95E2F78E0103581F4F4423FD
:100D100049F0D8012D913C911197822B932B8D9303
:100D20009C9309C080959095F801208131818223A0
:100D3000932391838083D801CC901196DC90FE019F
:100D4000E558FF4F80817E01BFE6EB0EF11C91E07C
:100D50009093C8048093C7041092C6041092C504EF
:100D6000D701ED91FC910190F081E02D6C2DC70130
:100D70000995C458DF4F8881823048F0D701ED9142
:100D8000FC910190F081E02D6D2DC701099561E086
:100D9000C7010E94FF05F801C082D182DF91CF9187
:100DA0001F910F91FF90EF90DF90CF900895862FC5
:100DB000413208F040E2642F0E94250A1092AC04F0
:100DC0008093AD040895CF92DF92EF92FF920F933C
:100DD0001F93CF93DF9301E010E002C0000F111FBB
:100DE0006A95E2F77C012FE6E20EF11C6C01ECE75C
:100DF000CE0ED11CF601408150E03197608170E049
:100E0000C7010E94D706C7010E946202EC01F601E9
:100E10008081823040F0C7010E94620220E030E011
:100E2000382FC22BD32BC023D12381E090E0C017F1
:100E3000D10711F080E090E0DF91CF911F910F91E9
:100E4000FF90EF90DF90CF9008951092AC04109235
:100E5000AD041092C6041092C50410920F0581E0F3
:100E600080930E051092090561E082E10E94610BFA
:100E700061E083E10E94610BE9EBF0E080818E7F0D
:100E8000808380818D7F808388E48093B80085E4AF
:100E90008093BC0080E592E09093530480935204C9
:100EA00081E592E090935704809356040895FF9251
:100EB0000F931F93CF93DF93EC01162F042FF22E85
:100EC0008B85888B8DEA95E00E942507888991E0C3
:100ED0009093C8048093C7041092C6041092C5046E
:100EE00061E08DEA95E00E94FF0591E0811190E0BC
:100EF000998B811105C08DEA95E00E9462028E8770
:100F00008989882339F01F861C8260E0CE010E9605
:100F10000E94E00A2F2D402F612FCE01DF91CF914B
:100F20001F910F91FF900C944604CF92DF92EF92A5
:100F3000FF92C82E61E08DE00E94900B61E08DE091
:100F40000E94610BD12CE12CF12CC701B6010E944B
:100F5000CC0B60E08DE00E94610BC701B6010E94DE
:100F6000CC0B61E08DE00E94610BC701B6010E94CD
:100F7000CC0B60E08DE0FF90EF90DF90CF900C9471
:100F8000610B1F920F920FB60F9211242F933F9374
:100F90004F935F936F937F938F939F93AF93BF9381
:100FA000EF93FF9382E30E949507FF91EF91BF912A
:100FB000AF919F918F917F916F915F914F913F91F1
:100FC0002F910F900FBE0F901F9018951092AF04A5
:100FD00081E080930001E2EDF5E0148A10828CEB51
:100FE00091E00C94160A89EB95E00E943E0462E0C1
:100FF00089EB95E00E9436048BE39FE10197F1F7BE
:1010000060E084E00E94C8096BEC71E089EB95E038
:101010000E94550363E080E00E94C80967ED71E01B
:1010200089EB95E00C945503CF93C82F81EE91E0A6
:101030000E94160A80910806909109068130910558
:1010400021F0029709F45DC06CC060EF71E080E1AF
:1010500095E00E9455036C2F80E195E00E946401A9
:1010600068EF71E080E195E00E94550362ED75E064
:1010700080E195E00E9455038C2F0E94AA0A81E02E
:101080008093AF0480930001C33219F0CA3231F06B
:1010900026C083E092E0CF910C94160A81E192E0A1
:1010A0000E94160A0E94E607809101018823C9F177
:1010B00089EB95E00E943E0461E086E00E94C80949
:1010C00069E172E089EB95E00E9455036EEE72E0F3
:1010D00080E090E00E94CC0BCF910C94F307E0915C
:1010E000E605E331F1F081E08E0F8093E605F0E054
:1010F000EE52FA4FC083E82FF0E0EE52FA4F108222
:1011000010C061E272E080E195E00E9455038C2FEF
:101110000E94AA0ACA3229F482E30E9495070C941D
:101120000000CF910895EF92FF920F931F93CF93FA
:101130000E94060C00910E0410910F0420911004DF
:1011400030911104DC01CB01801B910BA20BB30B7E
:1011500089389341A105B10528F08091AF04882317
:1011600009F4C0C080910001882309F4C3C08091B4
:10117000010181110E94F3070E94060C60930E0486
:1011800070930F0480931004909311041092000147
:1011900068E272E080E195E00E94550360910C04E2
:1011A00070910D0480E090E04AE00E94670A0E947E
:1011B000100A8091AF04882331F1809101018823C6
:1011C00009F486C002ED15E0C8E07801F70101904E
:1011D0000020E9F73197E25DF540C801825D954056
:1011E0008E179F0708F074C061E08C2F0E94C80919
:1011F000F80161918F0189EB95E00E941102CF5FA8
:10120000C43121F765C08091AE048823A1F189EB38
:1012100095E00E943E0461E087E00E94C80963E314
:1012200072E089EB95E00E94550362E086E00E943F
:10123000C8096AE372E089EB95E00E94550368EE05
:1012400073E080E090E00E94CC0B6AEF70E080E0F9
:1012500090E00E94CC0B809187068E7F809387065A
:1012600087E896E00E945A0682E492E00E94160AFD
:101270001092AE042DC08091B004882321F189EB37
:1012800095E00E943E0461E087E00E94C80963E3A4
:1012900072E089EB95E00E94550362E087E00E94CE
:1012A000C8096FE472E089EB95E00E94550368EE8F
:1012B00073E080E090E00E94CC0B81E0809300011D
:1012C0001092B00405C08091010181110E94F307C2
:1012D00080910C0490910D04019690930D048093DD
:1012E0000C0408C081E08093000186E592E00E9432
:1012F000160A38CFCF911F910F91FF90EF9008956C
:1013000096E0899FD0011124A751BA4F90967C9303
:101310006E935F9791E091969C939197909155066B
:10132000E0915606F0915706992339F0309751F025
:10133000811108C08091050604C0309719F05C96B1
:101340008C91099408953FB7F8948091C1049091CD
:10135000C204A091C304B091C40426B5A89B05C0E3
:101360002F3F19F00196A11DB11D3FBFBA2FA92F24
:10137000982F8827820F911DA11DB11DBC01CD01A1
:1013800042E0660F771F881F991F4A95D1F708958D
:101390000F931F93CF93DF93CDB7DEB728970FB688
:1013A000F894DEBF0FBECDBF00914C0110914D01EE
:1013B00020914E0130914F010D831E832F8338877A
:1013C000009150011091510120915201309153012F
:1013D00009831A832B833C839091C005691710F011
:1013E0006FEF690F4091C105262F30E0FE01E20F3B
:1013F000F31F403121F4943011F4618101C0658103
:10140000680F606889EB95E028960FB6F894DEBF08
:101410000FBECDBFDF91CF911F910F910C94360479
:1014200068E074E080E195E00C944003CF93DF9393
:10143000BC0180E195E00E944003EC010E94100A8B
:101440008C0F9D1FDF91CF91089590910F05911101
:10145000FCCF91E090930F0590930E052FEF209312
:101460000D0510920C05260F20930B0590930A058D
:1014700090910A05880F892B80930A0580910905B0
:10148000813061F41092090580910A058093BB00B8
:101490008091BC0083FDF8CF85EC01C085EE809380
:1014A000BC0080910F058130E1F380910C05861717
:1014B00010F460910C05A9EEB4E0E9ECF4E080E0F2
:1014C000861721F09D9191938F5FFACF08958F92A7
:1014D0009F92AF92BF920F931F93CF93DF93CDB79D
:1014E000DEB7A1970FB6F894DEBF0FBECDBF19A22D
:1014F000423008F44AE08E010F5D1F4F842E912C7C
:10150000A12CB12CA50194010E94F412E62FB9017F
:10151000CA0101501109EA3014F4E05D01C0E95C30
:10152000D801EC93232B242B252B61F7B80180E104
:1015300095E00E944003A1960FB6F894DEBF0FBE5F
:10154000CDBFDF91CF911F910F91BF90AF909F9032
:101550008F900895CF93DF93682F80E195E00E94EC
:101560006401EC010E94100A8C0F9D1FDF91CF9146
:1015700008950F931F93CF93DF938C01C0E0D0E0C9
:10158000F801EC0FFD1F6491662341F080E195E0C6
:101590000E946401892B11F02196F2CFCE01DF91D8
:1015A000CF911F910F910895CF93DF930E94B90AB5
:1015B000EC010E94100A8C0F9D1FDF91CF910895BE
:1015C000FC0183818823D9F0962F6181609569237E
:1015D0006083828191E09093C8048093C704109245
:1015E000C6041092C5048DEA95E00E94A30261E052
:1015F0008DEA95E00E94FF05282F30E002C020E030
:1016000030E081E090E0232B11F080E090E008953D
:10161000EF92FF920F931F93CF938C01FC0184E014
:10162000C0E060FF02C09589C92B66958150319654
:101630008111F7CF413011F4F8014489F801858513
:10164000C82BC42B7801FEE0EF0EF11CF801628973
:101650006C2BC7010E94E00AF801628960956C2337
:10166000C701CF911F910F91FF90EF900C94E00A6A
:10167000833081F028F4813099F08230A1F0089510
:101680008730A9F08830B9F08430D1F4809180009F
:101690008F7D03C0809180008F77809380000895B4
:1016A00084B58F7702C084B58F7D84BD0895809105
:1016B000B0008F7703C08091B0008F7D8093B00021
:1016C00008951F93CF93DF93282F30E0F901EB5C4F
:1016D000FE4F8491F901EF5DFE4FD491F901E35F74
:1016E000FE4FC491CC23C1F0162F81110E94380BFC
:1016F000EC2FF0E0EE0FFF1FED5FFE4FA591B491D0
:101700009FB7F894111104C08C91D095D82302C0D2
:10171000EC91DE2BDC939FBFDF91CF911F91089559
:10172000CF93DF9390E0FC01EF5DFE4F2491FC012D
:10173000E35FFE4F8491882361F190E0880F991F49
:10174000FC01E750FF4FC591D491FC01ED5FFE4FC6
:10175000A591B491611109C09FB7F8948881209533
:1017600082238883EC912E230BC0623061F49FB7F3
:10177000F8948881322F309583238883EC912E2B27
:101780002C939FBF06C08FB7F894E8812E2B288337
:101790008FBFDF91CF9108958F929F92AF92BF92AA
:1017A000CF92DF92EF92FF926B017C010E94A3091E
:1017B0004B015C01C114D104E104F104F1F00E9479
:1017C000A309DC01CB0188199909AA09BB09883E44
:1017D0009340A105B10570F321E0C21AD108E108D8
:1017E000F10888EE880E83E0981EA11CB11CC1147C
:1017F000D104E104F10419F7DDCFFF90EF90DF9001
:10180000CF90BF90AF909F908F9008952FB7F8948E
:101810006091BD047091BE048091BF049091C0049A
:101820002FBF08950F931F93CF93DF93C82FD62F09
:1018300086E0C89FF0011124E751FA4F11A2878D6D
:1018400090A181309105D9F040F082309105A9F145
:101850000397F1F560E070E034C06623C9F161E000
:1018600070E08C2F0E9480090E94060C6093410654
:1018700070934206809343069093440629C00E94C9
:10188000060C0091410610914206209143063091CA
:101890004406AB01BC01401B510B620B730B8091E2
:1018A000530690915406A0E0B0E084179507A60770
:1018B000B70718F462E070E004C0D11109C063E01A
:1018C00070E08C2FDF91CF911F910F910C948009C4
:1018D000DF91CF911F910F9108951F920F920FB634
:1018E0000F9211242F933F938F939F93AF93BF93A6
:1018F0008091BD049091BE04A091BF04B091C0043A
:101900003091AD0623E0230F2D3720F40196A11D61
:10191000B11D05C026E8230F0296A11DB11D20931D
:10192000AD068093BD049093BE04A093BF04B09312
:10193000C0048091C1049091C204A091C304B091ED
:10194000C4040196A11DB11D8093C1049093C204EB
:10195000A093C304B093C404BF91AF919F918F91A2
:101960003F912F910F900FBE0F901F901895FC0183
:101970001082118212821382148215821682DC0177
:1019800017960F961D92A817B907E1F77F961D923B
:101990001D92EA17FB07D9F708958091A706909149
:1019A000A8060C94B413789484B5826084BD84B581
:1019B000816084BD85B5826085BD85B5816085BD4A
:1019C00080916E00816080936E0010928100809102
:1019D000810082608093810080918100816080938A
:1019E0008100809180008160809380008091B100AF
:1019F00084608093B1008091B00081608093B000DA
:101A000080917A00846080937A0080917A0082606D
:101A100080937A0080917A00816080937A0080912F
:101A20007A00806880937A001092C1000FB6F89413
:101A3000A89580916000886180936000109260009A
:101A40000FBEE0912005F091210582E08083E091B6
:101A50001C05F0911D051082E0911E05F0911F05F7
:101A600080E1808310922805E0912405F0912505FE
:101A700086E08083E0912205F091230580818061DA
:101A80008083E0912205F091230580818860808326
:101A9000E0912205F0912305808180688083E091A8
:101AA0002205F091230580818F7D80830E94100A9A
:101AB00082E692E00E94160A0E94100A80E992E0F3
:101AC0000E94160A0E94100A20E044E064E189EBBB
:101AD00095E00E94570761E080E00E94C8096EEB24
:101AE00072E089EB95E00E945503C2E0D0E064EF1C
:101AF00071E080E090E00E94CC0B60E089EB95E023
:101B00000E94F60264EF71E080E090E00E94CC0B4E
:101B10006FEF89EB95E00E94F602219741F70E9452
:101B2000F3078AEC92E00E94160A8FE380938A06FC
:101B30008DEA95E00E94250787E896E00E94AF03B2
:101B400080918906816080938906809187068E7FC7
:101B50008093870687E896E00E945A068091870660
:101B600081608093870687E896E00E945A068091FC
:101B70008906826080938906809187068D7F809395
:101B8000870687E896E00E945A0680918706826061
:101B90008093870687E896E00E945A0664EF71E01A
:101BA00080E090E00E94CC0B0EE211E0CEE0D1E0AC
:101BB000AA24A394B12CF80191908F01C990D990D7
:101BC00096013327992049F030918706C50101C05D
:101BD000880F2A95EAF7832B0BC090918706A50101
:101BE00002C0440F551F2A95E2F7842F8095892360
:101BF0008093870687E896E00E945A0666ED72E0B9
:101C000080E195E00E9455036CED72E080E195E083
:101C10000E9455030D2C000CEE08FF08F7FE0EC0C5
:101C20006DE280E195E00E94640166277727CB0191
:101C30006C197D098E099F094AE003C04AE0C7017B
:101C4000B6010E94670A64EE72E080E195E00E94AE
:101C50005503692D70E080E090E04AE00E94670A39
:101C60000E94100A64E170E080E090E00E94CC0BDA
:101C700051E0C231D50709F09ECF0E94100A8EEEC6
:101C800092E00E94160A89E380936B068DEA95E044
:101C90000E94250788E696E00E94AF03C4EBD4E0DB
:101CA000EEE3EE2EE1E0FE2E01E010E0F701C19040
:101CB000D1907F0120916A06DD24C8010C2C01C05F
:101CC000880F0A94EAF78095922F982390936A06DA
:101CD0009091680689238093680688E696E00E94C2
:101CE0005A0688E696E00E94AF038091690690E06C
:101CF00002C095958795CA94E2F781708993F8E4BC
:101D0000EF16F1E0FF0691F68AEF92E00E94160AC4
:101D100084E198E090935706809356068FEA91E00D
:101D200090934A068093490688E596E00E9425072D
:101D30004091650650E06091640670E088E596E0A9
:101D40000E94D70688E596E00E946202909367069B
:101D50008093660680916506823088F088E596E07B
:101D60000E94620220E030E0382F80916606909158
:101D70006706282B392B309367062093660688E880
:101D800093E1909354068093530684E190E09093FE
:101D900052068093510686E093E00E94160A64EF93
:101DA00071E080E090E00E94CC0B8CEE90E00E940D
:101DB000D40A80EE90E00E94D40A78E0C72ED12C9D
:101DC000E12CF12CC0E011E0DC2D1093C804C0928E
:101DD000C7041092C6041092C50461E08DEA95E034
:101DE0000E94FF05811139C080ED90E00E94B90A80
:101DF0004AE0C701B6010E94670A8BEC90E00E949E
:101E0000B90A40E1C701B6010E94670A89EC90E077
:101E10000E94B90AD73219F481EC90E013C0D8338C
:101E200019F48FEA90E00EC0D93319F48BE990E0F1
:101E300009C0DC3319F48FE890E004C0DF3321F4EB
:101E400085E890E00E94B90A0E94100ACF5F61E025
:101E500070E080E090E00E94CC0B2FEFC21AD20A13
:101E6000E20AF20A38E7C316D104E104F10409F0EA
:101E7000ABCF8EE790E00E94B90A6C2F70E080E053
:101E800090E04AE00E94670A82E790E00E94D40A4C
:101E90000E94100A64EF71E080E090E00E94CC0B99
:101EA00064EF71E080E090E00E94CC0B81E193E070
:101EB0000E94160A99E288E10FB6F894A8958093DB
:101EC00060000FBE9093600084EF0E9495070E940F
:101ED000100A8EE193E00E94160A0E94100A7724ED
:101EE0007394812C912C5401839405E216E066E0F2
:101EF000462E0E94060CC090B904D090BA04E0901F
:101F0000BB04F090BC04DC01CB018C199D09AE0927
:101F1000BF0985369105A105B10508F47FC04EE3E0
:101F2000E42E41E0F42EC4EBD4E06880F701C190C8
:101F3000D1907F0188E696E00E94AF038091690608
:101F4000DD2490E00C2C02C0959587950A94E2F769
:101F50008170681681F088E696E00E94AF03809158
:101F6000690690E002C095958795CA94E2F7817062
:101F700088837092B304219629EB34E02C173D0737
:101F8000A1F68091B304882341F18091B4048111BA
:101F900013C08091B50481110FC08091B6048111E6
:101FA0000BC08091B704811107C07092B2048CE419
:101FB00093E00E94160A02C01092B2048091B80405
:101FC000882339F07092B10482E693E00E94160AE9
:101FD00002C01092B1041092B3048091B20488231D
:101FE00009F44BC18091B104882309F446C1809162
:101FF00087068D7F8093870687E896E00E945A06C1
:1020000088ED93E00E94160A0E94060C6093B904C2
:102010007093BA048093BB049093BC04A8950E946B
:102020009308709255060E94060CC0904506D09009
:102030004606E0904706F0904806AB01BC014C19FB
:102040005D096E097F098091510690915206A0E0CA
:10205000B0E084179507A607B70718F01092550649
:10206000BCC0612C80915006681608F050C0C62D87
:10207000D0E0E0914D06F0914E06EC0FFD1F40E0E0
:10208000608189EE95E00E94740675016401062C5A
:1020900004C0CC0CDD1CEE1CFF1C0A94D2F7160108
:1020A000C094D094512C80914F06581610F5E52C11
:1020B000F12CE0914B06F0914C06EE0DFF1D608176
:1020C00089EE95E00E94E306F7013496EE0FFF1FBC
:1020D000E751FA4F892B29F4808191818229932934
:1020E00004C0808191818C219D21918380835394B0
:1020F000DACF80914D0690914E06C80FD91F41E06E
:10210000688189EE95E00E9474066394ABCFC9EEB6
:10211000D5E0FE01878D90A1892B31F4148E4FEF0D
:102120005FEF568F458F11A236960E171F0791F756
:10213000F12C80914F06F81668F5E12C8F2D90E078
:10214000880F991FFC01EF50FA4F6F012091500644
:10215000E216F0F4F601A081B1810E2C02C0B69512
:10216000A7950A94E2F76A2F6170F29E90011124FC
:102170002E0D311DE9EEF5E080E0458D568D2417DA
:10218000350709F4A0C08F5F36968A30B1F77FC05B
:10219000F394CFCFF12C89A1882311F0FF24F3947D
:1021A00026960C171D07B9F70E94060C609345068A
:1021B000709346068093470690934806FF2009F4E3
:1021C0004DCF80910A06882309F448CF80910806F4
:1021D00090910906019709F041CFE2EDF5E00190F9
:1021E0000020E9F7E75DF54009F044C08091010166
:1021F000882309F43FC088E793E00E94160A709292
:1022000000010E94930864EF71E080E090E00E947A
:10221000CC0B8091E7059091E805FC01319120916C
:10222000D205A3EDB5E0449631110DC0211112C0C5
:102230007092AE041092AF047092000110920101EE
:1022400084EA93E00FC0231305C031912D918E17BE
:102250009F0751F77092B0041092AF047092000182
:1022600085EB93E00E94160A0E94E60784EC93E057
:102270000E94160A0E94D3013CCE8091870682609C
:102280008093870687E896E00E945A06BDCEA0FF9D
:102290001CC0E9EEF5E080E090E0448D411117C0EC
:1022A000E0914906F0914A06E20FF31F4081489EF3
:1022B000F001499EF00D1124E751FA4F448F368FFB
:1022C000258F10A2178E0E94120CE3943FCF019627
:1022D00036968A30910509F7F8CF109213051092BF
:1022E000120588EE93E0A0E0B0E08093140590938F
:1022F0001505A0931605B093170528E531E0309336
:1023000011052093100525EC30E030931D05209336
:102310001C0524EC30E030931F0520931E0520ECB3
:1023200030E0309321052093200521EC30E03093FC
:1023300023052093220522EC30E0309325052093DD
:10234000240526EC30E030932705209326051092D3
:10235000290510922A0510922B0510922C05109237
:10236000B0051092AF058093B1059093B205A0938C
:10237000B305B093B4058EE791E09093AE058093DA
:10238000AD051092A8061092A7061092AA06109208
:10239000A9061092AC061092AB066DE070E080E0EA
:1023A00090E00E943D140097A1F09093A8068093BE
:1023B000A7062CE030E03093AA062093A9062091CE
:1023C000AB063091AC06232B09F0C8C0FC0110828B
:1023D000C5C08091A7069091A806009711F00E94B1
:1023E000B4131092A8061092A7061092AC06109291
:1023F000AB061092AA061092A90687E896E00E9402
:10240000B70C88E696E00E94B70C1092EB0510928C
:10241000EF051092EE051092F005E9EEF5E0148E4E
:1024200010A2178E11A2369686E0E532F807B9F7AA
:102430008BEA91E090934C0680934B0688EA91E0FA
:1024400090934E0680934D0694E090934F0683E060
:10245000809350062FEA31E030934A0620934906D4
:102460002AE030E0309352062093510624EF31E009
:102470003093540620935306109257061092560636
:102480001092450610924606109247061092480692
:102490001092550610925B0610925A0648EE53E0D1
:1024A00060E070E040935C0650935D0660935E06CA
:1024B00070935F0620E931E03093EA052093E90547
:1024C0002AE931E0309359062093580688E3809337
:1024D000640681E08093650626EF33E03093E805DB
:1024E0002093E7051092E6051092D2051092BC05E4
:1024F0001092BB052AE631E03093BA052093B90566
:102500001092C9052FEF2093C8051092C7051092AD
:10251000CA0527E22093C4051092C5051092C6058E
:102520001092C3051092C2059093CB0592E0909350
:10253000CC058093CD0580E18093CE0580E2809329
:10254000CF0580E48093D00580E88093D10540E0FA
:1025500050E063E089EB95E00C94FD018CE090E0A5
:102560009093AC068093AB066BEF73E08091A70667
:102570009091A8060E940C1540CF2F923F924F9247
:102580005F926F927F928F929F92AF92BF92CF9203
:10259000DF92EF92FF920F931F93CF93DF93CDB70C
:1025A000DEB7CA1BDB0B0FB6F894DEBF0FBECDBF84
:1025B00009942A88398848885F846E847D848C8455
:1025C0009B84AA84B984C884DF80EE80FD800C815E
:1025D0001B81AA81B981CE0FD11D0FB6F894DEBF41
:1025E0000FBECDBFED010895A1E21A2EAA1BBB1BA1
:1025F000FD010DC0AA1FBB1FEE1FFF1FA217B307CF
:10260000E407F50720F0A21BB30BE40BF50B661FE4
:10261000771F881F991F1A9469F7609570958095A8
:1026200090959B01AC01BD01CF010895EE0FFF1FF6
:102630000590F491E02D09940F931F93CF93DF93AE
:102640008230910510F482E090E0E091B006F091C4
:10265000B10620E030E0A0E0B0E0309719F1408111
:1026600051810281138148175907C8F084179507D3
:1026700069F4109731F012960C93129713961C93ED
:1026800027C00093B0061093B10622C02115310572
:1026900019F04217530718F49A01BD01EF01DF0149
:1026A000F801DBCF21153105F9F0281B390B243057
:1026B000310580F48A819B816115710521F0FB0150
:1026C0009383828304C09093B1068093B006FE0189
:1026D000329644C0FE01E20FF31F81939193225082
:1026E0003109398328833AC02091AE063091AF0674
:1026F000232B41F420910401309105013093AF0662
:102700002093AE062091020130910301211531057D
:1027100041F42DB73EB74091060150910701241BAB
:10272000350BE091AE06F091AF06E217F307A0F487
:102730002E1B3F0B2817390778F0AC014E5F5F4F17
:102740002417350748F04E0F5F1F5093AF06409394
:10275000AE068193919302C0E0E0F0E0CF01DF91FB
:10276000CF911F910F910895CF93DF93009709F4B4
:1027700081C0FC01329713821282A091B006B09101
:10278000B106109781F420813181820F931F20912F
:10279000AE063091AF062817390751F5F093AF0612
:1027A000E093AE0667C0ED0120E030E0CE17DF0712
:1027B00040F44A815B819E0141155105F1F0EA0127
:1027C000F5CFD383C28340815181840F951FC817F1
:1027D000D90759F488819981840F951F02969183B6
:1027E00080838A819B81938382832115310529F41B
:1027F000F093B106E093B0063DC0E901FB83EA83A4
:1028000049915991C40FD51FEC17FD0761F48081E0
:102810009181840F951F0296E901998388838281B3
:1028200093819B838A83E0E0F0E012968D919C91E6
:102830001397009719F0FD01DC01F7CF8D919C9162
:1028400011979D012E5F3F4F820F931F2091AE067F
:102850003091AF062817390769F4309729F41092A0
:10286000B1061092B00602C013821282B093AF0676
:10287000A093AE06DF91CF910895A0E0B0E0E3E42D
:10288000F4E10C94C112EC01009721F4CB010E94F9
:102890001C13B4C0FC01E60FF71F9C012250310944
:1028A000E217F30708F4A8C0D9010D911C91119704
:1028B00006171707B0F00530110508F49BC0C801D2
:1028C00004978617970708F495C002501109061B54
:1028D000170B019311936D937C93CF010E94B41356
:1028E00089C05B01A01AB10A4C01800E911EA09113
:1028F000B006B091B106612C712CE12CF12C10972F
:1029000009F446C08D919C911197A815B905B1F5B0
:102910006C0142E0C40ED11CCA14DB0478F14C01F6
:102920008A189B08640142E0C40ED11C1296BC9028
:1029300012971396AC91B5E0CB16D10440F0B28259
:10294000A38391828082D9016D937C9309C00E5F2D
:102950001F4F800F911FF90191838083EB2DFA2F78
:10296000E114F10431F0D7011396FC93EE93129722
:1029700041C0F093B106E093B0063CC068167906FA
:1029800008F43C017D0112960D90BC91A02DB7CFAB
:102990008091AE069091AF0688169906E1F466160E
:1029A0007706C8F48091020190910301009741F4E9
:1029B0008DB79EB74091060150910701841B950B7E
:1029C000E817F907C8F4F093AF06E093AE06F901F3
:1029D000718360830FC0CB010E941C137C010097A0
:1029E00059F0A801BE010E940315CE010E94B41344
:1029F000C70104C0CE0102C080E090E0CDB7DEB7D1
:102A0000EEE00C94DD12FB01DC0102C001900D929E
:102A100041505040D8F70895FB01DC0101900D9220
:102A20000020E1F7089510E0C6EAD0E004C0FE01FE
:102A30000E9416132196C73AD107C9F7F894FFCF21
:102A400001010000B20680006B006C006D00000008
:102A50000100020003000400050006000700080052
:102A600009000A000B000C000D000E000F00010110
:102A70000101010101010101010101010101000048
:102A80000100020003000400050006000040145489
:102A900000401050000000006401D100FB00B101B3
:102AA0002C010A011E01000000001102D100D40215
:102AB000D2025707FD01F602D70200000000A30270
:102AC0007602D4025202DD016202530200000000CD
:102AD000D3027406E30691FF0000A3027602D4023B
:102AE0005202DD01620253020200040106050331B5
:102AF00032333435363738392A302308506173730E
:102B0000776F726420726573657400456E746572C8
:102B10002020436F6465002A202D20436C6561727C
:102B2000004576656E742048617070656E6564005E
:102B300054617374653A2000202D3E20436F646514
:102B40003A200048617368204E6F742055736564A5
:102B500000636C656172656400434C4541524544B5
:102B600000484F4C443A20005570646174654C43F2
:102B7000442000414343455353004752414E54457E
:102B8000440046757365626F78206F70656E00440F
:102B9000454E494544004C43442072656672657356
:102BA00068003D3D3D3D3D3D3D3D3D3D3D3D3D3D67
:102BB00046757365426F782032362E30322E3230B1
:102BC00031393D3D3D3D3D3D3D3D3D3D3D3D3D0082
:102BD0003D3D3D3D3D3D3D3D3D3D3D3D3D3D3D3D25
:102BE0003D3D3D53455455503D3D3D3D3D3D3D3DB5
:102BF0003D3D3D3D3D3D3D3D3D3D3D3D3D005374F5
:102C0000617274696E672E2E2E004C43443A202068
:102C10002020206F6B0020202020200052656C6156
:102C200079205B005D2073657420746F200052650D
:102C30006C61793A2020206F6B00496E7075747357
:102C40003A20206F6B004B65797061643A206F6B9E
:102C50000057445420656E6461626C6564003D3DBC
:102C60003D3D3D3D3D3D3D3D3D3D3D3D3D3D3D3D94
:102C70003D53544152543D3D3D3D3D3D3D3D3D3D27
:102C80003D3D3D3D3D3D3D3D3D3D3D00436F72720F
:102C90006563742066757365732072656D6F766504
:102CA000640046616C736520667573657320696E98
:102CB0007374616C6C65640034205A65696368657F
:102CC0006E2065696E6765626562656E202D207590
:102CD00065626572707275656665205061737377A1
:102CE0006F727400436F72726563742070617373E6
:102CF000776F72640057726F6E67207061737377BD
:102D00006F726400436865636B2070617373776FE3
:102D1000726420446F6E65004576657279746869E7
:102D20006E6720636F72726563742C206F70656EBE
:102D300020646F6F7200323531370046555345427B
:0C2D40004F582076312E30000D0A0000A4
:00000001FF
